:100000000C941E070C943B070C943B070C943B0785
:100010000C943B070C943B070C943B070C943B0758
:100020000C943B070C943B070C943B070C943B0748
:100030000C943B070C943B070C943B070C943B0738
:100040000C943B070C943B070C943D070C943B0726
:100050000C943B070C943B070C943B070C943B0718
:100060000C943B070C943B07293A2000746F6F20D7
:100070006D616E7920617267756D656E74732800AD
:1000800045786974696E670A0078000A000A4E753F
:100090006D626572206F66206573636170652063B1
:1000A000686172616374657273206E65656465640E
:1000B0003A2000456E746572206E756D626572201F
:1000C0006F66206573636170652063686172616348
:1000D0007465727320746F206C6F6F6B20666F7223
:1000E0003A200036000A000A4E6577206573636186
:1000F0007065206368617261637465723A200045BF
:100100006E7465722061206E65772065736361701F
:1001100065206368617261637465723A200035001E
:100120004E65772066696C65206E756D626572201C
:10013000726573657420746F207A65726F0A00347B
:1001400000436F6D6D616E642070726F6D70740A24
:10015000003300417070656E642066696C65206CC8
:100160006F6767696E670A0032004E6577206669BF
:100170006C65206C6F6767696E670A0031007829CB
:1001800020457869740A003629204E756D626572C3
:10019000206F6620657363617065206368617261BA
:1001A00063746572730A003529204E657720657384
:1001B00063617065206368617261637465720A00CF
:1001C0003429205265736574206E65772066696CEA
:1001D00065206E756D6265720A00332920436F6D6C
:1001E0006D616E642070726F6D70740A0032292028
:1001F000417070656E642066696C65206C6F67671E
:10020000696E670A003129204E65772066696C6542
:10021000206C6F6767696E670A004368616E676587
:1002200020746F3A0A000A00207820004375727229
:10023000656E7420657363617065206368617261C7
:100240006374657220616E6420616D6F756E743ABF
:1002500020000A00436F6D6D616E6400417070652F
:100260006E642066696C65004E65772066696C6512
:100270000043757272656E7420626F6F74206D6FCB
:1002800064653A20000A53797374656D20436F6E7C
:1002900066696775726174696F6E0A000A457869EC
:1002A00074696E670A0078000A476F696E67207488
:1002B0006F203131353230306270732E2E2E0A00AD
:1002C00036000A476F696E6720746F203537363005
:1002D000306270732E2E2E0A0035000A476F696E49
:1002E0006720746F2031393230306270732E2E2EB9
:1002F0000A0034000A476F696E6720746F20393630
:1003000030306270732E2E2E0A0033000A476F6958
:100310006E6720746F20343830306270732E2E2E4A
:100320000A0032000A476F696E6720746F2032340A
:1003300030306270732E2E2E0A003100782920454D
:100340007869740A00362920313135323030206224
:1003500070730A00352920353736303020627073CB
:100360000A003429203139323030206270730A009B
:1003700033292039363030206270730A0032292048
:1003800034383030206270730A0031292032343022
:1003900030206270730A004368616E676520746F75
:1003A0003A0A003030206270730A00313135320071
:1003B00035373600313932003936003234003438BE
:1003C0000043757272656E743A20000A426175646A
:1003D00020436F6E66696775726174696F6E3A0A61
:1003E00000626175640909093A204D656E752074D3
:1003F0006F20636F6E6669677572652062617564F0
:1004000020726174650A007365740909093A204D08
:10041000656E7520746F20636F6E666967757265AF
:100420002073797374656D20626F6F74206D6F64D3
:10043000650A000A4D656E75733A0A006566696E55
:10044000666F203C66696C6520696E6465783E095C
:1004500009093A2052657475726E732074686520BC
:1004600066696C65206E616D6520616E64206669E9
:100470006C652073697A65206F66203C66696C65DF
:1004800020696E6465783E20696E2074686520631B
:10049000757272656E74206469726563746F7279C7
:1004A0000A006566636F756E740909093A20526522
:1004B0007475726E2074686520746F74616C206E40
:1004C000756D626572206F662066696C6573206960
:1004D0006E207468652063757272656E742064693D
:1004E000726563746F72792E0A0065656D203C6FCA
:1004F0006E2F6F66663E0909093A205475726E20A8
:100500006F6E206F72206F666620456D6265646451
:10051000656420456E64204D61726B6572202D20EC
:1005200073696D706C696669657320656D62656479
:1005300064656420636F6D6D756E69636174696F66
:100540006E73206265747765656E20612075432047
:10055000616E64206F70656E4C6F672E2044656617
:1005600061756C74206973206F66662E0A0065637E
:10057000686F203C6F6E2F6F66663E0909093A204E
:100580005475726E206F6E206F72206F66662063E6
:100590006861726163746572206563686F696E6714
:1005A0002E2044656661756C74206973206F6E2E11
:1005B0000A00766572626F7365203C6F6E2F6F66FE
:1005C000663E0909093A205475726E206F6E206FDD
:1005D00072206F66662074686520657874656E6445
:1005E0006564206572726F7220696E666F726D61EC
:1005F00074696F6E2E2044656661756C7420697332
:10060000206F6E2E0A0062696E617279203C6F6EF7
:100610002F6F66663E0909093A205475726E206F85
:100620006E206F72206F66662062696E617279203B
:100630006D6F64652E2044656661756C7420697306
:10064000206F6E2E0A0073796E630909093A2045FE
:100650006E737572657320616C6C20627566666579
:1006600072656420646174612069732077726974B3
:1006700074656E20746F2074686520636172640A0B
:1006800000696E69740909093A205265696E6974D6
:1006900069616C697A657320616E642072656F7040
:1006A000656E7320746865206D656D6F7279206367
:1006B0006172640A006469736B0909093A2053681E
:1006C0006F77732063617264206D616E756661631C
:1006D00074757265722C207374617475732C206646
:1006E000696C6573797374656D20636170616369AA
:1006F000747920616E6420667265652073746F7210
:100700006167652073706163650A0073697A6520AB
:100710003C66696C653E09093A2057726974652028
:1007200073697A65206F662066696C6520746F2036
:100730007465726D696E616C0A0072656164203C5B
:1007400066696C653E203C73746172743E203C6C3B
:10075000656E6774683E09093A205772697465735B
:10076000204153434949203C6C656E6774683E20C4
:100770007061727473206F66203C66696C653E2000
:10078000746F20746865207465726D696E616C2089
:100790007374617274696E67206174203C73746154
:1007A00072743E2E204F6D6D6974203C73746172BB
:1007B000743E20616E64203C6C656E6774683E20F8
:1007C000746F20726561642077686F6C652066695C
:1007D0006C650A00636174203C66696C653E0909BA
:1007E0003A20577269746573206120686578647572
:1007F0006D70206F66203C66696C653E20746F20CA
:10080000746865207465726D696E616C0A006C7342
:100810000909093A2053686F77732074686520636B
:100820006F6E74656E74206F6620746865206375E2
:100830007272656E74206469726563746F72792E6A
:10084000205573652077696C646361726420746FEE
:1008500020646F20612077696C6463617264206C2E
:10086000697374696E67206F662066696C657320B2
:10087000696E2063757272656E7420646972656357
:10088000746F72790A006364202E2E09093A20439E
:1008900068616E67657320746F206C6F7765722076
:1008A0006469726563746F727920696E2074726511
:1008B000650A006364203C6469726563746F7279D1
:1008C0003E09093A204368616E676573206375725B
:1008D00072656E7420776F726B696E6720646972DF
:1008E0006563746F727920746F203C64697265630C
:1008F000746F72793E0A006D64203C6469726563AE
:10090000746F72793E093A20437265617465732091
:1009100061206469726563746F72792063616C6CC5
:100920006564203C6469726563746F72793E0A0085
:10093000726D203C66696C653E09093A2044656C1D
:1009400065746573203C66696C653E2E2055736541
:100950002077696C646361726420746F20646F2017
:10096000612077696C64636172642072656D6F7673
:10097000616C206F662066696C65730A0077726926
:100980007465203C66696C653E203C6F66667365E5
:10099000743E093A205772697465732074657874DF
:1009A00020746F203C66696C653E2C207374617204
:1009B00074696E672066726F6D203C6F6666736542
:1009C000743E2E2054686520746578742069732005
:1009D000726561642066726F6D2074686520554190
:1009E00052542C206C696E65206279206C696E65AA
:1009F0002E2046696E697368207769746820616E7D
:100A000020656D707479206C696E650A0061707084
:100A1000656E64203C66696C653E09093A20417048
:100A200070656E6473207465787420746F20656ED1
:100A300064206F66203C66696C653E2E20546865B4
:100A40002074657874206973207265616420667211
:100A50006F6D20746865205541525420696E206185
:100A60002073747265616D20616E64206973206EFD
:100A70006F74206563686F65642E2046696E6973C4
:100A8000682062792073656E64696E6720437472B2
:100A90006C2B7A20284153434949203236290A00D9
:100AA0006E6577203C66696C653E09093A204372A1
:100AB0006561746573203C66696C653E0A00417629
:100AC00061696C61626C6520636F6D6D616E6473EA
:100AD0003A0A000A4F70656E4C6F672076312E36E9
:100AE000320A007E00216572726F7220777269741B
:100AF000696E6720746F2066696C650A00216572F3
:100B0000726F722077726974696E6720746F2066E5
:100B1000696C650A00216572726F72207772697460
:100B2000696E6720746F2066696C650A00216572C2
:100B3000726F722077726974696E6720746F2066B5
:100B4000696C650A006572726F72207772697469E8
:100B50006E6720746F2066696C650A006572726F3B
:100B6000722077726974696E6720746F2066696C91
:100B7000650A00216572726F72207365656B696E1C
:100B800067206F6E2000216572726F72206F706532
:100B90006E696E672000756E6B6E6F776E20636F87
:100BA0006D6D616E643A20006572726F72207379A8
:100BB0006E63696E67206469736B0A0073796E6394
:100BC000006566696E666F00636F756E747C0065A4
:100BD00066636F756E74006F6666006F6E006565A4
:100BE0006D006F6666006F6E00766572626F73658A
:100BF000006F6666006F6E006563686F006F666603
:100C0000006F6E0062696E61727900216572726FA9
:100C100072206372656174696E67206469726563CE
:100C2000746F72793A20006D6400617070656E6453
:100C300000216572726F722077726974696E672025
:100C4000746F2066696C6500216572726F72207323
:100C500065656B696E67206F6E2000216572726F2B
:100C600072206F70656E696E6720007772697465B7
:100C7000006572726F72206372656174696E6720BD
:100C800066696C653A20006E6577006572726F72F6
:100C90002064656C6574696E672066696C653A20CE
:100CA00000726D0073697A65006572726F722072EE
:100CB000656164696E67206469736B20696E666F35
:100CC0000A006469736B006572726F7220736565E8
:100CD0006B696E67206F6E20006572726F72206F95
:100CE00070656E696E672000726561640021006541
:100CF00072726F72206F70656E696E67200063613B
:100D000074006C73006469726563746F7279206E2D
:100D10006F7420666F756E643A20006364007365BB
:100D20007400626175640068656C70003F0046691C
:100D30006C652073797374656D20696E697469617F
:100D40006C697A65640A00436C6F73696E6720642E
:100D50006F776E2066696C652073797374656D0AB0
:100D600000696E697400667265653A20202000662D
:100D70006F726D61743A200077722E70722E3A2075
:100D800000636F70793A202020004D420A00736999
:100D90007A653A20202000646174653A20202000A2
:100DA00073657269616C3A203078007265763A201A
:100DB0002020200070726F643A202020006F656D43
:100DC0003A20202020006D616E75663A2020307830
:100DD0000021546F6F206D616E79206C6F67733ADC
:100DE00032210021546F6F206D616E79206C6F6726
:100DF000733A3121004572726F72206372656174BB
:100E0000696E67205345514C4F470A004372656134
:100E100074696E67205345514C4F470A00657272E2
:100E20006F72206F70656E696E6720636F6E6669A2
:100E3000672066696C6500320031000011241FBE16
:100E4000CFEFD8E0DEBFCDBF11E0A0E0B1E0ECE82D
:100E5000F7E602C005900D92AC3AB107D9F717E05A
:100E6000ACEAB1E001C01D92A336B107E1F70E94E0
:100E700071190C94C4330C9400001F920F920FB69A
:100E80000F9211242F938F939F93EF93FF938BB126
:100E900090E289278BB99091C600809147078130F5
:100EA00069F480914807981749F4809149078F5F4A
:100EB0008093490780919D0182FD1BC0E0918104D0
:100EC000F0918204E757FB4F9083809181049091C9
:100ED000820401969093820480938104809181041E
:100EE000909182048C5B924021F4109282041092C3
:100EF0008104FF91EF919F918F912F910F900FBEE1
:100F00000F901F901895F999FECF92BD81BD60BDDD
:100F1000FA9AF99A089581E090E061E00E948307CF
:100F200082E090E060E00E94830785E090E06AE163
:100F30000E94830786E090E063E00E9483070895A3
:100F4000F999FECF92BD81BDF89A80B5089581E0F0
:100F500090E00E94A007809386048B3040F081E0EF
:100F60008093860481E090E061E00E94830782E044
:100F700090E00E94A00780938004863038F01092A1
:100F8000800482E090E060E00E94830785E090E0CA
:100F90000E94A0078093480781508E3F40F08AE16D
:100FA0008093480785E090E06AE10E94830786E02D
:100FB00090E00E94A0078093830481508E3F40F010
:100FC00083E08093830486E090E063E00E948307DF
:100FD00008959C01220F331F81E006C085BB16BC1B
:100FE000A89BFECF2050314091E021303907B0F767
:100FF00081E085BB822F819586BDA89BFECF089599
:10100000CF93DF93EC0105C088EE93E00E94E907DF
:1010100021972097C9F7DF91CF9108950F931F93E0
:10102000CF93DF93C0E0D0E0082F10E00BC05D9AB3
:1010300084E690E00E9400085D9884E690E00E94BB
:1010400000082196C017D10794F380ED97E00E9425
:101050000008C0E0D0E0F6CF0F931F93509A589A43
:1010600048991AC0459A10E000E289E190E00E9498
:1010700000088BB180278BB948990EC089E190E0B8
:101080000E94000885B1802785B9489905C01F5F77
:10109000183259F781E001C080E01F910F91089547
:1010A000ECEAF1E020E080819181892B19F08281C6
:1010B00081112F5F339681E0E83BF807A1F7822F7B
:1010C00008951F93CF93DF93EC01162F0E945008D1
:1010D000843058F490E0FC01EE0FFF1FE80FF91F79
:1010E000E455FE4FD183C0831283DF91CF911F91CE
:1010F0000895AC0120E030E070E00DC0FA01E20F8D
:10110000F31F808190E0C0970A9718F040E050E00C
:1011100005C02F5F3F4F2617370784F3CA01089594
:10112000FC01DB0108C0891721F08F3311F080E04A
:101130000895319611969C919923F1F080818A321D
:1011400091F71AC080818A3259F4319680818823C0
:1011500011F481E008959D012F5F3F4FAF0110C052
:10116000891711F08F3319F43196119609C0FA01DD
:10117000D9012F5F3F4F04C020E030E040E050E055
:101180009C919923F9F601C0319690819A32E1F34E
:1011900080E0992309F481E0089583ED9AE00E94AC
:1011A000B92F8EEB9AE00E94B92F80EA9AE00E9454
:1011B000B92F8DE09AE00E94B92F8DE799E00E9447
:1011C000B92F80E399E00E94B92F87EF98E00E9441
:1011D000B92F83EB98E00E94B92F86E898E00E942F
:1011E000B92F8EE098E00E94B92F84ED97E00E941D
:1011F000B92F8AE397E00E94B92F8BE097E00E9415
:10120000B92F85EB96E00E94B92F81E896E00E9405
:10121000B92F86E496E00E94B92F86E096E00E94FE
:10122000B92F82EB95E00E94B92F8EE695E00E94DF
:10123000B92F8AEE94E00E94B92F82EA94E00E94CE
:10124000B92F8CE394E00E94B92F83E394E00E94CD
:10125000B92F87E094E00E94B92F81EE93E00E94BD
:10126000B92F08950F931F93CF93DF93182FEB019E
:101270000E945008082F181710F080E013C08CE669
:1012800090E00E94B92F802F90E00E94052F88E601
:1012900090E00E94B92FCE010E94AC2F8AE00E94FC
:1012A000BD2E81E0DF91CF911F910F910895EF92B4
:1012B000FF920F931F93CF93DF937C01062F8CE057
:1012C000ECEAF1E0DF011D928A95E9F740E011E0D8
:1012D000C62FD0E01EC0212F30E0F701E20FF31F30
:1012E0008081803229F02F5F3F4F2C173D0781F41A
:1012F000812F90E001968C179D0709F4102F612F24
:10130000641BC701840F911D0E9461081F5F412F5C
:101310001F5F101700F30E945008DF91CF911F91BB
:101320000F91FF90EF900895982F89E1EAE4F7E09C
:10133000DF011D928A95E9F79430E8F4892F90E057
:10134000FC01EE0FFF1FE80FF91FE455FE4F60810F
:1013500071816115710579F04281442361F04A3150
:1013600018F049E150E001C050E08AE497E00E94A3
:10137000CA309C0102C020E030E0C9010895DF922C
:10138000EF92FF920F931F93CF93DF93EC01D62E32
:1013900060E070E04D2D50E00E948F3000E0ED2CB9
:1013A000FF240894E108F1082BC00E94C72F182FD2
:1013B000883011F08F3789F4002311F10150FE01BC
:1013C000E00FF11D108288E00E94BD2E80E20E9495
:1013D000BD2E88E00E94BD2E13C080919D0180FF2C
:1013E00003C0812F0E94BD2EE02FF0E01A3021F4BF
:1013F000EC0FFD1F108209C0EC0FFD1F10830F5F63
:10140000802F90E08E159F0584F2CE016D2D0E94F5
:101410005709802FDF91CF911F910F91FF90EF908F
:10142000DF900895CF92DF92EF92FF920F931F9378
:10143000CF93DF93EC01162F60E070E0412F50E076
:101440000E948F3000E0C12EDD240894C108D1082D
:1014500023C00E94C72F182F883011F08F3789F4CE
:101460000023D1F00150FE01E00FF11D108288E051
:101470000E94BD2E80E20E94BD2E88E00E94BD2EFB
:101480000BC00E94BD2EFE01EE0DFF1D1A3111F49E
:10149000108207C010830F5FE02EFF24EC14FD04C0
:1014A000C4F2802FDF91CF911F910F91FF90EF90A9
:1014B000DF90CF9008950F931F93DF93CF93CDB715
:1014C000DEB7AB970FB6F894DEBF0FBECDBF0E945C
:1014D0000A1E882319F483E00E940E080E94152436
:1014E0008CED9CE16AE97DE14CEE5BE123EA3EE1B3
:1014F00000E00E948C199093880480938704892BC4
:1015000079F48CED9CE16AE97DE14CEE5BE123EA44
:101510003EE10FEF0E948C1990938804809387041A
:1015200080918704909188040E94702590937F0495
:1015300080937E0460E071E08E010F5F1F4FA80171
:101540000E94022E80917E0490917F04B8010E9437
:101550008F2D9093460780934507AB960FB6F8946E
:10156000DEBF0FBECDBFCF91DF911F910F910895C8
:10157000CF92DF92FF920F931F93CF93DF93EB01F4
:101580006A01F22E132FCB010E94DF2115C08F2D8F
:10159000912FB6010E94AC30009749F0013061F400
:1015A000C6016F2D712F0E949008813029F4CE0161
:1015B0000E94DF2181E007C0CE016F2D712F0E94B4
:1015C0008524882321F7DF91CF911F910F91FF9000
:1015D000DF90CF900895CF92DF92EF92FF920F931A
:1015E000DF93CF93CDB7DEB7AB970FB6F894DEBFDE
:1015F0000FBECDBF7C016E010894C11CD11C9601A9
:1016000000E00E94B80A882319F420E030E005C009
:10161000C701B6010E94CC2D9C01C901AB960FB643
:10162000F894DEBF0FBECDBFCF91DF910F91FF9039
:10163000EF90DF90CF900895EF92FF920F931F935A
:10164000DF93CF9300D000D0CDB7DEB78C0181E01F
:1016500080934707609145077091460780917E040B
:1016600090917F04A8010E94EB0A7C01009761F42D
:1016700080919D0181FF22C086E89BE00E94B92FE6
:10168000C8010E94AC2F1AC019821A821B821C82C8
:10169000BE016F5F7F4F42E00E94B62B882391F41A
:1016A00080919D0181FF07C083E79BE00E94B92FD5
:1016B000C8010E94AC2FC7010E94892010924707E1
:1016C00080E088C180919D0183FF03C08AE10E9470
:1016D000BD2E8CE30E94BD2E5D9A10924907109298
:1016E000820410928104109285041092840429E8E7
:1016F00034E0C90160E070E04CEB52E00E948F30B2
:101700008091C10080688093C1007894B5C09091A9
:10171000490780918304981708F0BCC00F5F1F4FE2
:1017200023E10938120708F4A2C080918404909143
:101730008504892B09F483C08091840490918504E9
:101740008E55914009F47BC080918404909185046A
:101750008E559140B8F44091840450918504C7019E
:1017600069E874E00E94122C209184043091850471
:101770008217930719F180919D0181FF1FC08CE5AD
:101780009BE01AC040918404509185044E5551400D
:10179000C70167EE75E00E94122C209184043091FD
:1017A00085042E5531408217930741F080919D01A9
:1017B00081FF04C085E49BE00E94B92F80918404DE
:1017C000909185048F55914018F460E070E002C05C
:1017D0006EE571E0F894AB011EC080918404909195
:1017E0008504FC01E757FB4F2081FA01E757FB4FC7
:1017F00020830196909385048093840480918404CF
:10180000909185048C5B924020F010928504109298
:1018100084044F5F5F4F2091840430918504809150
:1018200081049091820428173907B9F650938204F5
:1018300040938104709385046093840478940E949B
:10184000C21C08C05D9883B7816083BF889583B749
:101850008E7F83BF20918404309185048091810420
:10186000909182042817390769F300E010E081E0C5
:1018700090E00E94000802C000E010E02091840483
:101880003091850480918104909182042817390752
:1018900009F43DCF9091490780918304981738F05F
:1018A000F8948091C1008F778093C10040C08091EF
:1018B0008404909185040196909385048093840418
:1018C00080918404909185048E55914089F4C701DC
:1018D00069E874E04EE551E00E94122C8E5591406B
:1018E00039F080919D0181FF22C08DE29BE01DC0F7
:1018F00080918404909185048C5B924009F0BCCF68
:101900001092850410928404C70167EE75E04EE5DD
:1019100051E00E94122C8E55914009F4ADCF809178
:101920009D0181FF04C085E19BE00E94B92F809159
:10193000840490918504892B09F441C0809184042A
:10194000909185048E559140D1F1809184049091BD
:1019500085048E559140B8F44091840450918504DB
:10196000C70169E874E00E94122C20918404309130
:1019700085048217930719F180919D0181FF1FC093
:101980008DEF9AE01AC040918404509185044E5521
:101990005140C70167EE75E00E94122C209184042B
:1019A000309185042E5531408217930741F0809184
:1019B0009D0181FF04C085EE9AE00E94B92FC70106
:1019C0000E9489205D9883EE9AE00E94B92F1092C0
:1019D000470781E00F900F900F900F90CF91DF910C
:1019E0001F910F91FF90EF9008959F92AF92BF9239
:1019F000CF92DF92EF92FF920F931F93DF93CF93DB
:101A0000CDB7DEB7AB970FB6F894DEBF0FBECDBF34
:101A100083E090E00E94A007182F84E090E00E94ED
:101A2000A007282F1F3F79F48F3F69F483E090E0EF
:101A300060E00E94830784E090E060E00E948307FA
:101A4000CC24DD240EC0922F80E0C12EDD24C82AD4
:101A5000D92A8EEFC8168FEFD80619F483EE9DE0D1
:101A60004BC000D000D000D0EDB7FEB731960AE4ED
:101A700017E0ADB7BEB712961C930E93119742E0D4
:101A8000E42E41E0F42EF382E282D582C4820E94E9
:101A9000EC308DB79EB706960FB6F8949EBF0FBE7A
:101AA0008DBF902E012F5E010894A11CB11C1E2D2C
:101AB000EF2C25C000D000D000D0EDB7FEB7319696
:101AC000ADB7BEB711969C92119712960C931283E4
:101AD000E382D582C4820E94EC308DB79EB7069611
:101AE0000FB6F8949EBF0FBE8DBF9EEFC9169FEF35
:101AF000D90628F081ED9DE00E94B92F22C0809187
:101B00004507909146076AE477E0A5010E94312AD3
:101B10000894C11CD11C882369F283E090E06C2DED
:101B20000E94830784E090E00E94A0078D1529F0B1
:101B300084E090E06D2D0E9483078AE497E00E9484
:101B40001C0BAB960FB6F894DEBF0FBECDBFCF9186
:101B5000DF911F910F91FF90EF90DF90CF90BF909A
:101B6000AF909F900895EF92FF920F931F93DF9392
:101B7000CF93CDB7DEB7E8970FB6F894DEBF0FBEB0
:101B8000CDBF8E010F5F1F4FC8016EE071E00E9454
:101B9000B530609145077091460780917E04909121
:101BA0007F04A8010E94EB0A7C010097A9F48CE055
:101BB0009EE00E94B92F8091450790914607B80199
:101BC000AE01425F5F4F0E94312A882329F485EFDE
:101BD0009DE00E94B92F07C0C7010E948920CE0155
:101BE00001960E941C0BE8960FB6F894DEBF0FBE5C
:101BF000CDBFCF91DF911F910F91FF90EF9008958E
:101C00007F928F929F92AF92BF92CF92DF92EF928C
:101C1000FF920F931F93DF93CF93CDB7DEB7CB54D3
:101C2000D0400FB6F894DEBF0FBECDBF8E010C5F63
:101C30001F4FC80169E171E00E94B530609145070E
:101C400070914607E1E2EE2EF12CEC0EFD1E809124
:101C50007E0490917F04A801970100E00E94B80AD9
:101C6000882339F080917E0490917F04B7010E940F
:101C7000C0228E010C5F1F4F80914507909146074F
:101C8000B801AE014F5D5F4F0E94312A882319F4DD
:101C900084E291E010C06091450770914607809101
:101CA0007E0490917F04A8010E94EB0A5C010097DA
:101CB00029F481E491E00E94AC2FD8C081E090E04B
:101CC0000E94A007082F82E090E00E94A007782ED3
:101CD00085E090E00E94A007982E86E090E00E94A8
:101CE000A007882E002329F4CE0141966DE571E00E
:101CF00022C0043029F4CE01419662E671E01BC097
:101D0000013029F4CE01419667E671E014C0053038
:101D100029F4CE0141966CE671E00DC0023029F441
:101D2000CE01419662E771E006C0033031F4CE0186
:101D3000419668E771E00E94B5308E010F5E1F4F3B
:101D4000C8016FE771E00E94963000D000D000D04B
:101D5000EDB7FEB731967E010894E11CF11CADB7DA
:101D6000BEB71296FC92EE92119751E8C52E51E043
:101D7000D52ED382C282948215820E94EC308DB718
:101D80009EB706960FB6F8949EBF0FBE8DBFC801D2
:101D9000B7010E949630C8016FE771E00E9496304B
:101DA00000D000D000D0EDB7FEB73196ADB7BEB7CA
:101DB0001296FC92EE921197D382C282848215828F
:101DC0000E94EC308DB79EB706960FB6F8949EBF72
:101DD0000FBE8DBFC801B7010E949630C8016FE7E2
:101DE00071E00E94963000D000D000D0EDB7FEB771
:101DF0003196ADB7BEB71296FC92EE921197D38290
:101E0000C282748215820E94EC308DB79EB706960E
:101E10000FB6F8949EBF0FBE8DBFC801B7010E94D8
:101E2000963089E894E0B8010E94B530F80101903D
:101E30000020E9F73197E01BF10BC50169E874E078
:101E4000AF010E94122CF80101900020E9F73197B0
:101E5000E01BF10B8E179F0721F084E891E00E94B0
:101E6000AC2FC5010E9489200E94C21CC55BDF4FB8
:101E70000FB6F894DEBF0FBECDBFCF91DF911F919B
:101E80000F91FF90EF90DF90CF90BF90AF909F9019
:101E90008F907F900895FF920F931F93DF93CF93BE
:101EA00000D000D00F92CDB7DEB782E090E00E9464
:101EB000A007F82E8E010F5F1F4F85E892E00E9469
:101EC000B92F81E792E00E94B92FFF2019F488E62C
:101ED00092E00BC081E0F81619F48CE592E005C0A1
:101EE00082E0F81621F484E592E00E94B92F82E5A1
:101EF00092E00E94B92F8CE292E00E94B92F60918B
:101F0000480770E080E090E00E94432F88E292E072
:101F10000E94B92F6091830470E080E090E00E94FD
:101F2000432F86E292E00E94B92F8AE192E00E945C
:101F3000B92F85E092E00E94B92F8DEE91E00E94CA
:101F4000B92F8AED91E00E94B92F80EC91E00E94B8
:101F5000B92F87EA91E00E94B92F87E891E00E94AB
:101F6000B92F8EE791E00E94B92F8EE30E94BD2E1B
:101F7000C80165E00E94BF09882309F49ECFC8010B
:101F80006CE771E00E946F30892B41F48AE691E0A2
:101F90000E94B92F82E090E060E00EC0C80168E6C0
:101FA00071E00E946F30892B61F483E591E00E941B
:101FB000B92F82E090E061E00E9483070E94000E4A
:101FC0007CC0C80161E571E00E946F30892B41F44B
:101FD00081E491E00E94B92F82E090E062E0ECCFD2
:101FE000C8016FE371E00E946F30892B79F480E2C1
:101FF00091E00E94B92F83E090E060E00E948307A7
:1020000084E090E060E00E94830757C0C8016EE161
:1020100071E00E946F30892BE9F48FEF90E00E940D
:10202000B92F0E94C72F682F8093480785E090E062
:102030000E9483070E94000E87EE90E00E94B92F55
:102040006091480770E080E090E00E94432F85EEA9
:1020500090E031C0C80163EE70E00E946F30892BC0
:1020600001F583EB90E00E94B92F0E94C72F682FE3
:1020700060536A30B0F76093830486E090E00E947A
:1020800083070E94000E8DE890E00E94B92F6091B6
:10209000830470E080E090E00E94432F8BE890E0A2
:1020A0000AC0C80169E870E00E946F30892B09F00E
:1020B00004CF80E890E00E94B92F0F900F900F900E
:1020C0000F900F90CF91DF911F910F91FF90089586
:1020D000FF920F931F93DF93CF9300D000D00F9206
:1020E000CDB7DEB781E090E00E94A007F82E8E0108
:1020F0000F5F1F4F8BEC93E00E94B92F81EC93E0B0
:102100000E94B92F84E0F81619F48EEB93E01CC0FE
:10211000FF2019F48BEB93E017C081E0F81619F457
:1021200088EB93E011C085E0F81619F484EB93E096
:102130000BC082E0F81619F480EB93E005C083E051
:10214000F81621F48BEA93E00E94B92F83EA93E01A
:102150000E94B92F87E993E00E94B92F8AE893E0A3
:102160000E94B92F8DE793E00E94B92F80E793E09A
:102170000E94B92F82E693E00E94B92F84E593E094
:102180000E94B92F85E493E00E94B92F8CE393E07D
:102190000E94B92F8EE30E94BD2EC80165E00E9407
:1021A000BF09882309F4A6CFC8016AE373E00E943F
:1021B0006F30892B41F484E293E00E94B92F81E0D3
:1021C00090E060E04AC0C80162E273E00E946F30B4
:1021D000892B41F48CE093E00E94B92F81E090E0DC
:1021E00064E03BC0C8016AE073E00E946F30892B55
:1021F00041F484EF92E00E94B92F81E090E061E029
:102200002CC0C80162EF72E00E946F30892B41F44C
:102210008BED92E00E94B92F81E090E065E01DC057
:10222000C80169ED72E00E946F30892B41F482ECA5
:1022300092E00E94B92F81E090E062E00EC0C801F8
:1022400060EC72E00E946F30892B79F488EA92E0AA
:102250000E94B92F81E090E063E00E9483070E9412
:10226000000E85E00E940E080CC0C80166EA72E00C
:102270000E946F30892B09F03DCF8CE992E00E94DB
:10228000B92F0F900F900F900F900F90CF91DF917B
:102290001F910F91FF9008953F924F925F926F921E
:1022A0007F928F929F92AF92BF92CF92DF92EF92E6
:1022B000FF920F931F93DF93CF93CDB7DEB7CB562B
:1022C000D0400FB6F894DEBF0FBECDBFFF24F3940D
:1022D0000EE0402E512C4C0E5D1E1FE3612E712C22
:1022E0006C0E7D1E9E012A5F3F4FAC963FAF2EAF16
:1022F000AC9702C0FF24F39480919D0183FF03C03B
:102300008AE10E94BD2EFF2019F481E20E94BD2EB9
:1023100080E00E949409FC01009751F0808188239D
:1023200039F00E945008813019F48AE00E94BD2ED5
:102330008EE30E94BD2EC20168E10E94BF09FF2406
:10234000F3948823C9F280E00E9494098C0161E62D
:102350007DE00E946F30892BF9F480919D0181FF0F
:1023600004C087E49DE00E94B92F80917E04909183
:102370007F040E94FE1E80918704909188040E9431
:1023800084190E945B0A80919D0181FFB3CF8EE288
:102390009DE00E94B92FAECFC8016CE27DE00E94A3
:1023A0006F30892B39F0C80167E27DE00E946F3001
:1023B000892B19F40E94CD089FCFC80162E27DE00D
:1023C0000E946F30892B19F40E94681095CFC801C4
:1023D0006EE17DE00E946F30892B19F40E944B0F53
:1023E0008BCFC8016BE17DE042E050E00E94783085
:1023F000892BE1F582E0B2010E943209882309F0BD
:1024000008C681E00E9494097C01009709F401C686
:10241000609145077091460780917E0490917F04FA
:10242000A701930100E00E94B80A8823A9F08091D7
:102430007E0490917F04B3010E948F2D8C01009740
:1024400059F080914507909146070E94D921109339
:102450004607009345074ECF80919D0181FFD9C566
:1024600085E09DE00E94B92FC701D1C5C80162E097
:102470007DE00E946F30892B09F053C081E00E94FB
:1024800094097C0180914507909146070E94DF21C5
:1024900000E0B4E2DB2E3AC010E0E114F10429F0D0
:1024A000C701B3010E949008811111E0013021F4AD
:1024B0008AE00E94BD2E00E0112341F1D3010D906E
:1024C0000020E9F78D010150104006191709C301DA
:1024D0000E94AC2FA0968FADA09784FD02C080E231
:1024E00001C08FE21D2D101B0E94BD2E04C080E292
:1024F0000E94BD2E11501123D1F7A6966CAD7DAD73
:102500008EAD9FADA6970E94432F01E080914507B5
:1025100090914607B3010E948524882309F0BCCF1F
:10252000E9CEC8016EEF7CE043E050E00E947830D5
:10253000892B09F069C082E0B2010E943209882328
:1025400009F067C581E00E9494098C01009709F4A5
:1025500060C5609145077091460780917E04909117
:102560007F04A8010E94EB0A5C01009729F010E0AB
:10257000CC24DD2476013BC080919D0181FF08C001
:102580008FEE9CE00E94B92FC8010E94AC2F04C0BE
:102590008DEE9CE00E94B92F8AE00E94BD2E39C5C5
:1025A000113019F48AE00E94BD2EC701B6010E94C5
:1025B000F22E8AE30E94BD2E8E010A5F1F4F80E239
:1025C0000E94BD2EF80181918F010E94CC2E802F98
:1025D000AB96FFADAB978F1B891588F388E090E031
:1025E000A0E0B0E0C80ED91EEA1EFB1E11E0C50136
:1025F000BE016A5F7F4F48E050E00E948F20982E16
:10260000882371F6C50132C1C80168EE7CE044E060
:1026100050E00E947830892B09F02FC181E00E94A0
:1026200094098C01009709F4F4C4609145077091F6
:10263000460780917E0490917F04A8010E94EB0AD6
:102640004C01009739F480919D0181FFE2C489ED2E
:102650009CE0DAC482E00E949409AC01009709F47E
:1026600056C0FC0101900020E9F73197E81B20E0FB
:1026700030E06E2F70E00BC0FA01E20FF31F808193
:1026800090E0C0970A9708F042C02F5F3F4F26178F
:10269000370794F38A0120E030E040E050E017C0B3
:1026A000CA01B9012AE030E040E050E00E94E92F81
:1026B0009B01AC018F2D90E0C097AA2797FDA095B4
:1026C000BA2F280F391F4A1F5B1F0F5F1F4FD801FA
:1026D000FC908F2D80538A3018F32A833B834C83E0
:1026E0005D83C401BE016E5F7F4F40E00E94B62B48
:1026F000882369F480919D0181FF07C087EC9CE0ED
:102700000E94B92FC2010E94AC2FC401A2C283E073
:102710000E949409AC010097E1F1FC0101900020B6
:10272000E9F73197E81B20E030E06E2F70E00AC037
:10273000FA01E20FF31F808190E0C0970A9748F5F5
:102740002F5F3F4F261737079CF36A01EE24FF24C3
:10275000870118C0C801B7012AE030E040E050E02E
:102760000E94E92F7B018C018B2D90E0C097AA2756
:1027700097FDA095BA2FE80EF91E0A1F1B1F08949B
:10278000C11CD11CF601B0808B2D80538A3010F310
:1027900004C0EE24EA94FE2C870129E834E0C90144
:1027A00060E070E04CEB52E00E948F30AA24BB2422
:1027B0006501AEE23A2E36C080919D0182FF0AC0CB
:1027C0009981892F80528F3528F09A3019F09D30E9
:1027D00009F039828981F501E757FB4F808308941E
:1027E000A11CB11CC11CD11C3BEBA31632E0B306EB
:1027F00030E0C30630E0D30680F089E894E00E9420
:10280000AC2FA9E8B4E0CD0160E070E04CEB52E001
:102810000E948F30AA24BB2465010894E108F108C6
:1028200001091109C401BE016F5F7F4F41E050E013
:102830000E948F201816190634F4E114F1040105E2
:10284000110509F0B9CFA114B104C104D10469F094
:1028500089E894E00E94AC2FE9E8F4E0CF0160E061
:1028600070E04CEB52E00E948F30C4010E9489203E
:1028700080919D0183FD3ECDAEC0C80162EC7CE03D
:102880000E946F30892B09F0B1C000917E04109135
:102890007F040115110509F4A2C0CE0186960E949D
:1028A000CF1A882309F49BC086EC9DE00E94B92FC3
:1028B0008EA10E94CC2E8AE00E94BD2E8DEB9DE061
:1028C0000E94B92FCE0187960E94AC2F8AE00E9409
:1028D000BD2E84EB9DE00E94B92FCE018A960E9406
:1028E000AC2F8AE00E94BD2E8BEA9DE00E94B92F9A
:1028F00088A90E94CC2E8AE00E94BD2E80EA9DE02D
:102900000E94B92F69A97AA98BA99CA90E94F22ECD
:102910008AE00E94BD2E87E99DE00E94B92F8EA912
:1029200090E00E94052F8FE20E94BD2E8DA990E0BD
:102930000E94052F8AE00E94BD2E8EE89DE00E9435
:10294000B92F6FA978AD89AD9AADF4E196958795C9
:1029500077956795FA95D1F70E94432F8AE89DE015
:102960000E94B92F81E89DE00E94B92F8BAD90E0C5
:102970000E94052F8AE00E94BD2E88E79DE00E94FC
:10298000B92F8DAD90E00E94052F8FE20E94BD2EE1
:102990008CAD90E00E94052F8AE00E94BD2E8FE64C
:1029A0009DE00E94B92F8EAD90E00E94052F8AE035
:1029B0000E94BD2E86E69DE00E94B92FC8010E94AC
:1029C00061230E94432F8FE20E94BD2EC8010E9406
:1029D00042230E94432F8AE00E94BD2E8BCC80911F
:1029E0009D0181FF16C389EA9CE005C3C80164EA22
:1029F0007CE044E050E00E947830892B81F582E051
:102A0000B2010E943209882309F003C381E00E94C9
:102A10009409AC01009709F4FCC2609145077091DC
:102A2000460780917E0490917F04930100E00E940C
:102A3000B80A882311F4FF240AC0A6966CAD7DADB8
:102A40008EAD9FADA6970E94432FFF24F3948091F3
:102A50009D0183FD51CC8AE00E94BD2E4DCCC80162
:102A600061EA7CE042E050E00E947830892BB9F5C1
:102A700083E0B2010E943209882309F0CAC281E0D2
:102A80000E9494096C01009709F4C3C2FF2417C087
:102A900080917E0490917F04B3010E94C02288231C
:102AA00019F0FF24F3940BC080919D0181FF07C0B2
:102AB0008BE89CE00E94B92FC2010E94AC2F60916C
:102AC00045077091460780917E0490917F04A6018E
:102AD000930101E00E94B80A8823D1F60DCCC80109
:102AE00067E87CE043E050E00E947830892B49F5AC
:102AF00082E0B2010E943209882309F08AC281E093
:102B00000E9494098C01009709F483C280914507C3
:102B1000909146070E94DF218091450790914607DA
:102B2000B801A3010E94312A882309F0E3CB8091E8
:102B30009D0181FF6EC281E79CE00E94B92FC20116
:102B400066C2C8016BE67CE045E050E00E94783048
:102B5000892B09F0ADC01A821B821C821D8281E084
:102B60000E949409892B09F454C282E00E949409BE
:102B7000AC01009709F440C0FC0101900020E9F786
:102B80003197E81B20E030E06E2F70E00BC0FA01B7
:102B9000E20FF31F808190E0C0970A9708F039C2D6
:102BA0002F5F3F4F2617370794F38A0120E030E06C
:102BB00040E050E017C0CA01B9012AE030E040E02F
:102BC00050E00E94E92F9B01AC018F2D90E0C0974F
:102BD000AA2797FDA095BA2F280F391F4A1F5B1F00
:102BE0000F5F1F4FD801FC908F2D80538A3018F350
:102BF0002A833B834C835D8381E00E9494098C018E
:102C0000609145077091460780917E0490917F0402
:102C1000A8010E94EB0A6C01009739F480919D0194
:102C200081FFF7C18BE59CE0EFC1BE016E5F7F4F76
:102C300040E00E94B62B882379F480919D0181FFAA
:102C400007C088E49CE00E94B92FC8010E94AC2F05
:102C5000C6010E948920DDC180919D0183FF03C0D0
:102C60008AE10E94BD2E8CE30E94BD2EC20168E164
:102C70000E94BF09182F882319F4FF24F39414C06D
:102C8000C601B201412F50E00E94122C212F30E0EA
:102C90008217930709F380919D0181FF04C081E3AE
:102CA0009CE00E94B92FFF24C6010E94892024CBFA
:102CB000C8016AE27CE046E050E00E947830892B4F
:102CC00089F482E0B2010E943209882309F0A1C18F
:102CD00081E00E949409009709F49BC10E941C0B9B
:102CE000F82E0ACBC80167E27CE042E050E00E9487
:102CF0007830892BC9F481E00E9494098C010097F7
:102D000009F487C18091450790914607B801A30156
:102D10000E947229882309F0EDCA80919D0181FFEC
:102D200078C18BE09CE070C1C80164E07CE00E9447
:102D30006F30892BF9F481E00E9494098C0100978F
:102D400009F467C161E07CE00E946F30982F88230E
:102D500021F480919D018B7F7CC0C8016DEF7BE0E9
:102D60000E946F30982F882309F075C080919D01D3
:102D700084606FC0C80168EF7BE00E946F30892BD0
:102D8000F9F481E00E9494098C01009709F441C193
:102D900065EF7BE00E946F30982F882321F48091AB
:102DA0009D01816056C0C80161EF7BE00E946F30D9
:102DB000982F882309F04FC080919D018E7F49C0D4
:102DC000C80169EE7BE00E946F30892BF1F481E04D
:102DD0000E9494098C01009709F41BC166EE7BE008
:102DE0000E946F30982F882321F480919D0182608A
:102DF00030C0C80162EE7BE00E946F30982F8823BC
:102E000051F580919D018D7F24C0C8016EED7BE05E
:102E10000E946F30892B21F581E00E9494098C017A
:102E2000009709F4F6C06BED7BE00E946F30982F9D
:102E3000882321F480919D0188600BC0C80167ED53
:102E40007BE00E946F30982F882329F480919D01A8
:102E5000877F80939D01FF24992309F04DCA4ACAB8
:102E6000C8016FEC7BE00E946F30892BB1F581E0E7
:102E70000E9494096C0180914507909146070E9439
:102E8000DF21EE24FF24870118C0A0968FADA09704
:102E900084FD13C0C114D10431F0C601B3010E94F6
:102EA0009008882351F0A0968FADA09784FD05C0AF
:102EB0000894E11CF11C011D111D809145079091A2
:102EC0004607B3010E9485248823F9F688EC9BE02D
:102ED0000E94B92FC801B7016AC0C80161EC7BE04C
:102EE0000E946F30892B09F074C081E00E94940920
:102EF000AC01009709F48DC0FC0101900020E9F7B6
:102F00003197E81B20E030E06E2F70E00BC0FA0133
:102F1000E20FF31F808190E0C0970A9708F079C014
:102F20002F5F3F4F2617370794F38A01AA24BB244B
:102F3000650117C0C601B5012AE030E040E050E06D
:102F40000E94E92F5B016C018F2D90E0C097AA27AA
:102F500097FDA095BA2FA80EB91ECA1EDB1E0F5FE3
:102F60001F4FF801F0808F2D80538A3018F3809125
:102F70004507909146070E94DF21EE24FF24870138
:102F80001EC0A0968FADA09784FD19C0EA14FB0463
:102F90000C051D0579F4C3010E94AC2F8CE70E943B
:102FA000BD2EA6966CAD7DAD8EAD9FADA6970E9451
:102FB000432FA0C90894E11CF11C011D111D809133
:102FC000450790914607B3010E9485248823C9F6DE
:102FD00020C0C8016CEB7BE00E946F30892B71F43C
:102FE0000E94C21C882309F085C980919D0181FF40
:102FF00010C088EA9BE00E94B92F0BC080919D0110
:1030000081FF07C086E99BE00E94B92FC8010E949A
:10301000AC2FFF2471C94F925F926F927F928F9273
:103020009F92AF92BF92CF92DF92EF92FF920F9357
:103030001F93DF93CF93CDB7DEB7CF54D0400FB6F9
:10304000F894DEBF0FBECDBF68E0E62EF12CEC0E8B
:10305000FD1EC70169E171E00E94B530609145072E
:103060007091460780917E0490917F04A7019E0194
:103070002B5D3F4F00E00E94B80A882309F4D9C0B5
:10308000609145077091460780917E0490917F047E
:10309000A7010E94EB0A7C01009729F48DE19EE0D4
:1030A0000E94B92FC8C055E1A52EB12CAC0EBD1E93
:1030B000B50140E150E00E948F20682EC7010E94B8
:1030C000892011E099244AE1842E33E0732EDD2417
:1030D000CC247E010894E11CF11C250127E0A22EDE
:1030E000B12CAC0EBD1E72C0ED93D3948A2F8E19F5
:1030F000F201ED0DF11DE081EC3229F0D61418F447
:10310000AA15BB0589F7F701E80FF11D1082CC2045
:10311000A9F5C7016DE571E00E94AC30009711F48C
:1031200010E052C0C70162E671E00E94AC30009727
:1031300011F414E049C0C70167E671E00E94AC30A9
:10314000009709F440C0C7016CE671E00E94AC3002
:10315000009711F415E038C0C70162E771E00E94E2
:10316000AC30009711F412E02FC0C70168E771E09E
:103170000E94AC30009739F513E026C081E0C816F4
:1031800049F4C7010E945130882E1816ECF09AE1DC
:10319000892E1AC082E0C81651F4C7010E9451302E
:1031A000782E81508A3080F083E0782E0DC083E045
:1031B000C81681F4C7010E945130982E8150853085
:1031C00018F0992401C011E0C394D394D61410F4DC
:1031D000D7018CCF80918604181751F081E090E0E0
:1031E000612F0E94830710938604812F0E94932EE3
:1031F00080918004981639F09092800482E090E0EB
:10320000692D0E94830780914807881639F08092C3
:10321000480785E090E0682D0E9483078091830431
:10322000781639F07092830486E090E0672D0E9452
:1032300083070E94000EC15BDF4F0FB6F894DEBF1C
:103240000FBECDBFCF91DF911F910F91FF90EF90F7
:10325000DF90CF90BF90AF909F908F907F906F90B6
:103260005F904F9008951F931092470782E085BDAD
:1032700080916400896C8093640083B7817F83BFF1
:1032800083B7816083BF559A259A0E942C088823B2
:10329000A1F00E948B070E945B0A0E94000E5D9ABB
:1032A0002D9A10E284EF91E00E9400088BB18127F3
:1032B0008BB985B1812785B9F5CF0E94A707809189
:1032C00086040E94932E89E39EE00E94B92F0E94FB
:1032D0005B0A87E39EE00E94B92F0E940B181F91A2
:1032E00008950E94331980918004882311F40E946C
:1032F000F50C80918004813011F40E94B30D0E947E
:103300004C1180E090E00895FC01009711F480E0FA
:103310000895108681E008958F929F92AF92BF9298
:10332000CF92DF92EF92FF920F93DF93CF93CDB7BF
:10333000DEB760970FB6F894DEBF0FBECDBF7C013D
:103340006B015A014901009709F493C06115710599
:1033500009F48FC004300CF08CC007FD1DC0602F35
:10336000772767FD7095E4E0660F771FEA95E1F730
:1033700062547E4F882777FD8095982FAE014F5F6E
:103380005F4F20E130E0F7010995882309F471C00F
:103390008D81882309F46DC08091C001882309F0D4
:1033A00068C07CC08D818093C0012A8530E040E0F8
:1033B00050E0542F432F322F22278B8590E0A0E03E
:1033C000B0E0DC0199278827282B392B4A2B5B2B6F
:1033D000898590E0A0E0B0E0282B392B4A2B5B2BAD
:1033E0008C8590E0A0E0B0E0B82FAA279927882725
:1033F000282B392B4A2B5B2B2093C1013093C20120
:103400004093C3015093C4012E8530E040E050E06A
:10341000542F432F322F22278F8590E0A0E0B0E079
:10342000DC0199278827282B392B4A2B5B2B8D858C
:1034300090E0A0E0B0E0282B392B4A2B5B2B888949
:1034400090E0A0E0B0E0B82FAA2799278827282B82
:10345000392B4A2B5B2B2093C5013093C601409337
:10346000C7015093C80103C08FEF8093C0019F0133
:1034700002C020E030E0C90160960FB6F894DEBFCC
:103480000FBECDBFCF91DF910F91FF90EF90DF90F6
:10349000CF90BF90AF909F908F900895E8EBF1E0B0
:1034A00081E1DF011D928A95E9F7F092B901E0927E
:1034B000B801D092BB01C092BA01B092BD01A092F6
:1034C000BC019092BF018092BE0107FF6BCFCCCFB1
:1034D00081E0089580E00895282F8FEF8EBD0DB410
:1034E00007FEFDCF8DB58F778DBD8EB5822F8064A1
:1034F0008EBD0DB407FEFDCF8DB58F778DBD872FA7
:103500009927AA27BB278EBD0DB407FEFDCF8DB529
:103510008F778DBDCB01AA27BB278EBD0DB407FECB
:10352000FDCF8DB58F778DBDBB27A72F962F852F0C
:103530008EBD0DB407FEFDCF8DB58F778DBD4EBD11
:103540000DB407FEFDCF8DB58F778DBD222319F009
:10355000283069F406C085E98EBD0DB407FEFDCFA5
:103560000BC087E88EBD0DB407FEFDCF05C08FEF01
:103570008EBD0DB407FEFDCF8DB58F778DBD90E06C
:103580002FEF2EBD0DB407FEFDCF8DB58F778DBD0E
:103590008EB58F3F19F49F5F9A3099F70895CF92B7
:1035A000DF92EF92FF920F931F93CF93DF93EC0183
:1035B000009781F089E1FE0111928A95E9F72A9836
:1035C0008AE040E050E060E070E00E946C1A8823DE
:1035D00019F02A9A80E0F7C09FEF9EBD0DB407FE58
:1035E000FDCF8DB58F778DBD8EB58E3FB1F71C2F7A
:1035F000CE01FC0160E670E00FEF9E2F911B0EBD27
:103600000DB407FEFDCF8DB58F778DBD2EB59830EB
:1036100028F4933088F4992359F00CC09D3018F4A5
:10362000993070F40BC09D3019F19E3069F524C0BB
:1036300028832AC0208328C0218326C02A8724C04B
:1036400030E040E050E0062E04C0220F331F441F3C
:10365000551F0A94D2F78B859C85AD85BE85822B3C
:10366000932BA42BB52B8B879C87AD87BE870CC073
:103670002295207F2F8708C0922F92959F708F856B
:10368000892B8F872F70288B3196685070408FEF71
:10369000603D780709F0B1CF89E040E050E060E09C
:1036A00070E00E946C1A882309F093CF9FEF9EBDB3
:1036B0000DB407FEFDCF8DB58F778DBD8EB58E3FD6
:1036C000B1F7F0E070E020E030E040E050E060E092
:1036D0001FEFE1E01EBD0DB407FEFDCF8DB58F7766
:1036E0008DBD8EB56E3079F490E086FDED8B85FD55
:1036F000EE8B84FDEF8B8C709070959587959595EA
:103700008795888F5AC06730F9F0683030F465309B
:1037100061F0663009F051C00BC06930A1F1693029
:1037200010F16A3009F049C032C0F82FFF7045C06F
:1037300090E0A0E0B0E083709070A070B07022279D
:10374000382F492F5A2F39C090E0A0E0B0E0282B45
:10375000392B4A2B5B2BA2E0220F331F441F551F2E
:10376000AA95D1F72AC0829586958695837090E0B8
:10377000A0E0B0E0282B392B4A2B5B2B2F5F3F4F6B
:103780004F4F5F4F1AC0782F7370770F16C0881F86
:103790008827881F782B8F2F90E00296870F911D26
:1037A00069017A0104C0CC0CDD1CEE1CFF1C8A955B
:1037B000D2F7C98ADA8AEB8AFC8A6F5F623109F034
:1037C00089CF2A9A81E0DF91CF911F910F91FF90CD
:1037D000EF90DF90CF9008952F923F924F925F929B
:1037E0006F927F928F929F92AF92BF92CF92DF9211
:1037F000EF92FF920F931F93CF93DF934B015C01E6
:103800002A01390133243A9422242394A1C0E401EB
:10381000D170CE01A0E0B0E085017401E81AF90A88
:103820000A0B1B0BC12CB2E0DB2ECC1ADD0A6C1488
:103830007D0408F463018091C9039091CA03A091AB
:10384000CB03B091CC03E816F9060A071B07F9F081
:103850000E94C21C882309F481C0209729F480E0CB
:10386000C81682E0D80658F4C801B70149EC51E007
:1038700020E032E00E94DC1C882309F46FC0E09253
:10388000C903F092CA030093CB031093CC0389ECD5
:10389000481681E0580671F09E0127533E4FC9013A
:1038A000B201A6010E9486301092CD036C147D04F3
:1038B00009F452C02A9888E1B801A7010E946C1A45
:1038C000882311F02A9A4AC08EEF8EBD0DB407FEF0
:1038D000FDCF8DB58F778DBDE9ECF1E081918EBD87
:1038E0000DB407FEFDCF8DB58F778DBD83E0E93C2C
:1038F000F807A1F73EBC0DB407FEFDCF8DB58F775D
:103900008DBD3EBC0DB407FEFDCF8DB58F778DBD4F
:103910003EBC0DB407FEFDCF8DB58F778DBD8EB546
:103920008F3FB1F78EBD0DB407FEFDCF8DB58F77FC
:103930008DBD8EB52A9A4C0C5D1CC601A0E0B0E08E
:10394000880E991EAA1EBB1E6C187D082092CD03FE
:103950006114710409F05BCF81E001C080E0DF9168
:10396000CF911F910F91FF90EF90DF90CF90BF907C
:10397000AF909F908F907F906F905F904F903F900F
:103980002F9008958091CD03882311F081E0089550
:103990006091C9037091CA038091CB039091CC03CD
:1039A00049EC51E020E032E00E94EC1B882319F042
:1039B00081E08093CD0308953F924F925F926F9282
:1039C0007F928F929F92AF92BF92CF92DF92EF92AF
:1039D000FF920F931F93CF93DF933B014C016A013A
:1039E000290133243A948FC01FEFA12E11E0B12E8C
:1039F000A620B720C501A0E0B0E084017301E81A59
:103A0000F90A0A0B1B0BC0E0D2E0CA19DB094C16FD
:103A10005D0608F4E2018091C9039091CA03A09168
:103A2000CB03B091CC03E816F9060A071B0709F48B
:103A300057C00E94C21C882309F46AC02A9881E1F9
:103A4000B801A7010E946C1A882319F02A9A80E015
:103A50005FC03EBC0DB407FEFDCF8DB58F778DBD29
:103A60008EB58E3FB1F7E9ECF1E03EBC0DB407FE38
:103A7000FDCF8DB58F778DBD8EB5808383E0E83C1B
:103A8000F80711F03196F1CFE092C903F092CA0322
:103A90000093CB031093CC03950127533E4FC601EF
:103AA000B901AE010E9486303EBC0DB407FEFDCFC9
:103AB0008DB58F778DBD8EB53EBC0DB407FEFDCFA5
:103AC0008DB58F778DBD8EB52A9A3EBC0DB407FE9D
:103AD000FDCFCC0EDD1E8DB58F778DBD8EB50AC0A6
:103AE000950127533E4FC601B901AE010E948630B1
:103AF000CC0EDD1E4C1A5D0ACE01A0E0B0E0680ECF
:103B0000791E8A1E9B1E4114510409F06DCF81E07D
:103B1000DF91CF911F910F91FF90EF90DF90CF90A9
:103B2000BF90AF909F908F907F906F905F904F90DD
:103B30003F9008952F923F924F925F926F927F92A3
:103B40008F929F92AF92BF92CF92DF92EF92FF92AD
:103B50000F931F93DF93CF9300D000D0CDB7DEB784
:103B60004B015C013A013C832B832701DA82C98235
:103B700041155105A9F12115310591F102171307DE
:103B800078F1E114F10461F11901309421943108C4
:103B90003394021B130B6901EE24FF24C501B40109
:103BA000A3012B813C810E94DC1C8823C9F0C30146
:103BB000B501A40129813A81F2010995882391F088
:103BC000020D131D8B819C81800F911F2B813C81E5
:103BD0008217930738F08C0C9D1CAE1CBF1CDECFE7
:103BE00080E001C081E00F900F900F900F90CF9177
:103BF000DF911F910F91FF90EF90DF90CF90BF90DA
:103C0000AF909F908F907F906F905F904F903F907C
:103C10002F9008950F931F93CF93DF93239A259AA4
:103C2000229A24982A9A83E58CBD8DB58E7F8DBD0E
:103C30001092CE0390E02FEF2EBD0DB407FEFDCF06
:103C40008DB58F778DBD8EB59F5F9A30A9F72A9875
:103C5000C0E0D0E080E040E050E060E070E00E9432
:103C60006C1A182F813039F081E0CF3FD80709F462
:103C700040C02196EFCF87E340E050E060E070E085
:103C80000E946C1A89E240E050E060E070E00E941F
:103C90006C1A82FD02C01093CE038091CE03082FD0
:103CA00010E003701070C0E0D0E00115110549F07C
:103CB00087E340E050E060E070E00E946C1A89E227
:103CC00001C081E040E050E060E070E00E946C1ACA
:103CD00080FF06C08FE7CF3FD80759F02196E5CF88
:103CE00080E140E052E060E070E00E946C1A8823BE
:103CF00019F02A9A80E022C02A9A8CB58C7F8CBD5C
:103D00008DB581608DBD8FEF9FEFAFEFBFEF8093DB
:103D1000C9039093CA03A093CB03B093CC0381E073
:103D20008093CD0360E070E080E090E049EC51E0EA
:103D300020E032E00E94DC1C811181E0DF91CF9114
:103D40001F910F9108954F925F926F927F928F9281
:103D50009F92AF92BF92CF92DF92EF92FF920F931A
:103D60001F93CF93DF935B016C014A01E901380196
:103D700027014115510571F10115110559F1FF2474
:103D80002115310511F5FF24F3941FC0C401B601BC
:103D9000A5019201F30109958C010097E9F0FF203C
:103DA00019F4C817D907B0F0C601B501A4019801EC
:103DB0000E94EC1B882371F0C801A0E0B0E0A80EBF
:103DC000B91ECA1EDB1EC01BD10BFF20F9F62097BF
:103DD000E9F602C080E001C081E0DF91CF911F9140
:103DE0000F91FF90EF90DF90CF90BF90AF909F909A
:103DF0008F907F906F905F904F900895FC01009797
:103E000011F0118210820895DF93CF9300D0CDB7C7
:103E1000DEB7DC01009791F16230710578F180E046
:103E200090E0660F771F881F991FED91FC91119705
:103E300016962D913D914D915C911997620F731FCC
:103E4000841F951F0190F081E02DAE014F5F5F4F01
:103E500022E030E00995882389F029813A812115F3
:103E6000310571F08FEF273F380741F0C9014096C7
:103E7000079720F08FEF283F380710F020E030E060
:103E8000C9010F900F90CF91DF9108954F925F92EB
:103E90006F927F928F929F92AF92BF92CF92DF925A
:103EA000EF92FF920F931F93DF93CF9300D0CDB784
:103EB000DEB75C01009709F449C06230710508F46F
:103EC00045C0DC0116966D907D908D909C90199761
:103ED0002E010894411C511C660F771F7B0100E0E6
:103EE00010E0E60CF71C081D191DD501ED91FC91A1
:103EF0000190F081E02DC801B701A20122E030E07D
:103F00000995882319F1C980DA80C114D10401F11F
:103F1000C60140960897D0F0B8EFCB16BFEFDB068E
:103F200010F0CC24DD241A821982D501ED91FC9188
:103F30000480F581E02DC801B701A20122E030E044
:103F40000995B601C114D10439F602C080E001C060
:103F500081E00F900F90CF91DF911F910F91FF9013
:103F6000EF90DF90CF90BF90AF909F908F907F9019
:103F70006F905F904F9008952F923F924F925F9273
:103F80006F927F928F929F92AF92BF92CF92DF9269
:103F9000EF92FF920F931F93DF93CF93CDB7DEB7CE
:103FA0002A970FB6F894DEBF0FBECDBF3C012B01A0
:103FB000009709F48FC0DC01ED91FC9111972081ED
:103FC00031813A8729872480358016968D919D917D
:103FD0000D90BC91A02D8D839E83AF83B887F30194
:103FE00082859385A485B585B695A7959795879580
:103FF0009C838B834A01CC24DD2462E0A62EB12C65
:1040000041C0C501880F991F7C0100E010E02D819F
:104010003E814F815885E20EF31E041F151FC80113
:10402000B701AE014F5F5F4F22E030E0A985BA854E
:10403000FD010995882309F44DC089819A81892B56
:10404000F1F4C114D10429F4EFEFFFEFFA83E9830F
:1040500002C0DA82C982C801B701AE014F5F5F4F6B
:1040600022E030E0F1010995882391F0089481085D
:1040700091088114910411F465010CC06501089444
:10408000A11CB11C2B813C81A216B30608F4B9CF48
:104090008928E1F432E043165104F0F0DA82C98253
:1040A000440C551CB20180E090E02D813E814F818F
:1040B0005885620F731F841F951FAE014F5F5F4FBE
:1040C00022E030E0F1010995882331F4C301B60103
:1040D0000E94461FCC24DD24C6012A960FB6F89410
:1040E000DEBF0FBECDBFCF91DF911F910F91FF902B
:1040F000EF90DF90CF90BF90AF909F908F907F9088
:104100006F905F904F903F902F90089580E190E0E6
:104110000895FC01009711F01182108208952F92EA
:104120003F924F925F926F927F928F929F92AF9247
:10413000BF92CF92DF92EF92FF920F931F93DF9384
:10414000CF93CDB7DEB72A970FB6F894DEBF0FBE78
:10415000CDBF2C017A8369835C834B83009709F47C
:1041600009C1672B09F406C1452B09F403C1DC0121
:104170009D96AD90BD90CD90DC90D09795962D9169
:104180003D914D915C919897EB81FC81CF01A0E02E
:10419000B0E08A0D9B1DAC1DBD1D281739074A07CD
:1041A0005B0740F4B9016A197B097C836B83672B39
:1041B00009F4E3C0D201ED91FC9111972088318878
:1041C000D196ED91FC91D297FA87E987EF2BF1F523
:1041D00093962D913C9194973A872987232B39F414
:1041E000A114B104C104D10409F4C7C0C3C0A1140F
:1041F000B104C104D10451F1860175013101882453
:10420000992466277727CB016619770988099909C8
:104210006D837E838F83988714C0D2018D919C918A
:1042200069857A850E94041F9A878987892B09F4FA
:10423000A1C06D817E818F819885E60EF71E081FD3
:10424000191FE614F7040805190538F70894210822
:104250003108A220B3200894211C311CCB80DC80C3
:10426000D201ED90FC90E114F10409F1E985FA85A1
:10427000E230F105E0F03297BF0180E090E0329645
:10428000FA87E987D70150962D913C91519740E0EC
:1042900050E00E94E92F9B01AC01F70182899389CC
:1042A000A489B589280F391F4A1F5B1F04C020E06D
:1042B00030E040E050E081010A191B09C016D10628
:1042C00008F48601D701ED91FC91C501A0E0B0E0B2
:1042D000280F391F4A1F5B1F0190F081E02DCA0192
:1042E000B90149815A8198010995882341F1C01A81
:1042F000D10AC801A0E0B0E0F20125A536A547A586
:1043000050A9280F391F4A1F5B1FD2019D962D937C
:104310003D934D935C93D097C8018A0D9B1D8215E8
:104320009305A0F08D919C9169857A850E94041F68
:104330009A878987892B41F4F20112AA11AA4B812D
:104340005C814C195D091BC0AA24BB24E985FA8550
:10435000D201D296FC93EE93D197C114D10439F0D7
:1043600029813A81200F311F3A83298379CF4B81EC
:104370005C8105C04FEF5FEF02C040E050E0CA0132
:104380002A960FB6F894DEBF0FBECDBFCF91DF9156
:104390001F910F91FF90EF90DF90CF90BF90AF9063
:1043A0009F908F907F906F905F904F903F902F9055
:1043B0000895FC01009711F0118210820895FC010C
:1043C000009711F480E0089583A194A196A785A792
:1043D00010AA17A681E00895CF92DF92EF92FF9284
:1043E0000F931F93CF93DF938C016A017B01A90187
:1043F000D901CD91DC91119712968D919C911397D3
:10440000809613969C938E931297F8018081853E37
:1044100009F4AAC0882309F4A7C08FA198A5A9A56B
:10442000BAA50097A105B10521F4CFA2D8A6E9A6A7
:10443000FAA6209709F49AC00115110509F496C04F
:10444000D8019C91992309F491C01B968C918F30CF
:1044500029F5892F90E08F7390702DE030E0829FD6
:10446000A001839F500D929F500D11244D5050403C
:10447000AEE9B1E0C40FD51F0DC08D91F801E80F72
:10448000F11D808189934F5F5F4FE1E0AB3ABE073A
:1044900009F46AC04F31510580F366C088818823D2
:1044A00009F04EC0B801DE01780120E0F7019081EB
:1044B0009032A1F09C93F801848583FF08C0F70136
:1044C0008081813420F08B3510F4905E9C932F5FB7
:1044D0000894E11CF11C1196283041F78881853041
:1044E00011F485EE8883D80118968C91803221F1E1
:1044F000FE01E20FF11D8EE28083322F3F5F2C5FC1
:10450000FB0190859032B9F0FE01E30FF11D90831D
:10451000D8011C968C9184FF09C0DB0118968C9100
:10452000813420F08B3510F4905E90833F5F6F5F95
:104530007F4F321729F7232FFE01E20FF11D108262
:10454000F801838588A3828D938D9AA389A3848D96
:10455000958DA68DB78D8BA39CA3ADA3BEA381E043
:10456000DA0114968C9302C081E001C080E0DF91F3
:10457000CF911F910F91FF90EF90DF90CF90089512
:104580007F928F929F92AF92BF92CF92DF92EF92E3
:10459000FF920F931F93DF93CF93CDB7DEB72C9786
:1045A0000FB6F894DEBF0FBECDBF6C015B01009764
:1045B00009F453C06115710509F44FC0DB019796EA
:1045C000ED90FD900D911C919A97E114F104010575
:1045D000110509F442C04E010894811C911CE5EEBE
:1045E0007E2ED601ED91FC910190F081E02DC80165
:1045F000B701A4012CE030E00995882371F179829C
:10460000D601ED91FC910480F581E02DC801B70140
:10461000A4012CE030E009958823F9F08C858F30D7
:1046200049F480E290E0A0E0B0E0E80EF91E0A1F35
:104630001B1FD7CFD50191966D917C9192976115F3
:10464000710539F0C6010E94461F20E030E0882342
:1046500011F021E030E0822F01C080E02C960FB6EF
:10466000F894DEBF0FBECDBFCF91DF911F910F91A8
:10467000FF90EF90DF90CF90BF90AF909F908F9082
:104680007F900895FC01009729F420E030E040E09D
:1046900050E014C0628573858485958596958795CD
:1046A00077956795625070408040904020893189AD
:1046B00040E050E00E94E92F9B01AC01B901CA0122
:1046C00008952F923F924F925F926F927F928F92B6
:1046D0009F92AF92BF92CF92DF92EF92FF920F9391
:1046E0001F93DF93CF93CDB7DEB7A6970FB6F8949D
:1046F000DEBF0FBECDBF9EA38DA3892B09F45DC085
:104700001A82198280E290E09C838B83ADA1BEA1C6
:1047100016964D905D906D907C9019971A968D909D
:104720009D90AD90BC901D9734C0BEEF8B16BFEF2F
:104730009B06B0E0AB06B0E0BB0628F01EEF212ED2
:104740001FEF312E01C01401ADA1BEA1ED91FC916E
:104750000280F381E02DC301B201AE014B5F5F4FD8
:1047600020E230E08101BCEFEB2EB3E2FB2E6E01C4
:104770000894C11CD11C09958823F9F0C101A0E05F
:10478000B0E0480E591E6A1E7B1E881A990AAA0AB2
:10479000BB0A81149104A104B10439F6EDA1FEA174
:1047A0006089718980E090E029813A8140E050E0A1
:1047B0000E94E92F9B01AC0104C020E030E040E002
:1047C00050E0B901CA01A6960FB6F894DEBF0FBE3D
:1047D000CDBFCF91DF911F910F91FF90EF90DF90B0
:1047E000CF90BF90AF909F908F907F906F905F9091
:1047F0004F903F902F900895DC01F9014281538141
:1048000020E030E00DC08D919C911197892B29F407
:10481000808191810196918380832E5F3F4F129614
:104820002417350780F381E008958AE1EFECF3E087
:10483000DF011D928A95E9F783E3E9EEF3E0DF01FA
:104840001D928A95E9F782E6ECE1F4E0DF011D9222
:104850008A95E9F70895CF92DF92EF92FF920F9336
:104860001F93DF93CF93CDB7DEB760970FB6F89461
:10487000DEBF0FBECDBF8C016230710510F480E049
:1048800035C0009729F440E050E060E070E016C0C9
:104890006250704080E090E0F8012089318940E06A
:1048A00050E00E94E92FAB01BC01F8018289938995
:1048B000A489B589480F591F6A1F7B1FDE01119615
:1048C00080E1FD0111928A95E9F7F80180819181DB
:1048D00020893189FC01C680D780CB01BA01AD01A6
:1048E00006E810E2EE24FF24F601099560960FB663
:1048F000F894DEBF0FBECDBFCF91DF911F910F9116
:10490000FF90EF90DF90CF9008952F923F924F92BB
:104910005F926F927F928F929F92AF92BF92CF924F
:10492000DF92EF92FF920F931F93DF93CF93CDB758
:10493000DEB7A7970FB6F894DEBF0FBECDBF2C0130
:104940007FA36EA3009709F4B1C06115710509F446
:10495000ADC0DC018D909C901197F40120883188C6
:104960009D96AD90BC909E979F966D907C90D097B1
:104970008BE2DB011D928A95E9F7FE01319685E015
:10498000DF011D928A95E9F7A114B10409F076C000
:10499000F4012288338886899789281A390A6EC0DB
:1049A000730100E010E0A114B10441F4D401569663
:1049B0006D917D918D919C9159972DC08114910499
:1049C00021F1B2E0AB16B10400F1EEEFFFEFAE0E55
:1049D000BF1EB50180E090E022E030E0A20EB31EE1
:1049E000D40150962D913C91519740E050E00E94A7
:1049F000E92F9B01AC01F40182899389A489B589CF
:104A0000280F391F4A1F5B1F04C020E030E040E040
:104A100050E0CA01B9016E0D7F1D801F911F1C82DD
:104A20001B82D401ED91FC918101061917090280C6
:104A3000F381E02DAE014A5F5F4F20E230E0ACEE43
:104A4000EA2EA1E2FA2E6E010894C11CD11C099530
:104A5000882361F18B819C81680E791E6214730436
:104A600088F0C401B5010E94041F5C01662477240C
:104A7000009741F4F201A3A0B4A008C02EA13FA169
:104A80003A8329838D81882309F48ACFD2019E96A7
:104A9000BC92AE929D97D0967C926E929F97EEA11B
:104AA000FFA18081882319F081E001C080E0A796F2
:104AB0000FB6F894DEBF0FBECDBFCF91DF911F912F
:104AC0000F91FF90EF90DF90CF90BF90AF909F90AD
:104AD0008F907F906F905F904F903F902F900895B0
:104AE0002F923F924F925F926F927F928F929F92FE
:104AF000AF92BF92CF92DF92EF92FF920F931F93EC
:104B0000DF93CF93CDB7DEB7A8970FB6F894DEBF8B
:104B10000FBECDBF98A78FA3009709F436C1DC0163
:104B200014968D919C911597892B09F42EC1169698
:104B30008D919C911797892B09F427C16DC1E9814B
:104B4000FA81FBA3EAA32C813D81FB81FCA34E816A
:104B50008F8198859EA38DA3E985FA856C857D85D7
:104B60006E887F88888C998C61147104810491040B
:104B700031F4309709F405C13F0188249924611567
:104B8000710509F4FEC0C901A0E0B0E08E8F9F8FCF
:104B9000A8A3B9A380E090E0242F30E040E050E0EB
:104BA0000E94E92F6A8F7B8F8C8F9D8F8401730108
:104BB0002E8D3F8D48A159A1E21AF30A040B150B63
:104BC000E61AF70A080B190B8AA19BA101972DA1E0
:104BD0003EA145E0220F331F4A95E1F7820F931F54
:104BE0006AA17BA10E94083080E090E0E61AF70AF3
:104BF000080B190B8CA1282F30E040E050E0C801D1
:104C0000B7010E942F3079018A0195EFE9169FE0E4
:104C1000F90690E0090790E0190708F4B2C0A5EF83
:104C2000EA16AFEFFA06A0E00A07A0E01A0728F498
:104C300086E0EFA1F8A5808705C08BE0AFA1B8A5FD
:104C400018968C9388E1E1EDF3E0DF011D928A95DF
:104C5000E9F7EAA1FBA15F01CC24DD24C401B30183
:104C6000A60195010E94E92F6093D1037093D203AE
:104C70008093D3039093D403C601B5012E8D3F8D4D
:104C800048A159A10E94E92F260E371E481E591E21
:104C90002092D5033092D6034092D7035092D80386
:104CA000AFA1B8A518968C91863029F064E070E029
:104CB00080E090E004C062E070E080E090E022E0FC
:104CC00030E040E050E0E20EF31E041F151FA80183
:104CD00097010E94E92F6093D9037093DA038093C0
:104CE000DB039093DC034AA15BA15093DE03409366
:104CF000DD035CA1852F90E0DC01EAA1FBA1AE9F62
:104D0000C001AF9F900DBE9F900D11249093E003C2
:104D10008093DF036A8D7B8D8C8D9D8DA60195011F
:104D20000E94E92F2091D5033091D6034091D703FB
:104D30005091D803620F731F841F951F6093E50382
:104D40007093E6038093E7039093E803ADA1BEA1BF
:104D50009D0140E050E015E0220F331F441F551F16
:104D60001A95D1F7620F731F841F951F6093E1039B
:104D70007093E2038093E3039093E4032FEC33E01A
:104D800006C01092D0031092CF0320E030E0C9019A
:104D9000A8960FB6F894DEBF0FBECDBFCF91DF91BE
:104DA0001F910F91FF90EF90DF90CF90BF90AF9049
:104DB0009F908F907F906F905F904F903F902F903B
:104DC0000895EFECF3E08AE1DF011D928A95E9F79F
:104DD000EFA1F8A5F093D003E093CF0321843284B0
:104DE00043845484B9E0220C331C441C551CBA95EE
:104DF000D1F7C201B101655F7F4F8F4F9F4F019087
:104E0000F081E02DAE014F5F5F4F29E130E0099561
:104E1000882309F4B6CF93CE8091CF039091D0032D
:104E2000892B09F0B2CFCDCF2F923F924F925F9254
:104E30006F927F928F929F92AF92BF92CF92DF92AA
:104E4000EF92FF920F931F93DF93CF9300D00F92B7
:104E5000CDB7DEB71C019B01009709F4D2C0411504
:104E6000510509F4CEC0FA0101900020E9F7E41BD6
:104E7000F50BCF010B966DE070E00E940830862F95
:104E80008F5F8B83D90193964D905C9094974114DA
:104E9000510451F0AA24BB246501EE24FF248701AC
:104EA0006624772443010BC0F101E688F788008D62
:104EB000118D6288738884889588570168011A82E9
:104EC000E614F7040805190509F06EC041145104F1
:104ED00009F497C0E114F1040105110589F1C1013C
:104EE000B2010E94041F009751F5C101B20141E0D7
:104EF00050E00E94BC1F8C01009709F482C0025050
:104F00001040B80180E090E00E5F1F4FD101509635
:104F10002D913C91519740E050E00E94E92F5B01B8
:104F20006C01F10182899389A489B589A80EB91E03
:104F3000CA1EDB1EC101B8010E942B2465C02C01D2
:104F4000F2E04F16510420F4EE24FF2487011DC027
:104F50002EEF3FEF420E531EB20180E090E0A2E040
:104F6000B0E04A0E5B1EF1012089318940E050E03B
:104F70000E94E92F7B018C01F10182899389A48928
:104F8000B589E80EF91E0A1F1B1FD10150968D919D
:104F90009C9151973C01882499246E0C7F1C801EA3
:104FA000911E570168011A82D101ED91FC91019087
:104FB000F081E02DC801B701AE014F5F5F4F21E0E6
:104FC00030E009958823E9F08981853E11F0882336
:104FD00079F4BA81BF5FBA83EB81BE17A8F480E28F
:104FE00090E0A0E0B0E0E80EF91E0A1F1B1F68CF9A
:104FF00080E290E0A0E0B0E0E80EF91E0A1F1B1F5F
:105000005CCFAA24BB246501B501C6010F900F90A7
:105010000F90CF91DF911F910F91FF90EF90DF9054
:10502000CF90BF90AF909F908F907F906F905F9048
:105030004F903F902F9008953F924F925F926F92C2
:105040007F928F929F92AF92BF92CF92DF92EF9218
:10505000FF920F931F93DF93CF93CDB7DEB7A09747
:105060000FB6F894DEBF0FBECDBFFC018B010097D9
:1050700009F41FC16115710509F41BC10190F0818C
:10508000E02D44805580DB019796AD90BD90CD908A
:10509000DC909A97E62E912EFB0101900020E9F713
:1050A0003197FE2EF61A8F2D90E00C966DE070E091
:1050B0000E941C30762ECE01019660E270E04BE03B
:1050C00050E00E948F30C8016EE270E00E94D9303B
:1050D000FC010097E1F09C012F5F3F4F8181882305
:1050E000B1F0D9010D900020E9F71197A21BB30B85
:1050F0008A2F8095F80EBE01675F7F4F4A2FA4303C
:1051000008F043E0CB01B90150E00E948630CE01A7
:105110000196B8E0BF1588F06E2D792D4F2D50E027
:105120000E948630F80180818E3231F581818E3285
:1051300009F482818823F9F01FC0DC018E2D992D9E
:105140009C01F90188E001900D928150E1F7D801AE
:1051500091968C91982F92959F70803A10F4905D63
:1051600001C09F598F708A3010F4805D01C08F5943
:105170009F83888701C077248981853E11F485E06B
:105180008983FCE08F2E912C8C0E9D1E85E1F4010D
:1051900011928A95E9F7D80190968C9190978C8717
:1051A00091968D919C9192979C8F8B8F93968D91D8
:1051B0009D910D90BC91A02D8D8F9E8FAF8FB8A328
:1051C000672D70E0E5E0660F771FEA95E1F780E074
:1051D00090E06A0D7B1D8C1D9D1DAE014F5F5F4FE2
:1051E00020E230E0F2010995882309F462C0E980E9
:1051F000FE01329694018E2D8695E794EE24E79475
:10520000E82A8191E80EE217F307A9F7F72C4E017F
:105210000894811C911C6DE0362E5FE0652E44C021
:10522000C4016FEF70E040E250E00E948F30F39CC9
:10523000D00111241D97A00FB11F91E0F401E90FD7
:10524000F11D8C918083892F8F5FF401E80FF11D90
:1052500010829E5F9B3019F09A3121F402C09EE0CB
:1052600001C09CE18C91882321F09F3110F41196AC
:10527000E5CFF982F71419F48F2D806489836C8649
:10528000EE861D861B8E1C8EC601B501A40120E290
:1052900030E0F201099580E290E0A0E0B0E0A80ED5
:1052A000B91ECA1EDB1EFA94FF2009F0B9CF81E0B7
:1052B00001C080E0A0960FB6F894DEBF0FBECDBF50
:1052C000CF91DF911F910F91FF90EF90DF90CF90E2
:1052D000BF90AF909F908F907F906F905F904F9016
:1052E0003F9008957F928F929F92AF92BF92CF92FC
:1052F000DF92EF92FF920F931F93CF93DF936C0196
:105300005B01EA01009709F49DC06115710509F47C
:1053100099C0FB018081882309F494C0411551058F
:1053200081F490C0C501682D772D0E94AC300097A4
:1053300051F4F60183A194A196A785A710AA17A6F8
:1053400081C0842E7D2EC601BE010E948524882343
:1053500049F7F601E080F180C70160E070E041E0CC
:1053600050E00E94BC1F8C01009709F46BC0C7017C
:10537000B8010E942B248BE2FE0111928A95E9F775
:1053800080E188A302501040B80180E090E00E5FF9
:105390001F4FF7012089318940E050E00E94E92F3A
:1053A000F7012289338944895589260F371F481F01
:1053B000591F2FA338A749A75AA7AEE29A2E988261
:1053C0001AA309A3C701BE010E941C288823B1F1BA
:1053D0008FA198A5A9A5BAA58096A11DB11D8FA3DF
:1053E00098A7A9A7BAA79982F60183A194A19AA325
:1053F00089A3C701BE010E941C288823F9F0882DCB
:10540000972DB5014FE150E00E94CA301AA309A3BD
:10541000C701B601AE010E9414276FA378A789A720
:105420009AA7611571058105910541F0C701BE017B
:105430000E941C28882311F081E005C0C701B80133
:105440000E94461F80E0DF91CF911F910F91FF9046
:10545000EF90DF90CF90BF90AF909F908F907F9014
:105460000895AF92BF92CF92DF92EF92FF920F9387
:105470001F93CF93DF938C017B01EA01009709F41E
:1054800048C06115710509F444C0FB01808188237F
:1054900009F43FC041155105E1F1B42EAD2EC8010C
:1054A000BE010E948524882379F0C7016B2D7A2DD7
:1054B0000E94AC30009799F7F80183A194A196A7B8
:1054C00085A710AA17A625C0F801C080D1808BE25D
:1054D000FE0111928A95E9F78B2D9A2DB7014FE1C4
:1054E00050E00E94CA30C601B801AE010E941427E4
:1054F0006FA378A789A79AA7611571058105910502
:1055000041F0C601BE010E941C28882319F081E0E9
:1055100001C080E0DF91CF911F910F91FF90EF903C
:10552000DF90CF90BF90AF9008954F925F926F92AF
:105530007F928F929F92AF92BF92CF92DF92EF9223
:10554000FF920F931F93DF93CF93CDB7DEB72A97C8
:105550000FB6F894DEBF0FBECDBF2C015A016B0110
:10556000009709F4E5C0DC0193960D911C91949786
:10557000ED91FC91208931890115110599F0AB82DB
:10558000BC82CD82DE8239018824992422273327E8
:10559000A90126193709480959092F8338874987EE
:1055A0005A8720C0411551056105710509F4A9C04C
:1055B000E6CFD2018D919C91B8010E94041F009703
:1055C000D9F0EB80FC800D811E812F8138854985C3
:1055D0005A85E20EF31E041F151FEB82FC820D8319
:1055E0001E838C018B819C81AD81BE8168167906FA
:1055F0008A069B06F0F2B4C078016B817C818D81B4
:105600009E81660D771D881D991D615070408040F8
:105610009040A40193010E942F30D2018D919C9162
:10562000B801A9010E94BC1F009709F481C0012B99
:1056300021F4F20194A383A37C01D2019596AD924B
:10564000BD92CD92DC929897A114B104C104D1040B
:1056500021F494961C921E929397F201819191915C
:10566000BF010E941C28882309F462C0A114B10460
:10567000C104D10429F4F20180819181B7013FC0B6
:105680000B811C812D813E81601671068206930676
:10569000C0F1D2010D911C910115110591F1B2E0FB
:1056A000EB16F10470F1C801B7010E94041F4C0110
:1056B0008FEF9FEF9A838983D801ED91FC91119729
:1056C000EE0CFF1CB70180E090E016962D913D9105
:1056D0004D915C911997620F731F841F951F048071
:1056E000F581E02DAE014F5F5F4F22E030E009957C
:1056F000882339F08114910421F0C801B4010E947B
:10570000461FF20185A596A5A7A5B0A9A816B906BA
:10571000CA06DB0658F4D2019D96AD92BD92CD9299
:10572000DC92D097D2961C921E92D19781E001C054
:1057300080E02A960FB6F894DEBF0FBECDBFCF91A2
:10574000DF911F910F91FF90EF90DF90CF90BF906E
:10575000AF909F908F907F906F905F904F90089543
:1057600078010115110509F448CF67CFCF92DF9278
:10577000EF92FF920F931F93CF93DF93EC016B0196
:10578000009709F445C06115710509F441C08DA564
:105790009EA5AFA5B8A9413059F0413018F042306C
:1057A000B9F50CC0FB01E080F1800281138113C0C8
:1057B000FB01E080F1800281138109C0FB01E080E0
:1057C000F180028113818DA19EA1AFA1B8A5E80E41
:1057D000F91E0A1F1B1F8DA19EA1AFA1B8A58E1592
:1057E0009F05A007B10738F4CE01B801A7010E94B8
:1057F000952A882369F0EDA6FEA60FA718AB1AAA72
:1058000019AAF601E082F1820283138381E001C0CC
:1058100080E0DF91CF911F910F91FF90EF90DF908B
:10582000CF9008952F923F924F925F926F927F9206
:105830008F929F92AF92BF92CF92DF92EF92FF92A0
:105840000F931F93DF93CF9300D000D000D0CDB73C
:10585000DEB79E838D837A8369835C834B83009755
:1058600009F441C1672B09F43EC1452B09F43BC142
:10587000DC019D968D909D90AD90BC90D097FC01E1
:1058800085A196A1A7A1B0A588159905AA05BB0574
:1058900008F429C10190F081E02D20883188AD8184
:1058A000BE81D1960D911C91D2970115110509F079
:1058B00055C093960D911C91949701151105A9F46B
:1058C00081149104A104B10409F00DC1CF0160E07D
:1058D00070E041E050E00E94BC1F8C01ED81FE8130
:1058E00094A383A3009709F4FEC0AD81BE819D9669
:1058F000CD90DD90ED90FC90D097C114D104E104DF
:10590000F10421F52BC0C418D508E608F708ED818D
:10591000FE8180819181B8010E94041F009711F0DF
:105920008C0117C0C114D104E104F10409F0DBC0FB
:10593000AD81BE818D919C91B80141E050E00E9403
:10594000BC1F009709F4CFC08C0103C0210166245D
:105950007724C414D504E604F704A8F608942108B3
:105960003108822093200894211C311CAB80BC801C
:10597000ED81FE81C080D180C114D104F9F00230E4
:105980001105E0F002501040B80180E090E00E5F99
:105990001F4FD60150962D913C91519740E050E019
:1059A0000E94E92F9B01AC01F60182899389A489A9
:1059B000B589280F391F4A1F5B1F04C020E030E063
:1059C00040E050E07101E818F908AE14BF0408F493
:1059D0007501D601ED91FC91C401A0E0B0E0280F63
:1059E000391F4A1F5B1F0480F581E02DCA01B901F0
:1059F00049815A8197010995882309F448C0AE1856
:105A0000BF08C701A0E0B0E0ED81FE8125A536A565
:105A100047A550A9280F391F4A1F5B1F25A736A786
:105A200047A750ABC701880D991D8215930508F152
:105A300080819181B8010E94041F009711F08C01B0
:105A400016C0A114B10459F0ED81FE8180819181CD
:105A5000B80141E050E00E94BC1F009739F4AD81CD
:105A6000BE81D2961C921E92D19711C08C018824BF
:105A70009924ED81FE8112AB01ABA114B10439F080
:105A800089819A818E0D9F1D9A83898371CFED81C3
:105A9000FE8185A596A5A7A5B0A9E5A0F6A007A1BA
:105AA00010A5E816F9060A071B07C0F485A396A3FC
:105AB000A7A3B0A781919191BF010E941C288823C0
:105AC00069F4AD81BE819D96AD90BC909E97AE1855
:105AD000BF08FD01E5A6F6A607A710AB4B815C81C8
