:100000000C940F050C942C050C942C050C942C05C9
:100010000C942C050C942C050C942C050C942C059C
:100020000C942C050C942C050C942C050C942C058C
:100030000C942C050C942C050C942C050C942C057C
:100040000C942C050C942C050C942E050C942C056A
:100050000C942C050C942C050C942C050C942C055C
:100060000C942C050C942C05293A2000746F6F20F9
:100070006D616E7920617267756D656E74732800AD
:1000800035004E65772066696C65206E756D62651A
:100090007220726573657420746F207A65726F0ABE
:1000A000003400436F6D6D616E642070726F6D700F
:1000B000740A003300417070656E642066696C6577
:1000C000206C6F6767696E670A0032004E657720A3
:1000D00066696C65206C6F6767696E670A0031003E
:1000E000352920457869740A0034292052657365E2
:1000F00074206E65772066696C65206E756D62652B
:10010000720A00332920436F6D6D616E6420707236
:100110006F6D70740A00322920417070656E642022
:1001200066696C65206C6F6767696E670A003129C4
:10013000204E65772066696C65206C6F6767696E15
:10014000670A000A426F6F7420746F3A0A000A53FC
:10015000797374656D20436F6E666967757261743B
:10016000696F6E0A000A476F696E6720746F2031ED
:1001700031353230306270732E2E2E0A0034000A70
:10018000476F696E6720746F203537363030627084
:10019000732E2E2E0A0033000A476F696E67207493
:1001A0006F20393630306270732E2E2E0A003200E6
:1001B0000A476F696E6720746F2032343030627086
:1001C000732E2E2E0A0031003429205365742042EC
:1001D0006175642072617465203131353230300AC6
:1001E0000033292053657420426175642072617464
:1001F000652035373630300A0032292053657420A7
:1002000042617564207261746520393630300A00AD
:1002100031292053657420426175642072617465D0
:1002200020323430300A000A4261756420436F6E18
:1002300066696775726174696F6E3A0A006261750A
:10024000640909093A204D656E7520746F20636F4B
:100250006E6669677572652062617564207261748B
:10026000650A007365740909093A204D656E7520A9
:10027000746F20636F6E666967757265207379733A
:1002800074656D20626F6F74206D6F64650A000A7B
:100290004D656E75733A0A0073796E630909093A00
:1002A00020456E737572657320616C6C2062756693
:1002B0006665726564206461746120697320777279
:1002C000697474656E20746F207468652063617250
:1002D000640A00696E69740909093A205265696EF9
:1002E000697469616C697A657320616E64207265F6
:1002F0006F70656E7320746865206D656D6F7279BF
:1003000020636172640A006469736B0909093A2009
:1003100053686F77732063617264206D616E7566D8
:10032000616374757265722C207374617475732CBB
:100330002066696C6573797374656D2063617061A3
:100340006369747920616E642066726565207374D8
:100350006F726167652073706163650A0073697A03
:1003600065203C66696C653E09093A2057726974DC
:10037000652073697A65206F662066696C652074F4
:100380006F207465726D696E616C0A0072656164DC
:10039000203C66696C653E203C73746172743E203B
:1003A0003C6C656E6774683E09093A20577269743F
:1003B0006573204153434949203C6C656E677468FE
:1003C0003E207061727473206F66203C66696C65B4
:1003D0003E20746F20746865207465726D696E616B
:1003E0006C207374617274696E67206174203C7351
:1003F000746172743E2E204F6D6D6974203C73746D
:100400006172743E20616E64203C6C656E67746836
:100410003E20746F20726561642077686F6C652080
:1004200066696C650A00636174203C66696C653EB0
:1004300009093A20577269746573206120686578EC
:1004400064756D70206F66203C66696C653E207433
:100450006F20746865207465726D696E616C0A0046
:100460006C730909093A2053686F777320746865C3
:1004700020636F6E74656E74206F662074686520EB
:1004800063757272656E74206469726563746F72ED
:10049000792E205573652077696C646361726420DE
:1004A000746F20646F20612077696C64636172648B
:1004B000206C697374696E67206F662066696C656D
:1004C0007320696E2063757272656E742064697240
:1004D0006563746F72790A006364202E2E09093AED
:1004E000204368616E67657320746F206C6F776559
:1004F00072206469726563746F727920696E20740A
:100500007265650A006364203C6469726563746F98
:1005100072793E09093A204368616E67657320630A
:10052000757272656E7420776F726B696E67206486
:1005300069726563746F727920746F203C646972AC
:100540006563746F72793E0A006D64203C64697261
:100550006563746F72793E093A2043726561746510
:10056000732061206469726563746F7279206361BE
:100570006C6C6564203C6469726563746F72793E6B
:100580000A00726D203C66696C653E09093A204498
:10059000656C65746573203C66696C653E2E2055FC
:1005A00073652077696C646361726420746F206482
:1005B0006F20612077696C64636172642072656D7D
:1005C0006F76616C206F662066696C65730A0077D0
:1005D00072697465203C66696C653E203C6F666696
:1005E0007365743E093A20577269746573207465A7
:1005F000787420746F203C66696C653E2C2073749F
:10060000617274696E672066726F6D203C6F6666FA
:100610007365743E2E205468652074657874206973
:100620007320726561642066726F6D207468652046
:10063000554152542C206C696E65206279206C699A
:100640006E652E2046696E6973682077697468202C
:10065000616E20656D707479206C696E650A006149
:100660007070656E64203C66696C653E09093A20CD
:10067000417070656E6473207465787420746F20A7
:10068000656E64206F66203C66696C653E2E205462
:1006900068652074657874206973207265616420D0
:1006A00066726F6D20746865205541525420696EE2
:1006B00020612073747265616D20616E64206973BE
:1006C000206E6F74206563686F65642E2046696EC6
:1006D0006973682062792073656E64696E67204370
:1006E00074726C2B7A2028415343494920323629B1
:1006F0000A006E6577203C66696C653E09093A2000
:1007000043726561746573203C66696C653E0A00DE
:10071000417661696C61626C6520636F6D6D616EBD
:1007200064733A0A000A4F70656E4C6F6720763129
:100730002E330A007E006572726F722077726974C0
:10074000696E6720746F2066696C650A0065727255
:100750006F722077726974696E6720746F206669A2
:100760006C650A006572726F722077726974696EC7
:100770006720746F2066696C650A006572726F721B
:100780002077726974696E6720746F2066696C6582
:100790000A006572726F722077726974696E6720E1
:1007A000746F2066696C650A006572726F722077DB
:1007B000726974696E6720746F2066696C650A00DF
:1007C0006572726F72207365656B696E67206F6EFC
:1007D00020006572726F72206F70656E696E67209F
:1007E00000756E6B6E6F776E20636F6D6D616E64FA
:1007F0003A20006572726F722073796E63696E675A
:10080000206469736B0A0073796E63006572726F9E
:1008100072206372656174696E67206469726563D2
:10082000746F72793A20006D6400617070656E6457
:10083000006572726F722077726974696E672074D6
:100840006F2066696C650A006572726F722073654D
:10085000656B696E67206F6E20006572726F722023
:100860006F70656E696E67200077726974650065E8
:1008700072726F72206372656174696E6720666957
:100880006C653A20006E6577006572726F72206445
:10089000656C6574696E672066696C653A200072E4
:1008A0006D0073697A65006572726F72207265619E
:1008B00064696E67206469736B20696E666F0A00F5
:1008C0006469736B006572726F72207365656B6922
:1008D0006E67206F6E20006572726F72206F706598
:1008E0006E696E67200072656164006572726F7276
:1008F000206F70656E696E672000636174006C73B1
:10090000006469726563746F7279206E6F7420661B
:100910006F756E643A2000636400736574006261F1
:1009200075640068656C70003F0046696C652073F3
:10093000797374656D20696E697469616C697A6533
:10094000640A00436C6F73696E6720646F776E2072
:1009500066696C652073797374656D0A00696E69E8
:100960007400667265653A20202000666F726D61C2
:10097000743A200077722E70722E3A2000636F70E6
:10098000793A202020004D420A0073697A653A20A6
:10099000202000646174653A20202000736572692C
:1009A000616C3A203078007265763A202020200071
:1009B00070726F643A202020006F656D3A2020200D
:1009C00020006D616E75663A202030780021546FEA
:1009D0006F206D616E79206C6F67733A3221002150
:1009E000546F6F206D616E79206C6F67733A31219F
:1009F000004572726F72206372656174696E672060
:100A00005345514C4F470A004372656174696E67E4
:100A1000205345514C4F470A003200310000112449
:100A20001FBECFEFD8E0DEBFCDBF11E0A0E0B1E048
:100A3000EEE4F6E502C005900D92AA32B107D9F7AF
:100A400016E0AAE2B1E001C01D92AF31B107E1F7B3
:100A50000E9419110C94252B0C9400001F920F92E8
:100A60000FB60F9211242F933F938F939F93EF9381
:100A7000FF932091FE033091FF038091C600F9019E
:100A8000EC5FFB4F80832F5F3F4F3093FF0320933A
:100A9000FE038BB190E289278BB92050324021F4BC
:100AA0001092FF031092FE03FF91EF919F918F919F
:100AB0003F912F910F900FBE0F901F901895F999AD
:100AC000FECF92BD81BD60BDFA9AF99A0895F99959
:100AD000FECF92BD81BDF89A80B508959C01220F8A
:100AE000331F81E006C085BB16BCA89BFECF2050FB
:100AF000314091E021303907B0F781E085BB822F8A
:100B0000819586BDA89BFECF0895CF93DF93EC011E
:100B100005C088EE93E00E946E0521972097C9F7E3
:100B2000DF91CF9108950F931F93CF93DF93C0E090
:100B3000D0E0082F10E00BC05D9A84E690E00E94A0
:100B400085055D9884E690E00E9485052196C01792
:100B5000D10794F380ED97E00E948505C0E0D0E0D6
:100B6000F6CFEAE2F1E020E080819181892B19F053
:100B7000828181112F5F339681E0E633F807A1F778
:100B8000822F0895AC01EAE2F1E020E080819181BA
:100B9000892B19F0828181112F5F339681E0E63332
:100BA000F807A1F7243060F4822F90E0FC01EE0FEB
:100BB000FF1FE80FF91FE65DFE4F518340836283FC
:100BC0000895AC0120E030E070E00DC0FA01E20FC2
:100BD000F31F808190E0C0970A9718F040E050E042
:100BE00005C02F5F3F4F2617370784F3CA010895CA
:100BF000FC01DB0108C0891721F08F3311F080E080
:100C00000895319611969C919923F1F080818A3252
:100C100091F71AC080818A3259F4319680818823F5
:100C200011F481E008959D012F5F3F4FAF0110C087
:100C3000891711F08F3319F43196119609C0FA0112
:100C4000D9012F5F3F4F04C020E030E040E050E08A
:100C50009C919923F9F601C0319690819A32E1F383
:100C600080E0992309F481E0089585E297E00E94ED
:100C7000632780E197E00E94632782EF96E00E945D
:100C800063278FE596E00E9463278FEC95E00E9432
:100C9000632782E895E00E94632789E495E00E943B
:100CA000632785E095E00E94632788ED94E00E9429
:100CB000632780E694E00E94632786E294E00E9426
:100CC00063278CE893E00E9463278DE593E00E9400
:100CD000632787E093E00E94632783ED92E00E9400
:100CE000632788E992E00E9463278FE892E00E94E0
:100CF000632783E692E00E9463278DE392E00E94DF
:100D0000632708951F93CF93DF93282FEB01EAE227
:100D1000F1E010E080819181892B19F082818111AD
:100D20001F5F339681E0E633F807A1F7211710F033
:100D300080E013C08CE690E00E946327812F90E052
:100D40000E94AF2688E690E00E946327CE010E94B1
:100D500056278AE00E94672681E0DF91CF911F919C
:100D60000895CF93DF93EC018CE0EAE2F1E0DF013C
:100D70001D928A95E9F750E041E0A62FB0E039C016
:100D8000242F30E0FE01E20FF31F8081803229F032
:100D90002F5F3F4F2A173B0759F5842F90E00196AC
:100DA0008A179B0709F4462FEAE2F1E020E08081F0
:100DB0009181892B19F0828181112F5F339681E017
:100DC000E633F807A1F7243088F4822F90E0FC0185
:100DD000EE0FFF1FE80FF91FE65DFE4FCE01850FF6
:100DE000911D91838083842F851B82834F5F542FB5
:100DF0004F5F461728F2EAE2F1E020E0808191811E
:100E0000892B19F0828181112F5F3396A1E0E6339F
:100E1000FA07A1F7822FDF91CF910895982F89E1EA
:100E2000E6E0F6E0DF011D928A95E9F79430E8F4F8
:100E3000892F90E0FC01EE0FFF1FE80FF91FE65D20
:100E4000FE4F608171816115710579F04281442303
:100E500061F04A3118F049E150E001C050E086E00D
:100E600096E00E94CB279C0102C020E030E0C9013F
:100E70000895AF92BF92CF92DF92EF92FF920F93BD
:100E80001F93CF93DF93EC01B62E60E070E04B2D03
:100E900050E00E949B2700E0EB2CFF240894E1081F
:100EA000F10850E2A52E29C08BB18A258BB985B1F6
:100EB0008A2585B90E947127182F883011F08F3745
:100EC00089F40023D1F00150FE01E00FF11D1082E2
:100ED00088E00E94672680E20E94672688E00E94E0
:100EE00067260BC00E946726FE01EC0DFD1D1A301F
:100EF00011F4108207C010830F5FC02EDD24CE14C2
:100F0000DF0494F2CE016B2D0E94B106802FDF9199
:100F1000CF911F910F91FF90EF90DF90CF90BF90F6
:100F2000AF9008950F931F93DF93CF9300D000D01D
:100F30000F92CDB7DEB78E010F5F1F4F8EE491E0A9
:100F40000E94632783E491E00E9463278EE291E090
:100F50000E94632786E191E00E94632783E091E08D
:100F60000E94632789EE90E00E94632780EE90E064
:100F70000E9463278EE30E946726C80165E00E94F5
:100F800039078823D9F2C8016EED70E00E947B27F3
:100F9000892B49F48CEC90E00E946327F999FECFED
:100FA00012BC82E03BC0C8016AEC70E00E947B2763
:100FB000892B59F485EB90E00E946327F999FECFC5
:100FC00012BC82E081BD81E010C0C80163EB70E01B
:100FD0000E947B27892B59F483EA90E00E946327C3
:100FE000F999FECF12BC82E081BD80BD19C0C80155
:100FF00061EA70E00E947B27892BA9F482E890E0E7
:101000000E946327F999FECF12BC83E081BD10BC1A
:10101000FA9AF99AF999FECF12BC84E081BD10BC0E
:10102000FA9AF99A08C0C80160E870E00E947B272C
:10103000892B09F083CF0F900F900F900F900F9096
:10104000CF91DF911F910F9108950F931F93DF931D
:10105000CF9300D000D00F92CDB7DEB78E010F5FD7
:101060001F4F87E292E00E94632780E192E00E9496
:10107000632789EF91E00E94632781EE91E00E944F
:10108000632788EC91E00E9463278EE30E94672625
:10109000C80165E00E943907882319F3C80166EC8E
:1010A00071E00E947B27892B59F480EB91E00E942C
:1010B0006327F999FECF12BC81E081BD10BC36C018
:1010C000C8016EEA71E00E947B27892B51F488E900
:1010D00091E00E946327F999FECF12BC81E081BDA7
:1010E00024C0C80166E971E00E947B27892B59F46E
:1010F0008FE791E00E946327F999FECF12BC81E04F
:1011000081BD82E012C0C8016DE771E00E947B27BB
:10111000892B09F0A6CF85E691E00E946327F99913
:10112000FECF12BC81E081BD83E080BDFA9AF99ABE
:1011300085E00E9493050F900F900F900F900F90F5
:10114000CF91DF911F910F910895CF92DF92EF928F
:10115000FF920F931F93CF93DF93EC01162F60E064
:1011600070E0412F50E00E949B2700E0C12EDD245B
:101170000894C108D10823C00E947127182F883015
:1011800011F08F3789F40023D1F00150FE01E00FF8
:10119000F11D108288E00E94672680E20E94672687
:1011A00088E00E9467260BC00E946726FE01EE0DB4
:1011B000FF1D1A3111F4108207C010830F5FE02E5B
:1011C000FF24EC14FD04C4F2802FDF91CF911F9116
:1011D0000F91FF90EF90DF90CF9008950F931F93A2
:1011E000DF93CF93CDB7DEB7AB970FB6F894DEBFE2
:1011F0000FBECDBF0E94C115882319F483E00E9461
:1012000093050E94CC1B83E994E161E575E143EA13
:1012100053E12AE536E100E00E9443119093030474
:1012200080930204892B79F483E994E161E575E107
:1012300043EA53E12AE536E10FEF0E944311909310
:1012400003048093020480910204909103040E949D
:10125000271D9093FD038093FC0360E071E08E01F5
:101260000F5F1F4FA8010E94B8258091FC03909149
:10127000FD03B8010E94452590930506809304065E
:10128000AB960FB6F894DEBF0FBECDBFCF91DF9106
:101290001F910F910895CF92DF92FF920F931F93AA
:1012A000CF93DF936B01EA01F22E132F15C08F2D20
:1012B000912FBE010E94AD27009749F0013061F4E3
:1012C000CE016F2D712F0E94F805813029F4C601DF
:1012D0000E94961981E007C0C6016F2D712F0E94F0
:1012E0003C1C882321F7DF91CF911F910F91FF9034
:1012F000DF90CF900895CF92DF92EF92FF920F93FD
:10130000DF93CF93CDB7DEB7AB970FB6F894DEBFC0
:101310000FBECDBF7C016E010894C11CD11C96018B
:1013200000E00E944B09882319F420E030E005C05A
:10133000C701B6010E9482259C01C901AB960FB678
:10134000F894DEBF0FBECDBFCF91DF910F91FF901C
:10135000EF90DF90CF900895EF92FF920F931F933D
:10136000DF93CF9300D000D0CDB7DEB78C01609172
:101370000406709105068091FC039091FD03A8017D
:101380000E947B097C01009759F482ED97E00E944E
:101390006327C8010E9456278AE00E94672619C069
:1013A00019821A821B821C82BE016F5F7F4F42E04E
:1013B0000E946C23882379F480EC97E00E946327D5
:1013C000C8010E9456278AE00E946726C7010E9432
:1013D000401880E023C18CE30E9467265D9A10923A
:1013E000FF031092FE031092010410920004E4E047
:1013F000F4E0119226E0E430F207D9F78091C100C1
:1014000080688093C100789483C00F5F1F4F83E191
:101410000938180708F477C04115510509F45FC071
:1014200021E04030520709F45AC04F3F510509F0FE
:1014300078F4C70164E074E00E94C823209100049E
:101440003091010482179307B9F089EA97E012C03E
:1014500040505140C70164E075E00E94C8232091CC
:10146000000430910104205031408217930721F08D
:1014700082E997E00E9463272091000430910104E3
:1014800081E02130380718F460E070E002C060E0CD
:1014900071E0F8940091FE031091FF03DB01AC5F53
:1014A000BB4FAB0110C0F901EC5FFB4F80818C9307
:1014B0002F5F3F4F82E02030380710F020E030E00F
:1014C0004F5F5F4F11962017310769F75093FF0365
:1014D0004093FE03709301046093000478940E948B
:1014E000791404C081E090E00E94850520910004F9
:1014F000309101048091FE039091FF032817390772
:1015000089F300E010E081E090E00E94850502C0D0
:1015100000E010E040910004509101048091FE032E
:101520009091FF034817590709F46FCFFA01EC5F58
:10153000FB4F80818A3139F4F8948091C1008F7714
:101540008093C10030C0CA0101969093010480933A
:1015500000048050914069F4C70164E074E040E009
:1015600051E00E94C8238050914019F08BE797E02A
:1015700018C080910004909101048050924041F67F
:101580001092010410920004C70164E075E040E08D
:1015900051E00E94C8238050914009F4B9CF84E6FD
:1015A00097E00E9463274091000450910104411587
:1015B000510559F181E04030580739F14F3F51054D
:1015C00009F078F4C70164E074E00E94C823209118
:1015D00000043091010482179307B9F08DE497E07D
:1015E00012C040505140C70164E075E00E94C8231A
:1015F000209100043091010420503140821793075C
:1016000021F086E397E00E946327C7010E944018FB
:101610005D9884E397E00E94632781E00F900F902C
:101620000F900F90CF91DF911F910F91FF90EF904E
:1016300008952F923F924F925F926F927F928F9276
:101640009F92AF92BF92CF92DF92EF92FF920F9351
:101650001F93DF93CF93CDB7DEB7C956D0400FB6F7
:10166000F894DEBF0FBECDBF0EE0602E712C6C0E65
:101670007D1E12E6212E312C2C0E3D1EB6E04B2E87
:10168000512C4C0E5D1E8EE30E946726C30168E15B
:101690000E9439078823B9F380E00E940E078C016D
:1016A0006DE579E00E947B27892BA9F483E499E01A
:1016B0000E9463278091FC039091FD030E94B51660
:1016C00080910204909103040E943B110E94EE0855
:1016D0008AE299E02AC4C80168E279E00E947B2787
:1016E000892B39F0C80163E279E00E947B27892BBE
:1016F00019F40E943506C7CFC8016EE179E00E9457
:101700007B27892B19F40E942508BDCFC8016AE107
:1017100079E00E947B27892B19F40E949207B3CFAE
:10172000C80167E179E042E050E00E948427892BFC
:10173000E1F582E0B3010E948206882309F0A3CF7D
:1017400081E00E940E077C01009709F49CCF609114
:101750000406709105068091FC039091FD03A7019A
:101760009E01215C3F4F00E00E944B098823B9F0A5
:101770008091FC039091FD03BE01615C7F4F0E944C
:1017800045258C01009759F080910406909105063B
:101790000E949019109305060093040674CF81E00F
:1017A00099E00E946327C701C8C3C8016EEF78E0C3
:1017B0000E947B27892B09F048C081E00E940E0718
:1017C0006C01AFE3EA2EF12CEC0EFD1EF4E2BF2E0D
:1017D00032C0C114D10431F0C601B7010E94F8052E
:1017E000882349F1D7010D900020E9F78D010150C0
:1017F00010400E191F09C7010E945627A0968FADF1
:10180000A09784FD02C080E201C08FE21B2D101B57
:101810000E94672604C080E20E94672611501123AF
:10182000D1F7F10160817181828193810E94ED265F
:101830008AE00E9467268091040690910506B70110
:101840000E943C1C882329F61ECFC8016AEF78E06D
:1018500043E050E00E948427892B09F04DC082E0CC
:10186000B3010E948206882309F00DCF81E00E9417
:101870000E078C01009709F406CF60910406709161
:1018800005068091FC039091FD03A8010E947B094D
:101890005C01009721F0CC24DD24760122C08BEE80
:1018A00098E048C3C701B6010E949C268AE30E94C3
:1018B0006726820180E20E946726D8018D918D0102
:1018C0000E947626802F84198915A0F38AE00E9451
:1018D000672688E090E0A0E0B0E0C80ED91EEA1EBE
:1018E000FB1EC501B20148E050E00E944618982E48
:1018F0008823C1F6C5017DC0C80166EE78E044E0EA
:1019000050E00E948427892B09F0E2C081E00E9408
:101910000E078C01009709F4B6CE60910406709111
:1019200005068091FC039091FD03A8010E947B09AC
:101930004C01009719F487ED98E0FCC282E00E9408
:101940000E07AC01009709F457C0FC01019000207C
:10195000E9F73197E81B20E030E06E2F70E00BC014
:10196000FA01E20FF31F808190E0C0970A9708F018
:1019700043C02F5F3F4F2617370794F38A0120E0BB
:1019800030E040E050E017C0CA01B9012AE030E081
:1019900040E050E00E94862A9B01AC018F2D90E030
:1019A000C097AA2797FDA095BA2F280F391F4A1F65
:1019B0005B1F0F5F1F4FD801FC908F2D80538A3023
:1019C00018F32A833B834C835D83C401BE016E5FA1
:1019D0007F4F40E00E946C23882371F485EC98E0EF
:1019E0000E946327C3010E9456278AE00E9467264F
:1019F000C4010E94401847CE83E00E940E07AC014C
:101A00000097E1F1FC0101900020E9F73197E81B14
:101A100020E030E06E2F70E00AC0FA01E20FF31F01
:101A2000808190E0C0970A9748F52F5F3F4F2617B7
:101A300037079CF36A01EE24FF24870118C0C80110
:101A4000B7012AE030E040E050E00E94862A7B01A6
:101A50008C018B2D90E0C097AA2797FDA095BA2FF7
:101A6000E80EF91E0A1F1B1F0894C11CD11CF601A9
:101A7000B0808B2D80538A3010F318C0EE24EA9486
:101A8000FE2C870113C09981892F80528F3510F465
:101A9000892F05C09A3011F48AE001C08EE20E94BD
:101AA00067260894E108F10801091109C401BE0183
:101AB0006F5F7F4F41E050E00E94461818161906EC
:101AC0000CF093CFE114F10401051105E1F68DCF7F
:101AD000C80160EC78E00E947B27892B09F0A8C040
:101AE0000091FC031091FD030115110509F49DC03F
:101AF000CE0186960E948612882309F496C082EC55
:101B000099E00E9463278EA10E9476268AE00E94B7
:101B1000672689EB99E00E946327CE0187960E9491
:101B200056278AE00E94672680EB99E00E9463278F
:101B3000CE018A960E9456278AE00E94672687EA8D
:101B400099E00E94632788A90E9476268AE00E9475
:101B500067268CE999E00E94632769A97AA98BA975
:101B60009CA90E949C268AE00E94672683E999E04E
:101B70000E9463278EA990E00E94AF268FE20E9408
:101B800067268DA990E00E94AF268AE00E94672612
:101B90008AE899E00E9463276FA978AD89AD9AAD74
:101BA000E4E19695879577956795EA95D1F70E9438
:101BB000ED2686E899E00E9463278DE799E00E9470
:101BC00063278BAD90E00E94AF268AE00E946726D3
:101BD00084E799E00E9463278DAD90E00E94AF26D4
:101BE0008FE20E9467268CAD90E00E94AF268AE0CB
:101BF0000E9467268BE699E00E9463278EAD90E0F5
:101C00000E94AF268AE00E94672682E699E00E9441
:101C10006327C8010E94181B0E94ED268FE20E94D4
:101C20006726C8010E94F91A2FC087EA98E07DC193
:101C3000C80162EA78E044E050E00E948427892BE2
:101C400059F582E0B3010E948206882309F01BCD7A
:101C500081E00E940E07AC01009709F414CD609159
:101C60000406709105068091FC039091FD039E018E
:101C7000215C3F4F00E00E944B09882341F0D101D5
:101C80006D917D918D919C910E94ED2658C182E0CD
:101C900091E00E945627F7CCC8016FE978E042E056
:101CA00050E00E948427892BB9F583E0B3010E949C
:101CB0008206882309F0E7CC81E00E940E077C01B0
:101CC0000097A9F4E0CC8091FC039091FD03B6014C
:101CD0000E94771A882381F489E898E00E9463279C
:101CE000C3010E9456278AE00E94672605C06FE361
:101CF000C62ED12CCC0EDD1E609104067091050617
:101D00008091FC039091FD03A701960101E00E94E0
:101D10004B098823C1F6B7CCC80165E878E043E0F9
:101D200050E00E948427892B01F582E0B3010E94D4
:101D30008206882309F0A7CC81E00E940E07BC012F
:101D4000009709F4A0CC8091040690910506AE019D
:101D5000415C5F4F0E94E721882309F094CC8FE615
:101D600098E00E946327C301E8C0C80169E678E0F3
:101D700045E050E00E948427892B09F08FC081E064
:101D80000E940E075C01009709F47DCC82E00E945E
:101D90000E078C010097C9F0FC0101900020E9F7C3
:101DA0003197E81B20E030E04E2F50E00BC0F801E7
:101DB000E20FF31F808190E0C0970A9708F063CC90
:101DC0002F5F3F4F2417350794F3609104067091FD
:101DD00005068091FC039091FD03A5010E947B09FB
:101DE0007C01009729F020E030E040E050E01DC089
:101DF0008AE598E00E946327C5019FC0CA01B90126
:101E00002AE030E040E050E00E94862A9B01AC01CD
:101E10008D2D90E0C097AA2797FDA095BA2F280F87
:101E2000391F4A1F5B1F0F5F1F4FF801D0808D2D98
:101E300080538A3018F32A833B834C835D83C70128
:101E4000BE016E5F7F4F40E00E946C23882359F4EF
:101E500088E498E00E946327C5010E9456278AE023
:101E60000E94672619C08CE30E946726C30168E1BF
:101E70000E943907182F882379F0C701B301412F39
:101E800050E00E94C823212F30E08217930759F3B6
:101E900081E398E00E946327C701ABCDC8016AE2E5
:101EA00078E046E050E00E948427892B81F482E0AC
:101EB000B3010E948206882309F0E5CB81E00E94ED
:101EC0000E07009709F4DFCB0E94AC09DCCBC801F8
:101ED00067E278E042E050E00E948427892BB9F461
:101EE00081E00E940E078C01009709F4CCCB809111
:101EF000040690910506B801AE01415C5F4F0E9457
:101F00002821882309F0BFCB8CE098E013C0C801DA
:101F100067E078E00E947B27892B51F40E947914B6
:101F2000882309F0B0CB83EF97E00E946327ABCB07
:101F300081EE97E00E946327C8010E9456278AE03D
:101F40000E946726A0CB9F92AF92BF92CF92DF9262
:101F5000EF92FF920F931F93DF93CF93CDB7DEB72E
:101F6000AB970FB6F894DEBF0FBECDBFF999FECF89
:101F700012BC83E081BDF89A30B5F999FECF12BC4E
:101F800084E081BDF89A20B53F3FA9F42F3F99F432
:101F9000F999FECF12BC83E081BD10BCFA9AF99A80
:101FA000F999FECF12BC84E081BD10BCFA9AF99A6F
:101FB000CC24DD240EC0922F80E0C32EDD24C82A5D
:101FC000D92A8EEFC8168FEFD80619F48FED99E055
:101FD0004CC000D000D000D0EDB7FEB7319606E07F
:101FE00016E0ADB7BEB712961C930E93119786E01C
:101FF000E82E81E0F82EF382E282D582C4820E942C
:10200000E5278DB79EB706960FB6F8949EBF0FBE14
:102010008DBF902E012F5E010894A11CB11C1E2DB6
:10202000EF2C26C0690100D000D000D0EDB7FEB77C
:102030003196ADB7BEB711969C92119712960C933C
:102040001283E382358324830E94E5278DB79EB7F0
:1020500006960FB6F8949EBF0FBE8DBF9EEFC916B1
:102060009FEFD90628F08DEC99E00E9463272CC0E1
:10207000809104069091050666E076E0A5010E9435
:10208000E72196012F5F3F4F882361F2932FF99943
:10209000FECF12BC83E081BD20BDFA9AF99AF9996E
:1020A000FECF12BC84E081BDF89A80B5891741F05B
:1020B000F999FECF12BC84E081BD90BDFA9AF99ADD
:1020C00086E096E00E94AC09AB960FB6F894DEBFAE
:1020D0000FBECDBFCF91DF911F910F91FF90EF9079
:1020E000DF90CF90BF90AF909F900895EF92FF92B6
:1020F0000F931F93DF93CF93CDB7DEB7E8970FB65B
:10210000F894DEBF0FBECDBF8E010F5F1F4FC80119
:1021100062E171E00E94B6276091040670910506A5
:102120008091FC039091FD03A8010E947B097C0132
:102130000097A9F488E09AE00E9463278091040642
:1021400090910506B801AE01425F5F4F0E94E72102
:10215000882329F481EF99E00E94632707C0C70113
:102160000E944018CE0101960E94AC09E8960FB675
:10217000F894DEBF0FBECDBFCF91DF911F910F91BD
:10218000FF90EF9008950F931F9382E085BD559ABD
:10219000259A509A589A48992CC0459A10E000E226
:1021A00089E190E00E9485058BB180278BB989E198
:1021B00090E00E94850585B1802785B91F5F1832A0
:1021C00079F7489916C0F999FECF12BC81E081BD1C
:1021D00080BDFA9AF99A5D9A2D9A10E284EF91E007
:1021E0000E9485058BB181278BB985B1812785B97F
:1021F000F5CFF999FECF12BC81E081BDF89A80B588
:10220000863040F0F999FECF12BC81E081BD80BDDF
:10221000FA9AF99A0E9449268BE19AE00E94632774
:102220000E94EE0889E19AE00E9463271F910F91B6
:1022300008950E94C310F999FECF12BC82E081BDBF
:10224000F89A80B5863048F0F999FECF12BC82E04A
:1022500081BD10BCFA9AF99A02C0882319F40E9431
:10226000A30F04C0813011F40E9476100E94190B54
:1022700080E090E00895FC01009711F480E008955B
:10228000108681E008958F929F92AF92BF92CF9275
:10229000DF92EF92FF920F93DF93CF93CDB7DEB72C
:1022A00060970FB6F894DEBF0FBECDBF7C016B0107
:1022B0005A014901009709F493C06115710509F4A9
:1022C0008FC004300CF08CC007FD1DC0602F772735
:1022D00067FD7095E4E0660F771FEA95E1F76254B9
:1022E0007E4F882777FD8095982FAE014F5F5F4F17
:1022F00020E130E0F7010995882309F471C08D8150
:10230000882309F46DC080913E01882309F068C0DC
:102310007CC08D8180933E012A8530E040E050E012
:10232000542F432F322F22278B8590E0A0E0B0E07E
:10233000DC0199278827282B392B4A2B5B2B898591
:1023400090E0A0E0B0E0282B392B4A2B5B2B8C854A
:1023500090E0A0E0B0E0B82FAA2799278827282B83
:10236000392B4A2B5B2B20933F0130934001409344
:102370004101509342012E8530E040E050E0542F5F
:10238000432F322F22278F8590E0A0E0B0E0DC01C0
:1023900099278827282B392B4A2B5B2B8D8590E09A
:1023A000A0E0B0E0282B392B4A2B5B2B888990E0EA
:1023B000A0E0B0E0B82FAA2799278827282B392B2F
:1023C0004A2B5B2B209343013093440140934501FA
:1023D0005093460103C08FEF80933E019F0102C0DE
:1023E00020E030E0C90160960FB6F894DEBF0FBE62
:1023F000CDBFCF91DF910F91FF90EF90DF90CF9005
:10240000BF90AF909F908F900895E6E3F1E081E157
:10241000DF011D928A95E9F7F0923701E0923601CB
:10242000D0923901C0923801B0923B01A0923A019A
:1024300090923D0180923C0107FF6BCFCCCF81E0B1
:10244000089580E00895282F8FEF8EBD0DB407FE0C
:10245000FDCF8DB58F778DBD8EB5822F80648EBDFB
:102460000DB407FEFDCF8DB58F778DBD872F9927D2
:10247000AA27BB278EBD0DB407FEFDCF8DB58F7784
:102480008DBDCB01AA27BB278EBD0DB407FEFDCFA6
:102490008DB58F778DBDBB27A72F962F852F8EBD2E
:1024A0000DB407FEFDCF8DB58F778DBD4EBD0DB43C
:1024B00007FEFDCF8DB58F778DBD222319F0283013
:1024C00069F406C085E98EBD0DB407FEFDCF0BC0D3
:1024D00087E88EBD0DB407FEFDCF05C08FEF8EBD22
:1024E0000DB407FEFDCF8DB58F778DBD90E02FEF3A
:1024F0002EBD0DB407FEFDCF8DB58F778DBD8EB58A
:102500008F3F19F49F5F9A3099F70895CF92DF9229
:10251000EF92FF920F931F93CF93DF93EC010097FD
:1025200081F089E1FE0111928A95E9F72A988AE003
:1025300040E050E060E070E00E942312882319F030
:102540002A9A80E0F7C09FEF9EBD0DB407FEFDCF35
:102550008DB58F778DBD8EB58E3FB1F71C2FCE0117
:10256000FC0160E670E00FEF9E2F911B0EBD0DB4D5
:1025700007FEFDCF8DB58F778DBD2EB5983028F431
:10258000933088F4992359F00CC09D3018F4993099
:1025900070F40BC09D3019F19E3069F524C028837A
:1025A0002AC0208328C0218326C02A8724C030E087
:1025B00040E050E0062E04C0220F331F441F551F79
:1025C0000A94D2F78B859C85AD85BE85822B932B93
:1025D000A42BB52B8B879C87AD87BE870CC022951B
:1025E000207F2F8708C0922F92959F708F85892B0F
:1025F0008F872F70288B3196685070408FEF603D29
:10260000780709F0B1CF89E040E050E060E070E089
:102610000E942312882309F093CF9FEF9EBD0DB433
:1026200007FEFDCF8DB58F778DBD8EB58E3FB1F78F
:10263000F0E070E020E030E040E050E060E01FEFCC
:10264000E1E01EBD0DB407FEFDCF8DB58F778DBDCA
:102650008EB56E3079F490E086FDED8B85FDEE8BC6
:1026600084FDEF8B8C7090709595879595958795E7
:10267000888F5AC06730F9F0683030F4653061F007
:10268000663009F051C00BC06930A1F1693010F11A
:102690006A3009F049C032C0F82FFF7045C090E0A1
:1026A000A0E0B0E083709070A070B0702227382F47
:1026B000492F5A2F39C090E0A0E0B0E0282B392BE9
:1026C0004A2B5B2BA2E0220F331F441F551FAA95F4
:1026D000D1F72AC0829586958695837090E0A0E018
:1026E000B0E0282B392B4A2B5B2B2F5F3F4F4F4FEE
:1026F0005F4F1AC0782F7370770F16C0881F882716
:10270000881F782B8F2F90E00296870F911D69010B
:102710007A0104C0CC0CDD1CEE1CFF1C8A95D2F79C
:10272000C98ADA8AEB8AFC8A6F5F623109F089CF45
:102730002A9A81E0DF91CF911F910F91FF90EF9046
:10274000DF90CF9008952F923F924F925F926F92B9
:102750007F928F929F92AF92BF92CF92DF92EF9231
:10276000FF920F931F93CF93DF934B015C012A01DC
:10277000390133243A9422242394A1C0E401D17076
:10278000CE01A0E0B0E085017401E81AF90A0A0B55
:102790001B0BC12CB2E0DB2ECC1ADD0A6C147D04BD
:1027A00008F463018091470390914803A091490385
:1027B000B0914A03E816F9060A071B07F9F00E94D0
:1027C0007914882309F481C0209729F480E0C81681
:1027D00082E0D80658F4C801B70147E451E020E090
:1027E00032E00E949314882309F46FC0E0924703FB
:1027F000F09248030093490310934A0387E4481674
:1028000081E0580671F09E01295B3E4FC901B2017B
:10281000A6010E94922710924B036C147D0409F4C8
:1028200052C02A9888E1B801A7010E942312882388
:1028300011F02A9A4AC08EEF8EBD0DB407FEFDCF6F
:102840008DB58F778DBDE7E4F1E081918EBD0DB43C
:1028500007FEFDCF8DB58F778DBD83E0E734F80798
:10286000A1F73EBC0DB407FEFDCF8DB58F778DBDB2
:102870003EBC0DB407FEFDCF8DB58F778DBD3EBC40
:102880000DB407FEFDCF8DB58F778DBD8EB58F3F13
:10289000B1F78EBD0DB407FEFDCF8DB58F778DBD21
:1028A0008EB52A9A4C0C5D1CC601A0E0B0E0880EE3
:1028B000991EAA1EBB1E6C187D0820924B03611442
:1028C000710409F05BCF81E001C080E0DF91CF911E
:1028D0001F910F91FF90EF90DF90CF90BF90AF903E
:1028E0009F908F907F906F905F904F903F902F9030
:1028F000089580914B03882311F081E00895609141
:102900004703709148038091490390914A0347E43B
:1029100051E020E032E00E94A313882319F081E007
:1029200080934B0308953F924F925F926F927F92F4
:102930008F929F92AF92BF92CF92DF92EF92FF92CF
:102940000F931F93CF93DF933B014C016A01290141
:1029500033243A948FC01FEFA12E11E0B12EA62090
:10296000B720C501A0E0B0E084017301E81AF90ABC
:102970000A0B1B0BC0E0D2E0CA19DB094C165D063E
:1029800008F4E2018091470390914803A091490324
:10299000B0914A03E816F9060A071B0709F457C065
:1029A0000E947914882309F46AC02A9881E1B80149
:1029B000A7010E942312882319F02A9A80E05FC0A1
:1029C0003EBC0DB407FEFDCF8DB58F778DBD8EB5A6
:1029D0008E3FB1F7E7E4F1E03EBC0DB407FEFDCF5A
:1029E0008DB58F778DBD8EB5808383E0E634F80793
:1029F00011F03196F1CFE0924703F0924803009333
:102A0000490310934A039501295B3E4FC601B90162
:102A1000AE010E9492273EBC0DB407FEFDCF8DB5DE
:102A20008F778DBD8EB53EBC0DB407FEFDCF8DB545
:102A30008F778DBD8EB52A9A3EBC0DB407FEFDCFB3
:102A4000CC0EDD1E8DB58F778DBD8EB50AC095017C
:102A5000295B3E4FC601B901AE010E949227CC0E00
:102A6000DD1E4C1A5D0ACE01A0E0B0E0680E791EB2
:102A70008A1E9B1E4114510409F06DCF81E0DF9145
:102A8000CF911F910F91FF90EF90DF90CF90BF906B
:102A9000AF909F908F907F906F905F904F903F90FE
:102AA00008952F923F924F925F926F927F928F92F2
:102AB0009F92AF92BF92CF92DF92EF92FF920F93CD
:102AC0001F93DF93CF9300D000D0CDB7DEB74B017B
:102AD0005C013A013C832B832701DA82C9824115CC
:102AE0005105A9F12115310591F10217130778F16C
:102AF000E114F10461F11901309421943108339407
:102B0000021B130B6901EE24FF24C501B401A301CC
:102B10002B813C810E9493148823C9F0C301B50125
:102B2000A40129813A81F2010995882391F0020DCF
:102B3000131D8B819C81800F911F2B813C818217FB
:102B4000930738F08C0C9D1CAE1CBF1CDECF80E0C0
:102B500001C081E00F900F900F900F90CF91DF9107
:102B60001F910F91FF90EF90DF90CF90BF90AF90AB
:102B70009F908F907F906F905F904F903F902F909D
:102B800008950F931F93CF93DF93239A259A229A48
:102B900024982A9A83E58CBD8DB58E7F8DBD1092C9
:102BA0004C0390E02FEF2EBD0DB407FEFDCF8DB589
:102BB0008F778DBD8EB59F5F9A30A9F72A98C0E0B8
:102BC000D0E080E040E050E060E070E00E9423123E
:102BD000182F813039F081E0CF3FD80709F440C089
:102BE0002196EFCF87E340E050E060E070E00E9484
:102BF000231289E240E050E060E070E00E9423127E
:102C000082FD02C010934C0380914C03082F10E00A
:102C100003701070C0E0D0E00115110549F087E3A2
:102C200040E050E060E070E00E94231289E201C0C1
:102C300081E040E050E060E070E00E94231280FFFD
:102C400006C08FE7CF3FD80759F02196E5CF80E146
:102C500040E052E060E070E00E942312882319F007
:102C60002A9A80E022C02A9A8CB58C7F8CBD8DB5C3
:102C700081608DBD8FEF9FEFAFEFBFEF8093470374
:102C800090934803A0934903B0934A0381E0809353
:102C90004B0360E070E080E090E047E451E020E02A
:102CA00032E00E949314811181E0DF91CF911F9156
:102CB0000F9108954F925F926F927F928F929F92A1
:102CC000AF92BF92CF92DF92EF92FF920F931F933A
:102CD000CF93DF935B016C014A01E90138012701C1
:102CE0004115510571F10115110559F1FF24211507
:102CF000310511F5FF24F3941FC0C401B601A501ED
:102D00009201F30109958C010097E9F0FF2019F475
:102D1000C817D907B0F0C601B501A40198010E94F7
:102D2000A313882371F0C801A0E0B0E0A80EB91E7B
:102D3000CA1EDB1EC01BD10BFF20F9F62097E9F657
:102D400002C080E001C081E0DF91CF911F910F911F
:102D5000FF90EF90DF90CF90BF90AF909F908F90BB
:102D60007F906F905F904F900895FC01009711F055
:102D7000118210820895DF93CF9300D0CDB7DEB7D4
:102D8000DC01009791F16230710578F180E090E00C
:102D9000660F771F881F991FED91FC91119716966A
:102DA0002D913D914D915C911997620F731F841F76
:102DB000951F0190F081E02DAE014F5F5F4F22E043
:102DC00030E00995882389F029813A812115310560
:102DD00071F08FEF273F380741F0C9014096079700
:102DE00020F08FEF283F380710F020E030E0C901D5
:102DF0000F900F90CF91DF9108954F925F926F9255
:102E00007F928F929F92AF92BF92CF92DF92EF927A
:102E1000FF920F931F93DF93CF9300D0CDB7DEB710
:102E20005C01009709F449C06230710508F445C09F
:102E3000DC0116966D907D908D909C9019972E01D7
:102E40000894411C511C660F771F7B0100E010E0C5
:102E5000E60CF71C081D191DD501ED91FC910190A0
:102E6000F081E02DC801B701A20122E030E0099510
:102E7000882319F1C980DA80C114D10401F1C60197
:102E800040960897D0F0B8EFCB16BFEFDB0610F0F6
:102E9000CC24DD241A821982D501ED91FC910480A5
:102EA000F581E02DC801B701A20122E030E00995CB
:102EB000B601C114D10439F602C080E001C081E03E
:102EC0000F900F90CF91DF911F910F91FF90EF9096
:102ED000DF90CF90BF90AF909F908F907F906F903A
:102EE0005F904F9008952F923F924F925F926F9212
:102EF0007F928F929F92AF92BF92CF92DF92EF928A
:102F0000FF920F931F93DF93CF93CDB7DEB72A972E
:102F10000FB6F894DEBF0FBECDBF3C012B0100976A
:102F200009F48FC0DC01ED91FC9111972081318172
:102F30003A8729872480358016968D919D910D9032
:102F4000BC91A02D8D839E83AF83B887F3018285CA
:102F50009385A485B585B695A795979587959C8308
:102F60008B834A01CC24DD2462E0A62EB12C41C023
:102F7000C501880F991F7C0100E010E02D813E8182
:102F80004F815885E20EF31E041F151FC801B701BB
:102F9000AE014F5F5F4F22E030E0A985BA85FD01A9
:102FA0000995882309F44DC089819A81892BF1F410
:102FB000C114D10429F4EFEFFFEFFA83E98302C0D3
:102FC000DA82C982C801B701AE014F5F5F4F22E0CC
:102FD00030E0F1010995882391F008948108910867
:102FE0008114910411F465010CC065010894A11CC1
:102FF000B11C2B813C81A216B30608F4B9CF8928F5
:10300000E1F432E043165104F0F0DA82C982440C54
:10301000551CB20180E090E02D813E814F815885A2
:10302000620F731F841F951FAE014F5F5F4F22E039
:1030300030E0F1010995882331F4C301B6010E9403
:10304000FD16CC24DD24C6012A960FB6F894DEBF07
:103050000FBECDBFCF91DF911F910F91FF90EF90E9
:10306000DF90CF90BF90AF909F908F907F906F90A8
:103070005F904F903F902F90089580E190E00895E9
:10308000FC01009711F01182108208952F923F9257
:103090004F925F926F927F928F929F92AF92BF9268
:1030A000CF92DF92EF92FF920F931F93DF93CF9314
:1030B000CDB7DEB72A970FB6F894DEBF0FBECDBFEF
:1030C0002C017A8369835C834B83009709F409C1DF
:1030D000672B09F406C1452B09F403C1DC019D9659
:1030E000AD90BD90CD90DC90D09795962D913D916F
:1030F0004D915C919897EB81FC81CF01A0E0B0E00D
:103100008A0D9B1DAC1DBD1D281739074A075B079B
:1031100040F4B9016A197B097C836B83672B09F43E
:10312000E3C0D201ED91FC91119720883188D196AE
:10313000ED91FC91D297FA87E987EF2BF1F5939601
:103140002D913C9194973A872987232B39F4A11428
:10315000B104C104D10409F4C7C0C3C0A114B104AF
:10316000C104D10451F186017501310188249924EB
:1031700066277727CB0166197709880999096D8336
:103180007E838F83988714C0D2018D919C9169852D
:103190007A850E94BB169A878987892B09F4A1C07A
:1031A0006D817E818F819885E60EF71E081F191F9D
:1031B000E614F7040805190538F7089421083108C2
:1031C000A220B3200894211C311CCB80DC80D201CA
:1031D000ED90FC90E114F10409F1E985FA85E23003
:1031E000F105E0F03297BF0180E090E03296FA8777
:1031F000E987D70150962D913C91519740E050E0DE
:103200000E94862A9B01AC01F70182899389A489D7
:10321000B589280F391F4A1F5B1F04C020E030E02A
:1032200040E050E081010A191B09C016D10608F4DC
:103230008601D701ED91FC91C501A0E0B0E0280F17
:10324000391F4A1F5B1F0190F081E02DCA01B901AF
:1032500049815A8198010995882341F1C01AD10A00
:10326000C801A0E0B0E0F20125A536A547A550A908
:10327000280F391F4A1F5B1FD2019D962D933D9346
:103280004D935C93D097C8018A0D9B1D82159305C1
:10329000A0F08D919C9169857A850E94BB169A87D2
:1032A0008987892B41F4F20112AA11AA4B815C8112
:1032B0004C195D091BC0AA24BB24E985FA85D201FB
:1032C000D296FC93EE93D197C114D10439F02981A1
:1032D0003A81200F311F3A83298379CF4B815C815A
:1032E00005C04FEF5FEF02C040E050E0CA012A96F0
:1032F0000FB6F894DEBF0FBECDBFCF91DF911F9107
:103300000F91FF90EF90DF90CF90BF90AF909F9084
:103310008F907F906F905F904F903F902F90089587
:10332000FC01009711F0118210820895FC010097B2
:1033300011F480E0089583A194A196A785A710AA0F
:1033400017A681E00895CF92DF92EF92FF920F933C
:103350001F93CF93DF938C016A017B01A901D901EF
:10336000CD91DC91119712968D919C911397809637
:1033700013969C938E931297F8018081853E09F4F1
:10338000AAC0882309F4A7C08FA198A5A9A5BAA5AA
:103390000097A105B10521F4CFA2D8A6E9A6FAA607
:1033A000209709F49AC00115110509F496C0D801B7
:1033B0009C91992309F491C01B968C918F3029F52B
:1033C000892F90E08F7390702DE030E0829FA001F4
:1033D000839F500D929F500D11244D505040ADE1F0
:1033E000B1E0C40FD51F0DC08D91F801E80FF11D9C
:1033F000808189934F5F5F4FE1E0AA32BE0709F4F5
:103400006AC04F31510580F366C08881882309F076
:103410004EC0B801DE01780120E0F70190819032C2
:10342000A1F09C93F801848583FF08C0F701808197
:10343000813420F08B3510F4905E9C932F5F0894BC
:10344000E11CF11C1196283041F78881853011F478
:1034500085EE8883D80118968C91803221F1FE0187
:10346000E20FF11D8EE28083322F3F5F2C5FFB0164
:1034700090859032B9F0FE01E30FF11D9083D801E1
:103480001C968C9184FF09C0DB0118968C918134C5
:1034900020F08B3510F4905E90833F5F6F5F7F4F1D
:1034A000321729F7232FFE01E20FF11D1082F801D8
:1034B000838588A3828D938D9AA389A3848D958D0E
:1034C000A68DB78D8BA39CA3ADA3BEA381E0DA012B
:1034D00014968C9302C081E001C080E0DF91CF910F
:1034E0001F910F91FF90EF90DF90CF9008957F9202
:1034F0008F929F92AF92BF92CF92DF92EF92FF9204
:103500000F931F93DF93CF93CDB7DEB72C970FB6F2
:10351000F894DEBF0FBECDBF6C015B01009709F4CC
:1035200053C06115710509F44FC0DB019796ED900A
:10353000FD900D911C919A97E114F104010511057C
:1035400009F442C04E010894811C911CE5EE7E2EC8
:10355000D601ED91FC910190F081E02DC801B701F9
:10356000A4012CE030E00995882371F17982D6011D
:10357000ED91FC910480F581E02DC801B701A40113
:103580002CE030E009958823F9F08C858F3049F4E0
:1035900080E290E0A0E0B0E0E80EF91E0A1F1B1FD9
:1035A000D7CFD50191966D917C9192976115710558
:1035B00039F0C6010E94FD1620E030E0882311F0AA
:1035C00021E030E0822F01C080E02C960FB6F89405
:1035D000DEBF0FBECDBFCF91DF911F910F91FF9046
:1035E000EF90DF90CF90BF90AF909F908F907F90A3
:1035F0000895FC01009729F420E030E040E050E01D
:1036000014C0628573858485958596958795779591
:10361000679562507040804090402089318940E039
:1036200050E00E94862A9B01AC01B901CA010895AD
:103630002F923F924F925F926F927F928F929F92C2
:10364000AF92BF92CF92DF92EF92FF920F931F93B0
:10365000DF93CF93CDB7DEB7A6970FB6F894DEBF52
:103660000FBECDBF9EA38DA3892B09F45DC01A8226
:10367000198280E290E09C838B83ADA1BEA1169657
:103680004D905D906D907C9019971A968D909D90BD
:10369000AD90BC901D9734C0BEEF8B16BFEF9B065C
:1036A000B0E0AB06B0E0BB0628F01EEF212E1FEF06
:1036B000312E01C01401ADA1BEA1ED91FC9102809B
:1036C000F381E02DC301B201AE014B5F5F4F20E2F9
:1036D00030E08101B3EBEB2EBBE1FB2E6E010894D1
:1036E000C11CD11C09958823F9F0C101A0E0B0E00C
:1036F000480E591E6A1E7B1E881A990AAA0ABB0A1E
:1037000081149104A104B10439F6EDA1FEA16089F0
:10371000718980E090E029813A8140E050E00E9488
:10372000862A9B01AC0104C020E030E040E050E07C
:10373000B901CA01A6960FB6F894DEBF0FBECDBF81
:10374000CF91DF911F910F91FF90EF90DF90CF907D
:10375000BF90AF909F908F907F906F905F904F90B1
:103760003F902F900895DC01F9014281538120E0C0
:1037700030E00DC08D919C911197892B29F48081A7
:1037800091810196918380832E5F3F4F129624177B
:10379000350780F381E008958AE1EDE4F3E0DF018D
:1037A0001D928A95E9F783E3E7E6F3E0DF011D92D6
:1037B0008A95E9F782E6EAE9F3E0DF011D928A954E
:1037C000E9F70895CF92DF92EF92FF920F931F9344
:1037D000DF93CF93CDB7DEB760970FB6F894DEBF17
:1037E0000FBECDBF8C016230710510F480E035C092
:1037F000009729F440E050E060E070E016C06250AD
:10380000704080E090E0F8012089318940E050E08C
:103810000E94862AAB01BC01F80182899389A489A0
:10382000B589480F591F6A1F7B1FDE01119680E181
:10383000FD0111928A95E9F7F80180819181208933
:103840003189FC01C680D780CB01BA01AD010DE3FF
:1038500018E1EE24FF24F601099560960FB6F8945E
:10386000DEBF0FBECDBFCF91DF911F910F91FF90B3
:10387000EF90DF90CF9008952F923F924F925F92FA
:103880006F927F928F929F92AF92BF92CF92DF9270
:10389000EF92FF920F931F93DF93CF93CDB7DEB7D5
:1038A000A7970FB6F894DEBF0FBECDBF2C017FA344
:1038B0006EA3009709F4B1C06115710509F4ADC09C
:1038C000DC018D909C901197F401208831889D96A1
:1038D000AD90BC909E979F966D907C90D0978BE218
:1038E000DB011D928A95E9F7FE01319685E0DF0143
:1038F0001D928A95E9F7A114B10409F076C0F4018C
:103900002288338886899789281A390A6EC07301FC
:1039100000E010E0A114B10441F4D40156966D9179
:103920007D918D919C9159972DC08114910421F125
:10393000B2E0AB16B10400F1EEEFFFEFAE0EBF1E2A
:10394000B50180E090E022E030E0A20EB31ED40189
:1039500050962D913C91519740E050E00E94862A6C
:103960009B01AC01F40182899389A489B589280F50
:10397000391F4A1F5B1F04C020E030E040E050E0E8
:10398000CA01B9016E0D7F1D801F911F1C821B8211
:10399000D401ED91FC918101061917090280F38190
:1039A000E02DAE014A5F5F4F20E230E0A3EAEA2E4D
:1039B000A9E1FA2E6E010894C11CD11C0995882337
:1039C00061F18B819C81680E791E6214730488F00A
:1039D000C401B5010E94BB165C01662477240097E0
:1039E00041F4F201A3A0B4A008C02EA13FA13A83E4
:1039F00029838D81882309F48ACFD2019E96BC92B7
:103A0000AE929D97D0967C926E929F97EEA1FFA169
:103A10008081882319F081E001C080E0A7960FB66D
:103A2000F894DEBF0FBECDBFCF91DF911F910F91F4
:103A3000FF90EF90DF90CF90BF90AF909F908F90CE
:103A40007F906F905F904F903F902F9008952F92AE
:103A50003F924F925F926F927F928F929F92AF921E
:103A6000BF92CF92DF92EF92FF920F931F93DF935B
:103A7000CF93CDB7DEB7A8970FB6F894DEBF0FBED1
:103A8000CDBF98A78FA3009709F45CC1DC01149601
:103A90008D919C911597892B09F454C116968D919F
:103AA0009C911797892B09F44DC168C1EDE4F3E0AF
:103AB0008AE1DF011D928A95E9F7EFA1F8A5F0935D
:103AC0004E03E0934D03218432844384548459E0AF
:103AD000220C331C441C551C5A95D1F7C201B1016C
:103AE000655F7F4F8F4F9F4F0190F081E02DAE01BA
:103AF0004F5F5F4F29E130E00995882309F445C104
:103B0000E981FA81FBA3EAA32C813D81FB81FCA31F
:103B10004E818F8198859EA38DA3E985FA856C855A
:103B20007D856E887F88888C998C611471048104EE
:103B3000910431F4309709F428C13F018824992475
:103B40006115710509F421C1C901A0E0B0E08E8FB3
:103B50009F8FA8A3B9A380E090E0242F30E040E03D
:103B600050E00E94862A6A8F7B8F8C8F9D8F840104
:103B700073012E8D3F8D48A159A1E21AF30A040B5F
:103B8000150BE61AF70A080B190B8AA19BA10197DE
:103B90002DA13EA145E0220F331F4A95E1F7820F88
:103BA000931F6AA17BA10E94A52A80E090E0E61AFB
:103BB000F70A080B190B8CA1282F30E040E050E0E9
:103BC000C801B7010E94CC2A79018A0195EFE91654
:103BD0009FE0F90690E0090790E0190708F4D5C0C6
:103BE000A5EFEA16AFEFFA06A0E00A07A0E01A0771
:103BF00028F486E0EFA1F8A5808705C08BE0AFA18F
:103C0000B8A518968C9388E1EFE4F3E0DF011D92EC
:103C10008A95E9F7EAA1FBA15F01CC24DD24C40168
:103C2000B301A60195010E94862A60934F03709309
:103C300050038093510390935203C601B5012E8D1A
:103C40003F8D48A159A10E94862A260E371E481E84
:103C5000591E2092530330925403409255035092C0
:103C60005603AFA1B8A518968C91863029F064E070
:103C700070E080E090E004C062E070E080E090E0FE
:103C800022E030E040E050E0E20EF31E041F151F7A
:103C9000A80197010E94862A6093570370935803E6
:103CA0008093590390935A034AA15BA150935C03FC
:103CB00040935B035CA1852F90E0DC01EAA1FBA1AE
:103CC000AE9FC001AF9F900DBE9F900D11249093A9
:103CD0005E0380935D036A8D7B8D8C8D9D8DA60127
:103CE00095010E94862A20915303309154034091FC
:103CF000550350915603620F731F841F951F6093E5
:103D00006303709364038093650390936603ADA18E
:103D1000BEA19D0140E050E0B5E0220F331F441FDB
:103D2000551FBA95D1F7620F731F841F951F6093BB
:103D30005F037093600380936103909362032DE4AB
:103D400033E002C020E030E0C901A8960FB6F89435
:103D5000DEBF0FBECDBFCF91DF911F910F91FF90BE
:103D6000EF90DF90CF90BF90AF909F908F907F901B
:103D70006F905F904F903F902F90089580914D03EA
:103D800090914E03892BF1F691CE10924E03109232
:103D90004D03D8CF2F923F924F925F926F927F92B6
:103DA0008F929F92AF92BF92CF92DF92EF92FF924B
:103DB0000F931F93DF93CF9300D00F92CDB7DEB751
:103DC0001C019B01009709F4D2C04115510509F46B
:103DD000CEC0FA0101900020E9F7E41BF50BCF01FA
:103DE0000B966DE070E00E94A52A862F8F5F8B8373
:103DF000D90193964D905C9094974114510451F0E1
:103E0000AA24BB246501EE24FF24870166247724BD
:103E100043010BC0F101E688F788008D118D62889F
:103E2000738884889588570168011A82E614F7041C
:103E30000805190509F06EC04114510409F497C032
:103E4000E114F1040105110589F1C101B2010E94DB
:103E5000BB16009751F5C101B20141E050E00E944C
:103E600073178C01009709F482C002501040B8010A
:103E700080E090E00E5F1F4FD10150962D913C9154
:103E8000519740E050E00E94862A5B016C01F101ED
:103E900082899389A489B589A80EB91ECA1EDB1E22
:103EA000C101B8010E94E21B65C02C01F2E04F166F
:103EB000510420F4EE24FF2487011DC02EEF3FEFB4
:103EC000420E531EB20180E090E0A2E0B0E04A0E44
:103ED0005B1EF1012089318940E050E00E94862A72
:103EE0007B018C01F10182899389A489B589E80E4F
:103EF000F91E0A1F1B1FD10150968D919C9151975D
:103F00003C01882499246E0C7F1C801E911E570151
:103F100068011A82D101ED91FC910190F081E02DB0
:103F2000C801B701AE014F5F5F4F21E030E0099556
:103F30008823E9F08981853E11F0882379F4BA81DC
:103F4000BF5FBA83EB81BE17A8F480E290E0A0E0E7
:103F5000B0E0E80EF91E0A1F1B1F68CF80E290E058
:103F6000A0E0B0E0E80EF91E0A1F1B1F5CCFAA24D8
:103F7000BB246501B501C6010F900F900F90CF9142
:103F8000DF911F910F91FF90EF90DF90CF90BF9046
:103F9000AF909F908F907F906F905F904F903F90E9
:103FA0002F9008953F924F925F926F927F928F92DF
:103FB0009F92AF92BF92CF92DF92EF92FF920F93B8
:103FC0001F93DF93CF93CDB7DEB7A0970FB6F894CA
:103FD000DEBF0FBECDBFFC018B01009709F41FC1EE
:103FE0006115710509F41BC10190F081E02D448039
:103FF0005580DB019796AD90BD90CD90DC909A975F
:10400000E62E912EFB0101900020E9F73197FE2E5C
:10401000F61A8F2D90E00C966DE070E00E94B92AA0
:10402000762ECE01019660E270E04BE050E00E94F7
:104030009B27C8016EE270E00E94DA27FC0100971E
:10404000E1F09C012F5F3F4F81818823B1F0D901BE
:104050000D900020E9F71197A21BB30B8A2F8095D2
:10406000F80EBE01675F7F4F4A2FA43008F043E08F
:10407000CB01B90150E00E949227CE010196B8E031
:10408000BF1588F06E2D792D4F2D50E00E9492279C
:10409000F80180818E3231F581818E3209F482817E
:1040A0008823F9F01FC0DC018E2D992D9C01F901A8
:1040B00088E001900D928150E1F7D80191968C91A2
:1040C000982F92959F70803A10F4905D01C09F598F
:1040D0008F708A3010F4805D01C08F599F8388876C
:1040E00001C077248981853E11F485E08983FCE055
:1040F0008F2E912C8C0E9D1E85E1F40111928A95D4
:10410000E9F7D80190968C9190978C8791968D9134
:104110009C9192979C8F8B8F93968D919D910D90F2
:10412000BC91A02D8D8F9E8FAF8FB8A3672D70E0AF
:10413000E5E0660F771FEA95E1F780E090E06A0D11
:104140007B1D8C1D9D1DAE014F5F5F4F20E230E057
:10415000F2010995882309F462C0E980FE013296D4
:1041600094018E2D8695E794EE24E794E82A8191B8
:10417000E80EE217F307A9F7F72C4E010894811C0B
:10418000911C7DE0372E6FE0662E44C0C4016FEFB6
:1041900070E040E250E00E949B27F39CD001112484
:1041A0001D97A00FB11F91E0F401E90FF11D8C9153
:1041B0008083892F8F5FF401E80FF11D10829E5FCD
:1041C0009B3019F09A3121F402C09EE001C09CE1BD
:1041D0008C91882321F09F3110F41196E5CFF9825C
:1041E000F71419F48F2D806489836C86EE861D8602
:1041F0001B8E1C8EC601B501A40120E230E0F20145
:10420000099580E290E0A0E0B0E0A80EB91ECA1EB9
:10421000DB1EFA94FF2009F0B9CF81E001C080E0F5
:10422000A0960FB6F894DEBF0FBECDBFCF91DF9141
:104230001F910F91FF90EF90DF90CF90BF90AF90C4
:104240009F908F907F906F905F904F903F900895D8
:104250007F928F929F92AF92BF92CF92DF92EF9216
:10426000FF920F931F93CF93DF936C015B01EA01E1
:10427000009709F49DC06115710509F499C0FB010F
:104280008081882309F494C04115510581F490C0C0
:10429000C501682D772D0E94AD27009751F4F601D6
:1042A00083A194A196A785A710AA17A681C0842EE2
:1042B0007D2EC601BE010E943C1C882349F7F601F1
:1042C000E080F180C70160E070E041E050E00E94D2
:1042D00073178C01009709F46BC0C701B8010E94E5
:1042E000E21B8BE2FE0111928A95E9F780E188A337
:1042F00002501040B80180E090E00E5F1F4FF701C0
:104300002089318940E050E00E94862AF701228905
:10431000338944895589260F371F481F591F2FA3FA
:1043200038A749A75AA7AEE29A2E98821AA309A3E2
:10433000C701BE010E94D21F8823B1F18FA198A5A9
:10434000A9A5BAA58096A11DB11D8FA398A7A9A75D
:10435000BAA79982F60183A194A19AA389A3C70160
:10436000BE010E94D21F8823F9F0882D972DB50138
:104370004FE150E00E94CB271AA309A3C701B60161
:10438000AE010E94CA1E6FA378A789A79AA76115DC
:1043900071058105910541F0C701BE010E94D21F40
:1043A000882311F081E005C0C701B8010E94FD1605
:1043B00080E0DF91CF911F910F91FF90EF90DF9000
:1043C000CF90BF90AF909F908F907F900895AF92C5
:1043D000BF92CF92DF92EF92FF920F931F93CF93F2
:1043E000DF938C017B01EA01009709F448C0611555
:1043F000710509F444C0FB018081882309F43FC0A2
:1044000041155105E1F1B42EAD2EC801BE010E9447
:104410003C1C882379F0C7016B2D7A2D0E94AD27B3
:10442000009799F7F80183A194A196A785A710AAF0
:1044300017A625C0F801C080D1808BE2FE01119241
:104440008A95E9F78B2D9A2DB7014FE150E00E9434
:10445000CB27C601B801AE010E94CA1E6FA378A780
:1044600089A79AA7611571058105910541F0C601DB
:10447000BE010E94D21F882319F081E001C080E0B4
:10448000DF91CF911F910F91FF90EF90DF90CF9030
:10449000BF90AF9008954F925F926F927F928F92EC
:1044A0009F92AF92BF92CF92DF92EF92FF920F93C3
:1044B0001F93DF93CF93CDB7DEB72A970FB6F8944B
:1044C000DEBF0FBECDBF2C015A016B01009709F46E
:1044D000E5C0DC0193960D911C919497ED91FC91B0
:1044E000208931890115110599F0AB82BC82CD82FA
:1044F000DE8239018824992422273327A90126192D
:104500003709480959092F83388749875A8720C0B6
:10451000411551056105710509F4A9C0E6CFD20125
:104520008D919C91B8010E94BB160097D9F0EB8049
:10453000FC800D811E812F81388549855A85E20EC8
:10454000F31E041F151FEB82FC820D831E838C015A
:104550008B819C81AD81BE81681679068A069B0697
:10456000F0F2B4C078016B817C818D819E81660DF3
:10457000771D881D991D6150704080409040A401B6
:1045800093010E94CC2AD2018D919C91B801A9017E
:104590000E947317009709F481C0012B21F4F201E6
:1045A00094A383A37C01D2019596AD92BD92CD9246
:1045B000DC929897A114B104C104D10421F494961B
:1045C0001C921E929397F20181919191BF010E94DA
:1045D000D21F882309F462C0A114B104C104D1041C
:1045E00029F4F20180819181B7013FC00B811C81C8
:1045F0002D813E816016710682069306C0F1D201BC
:104600000D911C910115110591F1B2E0EB16F10429
:1046100070F1C801B7010E94BB164C018FEF9FEFEC
:104620009A838983D801ED91FC911197EE0CFF1CC0
:10463000B70180E090E016962D913D914D915C91EF
:104640001997620F731F841F951F0480F581E02D59
:10465000AE014F5F5F4F22E030E00995882339F0CB
:104660008114910421F0C801B4010E94FD16F201E9
:1046700085A596A5A7A5B0A9A816B906CA06DB0602
:1046800058F4D2019D96AD92BD92CD92DC92D09716
:10469000D2961C921E92D19781E001C080E02A96AA
:1046A0000FB6F894DEBF0FBECDBFCF91DF911F9143
:1046B0000F91FF90EF90DF90CF90BF90AF909F90C1
:1046C0008F907F906F905F904F90089578010115C3
:1046D000110509F448CF67CFCF92DF92EF92FF9296
:1046E0000F931F93CF93DF93EC016B01009709F4B5
:1046F00045C06115710509F441C08DA59EA5AFA502
:10470000B8A9413059F0413018F04230B9F50CC029
:10471000FB01E080F1800281138113C0FB01E08086
:10472000F1800281138109C0FB01E080F1800281E8
:1047300013818DA19EA1AFA1B8A5E80EF91E0A1F95
:104740001B1F8DA19EA1AFA1B8A58E159F05A00727
:10475000B10738F4CE01B801A7010E944B2288238B
:1047600069F0EDA6FEA60FA718AB1AAA19AAF601C2
:10477000E082F1820283138381E001C080E0DF9157
:10478000CF911F910F91FF90EF90DF90CF90089500
:104790002F923F924F925F926F927F928F929F9251
:1047A000AF92BF92CF92DF92EF92FF920F931F933F
:1047B000DF93CF9300D000D000D0CDB7DEB79E837B
:1047C0008D837A8369835C834B83009709F441C1AD
:1047D000672B09F43EC1452B09F43BC1DC019D96D2
:1047E0008D909D90AD90BC90D097FC0185A196A135
:1047F000A7A1B0A588159905AA05BB0508F429C18C
:104800000190F081E02D20883188AD81BE81D19664
:104810000D911C91D2970115110509F055C0939681
:104820000D911C91949701151105A9F4811491041F
:10483000A104B10409F00DC1CF0160E070E041E0D6
:1048400050E00E9473178C01ED81FE8194A383A335
:10485000009709F4FEC0AD81BE819D96CD90DD909C
:10486000ED90FC90D097C114D104E104F10421F53E
:104870002BC0C418D508E608F708ED81FE818081B9
:104880009181B8010E94BB16009711F08C0117C0EE
:10489000C114D104E104F10409F0DBC0AD81BE8193
:1048A0008D919C91B80141E050E00E9473170097F0
:1048B00009F4CFC08C0103C0210166247724C414FD
:1048C000D504E604F704A8F60894210831088220EC
:1048D00093200894211C311CAB80BC80ED81FE81AB
:1048E000C080D180C114D104F9F002301105E0F08C
:1048F00002501040B80180E090E00E5F1F4FD601DB
:1049000050962D913C91519740E050E00E94862AAC
:104910009B01AC01F60182899389A489B589280F8E
:10492000391F4A1F5B1F04C020E030E040E050E028
:104930007101E818F908AE14BF0408F47501D60136
:10494000ED91FC91C401A0E0B0E0280F391F4A1F8F
:104950005B1F0480F581E02DCA01B90149815A81AC
:1049600097010995882309F448C0AE18BF08C7010C
:10497000A0E0B0E0ED81FE8125A536A547A550A9B0
:10498000280F391F4A1F5B1F25A736A747A750AB23
:10499000C701880D991D8215930508F180819181C9
:1049A000B8010E94BB16009711F08C0116C0A1142B
:1049B000B10459F0ED81FE8180819181B80141E01F
:1049C00050E00E947317009739F4AD81BE81D296F2
:1049D0001C921E92D19711C08C0188249924ED81DC
:1049E000FE8112AB01ABA114B10439F089819A8127
:1049F0008E0D9F1D9A83898371CFED81FE8185A5E0
:104A000096A5A7A5B0A9E5A0F6A007A110A5E81650
:104A1000F9060A071B07C0F485A396A3A7A3B0A7AE
:104A200081919191BF010E94D21F882369F4AD81C9
:104A3000BE819D96AD90BC909E97AE18BF08FD01BB
:104A4000E5A6F6A607A710AB4B815C814A195B0966
:104A500002C04FEF5FEFCA0126960FB6F894DEBF93
:104A60000FBECDBFCF91DF911F910F91FF90EF90BF
:104A7000DF90CF90BF90AF909F908F907F906F907E
:104A80005F904F903F902F900895CF93DF93AC01AC
:104A9000DB01009789F16115710571F190968C9198
:104AA000909784FF29C080919A0390919B03892B52
:104AB00019F4EAE9F3E008C08091CB039091CC03AC
:104AC000892BD1F4EBECF3E09F012E5F3F4FBD014A
:104AD0008BE2EB010990BE01E90109929E01815030
:104AE000C1F75183408391968D919C91929796A79F
:104AF00085A710AA17A602C0E0E0F0E0CF01DF9181
:104B0000CF910895CF93DF939C01FB01009731F083
:104B10006115710519F080A184FF23C020E030E009
:104B2000C901DF91CF910895C9E6D3E0DF018BE29F
:104B30000D9009928150E1F7309368032093670349
:104B4000109294031092950310929603109297037B
:104B500081A192A1909399038093980327E633E073
:104B6000DFCF8091670390916803892BB9F6DCCF82
:104B70006F927F928F929F92AF92BF92CF92DF926D
:104B8000EF92FF920F931F93CF93DF934C01EB01B2
:104B90007A01009709F467C06115710509F463C0D3
:104BA0008881882309F45FC04115510509F45BC071
:104BB0008F3209F421968BE2F70111928A95E9F779
:104BC00080E1F70180A3370101C0E50188818823D6
:104BD00009F44BC0C401B7010E9445256C01009740
:104BE00009F441C0CE016FE270E00E94A227009755
:104BF00039F0482F4C1B5C010894A11CB11C2AC041
:104C0000FE0101900020E9F731974E2F4C1B5E0109
:104C1000A40EB11C1FC0F30101900020E9F73197E9
:104C2000E619F709E017F107B9F4CE01B301A801BD
:104C30000E94BD27009781F4F601118210820C0FAB
:104C40001D1FF8018081882381F0F70180A184FD78
:104C5000BCCF09C0042F10E0C601B7010E943C1C64
:104C60008823C9F612C080E001C081E0DF91CF91B6
:104C70001F910F91FF90EF90DF90CF90BF90AF907A
:104C80009F908F907F906F900895F601118210820F
:104C90009DCF882319F420E433E00EC0813051F019
:104CA000823019F422E230E007C0833019F420E1A9
:104CB00030E002C02FEC30E082E08093C00020930F
:104CC000C4003093C50088E18093C10008951F930C
:104CD000182F8A3019F48DE00E9467268091C00059
:104CE00085FFFCCF1093C6001F9108951F93182FC6
:104CF00082958F708A3010F4805D01C0895A0E94BD
:104D00006726812F90E08F709070212F2F700A9767
:104D10001CF4822F805D02C0822F895A0E94672670
:104D20001F9108951F93182F892F0E947626812F97
:104D30000E9476261F910895EF92FF920F931F9382
:104D40007B018C01C801AA27BB270E949226C701BC
:104D50000E9492261F910F91FF90EF900895CF929D
:104D6000DF92FF920F931F93CF93DF936C01C0E10B
:104D7000D7E240E000E010E0C601BE010E94A52A93
:104D8000F62E662329F4442319F4C130D10529F401
:104D90008F2D805D0E94672641E0CE016AE070E0C1
:104DA0000E94A52A0F5F1F4F0530110571F08F2D4E
:104DB00090E09C012C9FC0012D9F900D3C9F900D79
:104DC0001124C81AD90AEB01D7CFDF91CF911F91D7
:104DD0000F91FF90DF90CF9008954F925F926F9266
:104DE0007F928F929F92AF92BF92CF92DF92EF927B
:104DF000FF920F931F93CF93DF935B016C01E12C24
:104E00009AECF92E9AE9092F9BE3192F4424C0E06C
:104E1000D0E0C601B501A80197010E94CC2A922ECC
:104E2000222341F4442031F481E0E816F104010525
:104E3000110531F4892D805D0E9467264424439436
:104E4000C801B7012AE030E040E050E00E94CC2ADF
:104E5000822E732E642E552E2196CA30D105A9F0CC
:104E6000692D70E080E090E0A80197010E94862AF9
:104E7000A61AB70AC80AD90A282D372D462D552D4E
:104E8000C901DA017C018D01C4CFDF91CF911F915F
:104E90000F91FF90EF90DF90CF90BF90AF909F90D9
:104EA0008F907F906F905F904F900895CF93DF9396
:104EB000EC0103C021960E94672688818823D1F7E0
:104EC000DF91CF910895CF93DF93EC01FE012196FE
:104ED0008491882319F00E946726F8CFDF91CF9143
:104EE00008958091C00087FFFCCF8091C6008D306F
:104EF00009F48AE00895FB01DC018D910590801989
:104F00000110D9F3990B0895FB01DC014150504089
:104F100030F08D910590801919F40020B9F7881BA5
:104F2000990B0895FB01DC0102C001900D924150E4
:104F30005040D8F70895DC0101C06D9341505040B6
:104F4000E0F70895FC018191861721F08823D9F7B5
:104F5000992708953197CF010895FB01DC018D91C8
:104F6000019080190110D9F3990B0895FB01DC0120
:104F700001900D920020E1F70895FB01DC01415002
:104F8000504030F08D910190801919F40020B9F74C
:104F9000881B990B0895FB01DC014150504048F0FB
:104FA00001900D920020C9F701C01D924150504060
:104FB000E0F70895FC0181E090E00190061609F405
:104FC000CF010020D1F701970895AEE0B0E0EBEEFD
:104FD000F7E20C94FC2A0D891E8986E08C831A83E3
:104FE00009838FEF9FE79E838D839E01275E3F4F4E
:104FF000CE0101966F89788DA9010E9409282F8121
:105000003885020F131FF80110822E96E4E00C94ED
:10501000182BABE0B0E0EFE0F8E20C94EE2A3C0194
:105020002B015A01FC0117821682838181FD03C086
:105030006FEF7FEFC6C19AE0892E1E010894211CF4
:10504000311CF3012381F20123FD859123FF81911E
:105050002F01882309F4B2C1853239F423FD8591EB
:1050600023FF81912F01853229F490E0B3010E9442
:10507000FC29E7CF982FFF24EE249924FFE1FF15A8
:10508000D0F09B3269F09C3228F4903259F0933280
:1050900091F40EC09D3249F0903369F441E024C090
:1050A00052E0F52A84E0F82A28C098E0F92A25C0C1
:1050B000E0E1FE2A22C0F7FC29C0892F80538A3004
:1050C00070F4F6FE05C0989C902C1124980E15C023
:1050D000E89CE02C1124E80EF0E2FF2A0EC09E327C
:1050E00029F4F6FC6BC140E4F42A07C09C3619F49D
:1050F00050E8F52A02C0983649F4F20123FD959153
:1051000023FF91912F01992309F0B8CF892F85545E
:10511000833018F08052833038F444E050E0A40E1D
:10512000B51E5FE359830FC0933631F0933779F0A2
:10513000933509F056C020C0F5018081898342E093
:1051400050E0A40EB51E610101E010E012C0F501AF
:10515000C080D180F6FC03C06FEF7FEF02C0692DE5
:1051600070E042E050E0A40EB51EC6010E94F12995
:105170008C015FE7F52214C0F501C080D180F6FCF8
:1051800003C06FEF7FEF02C0692D70E042E050E096
:10519000A40EB51EC6010E94E6298C0150E8F52A2E
:1051A000F3FE07C01AC080E290E0B3010E94FC2920
:1051B000EA948E2D90E008171907A8F30EC0F601A7
:1051C000F7FC8591F7FE81916F0190E0B3010E9499
:1051D000FC29E110EA94015010400115110579F7FE
:1051E000EAC0943611F0993669F5F7FE08C0F5016A
:1051F000208131814281538184E090E00AC0F50131
:10520000808191819C01442737FD4095542F82E095
:1052100090E0A80EB91E9FE6F92257FF09C05095ED
:105220004095309521953F4F4F4F5F4FE0E8FE2A64
:10523000CA01B901A1012AE030E00E94282AD82E33
:10524000D21840C0953729F41F2D1F7E2AE030E088
:105250001DC01F2D197F9F3661F0903720F49835BF
:1052600009F0ACC00FC0903739F0983709F0A6C0EC
:1052700004C028E030E00AC0106114FD146020E191
:1052800030E004C014FD166020E132E017FF08C0D2
:10529000F501608171818281938144E050E008C012
:1052A000F50180819181BC0180E090E042E050E016
:1052B000A40EB51EA1010E94282AD82ED2188FE76D
:1052C000F82EF122F6FE0BC05EEFF522D91438F469
:1052D000F4FE07C0F2FC05C08FEEF82202C01D2DBF
:1052E00001C0192DF4FE0DC0FE01ED0DF11D8081F0
:1052F000803319F499EEF92208C01F5FF2FE05C051
:1053000003C08F2D867809F01F5F0F2DF3FC14C0AA
:10531000F0FE0FC01E1510F09D2C0BC09D2C9E0C96
:10532000911A1E2D06C080E290E0B3010E94FC2974
:105330001F5F1E15C0F304C01E1510F4E11A01C052
:10534000EE2404FF0FC080E390E0B3010E94FC292B
:1053500002FF1DC001FD03C088E790E00EC088E594
:1053600090E00BC0802F867891F001FF02C08BE2A5
:1053700001C080E2F7FC8DE290E0B3010E94FC29BD
:1053800006C080E390E0B3010E94FC299A94D914EE
:10539000C0F3DA94F101ED0DF11D808190E0B301CD
:1053A0000E94FC29DD20A9F706C080E290E0B3014D
:1053B0000E94FC29EA94EE20C1F743CEF3016681F6
:1053C0007781CB012B96E2E10C940A2BFC0105902E
:1053D000615070400110D8F7809590958E0F9F1FF7
:1053E0000895FC016150704001900110D8F780953C
:1053F00090958E0F9F1F08950F931F93CF93DF9368
:105400008C01EB018B8181FF1BC082FF0DC02E81BF
:105410003F818C819D812817390764F4E881F981E7
:105420000193F983E88306C0E885F985802F099503
:10543000892B31F48E819F8101969F838E8302C0D8
:105440000FEF1FEFC801DF91CF911F910F910895CA
:10545000FA01AA27283051F1203181F1E8946F93A5
:105460006E7F6E5F7F4F8F4F9F4FAF4FB1E03ED04B
:10547000B4E03CD0670F781F891F9A1FA11D680FE9
:10548000791F8A1F911DA11D6A0F711D811D911D1C
:10549000A11D20D009F468943F912AE0269F112491
:1054A0003019305D3193DEF6CF010895462F4770F5
:1054B000405D4193B3E00FD0C9F7F6CF462F4F7050
:1054C000405D4A3318F0495D31FD4052419302D0AE
:1054D000A9F7EACFB4E0A695979587957795679554
:1054E000BA95C9F700976105710508959B01AC0154
:1054F0000A2E06945795479537952795BA95C9F77B
:10550000620F731F841F951FA01D0895629FD00115
:10551000739FF001829FE00DF11D649FE00DF11D6E
:10552000929FF00D839FF00D749FF00D659FF00D1D
:105530009927729FB00DE11DF91F639FB00DE11D0A
:10554000F91FBD01CF0111240895AA1BBB1B51E116
:1055500007C0AA1FBB1FA617B70710F0A61BB70BE3
:10556000881F991F5A95A9F780959095BC01CD0188
:10557000089597FB092E07260AD077FD04D0E5DFB2
:1055800006D000201AF4709561957F4F0895F6F7C4
:10559000909581959F4F0895A1E21A2EAA1BBB1BDF
:1055A000FD010DC0AA1FBB1FEE1FFF1FA217B307EF
:1055B000E407F50720F0A21BB30BE40BF50B661F05
:1055C000771F881F991F1A9469F7609570958095C9
:1055D00090959B01AC01BD01CF0108952F923F92A0
:1055E0004F925F926F927F928F929F92AF92BF92F3
:1055F000CF92DF92EF92FF920F931F93CF93DF939F
:10560000CDB7DEB7CA1BDB0B0FB6F894DEBF0FBEFB
:10561000CDBF09942A88398848885F846E847D8448
:105620008C849B84AA84B984C884DF80EE80FD804A
:105630000C811B81AA81B981CE0FD11D0FB6F894C0
:0E564000DEBF0FBECDBFED010895F894FFCF81
:10564E002F002D310A004C4F47253035752E7478BA
:10565E0074005345514C4F472E7478740001030566
:0A566E0007090E10121416181C1E76
:00000001FF
