:100000000C943B050C9458050C9458050C94580519
:100010000C9458050C9458050C9458050C945805EC
:100020000C9458050C9458050C9458050C945805DC
:100030000C9458050C9458050C9458050C945805CC
:100040000C9458050C9458050C945A050C945805BA
:100050000C9458050C9458050C9458050C945805AC
:100060000C9458050C945805293A2000746F6F20A1
:100070006D616E7920617267756D656E74732800AD
:1000800045786974696E670A0035004E65772066A9
:10009000696C65206E756D6265722072657365743A
:1000A00020746F207A65726F0A003400436F6D6DA3
:1000B000616E642070726F6D70740A00330041705D
:1000C00070656E642066696C65206C6F6767696E29
:1000D000670A0032004E65772066696C65206C6F98
:1000E0006767696E670A00310035292045786974B1
:1000F0000A003429205265736574206E6577206686
:10010000696C65206E756D6265720A003329204343
:100110006F6D6D616E642070726F6D70740A003265
:100120002920417070656E642066696C65206C6F73
:100130006767696E670A003129204E657720666916
:100140006C65206C6F6767696E670A004368616E53
:10015000676520746F3A0A000A00436F6D6D616E27
:100160006400417070656E642066696C65004E6560
:10017000772066696C650043757272656E742062E3
:100180006F6F74206D6F64653A20000A5379737441
:10019000656D20436F6E66696775726174696F6E15
:1001A0000A000A45786974696E670A0035000A47D3
:1001B0006F696E6720746F20313135323030627074
:1001C000732E2E2E0A0034000A476F696E67207462
:1001D0006F2035373630306270732E2E2E0A003382
:1001E000000A476F696E6720746F203936303062BD
:1001F00070732E2E2E0A0032000A476F696E672038
:10020000746F20323430306270732E2E2E0A00311B
:1002100000352920457869740A00342920313135A8
:10022000323030206270730A00332920353736307F
:1002300030206270730A0032292039363030206253
:1002400070730A0031292032343030206270730A12
:10025000004368616E676520746F3A0A0030302091
:100260006270730A00313135320035373600393665
:100270000032340043757272656E743A20000A428F
:1002800061756420436F6E66696775726174696F2A
:100290006E3A0A00626175640909093A204D656E7B
:1002A0007520746F20636F6E666967757265206272
:1002B00061756420726174650A00736574090909C7
:1002C0003A204D656E7520746F20636F6E666967A6
:1002D0007572652073797374656D20626F6F742019
:1002E0006D6F64650A000A4D656E75733A0A007396
:1002F000796E630909093A20456E7375726573203A
:10030000616C6C20627566666572656420646174F8
:1003100061206973207772697474656E20746F2030
:1003200074686520636172640A00696E6974090902
:10033000093A205265696E697469616C697A6573FE
:1003400020616E642072656F70656E7320746865DD
:10035000206D656D6F727920636172640A00646953
:10036000736B0909093A2053686F777320636172D0
:1003700064206D616E7566616374757265722C20A0
:100380007374617475732C2066696C65737973740A
:10039000656D20636170616369747920616E6420AA
:1003A000667265652073746F726167652073706132
:1003B00063650A0073697A65203C66696C653E096D
:1003C000093A2057726974652073697A65206F66EF
:1003D0002066696C6520746F207465726D696E614A
:1003E0006C0A0072656164203C66696C653E203C65
:1003F00073746172743E203C6C656E6774683E096C
:10040000093A205772697465732041534349492062
:100410003C6C656E6774683E207061727473206F07
:1004200066203C66696C653E20746F2074686520A8
:100430007465726D696E616C207374617274696E3B
:1004400067206174203C73746172743E2E204F6D7E
:100450006D6974203C73746172743E20616E642017
:100460003C6C656E6774683E20746F2072656164D1
:100470002077686F6C652066696C650A006361743B
:10048000203C66696C653E09093A205772697465BB
:100490007320612068657864756D70206F66203CFC
:1004A00066696C653E20746F20746865207465729F
:1004B0006D696E616C0A006C730909093A20536812
:1004C0006F77732074686520636F6E74656E742037
:1004D0006F66207468652063757272656E7420643F
:1004E00069726563746F72792E2055736520776920
:1004F0006C646361726420746F20646F2061207784
:10050000696C6463617264206C697374696E6720DE
:100510006F662066696C657320696E206375727200
:10052000656E74206469726563746F72790A006322
:1005300064202E2E09093A204368616E6765732096
:10054000746F206C6F776572206469726563746F75
:10055000727920696E20747265650A006364203CBC
:100560006469726563746F72793E09093A20436861
:10057000616E6765732063757272656E7420776F44
:10058000726B696E67206469726563746F7279203B
:10059000746F203C6469726563746F72793E0A00FF
:1005A0006D64203C6469726563746F72793E093AC8
:1005B00020437265617465732061206469726563AC
:1005C000746F72792063616C6C6564203C6469723D
:1005D0006563746F72793E0A00726D203C66696CC7
:1005E000653E09093A2044656C65746573203C6674
:1005F000696C653E2E205573652077696C64636174
:10060000726420746F20646F20612077696C64636A
:100610006172642072656D6F76616C206F66206612
:10062000696C65730A007772697465203C66696C51
:10063000653E203C6F66667365743E093A205772CA
:1006400069746573207465787420746F203C6669E2
:100650006C653E2C207374617274696E67206672DB
:100660006F6D203C6F66667365743E2E205468651E
:1006700020746578742069732072656164206672E5
:100680006F6D2074686520554152542C206C696E42
:1006900065206279206C696E652E2046696E6973EB
:1006A00068207769746820616E20656D70747920A8
:1006B0006C696E650A00617070656E64203C6669E5
:1006C0006C653E09093A20417070656E6473207450
:1006D00065787420746F20656E64206F66203C66B8
:1006E000696C653E2E2054686520746578742069B5
:1006F0007320726561642066726F6D207468652076
:100700005541525420696E20612073747265616D89
:1007100020616E64206973206E6F74206563686F5A
:1007200065642E2046696E6973682062792073655E
:100730006E64696E67204374726C2B7A2028415373
:10074000434949203236290A006E6577203C6669A4
:100750006C653E09093A2043726561746573203CFB
:1007600066696C653E0A00417661696C61626C6520
:1007700020636F6D6D616E64733A0A000A4F706595
:100780006E4C6F672076312E340A007E00657272DF
:100790006F722077726974696E6720746F20666962
:1007A0006C650A006572726F722077726974696E87
:1007B0006720746F2066696C650A006572726F72DB
:1007C0002077726974696E6720746F2066696C6542
:1007D0000A006572726F722077726974696E6720A1
:1007E000746F2066696C650A006572726F7220779B
:1007F000726974696E6720746F2066696C650A009F
:100800006572726F722077726974696E6720746F97
:100810002066696C650A00216572726F72207365CB
:10082000656B696E67206F6E2000216572726F7252
:10083000206F70656E696E672000756E6B6E6F77E6
:100840006E20636F6D6D616E643A20006572726F29
:10085000722073796E63696E67206469736B0A0036
:1008600073796E63006572726F7220637265617472
:10087000696E67206469726563746F72793A2000EB
:100880006D6400617070656E64006572726F7220D5
:1008900077726974696E6720746F2066696C650A87
:1008A000006572726F72207365656B696E67206F89
:1008B0006E20006572726F72206F70656E696E6770
:1008C00020007772697465006572726F72206372BE
:1008D000656174696E672066696C653A20006E65B3
:1008E00077006572726F722064656C6574696E67FB
:1008F0002066696C653A2000726D0073697A650044
:100900006572726F722072656164696E67206469D6
:10091000736B20696E666F0A006469736B006572A1
:10092000726F72207365656B696E67206F6E200051
:100930006572726F72206F70656E696E67200072EB
:10094000656164006572726F72206F70656E696EAA
:10095000672000636174006C73006469726563747E
:100960006F7279206E6F7420666F756E643A200026
:1009700063640073657400626175640068656C701F
:10098000003F0046696C652073797374656D20695A
:100990006E697469616C697A65640A00436C6F738F
:1009A000696E6720646F776E2066696C6520737965
:1009B0007374656D0A00696E697400667265653AE4
:1009C00020202000666F726D61743A200077722ECD
:1009D00070722E3A2000636F70793A202020004D0B
:1009E000420A0073697A653A2020200064617465C8
:1009F0003A2020200073657269616C3A20307800DB
:100A00007265763A202020200070726F643A2020B0
:100A100020006F656D3A20202020006D616E7566A4
:100A20003A202030780021546F6F206D616E79205C
:100A30006C6F67733A32210021546F6F206D616EC5
:100A400079206C6F67733A3121004572726F7220A2
:100A50006372656174696E67205345514C4F470A54
:100A6000004372656174696E67205345514C4F476E
:100A70000A003200310011241FBECFEFD8E0DEBFE4
:100A8000CDBF11E0A0E0B1E0E6E7F7E502C00590D8
:100A90000D92AA32B107D9F717E0AAE2B1E001C07E
:100AA0001D92A33AB107E1F70E94AD110C94B92B46
:100AB0000C9400001F920F920FB60F9211242F93E7
:100AC0003F938F939F93EF93FF932091FE03309179
:100AD000FF038091C600F901EC5FFB4F80832F5F1D
:100AE0003F4F3093FF032093FE038BB190E28927A1
:100AF0008BB92458334021F41092FF031092FE0367
:100B0000FF91EF919F918F913F912F910F900FBE89
:100B10000F901F901895F999FECF92BD81BD60BDD1
:100B2000FA9AF99A0895F999FECF92BD81BDF89A83
:100B300080B508959C01220F331F81E006C085BB5C
:100B400016BCA89BFECF2050314091E021303907E0
:100B5000B0F781E085BB822F819586BDA89BFECF33
:100B60000895CF93DF93EC0105C088EE93E00E94D7
:100B70009A0521972097C9F7DF91CF9108950F9398
:100B80001F93CF93DF93C0E0D0E0082F10E00BC09D
:100B90005D9A84E690E00E94B1055D9884E690E05D
:100BA0000E94B1052196C017D10794F380ED97E01C
:100BB0000E94B105C0E0D0E0F6CFEAE2F1E020E02B
:100BC00080819181892B19F0828181112F5F339669
:100BD00081E0E633F807A1F7822F0895AC01EAE23D
:100BE000F1E020E080819181892B19F082818111CF
:100BF0002F5F339681E0E633F807A1F7243060F4E5
:100C0000822F90E0FC01EE0FFF1FE80FF91FE65D59
:100C1000FE4F5183408362830895AC0120E030E0B1
:100C200070E00DC0FA01E20FF31F808190E0C097E1
:100C30000A9718F040E050E005C02F5F3F4F26179D
:100C4000370784F3CA010895FC01DB0108C0891746
:100C500021F08F3311F080E00895319611969C9128
:100C60009923F1F080818A3291F71AC080818A320B
:100C700059F431968081882311F481E008959D0113
:100C80002F5F3F4FAF0110C0891711F08F3319F458
:100C90003196119609C0FA01D9012F5F3F4F04C068
:100CA00020E030E040E050E09C919923F9F601C04B
:100CB000319690819A32E1F380E0992309F481E042
:100CC00008958CE797E00E94F72787E697E00E9457
:100CD000F72789E497E00E94F72786EB96E00E94C9
:100CE000F72786E296E00E94F72789ED95E00E94BB
:100CF000F72780EA95E00E94F7278CE595E00E94AF
:100D0000F7278FE295E00E94F72787EB94E00E9497
:100D1000F7278DE794E00E94F72783EE93E00E9487
:100D2000F72784EB93E00E94F7278EE593E00E947B
:100D3000F7278AE293E00E94F7278FEE92E00E9465
:100D4000F72786EE92E00E94F7278AEB92E00E9456
:100D5000F72784E992E00E94F72708951F93CF9325
:100D6000DF93282FEB01EAE2F1E010E0808191812E
:100D7000892B19F0828181111F5F339681E0E63360
:100D8000F807A1F7211710F080E013C08CE690E07F
:100D90000E94F727812F90E00E94432788E690E089
:100DA0000E94F727CE010E94EA278AE00E94FB26D4
:100DB00081E0DF91CF911F910895CF93DF93EC01F4
:100DC0008CE0EAE2F1E0DF011D928A95E9F750E05C
:100DD00041E0A62FB0E039C0242F30E0FE01E20F41
:100DE000F31F8081803229F02F5F3F4F2A173B0786
:100DF00059F5842F90E001968A179B0709F4462F36
:100E0000EAE2F1E020E080819181892B19F0828172
:100E100081112F5F339681E0E633F807A1F7243084
:100E200088F4822F90E0FC01EE0FFF1FE80FF91FFE
:100E3000E65DFE4FCE01850F911D91838083842F47
:100E4000851B82834F5F542F4F5F461728F2EAE2DB
:100E5000F1E020E080819181892B19F0828181115C
:100E60002F5F3396A1E0E633FA07A1F7822FDF91D7
:100E7000CF910895982F89E1EAE8F7E0DF011D920C
:100E80008A95E9F79430E8F4892F90E0FC01EE0FA1
:100E9000FF1FE80FF91FE65DFE4F6081718161154C
:100EA000710579F04281442361F04A3118F049E13B
:100EB00050E001C050E08AE897E00E945F289C0162
:100EC00002C020E030E0C9010895AF92BF92CF92F6
:100ED000DF92EF92FF920F931F93CF93DF93EC017A
:100EE000B62E60E070E04B2D50E00E942F2800E00D
:100EF000EB2CFF240894E108F10850E2A52E29C04C
:100F00008BB18A258BB985B18A2585B90E940528C0
:100F1000182F883011F08F3789F40023D1F0015059
:100F2000FE01E00FF11D108288E00E94FB2680E2A6
:100F30000E94FB2688E00E94FB260BC00E94FB2635
:100F4000FE01EC0DFD1D1A3011F4108207C0108354
:100F50000F5FC02EDD24CE14DF0494F2CE016B2D82
:100F60000E94DD06802FDF91CF911F910F91FF909E
:100F7000EF90DF90CF90BF90AF900895FF920F93C6
:100F80001F93DF93CF9300D000D00F92CDB7DEB781
:100F9000F999FECF12BC82E081BDF89AF0B48E01BF
:100FA0000F5F1F4F8BE891E00E94F72787E791E0E2
:100FB0000E94F727FF2019F48EE691E00BC081E034
:100FC000F81619F482E691E005C082E0F81621F4E3
:100FD0008AE591E00E94F72788E591E00E94F727D3
:100FE0008CE491E00E94F72787E391E00E94F727C5
:100FF0008FE191E00E94F7278CE091E00E94F727B3
:1010000082EF90E00E94F72789EE90E00E94F72798
:101010008EE30E94FB26C80165E00E9465078823D5
:1010200009F2C80167EE70E00E940F28892B49F48D
:1010300085ED90E00E94F727F999FECF12BC82E07F
:101040003BC0C80163ED70E00E940F28892B59F462
:101050008EEB90E00E94F727F999FECF12BC82E058
:1010600081BD81E010C0C8016CEB70E00E940F28C8
:10107000892B59F48CEA90E00E94F727F999FECF6A
:1010800012BC82E081BD80BD19C0C8016AEA70E06F
:101090000E940F28892BA9F48BE890E00E94F72783
:1010A000F999FECF12BC83E081BD10BCFA9AF99A7F
:1010B000F999FECF12BC84E081BD10BCFA9AF99A6E
:1010C0000CC0C80169E870E00E940F28892B09F064
:1010D00069CF80E890E00E94F7270F900F900F9063
:1010E0000F900F90CF91DF911F910F91FF90089576
:1010F000FF920F931F93DF93CF9300D000D00F92F6
:10110000CDB7DEB7F999FECF12BC81E081BDF89A68
:10111000F0B48E010F5F1F4F8EE792E00E94F72719
:1011200084E792E00E94F727FF2019F481E792E01C
:1011300011C081E0F81619F48EE692E00BC082E04F
:10114000F81619F48AE692E005C083E0F81621F457
:1011500085E692E00E94F7278DE592E00E94F7274E
:1011600081E592E00E94F72784E492E00E94F7274D
:1011700087E392E00E94F72789E292E00E94F72736
:101180008AE192E00E94F72781E192E00E94F7272E
:101190008EE30E94FB26C80165E00E946507882354
:1011A00009F4BACFC8016FE072E00E940F28892BC2
:1011B00059F489EF91E00E94F727F999FECF12BC0C
:1011C00081E081BD10BC35C0C80167EF71E00E94AD
:1011D0000F28892B51F481EE91E00E94F727F999AD
:1011E000FECF12BC81E081BD23C0C8016FED71E06C
:1011F0000E940F28892B59F488EC91E00E94F72770
:10120000F999FECF12BC81E081BD82E011C0C80116
:1012100066EC71E00E940F28892B89F48EEA91E038
:101220000E94F727F999FECF12BC81E081BD83E0CF
:1012300080BDFA9AF99A85E00E94BF050CC0C801EA
:101240006CEA71E00E940F28892B09F065CF82EAD1
:1012500091E00E94F7270F900F900F900F900F9042
:10126000CF91DF911F910F91FF900895CF92DF9260
:10127000EF92FF920F931F93CF93DF93EC01162F02
:1012800060E070E0412F50E00E942F2800E0C12E66
:10129000DD240894C108D10823C00E940528182F16
:1012A000883011F08F3789F40023D1F00150FE010E
:1012B000E00FF11D108288E00E94FB2680E20E9470
:1012C000FB2688E00E94FB260BC00E94FB26FE0145
:1012D000EE0DFF1D1A3111F4108207C010830F5F4D
:1012E000E02EFF24EC14FD04C4F2802FDF91CF9197
:1012F0001F910F91FF90EF90DF90CF9008950F9383
:101300001F93DF93CF93CDB7DEB7AB970FB6F894AB
:10131000DEBF0FBECDBF0E945516882319F483E0AF
:101320000E94BF050E94601C87E295E165EE75E1B1
:1013300047E354E12EEE36E100E00E94D71190938E
:10134000030480930204892B79F487E295E165EE2A
:1013500075E147E354E12EEE36E10FEF0E94D7111D
:1013600090930304809302048091020490910304FB
:101370000E94BB1D9093FD038093FC0360E071E02D
:101380008E010F5F1F4FA8010E944C268091FC0325
:101390009091FD03B8010E94D9259093890780930D
:1013A0008807AB960FB6F894DEBF0FBECDBFCF91C6
:1013B000DF911F910F910895CF92DF92FF920F93CB
:1013C0001F93CF93DF936B01EA01F22E132F15C009
:1013D0008F2D912FBE010E944128009749F00130C6
:1013E00061F4CE016F2D712F0E942406813029F403
:1013F000C6010E942A1A81E007C0C6016F2D712F15
:101400000E94D01C882321F7DF91CF911F910F916B
:10141000FF90DF90CF900895CF92DF92EF92FF92EE
:101420000F93DF93CF93CDB7DEB7AB970FB6F8949A
:10143000DEBF0FBECDBF7C016E010894C11CD11C64
:10144000960100E00E94DC09882319F420E030E0D6
:1014500005C0C701B6010E9416269C01C901AB96C2
:101460000FB6F894DEBF0FBECDBFCF91DF910F91C5
:10147000FF90EF90DF90CF900895EF92FF920F933F
:101480001F93DF93CF9300D000D0CDB7DEB78C0190
:1014900060918807709189078091FC039091FD030A
:1014A000A8010E940C0A7C01009759F48AE298E096
:1014B0000E94F727C8010E94EA278AE00E94FB26C3
:1014C00019C019821A821B821C82BE016F5F7F4F76
:1014D00042E00E940024882379F487E198E00E948A
:1014E000F727C8010E94EA278AE00E94FB26C7016D
:1014F0000E94D41880E026C18CE30E94FB265D9AEE
:101500001092FF031092FE03109201041092000447
:1015100080E090E0FC01EC5FFB4F1082019623E03D
:1015200084389207B9F78091C10080688093C10028
:10153000789482C00F5F1F4F83E10938180708F4C1
:1015400076C04115510509F45EC021E0423C5207C6
:1015500009F459C081E0423C580778F4C70164E0BF
:1015600074E00E945C2420910004309101048217F1
:101570009307B9F080E098E012C0425C5140C70187
:1015800066EC75E00E945C24209100043091010417
:10159000225C31408217930721F089EE97E00E9488
:1015A000F727209100043091010481E0233C3807A3
:1015B00018F460E070E002C062EC71E0F894A09171
:1015C000FE03B091FF03AB0112C0F901EC5FFB4FCA
:1015D0008081FA01EC5FFB4F80832F5F3F4F83E0F8
:1015E0002438380710F020E030E04F5F5F4F2A17B3
:1015F0003B0759F75093FF034093FE037093010498
:101600006093000478940E940D1504C081E090E07E
:101610000E94B10520910004309101048091FE03E5
:101620009091FF032817390789F300E010E081E06B
:1016300090E00E94B10502C000E010E0409100047B
:10164000509101048091FE039091FF0348175907C0
:1016500009F470CFFA01EC5FFB4F80818A3139F4D5
:10166000F8948091C1008F778093C10030C0CA0187
:1016700001969093010480930004825C914069F488
:10168000C70164E074E042EC51E00E945C24825C9B
:10169000914019F082ED97E018C08091000490917C
:1016A00001048458934041F6109201041092000402
:1016B000C70166EC75E042EC51E00E945C24825C5C
:1016C000914009F4B9CF8BEB97E00E94F727409146
:1016D0000004509101044115510559F181E0423C4B
:1016E000580739F121E0423C520778F4C70164E021
:1016F00074E00E945C242091000430910104821760
:101700009307B9F084EA97E012C0425C5140C701E8
:1017100066EC75E00E945C24209100043091010485
:10172000225C31408217930721F08DE897E00E94F8
:10173000F727C7010E94D4185D988BE897E00E94B4
:10174000F72781E00F900F900F900F90CF91DF91CE
:101750001F910F91FF90EF9008952F923F924F921B
:101760005F926F927F928F929F92AF92BF92CF9231
:10177000DF92EF92FF920F931F93DF93CF93CDB73A
:10178000DEB7C956D0400FB6F894DEBF0FBECDBF4E
:101790000EE0602E712C6C0E7D1E12E6212E312C77
:1017A0002C0E3D1EB6E04B2E512C4C0E5D1E8EE3D2
:1017B0000E94FB26C30168E10E9465078823B9F3F4
:1017C00080E00E943A078C0166EB79E00E940F28C6
:1017D000892BA9F48CE999E00E94F7278091FC03FA
:1017E0009091FD030E944917809102049091030497
:1017F0000E94CF110E947F0983E899E02AC4C801A2
:1018000061E879E00E940F28892B39F0C8016CE764
:1018100079E00E940F28892B19F40E946106C7CF36
:10182000C80167E779E00E940F28892B19F40E940C
:101830007808BDCFC80163E779E00E940F28892BA3
:1018400019F40E94BE07B3CFC80160E779E042E017
:1018500050E00E941828892BE1F582E0B3010E9434
:10186000AE06882309F0A3CF81E00E943A077C01ED
:10187000009709F49CCF6091880770918907809147
:10188000FC039091FD03A7019E01215C3F4F00E006
:101890000E94DC098823B9F08091FC039091FD033C
:1018A000BE01615C7F4F0E94D9258C01009759F0E1
:1018B00080918807909189070E94241A10938907C4
:1018C0000093880774CF8AE599E00E94F727C70143
:1018D000C8C3C80167E579E00E940F28892B09F089
:1018E00048C081E00E943A076C01AFE3EA2EF12C78
:1018F000EC0EFD1EF4E2BF2E32C0C114D10431F053
:10190000C601B7010E942406882349F1D7010D9032
:101910000020E9F78D01015010400E191F09C70181
:101920000E94EA27A0968FADA09784FD02C080E2B6
:1019300001C08FE21B2D101B0E94FB2604C080E219
:101940000E94FB2611501123D1F7F10160817181B2
:10195000828193810E9481278AE00E94FB268091E8
:10196000880790918907B7010E94D01C882329F627
:101970001ECFC80163E579E043E050E00E941828DB
:10198000892B09F04DC082E0B3010E94AE06882386
:1019900009F00DCF81E00E943A078C01009709F40D
:1019A00006CF60918807709189078091FC03909120
:1019B000FD03A8010E940C0A5C01009721F0CC24D1
:1019C000DD24760122C084E499E048C3C701B60152
:1019D0000E9430278AE30E94FB26820180E20E9457
:1019E000FB26D8018D918D010E940A27802F841932
:1019F0008915A0F38AE00E94FB2688E090E0A0E031
:101A0000B0E0C80ED91EEA1EFB1EC501B20148E0B7
:101A100050E00E94DA18982E8823C1F6C5017DC0D7
:101A2000C8016FE379E044E050E00E941828892B58
:101A300009F0E2C081E00E943A078C01009709F4A6
:101A4000B6CE60918807709189078091FC039091D0
:101A5000FD03A8010E940C0A4C01009719F480E3D1
:101A600099E0FCC282E00E943A07AC01009709F4B9
:101A700057C0FC0101900020E9F73197E81B20E0F6
:101A800030E06E2F70E00BC0FA01E20FF31F80818F
:101A900090E0C0970A9708F043C02F5F3F4F26178A
:101AA000370794F38A0120E030E040E050E017C0AF
:101AB000CA01B9012AE030E040E050E00E941A2B50
:101AC0009B01AC018F2D90E0C097AA2797FDA095B0
:101AD000BA2F280F391F4A1F5B1F0F5F1F4FD801F6
:101AE000FC908F2D80538A3018F32A833B834C83DC
:101AF0005D83C401BE016E5F7F4F40E00E94002401
:101B0000882371F48EE199E00E94F727C3010E94B7
:101B1000EA278AE00E94FB26C4010E94D41847CE1F
:101B200083E00E943A07AC010097E1F1FC010190CB
:101B30000020E9F73197E81B20E030E06E2F70E0DD
:101B40000AC0FA01E20FF31F808190E0C0970A9764
:101B500048F52F5F3F4F261737079CF36A01EE24A5
:101B6000FF24870118C0C801B7012AE030E040E037
:101B700050E00E941A2B7B018C018B2D90E0C097C6
:101B8000AA2797FDA095BA2FE80EF91E0A1F1B1F62
:101B90000894C11CD11CF601B0808B2D80538A3073
:101BA00010F318C0EE24EA94FE2C870113C099812B
:101BB000892F80528F3510F4892F05C09A3011F487
:101BC0008AE001C08EE20E94FB260894E108F10839
:101BD00001091109C401BE016F5F7F4F41E050E070
:101BE0000E94DA18181619060CF093CFE114F104CC
:101BF00001051105E1F68DCFC80169E179E00E9488
:101C00000F28892B09F0A8C00091FC031091FD0357
:101C10000115110509F49DC0CE0186960E941A1384
:101C2000882309F496C08BE19AE00E94F7278EA1E1
:101C30000E940A278AE00E94FB2682E19AE00E9425
:101C4000F727CE0187960E94EA278AE00E94FB26AA
:101C500089E09AE00E94F727CE018A960E94EA273F
:101C60008AE00E94FB2680E09AE00E94F72788A97C
:101C70000E940A278AE00E94FB2685EF99E00E94D5
:101C8000F72769A97AA98BA99CA90E9430278AE025
:101C90000E94FB268CEE99E00E94F7278EA990E027
:101CA0000E9443278FE20E94FB268DA990E00E94AC
:101CB00043278AE00E94FB2683EE99E00E94F727E3
:101CC0006FA978AD89AD9AADE4E196958795779542
:101CD0006795EA95D1F70E9481278FED99E00E94E0
:101CE000F72786ED99E00E94F7278BAD90E00E94E0
:101CF00043278AE00E94FB268DEC99E00E94F7279B
:101D00008DAD90E00E9443278FE20E94FB268CADB0
:101D100090E00E9443278AE00E94FB2684EC99E031
:101D20000E94F7278EAD90E00E9443278AE00E9430
:101D3000FB268BEB99E00E94F727C8010E94AC1BA1
:101D40000E9481278FE20E94FB26C8010E948D1B02
:101D50002FC080E099E07DC1C8016BEF78E044E0DE
:101D600050E00E941828892B59F582E0B3010E94A7
:101D7000AE06882309F01BCD81E00E943A07AC0132
:101D8000009709F414CD60918807709189078091BC
:101D9000FC039091FD039E01215C3F4F00E00E94F7
:101DA000DC09882341F0D1016D917D918D919C9149
:101DB0000E94812758C182E091E00E94EA27F7CC77
:101DC000C80168EF78E042E050E00E941828892BB3
:101DD000B9F583E0B3010E94AE06882309F0E7CC91
:101DE00081E00E943A077C010097A9F4E0CC809141
:101DF000FC039091FD03B6010E940B1B882381F424
:101E000082EE98E00E94F727C3010E94EA278AE049
:101E10000E94FB2605C06FE3C62ED12CCC0EDD1E22
:101E200060918807709189078091FC039091FD0370
:101E3000A701960101E00E94DC098823C1F6B7CC16
:101E4000C8016EED78E043E050E00E941828892B2D
:101E500001F582E0B3010E94AE06882309F0A7CC09
:101E600081E00E943A07BC01009709F4A0CC809160
:101E7000880790918907AE01415C5F4F0E947B22E9
:101E8000882309F094CC88EC98E00E94F727C301DE
:101E9000E8C0C80162EC78E045E050E00E941828F4
:101EA000892B09F08FC081E00E943A075C010097FE
:101EB00009F47DCC82E00E943A078C010097C9F0BA
:101EC000FC0101900020E9F73197E81B20E030E0A9
:101ED0004E2F50E00BC0F801E20FF31F808190E01D
:101EE000C0970A9708F063CC2F5F3F4F2417350740
:101EF00094F360918807709189078091FC03909119
:101F0000FD03A5010E940C0A7C01009729F020E046
:101F100030E040E050E01DC083EB98E00E94F727DE
:101F2000C5019FC0CA01B9012AE030E040E050E09D
:101F30000E941A2B9B01AC018D2D90E0C097AA271F
:101F400097FDA095BA2F280F391F4A1F5B1F0F5FFF
:101F50001F4FF801D0808D2D80538A3018F32A83CB
:101F60003B834C835D83C701BE016E5F7F4F40E0C2
:101F70000E940024882359F481EA98E00E94F72700
:101F8000C5010E94EA278AE00E94FB2619C08CE363
:101F90000E94FB26C30168E10E946507182F882371
:101FA00079F0C701B301412F50E00E945C24212F3A
:101FB00030E08217930759F38AE898E00E94F727E8
:101FC000C701ABCDC80163E878E046E050E00E946D
:101FD0001828892B81F482E0B3010E94AE06882381
:101FE00009F0E5CB81E00E943A07009709F4DFCBC6
:101FF0000E943D0ADCCBC80160E878E042E050E096
:102000000E941828892BB9F481E00E943A078C01BC
:10201000009709F4CCCB8091880790918907B8018B
:10202000AE01415C5F4F0E94BC21882309F0BFCB09
:1020300085E698E013C0C80160E678E00E940F28AA
:10204000892B51F40E940D15882309F0B0CB8CE444
:1020500098E00E94F727ABCB8AE398E00E94F7272D
:10206000C8010E94EA278AE00E94FB26A0CB9F922B
:10207000AF92BF92CF92DF92EF92FF920F931F9396
:10208000DF93CF93CDB7DEB7AB970FB6F894DEBF33
:102090000FBECDBFF999FECF12BC83E081BDF89A87
:1020A00030B5F999FECF12BC84E081BDF89A20B515
:1020B0003F3FA9F42F3F99F4F999FECF12BC83E07A
:1020C00081BD10BCFA9AF99AF999FECF12BC84E04E
:1020D00081BD10BCFA9AF99ACC24DD240EC0922F4F
:1020E00080E0C32EDD24C82AD92A8EEFC8168FEFD0
:1020F000D80619F488E39AE04CC000D000D000D094
:10210000EDB7FEB731960AE817E0ADB7BEB7129645
:102110001C930E93119786E0E82E81E0F82EF3824F
:10212000E282D582C4820E9479288DB79EB7069636
:102130000FB6F8949EBF0FBE8DBF902E012F5E018B
:102140000894A11CB11C1E2DEF2C26C0690100D0E3
:1021500000D000D0EDB7FEB73196ADB7BEB711963F
:102160009C92119712960C931283E38235832483F9
:102170000E9479288DB79EB706960FB6F8949EBF39
:102180000FBE8DBF9EEFC9169FEFD90628F086E2DD
:102190009AE00E94F7272CC08091880790918907C8
:1021A0006AE877E0A5010E947B2296012F5F3F4FEE
:1021B000882361F2932FF999FECF12BC83E081BD91
:1021C00020BDFA9AF99AF999FECF12BC84E081BD3C
:1021D000F89A80B5891741F0F999FECF12BC84E0D6
:1021E00081BD90BDFA9AF99A8AE897E00E943D0A6B
:1021F000AB960FB6F894DEBF0FBECDBFCF91DF9187
:102200001F910F91FF90EF90DF90CF90BF90AF9014
:102210009F900895EF92FF920F931F93DF93CF93B8
:10222000CDB7DEB7E8970FB6F894DEBF0FBECDBFCF
:102230008E010F5F1F4FC80162E171E00E944A28C2
:1022400060918807709189078091FC039091FD034C
:10225000A8010E940C0A7C010097A9F481E69AE08B
:102260000E94F7278091880790918907B801AE01F5
:10227000425F5F4F0E947B22882329F48AE49AE020
:102280000E94F72707C0C7010E94D418CE0101960B
:102290000E943D0AE8960FB6F894DEBF0FBECDBF90
:1022A000CF91DF911F910F91FF90EF9008950F93C1
:1022B0001F9382E085BD559A259A509A589A48995D
:1022C0002CC0459A10E000E289E190E00E94B1053F
:1022D0008BB180278BB989E190E00E94B10585B16F
:1022E000802785B91F5F183279F7489916C0F99988
:1022F000FECF12BC81E081BD80BDFA9AF99A5D9A49
:102300002D9A10E284EF91E00E94B1058BB18127F4
:102310008BB985B1812785B9F5CFF999FECF12BC6C
:1023200081E081BDF89A80B5863040F0F999FECF02
:1023300012BC81E081BD80BDFA9AF99A0E94DD2627
:1023400084E79AE00E94F7270E947F0982E79AE0DB
:102350000E94F7271F910F9108950E945711F99934
:10236000FECF12BC82E081BDF89A80B5863048F07D
:10237000F999FECF12BC82E081BD10BCFA9AF99A9D
:1023800002C0882319F40E94371004C0813011F470
:102390000E940A110E94AD0B80E090E00895FC01BC
:1023A000009711F480E00895108681E008958F92DF
:1023B0009F92AF92BF92CF92DF92EF92FF920F93D4
:1023C000DF93CF93CDB7DEB760970FB6F894DEBF3B
:1023D0000FBECDBF7C016B015A014901009709F482
:1023E00093C06115710509F48FC004300CF08CC0E6
:1023F00007FD1DC0602F772767FD7095E4E0660F2D
:10240000771FEA95E1F762547E4F882777FD809524
:10241000982FAE014F5F5F4F20E130E0F701099543
:10242000882309F471C08D81882309F46DC08091DF
:102430003E01882309F068C07CC08D8180933E01F5
:102440002A8530E040E050E0542F432F322F2227DE
:102450008B8590E0A0E0B0E0DC0199278827282B4D
:10246000392B4A2B5B2B898590E0A0E0B0E0282B2C
:10247000392B4A2B5B2B8C8590E0A0E0B0E0B82F85
:10248000AA2799278827282B392B4A2B5B2B2093A7
:102490003F013093400140934101509342012E850A
:1024A00030E040E050E0542F432F322F22278F8519
:1024B00090E0A0E0B0E0DC0199278827282B392B99
:1024C0004A2B5B2B8D8590E0A0E0B0E0282B392BC8
:1024D0004A2B5B2B888990E0A0E0B0E0B82FAA27B8
:1024E00099278827282B392B4A2B5B2B20934301D4
:1024F00030934401409345015093460103C08FEF50
:1025000080933E019F0102C020E030E0C901609647
:102510000FB6F894DEBF0FBECDBFCF91DF910F9104
:10252000FF90EF90DF90CF90BF90AF909F908F90F3
:102530000895E6E3F1E081E1DF011D928A95E9F774
:10254000F0923701E0923601D0923901C092380101
:10255000B0923B01A0923A0190923D0180923C01E1
:1025600007FF6BCFCCCF81E0089580E00895282F3E
:102570008FEF8EBD0DB407FEFDCF8DB58F778DBD6E
:102580008EB5822F80648EBD0DB407FEFDCF8DB554
:102590008F778DBD872F9927AA27BB278EBD0DB4B6
:1025A00007FEFDCF8DB58F778DBDCB01AA27BB2749
:1025B0008EBD0DB407FEFDCF8DB58F778DBDBB27CA
:1025C000A72F962F852F8EBD0DB407FEFDCF8DB59D
:1025D0008F778DBD4EBD0DB407FEFDCF8DB58F77C6
:1025E0008DBD222319F0283069F406C085E98EBD1F
:1025F0000DB407FEFDCF0BC087E88EBD0DB407FEFE
:10260000FDCF05C08FEF8EBD0DB407FEFDCF8DB59C
:102610008F778DBD90E02FEF2EBD0DB407FEFDCF5F
:102620008DB58F778DBD8EB58F3F19F49F5F9A3032
:1026300099F70895CF92DF92EF92FF920F931F9335
:10264000CF93DF93EC01009781F089E1FE011192B5
:102650008A95E9F72A988AE040E050E060E070E06F
:102660000E94B712882319F02A9A80E0F7C09FEFE2
:102670009EBD0DB407FEFDCF8DB58F778DBD8EB598
:102680008E3FB1F71C2FCE01FC0160E670E00FEF2A
:102690009E2F911B0EBD0DB407FEFDCF8DB58F771C
:1026A0008DBD2EB5983028F4933088F4992359F0D5
:1026B0000CC09D3018F4993070F40BC09D3019F1A6
:1026C0009E3069F524C028832AC0208328C0218336
:1026D00026C02A8724C030E040E050E0062E04C027
:1026E000220F331F441F551F0A94D2F78B859C85F8
:1026F000AD85BE85822B932BA42BB52B8B879C8716
:10270000AD87BE870CC02295207F2F8708C0922FEF
:1027100092959F708F85892B8F872F70288B31968C
:10272000685070408FEF603D780709F0B1CF89E0C5
:1027300040E050E060E070E00E94B712882309F0AA
:1027400093CF9FEF9EBD0DB407FEFDCF8DB58F7764
:102750008DBD8EB58E3FB1F7F0E070E020E030E047
:1027600040E050E060E01FEFE1E01EBD0DB407FE69
:10277000FDCF8DB58F778DBD8EB56E3079F490E03D
:1027800086FDED8B85FDEE8B84FDEF8B8C7090705C
:102790009595879595958795888F5AC06730F9F0FC
:1027A000683030F4653061F0663009F051C00BC01C
:1027B0006930A1F1693010F16A3009F049C032C0C6
:1027C000F82FFF7045C090E0A0E0B0E083709070FB
:1027D000A070B0702227382F492F5A2F39C090E0AF
:1027E000A0E0B0E0282B392B4A2B5B2BA2E0220F74
:1027F000331F441F551FAA95D1F72AC0829586958D
:102800008695837090E0A0E0B0E0282B392B4A2B0E
:102810005B2B2F5F3F4F4F4F5F4F1AC0782F737066
:10282000770F16C0881F8827881F782B8F2F90E07E
:102830000296870F911D69017A0104C0CC0CDD1C42
:10284000EE1CFF1C8A95D2F7C98ADA8AEB8AFC8AC9
:102850006F5F623109F089CF2A9A81E0DF91CF91D1
:102860001F910F91FF90EF90DF90CF9008952F92DE
:102870003F924F925F926F927F928F929F92AF9210
:10288000BF92CF92DF92EF92FF920F931F93CF935D
:10289000DF934B015C012A01390133243A9422244D
:1028A0002394A1C0E401D170CE01A0E0B0E0850185
:1028B0007401E81AF90A0A0B1B0BC12CB2E0DB2EDB
:1028C000CC1ADD0A6C147D0408F46301809147037F
:1028D00090914803A0914903B0914A03E816F90684
:1028E0000A071B07F9F00E940D15882309F481C01F
:1028F000209729F480E0C81682E0D80658F4C80171
:10290000B70147E451E020E032E00E942715882318
:1029100009F46FC0E0924703F09248030093490323
:1029200010934A0387E4481681E0580671F09E012F
:10293000295B3E4FC901B201A6010E9426281092D0
:102940004B036C147D0409F452C02A9888E1B80145
:10295000A7010E94B712882311F02A9A4AC08EEF6D
:102960008EBD0DB407FEFDCF8DB58F778DBDE7E42D
:10297000F1E081918EBD0DB407FEFDCF8DB58F774F
:102980008DBD83E0E734F807A1F73EBC0DB407FE28
:10299000FDCF8DB58F778DBD3EBC0DB407FEFDCF4D
:1029A0008DB58F778DBD3EBC0DB407FEFDCF8DB5C7
:1029B0008F778DBD8EB58F3FB1F78EBD0DB407FEFD
:1029C000FDCF8DB58F778DBD8EB52A9A4C0C5D1CD1
:1029D000C601A0E0B0E0880E991EAA1EBB1E6C18AE
:1029E0007D0820924B036114710409F05BCF81E0F4
:1029F00001C080E0DF91CF911F910F91FF90EF9088
:102A0000DF90CF90BF90AF909F908F907F906F900E
:102A10005F904F903F902F90089580914B038823B3
:102A200011F081E00895609147037091480380910F
:102A3000490390914A0347E451E020E032E00E94CC
:102A40003714882319F081E080934B0308953F9257
:102A50004F925F926F927F928F929F92AF92BF92AE
:102A6000CF92DF92EF92FF920F931F93CF93DF935A
:102A70003B014C016A01290133243A948FC01FEFB6
:102A8000A12E11E0B12EA620B720C501A0E0B0E034
:102A900084017301E81AF90A0A0B1B0BC0E0D2E0AB
:102AA000CA19DB094C165D0608F4E2018091470360
:102AB00090914803A0914903B0914A03E816F906A2
:102AC0000A071B0709F457C00E940D15882309F453
:102AD0006AC02A9881E1B801A7010E94B712882331
:102AE00019F02A9A80E05FC03EBC0DB407FEFDCF0E
:102AF0008DB58F778DBD8EB58E3FB1F7E7E4F1E0F0
:102B00003EBC0DB407FEFDCF8DB58F778DBD8EB564
:102B1000808383E0E634F80711F03196F1CFE0923C
:102B20004703F09248030093490310934A03950129
:102B3000295B3E4FC601B901AE010E9426283EBC6A
:102B40000DB407FEFDCF8DB58F778DBD8EB53EBC24
:102B50000DB407FEFDCF8DB58F778DBD8EB52A9A4A
:102B60003EBC0DB407FEFDCFCC0EDD1E8DB58F77BC
:102B70008DBD8EB50AC09501295B3E4FC601B901D6
:102B8000AE010E942628CC0EDD1E4C1A5D0ACE0135
:102B9000A0E0B0E0680E791E8A1E9B1E411451040D
:102BA00009F06DCF81E0DF91CF911F910F91FF90E0
:102BB000EF90DF90CF90BF90AF909F908F907F90DD
:102BC0006F905F904F903F9008952F923F924F9259
:102BD0005F926F927F928F929F92AF92BF92CF92AD
:102BE000DF92EF92FF920F931F93DF93CF9300D06A
:102BF00000D0CDB7DEB74B015C013A013C832B839B
:102C00002701DA82C98241155105A9F12115310543
:102C100091F10217130778F1E114F10461F1190140
:102C20003094219431083394021B130B6901EE2474
:102C3000FF24C501B401A3012B813C810E9427150B
:102C40008823C9F0C301B501A40129813A81F201A9
:102C50000995882391F0020D131D8B819C81800FB3
:102C6000911F2B813C818217930738F08C0C9D1C9F
:102C7000AE1CBF1CDECF80E001C081E00F900F9042
:102C80000F900F90CF91DF911F910F91FF90EF90D8
:102C9000DF90CF90BF90AF909F908F907F906F907C
:102CA0005F904F903F902F9008950F931F93CF9375
:102CB000DF93239A259A229A24982A9A83E58CBD39
:102CC0008DB58E7F8DBD10924C0390E02FEF2EBD01
:102CD0000DB407FEFDCF8DB58F778DBD8EB59F5F8F
:102CE0009A30A9F72A98C0E0D0E080E040E050E0B8
:102CF00060E070E00E94B712182F813039F081E057
:102D0000CF3FD80709F440C02196EFCF87E340E0DA
:102D100050E060E070E00E94B71289E240E050E0CD
:102D200060E070E00E94B71282FD02C010934C0375
:102D300080914C03082F10E003701070C0E0D0E0C9
:102D40000115110549F087E340E050E060E070E0D4
:102D50000E94B71289E201C081E040E050E060E0EB
:102D600070E00E94B71280FF06C08FE7CF3FD80700
:102D700059F02196E5CF80E140E052E060E070E05C
:102D80000E94B712882319F02A9A80E022C02A9A5A
:102D90008CB58C7F8CBD8DB581608DBD8FEF9FEF25
:102DA000AFEFBFEF8093470390934803A09349038D
:102DB000B0934A0381E080934B0360E070E080E0D1
:102DC00090E047E451E020E032E00E9427158111B5
:102DD00081E0DF91CF911F910F9108954F925F9203
:102DE0006F927F928F929F92AF92BF92CF92DF921B
:102DF000EF92FF920F931F93CF93DF935B016C01D0
:102E00004A01E901380127014115510571F1011508
:102E1000110559F1FF242115310511F5FF24F39413
:102E20001FC0C401B601A5019201F30109958C01EF
:102E30000097E9F0FF2019F4C817D907B0F0C601D0
:102E4000B501A40198010E943714882371F0C801CC
:102E5000A0E0B0E0A80EB91ECA1EDB1EC01BD10B3D
:102E6000FF20F9F62097E9F602C080E001C081E07A
:102E7000DF91CF911F910F91FF90EF90DF90CF9056
:102E8000BF90AF909F908F907F906F905F904F908A
:102E90000895FC01009711F0118210820895DF93CC
:102EA000CF9300D0CDB7DEB7DC01009791F162304F
:102EB000710578F180E090E0660F771F881F991FF9
:102EC000ED91FC91119716962D913D914D915C914C
:102ED0001997620F731F841F951F0190F081E02DD9
:102EE000AE014F5F5F4F22E030E00995882389F003
:102EF00029813A812115310571F08FEF273F38077D
:102F000041F0C9014096079720F08FEF283F38071E
:102F100010F020E030E0C9010F900F90CF91DF91C9
:102F200008954F925F926F927F928F929F92AF928D
:102F3000BF92CF92DF92EF92FF920F931F93DF9396
:102F4000CF9300D0CDB7DEB75C01009709F449C03C
:102F50006230710508F445C0DC0116966D907D90D5
:102F60008D909C9019972E010894411C511C660F5E
:102F7000771F7B0100E010E0E60CF71C081D191D0F
:102F8000D501ED91FC910190F081E02DC801B701D0
:102F9000A20122E030E00995882319F1C980DA8086
:102FA000C114D10401F1C60140960897D0F0B8EFE2
:102FB000CB16BFEFDB0610F0CC24DD241A82198279
:102FC000D501ED91FC910480F581E02DC801B70198
:102FD000A20122E030E00995B601C114D10439F60E
:102FE00002C080E001C081E00F900F90CF91DF918F
:102FF0001F910F91FF90EF90DF90CF90BF90AF9017
:103000009F908F907F906F905F904F9008952F9238
:103010003F924F925F926F927F928F929F92AF9268
:10302000BF92CF92DF92EF92FF920F931F93DF93A5
:10303000CF93CDB7DEB72A970FB6F894DEBF0FBE99
:10304000CDBF3C012B01009709F48FC0DC01ED914D
:10305000FC911197208131813A872987248035801E
:1030600016968D919D910D90BC91A02D8D839E8380
:10307000AF83B887F30182859385A485B585B6951E
:10308000A795979587959C838B834A01CC24DD2453
:1030900062E0A62EB12C41C0C501880F991F7C01AA
:1030A00000E010E02D813E814F815885E20EF31E35
:1030B000041F151FC801B701AE014F5F5F4F22E02B
:1030C00030E0A985BA85FD010995882309F44DC032
:1030D00089819A81892BF1F4C114D10429F4EFEF8D
:1030E000FFEFFA83E98302C0DA82C982C801B7011F
:1030F000AE014F5F5F4F22E030E0F1010995882378
:1031000091F00894810891088114910411F46501EB
:103110000CC065010894A11CB11C2B813C81A21636
:10312000B30608F4B9CF8928E1F432E0431651041C
:10313000F0F0DA82C982440C551CB20180E090E0C4
:103140002D813E814F815885620F731F841F951F0B
:10315000AE014F5F5F4F22E030E0F1010995882317
:1031600031F4C301B6010E949117CC24DD24C601BD
:103170002A960FB6F894DEBF0FBECDBFCF91DF9178
:103180001F910F91FF90EF90DF90CF90BF90AF9085
:103190009F908F907F906F905F904F903F902F9077
:1031A000089580E190E00895FC01009711F01182EC
:1031B000108208952F923F924F925F926F927F926A
:1031C0008F929F92AF92BF92CF92DF92EF92FF9237
:1031D0000F931F93DF93CF93CDB7DEB72A970FB628
:1031E000F894DEBF0FBECDBF2C017A8369835C8368
:1031F0004B83009709F409C1672B09F406C1452BDD
:1032000009F403C1DC019D96AD90BD90CD90DC909A
:10321000D09795962D913D914D915C919897EB812A
:10322000FC81CF01A0E0B0E08A0D9B1DAC1DBD1D4F
:10323000281739074A075B0740F4B9016A197B0967
:103240007C836B83672B09F4E3C0D201ED91FC9181
:10325000119720883188D196ED91FC91D297FA8709
:10326000E987EF2BF1F593962D913C9194973A874E
:103270002987232B39F4A114B104C104D10409F422
:10328000C7C0C3C0A114B104C104D10451F1860167
:10329000750131018824992466277727CB016619A7
:1032A0007709880999096D837E838F83988714C075
:1032B000D2018D919C9169857A850E944F179A87DA
:1032C0008987892B09F4A1C06D817E818F819885C2
:1032D000E60EF71E081F191FE614F7040805190566
:1032E00038F7089421083108A220B3200894211C43
:1032F000311CCB80DC80D201ED90FC90E114F10414
:1033000009F1E985FA85E230F105E0F03297BF0175
:1033100080E090E03296FA87E987D70150962D91A8
:103320003C91519740E050E00E941A2B9B01AC0168
:10333000F70182899389A489B589280F391F4A1F0B
:103340005B1F04C020E030E040E050E081010A193A
:103350001B09C016D10608F48601D701ED91FC9136
:10336000C501A0E0B0E0280F391F4A1F5B1F019084
:10337000F081E02DCA01B90149815A81980109956E
:10338000882341F1C01AD10AC801A0E0B0E0F201DF
:1033900025A536A547A550A9280F391F4A1F5B1F31
:1033A000D2019D962D933D934D935C93D097C80188
:1033B0008A0D9B1D82159305A0F08D919C916985C6
:1033C0007A850E944F179A878987892B41F4F201E9
:1033D00012AA11AA4B815C814C195D091BC0AA2459
:1033E000BB24E985FA85D201D296FC93EE93D1975E
:1033F000C114D10439F029813A81200F311F3A8359
:10340000298379CF4B815C8105C04FEF5FEF02C00C
:1034100040E050E0CA012A960FB6F894DEBF0FBE16
:10342000CDBFCF91DF911F910F91FF90EF90DF9073
:10343000CF90BF90AF909F908F907F906F905F9054
:103440004F903F902F900895FC01009711F011824A
:1034500010820895FC01009711F480E0089583A183
:1034600094A196A785A710AA17A681E00895CF92E8
:10347000DF92EF92FF920F931F93CF93DF938C0114
:103480006A017B01A901D901CD91DC9111971296B6
:103490008D919C911397809613969C938E9312977F
:1034A000F8018081853E09F4AAC0882309F4A7C0E9
:1034B0008FA198A5A9A5BAA50097A105B10521F4EA
:1034C000CFA2D8A6E9A6FAA6209709F49AC00115BA
:1034D000110509F496C0D8019C91992309F491C073
:1034E0001B968C918F3029F5892F90E08F73907007
:1034F0002DE030E0829FA001839F500D929F500DE0
:1035000011244D505040ADE1B1E0C40FD51F0DC0A6
:103510008D91F801E80FF11D808189934F5F5F4F16
:10352000E1E0AA32BE0709F46AC04F31510580F3C9
:1035300066C08881882309F04EC0B801DE01780199
:1035400020E0F70190819032A1F09C93F8018485EE
:1035500083FF08C0F7018081813420F08B3510F49F
:10356000905E9C932F5F0894E11CF11C119628300B
:1035700041F78881853011F485EE8883D80118964B
:103580008C91803221F1FE01E20FF11D8EE28083E9
:10359000322F3F5F2C5FFB0190859032B9F0FE0126
:1035A000E30FF11D9083D8011C968C9184FF09C014
:1035B000DB0118968C91813420F08B3510F4905EED
:1035C00090833F5F6F5F7F4F321729F7232FFE01F4
:1035D000E20FF11D1082F801838588A3828D938DFF
:1035E0009AA389A3848D958DA68DB78D8BA39CA35B
:1035F000ADA3BEA381E0DA0114968C9302C081E0F2
:1036000001C080E0DF91CF911F910F91FF90EF906B
:10361000DF90CF9008957F928F929F92AF92BF924A
:10362000CF92DF92EF92FF920F931F93DF93CF938E
:10363000CDB7DEB72C970FB6F894DEBF0FBECDBF67
:103640006C015B01009709F453C06115710509F421
:103650004FC0DB019796ED90FD900D911C919A97CC
:10366000E114F1040105110509F442C04E0108946A
:10367000811C911CE5EE7E2ED601ED91FC9101900E
:10368000F081E02DC801B701A4012CE030E00995DC
:10369000882371F17982D601ED91FC910480F58146
:1036A000E02DC801B701A4012CE030E00995882382
:1036B000F9F08C858F3049F480E290E0A0E0B0E032
:1036C000E80EF91E0A1F1B1FD7CFD50191966D91E9
:1036D0007C9192976115710539F0C6010E9491178E
:1036E00020E030E0882311F021E030E0822F01C09B
:1036F00080E02C960FB6F894DEBF0FBECDBFCF9101
:10370000DF911F910F91FF90EF90DF90CF90BF90CE
:10371000AF909F908F907F900895FC01009729F4BF
:1037200020E030E040E050E014C06285738584857D
:1037300095859695879577956795625070408040FE
:1037400090402089318940E050E00E941A2B9B0173
:10375000AC01B901CA0108952F923F924F925F9236
:103760006F927F928F929F92AF92BF92CF92DF9291
:10377000EF92FF920F931F93DF93CF93CDB7DEB7F6
:10378000A6970FB6F894DEBF0FBECDBF9EA38DA344
:10379000892B09F45DC01A82198280E290E09C8333
:1037A0008B83ADA1BEA116964D905D906D907C90DF
:1037B00019971A968D909D90AD90BC901D9734C02E
:1037C000BEEF8B16BFEF9B06B0E0AB06B0E0BB06CA
:1037D00028F01EEF212E1FEF312E01C01401ADA1E4
:1037E000BEA1ED91FC910280F381E02DC301B201F5
:1037F000AE014B5F5F4F20E230E08101B7E4EB2E7A
:10380000BCE1FB2E6E010894C11CD11C09958823D4
:10381000F9F0C101A0E0B0E0480E591E6A1E7B1EFF
:10382000881A990AAA0ABB0A81149104A104B10456
:1038300039F6EDA1FEA16089718980E090E02981CF
:103840003A8140E050E00E941A2B9B01AC0104C079
:1038500020E030E040E050E0B901CA01A6960FB682
:10386000F894DEBF0FBECDBFCF91DF911F910F91B6
:10387000FF90EF90DF90CF90BF90AF909F908F9090
:103880007F906F905F904F903F902F900895DC0154
:10389000F9014281538120E030E00DC08D919C916F
:1038A0001197892B29F480819181019691838083DE
:1038B0002E5F3F4F12962417350780F381E008955D
:1038C0008AE1EDE4F3E0DF011D928A95E9F783E3F5
:1038D000E7E6F3E0DF011D928A95E9F782E6EAE97F
:1038E000F3E0DF011D928A95E9F70895CF92DF9208
:1038F000EF92FF920F931F93DF93CF93CDB7DEB775
:1039000060970FB6F894DEBF0FBECDBF8C0162305A
:10391000710510F480E035C0009729F440E050E0D4
:1039200060E070E016C06250704080E090E0F80106
:103930002089318940E050E00E941A2BAB01BC0184
:10394000F80182899389A489B589480F591F6A1F94
:103950007B1FDE01119680E1FD0111928A95E9F746
:10396000F8018081918120893189FC01C680D7804E
:10397000CB01BA01AD0101ED18E1EE24FF24F601FF
:10398000099560960FB6F894DEBF0FBECDBFCF91FC
:10399000DF911F910F91FF90EF90DF90CF900895EE
:1039A0002F923F924F925F926F927F928F929F924F
:1039B000AF92BF92CF92DF92EF92FF920F931F933D
:1039C000DF93CF93CDB7DEB7A7970FB6F894DEBFDE
:1039D0000FBECDBF2C017FA36EA3009709F4B1C029
:1039E0006115710509F4ADC0DC018D909C901197B3
:1039F000F401208831889D96AD90BC909E979F964B
:103A00006D907C90D0978BE2DB011D928A95E9F74F
:103A1000FE01319685E0DF011D928A95E9F7A11438
:103A2000B10409F076C0F401228833888689978929
:103A3000281A390A6EC0730100E010E0A114B10425
:103A400041F4D40156966D917D918D919C91599739
:103A50002DC08114910421F1B2E0AB16B10400F144
:103A6000EEEFFFEFAE0EBF1EB50180E090E022E06A
:103A700030E0A20EB31ED40150962D913C91519787
:103A800040E050E00E941A2B9B01AC01F4018289B6
:103A90009389A489B589280F391F4A1F5B1F04C069
:103AA00020E030E040E050E0CA01B9016E0D7F1D1A
:103AB000801F911F1C821B82D401ED91FC9181011A
:103AC000061917090280F381E02DAE014A5F5F4FAE
:103AD00020E230E0A7E3EA2EAAE1FA2E6E01089474
:103AE000C11CD11C0995882361F18B819C81680ED2
:103AF000791E6214730488F0C401B5010E944F1747
:103B00005C0166247724009741F4F201A3A0B4A0DD
:103B100008C02EA13FA13A8329838D81882309F40F
:103B20008ACFD2019E96BC92AE929D97D0967C92FF
:103B30006E929F97EEA1FFA18081882319F081E00A
:103B400001C080E0A7960FB6F894DEBF0FBECDBFD0
:103B5000CF91DF911F910F91FF90EF90DF90CF9069
:103B6000BF90AF909F908F907F906F905F904F909D
:103B70003F902F9008952F923F924F925F926F92B5
:103B80007F928F929F92AF92BF92CF92DF92EF92ED
:103B9000FF920F931F93DF93CF93CDB7DEB7A89714
:103BA0000FB6F894DEBF0FBECDBF98A78FA30097C6
:103BB00009F45CC1DC0114968D919C911597892BB9
:103BC00009F454C116968D919C911797892B09F48D
:103BD0004DC168C1EDE4F3E08AE1DF011D928A95F1
:103BE000E9F7EFA1F8A5F0934E03E0934D0321848C
:103BF00032844384548459E0220C331C441C551CE9
:103C00005A95D1F7C201B101655F7F4F8F4F9F4F2A
:103C10000190F081E02DAE014F5F5F4F29E130E070
:103C20000995882309F445C1E981FA81FBA3EAA338
:103C30002C813D81FB81FCA34E818F8198859EA3C1
:103C40008DA3E985FA856C857D856E887F88888C53
:103C5000998C611471048104910431F4309709F452
:103C600028C13F01882499246115710509F421C1F7
:103C7000C901A0E0B0E08E8F9F8FA8A3B9A380E018
:103C800090E0242F30E040E050E00E941A2B6A8F31
:103C90007B8F8C8F9D8F840173012E8D3F8D48A16A
:103CA00059A1E21AF30A040B150BE61AF70A080BDE
:103CB000190B8AA19BA101972DA13EA145E0220FDE
:103CC000331F4A95E1F7820F931F6AA17BA10E94DF
:103CD000392B80E090E0E61AF70A080B190B8CA14B
:103CE000282F30E040E050E0C801B7010E94602B6F
:103CF00079018A0195EFE9169FE0F90690E009073E
:103D000090E0190708F4D5C0A5EFEA16AFEFFA0660
:103D1000A0E00A07A0E01A0728F486E0EFA1F8A5C2
:103D2000808705C08BE0AFA1B8A518968C9388E179
:103D3000EFE4F3E0DF011D928A95E9F7EAA1FBA128
:103D40005F01CC24DD24C401B301A60195010E94CA
:103D50001A2B60934F0370935003809351039093F9
:103D60005203C601B5012E8D3F8D48A159A10E9475
:103D70001A2B260E371E481E591E209253033092CE
:103D800054034092550350925603AFA1B8A518961C
:103D90008C91863029F064E070E080E090E004C00F
:103DA00062E070E080E090E022E030E040E050E04F
:103DB000E20EF31E041F151FA80197010E941A2B83
:103DC00060935703709358038093590390935A0359
:103DD0004AA15BA150935C0340935B035CA1852FD8
:103DE00090E0DC01EAA1FBA1AE9FC001AF9F900D66
:103DF000BE9F900D112490935E0380935D036A8DA6
:103E00007B8D8C8D9D8DA60195010E941A2B209192
:103E10005303309154034091550350915603620F60
:103E2000731F841F951F60936303709364038093D3
:103E3000650390936603ADA1BEA19D0140E050E0F3
:103E4000B5E0220F331F441F551FBA95D1F7620FFB
:103E5000731F841F951F60935F03709360038093AB
:103E60006103909362032DE433E002C020E030E070
:103E7000C901A8960FB6F894DEBF0FBECDBFCF9193
:103E8000DF911F910F91FF90EF90DF90CF90BF9047
:103E9000AF909F908F907F906F905F904F903F90EA
:103EA0002F90089580914D0390914E03892BF1F648
:103EB00091CE10924E0310924D03D8CF2F923F9285
:103EC0004F925F926F927F928F929F92AF92BF922A
:103ED000CF92DF92EF92FF920F931F93DF93CF93D6
:103EE00000D00F92CDB7DEB71C019B01009709F4FB
:103EF000D2C04115510509F4CEC0FA01019000204D
:103F0000E9F7E41BF50BCF010B966DE070E00E9422
:103F1000392B862F8F5F8B83D90193964D905C90C0
:103F200094974114510451F0AA24BB246501EE2456
:103F3000FF2487016624772443010BC0F101E68842
:103F4000F788008D118D6288738884889588570161
:103F500068011A82E614F7040805190509F06EC015
:103F60004114510409F497C0E114F104010511054D
:103F700089F1C101B2010E944F17009751F5C101AB
:103F8000B20141E050E00E9407188C01009709F44B
:103F900082C002501040B80180E090E00E5F1F4FD9
:103FA000D10150962D913C91519740E050E00E94F4
:103FB0001A2B5B016C01F10182899389A489B5896F
:103FC000A80EB91ECA1EDB1EC101B8010E94761CD4
:103FD00065C02C01F2E04F16510420F4EE24FF24BA
:103FE00087011DC02EEF3FEF420E531EB20180E04D
:103FF00090E0A2E0B0E04A0E5B1EF1012089318919
:1040000040E050E00E941A2B7B018C01F101828973
:104010009389A489B589E80EF91E0A1F1B1FD101D7
:1040200050968D919C9151973C01882499246E0C57
:104030007F1C801E911E570168011A82D101ED91EB
:10404000FC910190F081E02DC801B701AE014F5FF6
:104050005F4F21E030E009958823E9F08981853EB2
:1040600011F0882379F4BA81BF5FBA83EB81BE1760
:10407000A8F480E290E0A0E0B0E0E80EF91E0A1F8C
:104080001B1F68CF80E290E0A0E0B0E0E80EF91ED0
:104090000A1F1B1F5CCFAA24BB246501B501C60102
:1040A0000F900F900F90CF91DF911F910F91FF9084
:1040B000EF90DF90CF90BF90AF909F908F907F90C8
:1040C0006F905F904F903F902F9008953F924F9246
:1040D0005F926F927F928F929F92AF92BF92CF9298
:1040E000DF92EF92FF920F931F93DF93CF93CDB7A1
:1040F000DEB7A0970FB6F894DEBF0FBECDBFFC01B0
:104100008B01009709F41FC16115710509F41BC1EA
:104110000190F081E02D44805580DB019796AD90B1
:10412000BD90CD90DC909A97E62E912EFB010190E8
:104130000020E9F73197FE2EF61A8F2D90E00C96AD
:104140006DE070E00E944D2B762ECE01019660E26C
:1041500070E04BE050E00E942F28C8016EE270E052
:104160000E946E28FC010097E1F09C012F5F3F4FF9
:1041700081818823B1F0D9010D900020E9F71197D2
:10418000A21BB30B8A2F8095F80EBE01675F7F4F8D
:104190004A2FA43008F043E0CB01B90150E00E945F
:1041A0002628CE010196B8E0BF1588F06E2D792D36
:1041B0004F2D50E00E942628F80180818E3231F583
:1041C00081818E3209F482818823F9F01FC0DC01DD
:1041D0008E2D992D9C01F90188E001900D9281505E
:1041E000E1F7D80191968C91982F92959F70803A23
:1041F00010F4905D01C09F598F708A3010F4805D7B
:1042000001C08F599F83888701C077248981853EAB
:1042100011F485E08983FCE08F2E912C8C0E9D1E7D
:1042200085E1F40111928A95E9F7D80190968C9175
:1042300090978C8791968D919C9192979C8F8B8F64
:1042400093968D919D910D90BC91A02D8D8F9E8FF9
:10425000AF8FB8A3672D70E0E5E0660F771FEA9592
:10426000E1F780E090E06A0D7B1D8C1D9D1DAE0185
:104270004F5F5F4F20E230E0F2010995882309F497
:1042800062C0E980FE01329694018E2D8695E794F6
:10429000EE24E794E82A8191E80EE217F307A9F7E4
:1042A000F72C4E010894811C911C7DE0372E6FE0A5
:1042B000662E44C0C4016FEF70E040E250E00E94FF
:1042C0002F28F39CD00111241D97A00FB11F91E05E
:1042D000F401E90FF11D8C918083892F8F5FF40128
:1042E000E80FF11D10829E5F9B3019F09A3121F486
:1042F00002C09EE001C09CE18C91882321F09F3197
:1043000010F41196E5CFF982F71419F48F2D80641B
:1043100089836C86EE861D861B8E1C8EC601B501B8
:10432000A40120E230E0F201099580E290E0A0E0F3
:10433000B0E0A80EB91ECA1EDB1EFA94FF2009F0D9
:10434000B9CF81E001C080E0A0960FB6F894DEBF3F
:104350000FBECDBFCF91DF911F910F91FF90EF90D6
:10436000DF90CF90BF90AF909F908F907F906F9095
:104370005F904F903F9008957F928F929F92AF925F
:10438000BF92CF92DF92EF92FF920F931F93CF9342
:10439000DF936C015B01EA01009709F49DC0611590
:1043A000710509F499C0FB018081882309F494C048
:1043B0004115510581F490C0C501682D772D0E94EB
:1043C0004128009751F4F60183A194A196A785A7EF
:1043D00010AA17A681C0842E7D2EC601BE010E94A0
:1043E000D01C882349F7F601E080F180C70160E026
:1043F00070E041E050E00E9407188C01009709F43A
:104400006BC0C701B8010E94761C8BE2FE011192BD
:104410008A95E9F780E188A302501040B80180E056
:1044200090E00E5F1F4FF7012089318940E050E096
:104430000E941A2BF7012289338944895589260F56
:10444000371F481F591F2FA338A749A75AA7AEE205
:104450009A2E98821AA309A3C701BE010E94662062
:104460008823B1F18FA198A5A9A5BAA58096A11D11
:10447000B11D8FA398A7A9A7BAA79982F60183A116
:1044800094A19AA389A3C701BE010E946620882334
:10449000F9F0882D972DB5014FE150E00E945F287B
:1044A0001AA309A3C701B601AE010E945E1F6FA344
:1044B00078A789A79AA7611571058105910541F033
:1044C000C701BE010E946620882311F081E005C06B
:1044D000C701B8010E94911780E0DF91CF911F9131
:1044E0000F91FF90EF90DF90CF90BF90AF909F9093
:1044F0008F907F900895AF92BF92CF92DF92EF920C
:10450000FF920F931F93CF93DF938C017B01EA01FE
:10451000009709F448C06115710509F444C0FB0116
:104520008081882309F43FC041155105E1F1B42E83
:10453000AD2EC801BE010E94D01C882379F0C701AE
:104540006B2D7A2D0E944128009799F7F80183A1DD
:1045500094A196A785A710AA17A625C0F801C08028
:10456000D1808BE2FE0111928A95E9F78B2D9A2D6D
:10457000B7014FE150E00E945F28C601B801AE01CB
:104580000E945E1F6FA378A789A79AA7611571057E
:104590008105910541F0C601BE010E946620882375
:1045A00019F081E001C080E0DF91CF911F910F9160
:1045B000FF90EF90DF90CF90BF90AF9008954F9213
:1045C0005F926F927F928F929F92AF92BF92CF92A3
:1045D000DF92EF92FF920F931F93DF93CF93CDB7AC
:1045E000DEB72A970FB6F894DEBF0FBECDBF2C0101
:1045F0005A016B01009709F4E5C0DC0193960D9117
:104600001C919497ED91FC91208931890115110538
:1046100099F0AB82BC82CD82DE8239018824992454
:1046200022273327A90126193709480959092F8359
:10463000388749875A8720C04115510561057105A2
:1046400009F4A9C0E6CFD2018D919C91B8010E94D6
:104650004F170097D9F0EB80FC800D811E812F81D0
:10466000388549855A85E20EF31E041F151FEB821B
:10467000FC820D831E838C018B819C81AD81BE8168
:10468000681679068A069B06F0F2B4C078016B8141
:104690007C818D819E81660D771D881D991D6150DD
:1046A000704080409040A40193010E94602BD20191
:1046B0008D919C91B801A9010E940718009709F4F7
:1046C00081C0012B21F4F20194A383A37C01D201C8
:1046D0009596AD92BD92CD92DC929897A114B104BB
:1046E000C104D10421F494961C921E929397F20176
:1046F00081919191BF010E946620882309F462C0D4
:10470000A114B104C104D10429F4F2018081918182
:10471000B7013FC00B811C812D813E81601671065F
:1047200082069306C0F1D2010D911C91011511056D
:1047300091F1B2E0EB16F10470F1C801B7010E94EB
:104740004F174C018FEF9FEF9A838983D801ED912A
:10475000FC911197EE0CFF1CB70180E090E01696DB
:104760002D913D914D915C911997620F731F841F9C
:10477000951F0480F581E02DAE014F5F5F4F22E071
:1047800030E00995882339F08114910421F0C801A3
:10479000B4010E949117F20185A596A5A7A5B0A91D
:1047A000A816B906CA06DB0658F4D2019D96AD924A
:1047B000BD92CD92DC92D097D2961C921E92D19748
:1047C00081E001C080E02A960FB6F894DEBF0FBEEC
:1047D000CDBFCF91DF911F910F91FF90EF90DF90B0
:1047E000CF90BF90AF909F908F907F906F905F9091
:1047F0004F90089578010115110509F448CF67CF4E
:10480000CF92DF92EF92FF920F931F93CF93DF939C
:10481000EC016B01009709F445C06115710509F4BD
:1048200041C08DA59EA5AFA5B8A9413059F0413032
:1048300018F04230B9F50CC0FB01E080F180028134
:10484000138113C0FB01E080F1800281138109C054
:10485000FB01E080F180028113818DA19EA1AFA1B7
:10486000B8A5E80EF91E0A1F1B1F8DA19EA1AFA1BE
:10487000B8A58E159F05A007B10738F4CE01B80181
:10488000A7010E94DF22882369F0EDA6FEA60FA7EC
:1048900018AB1AAA19AAF601E082F18202831383E7
:1048A00081E001C080E0DF91CF911F910F91FF90D7
:1048B000EF90DF90CF9008952F923F924F925F92AA
:1048C0006F927F928F929F92AF92BF92CF92DF9220
:1048D000EF92FF920F931F93DF93CF9300D000D0FE
:1048E00000D0CDB7DEB79E838D837A8369835C83E6
:1048F0004B83009709F441C1672B09F43EC1452B56
:1049000009F43BC1DC019D968D909D90AD90BC90CB
:10491000D097FC0185A196A1A7A1B0A588159905FE
:10492000AA05BB0508F429C10190F081E02D20887B
:104930003188AD81BE81D1960D911C91D297011520
:10494000110509F055C093960D911C91949701158E
:104950001105A9F481149104A104B10409F00DC159
:10496000CF0160E070E041E050E00E9407188C0148
:10497000ED81FE8194A383A3009709F4FEC0AD816D
:10498000BE819D96CD90DD90ED90FC90D097C114A6
:10499000D104E104F10421F52BC0C418D508E608C0
:1049A000F708ED81FE8180819181B8010E944F1747
:1049B000009711F08C0117C0C114D104E104F10477
:1049C00009F0DBC0AD81BE818D919C91B80141E0C1
:1049D00050E00E940718009709F4CFC08C0103C073
:1049E000210166247724C414D504E604F704A8F64C
:1049F000089421083108822093200894211C311C3E
:104A0000AB80BC80ED81FE81C080D180C114D10417
:104A1000F9F002301105E0F002501040B80180E0DA
:104A200090E00E5F1F4FD60150962D913C9151970B
:104A300040E050E00E941A2B9B01AC01F6018289F4
:104A40009389A489B589280F391F4A1F5B1F04C0A9
:104A500020E030E040E050E07101E818F908AE14C1
:104A6000BF0408F47501D601ED91FC91C401A0E0EA
:104A7000B0E0280F391F4A1F5B1F0480F581E02D2D
:104A8000CA01B90149815A8197010995882309F41E
:104A900048C0AE18BF08C701A0E0B0E0ED81FE81BC
:104AA00025A536A547A550A9280F391F4A1F5B1F0A
:104AB00025A736A747A750ABC701880D991D8215BA
:104AC000930508F180819181B8010E944F170097EA
:104AD00011F08C0116C0A114B10459F0ED81FE81D2
:104AE00080819181B80141E050E00E940718009751
:104AF00039F4AD81BE81D2961C921E92D19711C01D
:104B00008C0188249924ED81FE8112AB01ABA114A4
:104B1000B10439F089819A818E0D9F1D9A83898312
:104B200071CFED81FE8185A596A5A7A5B0A9E5A0C9
:104B3000F6A007A110A5E816F9060A071B07C0F49E
:104B400085A396A3A7A3B0A781919191BF010E94CD
:104B50006620882369F4AD81BE819D96AD90BC909E
:104B60009E97AE18BF08FD01E5A6F6A607A710ABF5
:104B70004B815C814A195B0902C04FEF5FEFCA01AC
:104B800026960FB6F894DEBF0FBECDBFCF91DF9152
:104B90001F910F91FF90EF90DF90CF90BF90AF905B
:104BA0009F908F907F906F905F904F903F902F904D
:104BB0000895CF93DF93AC01DB01009789F1611574
:104BC000710571F190968C91909784FF29C0809126
:104BD0009A0390919B03892B19F4EAE9F3E008C04A
:104BE0008091CB039091CC03892BD1F4EBECF3E0D3
:104BF0009F012E5F3F4FBD018BE2EB010990BE018B
:104C0000E90109929E018150C1F751834083919639
:104C10008D919C91929796A785A710AA17A602C07E
:104C2000E0E0F0E0CF01DF91CF910895CF93DF93E3
:104C30009C01FB01009731F06115710519F080A10D
:104C400084FF23C020E030E0C901DF91CF910895B7
:104C5000C9E6D3E0DF018BE20D9009928150E1F7C4
:104C60003093680320936703109294031092950386
:104C7000109296031092970381A192A190939903A9
:104C80008093980327E633E0DFCF8091670390910C
:104C90006803892BB9F6DCCF6F927F928F929F9237
:104CA000AF92BF92CF92DF92EF92FF920F931F933A
:104CB000CF93DF934C01EB017A01009709F467C0B1
:104CC0006115710509F463C08881882309F45FC008
:104CD0004115510509F45BC08F3209F421968BE22E
:104CE000F70111928A95E9F780E1F70180A3370176
:104CF00001C0E5018881882309F44BC0C401B701D4
:104D00000E94D9256C01009709F441C0CE016FE2E1
:104D100070E00E943628009739F0482F4C1B5C0148
:104D20000894A11CB11C2AC0FE0101900020E9F7E3
:104D300031974E2F4C1B5E01A40EB11C1FC0F30116
:104D400001900020E9F73197E619F709E017F1071C
:104D5000B9F4CE01B301A8010E945128009781F453
:104D6000F601118210820C0F1D1FF801808188232B
:104D700081F0F70180A184FDBCCF09C0042F10E0B1
:104D8000C601B7010E94D01C8823C9F612C080E07A
:104D900001C081E0DF91CF911F910F91FF90EF90C3
:104DA000DF90CF90BF90AF909F908F907F906F904B
:104DB0000895F601118210829DCF882319F420E412
:104DC00033E00EC0813051F0823019F422E230E03D
:104DD00007C0833019F420E130E002C02FEC30E04E
:104DE00082E08093C0002093C4003093C50088E126
:104DF0008093C10008951F93182F8A3019F48DE015
:104E00000E94FB268091C00085FFFCCF1093C60056
:104E10001F9108951F93182F82958F708A3010F478
:104E2000805D01C0895A0E94FB26812F90E08F701F
:104E30009070212F2F700A971CF4822F805D02C082
:104E4000822F895A0E94FB261F9108951F93182FC5
:104E5000892F0E940A27812F0E940A271F910895F7
:104E6000EF92FF920F931F937B018C01C801AA2739
:104E7000BB270E942627C7010E9426271F910F915A
:104E8000FF90EF900895CF92DF92FF920F931F93C0
:104E9000CF93DF936C01C0E1D7E240E000E010E087
:104EA000C601BE010E94392BF62E662329F4442345
:104EB00019F4C130D10529F48F2D805D0E94FB26A5
:104EC00041E0CE016AE070E00E94392B0F5F1F4F76
:104ED0000530110571F08F2D90E09C012C9FC001D1
:104EE0002D9F900D3C9F900D1124C81AD90AEB01FB
:104EF000D7CFDF91CF911F910F91FF90DF90CF908F
:104F000008954F925F926F927F928F929F92AF928D
:104F1000BF92CF92DF92EF92FF920F931F93CF93A6
:104F2000DF935B016C01E12C9AECF92E9AE9092FD1
:104F30009BE3192F4424C0E0D0E0C601B501A801CD
:104F400097010E94602B922E222341F4442031F4D9
:104F500081E0E816F1040105110531F4892D805D29
:104F60000E94FB2644244394C801B7012AE030E0A4
:104F700040E050E00E94602B822E732E642E552E4E
:104F80002196CA30D105A9F0692D70E080E090E04B
:104F9000A80197010E941A2BA61AB70AC80AD90AB3
:104FA000282D372D462D552DC901DA017C018D01A3
:104FB000C4CFDF91CF911F910F91FF90EF90DF90C1
:104FC000CF90BF90AF909F908F907F906F905F90A9
:104FD0004F900895CF93DF93EC0103C021960E9478
:104FE000FB2688818823D1F7DF91CF910895CF9355
:104FF000DF93EC01FE0121968491882319F00E9431
:10500000FB26F8CFDF91CF9108958091C00087FFF4
:10501000FCCF8091C6008D3009F48AE00895FB0131
:10502000DC018D91059080190110D9F3990B089539
:10503000FB01DC014150504030F08D91059080190A
:1050400019F40020B9F7881B990B0895FB01DC01C6
:1050500002C001900D9241505040D8F70895DC01F4
:1050600001C06D9341505040E0F70895FC018191DB
:10507000861721F08823D9F7992708953197CF0112
:105080000895FB01DC018D91019080190110D9F385
:10509000990B0895FB01DC0101900D920020E1F7CE
:1050A0000895FB01DC014150504030F08D9101909A
:1050B000801919F40020B9F7881B990B0895FB019A
:1050C000DC014150504048F001900D920020C9F79A
:1050D00001C01D9241505040E0F70895FC0181E06D
:1050E00090E00190061609F4CF010020D1F7019756
:1050F0000895AEE0B0E0EFE7F8E20C94902B0D8954
:105100001E8986E08C831A8309838FEF9FE79E8335
:105110008D839E01275E3F4FCE0101966F89788D6A
:10512000A9010E949D282F813885020F131FF801C5
:1051300010822E96E4E00C94AC2BABE0B0E0E3EAF6
:10514000F8E20C94822B3C012B015A01FC011782DE
:105150001682838181FD03C06FEF7FEFC6C19AE0A5
:10516000892E1E010894211C311CF3012381F201B8
:1051700023FD859123FF81912F01882309F4B2C17A
:10518000853239F423FD859123FF81912F018532EA
:1051900029F490E0B3010E94902AE7CF982FFF24D2
:1051A000EE249924FFE1FF15D0F09B3269F09C3288
:1051B00028F4903259F0933291F40EC09D3249F0A8
:1051C000903369F441E024C052E0F52A84E0F82AE3
:1051D00028C098E0F92A25C0E0E1FE2A22C0F7FCA9
:1051E00029C0892F80538A3070F4F6FE05C0989C40
:1051F000902C1124980E15C0E89CE02C1124E80E88
:10520000F0E2FF2A0EC09E3229F4F6FC6BC140E4A6
:10521000F42A07C09C3619F450E8F52A02C09836E3
:1052200049F4F20123FD959123FF91912F019923D8
:1052300009F0B8CF892F8554833018F0805283301D
:1052400038F444E050E0A40EB51E5FE359830FC06C
:10525000933631F0933779F0933509F056C020C07A
:10526000F5018081898342E050E0A40EB51E610102
:1052700001E010E012C0F501C080D180F6FC03C04F
:105280006FEF7FEF02C0692D70E042E050E0A40EA6
:10529000B51EC6010E94852A8C015FE7F52214C065
:1052A000F501C080D180F6FC03C06FEF7FEF02C034
:1052B000692D70E042E050E0A40EB51EC6010E94C8
:1052C0007A2A8C0150E8F52AF3FE07C01AC080E262
:1052D00090E0B3010E94902AEA948E2D90E0081786
:1052E0001907A8F30EC0F601F7FC8591F7FE81912E
:1052F0006F0190E0B3010E94902AE110EA940150FE
:1053000010400115110579F7EAC0943611F099366D
:1053100069F5F7FE08C0F501208131814281538192
:1053200084E090E00AC0F501808191819C014427CE
:1053300037FD4095542F82E090E0A80EB91E9FE6FD
:10534000F92257FF09C050954095309521953F4F60
:105350004F4F5F4FE0E8FE2ACA01B901A1012AE0E0
:1053600030E00E94BC2AD82ED21840C0953729F4CC
:105370001F2D1F7E2AE030E01DC01F2D197F9F3694
:1053800061F0903720F4983509F0ACC00FC0903729
:1053900039F0983709F0A6C004C028E030E00AC010
:1053A000106114FD146020E130E004C014FD1660AB
:1053B00020E132E017FF08C0F50160817181828130
:1053C000938144E050E008C0F50180819181BC01E7
:1053D00080E090E042E050E0A40EB51EA1010E94E2
:1053E000BC2AD82ED2188FE7F82EF122F6FE0BC079
:1053F0005EEFF522D91438F4F4FE07C0F2FC05C0C4
:105400008FEEF82202C01D2D01C0192DF4FE0DC033
:10541000FE01ED0DF11D8081803319F499EEF92222
:1054200008C01F5FF2FE05C003C08F2D867809F00B
:105430001F5F0F2DF3FC14C0F0FE0FC01E1510F0FF
:105440009D2C0BC09D2C9E0C911A1E2D06C080E237
:1054500090E0B3010E94902A1F5F1E15C0F304C0A4
:105460001E1510F4E11A01C0EE2404FF0FC080E302
:1054700090E0B3010E94902A02FF1DC001FD03C00D
:1054800088E790E00EC088E590E00BC0802F86781A
:1054900091F001FF02C08BE201C080E2F7FC8DE2D7
:1054A00090E0B3010E94902A06C080E390E0B3012F
:1054B0000E94902A9A94D914C0F3DA94F101ED0D68
:1054C000F11D808190E0B3010E94902ADD20A9F7B0
:1054D00006C080E290E0B3010E94902AEA94EE2098
:1054E000C1F743CEF30166817781CB012B96E2E1D0
:1054F0000C949E2BFC010590615070400110D8F770
:10550000809590958E0F9F1F0895FC01615070400B
:1055100001900110D8F7809590958E0F9F1F0895E8
:105520000F931F93CF93DF938C01EB018B8181FF4E
:105530001BC082FF0DC02E813F818C819D81281769
:10554000390764F4E881F9810193F983E88306C09F
:10555000E885F985802F0995892B31F48E819F810B
:1055600001969F838E8302C00FEF1FEFC801DF916A
:10557000CF911F910F910895FA01AA27283051F178
:10558000203181F1E8946F936E7F6E5F7F4F8F4F74
:105590009F4FAF4FB1E03ED0B4E03CD0670F781FD3
:1055A000891F9A1FA11D680F791F8A1F911DA11DB8
:1055B0006A0F711D811D911DA11D20D009F46894F1
:1055C0003F912AE0269F11243019305D3193DEF699
:1055D000CF010895462F4770405D4193B3E00FD04F
:1055E000C9F7F6CF462F4F70405D4A3318F0495D3A
:1055F00031FD4052419302D0A9F7EACFB4E0A6951D
:105600009795879577956795BA95C9F7009761053E
:10561000710508959B01AC010A2E06945795479594
:1056200037952795BA95C9F7620F731F841F951F89
:10563000A01D0895629FD001739FF001829FE00D2D
:10564000F11D649FE00DF11D929FF00D839FF00D01
:10565000749FF00D659FF00D9927729FB00DE11DAD
:10566000F91F639FB00DE11DF91FBD01CF0111248A
:105670000895AA1BBB1B51E107C0AA1FBB1FA61799
:10568000B70710F0A61BB70B881F991F5A95A9F7EB
:1056900080959095BC01CD01089597FB092E0726B2
:1056A0000AD077FD04D0E5DF06D000201AF470950B
:1056B00061957F4F0895F6F7909581959F4F0895D6
:1056C000A1E21A2EAA1BBB1BFD010DC0AA1FBB1F06
:1056D000EE1FFF1FA217B307E407F50720F0A21B78
:1056E000B30BE40BF50B661F771F881F991F1A94E5
:1056F00069F760957095809590959B01AC01BD010F
:10570000CF0108952F923F924F925F926F927F92B6
:105710008F929F92AF92BF92CF92DF92EF92FF92C1
:105720000F931F93CF93DF93CDB7DEB7CA1BDB0B6D
:105730000FB6F894DEBF0FBECDBF09942A88398812
:1057400048885F846E847D848C849B84AA84B98419
:10575000C884DF80EE80FD800C811B81AA81B98125
:10576000CE0FD11D0FB6F894DEBF0FBECDBFED0139
:065770000895F894FFCF3C
:105776002F002D310A004C4F47253035752E747891
:1057860074005345514C4F472E747874000103053D
:0A57960007090E10121416181C1E4D
:00000001FF
