:100000000C9440060C9468060C9468060C946806E0
:100010000C9468060C9468060C9468060C946806A8
:100020000C9468060C9468060C9468060C94680698
:100030000C9468060C9468060C9468060C94680688
:100040000C94C0320C9468060C9499090C946806C0
:100050000C9468060C9468060C9468060C94680668
:100060000C9468060C94680652656D6F7665206680
:1000700061696C65643A20006F70656E526F6F74D1
:1000800000766F6C756D652E696E697400636172C0
:10009000642E696E6974006572726F72207772697E
:1000A00074696E6720746F2066696C6500437265C1
:1000B00061746520636F6E666967206661696C654F
:1000C000640052656D6F766520636F6E66696720A8
:1000D0006661696C6564006F70656E526F6F740065
:1000E0006F70656E526F6F740045786974696E67E2
:1000F0000078000A0D4E756D626572206F6620658E
:1001000073636170652063686172616374657273A3
:10011000206E65656465643A20000A0D456E74655D
:1001200072206E756D626572206F66206573636103
:100130007065206368617261637465727320746FA7
:10014000206C6F6F6B20666F7220283120746F20D7
:1001500039293A200036000A0D4E65772065736311
:10016000617065206368617261637465723A200032
:10017000456E7465722061206E65772065736361DA
:100180007065206368617261637465723A2000353E
:10019000004E65772066696C65206E756D626572CC
:1001A00020726573657420746F207A65726F0034F5
:1001B00000436F6D6D616E642070726F6D707400BE
:1001C0003300417070656E642066696C65206C6FE9
:1001D0006767696E670032004E65772066696C65F7
:1001E000206C6F6767696E67003100782920457859
:1001F0006974003629204E756D626572206F662025
:1002000065736361706520636861726163746572B0
:1002100073003529204E6577206573636170652012
:10022000636861726163746572003429205265737A
:100230006574206E65772066696C65206E756D62E9
:10024000657200332920436F6D6D616E642070729A
:100250006F6D707400322920417070656E64206685
:10026000696C65206C6F6767696E67003129204E85
:1002700065772066696C65206C6F6767696E6700DB
:100280004368616E676520746F3A002078200043F0
:10029000757272656E742065736361706520636842
:1002A0006172616374657220616E6420616D6F7547
:1002B0006E743A2000436F6D6D616E640041707022
:1002C000656E642066696C65004E65772066696CB2
:1002D000650043757272656E7420626F6F74206D75
:1002E0006F64653A20000D0A53797374656D20437D
:1002F0006F6E66696775726174696F6E00457869C3
:1003000074696E67007800476F696E6720746F20AC
:100310003131353230306270732E2E2E0037004767
:100320006F696E6720746F203537363030627073B6
:100330002E2E2E003600476F696E6720746F2033B3
:10034000383430306270732E2E2E003500476F69BE
:100350006E6720746F2031393230306270732E2E08
:100360002E003400476F696E6720746F2039363075
:10037000306270732E2E2E003300476F696E672037
:10038000746F20343830306270732E2E2E0032009D
:10039000476F696E6720746F20323430306270733B
:1003A0002E2E2E00310078292045786974003729D7
:1003B00020313135323030206270730036292035DB
:1003C00037363030206270730035292033383430AE
:1003D000302062707300342920313932303020628D
:1003E0007073003329203936303020627073003248
:1003F00029203438303020627073003129203234A3
:10040000303020627073004368616E676520746FDE
:100410003A003030206270730031313532003537A8
:100420003600333834003139320039360032340086
:1004300034380043757272656E743A20000A0D42BA
:1004400061756420436F6E66696775726174696F68
:100450006E3A00626175640909093A204D656E754E
:1004600020746F20636F6E666967757265206261C4
:1004700075642072617465007365740909093A2016
:100480004D656E7520746F20636F6E666967757257
:10049000652073797374656D206D6F6465000A0D56
:1004A0004D656E75733A0073796E630909093A20D8
:1004B000456E737572657320616C6C20627566663B
:1004C0006572656420646174612069732077726964
:1004D0007474656E20746F20746865206361726443
:1004E00000696E69740909093A205265696E697478
:1004F00069616C697A657320616E642072656F70E2
:10050000656E7320746865206D656D6F7279206308
:10051000617264006469736B0909093A2053686F5A
:1005200077732063617264206D616E7566616374B8
:10053000757265722C207374617475732C206669F2
:100540006C6573797374656D206361706163697440
:100550007920616E6420667265652073746F7261C4
:1005600067652073706163650073697A65203C6616
:10057000696C653E09093A20577269746520736990
:100580007A65206F662066696C6520746F207465DB
:10059000726D696E616C0072656164203C66696CA5
:1005A000653E203C73746172743E203C6C656E67DE
:1005B00074683E203C747970653E09093A20577290
:1005C00069746573204153434949203C6C656E67EB
:1005D00074683E207061727473206F66203C666997
:1005E0006C653E20746F20746865207465726D6957
:1005F0006E616C207374617274696E67206174201F
:100600003C73746172743E2E204F6D6974203C738C
:10061000746172743E20616E64203C6C656E677418
:10062000683E20746F20726561642077686F6C6526
:100630002066696C652E203C747970653E203120FF
:100640007072696E747320696E2041534349492C5E
:10065000203220696E204845582E006C7309090924
:100660003A2053686F77732074686520636F6E74E7
:10067000656E74206F66207468652063757272659C
:100680006E74206469726563746F72792E2055737D
:10069000652077696C646361726420746F20646F95
:1006A00020612077696C6463617264206C69737483
:1006B000696E67206F662066696C657320696E20BD
:1006C00063757272656E74206469726563746F72AB
:1006D00079006364202E2E09093A204368616E6711
:1006E000657320746F206C6F776572206469726522
:1006F00063746F727920696E20747265650063643B
:10070000203C6469726563746F72793E09093A200E
:100710004368616E6765732063757272656E7420DD
:10072000776F726B696E67206469726563746F724C
:100730007920746F203C6469726563746F72793ECE
:10074000006D64203C6469726563746F72793E0960
:100750003A20437265617465732061206469726533
:1007600063746F72792063616C6C6564203C6469AA
:10077000726563746F72793E00726D203C66696CBD
:10078000653E09093A2044656C65746573203C66D2
:10079000696C653E2E205573652077696C646361D2
:1007A000726420746F20646F20612077696C6463C9
:1007B0006172642072656D6F76616C206F66206671
:1007C000696C6573007772697465203C66696C6555
:1007D0003E203C6F66667365743E093A2057726925
:1007E000746573207465787420746F203C66696C3E
:1007F000653E2C207374617274696E672066726F37
:100800006D203C6F66667365743E2E2054686520CB
:100810007465787420697320726561642066726FF4
:100820006D2074686520554152542C206C696E65AA
:10083000206279206C696E652E2046696E69736846
:10084000207769746820616E20656D707479206C02
:10085000696E6500617070656E64203C66696C65E8
:100860003E09093A20417070656E647320746578A2
:100870007420746F20656E64206F66203C66696C1E
:10088000653E2E2054686520746578742069732055
:10089000726561642066726F6D20746865205541D1
:1008A000525420696E20612073747265616D2061FD
:1008B0006E64206973206E6F74206563686F656471
:1008C0002E2046696E6973682062792073656E64B4
:1008D000696E67204374726C2B7A20284153434918
:1008E0004920323629006E6577203C66696C653E8A
:1008F00009093A2043726561746573203C66696C2E
:10090000653E00417661696C61626C6520636F6D64
:100910006D616E64733A004F70656E4C6F67207640
:10092000322E343100756E6B6E6F776E20636F6D93
:100930006D616E643A20006566696E666F00636F74
:10094000756E747C006566636F756E74006F6666A5
:10095000006F6E0065656D006F6666006F6E0076F5
:100960006572626F7365006F6666006F6E00656327
:10097000686F0070776400617070656E6400457226
:10098000726F72206372656174696E672066696C4C
:10099000653A20006E65770073796E6300204B42E4
:1009A00000436172642053697A653A200072656180
:1009B00064435344206661696C6564004D616E75E3
:1009C000666163747572696E6720646174653A204C
:1009D0000053657269616C206E756D6265723A20B4
:1009E000000A0D56657273696F6E3A200050726F7F
:1009F000647563743A20004F454D2049443A200005
:100A00004D616E7566616374757265722049443A12
:100A1000200072656164434944206661696C6564C5
:100A200000556E6B6E6F776E00534448430053441D
:100A30003200534431000A43617264207479706556
:100A40003A20006469736B002D310073697A650088
:100A50006572726F722077726974696E6720746F45
:100A60002066696C650A0D004572726F72207365AD
:100A7000656B696E6720746F20004661696C656400
:100A800020746F206F70656E2066696C652000773A
:100A900072697465004572726F72207365656B6967
:100AA0006E6720746F20004661696C656420746F06
:100AB000206F70656E2066696C65200072656164E8
:100AC000006364002D726600726D006572726F7251
:100AD000206372656174696E67206469726563740E
:100AE0006F72793A20006D6400566F6C756D6520E9
:100AF000697320464154006C730073657400626131
:100B000075640068656C70003F0046696C65207311
:100B1000797374656D20696E697469616C697A6551
:100B200064006F70656E526F6F7400436C6F736911
:100B30006E6720646F776E2066696C6520737973C9
:100B400074656D00696E6974006469726563746FC1
:100B50007279206E6F7420666F756E643A20006340
:100B6000616E6E6F7420636420746F2070617265B3
:100B70006E74206469726563746F72793A20006FD5
:100B800070656E526F6F74002E2E007E006F706560
:100B90006E31004572726F72206372656174696EA6
:100BA00067205345514C4F470A0021546F6F206D09
:100BB000616E79206C6F67733A32210021546F6F38
:100BC000206D616E79206C6F67733A312100657218
:100BD000726F72206F70656E526F6F740065727203
:100BE0006F7220766F6C756D652E696E6974006525
:100BF00072726F7220636172642E696E6974005341
:100C000044206572726F723A20006572726F723A98
:100C100020007C3C3E5E2B3D3F2F5B5D3B2C2A221F
:100C20005C0000000000240027002A0000000000F3
:100C3000250028002B0000000000230026002900CA
:100C40000404040404040404020202020202030372
:100C5000030303030102040810204080010204087A
:100C6000102001020408102000000007000201000B
:100C7000000304060000000000000000000ABD356B
:100C800011241FBECFEFD8E0DEBFCDBF11E0A0E042
:100C9000B1E0E2E2F1E702C005900D92A23AB1079D
:100CA000D9F717E0A2EAB1E001C01D92A233B10763
:100CB000E1F71CE0C0E8DCE004C02297FE010E94DE
:100CC0005438CC37D107C9F70E94F7350C948F38C8
:100CD0000C940000FC0188279927E8942191203288
:100CE000E9F3293010F02E30C8F32B3241F02D32C9
:100CF00039F4689404C00E94DD06820F911D219191
:100D000020532A30C0F31EF4909581959F4F08958B
:100D1000FB01DC018D91059080190110D9F3990B2D
:100D20000895FB01DC014150504030F08D91059059
:100D3000801919F40020B9F7881B990B0895FB015D
:100D4000DC0104C08D910190801921F44150504084
:100D5000C8F7881B990B0895DC0101C06D934150C1
:100D60005040E0F70895FB01DC010D900020E9F709
:100D7000119701900D920020E1F70895FB01DC012D
:100D80008D91019080190110D9F3990B0895FB0101
:100D9000DC0101900D920020E1F70895FB01DC01D8
:100DA0004150504048F001900D920020C9F701C019
:100DB0001D9241505040E0F708957AE0979F902DA2
:100DC000879F802D910D11240895AEE0B0E0EBEEE9
:100DD000F6E00C9466380D891E8986E08C831A83B0
:100DE00009838FEF9FE79E838D839E01275E3F4F90
:100DF000CE0101966F89788DA9010E9409072F8184
:100E00003885020F131FF80110822E96E4E00C942F
:100E10008238ABE0B0E0EFE0F7E00C9458383C01EA
:100E20002B015A01FC0117821682838181FD03C0C8
:100E30006FEF7FEFC6C19AE0892E1E010894211C36
:100E4000311CF3012381F20123FD859123FF819160
:100E50002F01882309F4B2C1853239F423FD85912D
:100E600023FF81912F01853229F490E0B3010E9484
:100E7000FC08E7CF982FFF24EE249924FFE1FF150B
:100E8000D0F09B3269F09C3228F4903259F09332C2
:100E900091F40EC09D3249F0903369F441E024C0D2
:100EA00052E0F52A84E0F82A28C098E0F92A25C003
:100EB000E0E1FE2A22C0F7FC29C0892F80538A3046
:100EC00070F4F6FE05C0989C902C1124980E15C065
:100ED000E89CE02C1124E80EF0E2FF2A0EC09E32BE
:100EE00029F4F6FC6BC140E4F42A07C09C3619F4DF
:100EF00050E8F52A02C0983649F4F20123FD959195
:100F000023FF91912F01992309F0B8CF892F8554A0
:100F1000833018F08052833038F444E050E0A40E5F
:100F2000B51E5FE359830FC0933631F0933779F0E4
:100F3000933509F056C020C0F5018081898342E0D5
:100F400050E0A40EB51E610101E010E012C0F501F1
:100F5000C080D180F6FC03C06FEF7FEF02C0692D27
:100F600070E042E050E0A40EB51EC6010E94F108F8
:100F70008C015FE7F52214C0F501C080D180F6FC3A
:100F800003C06FEF7FEF02C0692D70E042E050E0D8
:100F9000A40EB51EC6010E94E6088C0150E8F52A91
:100FA000F3FE07C01AC080E290E0B3010E94FC0883
:100FB000EA948E2D90E008171907A8F30EC0F601E9
:100FC000F7FC8591F7FE81916F0190E0B3010E94DB
:100FD000FC08E110EA94015010400115110579F761
:100FE000EAC0943611F0993669F5F7FE08C0F501AC
:100FF000208131814281538184E090E00AC0F50173
:10100000808191819C01442737FD4095542F82E0D7
:1010100090E0A80EB91E9FE6F92257FF09C050952F
:101020004095309521953F4F4F4F5F4FE0E8FE2AA6
:10103000CA01B901A1012AE030E00E942809D82E96
:10104000D21840C0953729F41F2D1F7E2AE030E0CA
:101050001DC01F2D197F9F3661F0903720F4983501
:1010600009F0ACC00FC0903739F0983709F0A6C02E
:1010700004C028E030E00AC0106114FD146020E1D3
:1010800030E004C014FD166020E132E017FF08C014
:10109000F501608171818281938144E050E008C054
:1010A000F50180819181BC0180E090E042E050E058
:1010B000A40EB51EA1010E942809D82ED2188FE7D0
:1010C000F82EF122F6FE0BC05EEFF522D91438F4AB
:1010D000F4FE07C0F2FC05C08FEEF82202C01D2D01
:1010E00001C0192DF4FE0DC0FE01ED0DF11D808132
:1010F000803319F499EEF92208C01F5FF2FE05C093
:1011000003C08F2D867809F01F5F0F2DF3FC14C0EC
:10111000F0FE0FC01E1510F09D2C0BC09D2C9E0CD8
:10112000911A1E2D06C080E290E0B3010E94FC08D7
:101130001F5F1E15C0F304C01E1510F4E11A01C094
:10114000EE2404FF0FC080E390E0B3010E94FC088E
:1011500002FF1DC001FD03C088E790E00EC088E5D6
:1011600090E00BC0802F867891F001FF02C08BE2E7
:1011700001C080E2F7FC8DE290E0B3010E94FC0820
:1011800006C080E390E0B3010E94FC089A94D91451
:10119000C0F3DA94F101ED0DF11D808190E0B3010F
:1011A0000E94FC08DD20A9F706C080E290E0B301B0
:1011B0000E94FC08EA94EE20C1F743CEF301668159
:1011C0007781CB012B96E2E10C947438FC010590F9
:1011D000615070400110D8F7809590958E0F9F1F39
:1011E0000895FC016150704001900110D8F780957E
:1011F00090958E0F9F1F08950F931F93CF93DF93AA
:101200008C01EB018B8181FF1BC082FF0DC02E8101
:101210003F818C819D812817390764F4E881F98129
:101220000193F983E88306C0E885F985802F099545
:10123000892B31F48E819F8101969F838E8302C01A
:101240000FEF1FEFC801DF91CF911F910F9108950C
:10125000FA01AA27283051F1203181F1E8946F93E7
:101260006E7F6E5F7F4F8F4F9F4FAF4FB1E03ED08D
:10127000B4E03CD0670F781F891F9A1FA11D680F2B
:10128000791F8A1F911DA11D6A0F711D811D911D5E
:10129000A11D20D009F468943F912AE0269F1124D3
:1012A0003019305D3193DEF6CF010895462F477037
:1012B000405D4193B3E00FD0C9F7F6CF462F4F7092
:1012C000405D4A3318F0495D31FD4052419302D0F0
:1012D000A9F7EACFB4E0A695979587957795679596
:1012E000BA95C9F700976105710508959B01AC0196
:1012F0000A2E06945795479537952795BA95C9F7BD
:10130000620F731F841F951FA01D0895F999FECFCA
:1013100072BD61BDF89A80B50895F999FECF1FBAE4
:1013200072BD61BD40BD0FB6F894FA9AF99A0FBE2E
:1013300008951F920F920FB60F9211242F938F933F
:101340009F93EF93FF938091A3039091A403209127
:10135000C600FC01ED55FE4F208301969093A40337
:101360008093A3038050924021F41092A403109222
:10137000A303FF91EF919F918F912F910F900FBE3B
:101380000F901F901895FC01DB0108C0891721F010
:101390008F3311F080E00895319611969C91992336
:1013A000F1F080818A3291F71AC080818A3259F433
:1013B00031968081882311F481E008959D012F5F8B
:1013C0003F4FAF0110C0891711F08F3319F43196D8
:1013D000119609C0FA01D9012F5F3F4F04C020E0E8
:1013E00030E040E050E09C919923F9F601C031963D
:1013F00090819A32E1F380E0992309F481E0089525
:1014000010927C0410927D04109280041092820449
:1014100082E090E0A0E0B0E08093830490938404A5
:10142000A0938504B093860410929A048AE891E010
:101430009093A2048093A1041092A5049093CC04ED
:101440008093CB041092CF040895EF92FF920F93F4
:101450001F937C010FE117E0C80168E670E00E946D
:101460003536C801B7010E94A8371F910F91FF9030
:10147000EF900895CF93DF93EC018FE0E9EFF4E074
:10148000DF011D928A95E9F750E041E0A62FB0E018
:1014900039C0242F30E0FE01E20FF31F808180323B
:1014A00029F02F5F3F4F2A173B0759F5842F90E013
:1014B00001968A179B0709F4462FE9EFF4E020E034
:1014C00080819181892B19F0828181112F5F339660
:1014D00085E0E830F807A1F7253088F4822F90E006
:1014E000FC01EE0FFF1FE80FF91FE750FB4FCE0185
:1014F000850F911D91838083842F851B82834F5F8D
:10150000542F4F5F461728F2E9EFF4E020E0808186
:101510009181892B19F0828181112F5F3396A5E08B
:10152000E830FA07A1F7822FDF91CF910895982F25
:101530008EE1E5EAF3E0DF011D928A95E9F7953047
:10154000E8F4892F90E0FC01EE0FFF1FE80FF91F70
:10155000E750FB4F608171816115710579F042811F
:10156000442361F04F3118F04EE150E001C050E0EB
:1015700085EA93E00E94CE069C0102C020E030E0A4
:10158000C90108950F931F9302EA11E0C80161E0B9
:1015900070E041E00E948D09C80162E070E040E027
:1015A0000E948D09C80165E070E04AE10E948D0942
:1015B000C80166E070E043E00E948D091F910F9121
:1015C00008950F931F93CF93DF93C0E0D0E0082FCF
:1015D00010E017C080917D0161E00E94CF3368EC7C
:1015E00070E080E090E00E94163380917D0160E021
:1015F0000E94CF3368EC70E080E090E00E941633E8
:101600002196C017D10734F360ED77E080E090E0D9
:101610000E941633C0E0D0E0F4CF0F931F93CF9316
:10162000DF93EC018B0141E00E94952E882311F09D
:1016300081E005C0CE01B80140E00E94952EDF9107
:10164000CF911F910F91089582EA91E061E070E0DF
:101650000E9486098093F5048B3050F081E08093DE
:10166000F50482EA91E061E070E041E00E948D09BA
:1016700082EA91E062E070E00E9486098093F604BD
:10168000863048F01092F60482EA91E062E070E061
:1016900040E00E948D0982EA91E065E070E00E94DE
:1016A00086098093F70481508E3F50F08AE1809341
:1016B000F70482EA91E065E070E04AE10E948D095A
:1016C00082EA91E066E070E00E9486098093F80467
:1016D00081508E3F50F083E08093F80482EA91E0DD
:1016E00066E070E043E00E948D090895CF93DF9398
:1016F000EC0107C08FE197E040E050E00E94F73630
:101700002196FE0164916623A9F7DF91CF91089598
:101710000E94760B8FE197E00E945337089587E18E
:1017200099E00E94880B83E099E00E94880B86EE86
:1017300098E00E94880B84E598E00E94880B85EC75
:1017400097E00E94880B89E797E00E94880B81E46C
:1017500097E00E94880B8EEF96E00E94880B82ED46
:1017600096E00E94880B8BE596E00E94880B87E943
:1017700095E00E94880B89E695E00E94880B84E141
:1017800095E00E94880B81EE94E00E94880B87EA26
:1017900094E00E94880B8EE994E00E94880B88E711
:1017A00094E00E94880B83E594E00E94880B0895E2
:1017B000AF92BF92CF92DF92EF92FF920F931F935F
:1017C000CF93DF937C01B62E60E070E04B2D50E0AC
:1017D0000E94AC0600E0CB2CDD240894C108D1089F
:1017E00050E2A52E45C08091C00087FFFCCF10912C
:1017F000C6008BB18A258BB9183011F01F37E9F478
:101800000023B1F10150F701E00FF11D10828FE1CB
:1018100097E068E040E050E00E943F378FE197E0BA
:1018200060E240E050E00E943F378FE197E068E0DF
:1018300040E050E00E943F371BC08091810180FF53
:1018400007C08FE197E0612F40E050E00E943F37F2
:10185000C02FD0E01D3041F48FE197E00E94533754
:10186000CE0DDF1D18820AC0CE0DDF1D18830F5F5D
:10187000802F90E08C159D050CF4B5CFC7016B2D22
:101880000E943A0A802FDF91CF911F910F91FF9014
:10189000EF90DF90CF90BF90AF9008950F931F937C
:1018A0008C018AE09CE00E94760BC8010E94880BA4
:1018B00080917C048823D9F08FEF9BE00E94760B07
:1018C0008FE197E060917C0440E150E00E94F736A0
:1018D0008FE197E06CE240E050E00E943F378FE1FB
:1018E00097E06091810440E150E00E948E37FFCF85
:1018F0009F92AF92BF92CF92DF92EF92FF920F939F
:101900001F93DF93CF93CDB7DEB7CA54D0400FB645
:10191000F894DEBF0FBECDBF8AE891E09AA389A3F9
:101920001DA2CE01819663E874E00E94622688239E
:1019300021F487ED90E00E944E0C8E010C5F1F4F4A
:10194000C80160E071E00E94C7068BEC94E0BE0124
:101950006F5D7F4FA80122E00E94A72B882349F0EA
:101960008BEC94E00E949723882319F482EC90E09A
:101970000FC08BEC94E0BE016F5D7F4FAE014C5FFA
:101980005F4F26E10E94A72B882329F48DEA90E07F
:101990000E94880BFBC082EA91E061E070E00E9447
:1019A0008609082F82EA91E062E070E00E948609D1
:1019B000982E82EA91E065E070E00E948609B82ED8
:1019C00082EA91E066E070E00E948609A82E00237A
:1019D00029F4CE0141966BE071E029C0043029F46E
:1019E000CE01419660E171E022C0013029F4CE01C0
:1019F000419665E171E01BC0053029F4CE014196A6
:101A00006AE171E014C0063029F4CE01419660E22B
:101A100071E00DC0023029F4CE01419666E271E01A
:101A200006C0033031F4CE0141966CE271E00E94B1
:101A3000C7068E010F5E1F4FC80163E371E00E946D
:101A4000B30600D000D000D0EDB7FEB731967E01CE
:101A50000894E11CF11CADB7BEB71296FC92EE9251
:101A6000119765E3C62E61E0D62ED382C2828B2DFC
:101A7000992787FD9095958384830E94E5068DB70D
:101A80009EB706960FB6F8949EBF0FBE8DBFC801D5
:101A9000B7010E94B306C80163E371E00E94B30678
:101AA00000D000D000D0EDB7FEB73196ADB7BEB7CD
:101AB0001296FC92EE921197D382C2828A2D9927B8
:101AC00087FD9095958384830E94E5068DB79EB728
:101AD00006960FB6F8949EBF0FBE8DBFC801B70122
:101AE0000E94B306C80163E371E00E94B30600D010
:101AF00000D000D0EDB7FEB73196ADB7BEB71296A5
:101B0000FC92EE921197D382C282892D992787FD8C
:101B10009095958384830E94E5068DB79EB70696BF
:101B20000FB6F8949EBF0FBE8DBFC801B7010E94CB
:101B3000B30685EA93E0B8010E94C706F801019058
:101B40000020E9F73197E01BF10B8BEC94E065EA9C
:101B500073E0AF010E946E29F80101900020E9F7BF
:101B60003197E01BF10B8E179F0721F087E990E07A
:101B70000E94880B8BEC94E00E9478228BEC94E01E
:101B80000E94C022CE0181960E94C022C65BDF4F18
:101B90000FB6F894DEBF0FBECDBFCF91DF911F917E
:101BA0000F91FF90EF90DF90CF90BF90AF909F90FC
:101BB00008950F931F9380E060E00E94A93380E0B6
:101BC00061E00E94CF3380E00E942334019709F442
:101BD00077C080917F0161E00E94A93380917F01ED
:101BE00061E00E94CF3310E000E269E170E080E044
:101BF00090E00E9416338BB180278BB980E00E9461
:101C00002334019709F45CC069E170E080E090E062
:101C10000E94163385B1802785B980E00E94233465
:101C2000019709F44DC01F5F1832F9F60E94C20AED
:101C300087E794E060E04AE00E947020882321F466
:101C40008DE890E00E944E0C83E894E067E774E032
:101C50000E940D0B882321F481E890E00E944E0C35
:101C600081EA94E063E874E00E946226882321F40C
:101C700088E790E00E944E0C0E94780C80917D01D4
:101C800061E00E94A93380917F0161E00E94A93345
:101C900080917D0161E00E94CF3380917F0161E0FE
:101CA0000E94CF3310E264EF71E080E090E00E9488
:101CB00016338BB181278BB985B1812785B9F3CFD5
:101CC0001F910F9108954F925F926F927F928F9222
:101CD0009F92AF92BF92CF92DF92EF92FF920F93BB
:101CE0001F93DF93CF93CDB7DEB7C355D0400FB668
:101CF000F894DEBF0FBECDBF8AE891E09BA78AA70C
:101D00001EA6CE018A9663E874E00E9462268823AC
:101D100021F480EE90E00E944E0C8E01075F1F4F71
:101D2000C80160E071E00E94C7068BEC94E0BE0140
:101D3000665D7F4FA80121E00E94A72B882309F44C
:101D40006FC1CC24DD247E010894E11CF11C8E01BE
:101D50000A5E1F4F8BEC94E0B70141E050E00E9417
:101D6000B323019771F4898187FD0BC0F801EC0D55
:101D7000FD1D80830894C11CD11C84E1C816D104C8
:101D800049F78BEC94E00E94C022CE018A960E9413
:101D9000C02201E010E09AE1892E83E0B82E992458
:101DA000AA24B2E0EB2EF12CEC0EFD1EA6E14A2E89
:101DB000512C4C0E5D1EF8E06F2E712C6C0E7D1EAA
:101DC00082C0ED9393942A2F2E19892D90E0F20171
:101DD000E80FF91FE081EC3231F08C159D051CF401
:101DE000A615B70571F7F701E20FF11D1082AA20C1
:101DF000F1F5C7016BE071E00E94BE06009711F497
:101E000000E05FC0C70160E171E00E94BE0600977C
:101E100011F404E056C0C70165E171E00E94BE06FE
:101E2000009709F44DC0C7016AE171E00E94BE0647
:101E3000009711F405E045C0C70160E271E00E941F
:101E4000BE06009711F406E03CC0C70166E271E0EF
:101E50000E94BE06009711F402E033C0C7016CE295
:101E600071E00E94BE06009759F503E02AC081E0A8
:101E7000A81649F4C7010E946A06882E882309F52E
:101E8000EAE18E2E1EC082E0A81651F4C7010E941E
:101E90006A06B82E882389F08AE08B1574F011C089
:101EA00083E0A816B9F4C7010E946A06182F882398
:101EB00041F0863034F010E004C073E0B72E01C06A
:101EC00001E0A3949394892D90E08C159D0514F462
:101ED000D70179CF202F332727FD30958091F50446
:101EE00090E02817390711F44FEF5CC082EA91E0C7
:101EF00061E070E0402F0E948D090093F5040023FB
:101F000041F48FE197E040E659E060E070E00E9424
:101F100072348091F504843041F48FE197E040EC15
:101F200052E160E070E00E9472348091F5048130EB
:101F300041F48FE197E040E855E260E070E00E94F4
:101F400072348091F504853041F48FE197E040E0F0
:101F50005BE460E070E00E9472348091F5048630AA
:101F600041F48FE197E040E056E960E070E00E94C4
:101F700072348091F504823041F48FE197E040E0C3
:101F800051EE60E070E00E9472348091F50483307D
:101F900041F48FE197E040E052EC61E070E00E9494
:101FA000723440E0212F332727FD30958091F604CD
:101FB00090E02817390751F01093F60482EA91E077
:101FC00062E070E0412F0E948D0940E0282D332708
:101FD00027FD30958091F70490E02817390751F0DC
:101FE0008092F70482EA91E065E070E0482D0E945B
:101FF0008D0940E02B2D332727FD30958091F80483
:1020000090E02817390751F0B092F80482EA91E085
:1020100066E070E04B2D0E948D0902C0442311F44C
:102020000E94780CCD5ADF4F0FB6F894DEBF0FBE7A
:10203000CDBFCF91DF911F910F91FF90EF90DF9077
:10204000CF90BF90AF909F908F907F906F905F9058
:102050004F90089580917D0161E00E94A93383B77C
:10206000817F83BF83B7816083BF80916400806874
:102070008093640080916400886080936400809104
:102080006400806480936400809164008160809328
:1020900064000E94D90D0E94240B8091F5048823CE
:1020A00041F48FE197E040E659E060E070E00E9483
:1020B00072348091F504843041F48FE197E040EC74
:1020C00052E160E070E00E9472348091F50481304A
:1020D00041F48FE197E040E855E260E070E00E9453
:1020E00072348091F504853041F48FE197E040E04F
:1020F0005BE460E070E00E9472348091F504863009
:1021000041F48FE197E040E056E960E070E00E9422
:1021100072348091F504823041F48FE197E040E021
:1021200051EE60E070E00E9472348091F5048330DB
:1021300041F48FE197E040E052EC61E070E00E94F2
:1021400072348FE197E068E371E00E94353687E7EB
:1021500094E060E04AE00E947020882339F48FEE1A
:102160009BE00E94760B83E00E94E10A83E894E002
:1021700067E774E00E940D0B882339F48DED9BE036
:102180000E94760B83E00E94E10A81EA94E063E812
:1021900074E00E946226882339F48EEC9BE00E9452
:1021A000760B83E00E94E10A8FE197E06AE371E039
:1021B0000E9435360E94630E84EBE3ECF3E0DF010E
:1021C0001D928A95E9F70895EF92FF920F931F935E
:1021D000CF93DF93AC018BEC94E061EA74E026E1ED
:1021E0000E94A72B882341F48091810181FF04C0C4
:1021F0008DE89BE00E944E0C8091810183FF07C017
:102200008FE197E06AE140E050E00E943F378FE1C4
:1022100097E06CE340E050E00E943F3780917D0101
:1022200061E00E94CF331092A4031092A303809127
:10223000C10080688093C1007894C0E0D0E0FF24A2
:1022400020E2E22E00E010E069C084E0013B1807C4
:1022500018F40F5F1F4F5CC0209709F450C081E055
:10226000C030D80709F44BC0CF3FD10509F054F472
:102270008BEC94E063EA71E0AE010E946E2940E0CD
:1022800050E00BC0AE01405051408BEC94E063EA4B
:1022900072E00E946E2940E051E0F8946091A3033F
:1022A0007091A403DA01AD55BE4F9A010FC0FE0133
:1022B000ED55FE4F80818C93219682E0C030D80787
:1022C00014F0C0E0D0E02F5F3F4F1196C617D7073C
:1022D00071F73093A4032093A303EA0178948BEC65
:1022E00094E00E9478220BC085E060E00E94CF332A
:1022F00083B7816083BF889583B78E7F83BF8091CA
:10230000A3039091A403C817D90771F300E010E06C
:1023100061E070E080E090E00E9416338091A303BA
:102320009091A403C817D90709F48FCFFE01ED558A
:10233000FE4F2081332727FD30958091F70490E0F0
:1023400028173907A1F4F3942F2D332727FD309553
:102350008091F80490E02817390751F4F89480919F
:10236000C1008F778093C100209751F53FC0FF24B3
:10237000219681E0C030D80769F48BEC94E063EAE1
:1023800071E040E051E00E946E298BEC94E00E94E5
:10239000782212C082E0C030D80771F48BEC94E050
:1023A00063EA72E040E051E00E946E298BEC94E019
:1023B0000E947822C0E0D0E08BB18E258BB942CF4D
:1023C00081E0C030D80791F0CF3FD10509F02CF45F
:1023D0008BEC94E063EA71E006C0C050D1408BEC16
:1023E00094E063EA72E0AE010E946E298BEC94E007
:1023F0000E9478228BEC94E00E94C02280917D01A3
:1024000060E00E94CF338BE89BE00E94760B81E076
:10241000DF91CF911F910F91FF90EF9008950F934F
:102420001F93DF93CF93CDB7DEB72D970FB6F894F8
:10243000DEBF0FBECDBFDE011196ECE3F1E08DE013
:1024400001900D928150E1F78BEC94E061EA74E029
:102450008E010F5F1F4FA80122E10E94A72B882346
:1024600029F483E99BE00E94760B07C08BEC94E093
:102470000E94C022C8010E94E4102D960FB6F89465
:10248000DEBF0FBECDBFCF91DF911F910F91089599
:10249000CF92DF92EF92FF920F931F93DF93CF9330
:1024A000CDB7DEB72D970FB6F894DEBF0FBECDBF08
:1024B00082EA91E063E070E00E948609182F82EAC8
:1024C00091E064E070E00E948609282F1F3F99F494
:1024D0008F3F89F482EA91E063E070E040E00E947F
:1024E0008D0982EA91E064E070E040E00E948D098D
:1024F000EE24FF240EC0922F80E0E12EFF24E82A74
:10250000F92A8EEFE8168FEFF80619F48CEB9BE0B2
:102510001AC0DE011196E5E5F1E08DE001900D9223
:102520008150E1F78E010F5F1F4F39E4C32E31E078
:10253000D32E0894E11CF11C9EEFE9169FEFF906DB
:1025400028F08AEA9BE00E94760B42C000D000D0BF
:1025500000D0EDB7FEB73196ADB7BEB712961C935B
:102560000E931197D382C282F582E4820E94E5061F
:102570008DB79EB706960FB6F8949EBF0FBE8DBF5F
:102580008BEC94E061EA74E0A80122E30E94A72B9F
:10259000882379F28BEC94E00E94C02282EA91E0D9
:1025A00063E070E04E2D0E948D0982EA91E064E0C4
:1025B00070E00E9486098F1539F082EA91E064E0AC
:1025C00070E04F2D0E948D09CE0101960E94E4100B
:1025D0002D960FB6F894DEBF0FBECDBFCF91DF9121
:1025E0001F910F91FF90EF90DF90CF900895FF9291
:1025F0000F931F93DF93CF9300D000D00F92CDB7EE
:10260000DEB782EA91E062E070E00E948609F82E6F
:102610008E010F5F1F4F86EE92E00E94880B82EDC5
:1026200092E00E94760BFF2019F489EC92E00BC037
:1026300081E0F81619F48DEB92E005C082E0F816FF
:1026400021F485EB92E00E94760B8FE197E00E94E7
:1026500053378FE892E00E94760B8FE197E060910C
:10266000F7044AE050E00E94F7368BE892E00E94BF
:10267000760B8FE197E06091F8044AE050E00E9409
:102680008E3780E892E00E94880B8CE692E00E94F0
:10269000880B85E592E00E94880B83E492E00E941B
:1026A000880B8AE292E00E94880B82E192E00E940D
:1026B000880B83EF91E00E94880B8BEE91E00E94E3
:1026C000880B8FE197E06EE340E050E00E943F37D7
:1026D000C80165E00E94D80B882309F49CCFC8018B
:1026E00069EE71E00E948806892B51F488ED91E033
:1026F0000E94880B82EA91E062E070E040E010C046
:10270000C80166ED71E00E948806892B71F482ECA5
:1027100091E00E94880B82EA91E062E070E041E083
:102720000E948D090E94780C8AC0C80160EC71E09B
:102730000E948806892B51F481EB91E00E94880B5E
:1027400082EA91E062E070E042E0EACFC8016FEA1D
:1027500071E00E948806892B99F481E991E00E943A
:10276000880B82EA91E063E070E040E00E948D090E
:1027700082EA91E064E070E040E00E948D095FC071
:10278000C8016FE871E00E948806892BE9F480E7B0
:1027900091E00E94760B8091C00087FFFCCF4091B2
:1027A000C6004093F70482EA91E065E070E00E9481
:1027B0008D090E94780C87E591E00E94760B8FE1ED
:1027C00097E06091F7042AC0C80165E571E00E94B6
:1027D0008806892B41F54AE00BC08AE191E00E940E
:1027E000760B8091C00087FFFCCF4091C60040531C
:1027F000842F8150893088F74093F80482EA91E071
:1028000066E070E00E948D090E94780C83EF90E0F2
:102810000E94760B8FE197E06091F8044AE050E067
:102820000E948E370CC0C80161EF70E00E948806DC
:10283000892B09F0F0CE89EE90E00E94880B0F9072
:102840000F900F900F900F90CF91DF911F910F91EC
:10285000FF900895FF920F931F93DF93CF9300D0C3
:1028600000D00F92CDB7DEB782EA91E061E070E070
:102870000E948609F82E8E010F5F1F4F8DE394E0B2
:102880000E94880B83E394E00E94760B84E0F816A4
:1028900019F480E394E022C0FF2019F48DE294E063
:1028A0001DC081E0F81619F48AE294E017C085E0B3
:1028B000F81619F486E294E011C086E0F81619F4CF
:1028C00082E294E00BC082E0F81619F48EE194E005
:1028D00005C083E0F81621F489E194E00E94760BAC
:1028E00082E194E00E94880B87E094E00E94880BCC
:1028F0008BEF93E00E94880B8FEE93E00E94880B91
:1029000083EE93E00E94880B86ED93E00E94880B93
:1029100089EC93E00E94880B8CEB93E00E94880B7B
:102920008EEA93E00E94880B86EA93E00E94880B6F
:102930008FE197E06EE340E050E00E943F37C8012E
:1029400065E00E94D80B882309F498CFC80164EA97
:1029500073E00E948806892B51F480E993E00E947D
:10296000880B82EA91E061E070E040E065C0C80158
:102970006EE873E00E948806892B51F48AE793E0A1
:102980000E94880B82EA91E061E070E044E054C06C
:10299000C80168E773E00E948806892B51F484E639
:1029A00093E00E94880B82EA91E061E070E041E0F0
:1029B00043C0C80162E673E00E948806892B51F487
:1029C0008DE493E00E94880B82EA91E061E070E080
:1029D00045E032C0C8016BE473E00E948806892B91
:1029E00051F486E393E00E94880B82EA91E061E073
:1029F00070E046E021C0C80164E373E00E948806ED
:102A0000892B51F48FE193E00E94880B82EA91E0D8
:102A100061E070E042E010C0C8016DE173E00E9427
:102A20008806892B89F487E093E00E94880B82EA6C
:102A300091E061E070E043E00E948D090E94780C13
:102A400085E00E94E10A0CC0C80165E073E00E94C5
:102A50008806892B09F012CF8DEF92E00E94880B37
:102A60000F900F900F900F900F90CF91DF911F91CB
:102A70000F91FF9008958F929F92AF92BF92CF9245
:102A8000DF92EF92FF920F931F93DF93CF93CDB717
:102A9000DEB7AA970FB6F894DEBF0FBECDBF6C01AC
:102AA0008AE891E09A8389831D82C60168E87BE009
:102AB00042E050E00E949106892B09F0BAC081EAF9
:102AC00094E00E94C02281EA94E063E874E00E94EE
:102AD0006226882321F48FE79BE00E944E0CE3ECF2
:102AE000F3E090E08081882329F09F5F3C969F303F
:102AF000C9F79FEFE92EEA94E7FE03C0FF24F394A1
:102B00008EC0FF24F39400E010E05E010894A11C45
:102B1000B11CEDE18E2E912C8C0E9D1E70C0A80173
:102B2000440F551F400F511F440F551F440F551F91
:102B30004D535C4FC50161EA74E021E00E94A72B70
:102B4000F82E0F5F1F4F882309F45CC08B818093A0
:102B5000A3048C818093A4048D818093A5048E812D
:102B60009F81A885B9858093A6049093A704A0931C
:102B7000A804B093A9048A859B85AC85BD85809304
:102B8000AA049093AB04A093AC04B093AD048E85DB
:102B90009F85A889B9898093AE049093AF04A093D0
:102BA000B004B093B1048A898093B2048B899C8964
:102BB000AD89BE898093B3049093B404A093B50407
:102BC000B093B6048F89988DA98DBA8D8093B70480
:102BD0009093B804A093B904B093BA048B8D9C8DE4
:102BE0009093BC048093BB04ADEBB4E0F4018EE0A1
:102BF00001900D928150E1F7C5010E94C0220E158F
:102C00000CF48DCF8CE02E2D2802C00111248D53A1
:102C10009C4FFC018BE0DF011D928A95E9F78091C2
:102C2000810181FF8CC0FF2009F089C08FE59BE006
:102C300011C0CE01019661EA74E0A60121E00E9474
:102C4000A72BF82E882371F48091810181FF77C032
:102C500089E49BE00E94760B8FE197E0B6010E9429
:102C6000A8376DC08B818093A3048C818093A404CA
:102C70008D818093A5048E819F81A885B9858093DD
:102C8000A6049093A704A093A804B093A9048A85EE
:102C90009B85AC85BD858093AA049093AB04A093DB
:102CA000AC04B093AD048E859F85A889B9898093C3
:102CB000AE049093AF04A093B004B093B1048A899A
:102CC0008093B2048B899C89AD89BE898093B304BB
:102CD0009093B404A093B504B093B6048F89988DF3
:102CE000A98DBA8D8093B7049093B804A093B904CA
:102CF000B093BA048B8D9C8D9093BC048093BB04DD
:102D0000ADEBB4E0FE017D968EE001900D92815016
:102D1000E1F7E3ECF3E090E08081882329F09F5F06
:102D20003C969F30C9F70BC08CE09802C00111247B
:102D30008D539C4FB6014BE050E00E94CE068F2D84
:102D4000AA960FB6F894DEBF0FBECDBFCF91DF912C
:102D50001F910F91FF90EF90DF90CF90BF90AF90B9
:102D60009F908F9008952F923F924F925F926F9213
:102D70007F928F929F92AF92BF92CF92DF92EF920B
:102D8000FF920F931F93DF93CF93CDB7DEB7CB5650
:102D9000D0400FB6F894DEBF0FBECDBFF89480913F
:102DA000C1008F778093C10011E032E2432E512C95
:102DB0004C0E5D1ECE010A96AC969FAF8EAFAC97BF
:102DC00020E4222E312C2C0E3D1E01C010E08091FB
:102DD000810183FF07C08FE197E06AE140E050E0A6
:102DE0000E943F37112339F48FE197E061E240E020
:102DF00050E00E943F378FE197E06EE340E050E003
:102E00000E943F37C2016EE10E94D80B11E0882377
:102E1000F1F280E00E94970A7C0164E47BE00E946A
:102E20008806892B29F58091810181FF04C08BE2FE
:102E30009BE00E94880B81EA94E00E94C02281EA14
:102E400094E063E874E00E946226882321F482E221
:102E50009BE00E944E0C84EBE3ECF3E011928A9528
:102E6000E9F78091810181FF21C68AE09BE01CC6C1
:102E7000C70168E07BE00E948806892B39F0C70112
:102E800063E07BE00E948806892B19F40E948F0B77
:102E90009ECFC7016EEF7AE00E948806892B19F455
:102EA0000E942A1494CFC7016AEF7AE00E94880634
:102EB000892B19F40E94F7128ACFC70167EF7AE0D5
:102EC0000E948806892BE9F48091810181FF0CC062
:102ED00089EE9AE00E94760B8FE197E060919A0468
:102EE0004AE050E00E948E3781E00E94970A8C01F0
:102EF00081EA94E062E040E023EC39E00E941A2984
:102F0000D5C5C70166EE7AE042E050E00E94910626
:102F1000892B09F581E00E94970A8C01009709F43A
:102F200055CF8AE891E0F1019183808325961FAE09
:102F30002597C10161EA74E0A8010E944D2D882304
:102F400009F0B4C58091810181FF40CF8BEC9AE0FC
:102F50000E94880BF5C3C70168EC7AE042E050E0BC
:102F60000E949106892B09F06DC081E00E94970AAA
:102F70008C01009709F42ACFE9EFF4E020E080818A
:102F80009181892B19F0828181112F5F339695E011
:102F9000E830F907A1F7233009F058C5C80164ECFF
:102FA0007AE043E050E00E949106892B09F04EC57B
:102FB00082E00E94970AAC018BEC94E061EA74E035
:102FC00021E00E94A72B882309F400CF8BEC94E02A
:102FD0000E94612709C08091CF04823008F442C565
:102FE0008BEC94E00E941225182F5AC28BEC94E0CF
:102FF0000E949723F9CF81E00E94970AAC0181EAF1
:1030000094E063EC79E025E23AE00E94D92C7B0160
:103010008C018091810181FF0EC08FE197E0B801A2
:10302000A7012AE030E00E94D7368FE197E062E600
:1030300071E00E94A837E114F1040105110509F0BF
:1030400035C5C4CEC70161EC7AE042E050E00E9491
:103050009106892B49F481E00E94970A009709F4B0
:10306000B5CE0E943B1581C3C7016CEB7AE044E00A
:1030700050E00E949106892B09F062C181E00E9414
:10308000970A8C01009709F4A1CE8BEC94E061EAD9
:1030900074E0A80121E00E94A72B882339F48091D5
:1030A000810181FF93CE87EA9AE048C382E00E94C3
:1030B000970A7C01009709F44CC0FC0101900020A4
:1030C000E9F73197E81B20E030E04E2F50E00CC0CC
:1030D000F701E20FF31F8081992787FD9095C09734
:1030E0000A97B8F52F5F3F4F241735078CF38701F8
:1030F00040E050E060E070E019C0CB01BA012AE086
:1031000030E040E050E00E94EA37AB01BC018D2D79
:10311000992787FD9095C097AA2797FDA095BA2F6C
:10312000480F591F6A1F7B1F0F5F1F4FF801D08088
:103130008D2D80538A3008F38BEC94E00E94B221ED
:10314000882339F48091810181FF76C185E99AE075
:103150006CC183E00E94970AAC01009709F43FC05C
:10316000FC0101900020E9F73197E81B20E030E0F6
:103170006E2F70E00CC0FA01E20FF31F80819927D7
:1031800087FD9095C0970A9750F52F5F3F4F261700
:1031900037078CF38A0166247724430119C0C401E0
:1031A000B3012AE030E040E050E00E94EA373B0102
:1031B0004C018F2D992787FD9095C097AA2797FDE1
:1031C000A095BA2F680E791E8A1E9B1E0F5F1F4F97
:1031D000F801F0808F2D80538A3008F304C06624F4
:1031E0006A94762C430184E00E94970AAC01009710
:1031F00009F440C0FC0101900020E9F73197E81B79
:1032000020E030E06E2F70E00CC0FA01E20FF31FF7
:103210008081992787FD9095C0970A9758F52F5F71
:103220003F4F261737078CF36A01EE24FF248701EE
:103230001AC0C801B7012AE030E040E050E00E9427
:10324000EA377B018C018B2D992787FD9095C097DC
:10325000AA2797FDA095BA2FE80EF91E0A1F1B1F7B
:103260000894C11CD11CF601B0808B2D80538A308C
:1032700000F305C091E0E92EF12C012D112D81E024
:10328000A82EB12CC12CD12C3AC06A147B048C041A
:103290009D0408F448C0F1E0EF16F10401051105A2
:1032A000B9F4822F80528F3518F48FE197E007C070
:1032B0002A3011F02D3041F48FE197E0622F40E089
:1032C00050E00E943F3716C08FE197E06EE2F7CFE3
:1032D00082E0E816F1040105110561F48FE197E041
:1032E00040E150E00E943F378FE197E063E771E0F3
:1032F0000E9435360894A11CB11CC11CD11C8BEC5A
:1033000094E0BE016F5F7F4F41E050E00E94B32325
:10331000019719F06FEF7FEF02C08981682F262F88
:1033200016160CF4B2CF8BEC94E00E94C022809170
:10333000810183FDBBC38FE197E00E945337B6C381
:10334000C7016FE87AE045E050E00E949106892BC2
:1033500009F0ABC081E00E94970A8C01009709F444
:1033600035CD8BEC94E061EA74E0A80122E00E9484
:10337000A72B882339F48091810181FF27CD8AE72B
:103380009AE0DCC182E00E94970A7C01009709F470
:1033900058C0FC0101900020E9F73197E81B20E0BC
:1033A00030E04E2F50E00DC0F701E20FF31F808197
:1033B000992787FD9095C0970A9708F042C02F5F24
:1033C0003F4F2417350784F3870140E050E060E069
:1033D00070E019C0CB01BA012AE030E040E050E0D3
:1033E0000E94EA37AB01BC018D2D992787FD90958E
:1033F000C097AA2797FDA095BA2F480F591F6A1F9B
:103400007B1F0F5F1F4FF801D0808D2D80538A30B6
:1034100008F38BEC94E00E94B221882391F4809110
:10342000810181FF09C088E69AE00E94760B8FE156
:1034300097E0B7010E94A8378BEC94E00E94C0226D
:10344000C5CC8091810183FF07C08FE197E06AE1DD
:1034500040E050E00E943F378FE197E065E771E080
:103460000E943536C2016EE10E94D80B182F8823C6
:1034700011F411E015C08BEC94E0B201412F50E043
:103480000E946E29212F30E082179307D1F280919C
:10349000810181FF04C080E59AE00E94760B10E074
:1034A0008BEC94E00E94C02292CCC7016BE47AE0DE
:1034B00044E050E00E949106892BB1F581E00E9422
:1034C000970AAC01009709F481CC8BEC94E061EA97
:1034D00074E021E00E94A72B8823A1F04091DD0435
:1034E0005091DE046091DF047091E0048FE197E079
:1034F0002AE030E00E94D7368BEC94E00E94C02294
:1035000011E009C08091810181FF04C088E49AE044
:103510000E94760B10E08091810183FD58CC8FE1F1
:1035200097E00E94533753CCC70163E47AE00E94CE
:103530008806892B09F0CDC086E39AE00E94760BBD
:1035400080918204823039F0833041F0813049F437
:1035500082E39AE008C08EE29AE005C089E29AE030
:1035600002C081E29AE00E94880B87E794E06AE05B
:10357000AE014E5F5F4F0E94F41E882329F482E162
:103580009AE00E94760B22CC80E09AE00E94760BB3
:103590008FE197E06A8140E150E00E948E3787EF2B
:1035A00099E00E94760B8FE197E06B8140E050E05C
:1035B0000E943F378FE197E06C8140E050E00E942D
:1035C000CE378DEE99E00E94760B8E010B5F1F4F78
:1035D0008FE197E0F80161918F0140E050E00E9497
:1035E0003F37AC968EAD9FADAC970817190781F7A2
:1035F00081EE99E00E94760B6A8562956F708FE18B
:1036000097E070E04AE050E00E94E6368FE197E0F4
:103610006EE240E050E00E943F376A856F708FE1B4
:1036200097E070E04AE050E00E94753781ED99E044
:103630000E94760B4B855C856D857E858FE197E0DA
:103640002AE030E00E946A378CEB99E00E94760B0A
:1036500068896F708FE197E070E04AE050E00E9467
:10366000E6368FE197E06FE240E050E00E943F379E
:10367000688962956F7070E06053784F8F858F70A6
:1036800090E014E0880F991F1A95E1F7680F791FF1
:103690008FE197E04AE050E00E94B33787E794E07B
:1036A0000E94351F7B018C01611571058105910513
:1036B00059F087E794E069E0AE014E5E5F4F0E94EB
:1036C000F41E882309F0DEC18DEA99E00E94880B80
:1036D0007DCBC70168E979E00E948806892B49F40F
:1036E0008BEC94E00E94782281EA94E00E94782298
:1036F000DDC1C70164E979E043E050E00E94910632
:10370000892B11F581E00E94970A8C01009709F43A
:103710005DCB8BEC94E061EA74E0A80122E30E94A7
:10372000A72B882329F08BEC94E00E94C022BEC115
:103730008091810181FF4ACB8EE799E00E94760B50
:103740008FE197E0B8017FC1C70167E779E046E004
:1037500050E00E949106892B51F481E00E94970A63
:10376000009709F433CB0E94E410182F30CBC70127
:1037700063E779E043E050E00E949106892BF1F580
:103780008FE197E067E771E00E943536E3ECF3E004
:10379000CC248081882339F0C3943C969FE0C916DD
:1037A000C1F7CC24CA94DD24EC2CFF240894E10852
:1037B000F1081BC00D2D10E0B801660F771F600FD8
:1037C000711F660F771F660F771F6D537C4F8FE158
:1037D00097E00E9435360E151F0534F48FE197E00F
:1037E0006AE771E00E943536D394DC1418F38FE158
:1037F00097E06CE771E00E94A83758C1C7016EE6F8
:1038000079E044E050E00E949106892B19F581E0AF
:103810000E94970A8C01009709F4D8CA6BE679E0F8
:1038200042E050E00E949106982F882321F4809175
:103830008101816064C0C80167E679E043E050E03F
:103840000E949106982F882309F05BC08091810126
:103850008E7F55C0C7016FE579E047E050E00E94D8
:103860009106892B11F581E00E94970A8C0100973F
:1038700009F4ACCA6CE579E042E050E00E949106A0
:10388000982F882321F480918101826038C0C8017B
:1038900068E579E043E050E00E949106982F882384
:1038A00081F5809181018D7F2AC0C70164E579E0AF
:1038B00043E050E00E949106892B41F581E00E948F
:1038C000970A8C01009709F481CA61E579E042E02A
:1038D00050E00E949106982F882321F48091810165
:1038E00088600DC0C8016DE479E043E050E00E94BB
:1038F0009106982F882329F480918101877F8093F6
:10390000810110E0992309F062CAD0C0C70165E4C3
:1039100079E047E050E00E949106892BB1F481E004
:103920000E94970A8EE399E00E94760B81EA94E068
:1039300061E020E030E040E050E082010E944B2551
:10394000AB01BC018FE197E06EC0C70167E379E08E
:1039500046E050E00E949106892B09F069C081E0A1
:103960000E94970AAC01009709F430CAFC0101904B
:103970000020E9F73197E81B20E030E06E2F70E07F
:103980000DC0FA01E20FF31F8081992787FD909502
:10399000C0970A9708F01ACA2F5F3F4F26173707BC
:1039A00084F38A0120E030E040E050E019C0CA0111
:1039B000B9012AE030E040E050E00E94EA379B0184
:1039C000AC018F2D992787FD9095C097AA2797FD69
:1039D000A095BA2F280F391F4A1F5B1F0F5F1F4F7B
:1039E000F801F0808F2D80538A3008F38EE1F201C8
:1039F00011928A95E9F781EA94E062E082010E94DF
:103A00004B257B018C018FE197E0B2010E94353696
:103A10008FE197E06CE740E050E00E943F378FE194
:103A200097E0B801A7012AE030E00E946A373EC063
:103A30008091810181FFCAC985E299E00E94760BDD
:103A40008FE197E0B7010E94A837C0C98BEC94E0E2
:103A500061EA74E0A80121E00E94A72B882309F005
:103A6000BACAC9CA8BEC94E00E94C0228BEC94E0E5
:103A700061EA74E0A80122E00E94A72B882309F4E0
:103A80000ECDB4CA81EA99E00E94760B169507958F
:103A9000F794E7948FE197E0B801A7012AE030E0BE
:103AA0000E94D7368DE999E00E94880B11E08FC9FA
:103AB0008091F604882311F40E9448128091F60444
:103AC000813011F40E940F120E94B316FFCFFC0147
:103AD000673020F086E1858380E00895262F30E06E
:103AE00060FD02C0663019F48DB58E7F02C08DB5C1
:103AF00081608DBD8CB58C7F8CBD4CB522FD02C024
:103B000090E001C092E036952795822F8170842B3A
:103B1000892B8CBD81E00895FF920F931F93CF9363
:103B2000DF938B010E940833EB01FF24FA94FEBC63
:103B30000DB407FEFDCF8EB58F3F11F481E008C0B4
:103B40000E9408336C1B7D0B6017710780F380E0C7
:103B5000DF91CF911F910F91FF900895FC01848117
:103B600060E00E94CF330895FC01848161E00E94EF
:103B7000CF330895DC016EBDFA0120E030E00DB4D2
:103B800007FEFDCF80818EBD0DB407FEFDCF818184
:103B90008EBD2E5F3F4F329682E02030380779F796
:103BA0000DB407FEFDCF8FEF8EBD0DB407FEFDCF28
:103BB0008FEF8EBD0DB407FEFDCF8FEF8EBD0DB420
:103BC00007FEFDCF8EB51A968C931A978F718530AC
:103BD00011F481E0089581E115968C931597CD013C
:103BE0000E94B41D80E00895FF920F931F93CF931E
:103BF000DF93EC010E9408338B01FF24FA9409C083
:103C00000E940833601B710B6D52714010F08FE001
:103C10000DC0FEBC0DB407FEFDCF8EB58A878F3F69
:103C200079F38E3F11F481E006C08DE08D83CE01E3
:103C30000E94B41D80E0DF91CF911F910F91FF9002
:103C40000895CF93DF93EC018E818823D1F08FEF1D
:103C50008EBD2F8138854FEF04C00DB407FEFDCF18
:103C60004EBD2F5F3F4FC901019781509240A8F38D
:103C700038872F830DB407FEFDCFCE010E94B41DFF
:103C80001E82DF91CF910895DF92EF92FF920F9302
:103C90001F93CF93DF93EC01D62E79018A010E9406
:103CA000211ECE010E94AE1DCE016CE271E00E9489
:103CB0008C1D8D2D80648EBD0DB407FEFDCF28E1D7
:103CC00030E0D801C701022E04C0B695A79597959C
:103CD00087950A94D2F78EBD0DB407FEFDCF28500C
:103CE00030408FEF283F380761F7DD2011F485E978
:103CF00006C088E0D81611F487E801C08FEF8EBDAA
:103D00000DB407FEFDCF90E02FEF2EBD0DB407FEE2
:103D1000FDCF8EB587FF02C09150B9F78A87DF913A
:103D2000CF911F910F91FF90EF90DF900895CF9268
:103D3000DF92EF92FF920F931F93CF93DF93EC01EB
:103D40007A018B016901411551056105710511F475
:103D500082E137C08B85833039F029E0EE0CFF1CFF
:103D6000001F111F2A95D1F7CE0168E1A801970124
:103D70000E94441E882311F084E023C0CE016EEF20
:103D8000A6010E94BA1D8823E9F0CE0168E572E021
:103D90000E948C1D882311F485E113C0CE016DE0D3
:103DA00020E030E040E050E00E94441E882341F4CF
:103DB0008FEF8EBD0DB407FEFDCF8EB5882379F051
:103DC00084E18D83CE010E94B41D80E0DF91CF910C
:103DD0001F910F91FF90EF90DF90CF900895CE014B
:103DE0000E94B41D81E0F2CF0F931F93CF93DF9316
:103DF000EC01142F052F20E030E040E050E00E945D
:103E0000441E882319F08EE08D8326C0CE010E94C7
:103E1000F41D882309F1812F902FFC019FEF9F0152
:103E2000205F3F4F9EBD0DB407FEFDCF8EB5819341
:103E3000E217F307B9F78FEF8EBD0DB407FEFDCF84
:103E40008EB58FEF8EBD0DB407FEFDCF8EB5CE01C2
:103E50000E94B41D81E004C0CE010E94B41D80E028
:103E6000DF91CF911F910F910895EF92FF920F93E1
:103E70001F93DF93CF93CDB7DEB760970FB6F8945B
:103E8000DEBF0FBECDBF8C0169E0AE014F5F5F4F5B
:103E90000E94F41E882309F464C089818295869566
:103EA0008695837089F58F818370382F330F330F98
:103EB00020E0888590E0880F991F880F991F282B94
:103EC000392B8985829586958695837090E0282B7D
:103ED000392B2F5F3F4F790100E010E08E818F700A
:103EE00090E007972A852370220F3B85331F3327E5
:103EF000331F232B820F911D04C0EE0CFF1C001FEB
:103F0000111F8A95D2F730C0813041F5888586959A
:103F1000869590E0A0E0B0E08C01FF24EE248A8535
:103F200090E0A0E0B0E0E82AF92A0A2B1B2B998543
:103F300080E0AA2797FDA095BA2FE82AF92A0A2B34
:103F40001B2B0894E11CF11C011D111D3AE0EE0C25
:103F5000FF1C001F111F3A95D1F706C089E0F80138
:103F60008583EE24FF248701B701C80160960FB650
:103F7000F894DEBF0FBECDBFCF91DF911F910F919F
:103F8000FF90EF9008958F929F92AF92BF92CF9241
:103F9000DF92EF92FF920F931F93CF93DF93EC0189
:103FA0005A016B0149010115110509F47BC0C801D3
:103FB000820F931F8150924008F06FC08E8188233A
:103FC00071F088819981AA81BB81481759076A07D6
:103FD0007B0729F48F8198858816990618F5A882A1
:103FE000B982CA82DB828B85833039F069E0AA0C02
:103FF000BB1CCC1CDD1C6A95D1F7CE0161E1A6018A
:1040000095010E94441E882319F083E08D8345C0EA
:10401000CE010E94F41D882309F43FC018861F8238
:1040200081E08E838FEF8EBD8F8198852FEF05C045
:104030000DB407FEFDCF2EBD019688159905C0F37E
:1040400098878F83D801119720E030E09FEF0BC055
:104050000DB407FEFDCF8EB5F701E20FF31F80838D
:104060009EBD2F5F3F4F2A173B0790F30DB407FE0D
:10407000FDCF8EB5AE0DBF1D8C932F813885200FDF
:10408000311F38872F838985882319F020503240CB
:1040900048F0CE010E94211E05C0CE010E94B41D31
:1040A00080E001C081E0DF91CF911F910F91FF90DF
:1040B000EF90DF90CF90BF90AF909F908F9008953A
:1040C000EF92FF920F931F93790120E030E000E020
:1040D00012E00E94C31F1F910F91FF90EF9008956F
:1040E000BF92CF92DF92EF92FF920F931F93CF93E5
:1040F000DF93EC01B62E1B8619861E821D824C832F
:104100000E9408336B018C8161E00E94A933CE01CB
:104110000E94B41D8CE060E00E94A9338BE061E056
:104120000E94A9338DE061E00E94A9338AE061E03A
:104130000E94A93383E58CBD8DB58E7F8DBD80E057
:104140009FEF9EBD0DB407FEFDCF8F5F8A30C9F78C
:10415000CE010E94AE1D09C00E9408336C197D0972
:10416000615D774010F081E05EC0CE0160E020E04C
:1041700030E040E050E00E94441E182F8A878130D2
:1041800059F7CE0168E02AEA31E040E050E00E94B1
:10419000441E82FF02C01B8711C080E02FEF2EBD9E
:1041A0000DB407FEFDCF9EB58F5F8430C1F79A87AF
:1041B0009A3A11F082E037C082E08B878B8582309B
:1041C00021F0EE24FF2487010FC0E12CF12C012DFA
:1041D00070E4172F09C00E9408336C197D09615DD6
:1041E000774010F088E01FC0CE0167E320E030E0A8
:1041F00040E050E00E94441ECE0169E2A801970110
:104200000E94441E8A87882331F78B85823031F5DE
:10421000CE016AE320E030E040E050E00E94441E1E
:10422000882339F086E08D83CE010E94B41D80E0A2
:104230001CC08FEF8EBD0DB407FEFDCF8EB5807C08
:10424000803C11F483E08B8780E09FEF9EBD0DB42E
:1042500007FEFDCF2EB58F5F8330C1F7CE010E94E0
:10426000B41DCE016B2D0E94671DDF91CF911F9170
:104270000F91FF90EF90DF90CF90BF90089520E0D6
:10428000FC018385887109F421E0822F089520E0E4
:10429000FC0183858871803109F421E0822F089523
:1042A000CF93DF93EB01DC0190E020E03EE28C91C4
:1042B000803269F0283029F4FE01E90FF11D3083C6
:1042C0009F5FFE01E90FF11D8C9180839F5F2F5F3F
:1042D00011962B3061F7C90FD11D1882DF91CF9154
:1042E0000895CF93DF93EC01DB0180E090E020E2C2
:1042F000FD01E80FF91F208301968B309105C1F76E
:1043000057E040E021C02E3219F082E19CE007C066
:104310005A3019F15AE048E017C03217F1F0FC01A9
:10432000019634913323C9F75417B8F02132A8F01D
:104330002F3798F4822F81568A3108F42052FD01DC
:10434000E40FF11D20834F5F29912223E1F690E0D5
:104350008C91803219F091E001C090E0892FDF91BB
:10436000CF9108956F927F928F929F92AF92BF925A
:10437000CF92DF92EF92FF920F931F93CF93DF9331
:10438000EC017A018B012C81222309F480C08A89F7
:104390009B89AC89BD8984179507A607B70708F4E0
:1043A00076C085C0E114F1040105110549F41D82B0
:1043B0001E821F82188619861A861B861C8665C077
:1043C00029853A854B855C85EA8DFB8D858590E056
:1043D0000996215030404040504039014A01082E92
:1043E00004C096948794779467940A94D2F72F5FC9
:1043F0003F4F4F4F5F4F0894E108F1080109110941
:104400005701680104C0D694C794B794A7948A95BD
:10441000D2F70894E11CF11C011D111DA614B7046C
:10442000C804D90428F0211531054105510549F486
:104430008E899F89A88DB98D8D839E83AF83B88720
:1044400016C0A618B708C808D90811C04D815E81EA
:104450006F8178858A8D9B8D94010E9476300894B7
:10446000A108B108C108D108882331F410C085E043
:10447000882E912C8C0E9D1EA114B104C104D10470
:1044800029F7E986FA860B871C8781E001C080E066
:10449000DF91CF911F910F91FF90EF90DF90CF9020
:1044A000BF90AF909F908F907F906F900895223033
:1044B00009F078CFE6CFCF93DF93EC01462F6D85DF
:1044C0007E858F8598890E945A2E882319F420E0D2
:1044D00030E00AC08989282F30E095E0220F331F91
:1044E0009A95E1F7265F3A4FC901DF91CF91089580
:1044F0000F931F93CF93DF938C01FC01848188235A
:10450000C9F1838187FF33C0C80161E00E945B224B
:10451000EC01009779F1F8018481823040F48289BE
:104520009389A489B5898C8F9D8FAE8FBF8FF80139
:1045300086899789A08DB18D9B8F8A8FCD01AA27FF
:10454000BB279D8B8C8BE0910805F0910905309776
:1045500051F0BE016A5E7F4FCE0148960995888D65
:10456000998D9B8B8A8BF80183818F7783830E943F
:10457000FB2D01C080E0DF91CF911F910F91089535
:10458000CF93DF93EC010E947822882311F01C82E4
:1045900081E0DF91CF9108956F927F928F929F92E9
:1045A000AF92BF92CF92DF92EF92FF920F931F9341
:1045B000DF93CF9300D000D0CDB7DEB77C015A0196
:1045C0006B01DC0114968C911497813009F08FC037
:1045D00013968C9181FF8BC09EC00097A105B105F9
:1045E00011F481E085C0F70161847284838494842E
:1045F000C701B601A5010E94B221882309F477C042
:10460000D7015A968D919C915B97A114B104C10476
:10461000D10489F456964D915D916D917C91599795
:104620000E94E930882309F462C0F701168A178ACC
:10463000108E118E3DC0D70115964D915D916D91F3
:104640007C9118979E012F5F3F4F0E947630882300
:1046500009F44DC0D7015A96ED91FC915B974981C1
:104660005A816B817C818789803129F088EF9FEFA7
:10467000AFEFBFE004C088EF9FEFA0E0B0E04817C5
:1046800059076A077B07A0F4CF010E94E93088230D
:1046900071F1F7014581568167817085828D938D17
:1046A0000FEF1FEF2FEF3FE00E94DA2F8823F9F082
:1046B000D7015296AD92BD92CD92DC92559713964A
:1046C0008C911397806813968C93C7010E9478226F
:1046D000882369F0B601A5016A147B048C049D044B
:1046E00010F4B401A301C7010E94B22101C080E00F
:1046F0000F900F900F900F90CF91DF911F910F911E
:10470000FF90EF90DF90CF90BF90AF909F908F90F1
:104710007F906F900895F70182899389A489B58964
:1047200084179507A607B70708F057CFE0CFCF93B8
:10473000DF93EC0140E050E060E070E00E94CC22AA
:10474000882369F0CE0161E00E945B22FC010097A2
:1047500031F085EE80831C820E94FB2D01C080E039
:10476000DF91CF9108952F923F924F925F926F9277
:104770007F928F929F92AF92BF92CF92DF92EF92F1
:10478000FF920F931F93CF93DF93EC012A018C814B
:10479000882309F4C6C08B8180FFC3C0D8C025011F
:1047A0004E185F084B0175E0272E312C2C0E3D1E54
:1047B0003201B1C029853A854B855C856FEFA62E05
:1047C00061E0B62EA222B3228C8179018A0199E0A0
:1047D00016950795F794E7949A95D1F7EA8DFB8D96
:1047E000823049F4428D538D648D758D4E0D5F1D61
:1047F000601F711F3FC0D480DA94DE20A114B10481
:10480000D9F4DD20C9F4211531054105510549F4DC
:104810008E899F89A88DB98D8D839E83AF83B8873C
:104820000BC04D815E816F817885CF0191010E941F
:104830007630882309F475C0EA8DFB8D4D815E8149
:104840006F8178854250504060407040058404C0BC
:10485000440F551F661F771F0A94D2F786859785E8
:10486000A089B189480F591F6A1F7B1F4D0D511D2B
:10487000611D711D80E092E08A199B096301861514
:10488000970508F46C018B8186FD06C080E0C81690
:1048900082E0D80609F073C0809182019091830173
:1048A000A0918401B0918501481759076A077B07D9
:1048B00009F465C080910A0790910B079501860164
:1048C00074010E94C31F882361F18C0C9D1C12C0CF
:1048D0009501265F3A4FA9014C0D5D1DD401F901E8
:1048E00002C081918D93E417F507D9F7E21BF30B12
:1048F0008E0E9F1E960140E050E089859A85AB851B
:10490000BC85820F931FA41FB51F89879A87AB8729
:10491000BC876C187D086114710409F04BCFA201AB
:1049200002C04FEF5FEFCA01DF91CF911F910F914E
:10493000FF90EF90DF90CF90BF90AF909F908F90BF
:104940007F906F905F904F903F902F900895AA882E
:10495000BB88CC88DD88E984FA840B851C859A01A4
:1049600040E050E0D601C5018E199F09A00BB10BA4
:1049700082179307A407B50708F411CF13CFCB0113
:10498000BA0140E00E945A2E882309F0A1CFC9CF76
:10499000CF92DF92EF92FF920F931F93DF93CF930B
:1049A0000F92CDB7DEB76C01FC018481823070F0CC
:1049B000E184F28403851485C601BE016F5F7F4FD9
:1049C00041E050E00E94B323019769F020E030E01D
:1049D000C9010F90CF91DF911F910F91FF90EF9040
:1049E000DF90CF900895F60181859285A385B485E7
:1049F0004F96A11DB11D81879287A387B487F5E0EB
:104A000016950795F794E794FA95D1F78E2D8F7048
:104A1000282F30E0E5E0220F331FEA95E1F7265F0B
:104A20003A4FD6CFCF93DF93EC018C81843079F568
:104A30001D821E821F82188619861A861B861C8676
:104A400010C0CE010E94C824FC01009701F18081B2
:104A50008823A1F0853E29F08E3219F0838583FFEB
:104A600016C029853A854B855C858A899B89AC89E6
:104A7000BD89281739074A075B0718F381E08C8343
:104A80008B8182608B83CE010E94972301C080E0DE
:104A9000DF91CF9108955F926F927F928F929F9254
:104AA000AF92BF92CF92DF92EF92FF920F931F933C
:104AB000CF93DF936C01562E49015A013801FC0156
:104AC0001582168217821086118612861386148626
:104AD000EE24FF24870120C08881882319F1853EB8
:104AE000D9F08E32C9F08B858871B1F4F2E05F168F
:104AF00071F4E814F9040A051B0549F4CE01B30169
:104B00000E945021EC8CFD8C0E8D1F8D0BC00894E3
:104B1000E11CF11C011D111DC6010E94C824EC01FD
:104B20000097D1F6B701C801DF91CF911F910F9186
:104B3000FF90EF90DF90CF90BF90AF909F908F90BD
:104B40007F906F905F900895DF93CF9300D00F9286
:104B5000CDB7DEB7282F6AE00E940938805D8983CF
:104B6000822F0E940938905D9A831B828FE197E023
:104B7000BE016F5F7F4F0E9435360F900F900F90F0
:104B8000CF91DF910895EF92FF920F931F938C01C5
:104B9000812F8695869586950E94A425BFE1EB2EF0
:104BA000B7E0FB2EC7016AE340E050E00E943F37C8
:104BB000C801A5E096958795AA95E1F78F730E94A5
:104BC000A425C7016AE340E050E00E943F370F711F
:104BD0001070802F880F0E94A4251F910F91FF90C5
:104BE000EF900895EF92FF920F931F937C010FE1D6
:104BF00017E0BC01672F772766956454784FC8018A
:104C00004AE050E00E94E636C8016DE240E050E024
:104C10000E943F37C70125E0969587952A95E1F7D1
:104C20008F700E94A425C8016DE240E050E00E9410
:104C30003F378E2D8F710E94A4251F910F91FF90F9
:104C4000EF900895DF92EF92FF920F931F93CF930F
:104C5000DF937C01D62EEC0110E000E088818032E9
:104C600091F0083041F48FE197E06EE240E050E0CF
:104C70000E943F371F5F8FE197E0688140E050E07E
:104C80000E94F7361F5F0F5F21960B3039F7F7014F
:104C900083858871803161F48FE197E06FE203C012
:104CA0008FE197E060E240E050E00E943F371F5FF5
:104CB0001D15B0F3DF91CF911F910F91FF90EF90F1
:104CC000DF9008950F931F93CF93DF93EC018B0137
:104CD0008C81882309F041C0FB0187898031B1F4C0
:104CE00082E08C831E8A1F8A188E198E808D918D8A
:104CF000A0E0B0E045E0880F991FAA1FBB1F4A95AE
:104D0000D1F78A8B9B8BAC8BBD8B15C0803229F57C
:104D100083E08C83FB01428D538D648D758D4E8BAA
:104D20005F8B688F798F9E012E5E3F4FC8010E9476
:104D30004231882391F01B8F0A8F81E08B831D8283
:104D40001E821F82188619861A861B861C861D865F
:104D50001E861F86188A198A01C080E0DF91CF91D4
:104D60001F910F9108951F93CF93DF93EC01142FA0
:104D7000E62FF0E075E0EE0FFF1F7A95E1F7E65FB2
:104D8000FA4F8385817121F0842F827409F054C019
:104D9000698B8091820190918301A0918401B091EF
:104DA00085018D879E87AF87B88B84899589A0E020
:104DB000B0E0BC0155274427828D938DA0E0B0E080
:104DC000482B592B6A2B7B2B4E8B5F8B688F798FEF
:104DD000838590E088719070009751F4848D958D53
:104DE000A68DB78D8A8B9B8BAC8BBD8B81E00CC065
:104DF000409711F59E012E5E3F4F8A8D9B8D0E943C
:104E000042318823C9F084E08C83812F8F708B839B
:104E10001D821E821F82188619861A861B861C8692
:104E200016FD02C081E009C0CE0140E050E060E024
:104E300070E00E94CC2201C080E0DF91CF911F91F1
:104E40000895DF92EF92FF920F931F93CF93DF931A
:104E50008C01EB017A01D22EFC018481882341F57B
:104E6000822F8073803321F18A8D9B8D938F828F67
:104E7000E5E0440F551FEA95E1F760E070E0CE01F0
:104E80000E94B2218823A1F0CE010E94C824FC0117
:104E9000009771F08081882359F0853E49F08E3269
:104EA00039F06E2D6F70C8014D2D0E94B32601C0E0
:104EB00080E0DF91CF911F910F91FF90EF90DF90F5
:104EC00008958F929F92AF92BF92CF92DF92EF920E
:104ED000FF920F931F93DF93CF93CDB7DEB7AA97BF
:104EE0000FB6F894DEBF0FBECDBF8C01FC0115825A
:104EF0001682178210861186128613861486BAE8E7
:104F00008B2EB1E09B2E5E010894A11CB11C53C0F6
:104F10009A8289821D82C8010E94C824FC010097E0
:104F200009F463C08081882309F454C0853E09F4E4
:104F300042C08E3209F43FC0838583FD3CC0A70187
:104F40009601A5E05695479537952795AA95D1F7EF
:104F50007901C501B801A90121E00E942127882318
:104F600009F443C08D81843021F4C5010E9461277A
:104F700006C08C8182608C83C5010E9497238823A0
:104F8000A1F10894E11CF11CF5E0EE0CFF1CFA9570
:104F9000E1F7A70160E070E0F80181859285A385C3
:104FA000B48584179507A607B70729F0C8010E94A2
:104FB000B2218823D1F0F801C184D284E384F4843F
:104FC00082899389A489B589C816D906EA06FB06A1
:104FD00008F49ECFF80184818250823010F481E081
:104FE00005C0C8010E94122501C080E0AA960FB634
:104FF000F894DEBF0FBECDBFCF91DF911F910F910F
:10500000FF90EF90DF90CF90BF90AF909F908F90E8
:1050100008952F923F924F925F926F927F928F925C
:105020009F92AF92BF92CF92DF92EF92FF920F9337
:105030001F93DF93CF93CDB7DEB7E3970FB6F89406
:10504000DEBF0FBECDBF6C016BA74CA73901480175
:10505000FEA6EDA6FC011582168217821086118627
:105060001286138614865CE1A52EB12CA80EB91EFB
:10507000862F90E09C012370307038AB2FA7FC0185
:10508000E170F070FAABE9AB34E0232E312C28222A
:105090003922F42FFE5FFBAB22E0422E512C482236
:1050A0005922A8C0F8018081882309F4AAC0853E4E
:1050B00009F4A0C08E3209F49DC0C8012DA53EA5FB
:1050C000F9010995882309F495C06114710471F000
:1050D0008114910459F0C801B5010E945021C40106
:1050E000B501F3010995882309F484C0FF2408C0A1
:1050F0008FE197E060E240E050E00E943F37F39498
:105100003CA5F316A9F78FA598A9892B11F460E0A7
:1051100001C06EE0C8010E942226E9A9FAA9EF2B7E
:1051200089F0F801808D918D0E94F2258FE197E042
:1051300060E240E050E00E943F37F801868997899D
:105140000E94C325F801838588718031A9F041143C
:10515000510491F08FE197E060E240E050E00E945E
:105160003F37F801448D558D668D778D8FE197E03F
:105170002AE030E00E94D7368FE197E00E94533753
:1051800021143104B9F1F80183858871803191F5DA
:10519000F60181859285A385B48505E0B695A7952E
:1051A000979587950A95D1F77C012AE831E03A83F3
:1051B00029831D82AC0141505040CE010196B601B9
:1051C00021E00E942127882351F0CE0101966BA592
:1051D0004BA920E030E000E010E00E941A2915E021
:1051E000EE0CFF1C1A95E1F7A70160E070E0C60124
:1051F0000E94B221C6010E94C8248C01009709F0C8
:1052000051CFE3960FB6F894DEBF0FBECDBFCF915E
:10521000DF911F910F91FF90EF90DF90CF90BF90A3
:10522000AF909F908F907F906F905F904F903F9046
:105230002F9008956F927F928F929F92AF92BF921C
:10524000CF92DF92EF92FF920F931F936C01762E15
:10525000642E5901E7E4EE2EE1E2FE2E0E940928B9
:10526000C601672D462D95017FE3E72E71E2F72EEB
:105270000E9409281F910F91FF90EF90DF90CF902F
:10528000BF90AF909F908F907F906F900895CF9335
:10529000DF93EC019C012B5F3F4F8A8D9B8D41E09A
:1052A00050E060E070E00E94B1318823A1F08E8967
:1052B0009F89A88DB98D0097A105B10559F48D81FD
:1052C0009E81AF81B8858E8B9F8BA88FB98F8B8184
:1052D00080688B8381E0DF91CF9108952F923F9278
:1052E0004F925F927F928F929F92AF92BF92CF9296
:1052F000DF92EF92FF920F931F93DF93CF9300D033
:1053000000D000D0CDB7DEB76C01162F072F5E831B
:105310004D83DC0114968C911497813009F075C18E
:1053200013968C9181FF71C18FC1F6014289538917
:105330006489758981859285A385B48584179507CD
:10534000A607B70731F0C6010E94B221882309F4ED
:105350005CC1812F902F9C0129012D803E8019C1B5
:10536000D6015A96ED91FC915B97DA01C90119E0DB
:10537000B695A795979587951A95D1F774807A94E5
:105380007822AFEF8A2EA1E09A2E822293227720F4
:1053900009F050C08114910409F04CC0D601159653
:1053A0004D915D916D917C91189741155105610565
:1053B000710581F456968D919D910D90BC91A02D13
:1053C0000097A105B10559F1F60185839683A7835E
:1053D000B08730C0CF019E012F5F3F4F0E947630D3
:1053E000882319F440E050E016C129813A814B81AD
:1053F0005C81D6015A96ED91FC915B97878980314B
:1054000029F088EF9FEFAFEFBFE004C088EF9FEF78
:10541000A0E0B0E0281739074A075B0730F0C60163
:105420000E944729882331F4F0C0F6012583368392
:105430004783508780E092E08819990951018215CD
:10544000930508F45C01D6015A96ED91FC915B97A7
:105450001596ED90FD900D911C9118978EEF9FEF92
:10546000AFEFBFEFE80EF91E0A1F1B1F058404C033
:10547000EE0CFF1C001F111F0A94D2F7868597853A
:10548000A089B189E80EF91E0A1F1B1FE70CF11C49
:10549000011D111D90E0A91692E0B90651F5809109
:1054A000820190918301A0918401B09185018E15B4
:1054B0009F05A007B10761F48FEF9FEFAFEFBFEF3C
:1054C0008093820190938301A0938401B09385011E
:1054D00080910A0790910B07B801A70192010E94E1
:1054E000971E882309F491C0A0E0B2E04A0E5B1E2B
:1054F0003EC08114910409F5F6012185328543856A
:10550000548582899389A489B589281739074A0760
:105510005B0798F00E94FB2D882309F476C0E09287
:105520008201F092830100938401109385018091A0
:105530000C07816080930C0708C0C801B70141E0E7
:105540000E945A2E882309F460C09401265F3A4FC6
:10555000A9014A0D5B1DD201F90102C08D91819311
:10556000E417F507D9F7E21BF30B4E0E5F1E2A185E
:105570003B08950140E050E0F60181859285A385C6
:10558000B485820F931FA41FB51F81879287A387BD
:10559000B487D60119962D913D914D915C911C9740
:1055A0002114310409F0DCCE52968D919D910D901D
:1055B000BC91A02D82179307A407B50748F4F60104
:1055C000228B338B448B558B83818068838311C0FE
:1055D0008091080590910905892B59F08D819E8154
:1055E000892B39F0D60113968C9113978068139606
:1055F0008C93F601838183FF05C0C6010E94782247
:10560000882319F04D815E8106C081E0D601129693
:105610008C934FEF5FEFCA0126960FB6F894DEBF6A
:105620000FBECDBFCF91DF911F910F91FF90EF90F3
:10563000DF90CF90BF90AF909F908F907F905F90C2
:105640004F903F902F90089582FD6FCE82CEDB0168
:105650000D900020E9F71197A61BB70BAD010E9432
:105660006E290895DF93CF930F92CDB7DEB769838C
:10567000BE016F5F7F4F41E050E00E946E290F90A6
:10568000CF91DF910895DF92EF92FF920F931F93D6
:10569000CF93DF93EC010E944729882309F44EC081
:1056A000EA8DFB8DED80FE800F8118858EEF9FEFD8
:1056B000AFEFBFEFE80EF91E0A1F1B1F058404C0E1
:1056C000EE0CFF1C001F111F0A94D2F786859785E8
:1056D000A089B189E80EF91E0A1F1B1FD480089407
:1056E000E108F108010911090BC0C801B7016D0DEE
:1056F000711D811D911D0E94362E8823F9F0DA94C8
:10570000DD2099F7EA8DFB8D20E032E040E050E0AB
:10571000058404C0220F331F441F551F0A94D2F77B
:105720008A899B89AC89BD89820F931FA41FB51FED
:105730008A8B9B8BAC8BBD8B81E001C080E0DF91BD
:10574000CF911F910F91FF90EF90DF9008956F928E
:105750007F928F929F92AF92BF92CF92DF92EF9201
:10576000FF920F931F93DF93CF93CDB7DEB72B97A5
:105770000FB6F894DEBF0FBECDBF5C016B01822E69
:10578000DC0114968C91882309F0D2C0CA018E01E5
:105790000F5F1F4FB8010E947121882309F4C8C010
:1057A000F601828D938DD5015B969C938E935A97CB
:1057B0001582168217821086D60119961D921D92A7
:1057C0001D921C921C979924380141C0C6010E9469
:1057D000C824FC01009709F4ABC085E01695079535
:1057E000F794E7948A95D1F71E2D1F708081882346
:1057F00011F0853ED1F4992091F4D50151961C9376
:105800005197209182013091830140918401509100
:1058100085011D962D933D934D935C935097808108
:10582000882399F49924939421C0C301BF014BE0CC
:1058300050E00E949F06009751F4882D80738033BA
:1058400009F476C0C501612F6FC099249394F601C5
:10585000E184F2840385148582899389A489B589BA
:10586000E816F9060A071B0708F4B0CF882D8271E5
:10587000823109F05DC0992041F0C50161E00E94CC
:105880005B228C01009789F453C0D60114968C9149
:10589000823009F44DC0C6010E94432B882309F4CD
:1058A00047C0F501118A0AE015E080E2D8011D9297
:1058B0008A95E9F7D801FE0131968BE001900D92AF
:1058C0008150E1F7E0910805F0910905309739F032
:1058D000B801625F7F4FC8014096099509C081E217
:1058E00098E2F801918B808B80E098E0978786871B
:1058F000D80150968D919C91519753969C938E937D
:10590000529759969C938E9358971E968D919C9181
:105910001F9757969C938E9356970E94FB2D882332
:1059200039F0C501F5016189482D0E94B32601C0F7
:1059300080E02B960FB6F894DEBF0FBECDBFCF919F
:10594000DF911F910F91FF90EF90DF90CF90BF906C
:10595000AF909F908F907F906F9008950F931F93BB
:10596000DF93CF93CDB7DEB7AA970FB6F894DEBF1B
:105970000FBECDBF9C01AB018AE891E09A83898379
:105980001D828E010F5F1F4FC801B90122E00E94E6
:10599000A72B882319F0C8010E949723AA960FB657
:1059A000F894DEBF0FBECDBFCF91DF911F910F9155
:1059B00008956F927F928F929F92AF92BF92CF92F3
:1059C000DF92EF92FF920F931F93CF93DF93EC013F
:1059D0003B014A0159016115710509F44AC041159D
:1059E000510509F446C01D821E821F821886198641
:1059F0001A861B861C869CE1C92ED12CCC0EDD1E7E
:105A0000EE24FF2487012EC080818823A9F1853EE2
:105A100049F18E3239F18385887121F5CF01B601C4
:105A20000E945021C401B601F30109958823D1F0E9
:105A3000CE01B6010E94AE2C882371F00894E11CBF
:105A4000F11C011D111D1D821E821F8218861986E0
:105A50001A861B861C8606C0A114B10419F0C60163
:105A6000F5010995CE010E94C824FC01009761F65A
:105A700003C0EE24FF248701B701C801DF91CF9155
:105A80001F910F91FF90EF90DF90CF90BF90AF905C
:105A90009F908F907F906F900895EF92FF920F9359
:105AA0001F93DF93CF93CDB7DEB7A0970FB6F894CF
:105AB000DEBF0FBECDBF8C017B0123E30E94A72B6D
:105AC000882309F48AC081E0D80113968C93139738
:105AD00084E014968C93C8010E94432B882309F418
