:100000000C942C060C9454060C9454060C94540630
:100010000C9454060C9454060C9454060C945406F8
:100020000C9454060C9454060C9454060C945406E8
:100030000C9454060C9454060C9454060C945406D8
:100040000C945A320C9454060C9485090C94540662
:100050000C9454060C9454060C9454060C945406B8
:100060000C9454060C94540652656D6F76652066A8
:1000700061696C65643A20006F70656E526F6F74D1
:1000800000766F6C756D652E696E697400636172C0
:10009000642E696E6974006572726F72207772697E
:1000A00074696E6720746F2066696C6500437265C1
:1000B00061746520636F6E666967206661696C654F
:1000C000640052656D6F766520636F6E66696720A8
:1000D0006661696C6564006F70656E526F6F740065
:1000E0006F70656E526F6F740045786974696E67E2
:1000F0000078000A0D4E756D626572206F6620658E
:1001000073636170652063686172616374657273A3
:10011000206E65656465643A20000A0D456E74655D
:1001200072206E756D626572206F66206573636103
:100130007065206368617261637465727320746FA7
:10014000206C6F6F6B20666F7220283120746F20D7
:1001500039293A200036000A0D4E65772065736311
:10016000617065206368617261637465723A200032
:10017000456E7465722061206E65772065736361DA
:100180007065206368617261637465723A2000353E
:10019000004E65772066696C65206E756D626572CC
:1001A00020726573657420746F207A65726F0034F5
:1001B00000436F6D6D616E642070726F6D707400BE
:1001C0003300417070656E642066696C65206C6FE9
:1001D0006767696E670032004E65772066696C65F7
:1001E000206C6F6767696E67003100782920457859
:1001F0006974003629204E756D626572206F662025
:1002000065736361706520636861726163746572B0
:1002100073003529204E6577206573636170652012
:10022000636861726163746572003429205265737A
:100230006574206E65772066696C65206E756D62E9
:10024000657200332920436F6D6D616E642070729A
:100250006F6D707400322920417070656E64206685
:10026000696C65206C6F6767696E67003129204E85
:1002700065772066696C65206C6F6767696E6700DB
:100280004368616E676520746F3A002078200043F0
:10029000757272656E742065736361706520636842
:1002A0006172616374657220616E6420616D6F7547
:1002B0006E743A2000436F6D6D616E640041707022
:1002C000656E642066696C65004E65772066696CB2
:1002D000650043757272656E7420626F6F74206D75
:1002E0006F64653A20000D0A53797374656D20437D
:1002F0006F6E66696775726174696F6E00457869C3
:1003000074696E67007800476F696E6720746F20AC
:100310003131353230306270732E2E2E0036004768
:100320006F696E6720746F203537363030627073B6
:100330002E2E2E003500476F696E6720746F2031B6
:10034000393230306270732E2E2E003400476F69C0
:100350006E6720746F20393630306270732E2E2E07
:10036000003300476F696E6720746F203438303077
:100370006270732E2E2E003200476F696E672074F4
:100380006F20323430306270732E2E2E00310078A0
:1003900029204578697400362920313135323030D2
:1003A0002062707300352920353736303020627076
:1003B00073003429203139323030206270730033B9
:1003C00029203936303020627073003229203438C9
:1003D0003030206270730031292032343030206296
:1003E0007073004368616E676520746F3A00303047
:1003F00020627073003131353200353736003139C3
:100400003200393600323400343800437572726578
:100410006E743A20000A0D4261756420436F6E6667
:10042000696775726174696F6E3A0062617564091B
:1004300009093A204D656E7520746F20636F6E66F2
:100440006967757265206261756420726174650008
:100450007365740909093A204D656E7520746F2023
:10046000636F6E6669677572652073797374656D05
:10047000206D6F6465000A0D4D656E75733A0073EB
:10048000796E630909093A20456E737572657320A8
:10049000616C6C2062756666657265642064617467
:1004A00061206973207772697474656E20746F209F
:1004B000746865206361726400696E697409090972
:1004C0003A205265696E697469616C697A65732056
:1004D000616E642072656F70656E7320746865204C
:1004E0006D656D6F72792063617264006469736B0E
:1004F0000909093A2053686F777320636172642099
:100500006D616E7566616374757265722C207374AB
:10051000617475732C2066696C6573797374656D8D
:1005200020636170616369747920616E6420667212
:1005300065652073746F72616765207370616365B0
:100540000073697A65203C66696C653E09093A204A
:1005500057726974652073697A65206F66206669D1
:100560006C6520746F207465726D696E616C0072C9
:10057000656164203C66696C653E203C7374617201
:10058000743E203C6C656E6774683E203C747970E4
:10059000653E09093A2057726974657320415343D7
:1005A0004949203C6C656E6774683E2070617274C6
:1005B00073206F66203C66696C653E20746F207402
:1005C0006865207465726D696E616C207374617208
:1005D00074696E67206174203C73746172743E2E7E
:1005E000204F6D6974203C73746172743E20616E9B
:1005F00064203C6C656E6774683E20746F20726581
:1006000061642077686F6C652066696C652E203C9C
:10061000747970653E2031207072696E7473206940
:100620006E2041534349492C203220696E204845B1
:10063000582E006C730909093A2053686F777320AC
:1006400074686520636F6E74656E74206F662074C5
:1006500068652063757272656E7420646972656383
:10066000746F72792E205573652077696C646361AD
:10067000726420746F20646F20612077696C6463FA
:10068000617264206C697374696E67206F6620669E
:10069000696C657320696E2063757272656E742073
:1006A0006469726563746F7279006364202E2E0929
:1006B000093A204368616E67657320746F206C6F20
:1006C000776572206469726563746F727920696EF0
:1006D0002074726565006364203C646972656374AC
:1006E0006F72793E09093A204368616E676573202D
:1006F00063757272656E7420776F726B696E6720B6
:100700006469726563746F727920746F203C6469E8
:10071000726563746F72793E006D64203C64697227
:100720006563746F72793E093A204372656174653E
:10073000732061206469726563746F7279206361EC
:100740006C6C6564203C6469726563746F72793E99
:1007500000726D203C66696C653E09093A2044656B
:100760006C65746573203C66696C653E2E2055731C
:10077000652077696C646361726420746F20646FB4
:1007800020612077696C64636172642072656D6FAB
:1007900076616C206F662066696C6573007772699C
:1007A0007465203C66696C653E203C6F66667365C7
:1007B000743E093A205772697465732074657874C1
:1007C00020746F203C66696C653E2C2073746172E6
:1007D00074696E672066726F6D203C6F6666736524
:1007E000743E2E20546865207465787420697320E7
:1007F000726561642066726F6D2074686520554172
:1008000052542C206C696E65206279206C696E658B
:100810002E2046696E697368207769746820616E5E
:1008200020656D707479206C696E6500617070650B
:100830006E64203C66696C653E09093A204170701F
:10084000656E6473207465787420746F20656E64BF
:10085000206F66203C66696C653E2E2054686520DA
:100860007465787420697320726561642066726FA4
:100870006D20746865205541525420696E206120B6
:1008800073747265616D20616E64206973206E6F90
:1008900074206563686F65642E2046696E697368AD
:1008A0002062792073656E64696E67204374726C90
:1008B0002B7A2028415343494920323629006E655E
:1008C00077203C66696C653E09093A204372656190
:1008D000746573203C66696C653E00417661696CA5
:1008E00061626C6520636F6D6D616E64733A004F79
:1008F00070656E4C6F672076322E3400756E6B6EAD
:100900006F776E20636F6D6D616E643A200065666F
:10091000696E666F00636F756E747C006566636FE9
:10092000756E74006F6666006F6E0065656D006FB2
:100930006666006F6E00766572626F7365006F6643
:1009400066006F6E006563686F00707764006170A9
:1009500070656E64004572726F72206372656174B7
:10096000696E672066696C653A20006E6577007372
:10097000796E6300204B4200436172642053697AB0
:10098000653A200072656164435344206661696C76
:100990006564004D616E75666163747572696E673A
:1009A00020646174653A200053657269616C206E41
:1009B000756D6265723A20000A0D56657273696F33
:1009C0006E3A200050726F647563743A20004F4590
:1009D0004D2049443A20004D616E7566616374751F
:1009E0007265722049443A2000726561644349444B
:1009F000206661696C656400556E6B6E6F776E0082
:100A0000534448430053443200534431000A436185
:100A1000726420747970653A20006469736B002DEC
:100A2000310073697A65006572726F72207772693E
:100A300074696E6720746F2066696C650A0D0045E5
:100A400072726F72207365656B696E6720746F20B8
:100A5000004661696C656420746F206F70656E205C
:100A600066696C6520007772697465004572726F03
:100A700072207365656B696E6720746F2000466134
:100A8000696C656420746F206F70656E2066696C98
:100A900065200072656164006364002D72660072F7
:100AA0006D006572726F72206372656174696E6742
:100AB000206469726563746F72793A20006D640016
:100AC000566F6C756D6520697320464154006C73D8
:100AD0000073657400626175640068656C70003F46
:100AE0000046696C652073797374656D20696E6961
:100AF0007469616C697A6564006F70656E526F6FBE
:100B00007400436C6F73696E6720646F776E206644
:100B1000696C652073797374656D00696E69740022
:100B20006469726563746F7279206E6F7420666F8A
:100B3000756E643A200063616E6E6F74206364208A
:100B4000746F20706172656E74206469726563747D
:100B50006F72793A20006F70656E526F6F74002E5D
:100B60002E007E006F70656E31004572726F7220CC
:100B70006372656174696E67205345514C4F470A33
:100B80000021546F6F206D616E79206C6F67733A2E
:100B900032210021546F6F206D616E79206C6F6778
:100BA000733A3121006572726F72206F70656E52F8
:100BB0006F6F74006572726F7220766F6C756D6501
:100BC0002E696E6974006572726F7220636172645F
:100BD0002E696E6974005344206572726F723A20F8
:100BE000006572726F723A20007C3C3E5E2B3D3F86
:100BF0002F5B5D3B2C2A225C0000000000240027B4
:100C0000002A0000000000250028002B0000000042
:100C10000023002600290004040404040404040240
:100C20000202020202030303030303010204081089
:100C30002040800102040810200102040810200056
:100C4000000007000201000003040600000000008D
:100C500000000000EC09573511241FBECFEFD8E08B
:100C6000DEBFCDBF11E0A0E0B1E0E6E5F0E702C0F5
:100C700005900D92AC39B107D9F717E0ACE9B1E0B6
:100C800001C01D92AC32B107E1F71CE0C8E5DCE021
:100C900004C02297FE010E94EE37C435D107C9F780
:100CA0000E9491350C9429380C940000FC0188278F
:100CB0009927E89421912032E9F3293010F02E3061
:100CC000C8F32B3241F02D3239F4689404C00E94ED
:100CD000C906820F911D219120532A30C0F31EF4C2
:100CE000909581959F4F0895FB01DC018D910590B2
:100CF00080190110D9F3990B0895FB01DC014150D3
:100D0000504030F08D910590801919F40020B9F70A
:100D1000881B990B0895FB01DC0104C08D910190A3
:100D2000801921F441505040C8F7881B990B089551
:100D3000DC0101C06D9341505040E0F70895FB0184
:100D4000DC010D900020E9F7119701900D92002031
:100D5000E1F70895FB01DC018D91019080190110EC
:100D6000D9F3990B0895FB01DC0101900D9200204D
:100D7000E1F70895FB01DC014150504048F001903B
:100D80000D920020C9F701C01D9241505040E0F77C
:100D900008957AE0979F902D879F802D910D1124C3
:100DA0000895AEE0B0E0E7EDF6E00C9400380D8970
:100DB0001E8986E08C831A8309838FEF9FE79E83C9
:100DC0008D839E01275E3F4FCE0101966F89788DFE
:100DD000A9010E94F5062F813885020F131FF80123
:100DE00010822E96E4E00C941C38ABE0B0E0EBEF00
:100DF000F6E00C94F2373C012B015A01FC011782FA
:100E00001682838181FD03C06FEF7FEFC6C19AE038
:100E1000892E1E010894211C311CF3012381F2014B
:100E200023FD859123FF81912F01882309F4B2C10D
:100E3000853239F423FD859123FF81912F0185327D
:100E400029F490E0B3010E94E808E7CF982FFF242F
:100E5000EE249924FFE1FF15D0F09B3269F09C321B
:100E600028F4903259F0933291F40EC09D3249F03B
:100E7000903369F441E024C052E0F52A84E0F82A76
:100E800028C098E0F92A25C0E0E1FE2A22C0F7FC3C
:100E900029C0892F80538A3070F4F6FE05C0989CD3
:100EA000902C1124980E15C0E89CE02C1124E80E1B
:100EB000F0E2FF2A0EC09E3229F4F6FC6BC140E43A
:100EC000F42A07C09C3619F450E8F52A02C0983677
:100ED00049F4F20123FD959123FF91912F0199236C
:100EE00009F0B8CF892F8554833018F080528330B1
:100EF00038F444E050E0A40EB51E5FE359830FC000
:100F0000933631F0933779F0933509F056C020C00D
:100F1000F5018081898342E050E0A40EB51E610195
:100F200001E010E012C0F501C080D180F6FC03C0E2
:100F30006FEF7FEF02C0692D70E042E050E0A40E39
:100F4000B51EC6010E94DD088C015FE7F52214C0C2
:100F5000F501C080D180F6FC03C06FEF7FEF02C0C7
:100F6000692D70E042E050E0A40EB51EC6010E945B
:100F7000D2088C0150E8F52AF3FE07C01AC080E2BF
:100F800090E0B3010E94E808EA948E2D90E00817E3
:100F90001907A8F30EC0F601F7FC8591F7FE8191C1
:100FA0006F0190E0B3010E94E808E110EA9401505B
:100FB00010400115110579F7EAC0943611F0993601
:100FC00069F5F7FE08C0F501208131814281538126
:100FD00084E090E00AC0F501808191819C01442762
:100FE00037FD4095542F82E090E0A80EB91E9FE691
:100FF000F92257FF09C050954095309521953F4FF4
:101000004F4F5F4FE0E8FE2ACA01B901A1012AE073
:1010100030E00E941409D82ED21840C0953729F428
:101020001F2D1F7E2AE030E01DC01F2D197F9F3627
:1010300061F0903720F4983509F0ACC00FC09037BC
:1010400039F0983709F0A6C004C028E030E00AC0A3
:10105000106114FD146020E130E004C014FD16603E
:1010600020E132E017FF08C0F501608171818281C3
:10107000938144E050E008C0F50180819181BC017A
:1010800080E090E042E050E0A40EB51EA1010E9475
:101090001409D82ED2188FE7F82EF122F6FE0BC0D5
:1010A0005EEFF522D91438F4F4FE07C0F2FC05C057
:1010B0008FEEF82202C01D2D01C0192DF4FE0DC0C7
:1010C000FE01ED0DF11D8081803319F499EEF922B6
:1010D00008C01F5FF2FE05C003C08F2D867809F09F
:1010E0001F5F0F2DF3FC14C0F0FE0FC01E1510F093
:1010F0009D2C0BC09D2C9E0C911A1E2D06C080E2CB
:1011000090E0B3010E94E8081F5F1E15C0F304C001
:101110001E1510F4E11A01C0EE2404FF0FC080E395
:1011200090E0B3010E94E80802FF1DC001FD03C06A
:1011300088E790E00EC088E590E00BC0802F8678AD
:1011400091F001FF02C08BE201C080E2F7FC8DE26A
:1011500090E0B3010E94E80806C080E390E0B3018C
:101160000E94E8089A94D914C0F3DA94F101ED0DC5
:10117000F11D808190E0B3010E94E808DD20A9F70D
:1011800006C080E290E0B3010E94E808EA94EE20F5
:10119000C1F743CEF30166817781CB012B96E2E163
:1011A0000C940E38FC010590615070400110D8F786
:1011B000809590958E0F9F1F0895FC01615070409F
:1011C00001900110D8F7809590958E0F9F1F08957C
:1011D0000F931F93CF93DF938C01EB018B8181FFE2
:1011E0001BC082FF0DC02E813F818C819D812817FD
:1011F000390764F4E881F9810193F983E88306C033
:10120000E885F985802F0995892B31F48E819F819E
:1012100001969F838E8302C00FEF1FEFC801DF91FD
:10122000CF911F910F910895FA01AA27283051F10B
:10123000203181F1E8946F936E7F6E5F7F4F8F4F07
:101240009F4FAF4FB1E03ED0B4E03CD0670F781F66
:10125000891F9A1FA11D680F791F8A1F911DA11D4B
:101260006A0F711D811D911DA11D20D009F4689484
:101270003F912AE0269F11243019305D3193DEF62C
:10128000CF010895462F4770405D4193B3E00FD0E2
:10129000C9F7F6CF462F4F70405D4A3318F0495DCD
:1012A00031FD4052419302D0A9F7EACFB4E0A695B0
:1012B0009795879577956795BA95C9F700976105D2
:1012C000710508959B01AC010A2E06945795479528
:1012D00037952795BA95C9F7620F731F841F951F1D
:1012E000A01D0895F999FECF72BD61BDF89A80B531
:1012F0000895F999FECF1FBA72BD61BD40BD0FB60A
:10130000F894FA9AF99A0FBE08951F920F920FB6A9
:101310000F9211242F938F939F93EF93FF938091BC
:101320009D0390919E032091C600FC01E356FE4F61
:101330002083019690939E0380939D03805092405A
:1013400021F410929E0310929D03FF91EF919F91C3
:101350008F912F910F900FBE0F901F901895FC0149
:10136000DB0108C0891721F08F3311F080E0089568
:10137000319611969C919923F1F080818A3291F7F0
:101380001AC080818A3259F431968081882311F401
:1013900081E008959D012F5F3F4FAF0110C0891775
:1013A00011F08F3319F43196119609C0FA01D90161
:1013B0002F5F3F4F04C020E030E040E050E09C91C0
:1013C0009923F9F601C0319690819A32E1F380E0D9
:1013D000992309F481E0089510927604109277041D
:1013E00010927A0410927C0482E090E0A0E0B0E0D9
:1013F00080937D0490937E04A0937F04B093800437
:101400001092940484E891E090939C0480939B0450
:1014100010929F049093C6048093C5041092C9044F
:101420000895EF92FF920F931F937C0109E117E05B
:10143000C80168E670E00E94CF35C801B7010E947C
:1014400042371F910F91FF90EF900895CF93DF9354
:10145000EC018FE0E3EFF4E0DF011D928A95E9F7FC
:1014600050E041E0A62FB0E039C0242F30E0FE016B
:10147000E20FF31F8081803229F02F5F3F4F2A1740
:101480003B0759F5842F90E001968A179B0709F4D2
:10149000462FE3EFF4E020E080819181892B19F061
:1014A000828181112F5F339685E0E230F807A1F742
:1014B000253088F4822F90E0FC01EE0FFF1FE80F2B
:1014C000F91FED50FB4FCE01850F911D9183808355
:1014D000842F851B82834F5F542F4F5F461728F25E
:1014E000E3EFF4E020E080819181892B19F0828183
:1014F00081112F5F3396A5E0E230FA07A1F7822F22
:10150000DF91CF910895982F8EE1EFE9F3E0DF01AD
:101510001D928A95E9F79530E8F4892F90E0FC0157
:10152000EE0FFF1FE80FF91FED50FB4F6081718137
:101530006115710579F04281442361F04F3118F053
:101540004EE150E001C050E08FE993E00E94BA06FE
:101550009C0102C020E030E0C90108950F931F9361
:101560000CE911E0C80161E070E041E00E947909F6
:10157000C80162E070E040E00E947909C80165E0BE
:1015800070E04AE10E947909C80166E070E043E03A
:101590000E9479091F910F9108950F931F93CF9384
:1015A000DF93C0E0D0E0082F10E017C080917701F2
:1015B00061E00E94693368EC70E080E090E00E9496
:1015C000B0328091770160E00E94693368EC70E08E
:1015D00080E090E00E94B0322196C017D10734F32A
:1015E00060ED77E080E090E00E94B032C0E0D0E0B3
:1015F000F4CF0F931F93CF93DF93EC018B0141E066
:101600000E942F2E882311F081E005C0CE01B80181
:1016100040E00E942F2EDF91CF911F910F910895EE
:101620008CE991E061E070E00E9472098093EF0420
:101630008B3050F081E08093EF048CE991E061E021
:1016400070E041E00E9479098CE991E062E070E08D
:101650000E9472098093F004863048F01092F004E2
:101660008CE991E062E070E040E00E9479098CE949
:1016700091E065E070E00E9472098093F10481506E
:101680008E3F50F08AE18093F1048CE991E065E0AF
:1016900070E04AE10E9479098CE991E066E070E02F
:1016A0000E9472098093F20481508E3F50F083E0D3
:1016B0008093F2048CE991E066E070E043E00E94E0
:1016C00079090895CF93DF93EC0107C089E197E092
:1016D00040E050E00E9491362196FE01649166231D
:1016E000A9F7DF91CF9108950E94620B89E197E0FD
:1016F0000E94ED3608958FEE98E00E94740B8BEDFA
:1017000098E00E94740B8EEB98E00E94740B8CE2C0
:1017100098E00E94740B8DE997E00E94740B81E5BC
:1017200097E00E94740B89E197E00E94740B86EDAC
:1017300096E00E94740B8AEA96E00E94740B83E3A1
:1017400096E00E94740B8FE695E00E94740B81E492
:1017500095E00E94740B8CEE94E00E94740B89EB70
:1017600094E00E94740B8FE794E00E94740B86E76C
:1017700094E00E94740B80E594E00E94740B8BE26D
:1017800094E00E94740B0895AF92BF92CF92DF92C3
:10179000EF92FF920F931F93CF93DF937C01B62EAE
:1017A00060E070E04B2D50E00E94980600E0CB2CEA
:1017B000DD240894C108D10850E2A52E45C08091CF
:1017C000C00087FFFCCF1091C6008BB18A258BB972
:1017D000183011F01F37E9F40023B1F10150F7017F
:1017E000E00FF11D108289E197E068E040E050E0F1
:1017F0000E94D93689E197E060E240E050E00E9423
:10180000D93689E197E068E040E050E00E94D9369F
:101810001BC080917B0180FF07C089E197E0612FA9
:1018200040E050E00E94D936C02FD0E01D3041F496
:1018300089E197E00E94ED36CE0DDF1D18820AC0C7
:10184000CE0DDF1D18830F5F802F90E08C159D0556
:101850000CF4B5CFC7016B2D0E94260A802FDF91B3
:10186000CF911F910F91FF90EF90DF90CF90BF909D
:10187000AF9008950F931F938C0181EE9BE00E941F
:10188000620BC8010E94740B809176048823D9F002
:1018900086ED9BE00E94620B89E197E060917604FF
:1018A00040E150E00E94913689E197E06CE240E02F
:1018B00050E00E94D93689E197E060917B0440E1D5
:1018C00050E00E942837FFCF9F92AF92BF92CF92F5
:1018D000DF92EF92FF920F931F93DF93CF93CDB7D9
:1018E000DEB7CA54D0400FB6F894DEBF0FBECDBFEE
:1018F00084E891E09AA389A31DA2CE0181966DE7A9
:1019000074E00E94FC25882321F487ED90E00E947A
:101910003A0C8E010C5F1F4FC80160E071E00E941D
:10192000B30685EC94E0BE016F5D7F4FA80122E015
:101930000E94412B882349F085EC94E00E943123DA
:10194000882319F482EC90E00FC085EC94E0BE018E
:101950006F5D7F4FAE014C5F5F4F26E10E94412BD0
:10196000882329F48DEA90E00E94740BF4C08CE97E
:1019700091E061E070E00E947209082F8CE991E02B
:1019800062E070E00E947209982E8CE991E065E0B7
:1019900070E00E947209B82E8CE991E066E070E078
:1019A0000E947209A82E002329F4CE0141966BE013
:1019B00071E022C0043029F4CE01419660E171E06B
:1019C0001BC0013029F4CE01419665E171E014C0DD
:1019D000053029F4CE0141966AE171E00DC0023074
:1019E00029F4CE01419660E271E006C0033031F483
:1019F000CE01419666E271E00E94B3068E010F5E51
:101A00001F4FC8016DE271E00E949F0600D000D018
:101A100000D0EDB7FEB731967E010894E11CF11CB1
:101A2000ADB7BEB71296FC92EE9211976FE2C62E3A
:101A300061E0D62ED382C2828B2D992787FD9095A7
:101A4000958384830E94D1068DB79EB706960FB604
:101A5000F8949EBF0FBE8DBFC801B7010E949F06BC
:101A6000C8016DE271E00E949F0600D000D000D056
:101A7000EDB7FEB73196ADB7BEB71296FC92EE92B7
:101A80001197D382C2828A2D992787FD90959583DD
:101A900084830E94D1068DB79EB706960FB6F89440
:101AA0009EBF0FBE8DBFC801B7010E949F06C8012F
:101AB0006DE271E00E949F0600D000D000D0EDB72B
:101AC000FEB73196ADB7BEB71296FC92EE92119763
:101AD000D382C282892D992787FD9095958384832F
:101AE0000E94D1068DB79EB706960FB6F8949EBF9A
:101AF0000FBE8DBFC801B7010E949F068FE993E01A
:101B0000B8010E94B306F80101900020E9F731976F
:101B1000E01BF10B85EC94E06FE973E0AF010E94EC
:101B20000829F80101900020E9F73197E01BF10B3B
:101B30008E179F0721F087E990E00E94740B85ECD7
:101B400094E00E94122285EC94E00E945A22CE0179
:101B500081960E945A22C65BDF4F0FB6F894DEBF13
:101B60000FBECDBFCF91DF911F910F91FF90EF90EE
:101B7000DF90CF90BF90AF909F9008950F931F93E9
:101B800080E060E00E94433380E061E00E946933BE
:101B900080E00E94BD33019709F477C080917901FC
:101BA00061E00E9443338091790161E00E946933D2
:101BB00010E000E269E170E080E090E00E94B03265
:101BC0008BB180278BB980E00E94BD33019709F467
:101BD0005CC069E170E080E090E00E94B03285B1C5
:101BE000802785B980E00E94BD33019709F44DC07C
:101BF0001F5F1832F9F60E94AE0A81E794E060E0B8
:101C00004AE00E940A20882321F48DE890E00E9497
:101C10003A0C8DE794E061E774E00E94F90A8823AA
:101C200021F481E890E00E943A0C8BE994E06DE7A2
:101C300074E00E94FC25882321F488E790E00E944C
:101C40003A0C0E94640C8091770161E00E9443335A
:101C50008091790161E00E9443338091770161E0D6
:101C60000E9469338091790161E00E94693310E23A
:101C700064EF71E080E090E00E94B0328BB1812788
:101C80008BB985B1812785B9F3CF1F910F91089545
:101C90004F925F926F927F928F929F92AF92BF927C
:101CA000CF92DF92EF92FF920F931F93DF93CF9328
:101CB000CDB7DEB7C355D0400FB6F894DEBF0FBE28
:101CC000CDBF84E891E09BA78AA71EA6CE018A9685
:101CD0006DE774E00E94FC25882321F480EE90E0FB
:101CE0000E943A0C8E01075F1F4FC80160E071E04F
:101CF0000E94B30685EC94E0BE01665D7F4FA801AB
:101D000021E00E94412B882309F45AC1CC24DD2410
:101D10007E010894E11CF11C8E010A5E1F4F85ECC8
:101D200094E0B70141E050E00E944D23019771F427
:101D3000898187FD0BC0F801EC0DFD1D808308949F
:101D4000C11CD11C84E1C816D10449F785EC94E08C
:101D50000E945A22CE018A960E945A2201E010E087
:101D60009AE1892E83E0B82E9924AA24B2E0EB2EC2
:101D7000F12CEC0EFD1EA6E14A2E512C4C0E5D1EE0
:101D8000F8E06F2E712C6C0E7D1E79C0ED9393944C
:101D90002A2F2E19892D90E0F201E80FF91FE0811A
:101DA000EC3231F08C159D051CF4A615B70571F7C2
:101DB000F701E20FF11D1082AA20A9F5C7016BE01F
:101DC00071E00E94AA06009711F400E056C0C70116
:101DD00060E171E00E94AA06009711F404E04DC092
:101DE000C70165E171E00E94AA06009709F444C0AA
:101DF000C7016AE171E00E94AA06009711F405E0AC
:101E00003CC0C70160E271E00E94AA06009711F48D
:101E100002E033C0C70166E271E00E94AA060097A3
:101E200059F503E02AC081E0A81649F4C7010E94D1
:101E30005606882E882309F5EAE18E2E1EC082E020
:101E4000A81651F4C7010E945606B82E882389F0BF
:101E50008AE08B1574F011C083E0A816B9F4C701AD
:101E60000E945606182F882341F0863034F010E087
:101E700004C073E0B72E01C001E0A3949394892DB0
:101E800090E08C159D0514F4D70182CF202F3327C5
:101E900027FD30958091EF0490E02817390711F461
:101EA0004FEF50C08CE991E061E070E0402F0E945C
:101EB00079090093EF04002341F489E197E040E6BB
:101EC00059E060E070E00E940C348091EF048430AF
:101ED00041F489E197E040EC52E160E070E00E945B
:101EE0000C348091EF04813041F489E197E040E8BF
:101EF00055E260E070E00E940C348091EF04853080
:101F000041F489E197E040E05BE460E070E00E942A
:101F10000C348091EF04823041F489E197E040E095
:101F200051EE60E070E00E940C348091EF04833049
:101F300041F489E197E040E052EC61E070E00E94FA
:101F40000C3440E0212F332727FD30958091F00499
:101F500090E02817390751F01093F0048CE991E0D4
:101F600062E070E0412F0E94790940E0282D33277C
:101F700027FD30958091F10490E02817390751F042
:101F80008092F1048CE991E065E070E0482D0E94B8
:101F9000790940E02B2D332727FD30958091F204FD
:101FA00090E02817390751F0B092F2048CE991E0E3
:101FB00066E070E04B2D0E94790902C0442311F4C1
:101FC0000E94640CCD5ADF4F0FB6F894DEBF0FBEEF
:101FD000CDBFCF91DF911F910F91FF90EF90DF90D8
:101FE000CF90BF90AF909F908F907F906F905F90B9
:101FF0004F9008958091770161E00E94433383B749
:10200000817F83BF83B7816083BF809164008068D4
:102010008093640080916400886080936400809164
:102020006400806480936400809164008160809388
:1020300064000E94BE0D0E94100B8091EF04882363
:1020400041F489E197E040E659E060E070E00E94E9
:102050000C348091EF04843041F489E197E040EC46
:1020600052E160E070E00E940C348091EF04813016
:1020700041F489E197E040E855E260E070E00E94B9
:102080000C348091EF04853041F489E197E040E021
:102090005BE460E070E00E940C348091EF048230D9
:1020A00041F489E197E040E051EE60E070E00E9489
:1020B0000C348091EF04833041F489E197E040E0F3
:1020C00052EC61E070E00E940C3489E197E062E339
:1020D00071E00E94CF3581E794E060E04AE00E9421
:1020E0000A20882339F486EC9BE00E94620B83E08F
:1020F0000E94CD0A8DE794E061E774E00E94F90A3E
:10210000882339F484EB9BE00E94620B83E00E94F9
:10211000CD0A8BE994E06DE774E00E94FC258823EA
:1021200039F485EA9BE00E94620B83E00E94CD0AAD
:1021300089E197E064E371E00E94CF350E94480E88
:1021400084EBEDEBF3E0DF011D928A95E9F708954A
:10215000EF92FF920F931F93CF93DF93AC0185EC27
:1021600094E06BE974E026E10E94412B882341F45E
:1021700080917B0181FF04C084E69BE00E943A0CC1
:1021800080917B0183FF07C089E197E06AE140E02D
:1021900050E00E94D93689E197E06CE340E050E0DE
:1021A0000E94D9368091770161E00E9469331092D4
:1021B0009E0310929D038091C10080688093C100AE
:1021C0007894C0E0D0E0FF2420E2E22E00E010E0AE
:1021D00062C084E0013B180718F40F5F1F4F55C021
:1021E000209709F449C081E0C030D80709F444C001
:1021F000CF3FD10509F054F485EC94E06DE971E02E
:10220000AE010E94082940E050E00BC0AE014050F2
:10221000514085EC94E06DE972E00E94082940E0AD
:1022200051E0F89460919D0370919E03DA01A356EA
:10223000BE4F9A010FC0FE01E356FE4F80818C9382
:10224000219682E0C030D80714F0C0E0D0E02F5FC4
:102250003F4F1196C617D70771F730939E0320930F
:102260009D03EA01789485EC94E00E94122204C058
:1022700085E060E00E94693380919D0390919E0308
:10228000C817D907A9F300E010E061E070E080E032
:1022900090E00E94B03280919D0390919E03C817F8
:1022A000D90709F496CFFE01E356FE4F208133276C
:1022B00027FD30958091F10490E028173907A1F4AB
:1022C000F3942F2D332727FD30958091F20490E071
:1022D0002817390751F4F8948091C1008F778093C3
:1022E000C100209711F537C0FF24219681E0C0304E
:1022F000D80749F485EC94E06DE971E040E051E0E5
:102300000E9408290EC082E0C030D80751F485EC45
:1023100094E06DE972E040E051E00E940829C0E0DD
:10232000D0E08BB18E258BB951CF81E0C030D8077A
:1023300091F0CF3FD10509F02CF485EC94E06DE9E4
:1023400071E006C0C050D14085EC94E06DE972E0C8
:10235000AE010E94082985EC94E00E94122285ECCF
:1023600094E00E945A228091770160E00E946933D4
:1023700082E69BE00E94620B81E0DF91CF911F918A
:102380000F91FF90EF9008950F931F93DF93CF93DA
:10239000CDB7DEB72D970FB6F894DEBF0FBECDBF19
:1023A000DE011196E6E3F1E08DE001900D9281509F
:1023B000E1F785EC94E06BE974E08E010F5F1F4F4D
:1023C000A80122E10E94412B882329F48AE69BE0A0
:1023D0000E94620B07C085EC94E00E945A22C8015B
:1023E0000E94A8102D960FB6F894DEBF0FBECDBF89
:1023F000CF91DF911F910F910895CF92DF92EF92CD
:10240000FF920F931F93DF93CF93CDB7DEB72D9736
:102410000FB6F894DEBF0FBECDBF8CE991E063E04C
:1024200070E00E947209182F8CE991E064E070E07E
:102430000E947209282F1F3F99F48F3F89F48CE97D
:1024400091E063E070E040E00E9479098CE991E05E
:1024500064E070E040E00E947909EE24FF240EC0A1
:10246000922F80E0E12EFF24E82AF92A8EEFE81669
:102470008FEFF80619F483E99BE01AC0DE0111968C
:10248000EFE4F1E08DE001900D928150E1F78E01D3
:102490000F5F1F4F33E4C32E31E0D32E0894E11CAD
:1024A000F11C9EEFE9169FEFF90628F081E89BE00A
:1024B0000E94620B42C000D000D000D0EDB7FEB742
:1024C0003196ADB7BEB712961C930E931197D38277
:1024D000C282F582E4820E94D1068DB79EB706962D
:1024E0000FB6F8949EBF0FBE8DBF85EC94E06BE9EC
:1024F00074E0A80122E30E94412B882379F285EC45
:1025000094E00E945A228CE991E063E070E04E2D45
:102510000E9479098CE991E064E070E00E94720900
:102520008F1539F08CE991E064E070E04F2D0E9446
:102530007909CE0101960E94A8102D960FB6F89445
:10254000DEBF0FBECDBFCF91DF911F910F91FF90E6
:10255000EF90DF90CF900895FF920F931F93DF933A
:10256000CF9300D000D00F92CDB7DEB78CE991E0C9
:1025700062E070E00E947209F82E8E010F5F1F4F1B
:1025800086EE92E00E94740B82ED92E00E94620B54
:10259000FF2019F489EC92E00BC081E0F81619F4E1
:1025A0008DEB92E005C082E0F81621F485EB92E015
:1025B0000E94620B89E197E00E94ED368FE892E07D
:1025C0000E94620B89E197E06091F1044AE050E0DB
:1025D0000E9491368BE892E00E94620B89E197E0BD
:1025E0006091F2044AE050E00E94283780E892E0CF
:1025F0000E94740B8CE692E00E94740B85E592E0D9
:102600000E94740B83E492E00E94740B8AE292E0D1
:102610000E94740B82E192E00E94740B83EF91E0C0
:102620000E94740B8BEE91E00E94740B89E197E09D
:102630006EE340E050E00E94D936C80165E00E9498
:10264000C40B882309F49CCFC80169EE71E00E9495
:102650007406892B51F488ED91E00E94740B8CE98B
:1026600091E062E070E040E010C0C80166ED71E00A
:102670000E947406892B71F482EC91E00E94740B25
:102680008CE991E062E070E041E00E9479090E94EB
:10269000640C8AC0C80160EC71E00E947406892B4A
:1026A00051F481EB91E00E94740B8CE991E062E0BF
:1026B00070E042E0EACFC8016FEA71E00E94740660
:1026C000892B99F481E991E00E94740B8CE991E0E7
:1026D00063E070E040E00E9479098CE991E064E0F9
:1026E00070E040E00E9479095FC0C8016FE871E0C6
:1026F0000E947406892BE9F480E791E00E94620B46
:102700008091C00087FFFCCF4091C6004093F10448
:102710008CE991E065E070E00E9479090E94640C08
:1027200087E591E00E94620B89E197E06091F104F6
:102730002AC0C80165E571E00E947406892B41F545
:102740004AE00BC08AE191E00E94620B8091C000D8
:1027500087FFFCCF4091C6004053842F81508930C1
:1027600088F74093F2048CE991E066E070E00E9403
:1027700079090E94640C83EF90E00E94620B89E16A
:1027800097E06091F2044AE050E00E9428370CC0C4
:10279000C80161EF70E00E947406892B09F0F0CE49
:1027A00089EE90E00E94740B0F900F900F900F90A5
:1027B0000F90CF91DF911F910F91FF900895FF929D
:1027C0000F931F93DF93CF9300D000D00F92CDB71C
:1027D000DEB78CE991E061E070E00E947209F82EAA
:1027E0008E010F5F1F4F85E194E00E94740B8BE018
:1027F00094E00E94620B84E0F81619F488E094E0FB
:102800001CC0FF2019F485E094E017C081E0F816A1
:1028100019F482E094E011C085E0F81619F48EEF07
:1028200093E00BC082E0F81619F48AEF93E005C03C
:1028300083E0F81621F485EF93E00E94620B8EEEA0
:1028400093E00E94740B83EE93E00E94740B87ED7B
:1028500093E00E94740B8BEC93E00E94740B8FEB5F
:1028600093E00E94740B82EB93E00E94740B85EA64
:1028700093E00E94740B87E993E00E94740B8FE849
:1028800093E00E94740B89E197E06EE340E050E032
:102890000E94D936C80165E00E94C40B882309F460
:1028A000A2CFC8016DE873E00E947406892B51F431
:1028B00089E793E00E94740B8CE991E061E070E09D
:1028C00040E054C0C80167E773E00E947406892B9A
:1028D00051F483E693E00E94740B8CE991E061E08F
:1028E00070E044E043C0C80161E673E00E947406F2
:1028F000892B51F48DE493E00E94740B8CE991E0F4
:1029000061E070E041E032C0C8016BE473E00E9416
:102910007406892B51F486E393E00E94740B8CE9D2
:1029200091E061E070E045E021C0C80164E373E03C
:102930000E947406892B51F48FE193E00E94740B7E
:102940008CE991E061E070E042E010C0C8016DE107
:1029500073E00E947406892B89F487E093E00E945B
:10296000740B8CE991E061E070E043E00E9479092A
:102970000E94640C85E00E94CD0A0CC0C80165E08D
:1029800073E00E947406892B09F02DCF8DEF92E041
:102990000E94740B0F900F900F900F900F90CF919B
:1029A000DF911F910F91FF9008958F929F92AF92A8
:1029B000BF92CF92DF92EF92FF920F931F93DF931C
:1029C000CF93CDB7DEB7AA970FB6F894DEBF0FBE90
:1029D000CDBF6C0184E891E09A8389831D82C60192
:1029E0006FE57BE042E050E00E947D06892B09F014
:1029F000BAC08BE994E00E945A228BE994E06DE71B
:102A000074E00E94FC25882321F486E59BE00E9467
:102A10003A0CEDEBF3E090E08081882329F09F5F92
:102A20003C969F30C9F79FEFE92EEA94E7FE03C07A
:102A3000FF24F3948EC0FF24F39400E010E05E01C5
:102A40000894A11CB11CEDE18E2E912C8C0E9D1EC4
:102A500070C0A801440F551F400F511F440F551F50
:102A6000440F551F43545C4FC5016BE974E021E0EE
:102A70000E94412BF82E0F5F1F4F882309F45CC082
:102A80008B8180939D048C8180939E048D818093A3
:102A90009F048E819F81A885B9858093A00490931F
:102AA000A104A093A204B093A3048A859B85AC855E
:102AB000BD858093A4049093A504A093A604B0932D
:102AC000A7048E859F85A889B9898093A8049093CF
:102AD000A904A093AA04B093AB048A898093AC04A0
:102AE0008B899C89AD89BE898093AD049093AE0497
:102AF000A093AF04B093B0048F89988DA98DBA8D3F
:102B00008093B1049093B204A093B304B093B4043F
:102B10008B8D9C8D9093B6048093B504A7EBB4E0A5
:102B2000F4018EE001900D928150E1F7C5010E9401
:102B30005A220E150CF48DCF8CE02E2D2802C001E8
:102B4000112483549C4FFC018BE0DF011D928A9578
:102B5000E9F780917B0181FF8CC0FF2009F089C0DB
:102B600086E39BE011C0CE0101966BE974E0A601FB
:102B700021E00E94412BF82E882371F480917B0183
:102B800081FF77C080E29BE00E94620B89E197E0C1
:102B9000B6010E9442376DC08B8180939D048C8169
:102BA00080939E048D8180939F048E819F81A88550
:102BB000B9858093A0049093A104A093A204B0933C
:102BC000A3048A859B85AC85BD858093A4049093DE
:102BD000A504A093A604B093A7048E859F85A88919
:102BE000B9898093A8049093A904A093AA04B093F0
:102BF000AB048A898093AC048B899C89AD89BE899A
:102C00008093AD049093AE04A093AF04B093B0044E
:102C10008F89988DA98DBA8D8093B1049093B20459
:102C2000A093B304B093B4048B8D9C8D9093B604A1
:102C30008093B504A7EBB4E0FE017D968EE0019091
:102C40000D928150E1F7EDEBF3E090E08081882375
:102C500029F09F5F3C969F30C9F70BC08CE098022B
:102C6000C001112483549C4FB6014BE050E00E94F8
:102C7000BA068F2DAA960FB6F894DEBF0FBECDBF51
:102C8000CF91DF911F910F91FF90EF90DF90CF9048
:102C9000BF90AF909F908F9008952F923F924F9248
:102CA0005F926F927F928F929F92AF92BF92CF92DC
:102CB000DF92EF92FF920F931F93DF93CF93CDB7E5
:102CC000DEB7CB56D0400FB6F894DEBF0FBECDBFF7
:102CD000F8948091C1008F778093C10011E032E2B7
:102CE000432E512C4C0E5D1ECE010A96AC969FAF22
:102CF0008EAFAC9720E4222E312C2C0E3D1E01C04D
:102D000010E080917B0183FF07C089E197E06AE1D1
:102D100040E050E00E94D936112339F489E197E070
:102D200061E240E050E00E94D93689E197E06EE32D
:102D300040E050E00E94D936C2016EE10E94C40B0F
:102D400011E08823F1F280E00E94830A7C016BE1AC
:102D50007BE00E947406892B29F580917B0181FF1D
:102D600004C082E09BE00E94740B8BE994E00E9417
:102D70005A228BE994E06DE774E00E94FC258823D9
:102D800021F489EF9AE00E943A0C84EBEDEBF3E03A
:102D900011928A95E9F780917B0181FF21C681EE2E
:102DA0009AE01CC6C7016FED7AE00E947406892B79
:102DB00039F0C7016AED7AE00E947406892B19F494
:102DC0000E947B0B9ECFC70165ED7AE00E947406DE
:102DD000892B19F40E94DF1394CFC70161ED7AE0CB
:102DE0000E947406892B19F40E94AC128ACFC70185
:102DF0006EEC7AE00E947406892BE9F480917B01E5
:102E000081FF0CC080EC9AE00E94620B89E197E0A0
:102E1000609194044AE050E00E94283781E00E94CB
:102E2000830A8C018BE994E062E040E02FEA39E00C
:102E30000E94B428D5C5C7016DEB7AE042E050E0AE
:102E40000E947D06892B09F581E00E94830A8C018E
:102E5000009709F455CF84E891E0F10191838083D4
:102E600025961FAE2597C1016BE974E0A8010E9469
:102E7000E72C882309F0B4C580917B0181FF40CF06
:102E800082EA9AE00E94740BF5C3C7016FE97AE009
:102E900042E050E00E947D06892B09F06DC081E080
:102EA0000E94830A8C01009709F42ACFE3EFF4E033
:102EB00020E080819181892B19F0828181112F5F1F
:102EC000339695E0E230F907A1F7233009F058C5B1
:102ED000C8016BE97AE043E050E00E947D06892B4F
:102EE00009F04EC582E00E94830AAC0185EC94E0B3
:102EF0006BE974E021E00E94412B882309F400CFA4
:102F000085EC94E00E94FB2609C08091C9048230C0
:102F100008F442C585EC94E00E94AC24182F5AC2F4
:102F200085EC94E00E943123F9CF81E00E94830A6E
:102F3000AC018BE994E06FEA79E021E13AE00E948C
:102F4000732C7B018C0180917B0181FF0EC089E194
:102F500097E0B801A7012AE030E00E94713689E1CC
:102F600097E06CE571E00E944237E114F10401053D
:102F7000110509F035C5C4CEC70168E97AE042E021
:102F800050E00E947D06892B49F481E00E94830A6B
:102F9000009709F4B5CE0E94D51481C3C70163E937
:102FA0007AE044E050E00E947D06892B09F062C17E
:102FB00081E00E94830A8C01009709F4A1CE85EC80
:102FC00094E06BE974E0A80121E00E94412B882382
:102FD00039F480917B0181FF93CE8EE79AE048C35C
:102FE00082E00E94830A7C01009709F44CC0FC0136
:102FF00001900020E9F73197E81B20E030E04E2FE8
:1030000050E00CC0F701E20FF31F8081992787FD84
:103010009095C0970A97B8F52F5F3F4F2417350753
:103020008CF3870140E050E060E070E019C0CB0114
:10303000BA012AE030E040E050E00E948437AB0162
:10304000BC018D2D992787FD9095C097AA2797FDE4
:10305000A095BA2F480F591F6A1F7B1F0F5F1F4F84
:10306000F801D0808D2D80538A3008F385EC94E0F0
:103070000E944C21882339F480917B0181FF76C125
:103080008CE69AE06CC183E00E94830AAC01009751
:1030900009F43FC0FC0101900020E9F73197E81BDB
:1030A00020E030E06E2F70E00CC0FA01E20FF31F59
:1030B0008081992787FD9095C0970A9750F52F5FDB
:1030C0003F4F261737078CF38A0166247724430184
:1030D00019C0C401B3012AE030E040E050E00E9492
:1030E00084373B014C018F2D992787FD9095C09720
:1030F000AA2797FDA095BA2F680E791E8A1E9B1EDF
:103100000F5F1F4FF801F0808F2D80538A3008F336
:1031100004C066246A94762C430184E00E94830AEA
:10312000AC01009709F440C0FC0101900020E9F7D0
:103130003197E81B20E030E06E2F70E00CC0FA0100
:10314000E20FF31F8081992787FD9095C0970A971A
:1031500058F52F5F3F4F261737078CF36A01EE248F
:10316000FF2487011AC0C801B7012AE030E040E01F
:1031700050E00E9484377B018C018B2D992787FDBD
:103180009095C097AA2797FDA095BA2FE80EF91E33
:103190000A1F1B1F0894C11CD11CF601B0808B2D87
:1031A00080538A3000F305C091E0E92EF12C012D07
:1031B000112D81E0A82EB12CC12CD12C3AC06A145B
:1031C0007B048C049D0408F448C0F1E0EF16F10480
:1031D00001051105B9F4822F80528F3518F489E169
:1031E00097E007C02A3011F02D3041F489E197E0D3
:1031F000622F40E050E00E94D93616C089E197E086
:103200006EE2F7CF82E0E816F1040105110561F4E2
:1032100089E197E040E150E00E94D93689E197E0EA
:103220006DE671E00E94CF350894A11CB11CC11C51
:10323000D11C85EC94E0BE016F5F7F4F41E050E010
:103240000E944D23019719F06FEF7FEF02C0898133
:10325000682F262F16160CF4B2CF85EC94E00E944E
:103260005A2280917B0183FDBBC389E197E00E94D4
:10327000ED36B6C3C70166E67AE045E050E00E944D
:103280007D06892B09F0ABC081E00E94830A8C0186
:10329000009709F435CD85EC94E06BE974E0A80162
:1032A00022E00E94412B882339F480917B0181FF29
:1032B00027CD81E59AE0DCC182E00E94830A7C018F
:1032C000009709F458C0FC0101900020E9F73197FC
:1032D000E81B20E030E04E2F50E00DC0F701E20F78
:1032E000F31F8081992787FD9095C0970A9708F072
:1032F00042C02F5F3F4F2417350784F3870140E01A
:1033000050E060E070E019C0CB01BA012AE030E083
:1033100040E050E00E948437AB01BC018D2D99271D
:1033200087FD9095C097AA2797FDA095BA2F480FC3
:10333000591F6A1F7B1F0F5F1F4FF801D0808D2D13
:1033400080538A3008F385EC94E00E944C21882356
:1033500091F480917B0181FF09C08FE39AE00E9484
:10336000620B89E197E0B7010E94423785EC94E057
:103370000E945A22C5CC80917B0183FF07C089E15E
:1033800097E06AE140E050E00E94D93689E197E099
:103390006FE671E00E94CF35C2016EE10E94C40B5E
:1033A000182F882311F411E015C085EC94E0B201C8
:1033B000412F50E00E940829212F30E08217930707
:1033C000D1F280917B0181FF04C087E29AE00E94E4
:1033D000620B10E085EC94E00E945A2292CCC70167
:1033E00062E27AE044E050E00E947D06892BB1F56C
:1033F00081E00E94830AAC01009709F481CC85EC3E
:1034000094E06BE974E021E00E94412B8823A1F055
:103410004091D7045091D8046091D9047091DA0496
:1034200089E197E02AE030E00E94713685EC94E073
:103430000E945A2211E009C080917B0181FF04C0E3
:103440008FE19AE00E94620B10E080917B0183FD86
:1034500058CC89E197E00E94ED3653CCC7016AE170
:103460007AE00E947406892B09F0CDC08DE09AE0C5
:103470000E94620B80917C04823039F0833041F0ED
:10348000813049F489E09AE008C085E09AE005C0FF
:1034900080E09AE002C088EF99E00E94740B81E717
:1034A00094E06AE0AE014E5F5F4F0E948E1E88235B
:1034B00029F489EE99E00E94620B22CC87ED99E015
:1034C0000E94620B89E197E06A8140E150E00E942E
:1034D00028378EEC99E00E94620B89E197E06B81BE
:1034E00040E050E00E94D93689E197E06C8140E0ED
:1034F00050E00E94683784EC99E00E94620B8E01D4
:103500000B5F1F4F89E197E0F80161918F0140E067
:1035100050E00E94D936AC968EAD9FADAC9708179F
:10352000190781F788EB99E00E94620B6A85629522
:103530006F7089E197E070E04AE050E00E948036C9
:1035400089E197E06EE240E050E00E94D9366A855A
:103550006F7089E197E070E04AE050E00E940F3719
:1035600088EA99E00E94620B4B855C856D857E85BB
:1035700089E197E02AE030E00E94043783E999E08E
:103580000E94620B68896F7089E197E070E04AE001
:1035900050E00E94803689E197E06FE240E050E021
:1035A0000E94D936688962956F7070E06053784FD9
:1035B0008F858F7090E014E0880F991F1A95E1F7BE
:1035C000680F791F89E197E04AE050E00E944D378B
:1035D00081E794E00E94CF1E7B018C01611571058B
:1035E0008105910559F081E794E069E0AE014E5EF6
:1035F0005F4F0E948E1E882309F0DEC184E899E0A7
:103600000E94740B7DCBC7016FE679E00E947406BF
:10361000892B49F485EC94E00E9412228BE994E016
:103620000E941222DDC1C7016BE679E043E050E061
:103630000E947D06892B11F581E00E94830A8C018E
:10364000009709F45DCB85EC94E06BE974E0A80188
:1036500022E30E94412B882329F085EC94E00E940C
:103660005A22BEC180917B0181FF4ACB85E599E05A
:103670000E94620B89E197E0B8017FC1C7016EE447
:1036800079E046E050E00E947D06892B51F481E00C
:103690000E94830A009709F433CB0E94A810182FC8
:1036A00030CBC7016AE479E043E050E00E947D0638
:1036B000892BF1F589E197E061E771E00E94CF3550
:1036C000EDEBF3E0CC248081882339F0C3943C9661
:1036D0009FE0C916C1F7CC24CA94DD24EC2CFF244A
:1036E0000894E108F1081BC00D2D10E0B801660F29
:1036F000771F600F711F660F771F660F771F635468
:103700007C4F89E197E00E94CF350E151F0534F4F8
:1037100089E197E064E771E00E94CF35D394DC142F
:1037200018F389E197E066E771E00E94423758C1DB
:10373000C70165E479E044E050E00E947D06892BF2
:1037400019F581E00E94830A8C01009709F4D8CA18
:1037500062E479E042E050E00E947D06982F8823E1
:1037600021F480917B01816064C0C8016EE379E03F
:1037700043E050E00E947D06982F882309F05BC04B
:1037800080917B018E7F55C0C70166E379E047E0F9
:1037900050E00E947D06892B11F581E00E94830A8A
:1037A0008C01009709F4ACCA63E379E042E050E091
:1037B0000E947D06982F882321F480917B018260EE
:1037C00038C0C8016FE279E043E050E00E947D0616
:1037D000982F882381F580917B018D7F2AC0C701B6
:1037E0006BE279E043E050E00E947D06892B41F5D1
:1037F00081E00E94830A8C01009709F481CA68E283
:1038000079E042E050E00E947D06982F882321F461
:1038100080917B0188600DC0C80164E279E043E0DB
:1038200050E00E947D06982F882329F480917B0127
:10383000877F80937B0110E0992309F062CAD0C092
:10384000C7016CE179E047E050E00E947D06892BDA
:10385000B1F481E00E94830A85E199E00E94620B45
:103860008BE994E061E020E030E040E050E082014C
:103870000E94E524AB01BC0189E197E06EC0C7015D
:103880006EE079E046E050E00E947D06892B09F069
:1038900069C081E00E94830AAC01009709F430CA34
:1038A000FC0101900020E9F73197E81B20E030E0AF
:1038B0006E2F70E00DC0FA01E20FF31F808199278F
:1038C00087FD9095C0970A9708F01ACA2F5F3F4F5F
:1038D0002617370784F38A0120E030E040E050E00B
:1038E00019C0CA01B9012AE030E040E050E00E946E
:1038F00084379B01AC018F2D992787FD9095C09748
:10390000AA2797FDA095BA2F280F391F4A1F5B1FC2
:103910000F5F1F4FF801F0808F2D80538A3008F31E
:103920008EE1F20111928A95E9F78BE994E062E069
:1039300082010E94E5247B018C0189E197E0B201BC
:103940000E94CF3589E197E06CE740E050E00E94AB
:10395000D93689E197E0B801A7012AE030E00E945A
:1039600004373EC080917B0181FFCAC98CEF98E08B
:103970000E94620B89E197E0B7010E944237C0C9FB
:1039800085EC94E06BE974E0A80121E00E94412BF2
:10399000882309F0BACAC9CA85EC94E00E945A2269
:1039A00085EC94E06BE974E0A80122E00E94412BD1
:1039B000882309F40ECDB4CA88E799E00E94620B0F
:1039C00016950795F794E79489E197E0B801A70168
:1039D0002AE030E00E94713684E799E00E94740B7F
:1039E00011E08FC98091F004882311F40E94FD1129
:1039F0008091F004813011F40E94C4110E944D1690
:103A0000FFCFFC01673020F086E1858380E00895D8
:103A1000262F30E060FD02C0663019F48DB58E7F30
:103A200002C08DB581608DBD8CB58C7F8CBD4CB5D1
:103A300022FD02C090E001C092E036952795822FCA
:103A40008170842B892B8CBD81E00895FF920F93A8
:103A50001F93CF93DF938B010E94A232EB01FF24CF
:103A6000FA94FEBC0DB407FEFDCF8EB58F3F11F466
:103A700081E008C00E94A2326C1B7D0B60177107A9
:103A800080F380E0DF91CF911F910F91FF90089517
:103A9000FC01848160E00E9469330895FC01848107
:103AA00061E00E9469330895DC016EBDFA0120E0F7
:103AB00030E00DB407FEFDCF80818EBD0DB407FE52
:103AC000FDCF81818EBD2E5F3F4F329682E0203048
:103AD000380779F70DB407FEFDCF8FEF8EBD0DB41B
:103AE00007FEFDCF8FEF8EBD0DB407FEFDCF8FEF2C
:103AF0008EBD0DB407FEFDCF8EB51A968C931A9726
:103B00008F71853011F481E0089581E115968C93D1
:103B10001597CD010E944E1D80E00895FF920F93EE
:103B20001F93CF93DF93EC010E94A2328B01FF24FD
:103B3000FA9409C00E94A232601B710B6D52714051
:103B400010F08FE00DC0FEBC0DB407FEFDCF8EB5AA
:103B50008A878F3F79F38E3F11F481E006C08DE0B4
:103B60008D83CE010E944E1D80E0DF91CF911F9189
:103B70000F91FF900895CF93DF93EC018E818823FE
:103B8000D1F08FEF8EBD2F8138854FEF04C00DB47B
:103B900007FEFDCF4EBD2F5F3F4FC90101978150FA
:103BA0009240A8F338872F830DB407FEFDCFCE01D6
:103BB0000E944E1D1E82DF91CF910895DF92EF92F9
:103BC000FF920F931F93CF93DF93EC01D62E7901D1
:103BD0008A010E94BB1DCE010E94481DCE016CE2ED
:103BE00071E00E94261D8D2D80648EBD0DB407FEF0
:103BF000FDCF28E130E0D801C701022E04C0B69500
:103C0000A795979587950A94D2F78EBD0DB407FEB8
:103C1000FDCF285030408FEF283F380761F7DD2077
:103C200011F485E906C088E0D81611F487E801C0D0
:103C30008FEF8EBD0DB407FEFDCF90E02FEF2EBDB0
:103C40000DB407FEFDCF8EB587FF02C09150B9F7C6
:103C50008A87DF91CF911F910F91FF90EF90DF90B6
:103C60000895CF92DF92EF92FF920F931F93CF931D
:103C7000DF93EC017A018B01690141155105610562
:103C8000710511F482E137C08B85833039F029E06A
:103C9000EE0CFF1C001F111F2A95D1F7CE0168E121
:103CA000A80197010E94DE1D882311F084E023C043
:103CB000CE016EEFA6010E94541D8823E9F0CE01CB
:103CC00068E572E00E94261D882311F485E113C087
:103CD000CE016DE020E030E040E050E00E94DE1DCB
:103CE000882341F48FEF8EBD0DB407FEFDCF8EB556
:103CF000882379F084E18D83CE010E944E1D80E0FF
:103D0000DF91CF911F910F91FF90EF90DF90CF90B7
:103D10000895CE010E944E1D81E0F2CF0F931F93B4
:103D2000CF93DF93EC01142F052F20E030E040E02B
:103D300050E00E94DE1D882319F08EE08D8326C09E
:103D4000CE010E948E1D882309F1812F902FFC0146
:103D50009FEF9F01205F3F4F9EBD0DB407FEFDCF3B
:103D60008EB58193E217F307B9F78FEF8EBD0DB4CF
:103D700007FEFDCF8EB58FEF8EBD0DB407FEFDCFD4
:103D80008EB5CE010E944E1D81E004C0CE010E947E
:103D90004E1D80E0DF91CF911F910F910895EF921A
:103DA000FF920F931F93DF93CF93CDB7DEB760974A
:103DB0000FB6F894DEBF0FBECDBF8C0169E0AE0137
:103DC0004F5F5F4F0E948E1E882309F464C0898173
:103DD000829586958695837089F58F818370382FBB
:103DE000330F330F20E0888590E0880F991F880FEC
:103DF000991F282B392B8985829586958695837006
:103E000090E0282B392B2F5F3F4F790100E010E025
:103E10008E818F7090E007972A852370220F3B8553
:103E2000331F3327331F232B820F911D04C0EE0C49
:103E3000FF1C001F111F8A95D2F730C0813041F559
:103E400088858695869590E0A0E0B0E08C01FF24FF
:103E5000EE248A8590E0A0E0B0E0E82AF92A0A2B57
:103E60001B2B998580E0AA2797FDA095BA2FE82AF9
:103E7000F92A0A2B1B2B0894E11CF11C011D111DB2
:103E80003AE0EE0CFF1C001F111F3A95D1F706C057
:103E900089E0F8018583EE24FF248701B701C8017A
:103EA00060960FB6F894DEBF0FBECDBFCF91DF9105
:103EB0001F910F91FF90EF9008958F929F92AF9274
:103EC000BF92CF92DF92EF92FF920F931F93CF9307
:103ED000DF93EC015A016B0149010115110509F449
:103EE0007BC0C801820F931F8150924008F06FC0C1
:103EF0008E81882371F088819981AA81BB814817BE
:103F000059076A077B0729F48F81988588169906D7
:103F100018F5A882B982CA82DB828B85833039F09A
:103F200069E0AA0CBB1CCC1CDD1C6A95D1F7CE0144
:103F300061E1A60195010E94DE1D882319F083E04E
:103F40008D8345C0CE010E948E1D882309F43FC099
:103F500018861F8281E08E838FEF8EBD8F819885BA
:103F60002FEF05C00DB407FEFDCF2EBD01968815BD
:103F70009905C0F398878F83D801119720E030E02E
:103F80009FEF0BC00DB407FEFDCF8EB5F701E20F1A
:103F9000F31F80839EBD2F5F3F4F2A173B0790F38F
:103FA0000DB407FEFDCF8EB5AE0DBF1D8C932F81D6
:103FB0003885200F311F38872F838985882319F092
:103FC0002050324048F0CE010E94BB1D05C0CE01FA
:103FD0000E944E1D80E001C081E0DF91CF911F91D2
:103FE0000F91FF90EF90DF90CF90BF90AF909F9098
:103FF0008F900895EF92FF920F931F93790120E025
:1040000030E000E012E00E945D1F1F910F91FF90D1
:10401000EF900895BF92CF92DF92EF92FF920F93AD
:104020001F93CF93DF93EC01B62E1B8619861E8259
:104030001D824C830E94A2326B018C8161E00E9440
:104040004333CE010E944E1D8CE060E00E9443335A
:104050008BE061E00E9443338DE061E00E944333D6
:104060008AE061E00E94433383E58CBD8DB58E7F8D
:104070008DBD80E09FEF9EBD0DB407FEFDCF8F5F2D
:104080008A30C9F7CE010E94481D09C00E94A232A1
:104090006C197D09615D774010F081E05EC0CE0152
:1040A00060E020E030E040E050E00E94DE1D182F8C
:1040B0008A87813059F7CE0168E02AEA31E040E092
:1040C00050E00E94DE1D82FF02C01B8711C080E00D
:1040D0002FEF2EBD0DB407FEFDCF9EB58F5F843050
:1040E000C1F79A879A3A11F082E037C082E08B8755
:1040F0008B85823021F0EE24FF2487010FC0E12C54
:10410000F12C012D70E4172F09C00E94A2326C1906
:104110007D09615D774010F088E01FC0CE0167E344
:1041200020E030E040E050E00E94DE1DCE0169E278
:10413000A80197010E94DE1D8A87882331F78B85AD
:10414000823031F5CE016AE320E030E040E050E01B
:104150000E94DE1D882339F086E08D83CE010E9407
:104160004E1D80E01CC08FEF8EBD0DB407FEFDCF4D
:104170008EB5807C803C11F483E08B8780E09FEFDC
:104180009EBD0DB407FEFDCF2EB58F5F8330C1F706
:10419000CE010E944E1DCE016B2D0E94011DDF91AC
:1041A000CF911F910F91FF90EF90DF90CF90BF9034
:1041B000089520E0FC018385887109F421E0822FB5
:1041C000089520E0FC0183858871803109F421E0A5
:1041D000822F0895CF93DF93EB01DC0190E020E084
:1041E0003EE28C91803269F0283029F4FE01E90F1B
:1041F000F11D30839F5FFE01E90FF11D8C918083DB
:104200009F5F2F5F11962B3061F7C90FD11D188268
:10421000DF91CF910895CF93DF93EC01DB0180E034
:1042200090E020E2FD01E80FF91F208301968B301A
:104230009105C1F757E040E021C02E3219F089EE18
:104240009BE007C05A3019F15AE048E017C0321716
:10425000F1F0FC01019634913323C9F75417B8F0FB
:104260002132A8F02F3798F4822F81568A3108F432
:104270002052FD01E40FF11D20834F5F299122237D
:10428000E1F690E08C91803219F091E001C090E06D
:10429000892FDF91CF9108956F927F928F929F9295
:1042A000AF92BF92CF92DF92EF92FF920F931F9344
:1042B000CF93DF93EC017A018B012C81222309F447
:1042C00080C08A899B89AC89BD8984179507A60718
:1042D000B70708F476C085C0E114F10401051105A3
:1042E00049F41D821E821F82188619861A861B8633
:1042F0001C8665C029853A854B855C85EA8DFB8DDA
:10430000858590E009962150304040405040390169
:104310004A01082E04C096948794779467940A946F
:10432000D2F72F5F3F4F4F4F5F4F0894E108F108DE
:10433000010911095701680104C0D694C794B794C4
:10434000A7948A95D2F70894E11CF11C011D111D58
:10435000A614B704C804D90428F021153105410575
:10436000510549F48E899F89A88DB98D8D839E83CF
:10437000AF83B88716C0A618B708C808D90811C0F7
:104380004D815E816F8178858A8D9B8D94010E941D
:1043900010300894A108B108C108D108882331F46D
:1043A00010C085E0882E912C8C0E9D1EA114B104A6
:1043B000C104D10429F7E986FA860B871C8781E0BE
:1043C00001C080E0DF91CF911F910F91FF90EF909E
:1043D000DF90CF90BF90AF909F908F907F906F9025
:1043E0000895223009F078CFE6CFCF93DF93EC0128
:1043F000462F6D857E858F8598890E94F42D8823B0
:1044000019F420E030E00AC08989282F30E095E0D7
:10441000220F331F9A95E1F72C5F3A4FC901DF91C4
:10442000CF9108950F931F93CF93DF938C01FC01DD
:1044300084818823C9F1838187FF33C0C80161E08B
:104440000E94F521EC01009779F1F8018481823016
:1044500040F482899389A489B5898C8F9D8FAE8F12
:10446000BF8FF80186899789A08DB18D9B8F8A8F28
:10447000CD01AA27BB279D8B8C8BE0910205F09183
:104480000305309751F0BE016A5E7F4FCE0148961A
:104490000995888D998D9B8B8A8BF80183818F7705
:1044A00083830E94952D01C080E0DF91CF911F9101
:1044B0000F910895CF93DF93EC010E94122288237D
:1044C00011F01C8281E0DF91CF9108956F927F926D
:1044D0008F929F92AF92BF92CF92DF92EF92FF9214
:1044E0000F931F93DF93CF9300D000D0CDB7DEB7EB
:1044F0007C015A016B01DC0114968C911497813078
:1045000009F08FC013968C9181FF8BC09EC00097DD
:10451000A105B10511F481E085C0F70161847284C1
:1045200083849484C701B601A5010E944C2188238D
:1045300009F477C0D7015A968D919C915B97A1148D
:10454000B104C104D10489F456964D915D916D91E9
:104550007C9159970E948330882309F462C0F70147
:10456000168A178A108E118E3DC0D70115964D916F
:104570005D916D917C9118979E012F5F3F4F0E9436
:104580001030882309F44DC0D7015A96ED91FC9163
:104590005B9749815A816B817C818789803129F0C1
:1045A00088EF9FEFAFEFBFE004C088EF9FEFA0E080
:1045B000B0E0481759076A077B07A0F4CF010E94B3
:1045C0008330882371F1F7014581568167817085B9
:1045D000828D938D0FEF1FEF2FEF3FE00E94742F1E
:1045E0008823F9F0D7015296AD92BD92CD92DC921C
:1045F000559713968C911397806813968C93C701E7
:104600000E941222882369F0B601A5016A147B0476
:104610008C049D0410F4B401A301C7010E944C2135
:1046200001C080E00F900F900F900F90CF91DF911D
:104630001F910F91FF90EF90DF90CF90BF90AF90C0
:104640009F908F907F906F900895F7018289938952
:10465000A489B58984179507A607B70708F057CF2F
:10466000E0CFCF93DF93EC0140E050E060E070E0FA
:104670000E946622882369F0CE0161E00E94F52144
:10468000FC01009731F085EE80831C820E94952DFD
:1046900001C080E0DF91CF9108952F923F924F9219
:1046A0005F926F927F928F929F92AF92BF92CF92C2
:1046B000DF92EF92FF920F931F93CF93DF93EC0162
:1046C0002A018C81882309F4C6C08B8180FFC3C076
:1046D000D8C025014E185F084B0175E0272E312CFC
:1046E0002C0E3D1E3201B1C029853A854B855C8573
:1046F0006FEFA62E61E0B62EA222B3228C81790143
:104700008A0199E016950795F794E7949A95D1F761
:10471000EA8DFB8D823049F4428D538D648D758D09
:104720004E0D5F1D601F711F3FC0D480DA94DE20E4
:10473000A114B104D9F4DD20C9F4211531054105D6
:10474000510549F48E899F89A88DB98D8D839E83EB
:10475000AF83B8870BC04D815E816F817885CF01B3
:1047600091010E941030882309F475C0EA8DFB8DF9
:104770004D815E816F81788542505040604070402D
:10478000058404C0440F551F661F771F0A94D2F793
:1047900086859785A089B189480F591F6A1F7B1F9D
:1047A0004D0D511D611D711D80E092E08A199B091C
:1047B00063018615970508F46C018B8186FD06C0A0
:1047C00080E0C81682E0D80609F073C080917C01B1
:1047D00090917D01A0917E01B0917F01481759070A
:1047E0006A077B0709F465C080910407909105076B
:1047F0009501860174010E945D1F882361F18C0C74
:104800009D1C12C095012C5F3A4FA9014C0D5D1DF6
:10481000D401F90102C081918D93E417F507D9F70E
:10482000E21BF30B8E0E9F1E960140E050E089853F
:104830009A85AB85BC85820F931FA41FB51F8987FE
:104840009A87AB87BC876C187D086114710409F0E6
:104850004BCFA20102C04FEF5FEFCA01DF91CF91B2
:104860001F910F91FF90EF90DF90CF90BF90AF908E
:104870009F908F907F906F905F904F903F902F9080
:104880000895AA88BB88CC88DD88E984FA840B85E2
:104890001C859A0140E050E0D601C5018E199F09A0
:1048A000A00BB10B82179307A407B50708F411CF2B
:1048B00013CFCB01BA0140E00E94F42D882309F008
:1048C000A1CFC9CFCF92DF92EF92FF920F931F93A8
:1048D000DF93CF930F92CDB7DEB76C01FC018481DB
:1048E000823070F0E184F28403851485C601BE0134
:1048F0006F5F7F4F41E050E00E944D23019769F0C8
:1049000020E030E0C9010F90CF91DF911F910F910E
:10491000FF90EF90DF90CF900895F601818592850A
:10492000A385B4854F96A11DB11D81879287A3876A
:10493000B487F5E016950795F794E794FA95D1F7C3
:104940008E2D8F70282F30E0E5E0220F331FEA957F
:10495000E1F72C5F3A4FD6CFCF93DF93EC018C81F8
:10496000843079F51D821E821F82188619861A8668
:104970001B861C8610C0CE010E946224FC01009799
:1049800001F180818823A1F0853E29F08E3219F053
:10499000838583FF16C029853A854B855C858A8986
:1049A0009B89AC89BD89281739074A075B0718F32B
:1049B00081E08C838B8182608B83CE010E943123C6
:1049C00001C080E0DF91CF9108955F926F927F9256
:1049D0008F929F92AF92BF92CF92DF92EF92FF920F
:1049E0000F931F93CF93DF936C01562E49015A0109
:1049F0003801FC01158216821782108611861286F4
:104A000013861486EE24FF24870120C08881882322
:104A100019F1853ED9F08E32C9F08B858871B1F4D9
:104A2000F2E05F1671F4E814F9040A051B0549F475
:104A3000CE01B3010E94EA20EC8CFD8C0E8D1F8DFF
:104A40000BC00894E11CF11C011D111DC6010E9440
:104A50006224EC010097D1F6B701C801DF91CF9134
:104A60001F910F91FF90EF90DF90CF90BF90AF908C
:104A70009F908F907F906F905F900895DF93CF937A
:104A800000D00F92CDB7DEB7282F6AE00E94A3377F
:104A9000805D8983822F0E94A337905D9A831B8259
:104AA00089E197E0BE016F5F7F4F0E94CF350F9085
:104AB0000F900F90CF91DF910895EF92FF920F9397
:104AC0001F938C01812F8695869586950E943E25A1
:104AD000B9E1EB2EB7E0FB2EC7016AE340E050E0FE
:104AE0000E94D936C801A5E096958795AA95E1F769
:104AF0008F730E943E25C7016AE340E050E00E94A8
:104B0000D9360F711070802F880F0E943E251F919B
:104B10000F91FF90EF900895EF92FF920F931F93E4
:104B20007C0109E117E0BC01672F77276695645483
:104B3000784FC8014AE050E00E948036C8016DE21B
:104B400040E050E00E94D936C70125E09695879550
:104B50002A95E1F78F700E943E25C8016DE240E082
:104B600050E00E94D9368E2D8F710E943E251F91F4
:104B70000F91FF90EF900895DF92EF92FF920F93C5
:104B80001F93CF93DF937C01D62EEC0110E000E061
:104B90008881803291F0083041F489E197E06EE23B
:104BA00040E050E00E94D9361F5F89E197E06881BC
:104BB00040E050E00E9491361F5F0F5F21960B305E
:104BC00039F7F70183858871803161F489E197E0D5
:104BD0006FE203C089E197E060E240E050E00E94AC
:104BE000D9361F5F1D15B0F3DF91CF911F910F9143
:104BF000FF90EF90DF9008950F931F93CF93DF9373
:104C0000EC018B018C81882309F041C0FB0187896D
:104C10008031B1F482E08C831E8A1F8A188E198E2F
:104C2000808D918DA0E0B0E045E0880F991FAA1F0C
:104C3000BB1F4A95D1F78A8B9B8BAC8BBD8B15C064
:104C4000803229F583E08C83FB01428D538D648D86
:104C5000758D4E8B5F8B688F798F9E012E5E3F4FD7
:104C6000C8010E94DC30882391F01B8F0A8F81E0FD
:104C70008B831D821E821F82188619861A861B86C8
:104C80001C861D861E861F86188A198A01C080E030
:104C9000DF91CF911F910F9108951F93CF93DF93D1
:104CA000EC01142FE62FF0E075E0EE0FFF1F7A9570
:104CB000E1F7EC5FFA4F8385817121F0842F8274D4
:104CC00009F054C0698B80917C0190917D01A09185
:104CD0007E01B0917F018D879E87AF87B88B8489D5
:104CE0009589A0E0B0E0BC0155274427828D938DC3
:104CF000A0E0B0E0482B592B6A2B7B2B4E8B5F8BAF
:104D0000688F798F838590E088719070009751F457
:104D1000848D958DA68DB78D8A8B9B8BAC8BBD8B2F
:104D200081E00CC0409711F59E012E5E3F4F8A8DA9
:104D30009B8D0E94DC308823C9F084E08C83812F16
:104D40008F708B831D821E821F82188619861A8699
:104D50001B861C8616FD02C081E009C0CE0140E022
:104D600050E060E070E00E94662201C080E0DF91C8
:104D7000CF911F910895DF92EF92FF920F931F93AF
:104D8000CF93DF938C01EB017A01D22EFC01848159
:104D9000882341F5822F8073803321F18A8D9B8D8A
:104DA000938F828FE5E0440F551FEA95E1F760E0AD
:104DB00070E0CE010E944C218823A1F0CE010E9418
:104DC0006224FC01009771F08081882359F0853EB0
:104DD00049F08E3239F06E2D6F70C8014D2D0E9452
:104DE0004D2601C080E0DF91CF911F910F91FF9080
:104DF000EF90DF9008958F929F92AF92BF92CF92E3
:104E0000DF92EF92FF920F931F93DF93CF93CDB773
:104E1000DEB7AA970FB6F894DEBF0FBECDBF8C01E8
:104E2000FC0115821682178210861186128613865F
:104E30001486B4E88B2EB1E09B2E5E010894A11C71
:104E4000B11C53C09A8289821D82C8010E946224CB
:104E5000FC01009709F463C08081882309F454C0E1
:104E6000853E09F442C08E3209F43FC0838583FD3C
:104E70003CC0A7019601A5E0569547953795279523
:104E8000AA95D1F77901C501B801A90121E00E94D5
:104E9000BB26882309F443C08D81843021F4C501E9
:104EA0000E94FB2606C08C8182608C83C5010E9413
:104EB00031238823A1F10894E11CF11CF5E0EE0CEC
:104EC000FF1CFA95E1F7A70160E070E0F801818529
:104ED0009285A385B48584179507A607B70729F09F
:104EE000C8010E944C218823D1F0F801C184D284EA
:104EF000E384F48482899389A489B589C816D90684
:104F0000EA06FB0608F49ECFF801848182508230C5
:104F100010F481E005C0C8010E94AC2401C080E00B
:104F2000AA960FB6F894DEBF0FBECDBFCF91DF912A
:104F30001F910F91FF90EF90DF90CF90BF90AF90B7
:104F40009F908F9008952F923F924F925F926F9211
:104F50007F928F929F92AF92BF92CF92DF92EF9209
:104F6000FF920F931F93DF93CF93CDB7DEB7E397F5
:104F70000FB6F894DEBF0FBECDBF6C016BA74CA778
:104F800039014801FEA6EDA6FC01158216821782A2
:104F9000108611861286138614865CE1A52EB12C2C
:104FA000A80EB91E862F90E09C012370307038AB9C
:104FB0002FA7FC01E170F070FAABE9AB34E0232ECF
:104FC000312C28223922F42FFE5FFBAB22E0422E47
:104FD000512C48225922A8C0F8018081882309F465
:104FE000AAC0853E09F4A0C08E3209F49DC0C80154
:104FF0002DA53EA5F9010995882309F495C06114F2
:10500000710471F08114910459F0C801B5010E9436
:10501000EA20C401B501F3010995882309F484C08D
:10502000FF2408C089E197E060E240E050E00E9480
:10503000D936F3943CA5F316A9F78FA598A9892B27
:1050400011F460E001C06EE0C8010E94BC25E9A92E
:10505000FAA9EF2B89F0F801808D918D0E948C25A3
:1050600089E197E060E240E050E00E94D936F80123
:10507000868997890E945D25F80183858871803132
:10508000A9F04114510491F089E197E060E240E019
:1050900050E00E94D936F801448D558D668D778D8C
:1050A00089E197E02AE030E00E94713689E197E0DB
:1050B0000E94ED3621143104B9F1F801838588711D
:1050C000803191F5F60181859285A385B48505E04F
:1050D000B695A795979587950A95D1F77C0124E811
:1050E00031E03A8329831D82AC0141505040CE010A
:1050F0000196B60121E00E94BB26882351F0CE0123
:1051000001966BA54BA920E030E000E010E00E9482
:10511000B42815E0EE0CFF1C1A95E1F7A70160E03A
:1051200070E0C6010E944C21C6010E9462248C01DD
:10513000009709F051CFE3960FB6F894DEBF0FBE8B
:10514000CDBFCF91DF911F910F91FF90EF90DF9036
:10515000CF90BF90AF909F908F907F906F905F9017
:105160004F903F902F9008956F927F928F929F92D1
:10517000AF92BF92CF92DF92EF92FF920F931F9365
:105180006C01762E642E5901E1EEEE2EE0E2FE2E49
:105190000E94A327C601672D462D950179EDE72EC4
:1051A00070E2F72E0E94A3271F910F91FF90EF90BE
:1051B000DF90CF90BF90AF909F908F907F906F9037
:1051C0000895CF93DF93EC019C012B5F3F4F8A8DB5
:1051D0009B8D41E050E060E070E00E944B318823FD
:1051E000A1F08E899F89A88DB98D0097A105B10581
:1051F00059F48D819E81AF81B8858E8B9F8BA88F4E
:10520000B98F8B8180688B8381E0DF91CF91089586
:105210002F923F924F925F927F928F929F92AF9286
:10522000BF92CF92DF92EF92FF920F931F93DF9383
:10523000CF9300D000D000D0CDB7DEB76C01162FD1
:10524000072F5E834D83DC0114968C911497813077
:1052500009F075C113968C9181FF71C18FC1F60160
:10526000428953896489758981859285A385B4852E
:1052700084179507A607B70731F0C6010E944C2195
:10528000882309F45CC1812F902F9C0129012D8076
:105290003E8019C1D6015A96ED91FC915B97DA01D7
:1052A000C90119E0B695A795979587951A95D1F7F5
:1052B00074807A947822AFEF8A2EA1E09A2E82220F
:1052C0009322772009F050C08114910409F04CC05A
:1052D000D60115964D915D916D917C911897411570
:1052E00051056105710581F456968D919D910D9042
:1052F000BC91A02D0097A105B10559F1F601858358
:105300009683A783B08730C0CF019E012F5F3F4FA8
:105310000E941030882319F440E050E016C1298122
:105320003A814B815C81D6015A96ED91FC915B9755
:105330008789803129F088EF9FEFAFEFBFE004C08D
:1053400088EF9FEFA0E0B0E0281739074A075B0716
:1053500030F0C6010E94E128882331F4F0C0F60144
:10536000258336834783508780E092E08819990926
:1053700051018215930508F45C01D6015A96ED910E
:10538000FC915B971596ED90FD900D911C911897EF
:105390008EEF9FEFAFEFBFEFE80EF91E0A1F1B1F46
:1053A000058404C0EE0CFF1C001F111F0A94D2F7E5
:1053B00086859785A089B189E80EF91E0A1F1B1FF3
:1053C000E70CF11C011D111D90E0A91692E0B90631
:1053D00051F580917C0190917D01A0917E01B09169
:1053E0007F018E159F05A007B10761F48FEF9FEF36
:1053F000AFEFBFEF80937C0190937D01A0937E017E
:10540000B0937F018091040790910507B801A7012F
:1054100092010E94311E882309F491C0A0E0B2E0FD
:105420004A0E5B1E3EC08114910409F5F6012185E8
:1054300032854385548582899389A489B589281743
:1054400039074A075B0798F00E94952D882309F4D5
:1054500076C0E0927C01F0927D0100937E01109372
:105460007F018091060781608093060708C0C8010C
:10547000B70141E00E94F42D882309F460C0940133
:105480002C5F3A4FA9014A0D5B1DD201F90102C000
:105490008D918193E417F507D9F7E21BF30B4E0EBC
:1054A0005F1E2A183B08950140E050E0F601818517
:1054B0009285A385B485820F931FA41FB51F818792
:1054C0009287A387B487D60119962D913D914D916E
:1054D0005C911C972114310409F0DCCE52968D9119
:1054E0009D910D90BC91A02D82179307A407B5073D
:1054F00048F4F601228B338B448B558B8381806873
:10550000838311C08091020590910305892B59F086
:105510008D819E81892B39F0D60113968C9113973A
:10552000806813968C93F601838183FF05C0C601C2
:105530000E941222882319F04D815E8106C081E00D
:10554000D60112968C934FEF5FEFCA0126960FB6E5
:10555000F894DEBF0FBECDBFCF91DF911F910F91A9
:10556000FF90EF90DF90CF90BF90AF909F908F9083
:105570007F905F904F903F902F90089582FD6FCE67
:1055800082CEDB010D900020E9F71197A61BB70B27
:10559000AD010E9408290895DF93CF930F92CDB7F4
:1055A000DEB76983BE016F5F7F4F41E050E00E942C
:1055B00008290F90CF91DF910895DF92EF92FF922B
:1055C0000F931F93CF93DF93EC010E94E128882370
:1055D00009F44EC0EA8DFB8DED80FE800F811885A9
:1055E0008EEF9FEFAFEFBFEFE80EF91E0A1F1B1FF4
:1055F000058404C0EE0CFF1C001F111F0A94D2F793
:1056000086859785A089B189E80EF91E0A1F1B1FA0
:10561000D4800894E108F108010911090BC0C80100
:10562000B7016D0D711D811D911D0E94D02D882324
:10563000F9F0DA94DD2099F7EA8DFB8D20E032E075
:1056400040E050E0058404C0220F331F441F551F63
:105650000A94D2F78A899B89AC89BD89820F931FEE
:10566000A41FB51F8A8B9B8BAC8BBD8B81E001C0C7
:1056700080E0DF91CF911F910F91FF90EF90DF902D
:1056800008956F927F928F929F92AF92BF92CF9226
:10569000DF92EF92FF920F931F93DF93CF93CDB7DB
:1056A000DEB72B970FB6F894DEBF0FBECDBF5C01FF
:1056B0006B01822EDC0114968C91882309F0D2C0F4
:1056C000CA018E010F5F1F4FB8010E940B21882372
:1056D00009F4C8C0F601828D938DD5015B969C9329
:1056E0008E935A971582168217821086D6011996C4
:1056F0001D921D921D921C921C979924380141C045
:10570000C6010E946224FC01009709F4ABC085E049
:1057100016950795F794E7948A95D1F71E2D1F707B
:105720008081882311F0853ED1F4992091F4D50130
:1057300051961C93519720917C0130917D014091AD
:105740007E0150917F011D962D933D934D935C9367
:1057500050978081882399F49924939421C0C301A0
:10576000BF014BE050E00E948B06009751F4882D5A
:105770008073803309F476C0C501612F6FC099240E
:105780009394F601E184F2840385148582899389D8
:10579000A489B589E816F9060A071B0708F4B0CFF3
:1057A000882D8271823109F05DC0992041F0C501D8
:1057B00061E00E94F5218C01009789F453C0D60165
:1057C00014968C91823009F44DC0C6010E94DD2AE6
:1057D000882309F447C0F501118A04E015E080E24E
:1057E000D8011D928A95E9F7D801FE0131968BE028
:1057F00001900D928150E1F7E0910205F0910305CF
:10580000309739F0B801625F7F4FC8014096099523
:1058100009C081E298E2F801918B808B80E098E0EA
:1058200097878687D80150968D919C915197539672
:105830009C938E93529759969C938E9358971E964D
:105840008D919C911F9757969C938E9356970E948B
:10585000952D882339F0C501F5016189482D0E94F5
:105860004D2601C080E02B960FB6F894DEBF0FBE28
:10587000CDBFCF91DF911F910F91FF90EF90DF90FF
:10588000CF90BF90AF909F908F907F906F90089532
:105890000F931F93DF93CF93CDB7DEB7AA970FB6C1
:1058A000F894DEBF0FBECDBF9C01AB0184E891E050
:1058B0009A8389831D828E010F5F1F4FC801B90132
:1058C00022E00E94412B882319F0C8010E94312355
:1058D000AA960FB6F894DEBF0FBECDBFCF91DF9171
:1058E0001F910F9108956F927F928F929F92AF9226
:1058F000BF92CF92DF92EF92FF920F931F93CF93BD
:10590000DF93EC013B014A0159016115710509F46E
:105910004AC04115510509F446C01D821E821F82EE
:10592000188619861A861B861C869CE1C92ED12CE6
:10593000CC0EDD1EEE24FF2487012EC0808188233B
:10594000A9F1853E49F18E3239F18385887121F5BF
:10595000CF01B6010E94EA20C401B601F301099506
:105960008823D1F0CE01B6010E94482C882371F023
:105970000894E11CF11C011D111D1D821E821F8255
:10598000188619861A861B861C8606C0A114B104C7
:1059900019F0C601F5010995CE010E946224FC01AF
:1059A000009761F603C0EE24FF248701B701C80108
:1059B000DF91CF911F910F91FF90EF90DF90CF90EB
:1059C000BF90AF909F908F907F906F900895EF92CF
:1059D000FF920F931F93DF93CF93CDB7DEB7A097BE
:1059E0000FB6F894DEBF0FBECDBF8C017B0123E361
:1059F0000E94412B882309F48AC081E0D8011396C4
:105A00008C93139784E014968C93C8010E94DD2A2E
:105A1000882309F47CC0C8010E941222882309F45B
:105A200076C0C80161E00E94F521FC01009709F4ED
:105A30006EC080E18387DE01119680E201900D92B5
:105A40008150E1F7FE01329620E2CE010C962193BF
:105A5000E817F907E1F78EE28983D8015A96ED91AC
:105A6000FC915B9756966D917D918D919C91599784
:105A70006250704080409040058404C0660F771FDC
:105A8000881F991F0A94D2F7268537854089518946
:105A9000620F731F841F951F41E00E94F42D88231D
:105AA000B1F1A4E0B5E0FE01319680E201900D92E3
:105AB0008150E1F78EE28A83F7018481825082303F
:105AC00028F41C8E1B8E1E8A1D8A0CC0F701868945
:105AD0009789A08DB18D9C8F8B8FCD01AA27BB2775
