:100000000C94CC000C94F4000C94F4000C94F400C8
:100010000C94F4000C94F4000C94F4000C94F40090
:100020000C94F4000C94F4000C94F4000C94F40080
:100030000C94F4000C94F4000C94F4000C94F40070
:100040000C94E61D0C94F4000C94021D0C94481DB5
:100050000C94F4000C94F4000C94F4000C94F40050
:100060000C94F4000C94F4006572726F7220777235
:100070006974696E6720746F2066696C65004372ED
:100080006561746520636F6E666967206661696C7F
:1000900065640052656D6F766520636F6E66696793
:1000A000206661696C6564004572726F72206372CC
:1000B000656174696E67205345514C4F470A0021B2
:1000C000546F6F206D616E79206C6F67733A3221C7
:1000D0000021546F6F206D616E79206C6F67733AE9
:1000E0003121006572726F72206F70656E526F6F92
:1000F00074006572726F7220766F6C756D652E6913
:100100006E6974006572726F7220636172642E6929
:100110006E6974005344206572726F723A200065F4
:1001200072726F723A20007C3C3E5E2B3D3F2F5B2B
:100130005D3B2C2A225C0000000000240027002ADE
:100140000000000000250028002B00000000002314
:10015000002600290004040404040404040202022A
:1001600002020203030303030301020408102040F8
:100170008001020408102001020408102000000081
:100180000700020100000304060000000000000058
:100190000000E404BA17DD0411241FBECFEFD8E03D
:1001A000DEBFCDBF11E0A0E0B1E0E2EBF3E402C0BE
:1001B00005900D92A63DB107D9F717E0A6EDB1E085
:1001C00001C01D92A739B107E1F711E0C6E9D1E0FE
:1001D00004C02297FE010E949121C239D107C9F7BC
:1001E0000E94B61F0C94CC210C940000FC018827BF
:1001F0009927E89421912032E9F3293010F02E302C
:10020000C8F32B3241F02D3239F4689404C00E94B7
:100210004501820F911D219120532A30C0F31EF415
:10022000909581959F4F0895FB01DC0104C08D914D
:100230000190801921F441505040C8F7881B990B58
:100240000895FB01DC0102C001900D924150504025
:10025000D8F70895FB01DC010D900020E9F7119714
:1002600001900D920020E1F70895FB01DC018D91D2
:10027000019080190110D9F3990B0895FB01DC015D
:1002800001900D920020E1F708957AE0979F902D5C
:10029000879F802D910D11240895AEE0B0E0E3E535
:1002A000F1E00C94A3210D891E8986E08C831A83CA
:1002B00009838FEF9FE79E838D839E01275E3F4FCB
:1002C000CE0101966F89788DA9010E9471012F815D
:1002D0003885020F131FF80110822E96E4E00C946B
:1002E000BF21ABE0B0E0E7E7F1E00C9495213C01E1
:1002F0002B015A01FC0117821682838181FD03C004
:100300006FEF7FEFC6C19AE0892E1E010894211C71
:10031000311CF3012381F20123FD859123FF81919B
:100320002F01882309F4B2C1853239F423FD859168
:1003300023FF81912F01853229F490E0B3010E94BF
:100340006403E7CF982FFF24EE249924FFE1FF15E3
:10035000D0F09B3269F09C3228F4903259F09332FD
:1003600091F40EC09D3249F0903369F441E024C00D
:1003700052E0F52A84E0F82A28C098E0F92A25C03E
:10038000E0E1FE2A22C0F7FC29C0892F80538A3081
:1003900070F4F6FE05C0989C902C1124980E15C0A0
:1003A000E89CE02C1124E80EF0E2FF2A0EC09E32F9
:1003B00029F4F6FC6BC140E4F42A07C09C3619F41A
:1003C00050E8F52A02C0983649F4F20123FD9591D0
:1003D00023FF91912F01992309F0B8CF892F8554DC
:1003E000833018F08052833038F444E050E0A40E9B
:1003F000B51E5FE359830FC0933631F0933779F020
:10040000933509F056C020C0F5018081898342E010
:1004100050E0A40EB51E610101E010E012C0F5012C
:10042000C080D180F6FC03C06FEF7FEF02C0692D62
:1004300070E042E050E0A40EB51EC6010E945903D0
:100440008C015FE7F52214C0F501C080D180F6FC75
:1004500003C06FEF7FEF02C0692D70E042E050E013
:10046000A40EB51EC6010E944E038C0150E8F52A69
:10047000F3FE07C01AC080E290E0B3010E9464035B
:10048000EA948E2D90E008171907A8F30EC0F60124
:10049000F7FC8591F7FE81916F0190E0B3010E9416
:1004A0006403E110EA94015010400115110579F739
:1004B000EAC0943611F0993669F5F7FE08C0F501E7
:1004C000208131814281538184E090E00AC0F501AE
:1004D000808191819C01442737FD4095542F82E013
:1004E00090E0A80EB91E9FE6F92257FF09C050956B
:1004F0004095309521953F4F4F4F5F4FE0E8FE2AE2
:10050000CA01B901A1012AE030E00E949003D82E6F
:10051000D21840C0953729F41F2D1F7E2AE030E005
:100520001DC01F2D197F9F3661F0903720F498353C
:1005300009F0ACC00FC0903739F0983709F0A6C069
:1005400004C028E030E00AC0106114FD146020E10E
:1005500030E004C014FD166020E132E017FF08C04F
:10056000F501608171818281938144E050E008C08F
:10057000F50180819181BC0180E090E042E050E093
:10058000A40EB51EA1010E949003D82ED2188FE7A9
:10059000F82EF122F6FE0BC05EEFF522D91438F4E6
:1005A000F4FE07C0F2FC05C08FEEF82202C01D2D3C
:1005B00001C0192DF4FE0DC0FE01ED0DF11D80816D
:1005C000803319F499EEF92208C01F5FF2FE05C0CE
:1005D00003C08F2D867809F01F5F0F2DF3FC14C028
:1005E000F0FE0FC01E1510F09D2C0BC09D2C9E0C14
:1005F000911A1E2D06C080E290E0B3010E946403B0
:100600001F5F1E15C0F304C01E1510F4E11A01C0CF
:10061000EE2404FF0FC080E390E0B3010E94640366
:1006200002FF1DC001FD03C088E790E00EC088E511
:1006300090E00BC0802F867891F001FF02C08BE222
:1006400001C080E2F7FC8DE290E0B3010E946403F8
:1006500006C080E390E0B3010E9464039A94D91429
:10066000C0F3DA94F101ED0DF11D808190E0B3014A
:100670000E946403DD20A9F706C080E290E0B30188
:100680000E946403EA94EE20C1F743CEF301668131
:100690007781CB012B96E2E10C94B121FC0105900E
:1006A000615070400110D8F7809590958E0F9F1F74
:1006B0000895FC016150704001900110D8F78095B9
:1006C00090958E0F9F1F08950F931F93CF93DF93E5
:1006D0008C01EB018B8181FF1BC082FF0DC02E813D
:1006E0003F818C819D812817390764F4E881F98165
:1006F0000193F983E88306C0E885F985802F099581
:10070000892B31F48E819F8101969F838E8302C055
:100710000FEF1FEFC801DF91CF911F910F91089547
:10072000FA01AA27283051F1203181F1E8946F9322
:100730006E7F6E5F7F4F8F4F9F4FAF4FB1E03ED0C8
:10074000B4E03CD0670F781F891F9A1FA11D680F66
:10075000791F8A1F911DA11D6A0F711D811D911D99
:10076000A11D20D009F468943F912AE0269F11240E
:100770003019305D3193DEF6CF010895462F477072
:10078000405D4193B3E00FD0C9F7F6CF462F4F70CD
:10079000405D4A3318F0495D31FD4052419302D02B
:1007A000A9F7EACFB4E0A6959795879577956795D1
:1007B000BA95C9F700976105710508959B01AC01D1
:1007C0000A2E06945795479537952795BA95C9F7F8
:1007D000620F731F841F951FA01D0895EF92FF9253
:1007E0000F931F937A018B011092C1002E732093F7
:1007F000C200403081EE580780E0680780E078074B
:1008000029F41092C00020E130E013C082E0809310
:10081000C00060E079E08DE390E0A80197010E94BC
:100820006D212150304040405040569547953795B6
:1008300027953093C5002093C40088E98093C100B8
:100840001F910F91FF90EF9008958091C00085FF58
:10085000FCCF6093C60081E090E00895CF92DF92D4
:10086000EF92FF920F931F93CF93DF937C016B0165
:100870008A01C0E0D0E00DC0D701ED91FC91D60116
:10088000AC0FBD1F0190F081E02DC7016C9109955F
:100890002196C017D10780F3C801DF91CF911F9136
:1008A0000F91FF90EF90DF90CF90089508958DE71E
:1008B00097E00E94EB1C0895DF93CF930F92CDB782
:1008C000DEB78DE797E0BE016F5F7F4F0E94B41CDB
:1008D000882319F42FEF3FEF03C08981282F30E0E0
:1008E000C9010F90CF91DF9108958DE797E00E94A5
:1008F000A21C0895FC0182ED91E0918380838781A1
:10090000882321F0CF0104960E947B100895813046
:10091000910509F044C06F5F7F4F09F04DC0109200
:10092000D9011092D80188EE93E0A0E0B0E0809366
:10093000DA019093DB01A093DC01B093DD018AEB37
:1009400091E09093D7018093D6018DE797E062EE16
:1009500071E041E253E00E94DF1C89E180930505CC
:10096000109208051092200510922B0510922E056A
:1009700010922A051092290582ED91E090932805A6
:100980008093270510924A0510924D051092490553
:100990001092480590934705809346050895892B4A
:1009A00059F46F5F7F4F41F486E495E00E947A042A
:1009B00087E295E00E947A04089580E090E06FEF6E
:1009C0007FEF0E948704089581E090E06FEF7FEF52
:1009D0000E94870408951F938DE897E061E070E01E
:1009E0000E94D31D809365058B3050F081E0809389
:1009F00065058DE897E061E070E041E00E94DA1D56
:100A00008DE897E062E070E00E94D31D8093660558
:100A1000863048F0109266058DE897E062E070E05D
:100A200040E00E94DA1D8DE897E065E070E00E94EA
:100A3000D31D8093670581508E3F50F08AE18093EB
:100A400067058DE897E065E070E04AE10E94DA1DF5
:100A50008DE897E066E070E00E94D31D8093680502
:100A600081508E3F50F083E0809368058DE897E0D9
:100A700066E070E043E00E94DA1D8DE897E067E0F1
:100A800070E00E94D31D11E0109369058DE897E096
:100A900067E070E041E00E94DA1D8DE897E068E0D1
:100AA00070E00E94D31D10936A058DE897E068E01E
:100AB00070E041E00E94DA1D1F9108950F931F938B
:100AC0000DE817E0C80161E070E041E00E94DA1D26
:100AD000C80162E070E040E00E94DA1DC80165E0F4
:100AE00070E04AE10E94DA1DC80166E070E043E070
:100AF0000E94DA1DC80167E070E041E00E94DA1D43
:100B0000C80168E070E041E00E94DA1D1F910F917A
:100B100008950F931F93CF93DF93C0E0D0E0082F89
:100B200010E015C085E061E00E940F1F68EC70E0E6
:100B300080E090E00E943C1E85E060E00E940F1F74
:100B400068EC70E080E090E00E943C1E2196C017A7
:100B5000D10744F360ED77E080E090E00E943C1E16
:100B6000C0E0D0E0F4CF0F931F93CF93DF93EC015D
:100B70008B0141E00E946518882311F081E005C0D7
:100B8000CE01B80140E00E946518DF91CF911F911E
:100B90000F910895EF92FF920F931F93CF93DF93DE
:100BA0007B018A01060F171FEB01C017D107B0F4B4
:100BB00020917F0730918007809181079091820773
:100BC0002817390759F0A8014C1B5D0B8DE797E0FA
:100BD000BE010E94871DC80FD91FE7CF9E012E19A5
:100BE0003F09C901DF91CF911F910F91FF90EF90C5
:100BF00008950F931F938C0186ED91E06FE171E0F2
:100C00000E94EF1F86ED91E0B8010E943B21809188
:100C100005058823E9F086ED91E064E171E00E942A
:100C2000EF1F6091050586ED91E070E040E150E036
:100C30000E94062186ED91E06CE20E9412206091F4
:100C4000070586ED91E070E040E150E00E94192137
:100C5000FFCFAF92BF92CF92DF92EF92FF920F93AE
:100C60001F93DF93CF93CDB7DEB7C155D0400FB6FA
:100C7000F894DEBF0FBECDBF1FAA1AAE1EAA1DAAD2
:100C800082ED91E09CAB8BABCE01C79669E075E03D
:100C90000E94CF12882321F480E091E00E94F905A0
:100CA0008E010F5F1F4FC80169E071E00E943E0195
:100CB00027E3E22EF12CEC0EFD1E8AE495E0B7014D
:100CC000A80122E00E94DB16882391F08AE495E0D7
:100CD0000E945A11882361F486ED91E063E970E087
:100CE0000E943A208AE495E00E947B10C701ECC084
:100CF0008E01095C1F4F8AE495E0B801AE014F5F99
:100D00005F4F26E40E94DB16882361F486ED91E0B4
:100D10006EE770E00E943A208AE495E00E947B1022
:100D2000C801D2C08DE897E061E070E00E94D31D59
:100D3000082F8DE897E065E070E00E94D31DA82E93
:100D40008DE897E066E070E00E94D31DB82E8DE834
:100D500097E062E070E00E94D31DC82E8DE897E016
:100D600067E070E00E94D31DD82E8DE897E068E020
:100D700070E00E94D31D182F002329F4CE010B969A
:100D800064E171E029C0043029F4CE010B9669E1D9
:100D900071E022C0013029F4CE010B966EE171E0C2
:100DA0001BC0053029F4CE010B9663E271E014C03C
:100DB000063029F4CE010B9669E271E00DC00230D5
:100DC00029F4CE010B966FE271E006C0033031F4D6
:100DD000CE010B9665E371E00E943E018DB79EB790
:100DE0000E970FB6F8949EBF0FBE8DBFEDB7FEB73E
:100DF00031969FE1E92EF12CEC0EFD1EADB7BEB78A
:100E00001296FC92EE9211978CE391E09383828389
:100E10008A2D992787FD9095958384838B2D99271B
:100E200087FD9095978386838C2D992787FD9095D4
:100E3000918780878D2D992787FD9095938782874D
:100E4000812F992787FD9095958784870E944D0172
:100E50008DB79EB70E960FB6F8949EBF0FBE8DBF8E
:100E60008E01055F1F4FC801B7010E942A01F801DA
:100E700001900020E9F73197E01BF10B86E495E043
:100E8000B801AF010E94EA17F80101900020E9F7CC
:100E90003197E01BF10B8E179F0731F086ED91E043
:100EA00068E670E00E943A2086E495E06DE471E027
:100EB0000E94C5178AE495E00E942D108AE495E00F
:100EC0000E947B10CE01C7960E947B10CE01C39674
:100ED0000E947A04CF5ADF4F0FB6F894DEBF0FBEE0
:100EE000CDBFCF91DF911F910F91FF90EF90DF90D9
:100EF000CF90BF90AF9008952F923F924F925F9204
:100F00006F927F928F929F92AF92BF92CF92DF9219
:100F1000EF92FF920F931F93DF93CF93CDB7DEB77E
:100F2000C754D0400FB6F894DEBF0FBECDBF1DA68C
:100F300018AA1CA61BA682ED91E09AA789A7CE014C
:100F40008D9669E075E00E94CF12882321F480E03D
:100F500091E00E94F9058E01085F1F4FC80169E00A
:100F600071E00E943E01FDE2EF2EF12CEC0EFD1E21
:100F70008AE495E0B701A80121E00E94DB168823EE
:100F800041F48AE495E00E947B10C7010E947B1027
:100F9000A1C1CC24DD248E010B5E1F4F8AE495E0B5
:100FA0000E947B1218165CF4F801EC0DFD1D808385
:100FB0000894C11CD11C84E1C816D10479F78AE4D5
:100FC00095E00E947B10CE018D960E947B107724C5
:100FD000739401E0BB24EAE18E2E73E0A72E9924DE
:100FE00010E0662463947E010894E11CF11C65E125
:100FF000262E312C2C0E3D1E57E0452E512C4C0E2A
:101000005D1E8CC0ED9393942A2F2E19892D90E0AC
:10101000F101E80FF91FE081EC3231F08C159D05EC
:101020001CF4A415B50571F7F701E20FF11D10824C
:10103000C7010E94F6001123F1F5C70164E171E0D8
:101040000E943501009711F400E066C0C70169E114
:1010500071E00E943501009711F404E05DC0C70102
:101060006EE171E00E943501009709F454C0C70198
:1010700063E271E00E943501009711F405E04CC075
:10108000C70169E271E00E943501009711F406E0A2
:1010900043C0C7016FE271E00E943501009711F46F
:1010A00002E03AC0C70165E371E00E943501009794
:1010B00091F503E031C0113031F4882E882361F5B9
:1010C0004AE1842E29C0123039F4A82E882301F178
:1010D0008AE08A15ECF020C0133041F4B82E882342
:1010E000D9F085E08B15C4F4BB2416C0143039F454
:1010F000782E81E0871580F4772473940DC0153025
:10110000A1F4682E81E0861538F46624639404C047
:1011100033E0A32E01C001E01F5F9394892D90E07E
:101120008C159D0514F4D7016FCF202F332727FD91
:1011300030958091650590E02817390711F440E05B
:1011400063C08DE897E061E070E0402F0E94DA1DF7
:1011500000936505002349F486ED91E040E659E0EF
:1011600060E070E026E00E94EE0380916505843027
:1011700049F486ED91E040EC52E160E070E026E059
:101180000E94EE0380916505813049F486ED91E07F
:1011900040E855E260E070E026E00E94EE038091B6
:1011A0006505853049F486ED91E040E05BE460E060
:1011B00070E026E00E94EE0380916505863049F4D8
:1011C00086ED91E040E056E960E070E026E00E94A4
:1011D000EE0380916505823049F486ED91E040E0B0
:1011E00051EE60E070E026E00E94EE03809165051C
:1011F000833049F486ED91E040E052EC61E070E02C
:1012000026E00E94EE0341E02B2D332727FD309589
:101210008091660590E02817390751F0B092660575
:101220008DE897E062E070E04B2D0E94DA1D41E00E
:10123000282D332727FD30958091670590E02817EA
:10124000390751F0809267058DE897E065E070E01E
:10125000482D0E94DA1D41E02A2D332727FD3095C5
:101260008091680590E02817390751F0A092680531
:101270008DE897E066E070E04A2D0E94DA1D41E0BB
:10128000272D332727FD30958091690590E0281799
:10129000390751F0709269058DE897E067E070E0DA
:1012A000472D0E94DA1D41E0262D332727FD30957A
:1012B00080916A0590E02817390751F060926A051D
:1012C0008DE897E068E070E0462D0E94DA1D02C0CC
:1012D000413011F40E942906CE0189960E947A04B9
:1012E000C95BDF4F0FB6F894DEBF0FBECDBFCF9105
:1012F000DF911F910F91FF90EF90DF90CF90BF9003
:10130000AF909F908F907F906F905F904F903F90A5
:101310002F9008950F931F9380E060E00E94D01EED
:1013200080E061E00E940F1F80E00E94631F019730
:1013300009F471C08DE061E00E94D01E8DE061E093
:101340000E940F1F10E000E269E170E080E090E091
:101350000E943C1E8BB180278BB980E00E94631FE6
:10136000019709F458C069E170E080E090E00E94C4
:101370003C1E85B1802785B980E00E94631F0197DC
:1013800009F449C01F5F1832F9F60E945E0584E037
:1013900095E060E04AE00E94490E882321F480E74E
:1013A00091E00E94F90589E095E064E075E00E9413
:1013B000B305882321F48AE791E00E94F9058BE2C6
:1013C00095E069E075E00E94CF12882321F480E067
:1013D00091E00E94F9050E94290685E061E00E94E3
:1013E000D01E8DE061E00E94D01E85E061E00E9489
:1013F0000F1F8DE061E00E940F1F10E264EF71E0AB
:1014000080E090E00E943C1E8BB181278BB985B1B2
:10141000812785B9F3CF1F910F91089585E061E091
:101420000E94D01E83B7817F83BF83B7816083BF53
:1014300080917A008F7780937A0080E880BF8FE375
:1014400080937E0083E080937F00809164008068B9
:101450008093640080916400886080936400809130
:101460006400806480936400809164008160809354
:1014700064000E948A090E94EB048091650588231C
:1014800049F486ED91E040E659E060E070E026E046
:101490000E94EE0380916505843049F486ED91E069
:1014A00040EC52E160E070E026E00E94EE038091A3
:1014B0006505813049F486ED91E040E855E260E051
:1014C00070E026E00E94EE0380916505853049F4C6
:1014D00086ED91E040E05BE460E070E026E00E9491
:1014E000EE0380916505863049F486ED91E040E099
:1014F00056E960E070E026E00E94EE038091650509
:10150000823049F486ED91E040E051EE60E070E019
:1015100026E00E94EE0380916505833049F486ED54
:1015200091E040E052EC61E070E026E00E94EE03C2
:1015300086ED91E066E871E00E94382184E095E054
:1015400060E04AE00E94490E882349F486ED91E06C
:1015500064E071E00E94EF1F83E00E94890589E04A
:1015600095E064E075E00E94B305882349F486EDB8
:1015700091E062EF70E00E94EF1F83E00E94890516
:101580008BE295E069E075E00E94CF12882349F470
:1015900086ED91E063EE70E00E94EF1F83E00E9411
:1015A000890586ED91E068E871E00E9438210E948B
:1015B0007C070895DF92EF92FF920F931F93DF93C2
:1015C000CF93CDB7DEB7A0970FB6F894DEBF0FBEAE
:1015D000CDBFAC018AE495E06BE275E026E40E94A1
:1015E000DB16882321F48AE891E00E94F9058091B6
:1015F0005B0590915C05A0915D05B0915E0500973B
:10160000A105B10561F48AE495E040E050E060E0B6
:1016100070E00E94630F8AE495E00E942D1086ED31
:1016200091E06CE30E94122085E061E00E940F1FB0
:1016300000E010E07E010894E11CF11CA0E2DA2E2B
:1016400086ED91E0B70140E250E00E94CA05482FC4
:10165000882351F086E495E0B70150E00E94EA1734
:101660008BB18D258BB923C00536110518F18AE49D
:1016700095E00E942D105D988091640080628093B7
:1016800064008091640084608093640083B781600B
:1016900083BF889583B78E7F83BF809164008B7FE3
:1016A00080936400809164008F7D8093640000E0EB
:1016B00010E0C6CF0F5F1F4F61E070E080E090E068
:1016C0000E943C1EBDCF0F931F93DF93CF93CDB7E6
:1016D000DEB72D970FB6F894DEBF0FBECDBFDE018B
:1016E0001196E0E9F1E08DE001900D928150E1F773
:1016F0008AE495E06BE275E08E010F5F1F4FA80151
:1017000022E40E94DB16882339F486ED91E068EA32
:1017100070E00E94EF1F07C08AE495E00E947B10F2
:10172000C8010E94DA0A2D960FB6F894DEBF0FBEEC
:10173000CDBFCF91DF911F910F910895CF92DF928E
:10174000EF92FF920F931F93DF93CF93CDB7DEB746
:101750002D970FB6F894DEBF0FBECDBF8DE897E092
:1017600063E070E00E94D31D182F8DE897E064E0DD
:1017700070E00E94D31D282F1F3F99F48F3F89F4FA
:101780008DE897E063E070E040E00E94DA1D8DE8AC
:1017900097E064E070E040E00E94DA1DEE24FF2450
:1017A00010C0922F80E0E12EFF24E82AF92A8EEF64
:1017B000E8168FEFF80629F486ED91E061ED70E010
:1017C0001CC0DE011196E9EAF1E08DE001900D9276
:1017D0008150E1F78E010F5F1F4FBDE9CB2EB1E0C5
:1017E000DB2E0894E11CF11C9EEFE9169FEFF90631
:1017F00038F086ED91E06FEB70E00E94EF1F42C081
:1018000000D000D000D0EDB7FEB73196ADB7BEB76F
:1018100012961C930E931197D382C282F582E482B2
:101820000E944D018DB79EB706960FB6F8949EBFE5
:101830000FBE8DBF8AE495E06BE275E0A80122EC53
:101840000E94DB16882369F28AE495E00E947B10EF
:101850008DE897E063E070E04E2D0E94DA1D8DE880
:1018600097E064E070E00E94D31D8F1539F08DE899
:1018700097E064E070E04F2D0E94DA1DCE010196E2
:101880000E94DA0A2D960FB6F894DEBF0FBECDBFC8
:10189000CF91DF911F910F91FF90EF90DF90CF904C
:1018A000089580916605882311F40E949E0B809113
:1018B0006605813011F40E94630BFFCFFF920F93F6
:1018C0001F93CF93DF938B010E942E1EEB01FF2409
:1018D000FA9409C00E942E1E6C1B7D0B60177107C5
:1018E00010F080E008C0FEBC0DB407FEFDCF8EB541
:1018F0008F3F81F781E0DF91CF911F910F91FF9092
:101900000895FC014281242F30E0C9019595879507
:1019100080658CBD40FF02C080E004C080E046309E
:1019200009F081E08DBD808160E00E940F1F089565
:10193000DF92EF92FF920F931F93CF93DF93EC010F
:10194000D62E79018A010E94810CCE016CE271E0F1
:101950000E945E0C8D2D80648EBD0DB407FEFDCF00
:1019600028E130E0D801C701022E04C0B695A79542
:10197000979587950A94D2F78EBD0DB407FEFDCFDB
:10198000285030408FEF283F380761F7DD2011F4F1
:1019900085E906C088E0D81611F487E801C08FEF0A
:1019A0008EBD0DB407FEFDCF8CE0D81631F48FEF5D
:1019B0008EBD0DB407FEFDCF8EB59FEF2FEF2EBD70
:1019C0000DB407FEFDCF8EB587FF04C0992311F03B
:1019D0009150F5CF8B83DF91CF911F910F91FF90A5
:1019E000EF90DF900895DF92EF92FF920F931F9395
:1019F000CF93DF93EC01D62E79018A0167E320E0D3
:101A000030E040E050E00E94980C882331F0CE0195
:101A10006D2DA80197010E94980CDF91CF911F9125
:101A20000F91FF90EF90DF900895FC01808161E0BD
:101A30000E940F1F8FEF8EBD0DB407FEFDCF0895DE
:101A4000DC016EBDFA0120E030E00DB407FEFDCFF1
:101A500080818EBD0DB407FEFDCF81818EBD2E5FCE
:101A60003F4F329682E02030380779F70DB407FEF9
:101A7000FDCF8FEF8EBD0DB407FEFDCF8FEF8EBD76
:101A80000DB407FEFDCF8FEF8EBD0DB407FEFDCF69
:101A90008EB513968C9313978F71853011F481E076
:101AA000089583E111968C931197CD010E94150D35
:101AB00080E00895CF92DF92EF92FF920F931F93F1
:101AC000CF93DF93EC017A018B0169018C81833024
:101AD00039F059E0EE0CFF1C001F111F5A95D1F789
:101AE000CE0168E1A80197010E94980C882311F0AB
:101AF00086E023C0CE016EEFA6010E94200D882350
:101B0000E9F0CE0168E572E00E945E0C882311F4D2
:101B100087E113C0CE016DE020E030E040E050E00E
:101B20000E94980C882341F48FEF8EBD0DB407FE00
:101B3000FDCF8EB5882379F086E18983CE010E949E
:101B4000150D80E0DF91CF911F910F91FF90EF90E5
:101B5000DF90CF900895CE010E94150D81E0F2CF65
:101B6000BF92CF92DF92EF92FF920F931F93CF938A
:101B7000DF93EC016B017A010E942E1E8B01BB24C6
:101B8000BA9409C00E942E1E601B710B6D527140E9
:101B900010F081E10BC0BEBC0DB407FEFDCF8EB5C9
:101BA0008B838F3F79F38E3F39F08FE08983CE01AD
:101BB0000E94150D80E02FC0D7011197EF28D9F0B2
:101BC0008FEF8EBD20E030E09FEF0BC00DB407FE1D
:101BD000FDCF8EB5F601E20FF31F80839EBD2F5F10
:101BE0003F4F2A173B0790F30DB407FEFDCF8EB58C
:101BF000AC0DBD1D8C938FEF8EBD0DB407FEFDCFD8
:101C00008EB58FEF8EBD0DB407FEFDCF8EB5CE0124
:101C10000E94150D81E0DF91CF911F910F91FF90F0
:101C2000EF90DF90CF90BF900895CF92DF92EF9228
:101C3000FF920F931F93CF93DF93EC017A018B01F7
:101C400069018C81833039F0A9E0EE0CFF1C001F84
:101C5000111FAA95D1F7CE0161E1A80197010E9459
:101C6000980C882339F084E08983CE010E94150DF9
:101C700080E006C0CE01B60140E052E00E94B00D07
:101C8000DF91CF911F910F91FF90EF90DF90CF9058
:101C90000895BF92CF92DF92EF92FF920F931F931E
:101CA000CF93DF93EC01B62E1C82198248830E94E9
:101CB0002E1E6B01888161E00E94D01E888161E048
:101CC0000E940F1F8CE060E00E94D01E8BE061E05C
:101CD0000E94D01E8DE061E00E94D01E8AE061E08B
:101CE0000E94D01E8AE061E00E940F1F85E08A8377
:101CF00082E58CBD1DBC80E09FEF9EBD0DB407FE4C
:101D0000FDCF8F5F8A30C9F709C00E942E1E6C1963
:101D10007D09615D774010F081E056C0CE0160E042
:101D200020E030E040E050E00E94980C182F8B83B8
:101D3000813059F7CE0168E02AEA31E040E050E016
:101D40000E94980C82FF02C01C8311C080E02FEF1C
:101D50002EBD0DB407FEFDCF9EB58F5F8430C1F759
:101D60009B839A3A11F082E02FC082E08C838C81B1
:101D7000823021F0EE24FF2487010FC0E12CF12CEA
:101D8000012D00E4102F09C00E942E1E6C197D0940
:101D9000615D774010F08AE017C0CE0169E2A801CA
:101DA00097010E94F30C8B83882371F78C8182301A
:101DB00029F5CE016AE320E030E040E050E00E94E7
:101DC000980C882331F088E08983CE010E94150D9C
:101DD00021C08FEF8EBD0DB407FEFDCF8EB5807C88
:101DE000803C11F483E08C8380E09FEF9EBD0DB4B6
:101DF00007FEFDCF2EB58F5F8330C1F7CE010E9465
:101E0000150D86E08B1518F488E1898303C0BA822A
:101E100081E001C080E0DF91CF911F910F91FF9091
:101E2000EF90DF90CF90BF9008950F931F93CF93C3
:101E3000DF93DC01EB018A0180E090E020E2FE010B
:101E4000E80FF91F208301968B309105C1F757E009
:101E500040E024C0622F2E3219F087E291E007C0E3
:101E60005A3051F15AE048E018C0321729F1FC010C
:101E7000019634913323C9F75417F0F02132E0F082
:101E80002F37D0F4822F81568A3110F4622F60529E
:101E9000FE01E40FF11D60834F5F11962C91222308
:101EA00011F02F32B9F6F801B183A08390E0888158
:101EB000803219F091E001C090E0892FDF91CF913D
:101EC0001F910F9108956F927F928F929F92AF9280
:101ED000BF92CF92DF92EF92FF920F931F93CF9317
:101EE000DF93EC017A018B012B81222309F480C05E
:101EF00089899A89AB89BC8984179507A607B70792
:101F000008F476C085C0E114F1040105110551F40F
:101F10001C821D821E821F82188619861A861B86C5
:101F200081E067C0288539854A855B85E98DFA8D12
:101F3000858590E00996215030404040504039015D
:101F40004A01082E04C096948794779467940A9463
:101F5000D2F72F5F3F4F4F4F5F4F0894E108F108D2
:101F6000010911095701680104C0D694C794B794B8
:101F7000A7948A95D2F70894E11CF11C011D111D4C
:101F8000A614B704C804D90428F021153105410569
:101F9000510549F48D899E89AF89B88D8C839D83C5
:101FA000AE83BF8316C0A618B708C808D90811C0E9
:101FB0004C815D816E817F81898D9A8D94010E9413
:101FC000531A0894A108B108C108D108882331F434
:101FD0000FC084E0882E912C8C0E9D1EA114B1049C
:101FE000C104D10429F7E886F9860A871B8798CFB0
:101FF00080E0DF91CF911F910F91FF90EF90DF90E4
:10200000CF90BF90AF909F908F907F906F900895EA
:10201000223009F078CFE7CFCF93DF93EC018C85A6
:102020009D85AE85BF8540E0611141E0BC01CD01D9
:102030000E942918882319F420E030E00AC088891A
:10204000282F30E095E0220F331F9A95E1F72B58A7
:102050003A4FC901DF91CF9108950F931F93CF930A
:10206000DF938C01FC0183818823E1F1818187FF6B
:1020700036C0C80161E00E940C10EC01009791F19C
:102080008881853E79F1F8018381823040F481892D
:102090009289A389B4898C8F9D8FAE8FBF8FF801F1
:1020A00085899689A789B08D9B8F8A8FCD01AA27B4
:1020B000BB279D8B8C8BE0916B05F0916C05309765
:1020C00051F0BE016A5E7F4FCE0148960995888D1A
:1020D000998D9B8B8A8BF80181818F7781830E94F8
:1020E000EE1704C081E0F801808380E0DF91CF919A
:1020F0001F910F9108950F931F938C010E942D1033
:10210000F80113821F910F910895FC0183818823A8
:1021100019F0CF010E947B1008956F927F928F92E9
:102120009F92AF92BF92CF92DF92EF92FF920F9366
:102130001F93DF93CF9300D000D0CDB7DEB77C01E3
:102140005A016B01DC0113968C911397813009F0D1
:1021500091C011968C9181FF8DC0A0C00097A10500
:10216000B10511F481E087C0F70160847184828435
:102170009384C701B601A5010E94630F882309F467
:1021800079C0D70159968D919C915A97A114B104A9
:10219000C104D10489F455964D915D916D917C9166
:1021A00058970E94C91A882309F464C0F701158A58
:1021B000168A178A108E44C0D70114964D915D91EE
:1021C0006D917C9117979E012F5F3F4F0E94531A8C
:1021D000882309F44FC0D7015996ED91FC915A9785
:1021E00049815A816B817C818789803149F4483FDC
:1021F000BFEF5B07B0E06B07B0E07B0748F020C0A3
:10220000483F8FEF58078FEF68078FE07807C0F4DB
:10221000CF010E94C91A882369F1D70114964D9104
:102220005D916D917C91179759968D919C915A97DC
:102230000FEF1FEF2FEF3FE00E94CC198823D1F062
:10224000F701A18AB28AC38AD48A81818068818396
:10225000C7010E942D10882369F0B601A5016A14F8
:102260007B048C049D0410F4B401A301C7010E94F7
:10227000630F01C080E00F900F900F900F90CF91EF
:10228000DF911F910F91FF90EF90DF90CF90BF9063
:10229000AF909F908F907F906F900895F701818904
:1022A0009289A389B48984179507A607B70708F010
:1022B00055CFE0CFCF93DF93EC0140E050E060E0FA
:1022C00070E00E948D10882369F0CE0161E00E94C9
:1022D0000C10FC01009731F085EE80831B820E9478
:1022E000EE1701C080E0DF91CF9108952F923F92C9
:1022F0004F925F926F927F928F929F92AF92BF9216
:10230000CF92DF92EF92FF920F931F93CF93DF93C1
:10231000EC012A018B81882309F4B6C0898180FFF2
:10232000B3C0C8C025014E185F083B0174E0272EDA
:10233000312C2C0E3D1E4201A1C0288539854A85CD
:102340005B856FEFA62E61E0B62EA222B3228B81B1
:1023500079018A0199E016950795F794E7949A9583
:10236000D1F7E98DFA8D823049F4428D538D648D19
:10237000758D4E0D5F1D601F711F3FC0D480DA94B4
:10238000DE20A114B104D9F4DD20C9F421153105F2
:102390004105510549F48D899E89AF89B88D8C839B
:1023A0009D83AE83BF830BC04C815D816E817F8135
:1023B000CF0191010E94531A882309F465C0E98D69
:1023C000FA8D4C815D816E817F814250504060402A
:1023D0007040058404C0440F551F661F771F0A9480
:1023E000D2F786859785A089B189480F591F6A1F42
:1023F0007B1F4D0D511D611D711D80E092E08A19FA
:102400009B0984018815990508F48C0182E000304D
:10241000180709F067C08091710590917205A0912D
:102420007305B0917405481759076A077B0709F4CB
:1024300059C0809175079091760793010E94150EFF
:10244000882349F421C095012B583A4FC301B901A3
:10245000A8010E942101600E711E980140E050E029
:1024600088859985AA85BB85820F931FA41FB51FF8
:1024700088879987AA87BB87801A910A811491045B
:1024800009F05BCFA20102C04FEF5FEFCA01DF91FD
:10249000CF911F910F91FF90EF90DF90CF90BF9061
:1024A000AF909F908F907F906F905F904F903F90F4
:1024B0002F900895A988BA88CB88DC88E884F984AD
:1024C0000A851B859A0140E050E0D601C5018E19AE
:1024D0009F09A00BB10B281739074A075B0708F0C3
:1024E00021CF23CFCB01BA0140E00E9429188823D5
:1024F00009F0A9CFC9CFDF93CF930F92CDB7DEB745
:10250000BE016F5F7F4F41E050E00E94761101975E
:1025100019F02FEF3FEF03C08981282F30E0C90168
:102520000F90CF91DF910895EF92FF920F931F9339
:10253000CF93DF93EC018B81823038F1E884F9840A
:102540000A851B85CE010E947B1297FD1EC08885DF
:102550009985AA85BB854F96A11DB11D888799874E
:10256000AA87BB87F5E016950795F794E794FA9547
:10257000D1F72E2D30E02F703070E5E0220F331FA1
:10258000EA95E1F72B583A4F02C020E030E0C9014C
:10259000DF91CF911F910F91FF90EF9008950F93CE
:1025A0001F93CF93DF93EC018B018B81882309F07C
:1025B00040C0FB018789803109F041C082E08B83F4
:1025C0001D8A1E8A1F8A188E808D918DA0E0B0E032
:1025D00025E0880F991FAA1FBB1F2A95D1F7898B69
:1025E0009A8BAB8BBC8B13C083E08B83F801428D3D
:1025F000538D648D758D4D8B5E8B6F8B788F9E01A7
:102600002F5E3F4FC8010E94271B882391F01A8F2D
:10261000098F81E089831C821D821E821F82188699
:1026200019861A861B861C861D861E861F86188A9A
:1026300001C080E0DF91CF911F910F91089580320A
:10264000C1F7D2CF1F93CF93DF93EC01142F262F26
:1026500030E0F90155E0EE0FFF1F5A95E1F7EB5816
:10266000FA4F8385817121F0842F827109F069C04E
:102670008091710590917205A0917305B0917405D8
:102680008C879D87AE87BF87688BF90145E0EE0F89
:10269000FF1F4A95E1F7EB58FA4F84899589A0E02E
:1026A000B0E0DC01992788278D8B9E8BAF8BB88F8C
:1026B000228D338DA90160E070E0482B592B6A2BE5
:1026C0007B2B4D8B5E8B6F8B788F838590E0887131
:1026D0009070009751F4848D958DA68DB78D898B60
:1026E0009A8BAB8BBC8B81E00CC0409751F59E015F
:1026F0002F5E3F4F898D9A8D0E94271B882309F1F9
:1027000084E08B83812F8F7089831C821D821E82BF
:102710001F82188619861A861B8614FF18C0CE01E0
:1027200040E050E060E070E00E948D10882379F472
:102730000AC049895A896B897C89CE010E94630F3E
:1027400002C01B8280E0DF91CF911F91089515FD9B
:10275000F0CF81E0F8CFCF93DF93EC019C012C5FA9
:102760003F4F898D9A8D41E050E060E070E00E941B
:10277000931B8823A1F08D899E89AF89B88D00971E
:10278000A105B10559F48C819D81AE81BF818D8BEE
:102790009E8BAF8BB88F89818068898381E0DF91C0
:1027A000CF9108952F923F924F925F927F928F9296
:1027B0009F92AF92BF92CF92DF92EF92FF920F93D0
:1027C0001F93DF93CF9300D000D000D0CDB7DEB7FA
:1027D0006C01162F072F5E834D83DC0113968C91BD
:1027E0001397813009F06EC111968C9181FF6AC1F7
:1027F00087C1F601418952896389748980859185F1
:10280000A285B38584179507A607B70731F0C601DF
:102810000E94630F882309F455C1812F902F9C01DA
:1028200019014D805E8012C1D6015996ED91FC913F
:102830005A97DA01C90149E0B695A795979587950A
:102840004A95D1F774807A9478228FEF882E81E0B0
:10285000982E82229322772009F052C0811491048D
:1028600009F04EC0D60114964D915D916D917C9109
:102870001797411551056105710571F1CF019E0151
:102880002F5F3F4F0E94531A882309F41BC12981EF
:102890003A814B815C81D6015996ED91FC915A9712
:1028A0008789803149F4283FBFEF3B07B0E04B07F1
:1028B000B0E05B0748F019C0283FEFEF3E07EFEFAD
:1028C0004E07EFE05E0788F4D60114962D933D93F2
:1028D0004D935C93179714C0F60185899689A78953
:1028E000B08D0097A105B10531F4C6010E94AB136C
:1028F000882331F4E7C0F60184839583A683B783E8
:1029000080E092E08819990952018415950508F430
:102910005C01D6015996ED91FC915A971496ED9071
:10292000FD900D911C9117978EEF9FEFAFEFBFEFCA
:10293000E80EF91E0A1F1B1F058404C0EE0CFF1CC5
:10294000001F111F0A94D2F786859785A089B18947
:10295000E80EF91E0A1F1B1FE70CF11C011D111DBB
:1029600090E0A91692E0B90639F580917105909131
:102970007205A0917305B09174058E159F05A0078F
:10298000B10771F4109277078FEF9FEFAFEFBFEFB2
:102990008093710590937205A0937305B0937405AD
:1029A0008091750790917607B801A70191010E9467
:1029B0005A0D8823B9F586C08114910419F5D60102
:1029C00018962D913D914D915C911B9751968D914B
:1029D0009D910D90BC91A02D281739074A075B07E0
:1029E00088F00E94EE17882309F46CC081E0809380
:1029F0007707E0927105F0927205009373051093CA
:102A0000740508C0C801B70141E00E942918882355
:102A100009F458C094012B583A4FC901B101A501DE
:102A20000E942101950140E050E0F60180859185EA
:102A3000A285B385820F931FA41FB51F808791873E
:102A4000A287B3872A0C3B1C4A185B08D60118964C
:102A50002D913D914D915C911B974114510409F0CA
:102A6000E3CE51968D919D910D90BC91A02D821732
:102A70009307A407B50748F4F601218B328B438BEB
:102A8000548B81818068818311C080916B05909106
:102A90006C05892B59F08D819E81892B39F0D601E7
:102AA00011968C911197806811968C93F601818113
:102AB00083FF05C0C6010E942D10882319F04D81A7
:102AC0005E8105C081E0D6018C934FEF5FEFCA01B4
:102AD00026960FB6F894DEBF0FBECDBFCF91DF9123
:102AE0001F910F91FF90EF90DF90CF90BF90AF902C
:102AF0009F908F907F905F904F903F902F90089580
:102B000082FD77CE8ACEDF92EF92FF920F931F93D2
:102B1000CF93DF93EC0189899A89AB89BC89805E68
:102B20009F4FAF41B04008F071C0CE010E94AB137F
:102B3000882309F46BC00E94EE17882309F466C04D
:102B4000E98DFA8DEC80FD800E811F818EEF9FEF65
:102B5000AFEFBFEFE80EF91E0A1F1B1F058404C06C
:102B6000EE0CFF1C001F111F0A94D2F78685978573
:102B7000A089B189E80EF91E0A1F1B1F81E080930E
:102B80007707E0927105F092720500937305109338
:102B9000740580E092E0E5E7F5E0DF019C011D921D
:102BA00021503040E1F7DD24D39411C0B801A701D2
:102BB0004D0D511D611D711D809175079091760716
:102BC00025E735E00E945A0D882301F1D394E98D61
:102BD000FA8D8481D81650F320E032E040E050E0D6
:102BE000058404C0220F331F441F551F0A94D2F7D7
:102BF00089899A89AB89BC89820F931FA41FB51F4D
:102C0000898B9A8BAB8BBC8B81E001C080E0DF911C
:102C1000CF911F910F91FF90EF90DF9008958F92C9
:102C20009F92AF92BF92CF92DF92EF92FF920F935B
:102C30001F93CF93DF936C01EB01942E852EA22E70
:102C4000898D9A8DD6015A969C938E935997CB0174
:102C500040E050E060E070E00E94630FBB2438C0A9
:102C6000CE010E949412FC01009709F493C055E034
:102C700016950795F794E7945A95D1F71E2D1F7076
:102C80008081882311F0853EC9F4BB2099F42091FE
:102C90007105309172054091730550917405D6010C
:102CA0001C962D933D934D935C931F9750961C93C8
:102CB000BB24B3948081882359F418C0892D982DA2
:102CC000BF014BE050E00E941401009709F470C06E
:102CD000E884F9840A851B8589899A89AB89BC892E
:102CE000E816F9060A071B0708F4BACFA6FE52C079
:102CF000A1FE50C0BB2051F0F6011089C60161E071
:102D00000E940C10EC01009769F444C08B81823062
:102D100009F440C0CE010E9483158823D9F110E048
:102D2000C5E7D5E080E2DE011D928A95E9F7DE0174
:102D3000292D382DC901FC018BE001900D928150A5
:102D4000E1F7E0916B05F0916C05309739F0BE0129
:102D5000625F7F4FCE014096099508C081E298E2FC
:102D6000998B888B80E098E09F878E8788899989E6
:102D70009B8B8A8B998F888F8E859F859F8B8E8B5F
:102D80000E94EE17882331F0C601612F4A2D0E9460
:102D9000221301C080E0DF91CF911F910F91FF902E
:102DA000EF90DF90CF90BF90AF909F908F9008955D
:102DB000A7FEEACFEFCF2F923F924F925F926F9292
:102DC0007F928F929F92AF92BF92CF92DF92EF92BB
:102DD000FF920F931F93DF93CF93CDB7DEB7C65407
:102DE000D0400FB6F894DEBF0FBECDBF3C016B01E3
:102DF000DE01AE5BBF4F11965C934E9325962FAFCD
:102E000025971C861F861FA21AA66115710509F455
:102E100080C0FC018381882309F07BC0FA01808196
:102E20008F32F1F08601ECE0EE2EF12CEC0EFD1E5F
:102E300072E4A72EB12CAC0EBD1E4E010894811C6D
:102E4000911C2796FFAEEEAE279767E2262E312C17
:102E50002C0E3D1E270124C01196B183A08301C012
:102E6000FD01A081B1818C918F32B1F3D60113960F
:102E70008C91139782508230A8F28E01095D1F4F0A
:102E800059966D917C915A97C8010E94CF12882360
:102E900051F63FC0342D252D8701832F922F7C01C1
:102EA000F50180819181B401A5010E94150F88234D
:102EB00029F42FC03196D501ED93FC93D501ED9106
:102EC000FC9180818F32B1F38823C9F0C701B8012A
:102ED000A40121E00E940F168823D9F00C151D05CE
:102EE00019F0C8010E947B102796EEADFFAD279721
:102EF000EE16FF0679F6C101322D292FCDCFC30181
:102F0000B801A40125962FAD25970E940F16182F02
:102F100001C010E0CE0187960E948510CE010C966C
:102F20000E948510812FCA5BDF4F0FB6F894DEBF79
:102F30000FBECDBFCF91DF911F910F91FF90EF900A
:102F4000DF90CF90BF90AF909F908F907F906F90C9
:102F50005F904F903F902F9008958091C10085FD24
:102F6000FCCF8091C00085FFF8CF6093C60081E060
:102F700090E008951092700510926F058AEC91E030
:102F800090936E0580936D050895DB010D900020F0
:102F9000E9F71197A61BB70B0496AD010E94D21357
:102FA0000895DF93CF930F92CDB7DEB76983049670
:102FB000BE016F5F7F4F41E050E00E94D21320E0DE
:102FC00030E0019711F421E030E0C9010F90CF917A
:102FD000DF91089504960E94D21308958091770797
:102FE000882399F1409171055091720560917305A4
:102FF00070917405809175079091760725E735E00B
:103000000E945A0D882319F1409178075091790751
:1030100060917A0770917B07411551056105710533
:1030200091F0809175079091760725E735E00E9431
:103030005A0D882361F01092780710927907109248
:103040007A0710927B071092770781E0089580E05D
:103050000895DF92EF92FF920F931F937B018C01F3
:10306000D42E8091710590917205A0917305B09155
:1030700074058E159F05A007B107C1F00E94EE17D9
:103080008823E1F08091750790917607B801A70138
:1030900025E735E00E94150E882381F0E092710546
:1030A000F09272050093730510937405DD2011F4FE
:1030B00081E005C081E08093770701C080E01F9127
:1030C0000F91FF90EF90DF9008958F929F92AF92B3
:1030D000BF92CF92DF92EF92FF920F931F93CF9305
:1030E000DF936C01142F7093760760937507FC01D2
:1030F000178A82E090E0A0E0B0E080839183A28311
:10310000B383109277071092780710927907109284
:103110007A0710927B078FEF9FEFAFEFBFEF80939F
:10312000710590937205A0937305B09374054423C1
:1031300021F488249924540140C0453008F01EC170
:1031400060E070E080E090E040E00E942918882371
:1031500009F414C1C12FD0E02197FE0174E0EE0FF5
:10316000FF1F7A95E1F7EB58FA4FE254FE4F80814A
:10317000EE5BF14090E08F779070892B09F0FEC0F4
:10318000E653FE4F80819181A281B38184369105FF
:10319000A105B10508F4F2C064E0CC0FDD1F6A950B
:1031A000E1F7C55CD84F88809980AA80BB808114E4
:1031B0009104A104B10409F4E1C0C501B40140E0E7
:1031C0000E942918882309F4D9C080918005909124
:1031D00081058050924009F0D1C0209185052223BD
:1031E00009F4CCC08091830590918405892B09F462
:1031F000C5C080918205882309F4C0C0F601228BE6
:10320000809182058483158661E070E007C04F5F7E
:10321000F60145874150483008F0B0C0F6014585B9
:10322000848190E09B01042E02C0220F331F0A9478
:10323000E2F78217930759F720918B0530918C059F
:103240002115310519F040E050E008C020919905A2
:1032500030919A0540919B0550919C05F60125837C
:10326000368347835087E0908305F090840500E023
:1032700010E0E80CF91C0A1D1B1DE38AF48A058B7B
:10328000168B8091860590918705918F808F609134
:10329000850570E080E090E00E944E216E0D7F1D5C
:1032A000801F911FF601628F738F848F958F2091FD
:1032B00086053091870555E0220F331F5A95E1F7B7
:1032C00021503E4F232F3327269540E050E0260F14
:1032D000371F481F591F26873787408B518B809196
:1032E000880590918905009719F0A0E0B0E008C02A
:1032F0008091950590919605A0919705B0919805BC
:1033000085017401E21AF30A040B150BA801970159
:10331000280F391F4A1F5B1FF601058404C056950C
:103320004795379527950A94D2F7218732874387A7
:103330005487253FFFE03F07F0E04F07F0E05F07CD
:1033400020F48CE0F601878B19C0255F3F4F404089
:10335000504018F480E1F6010EC08091A1059091D3
:10336000A205A091A305B091A405F601828F938FC9
:10337000A48FB58F80E2878B81E001C080E0DF9170
:10338000CF911F910F91FF90EF90DF90CF90BF9062
:10339000AF909F908F9008956F927F928F929F929F
:1033A000AF92BF92CF92DF92EF92FF920F931F9353
:1033B000CF93DF93EC015A016B0138014901423090
:1033C00051056105710508F45EC089859A85AB8554
:1033D000BC850196A11DB11D84179507A607B707E7
:1033E00008F451C08F89803129F4E52EF62E072F7D
:1033F00011270CC0803209F046C07A018B0187E0AA
:1034000016950795F794E7948A95D1F78B899C894F
:10341000AD89BE89E80EF91E0A1F1B1FC801B7013E
:1034200041E00E942918882371F18F89803149F485
:10343000F501F070EE0FFF1FEB58FA4F71826082BA
:103440000DC0F501EF77F070EE0FFF1FEE0FFF1FBD
:10345000EB58FA4F60827182828293828A8982302D
:1034600080F08D819E81AF81B885E80EF91E0A1F1C
:103470001B1FE0927807F092790700937A07109368
:103480007B0781E001C080E0DF91CF911F910F9118
:10349000FF90EF90DF90CF90BF90AF909F908F9074
:1034A0007F906F900895CF92DF92EF92FF920F93EB
:1034B0001F93CF93DF93EC017A018B01690189851A
:1034C0009A85AB85BC850196A11DB11D8417950712
:1034D000A607B70708F453C08F89803129F4552710
:1034E000412F302F2F2D0CC0803209F048C09A0197
:1034F000AB0167E056954795379527956A95D1F7C3
:103500008B899C89AD89BE89280F391F4A1F5B1F93
:103510008091710590917205A0917305B091740529
:10352000281739074A075B0739F0CA01B90140E09B
:103530000E942918882319F18F89803159F4F701E5
:10354000F070EE0FFF1FEB58FA4F80819181A0E0E1
:10355000B0E00EC0F701EF77F070EE0FFF1FEE0F37
:10356000FF1FEB58FA4F80819181A281B381BF7018
:10357000F60180839183A283B38381E001C080E060
:10358000DF91CF911F910F91FF90EF90DF90CF903F
:103590000895AF92BF92CF92DF92EF92FF920F9376
:1035A0001F93DF93CF9300D000D0CDB7DEB76C016F
:1035B0007A018B0182E090E0A0E0B0E0F601808328
:1035C0009183A283B3835E010894A11CB11CC60140
:1035D000B801A70195010E94531A882341F1C60141
:1035E000B801A70100E010E020E030E00E94CC1913
:1035F0008823E9F0E980FA800B811C81F601878934
:10360000803151F4F8EFEF16FFEFFF06F0E00F07FF
:10361000F0E01F07E0F209C088EFE8168FEFF80628
:103620008FEF08078FE0180790F281E001C080E07B
:103630000F900F900F900F90CF91DF911F910F91EE
:10364000FF90EF90DF90CF90BF90AF9008954F9292
:103650005F926F927F928F929F92AF92BF92CF9222
:10366000DF92EF92FF920F931F93DF93CF9300D0DF
:1036700000D0CDB7DEB76C0149835A836B837C835E
:103680003901EE24FF2487012E010894411C511CAE
:10369000812CE2E09E2EA12CB12C49815A816B81B4
:1036A0007C81C60192010E94531A882339F1D50109
:1036B000C401F601058404C0880F991FAA1FBB1F0F
:1036C0000A94D2F7E80EF91E0A1F1B1F29813A81BE
:1036D0004B815C818789803131F4285F3F4F4040C6
:1036E0005040D8F205C0285F3F4F4F4F5F40A8F2CF
:1036F000F301E082F1820283138381E00F900F9047
:103700000F900F90CF91DF911F910F91FF90EF904D
:10371000DF90CF90BF90AF909F908F907F906F90F1
:103720005F904F9008952F923F924F925F926F92C9
:103730007F928F929F92AF92BF92CF92DF92EF9241
:10374000FF920F931F93DF93CF93CDB7DEB72F97E1
:103750000FB6F894DEBF0FBECDBF1C014A875B8752
:103760006C877D873F872E87DC0119968D919D910F
:103770000D90BC91A02D0196A11DB11D8E839F833C
:10378000A887B987F9010081118122813381011550
:1037900011052105310549F0480159010894811CA2
:1037A000911CA11CB11C1D8210C0D1018D909D9057
:1037B000AD90BC901D828A859B85AC85BD850197A7
:1037C000A105B10511F491E09D83750164014424C4
:1037D000552432018E010F5F1F4FF10181859285C3
:1037E000A385B485481659066A067B0608F090C082
:1037F0008E819F81A885B9858C159D05AE05BF0575
:1038000050F4A2E08A2E912CA12CB12CF2E0CF2E04
:10381000D12CE12CF12CC101B701A60198010E9425
:10382000531A882309F474C089819A81AB81BC81C1
:10383000A70196012F5F3F4F4F4F5F4F0097A105A4
:10384000B10519F049015A010DC0281939094A0971
:103850005B098A859B85AC85BD85281739074A0792
:103860005B0759F00894411C511C611C711C0894A1
:10387000C11CD11CE11CF11CB0CFC101A601B701D4
:103880000FEF1FEF2FEF3FE00E94CC19882399F430
:103890003FC02601370108944108510861087108AA
:1038A000C101B301A201970186010E94CC198823AE
:1038B00079F1730162018C149D04AE04BF0448F3D6
:1038C000AE85BF854D915D916D917C9141155105FE
:1038D0006105710539F0C101950184010E94CC197F
:1038E0008823B1F0EE85FF8580829182A282B38227
:1038F000FD81FF2359F00894811C911CA11CB11C6F
:10390000D1018D929D92AD92BC92139781E001C03E
:1039100080E02F960FB6F894DEBF0FBECDBFCF91DB
:10392000DF911F910F91FF90EF90DF90CF90BF90AC
:10393000AF909F908F907F906F905F904F903F904F
:103940002F900895FC012FB7F89442815381848110
:103950009581481B590B2FBF57FF04C08681978163
:10396000480F591FCA010895CF93DF93DC01EB0183
:1039700014962D913C91159712968D919C911397C9
:103980008217930711F480E017C0ED91FC91119715
:10399000E20FF31F808188832F5F3F4F16968D9132
:1039A0009C9117972817390710F020E030E0159602
:1039B0003C932E93149781E0DF91CF910895FC0101
:1039C0007183608357834683158214828481958135
:1039D000938382830895FC012281338184819581C0
:1039E0002817390719F4EFEFFFEF0AC0848195819A
:1039F0000190F081E02DE80FF91F8081E82FF0E0C1
:103A0000CF0108951F920F920FB60F9211242F939A
:103A10003F934F938F939F93EF93FF934091C000F9
:103A20004C712091C60080917F0790918007E091B2
:103A30007D07F0917E07E80FF91F20839C012F5F1F
:103A40003F4F80918307909184072817390710F022
:103A500020E030E080918107909182072817390794
:103A600029F03093800720937F0701C04160809147
:103A70007C07842B80937C07FF91EF919F918F911E
:103A80004F913F912F910F900FBE0F901F9018955F
:103A90001F920F920FB60F9211242F933F938F9383
:103AA0009F93EF93FF932091890730918A0780912C
:103AB00087079091880782179307C9F0E0918507DF
:103AC000F0918607E20FF31FE0812F5F3F4F809157
:103AD0008B0790918C072817390710F020E030E011
:103AE00030938A0720938907E093C60005C0809130
:103AF000C1008F7D8093C100FF91EF919F918F91C5
:103B00003F912F910F900FBE0F901F901895EF923D
:103B1000FF920F931F93CF93DF937C01FA01F894E8
:103B2000DC0112962D913C9113977894DC01149648
:103B30000D911C9115972017310728F416964D9179
:103B40005C91179707C00217130718F0C0E0D0E088
:103B500022C0A901401B510BEA01E417F50708F444
:103B6000EF01F70120813181200F311FCB01B90115
:103B7000AE010E942101CE01800F911FD701169640
:103B80002D913C9117978217930710F0821B930B8E
:103B9000F70195838483CE01DF91CF911F910F911F
:103BA000FF90EF900895F999FECF72BD61BDF89A2C
:103BB00080B50895F999FECF1FBA72BD61BD40BDB1
:103BC0000FB6F894FA9AF99A0FBE08951F920F92C1
:103BD0000FB60F9211242F933F938F939F93AF9320
:103BE000BF938091920790919307A0919407B09111
:103BF0009507309196070196A11DB11D232F2D5FCA
:103C00002D3720F02D570196A11DB11D2093960749
:103C10008093920790939307A0939407B09395078E
:103C200080918E0790918F07A0919007B091910796
:103C30000196A11DB11D80938E0790938F07A093CD
:103C40009007B0939107BF91AF919F918F913F9152
:103C50002F910F900FBE0F901F9018958FB7F8946B
:103C600020919207309193074091940750919507C6
:103C70008FBFB901CA0108959B01AC017FB7F894C9
:103C800080918E0790918F07A0919007B091910736
:103C900066B5A89B05C06F3F19F00196A11DB11D27
:103CA0007FBFBA2FA92F982F8827860F911DA11D9E
:103CB000B11D62E0880F991FAA1FBB1F6A95D1F73B
:103CC000BC012DC0FFB7F89480918E0790918F07AB
:103CD000A0919007B0919107E6B5A89B05C0EF3F72
:103CE00019F00196A11DB11DFFBFBA2FA92F982F62
:103CF00088278E0F911DA11DB11DE2E0880F991F2D
:103D0000AA1FBB1FEA95D1F7861B970B885E9340CD
:103D1000C8F2215030404040504068517C4F21153E
:103D200031054105510571F60895789484B5826096
:103D300084BD84B5816084BD85B5826085BD85B54F
:103D4000816085BDEEE6F0E0808181608083E1E8FE
:103D5000F0E0108280818260808380818160808336
:103D6000E0E8F0E0808181608083E1EBF0E0808139
:103D700084608083E0EBF0E0808181608083EAE70B
:103D8000F0E0808184608083808182608083808194
:103D9000816080838081806880831092C100089553
:103DA000CF93DF93482F50E0CA0187599E4FFC0103
:103DB00034914B5A5E4FFA018491882369F190E067
:103DC000880F991FFC01E95CFE4FA591B491FC019D
:103DD000EF5BFE4FC591D491662351F42FB7F89451
:103DE0008C91932F909589238C93888189230BC084
:103DF000623061F42FB7F8948C91932F90958923BA
:103E00008C938881832B88832FBF06C09FB7F8943B
:103E10008C91832B8C939FBFDF91CF910895482F76
:103E200050E0CA0183589E4FFC012491CA01875972
:103E30009E4FFC0194914B5A5E4FFA01349133230B
:103E400009F440C0222351F1233071F0243028F4CA
:103E50002130A1F0223011F514C02630B1F0273006
:103E6000C1F02430D9F404C0809180008F7703C062
:103E7000809180008F7D8093800010C084B58F7703
:103E800002C084B58F7D84BD09C08091B0008F775A
:103E900003C08091B0008F7D8093B000E32FF0E0ED
:103EA000EE0FFF1FEF5BFE4FA591B4912FB7F89473
:103EB000662321F48C919095892302C08C91892BE3
:103EC0008C932FBF0895682F70E0CB0183589E4FCD
:103ED000FC012491CB0187599E4FFC0144916B5A00
:103EE0007E4FFB019491992319F420E030E03CC00F
:103EF000222351F1233071F0243028F42130A1F035
:103F0000223011F514C02630B1F02730C1F0243032
:103F1000D9F404C0809180008F7703C08091800025
:103F20008F7D8093800010C084B58F7702C084B5E8
:103F30008F7D84BD09C08091B0008F7703C08091D0
:103F4000B0008F7D8093B000892F90E0880F991F7B
:103F5000855B9E4FFC01A591B4918C9120E030E0EF
:103F6000842311F021E030E0C9010895CF93DF935D
:103F70000E94951E0E940E0AC0E0D0E00E94510CE3
:103F80002097E1F30E940000F9CFCF92DF92EF92E9
:103F9000FF920F931F93CF93DF937C016B018A01F4
:103FA000C0E0D0E00FC0D6016D916D01D701ED9159
:103FB000FC910190F081E02DC7010995C80FD91F30
:103FC000015010400115110571F7CE01DF91CF911D
:103FD0001F910F91FF90EF90DF90CF900895EF9297
:103FE000FF920F931F93CF93DF937C018B01C0E06F
:103FF000D0E0F8010F5F1F4F6491662359F0D7019D
:10400000ED91FC910190F081E02DC7010995C80F59
:10401000D91FEFCFCE01DF91CF911F910F91FF906C
:10402000EF900895DC01ED91FC910190F081E02D7D
:1040300009950895EF92FF920F931F938C01DC0175
:10404000ED91FC910190F081E02D6DE009957C01EE
:10405000D801ED91FC910190F081E02DC8016AE05A
:1040600009959C012E0D3F1DC9011F910F91FF90D5
:10407000EF900895EF92FF920F931F937C010E949F
:10408000EF1F8C01C7010E941A209C01200F311FD5
:10409000C9011F910F91FF90EF900895CF93DF9387
:1040A000DB010D900020E9F71197A61BB70BEC017F
:1040B000E881F9810280F381E02DAD010995DF915E
:1040C000CF9108954F925F927F928F929F92AF927D
:1040D000BF92CF92DF92EF92FF920F931F93DF93E5
:1040E000CF93CDB7DEB7A1970FB6F894DEBF0FBE62
:1040F000CDBF2C01742ECB01223008F42AE019A286
:1041000031E2C32ED12CCC0EDD1E822E9924AA249E
:10411000BB24672D752FA50194010E946D217901A3
:104120008A01C801B701A50194010E944E21472DC3
:10413000461B0894C108D1084A3014F4405D01C000
:10414000495CF6014083E114F1040105110521F0F9
:104150007E2C5F2DC801DDCFC201B6010E944E202A
:10416000A1960FB6F894DEBF0FBECDBFCF91DF9101
:104170001F910F91FF90EF90DF90CF90BF90AF9085
:104180009F908F907F905F904F900895CF92DF9295
:10419000EF92FF920F931F93CF93DF93EC016A018D
:1041A0007B012115310541F4E881F9810190F0810D
:1041B000E02D642F09951FC02A303105D1F477FF17
:1041C00017C0E881F9810190F081E02D6DE2099539
:1041D0008C0144275527BA014C195D096E097F09E6
:1041E000CE012AE00E9462209801280F391F04C0E6
:1041F0002AE00E9462209C01C901DF91CF911F91AA
:104200000F91FF90EF90DF90CF900895EF92FF9283
:104210000F931F937B019A010027F7FC0095102F45
:10422000B801A7010E94C6201F910F91FF90EF9047
:104230000895CF92DF92EF92FF920F931F936C013C
:104240007B019A010027F7FC0095102FB801A70108
:104250000E94C6208C01C6010E941A20080F191F57
:10426000C8011F910F91FF90EF90DF90CF900895BC
:104270000E944E200895EF92FF920F931F937C01AE
:104280000E944E208C01C7010E941A20080F191F9E
:10429000C8011F910F91FF90EF900895629FD00188
:1042A000739FF001829FE00DF11D649FE00DF11DF1
:1042B000929FF00D839FF00D749FF00D659FF00DA0
:1042C0009927729FB00DE11DF91F639FB00DE11D8D
:1042D000F91FBD01CF0111240895A1E21A2EAA1BD6
:1042E000BB1BFD010DC0AA1FBB1FEE1FFF1FA217A6
:1042F000B307E407F50720F0A21BB30BE40BF50BA3
:10430000661F771F881F991F1A9469F7609570952B
:10431000809590959B01AC01BD01CF010895EE0FF2
:10432000FF1F0590F491E02D09942F923F924F9238
:104330005F926F927F928F929F92AF92BF92CF9235
:10434000DF92EF92FF920F931F93CF93DF93CDB73E
:10435000DEB7CA1BDB0B0FB6F894DEBF0FBECDBFB6
:1043600009942A88398848885F846E847D848C8487
:104370009B84AA84B984C884DF80EE80FD800C8190
:104380001B81AA81B981CE0FD11D0FB6F894DEBF73
:104390000FBECDBFED01089511E0C6E9D1E004C024
:1043A000FE010E9491212296C839D107C9F7F894DD
:0243B000FFCF3D
:1043B2006F70656E526F6F7400636F6E6669672E01
:1043C200747874003234303000343830300039368A
:1043D200303000313932303000333834303000354B
:1043E2003736303000313135323030002C25642CF4
:1043F20025642C25642C25642C256400000A0D629A
:104402006175642C6573636170652C657363232C1D
:104412006D6F64652C766572622C6563686F00004F
:10442200636172642E696E697400766F6C756D6576
:104432002E696E697400310032006F70656E310052
:104442005345514C4F4730302E545854004C4F472F
:10445200253035642E545854004C4F47303030309C
:10446200302E545854000000000025042E04750418
:104472005C045704560400000000AD17C51F00007D
:064482000000D117C51F68
:00000001FF
