:100000000C94F3000C941B010C941B010C941B0129
:100010000C941B010C941B010C941B010C941B01F0
:100020000C941B010C941B010C941B010C941B01E0
:100030000C941B010C941B010C941B010C941B01D0
:100040000C946F1A0C941B010C94FE190C94331A27
:100050000C941B010C941B010C941B010C941B01B0
:100060000C941B010C941B01626175642C65736315
:100070006170652C657363232C6D6F64652C7665E8
:1000800072622C6563686F2C69676E6F7265525877
:1000900000006572726F722077726974696E6720F2
:1000A000746F2066696C6500256C642C25642C25B2
:1000B000642C25642C25642C25642C2564000043C5
:1000C000726561746520636F6E6669672066616939
:1000D0006C65640052656D6F766520636F6E66694E
:1000E00067206661696C656400636F6E6669672E80
:1000F00074787400636F6E6669672E747874003C60
:10010000004572726F72206372656174696E672058
:100110005345514C4F470A005345514C4F473030DF
:100120002E5458540021546F6F206D616E79206CED
:100130006F67733A3221004C4F47253035642E5497
:1001400058540021546F6F206D616E79206C6F6779
:10015000733A3121003200310066696C652E6F7090
:10016000656E00726F6F742E696E697400766F6CC5
:10017000756D652E696E697400636172642E696EB7
:100180006974004572726F7220000000000800025E
:10019000010000030407000000000000000001024D
:1001A0000408102040800102040810200102040805
:1001B00010200404040404040404020202020202E3
:1001C00003030303030300000000230026002900AB
:1001D00000000000250028002B0000000000240083
:1001E00027002A00D80811241FBECFEFD8E0DEBFB9
:1001F000CDBF11E0A0E0B1E0E4EBFFE302C0059069
:100200000D92A833B107D9F726E0A8E3B1E001C009
:100210001D92A13EB207E1F711E0C6EED1E004C0A5
:100220002297FE010E949B1CC43ED107C9F70E9481
:100230000D1C0C94D81F0C9400008091C00085FF09
:10024000FCCF6093C60081E090E00895CF92DF92EA
:10025000EF92FF920F931F93CF93DF938C017A015C
:10026000EB016B01C40ED51ECC15DD0551F0699173
:10027000D801ED91FC910190F081E02DC801099524
:10028000F3CFC701DF91CF911F910F91FF90EF90B6
:10029000DF90CF900895089504960C94C00F895D67
:1002A0009D4FFC01808191810C94A50A895D9D4F31
:1002B000FC01808191810C940C0BCF93DF931F92F2
:1002C000CDB7DEB7BE016F5F7F4F8FEC96E00E9427
:1002D0006319882319F0898190E002C08FEF9FEFA6
:1002E0000F90DF91CF9108958FEC96E00C94501908
:1002F0008FEC96E00C94CD190C94E51E0C94ED1E39
:10030000EF92FF920F931F93CF93DF938C017C01A9
:1003100080E8E80EF11CE801CE15DF0550F0CE01B3
:10032000801B910BDF91CF911F910F91FF90EF9068
:1003300008952091D1063091D2068091D3069091F4
:10034000D4062817390759F3A7014C1B5D0BBE01D2
:100350008FEC96E00E948419C80FD91FDDCFCF9291
:10036000DF92EF92FF926B017C011092C10086E058
:100370008093C20060E079E08DE390E0A7019601F0
:100380000E946C1CC901213060E2360730F4C114B0
:1003900061EED606E104F10431F41092C000C90107
:1003A0009695879503C022E02093C000019796950B
:1003B00087959093C5008093C40088E98093C1001D
:1003C000FF90EF90DF90CF900895CF93DF931F922F
:1003D000CDB7DEB7698341E050E0BE016F5F7F4F6C
:1003E00004960E94C00F0F90DF91CF910895FC01F9
:1003F00014821582138212828AE091E091838083B5
:100400000895EF92FF920F931F93CF93DF93EC0128
:100410007B018C01095D1D4FF8017183608361E0F0
:100420000E94521881110DC0F801F182E08260E053
:10043000CE01DF91CF911F910F91FF90EF900C941F
:10044000521881E0DF91CF911F910F91FF90EF90B3
:100450000895CF92DF92EF92FF920F931F93CF9365
:10046000DF93CDB7DEB7E1970FB6F894DEBF0FBECE
:10047000CDBFCE0101960E94F70183E090E00E947B
:100480007C01182F84E090E00E947C01E12EF12C89
:10049000F82A1F3F79F48F3F69F460E083E090E031
:1004A0000E947E0160E084E090E00E947E01E12CE9
:1004B000F12C08C08EEFE8168FEFF80619F463E40C
:1004C00071E044C047E3C42E41E0D42E8E010B5DA1
:1004D0001F4FFF92EF92DF92CF921F930F930E94D4
:1004E000F11C22ECA80166E471E0CE0105960E94A1
:1004F0003B0F0F900F900F900F900F900F90811166
:100500002CC021E0A80166E471E0CE0105960E94AE
:100510003B0F882389F08D8D9E8DAF8DB8A1892BDF
:100520008A2B8B2B29F4CE0105960E94320F2CC00A
:10053000CE0105960E94320F8FEFE81AF80A8EEF6F
:10054000E8168FEFF80628F265E271E087E993E09C
:100550000E941C1C80E090E018C0CE0105960E940D
:10056000320F8FEFE81AF80A6E2D83E090E00E94B8
:100570007E0184E090E00E947C018F1529F06F2DB0
:1005800084E090E00E947E01C801E1960FB6F894E5
:10059000DEBF0FBECDBFDF91CF911F910F91FF90B6
:1005A000EF90DF90CF900895C0E0D0E0082F10E0EA
:1005B000C017D107B4F461E085E00E94AD1B68EC80
:1005C00070E080E090E00E94E81A60E085E00E9420
:1005D000AD1B68EC70E080E090E00E94E81A219684
:1005E000E7CF60ED77E080E090E00E94E81AC0E09D
:1005F000D0E0DECFCF93C82F63E871E087E993E0C6
:100600000E941C1CC73069F028F4C630B1F469E7B9
:1006100071E009C0C83071F0C93079F469E571E062
:1006200002C06DE671E087E993E00E941C1C83E044
:100630000E94D40263E671E0F6CFCF910895CF9384
:10064000DF93CDB7DEB7C45AD1090FB6F894DEBF39
:100650000FBECDBF8C01CE018F579F4F0E94F70177
:1006600026E4A80166E471E081E890E08C0F9D1F0C
:1006700004960E943B0F811103C089E00E94FA0298
:10068000C356DF4F88819981AA81BB81CD59D04063
:10069000892B8A2B8B2B79F440E050E0BA0101E8DA
:1006A00010E00C0F1D1F0C5F1F4FC8010E94950D1D
:1006B000C8010E94E00E6FEF70E087E993E00E94AE
:1006C0001C1C61E085E00E94AD1B0E94B91A6B0101
:1006D0007C0101E810E00C0F1D1F0C5F1F4F50E262
:1006E000B52ECE0101960E948001882321F1CF57BB
:1006F000DF4FE881F981C158D040AC015527028015
:10070000F381E02DBE016F5F7F4FCE018F579F4F6A
:1007100009958BB18B258BB90E94B91A6C197D098B
:100720008E099F096938734181059105D0F2C8018E
:100730000E94E00E2AC00E94B91A6C197D098E0928
:100740009F09653F71408105910558F2C8010E94DB
:10075000E00E5D98809164008062809364008091D7
:10076000640084608093640083B7816083BF889550
:1007700083B78E7F83BF809164008B7F80936400FA
:10078000809164008F7D809364000E94B91A6B0190
:100790007C01A7CFCF93DF93CDB7DEB7E0970FB63D
:1007A000F894DEBF0FBECDBFCE0101960E94F701C7
:1007B00068E171E0CE0185960E94CC1C22E4AE0176
:1007C0004B5D5F4F66E471E0CE0105960E943B0FE2
:1007D00081110FC061E071E087E993E00E941C1C69
:1007E000E0960FB6F894DEBF0FBECDBFDF91CF917C
:1007F0000895CE0105960E94320FCE0185960E9483
:100800001F0380913D01811104C00E9429020E94B2
:100810001F03813009F0FFCF0E94CA03FCCFCF92A3
:10082000DF92EF92FF926B017C016E2D89E090E0E8
:100830000E947E019927F7FC9A958F2D7E2D6D2DB4
:100840008AE090E00E947E016C2D8BE090E0FF90AA
:10085000EF90DF90CF900C947E0160E875E280E02D
:1008600090E00E940F0460E082E090E00E947E0130
:100870006AE185E090E00E947E0163E086E090E01E
:100880000E947E0161E087E090E00E947E0161E0CD
:1008900088E090E00E947E0160E08CE090E00C94A3
:1008A0007E01CF93DF9389E090E00E947C01C82F06
:1008B0008AE090E00E947C01D82F8BE090E00E94BB
:1008C0007C014D2F50E060E070E0762F652F542FB3
:1008D0004427482B6C2BCB01BA01DF91CF910895AF
:1008E0000F931F930E9451048B019C010C521140E5
:1008F00021093109053111442F40310548F4609335
:100900003E0170933F01809340019093410112C0DA
:1009100080E895E2A0E0B0E080933E0190933F0133
:10092000A0934001B093410160E875E280E090E05F
:100930000E940F0482E090E00E947C01863018F44F
:1009400080933D0107C010923D0160E082E090E09D
:100950000E947E0185E090E00E947C019FEF980F4D
:100960009E3F18F480933C0108C08AE180933C01CB
:100970006AE185E090E00E947E0186E090E00E94BE
:100980007C0180933B018F3F41F483E080933B01E6
:1009900063E086E090E00E947E0111E010933A014E
:1009A00061E087E090E00E947E011093390161E0F0
:1009B00088E090E00E947E018CE090E00E947C0143
:1009C000823028F4809338011F910F91089510927E
:1009D000380160E08CE090E01F910F910C947E0153
:1009E000BF92CF92DF92EF92FF920F931F93CF931C
:1009F000DF93CDB7DEB7C459D1090FB6F894DEBF87
:100A00000FBECDBFCE01825B9F4F0E94F701CE018A
:100A10008A960E94F70166E671E08EE490E08C0F02
:100A20009D1F04960E94E90B811103C088E00E947B
:100A3000FA0269EE70E0CE0187579F4F0E94CC1CEE
:100A40000EE410E00C0F1D1F0C5F1F4F22E0AE01E3
:100A500047575F4FB801CE018E960E943B0F882307
:100A600049F0CE018E960E946012811103C064EDA0
:100A700070E013C00EE410E00C0F1D1F0C5F1F4F41
:100A800026E4AE0147575F4FB801CE018E960E9413
:100A90003B0F81110CC06FEB70E087E993E00E947F
:100AA000451CCE018E960E94320FC8019AC00E944A
:100AB0005104182F092F85E090E0CD56DF4F688351
:100AC000C359D040CC56DF4F7883C459D0400E94E0
:100AD0007C01F82E86E090E00E947C01E82E82E006
:100AE00090E00E947C01D82E87E090E00E947C017B
:100AF000C82E88E090E00E947C01B82E8CE090E047
:100B00000E947C011F928F931F92BF921F92CF92DF
:100B10001F92DF921F92EF921F92FF920F931F93EB
:100B2000CC56DF4F7881C459D0407F93CD56DF4FEC
:100B30006881C359D0406F9388EA90E09F938F9368
:100B40008E010E581F4F1F930F930E94F11CF80146
:100B500001900020E9F7AF0141505109401B510BB2
:100B6000B801CE018E960E94C00FF80101900020BE
:100B7000E9F73197E01BF10B0FB6F894DEBF0FBE1B
:100B8000CDBF8E179F0731F062E970E087E993E0EF
:100B90000E94451CCE018A960E94411C68E670E0C6
:100BA0008E010F5F1F4FC8010E94CC1CF8010190FD
:100BB0000020E9F7AF0141505109401B510BB8012A
:100BC000CE018E960E94C00FCE018E960E94E00E3E
:100BD000CE018E960E94320F8EE490E08C0F9D1F06
:100BE00004960E94320FCC56DF4F0FB6F894DEBF4A
:100BF0000FBECDBFDF91CF911F910F91FF90EF906E
:100C0000DF90CF90BF900895CF93DF9360E080E0B6
:100C10000E94741B61E080E00E94AD1B80E00E9496
:100C2000E31B019709F473C061E08DE00E94741B1F
:100C300061E08DE00E94AD1BC8E2D0E269E170E0A6
:100C400080E090E00E94E81A8BB18D278BB980E09C
:100C50000E94E31B019709F45AC069E170E080E04B
:100C600090E00E94E81A85B18D2785B980E00E9446
:100C7000E31B019709F44BC0C15001F70E942D04FA
:100C800022E04AE066E973E08FE893E00E94F6090B
:100C9000811103C086E00E94FA026FE873E086E6E5
:100CA00091E00E940102811103C087E00E94FA02D4
:100CB00086E491E00E94320F66E671E086E491E0FE
:100CC0000E94E90B811103C088E00E94FA020E9491
:100CD000F00461E085E00E94741B61E08DE00E94F9
:100CE000741B61E085E00E94AD1B61E08DE00E9415
:100CF000AD1BC0E264EF71E080E090E00E94E81A72
:100D00008BB18C278BB985B18C2785B9F3CFDF9157
:100D1000CF910895CF93FC0120E030E0A901C1916B
:100D200080ED8C0F8A3098F4AAE0B0E00E948E1C0F
:100D30002C2F332727FD309520533109442737FDC9
:100D40004095542F260F371F481F591FE8CFCA015F
:100D5000B901CF9108953F924F925F926F927F9227
:100D60008F929F92AF92BF92CF92DF92EF92FF92BB
:100D70000F931F93CF93DF93CDB7DEB7C257D1093F
:100D80000FB6F894DEBF0FBECDBFCE0185960E9490
:100D9000F701CE0101960E94F70166E671E0CE01EF
:100DA00089960E94E90B811103C088E00E94FA0233
:100DB00064EF70E0CE01805A9F4F0E94CC1C21E06E
:100DC000AE01405A5F4FBE01675D7F4FCE01059671
:100DD0000E943B0F882341F07E0139E4E30EF11CB1
:100DE00000E010E0570116C0CE0105960E94320FB8
:100DF000CE0189960E94320F25C1AB968FADAB977D
:100E000018169CF4F70181937F010F5F1F4F073184
:100E1000110559F041E050E0BE0166597F4FCE0107
:100E200005960E94030C019741F3CE0105960E949E
:100E3000320FCE0189960E94320F20E040E0712CE3
:100E4000992493948824839483E0682E9AE1592E00
:100E5000312C30E8C32E35E2D32EE12CF12C842F37
:100E600090E08017910784F080913E0190913F01BE
:100E7000A0914001B0914101C816D906EA06FB06CF
:100E800009F086C080E095C0FE01E659FF4F30E0D2
:100E9000432E440E842D90E0D501A80FB91F5C911C
:100EA0005C3241F0801791072CF4363019F05193E1
:100EB0003F5FEECFEAE6F0E0EC0FFD1FE30FF11D20
:100EC0001082CE0186599F4FE3962FAFE3970E9481
:100ED000AE1CE3962FADE39721111BC0CE018659BE
:100EE0009F4F0E948A066B017C01FCE2CF1AF1E061
:100EF000DF0AE108F108E3962FADE39735E1C31669
:100F000031E4D3063FE0E306F10470F56B017C01A8
:100F10003BC0213021F4181674F5582E35C022300C
:100F200021F48F3F59F1682E2FC0233031F49FEF09
:100F3000980F923030F5382E27C0243031F4882EA7
:100F4000882311F1882483941FC0253031F4982E12
:100F50008823D1F09924939417C0263009F084CFC8
:100F6000823088F4782E10C0B0E8CB2EB5E2DB2EAC
:100F7000E12CF12C09C0AAE15A2E06C0F3E06F2E35
:100F800003C0312C01C0712C2F5F41E0440D67CFAD
:100F9000C701B6010E940F04C0923E01D0923F01EA
:100FA000E0924001F0924101C701B6010E94AF01F9
:100FB00081E090913D01391641F030923D01632D61
:100FC00082E090E00E947E0181E090913C01591600
:100FD00041F050923C01652D85E090E00E947E0139
:100FE00081E090913B01691641F060923B01662DD2
:100FF00086E090E00E947E0181E090913A0189169E
:1010000041F080923A01682D87E090E00E947E01D5
:1010100081E090913901991641F090923901692D42
:1010200088E090E00E947E0181E09091380179167D
:1010300041F070923801672D8CE090E00E947E01B3
:1010400001C081110E94F004CE58DF4F0FB6F89412
:10105000DEBF0FBECDBFDF91CF911F910F91FF90EB
:10106000EF90DF90CF90BF90AF909F908F907F9048
:101070006F905F904F903F90089561E085E00E94EF
:10108000741B83B7817F83BF83B7816083BF8091E7
:101090007A008F7780937A0080E880BF8FE3809317
:1010A0007E0083E080937F0080916400806880935D
:1010B0006400809164008860809364008091640083
:1010C00080648093640080916400816080936400F8
:1010D0000E94700460913E0170913F018091400137
:1010E000909141010E94AF0180913E0190913F019A
:1010F000A0914001B0914101843F21E09207A105F8
:10110000B105D4F49C01AD0164E0220F331F441FEC
:10111000551F6A95D1F760E074E284EF90E00E9479
:101120006C1C215031093093C5002093C40080917C
:10113000C0008D7F8093C00067E571E087E993E090
:101140000E941C1C22E04AE066E973E08FE893E00D
:101150000E94F609811103C086E00E94FA026FE83E
:1011600073E086E691E00E940102811103C087E0EE
:101170000E94FA0286E491E00E94320F66E671E076
:1011800086E491E00E94E90B811103C088E00E948F
:10119000FA0265E571E087E993E00E941C1C0E9459
:1011A000AB0680913801811102C00C9404060895A9
:1011B00010929A031092990388EE93E0A0E0B0E0B9
:1011C00080939B0390939C03A0939D03B0939E03F5
:1011D0008AE191E0909398038093970341E253E072
:1011E00063EA73E08FEC96E00E94C31989E1809373
:1011F00092031092950310926B0182E191E090931B
:1012000067018093660182E491E00C94F70190E01D
:1012100022E0281740F0892F806A86958CBD909532
:1012200091709DBD08959730B0F7220F953010F45E
:1012300031E001C032E0930FECCF8FEF8EBD0DB4E3
:1012400007FEFDCF8EB508958EBD0DB407FEFDCF10
:10125000089561E0FC0182810E94AD1B8FEF0C9428
:101260002409CF93DF93EC018C810E94070960E091
:101270008A81DF91CF910C94AD1BCF92DF92EF92D8
:10128000FF920F931F93CF93DF93EC018B017A01B1
:101290000E94B91A6B010E941D098D838F3F49F48A
:1012A0000E94B91A6C197D096D327140A0F381E179
:1012B00003C08E3F39F08FE08B83CE010E94290955
:1012C00080E028C0E114F104E1F081E0E81AF108BF
:1012D0008FEF8EBDF8012FEFCF01801B910B8E1584
:1012E0009F0538F40DB407FEFDCF8EB52EBD81935A
:1012F000F3CF0DB407FEFDCF8EB5F801EE0DFF1D47
:1013000080831D820E941D090E941D09CE010E943A
:10131000290981E0DF91CF911F910F91FF90EF900C
:10132000DF90CF9008950F931F93CF93DF93EB013E
:101330000E94B91A8B010E941D098F3F49F00E943B
:10134000B91A601B710B6C177D07A8F380E001C010
:1013500081E0DF91CF911F910F910895FF920F933C
:101360001F93CF93DF9300D000D0CDB7DEB78C01B1
:10137000F62E29833A834B835C830E94310968E50A
:1013800072E0C8010E9493098F2D80640E94240995
:101390008C810E9424098B810E9424098A810E94E9
:1013A000240989810E942409F11002C085E901C045
:1013B00087E80E9424098CE0F81202C00E941D09EF
:1013C000F12C0E941D09F801858387FF05C0FFEFFE
:1013D000FF1611F0F394F5CF0F900F900F900F9030
:1013E000DF91CF911F910F91FF900895BF92CF92FF
:1013F000DF92EF92FF920F931F93CF93DF93EC0155
:10140000B22E1E821B82798368834A830E94B91A96
:101410008B0161E08A810E94741B61E08A810E94D5
:10142000AD1B2A9A229A239A259A80E48C830E94E3
:1014300007092AE0F22E8FEF0E942409FA94D9F7C7
:1014400020E030E0A90160E0CE010E94AE098130C9
:1014500049F00E94B91A601B710B613D774080F31F
:1014600081E051C02AEA31E040E050E068E0CE017E
:101470000E94AE09853011F481E00AC094E0F92E93
:101480000E941D098D83FA94D9F78A3A59F482E0B3
:101490008E838E81823079F4C12CD12CE12C80E4B2
:1014A000F82E0CC00E94B91A601B710B613D774089
:1014B000C8F282E028C0C12CD12C760120E030E0B7
:1014C000A90167E3CE010E94AE09A701960169E276
:1014D000CE010E94AE09882349F00E94B91A601B10
:1014E000710B613D774050F38AE00DC08E818230F0
:1014F000E9F420E030E0A9016AE3CE010E94AE09E0
:10150000882339F088E08B83CE010E94290980E08E
:1015100012C00E941D09807C803C11F483E08E8300
:101520000E941D090E941D090E941D09CE010E94F2
:101530002909BC8281E0DF91CF911F910F91FF902B
:10154000EF90DF90CF90BF9008950F931F93CF93AC
:10155000DF93EC0189018E81833039F039E0440F4B
:10156000551F661F771F3A95D1F79A01AB0161E1CC
:10157000CE010E94AE0981110AC040E052E0B801DC
:10158000CE01DF91CF911F910F910C943D0984E022
:101590008B83CE010E94290980E0DF91CF911F91BA
:1015A0000F9108950F931F93CF93DF93EC01862F34
:1015B0008A010E942409F80180818EBD818122E088
:1015C00030E00DB407FEFDCF8EBD2115F2E03F07E0
:1015D00039F0F801E20FF31F80812F5F3F4FF1CF09
:1015E0000DB407FEFDCF8FEF0E9424098FEF0E94FC
:1015F00024090E941D098D838F71853039F083E1A4
:101600008B83CE010E94290980E001C081E0DF9137
:10161000CF911F910F9108950F931F93CF93DF9355
:10162000EC0189018E81833039F089E0440F551F28
:10163000661F771F8A95D1F79A01AB0168E1CE0149
:101640000E94AE09882319F086E08B830CC0A801A4
:101650006EEFCE010E94D20A182F882321F0CE010E
:101660000E94290904C0CE010E94290910E0812F9F
:10167000DF91CF911F910F910895FC0182818068C5
:1016800082839F01245F3F4F44855585668577851A
:10169000868197810C9463179F92AF92BF92CF92ED
:1016A000DF92EF92FF920F931F93CF93DF93EC01A2
:1016B000888185FF02C0912C5EC088899989AA899A
:1016C000BB8981159E4FAF41B105A8F7CE010E949D
:1016D0003D0B982E882379F34C855D856E857F853B
:1016E0008E819F810E947A166B017C018E819F8181
:1016F00025E0B701A60180960E9438165C0100978C
:10170000D1F280E092E0F5019C011192215030402D
:10171000E1F711E0AE81BF8112960C91129710177C
:10172000A0F4ED91FC9111970280F381E02D9501D9
:10173000B701A601410F511D611D711DCD01099514
:10174000882309F4B8CF1F5FE5CF10E020E030E038
:1017500089E0000F111F221F331F8A95D1F7488996
:1017600059896A897B89400F511F621F731F488BFB
:10177000598B6A8B7B8B892DDF91CF911F910F91B4
:10178000FF90EF90DF90CF90BF90AF909F90089523
:10179000CF93DF93EC01262F4C895D896E897F8979
:1017A0008E819F8180960E9438169C01009761F07F
:1017B0008C819D818F70992745E0880F991F4A95EC
:1017C000E1F7820F931F02C080E090E0DF91CF919C
:1017D0000895FC018081811114C080E2DF01982FFF
:1017E0001D929A95E9F777836683DB0115969C91A4
:1017F000903119F0903229F480E4808381E0828373
:10180000089580E008952F923F924F925F926F92D9
:101810007F928F929F92AF92BF92CF92DF92EF9280
:10182000FF920F931F93CF93DF9300D000D0CDB7DB
:10183000DEB79C838B834B017A01DC018C9188237A
:1018400009F112969C9190FF1DC027C0D380D82229
:10185000A114B10409F09CC0D1109AC0452B462BAD
:10186000472B09F47EC0AB81BC811C964D915D91E4
:101870006D917C911F9729813A81CF010E94921628
:1018800087FF7EC0AB81BC8111968C9111978260DD
:1018900011968C938FEF9FEFE3C083FF17C0EB810E
:1018A000FC81808D918DA28DB38D40895189628993
:1018B0007389841B950BA60BB70BA70160E070E042
:1018C000481759076A077B07D0F018C085FF17C073
:1018D000AB81BC811696ED91FC911797868197811B
:1018E00055E0880F991F5A95E1F750962D913C913C
:1018F0005197821B930B8E159F0508F47C0187017D
:10190000EB81FC813C96FA83E983612C42E0742EE2
:101910000115110509F468C0AB81BC8150964D9149
:101920005D916D917C9153975A01B1E0BB22EB819F
:10193000FC8120810680F781E02DDB01CA0139E0BE
:10194000B695A795979587953A95D1F725FF7ECFC0
:10195000448D558D668D778D480F591F6A1F7B1FEB
:101960002BC026FD02C0EB81FC81848D958DA68D58
:10197000B78DEB81FC8184879587A687B78708C0E0
:10198000811106C0EB81FC818081807769F57ACF77
:10199000AB81BC811C964D915D916D917C911F979F
:1019A00016968D919C9117970E947A16AB01BC01F7
:1019B0004D0D511D611D711DEB81FC81868197814B
:1019C000A114B104B1F50115F2E01F0790F1DC019B
:1019D00093962D903D904D905C90969742155305AF
:1019E0006405750529F425C0C701801B910B38C01B
:1019F000DC01ED91FC910190F081E02D94010995BD
:101A0000882309F43FCFC12CF2E0DF2E8C0C9D1C03
:101A1000EB81FC8180899189A289B3898C0D9D1D00
:101A2000A11DB11D808B918BA28BB38B0C191D094D
:101A30006FCF93012A193B0968012017310708F479
:101A4000690120E080960E943816009709F41ACFA9
:101A5000BC016A0D7B1DA601C4010E94E01CD6CF0B
:101A60000F900F900F900F90DF91CF911F910F91DA
:101A7000FF90EF90DF90CF90BF90AF909F908F90AE
:101A80007F906F905F904F903F902F900895FF92BE
:101A90000F931F93CF93DF931F92CDB7DEB78C01C7
:101AA000262FFC014089518962897389DB01CA01B3
:101AB000E5E0B695A79597958795EA95D1F7F82F24
:101AC000FF70FF2E11F0211117C041E050E0BE0160
:101AD0006F5F7F4FC8010E94030C813019F080E0D6
:101AE00090E01CC0F8014089518962897389415E88
:101AF0005F4F6F4F7F4F05C0405E5F4F6F4F7F4F0F
:101B0000F801408B518B628B738BF8018681978132
:101B10008796F0E2FF9E800D911D11240F90DF91BA
:101B2000CF911F910F91FF9008954F925F926F9206
:101B30007F928F929F92AF92BF92CF92DF92EF925D
:101B4000FF920F931F93CF93DF93EC016A017B0108
:101B50004C845D846E847F84A881AA2309F48CC0A0
:101B6000411551056105710529F41C861D861E86E7
:101B70001F867CC0A3FF0BC0488D598D6A8D7B8D5D
:101B80004C155D056E057F0508F476C014C0A5FFF1
:101B900012C0EE81FF8186819781F5E0880F991F41
:101BA000FA95E1F7A0E0B0E084179507A607B7071C
:101BB00008F462C05BC0088919892A893B89EE81D3
:101BC000FF81848190E00996B901A8014150510933
:101BD00061097109082E04C0769567955795479558
:101BE0000A94D2F746015701B1E08B1A9108A10877
:101BF000B10804C0B694A794979487948A95D2F7B5
:101C000084169506A606B70620F0012B022B032B9F
:101C100081F4A6FF05C0848D958DA68DB78D04C077
:101C20008C8D9D8DAE8DBF8D8C879D87AE87BF8738
:101C300004C0841A950AA60AB70A8E01045F1F4FD2
:101C400081149104A104B10489F04C855D856E85F1
:101C50007F8598018E819F810E94921691E0891A5A
:101C60009108A108B10818165CF306C0C88AD98A81
:101C7000EA8AFB8A81E005C04C865D866E867F8697
:101C800080E0DF91CF911F910F91FF90EF90DF9057
:101C9000CF90BF90AF909F908F907F906F905F900C
:101CA0004F9008958F929F92AF92BF92FF920F93A1
:101CB0001F93CF93DF93EC01F22E80E2DE011D92A1
:101CC0008A95E9F7FB01868197819F838E835D83E7
:101CD0004C83848C958CA68CB78C88869986AA8632
:101CE000BB86FC01B7964F705527B5E0440F551FD2
:101CF000BA95E1F7E40FF51F338533FF03C018826F
:101D000080E054C0377138832385287111F438601E
:101D100038830B832F2D227319F02881217179F7D5
:101D20002F2D2F702A83DC0193964D915D916D913B
:101D30007C9196974C8B5D8B6E8B7F8B44895589FC
:101D400060E070E0BA0155274427028D138D20E032
:101D500030E0402B512B622B732BF4FE0AC041154F
:101D6000510561057105E9F00E940518811119C03E
:101D7000C6CF4C8F5D8F6E8F7F8F448D558D668D56
:101D8000778D488F598F6A8F7B8FF5FE0EC0488DF7
:101D9000598D6A8D7B8DCE010E94950D811105C0F4
:101DA000AECF8A8180688A83F0CF81E0DF91CF91C6
:101DB0001F910F91FF90BF90AF909F908F900895CB
:101DC0000F931F93CF93DF93EC018881882309F44D
:101DD00043C08A8187FF38C061E0CE010E94C80BF2
:101DE0008C01009729F489818160898380E035C066
:101DF000FC018081853EB9F3888183FF08C0488D4E
:101E0000598D6A8D7B8D448F558F668F778F4C8D62
:101E10005D8D6E8D7F8DF801538F428F758B648B36
:101E2000E091C506F091C606309759F0B8016A5E98
:101E30007F4FC80148960995F801808D918D938B4D
:101E4000828B8A818F778A838E819F8180960E9480
:101E5000E515882341F201C081E0DF91CF911F9108
:101E60000F910895CF93DF93EC010E94E00E18824A
:101E7000DF91CF910895CF92DF92EF92FF920F936F
:101E80001F93CF93DF93CDB7DEB7E3970FB6F894E8
:101E9000DEBF0FBECDBF8C017B015BAB4AABD22E48
:101EA00019821A82FC018081882311F080E059C0D8
:101EB000FB0180818077D1F3EAA9FBA980818F3271
:101EC000D9F4EAA9FBA980818F3221F43196FBABCA
:101ED000EAABF7CFF70166817781811104C0C801B1
:101EE0000E94E90B3EC0CE0101960E94E90B8823B7
:101EF000E9F2CE0101967C0150E2C52EAE014E5CA6
:101F00005F4FBE016F5D7F4F8AA99BA90E9465113B
:101F1000882361F2EAA9FBA980818823D1F021E01E
:101F2000AE014F5D5F4FB701C8010E94991388232E
:101F300009F4BCCFF801DE0111968C2D01900D92B1
:101F40008A95E1F7C8010E94320FFE0131967F01A8
:101F5000D5CF2D2DAE014F5D5F4FB701C8010E9457
:101F60009913E3960FB6F894DEBF0FBECDBFDF9195
:101F7000CF911F910F91FF90EF90DF90CF90089538
:101F80002F923F924F925F926F927F928F929F9289
:101F9000AF92BF92CF92DF92EF92FF920F931F9377
:101FA000CF93DF93EC015B014A01888183FF0EC070
:101FB0008A8181FF0BC082FF0FC0488D598D6A8DC9
:101FC0007B8DCE010E94950D811106C089818160B3
:101FD00089838FEF9FEF06C1A40160E070E08889DC
:101FE0009989AA89BB8980959095A095B095841709
:101FF0009507A607B70750F364011E012CE0220ED7
:10200000311C488959896A897B89C114D10409F432
:10201000C7C08E819F812A013B0129E07694679495
:10202000579447942A95D1F7DC0113961C911421FB
:102030007A01B1E0FB22111134C0E114F10489F5F9
:102040004C855D856E857F8541155105610571055E
:1020500069F091010E94921687FDB8CF811121C0CD
:10206000CE010E943D0B81111CC0B0CF8C8D9D8D87
:10207000AE8DBF8D0097A105B10579F4CE010E9408
:102080003D0B882309F4A2CF8C859D85AE85BF8545
:102090008C8F9D8FAE8FBF8F04C08C879D87AE873E
:1020A000BF874C855D856E857F858E819F810E946F
:1020B0007A16AB01BC01410F511D611D711DEE81EE
:1020C000FF81E114F10421F4C11422E0D206B8F535
:1020D00080E092E08E199F0986018C159D0508F419
:1020E0008C01E114F10479F4488859886A887B8866
:1020F000888D998DAA8DBB8D481659066A067B0678
:1021000010F025E001C021E0CF0180960E94381632
:10211000009709F45BCFA801B5018E0D9F1D0E94A9
:10212000E01CE00EF11EE11482E0F80641F58E811C
:102130009F8180960E94E515811121C047CF83A120
:1021400094A1A5A1B6A184179507A607B70741F4E6
:1021500010A28FEF9FEFDC0183A394A3A5A3B6A3E6
:102160008E819F81DC01ED91FC910280F381E02D55
:1021700095010995882309F429CF00E012E08889A8
:102180009989AA89BB89800F911FA11DB11D888BD8
:10219000998BAA8BBB8BA00EB11EC01AD10A31CF6E
:1021A000888D998DAA8DBB8D2A8184179507A607E6
:1021B000B70728F4488F598F6A8F7B8F06C08091AC
:1021C000C5069091C606892B11F020682A838A8162
:1021D00083FD02C0C40106C0CE010E94E00E811141
:1021E000F9CFF4CEDF91CF911F910F91FF90EF9037
:1021F000DF90CF90BF90AF909F908F907F906F9027
:102200005F904F903F902F900895653040F4FC010F
:10221000E60FF11DE60FF11D8181928108956B306B
:1022200040F4FC01E60FF11DE60FF11D848195815C
:102230000895613140F4FC01E60FF11DE60FF11D38
:1022400086819781089580E090E00895FC0190E0F8
:1022500080E080FB879587F92191820F9F5F9B30FB
:10226000C1F70895CF93DF93FC01DB0118964D91E0
:102270005D916D917C911B97452B462B472B41F42B
:1022800016966D917C911797DF91CF910C94E90B85
:1022900080E2EF0119928A95E9F780E1808381E07D
:1022A000828316968D919C911797978386831896B3
:1022B0004D915D916D917C911B97448F558F668FE9
:1022C000778F81E0DF91CF910895CF92DF92EF92E7
:1022D000FF920F931F93CF93DF93FB01DC010196D5
:1022E0002C912032D9F3B483A383ED01BE016A1B84
:1022F0007B0B8991811105C0CD01860F971FEC01E1
:1023000018C08F32C9F38C3511F480E0D0C0982FFB
:10231000977F9232D1F38A33C1F3982F9F7B9C33FE
:10232000A1F392EC980F923080F380528F35F0F247
:10233000ECCF1C2F3D2F29912032D9F32F32C9F336
:10234000EA0118833983EC016115710561F08A9106
:102350008E3211F0803219F461507109F5CF6F3F60
:10236000710509F094F67283618380E090E020E2C9
:10237000EF01C80FD91F2E8301968B309105C1F74D
:10238000ED01CE018A1B9B0B29912E32D1F3203215
:10239000C1F351E0009709F050E09B012150310951
:1023A00038F407E010E0C12CF12CC8E0EC2E0FC08F
:1023B000ED01C20FD31F48814E3281F7F2CFED01FC
:1023C000C80FD91F4881403231F450E0019686177A
:1023D0009707ACF343C04E3221F428173907A9F709
:1023E00004C04232A1F04C3791F0C6EDC40FC630A4
:1023F00010F44D3261F4C6ECC40FC63040F0C5EAAB
:10240000C40FC33020F0CFEDC40FCE3530F08217AB
:10241000930709F150E04FE503C082179307D9F005
:102420000117D0F1CFE9C40FCA3118F44052FE2889
:1024300005C0CFEBC40FCA3108F4CE28DD24D394F5
:10244000D10EEF01C10FD11D4E8346E04D1508F0AE
:10245000D5821D2DBBCF0A30C9F450E08681803271
:1024600009F453CF552339F0CF2011F082E001C099
:102470008F2D808309C081E080838581E80FF11D65
:102480008EE7868381E3878381E011C0C9010AE07A
:1024900018E040E1E42E9ACF0A30F9F22817390704
:1024A000E4F2C9010AE018E050E1E52E8ECFDF9199
:1024B000CF911F910F91FF90EF90DF90CF900895F3
:1024C000BF92CF92DF92EF92FF920F931F93CF9321
:1024D000DF93CDB7DEB7A0970FB6F894DEBF0FBE7F
:1024E000CDBF8C0119821A82DC018C9183FD02C060
:1024F00080E089C0F801828181FFFACF448D558D3B
:10250000668D778D411551056105710549F0D8013A
:1025100016968D919C9117970E940518882341F378
:1025200061E0C8010E94C80B7C01009709F30E947A
:102530002611D82E85EEF7018083D8011C921696BD
:102540008D919C91179780960E94E515882381F2C2
:10255000F8019381992309F456C0B801CE01019680
:102560000E943211882321F2BB24B39425EEC22E9F
:10257000F80183818B1508F4BBCFEB2CF12CD8012B
:1025800014964D915C9115974E195F0960E070E0CB
:1025900095E0440F551F661F771F9A95D1F7CE011E
:1025A00001960E94950D882309F4A2CF60E0CE0128
:1025B00001960E94470DFC01009709F499CF83858D
:1025C0008F3009F095CF2081822F8F7190E0E8162F
:1025D000F90609F08DCF8585D8128ACFC082D8013F
:1025E0001696ED91FC91179780A1816080A326FF3C
:1025F00008C016968D919C91179780960E94E515BC
:1026000002C0B394B5CFA0960FB6F894DEBF0FBE4C
:10261000CDBFDF91CF911F910F91FF90EF90DF9091
:10262000CF90BF900895AF92BF92CF92DF92EF927A
:10263000FF920F931F93CF93DF937C01EB01AD804B
:1026400002E010E07EE7B72E6E0186E0C80ED11CD6
:1026500089819A819801280F391FEB81FC81AF0194
:10266000480F591FE417F50779F0C90165E0880F95
:10267000991F6A95E1F7820F931F2191332727FD58
:10268000309528273927EECFE3E0EA1510F453E020
:10269000A52E84E08A0D922F9F70E82FF0E09A30EB
:1026A00010F4905D01C0995CEC0FFD1F968344E02F
:1026B000369527954A95E1F78150A81660F3FE01FB
:1026C000EA0DF11DB68240E050E0BA01C7010E9458
:1026D000950D61E0C7010E94470DBC01009731F4E0
:1026E00081E0F70191819923C9F017C0FC01808135
:1026F000882359F0838583FDECCF4BE050E0C60181
:102700000E94D31C892B29F702C081E007C00F5F0C
:102710001F4F0436110509F09BCF80E0DF91CF9168
:102720001F910F91FF90EF90DF90CF90BF90AF90EF
:1027300008952F923F924F925F926F927F928F9265
:102740009F92AF92BF92CF92DF92EF92FF920F9340
:102750001F93CF93DF93CDB7DEB72B970FB6F894C7
:10276000DEBF0FBECDBF3C017B876A877A012A831B
:10277000DA0111968D909C901297FB0180818077F1
:1027800011F480E0F3C1D3018C918111FACFFA01E9
:102790008081837009F4E1C1C4010C966DE070E0A2
:1027A0000E94581C55245394560E40E050E0BA0144
:1027B0008A859B850E94950D1C821D821982412C61
:1027C00010E000E01B821701B6E02B0E311CAA8539
:1027D000BB8550962D913D914D915C91539765E04D
:1027E00056954795379527956A95D1F7590161E038
:1027F000CD0128873E8349875F830E94470D6C0186
:1028000028853E81009739F4EA85FB8581818823FC
:1028100009F488C0B6CFDC018C91853E11F081119E
:102820000AC0111102C02C833D83151508F41F5FE7
:10283000811104C077C0151528F005C0853E19F434
:1028400000E0C5CF10E08E32D9F3F60193859F30BA
:1028500009F046C0011108C086FFB9CF082F0F71DB
:1028600025852983402E07C04A948411E9CF8585A8
:1028700029812813E5CF842D90E00197ADE0A89F32
:102880005001A99FB00C1124A814B904C8F620E087
:10289000622FC60128870E9405112885A814B90453
:1028A00019F4892B69F693CF8F3F910509F040F613
:1028B0003FEB380F3A3108F4805EA5014F5F5F4F60
:1028C000D7011396ED91FC911497EA0DFB1D9081B1
:1028D0003FEB390F3A3108F4905E8913B1CF40C114
:1028E00093FDAECF002351F0B1E04B124ACFC601A9
:1028F0000E9426112981821344CF10C04BE050E082
:10290000B101C6010E94D31C892B09F060CFD70109
:102910008C9180FF03C021E02B8359CF2A8127FFB0
:1029200014C12FCF8A818274823409F02ACF1123F7
:1029300059F0AC80BD8008C060E08A859B850E940C
:10294000470D892B21F01F5F1515B0F318C0AA851C
:10295000BB8511968C91882391F013CF8A859B8536
:102960000E944C0B882309F40CCFAA85BB851696D0
:10297000ED91FC9117978281823018F4105F151544
:1029800068F32B81222341F0B7018A859B850E9441
:102990001313882309F4F5CEA50160E070E025E06B
:1029A000440F551F661F771F2A95D1F78A859B858F
:1029B0000E94950D882309F4E4CE0FEF050D102F2A
:1029C0008FE0482E670186E0C80ED11C9DE0592E8D
:1029D00049C060E08A859B850E94470D5C01009795
:1029E00009F4CFCEAA85BB851696ED91FC91179779
:1029F00080A1816080A3412F101301C04064F501C4
:102A0000408343861486C60149870E942611D5015A
:102A10001D968C931D975B961C921E925A97F701F8
:102A20002381348149854F7150E041505109549EB2
:102A3000C001559E900D1124F50160E0881599059F
:102A4000A0F4D901A80FB91F4C91552747FD509507
:102A50006530B0F4528341836F5F019632966D30DA
:102A600069F711501111B5CF13C041E050E088153E
:102A7000990511F440E050E0519541955109E8CF96
:102A80006B3018F455834483E7CF57834683E4CFF4
:102A9000EA85FB8580899189A289B38915E0B6957D
:102AA000A795979587951A95D1F75C0160E0CF01BE
:102AB0000E94470D6C01009709F463CE80E2D601B5
:102AC0001D928A95E9F7F70136968BE0D6010190C1
:102AD0000D928A95E1F7F70180818871D6011C96E5
:102AE0008C93E091C506F091C606309739F0B60197
:102AF000625F7F4FC6014096099509C081E298E266
:102B0000F601918B808B80E098E097878687D601CD
:102B100050968D919C91519753969C938E9352977A
:102B200059969C938E9358971E968D919C911F97C2
:102B300057969C938E935697AA85BB851696ED91D2
:102B4000FC91179780A1816080A32A81A5016A85E5
:102B50007B85C3010E94520E09C05524539425CE93
:102B60002F5F2D3009F433CE5A0192CE2B960FB63B
:102B7000F894DEBF0FBECDBFDF91CF911F910F91B3
:102B8000FF90EF90DF90CF90BF90AF909F908F908D
:102B90007F906F905F904F903F902F9008956115B8
:102BA000710581F0DB010D900020E9F7AD01415086
:102BB0005109461B570BDC01ED91FC910280F3811A
:102BC000E02D099480E090E00895BF92CF92DF92CB
:102BD000EF92FF920F931F93CF93DF93EC018881C5
:102BE00080FF39C089819A818E01095F1F4FDC0106
:102BF000ED91FC914B815C816D817E810280F3813E
:102C0000E02D98010995B82E811102C0B12C25C084
:102C1000888181FD04C088818E7F88831EC0A98140
:102C2000BA81ED91FC9111971C964D915D916D913A
:102C30007C911F97CB80DC80ED80FE804C0D5D1D6C
:102C40006E1D7F1D0280F381E02D9801CD01099555
:102C50008111E1CFDBCFBB24B3948B2DDF91CF91DA
:102C60001F910F91FF90EF90DF90CF90BF9008954C
:102C7000CF92DF92EF92FF921F93CF93DF93EC01FD
:102C80006A017B01122F4B815C816D817E814C1525
:102C90005D056E057F0501F10E94E515811103C0F8
:102CA00080E090E01FC012FF06C01882CB82DC8259
:102CB000ED82FE8211C089819A81DC01ED91FC9147
:102CC0000190F081E02D9E01295F3F4FB701A601E1
:102CD00009958111EACFE4CF13708881812B888315
:102CE000CE010796DF91CF911F91FF90EF90DF907B
:102CF000CF9008954250510961097109FC01048087
:102D000004C0440F551F661F771F0A94D2F78089AD
:102D10009189A289B389480F591F6A1F7B1FCB0174
:102D2000BA010895CF92DF92EF92FF920F931F9313
:102D3000CF93DF93EC016A017B0189018D818032A1
:102D400051F5E7E07695679557954795EA95D1F760
:102D50008C899D89AE89BF89480F591F6A1F7B1FC7
:102D600022E0CE0180960E943816009711F48FEF72
:102D700040C0E894C7F8DD24EE24FF24F601EE0FEE
:102D8000FF1FEE0FFF1FE80FF91F40815181628185
:102D900073817F701DC0803151F74C895D896E89C8
:102DA0007F894D0D511D611D711D22E0CE01809660
:102DB0000E9438160097D9F2DD24EE24FF24F60194
:102DC000EE0FFF1FE80FF91F4081518160E070E0B6
:102DD000888D998DAA8DBB8D84179507A607B70797
:102DE00038F0F801408351836283738381E001C02E
:102DF00080E0DF91CF911F910F91FF90EF90DF90D6
:102E0000CF9008958F929F92AF92BF92CF92DF9210
:102E1000EF92FF920F931F936A017B0148015901C2
:102E2000FC012581203231F517E07695679557959D
:102E300047951A95D1F70489158926893789400F56
:102E4000511F621F731F23E080960E94381600975F
:102E500099F0E894C7F8DD24EE24FF24F601EE0F84
:102E6000FF1FEE0FFF1FE80FF91F80829182A282E1
:102E7000B3821DC0203111F080E01AC0FC014489EA
:102E80005589668977894D0D511D611D711D23E09E
:102E900080960E943816009779F3DD24EE24FF24F3
:102EA000F601EE0FFF1FE80FF91F9182808281E08B
:102EB0001F910F91FF90EF90DF90CF90BF90AF9058
:102EC0009F908F9008953F924F925F926F927F9262
:102ED0008F929F92AF92BF92CF92DF92EF92FF922A
:102EE0000F931F93CF93DF93CDB7DEB728970FB61D
:102EF000F894DEBF0FBECDBF9E838D832A013B01B8
:102F000038872F83411551056105710531F4FC01A6
:102F100080849184A284B38402C04A015B0175015C
:102F20006401FFEFCF1ADF0AEF0AFF0AED81FE818D
:102F3000808D918DA28DB38D8C159D05AE05BF053D
:102F400028F402E0C02ED12CE12CF12C9E012F5F41
:102F50003F4FB701A6018D819E810E94921687FD89
:102F60001DC0882341F089819A81AB81BC81892B66
:102F70008A2B8B2B31F0C814D904EA04FB0489F6A0
:102F80000DC00FEF1FEF2FEF3FE0B701A6018D81BE
:102F90009E810E940217382E811102C0312C1CC064
:102FA000411451046104710459F097018601B30181
:102FB000A2018D819E810E940217811107C0EECF70
:102FC000ED81FE81C086D186E286F386EF81F885A9
:102FD000C082D182E282F382832D28960FB6F894C4
:102FE000DEBF0FBECDBFDF91CF911F910F91FF903C
:102FF000EF90DF90CF90BF90AF909F908F907F9099
:103000006F905F904F903F9008959F92AF92BF92C4
:10301000CF92DF92EF92FF920F931F93CF93DF93A4
:1030200000D000D0CDB7DEB75C016A017B019E0104
:103030002F5F3F4FB701A601C5010E949216982E3F
:1030400087FF02C080E01EC000E010E09801B701D9
:10305000A601C5010E9402178823A1F3F50140854E
:10306000518562857385C416D506E606F70620F4F9
:10307000C086D186E286F386C980DA80EB80FC8048
:103080009110D5CF0F900F900F900F90DF91CF91AF
:103090001F910F91FF90EF90DF90CF90BF90AF9076
:1030A0009F900895CF92DF92EF92FF920F931F931C
:1030B000CF93DF93EC01162F1D8281E090E0A0E01A
:1030C000B0E088879987AA87BB87DAA3C9A318A22B
:1030D0008FEF9FEFDC018BA39CA3ADA3BEA3662360
:1030E00021F1653008F0BFC020E040E050E0BA01B7
:1030F000CE0180960E943816009709F4B4C0FC01F6
:1031000000E1109FE00DF11D1124E255FE4F80817A
:103110008F7709F0A8C0C084D184E284F384C114FD
:10312000D104E104F10421F49EC0C12CD12C76011C
:1031300020E0B701A601CE0180960E943816FC015E
:10314000009709F490C0838594858115924009F019
:103150008AC08089823009F086C086859785892B50
:1031600009F481C035853A838FEF830F8B831C82EE
:1031700089E090E021E0321741F0019709F473C033
:10318000220F4C814F5F4C83F6CF468957894115FA
:10319000510519F060E070E004C044A155A166A19A
:1031A00077A14C875D876E877F8786859785970196
:1031B0008601080F191F211D311D0C8B1D8B2E8BB5
:1031C0003F8B818992899F838E83440F551F661F91
:1031D000771F400F511F621F731F4C8F5D8F6E8FC3
:1031E0007F8FB5E0880F991FBA95E1F781509E4F08
:1031F000892F99278695480F591F611D711D488B8E
:10320000598B6A8B7B8B83899489009719F0A0E096
:10321000B0E004C080A191A1A2A1B3A19701860151
:10322000041B150B260B370BB901A801480F591FBA
:103230006A1F7B1F0C8004C076956795579547954C
:103240000A94D2F7DB01CA010196A11DB11D888F36
:10325000998FAA8FBB8F453F1FE05107610571050C
:1032600020F48CE08D8380E012C0453F5F4F610504
:10327000710510F480E109C084A595A5A6A5B7A5A0
:103280008C8F9D8FAE8FBF8F80E28D8381E0DF9129
:10329000CF911F910F91FF90EF90DF90CF90089505
:1032A000FC014FB7F8942281338184819581281BDA
:1032B000390B4FBF37FF05C086819781820F931F5F
:1032C0000895C9010895FC0184819581228133818B
:1032D00028173907B9F09C012F5F3F4FA081B181BA
:1032E000A80FB91F8C91DB018C93868197812817D9
:1032F000390718F080E090E001C0C901958384830C
:1033000081E0089580E00895EF92FF920F931F935C
:10331000CF93DF938C01CB01F894F801C281D38164
:103320007894F801E480F580CE15DF0518F4C681A5
:10333000D78103C0EC16FD06E8F4CE19DF094C175F
:103340005D0708F4EA01F801608171816E0D7F1D4F
:10335000AE010E94E01CEC0EFD1EF80186819781F3
:10336000E816F90610F0E81AF90AF801F582E48285
:10337000CE0102C080E090E0DF91CF911F910F91CC
:10338000FF90EF900895FC0171836083578346831B
:1033900015821482138212820895FC0122813381E6
:1033A000848195812817390751F084819581019096
:1033B000F081E02DE80FF91F808190E008958FEFF4
:1033C0009FEF0895FC0122813381C9010196A081FC
:1033D000B181A20FB31F6C932681378182179307A7
:1033E00010F080E090E0248135818217930721F06E
:1033F0009383828381E0089580E008951F920F9265
:103400000FB60F9211242F933F934F935F936F93B7
:103410007F938F939F93AF93BF93CF93EF93FF933C
:10342000C091C000CC716091C6008FEC96E00E9404
:10343000E219811101C0C1608091D7068C2B809365
:10344000D706FF91EF91CF91BF91AF919F918F914F
:103450007F916F915F914F913F912F910F900FBE90
:103460000F901F9018951F920F920FB60F92112474
:103470002F933F934F935F936F937F938F939F937C
:10348000AF93BF93EF93FF93CF93DF931F92CDB78B
:10349000DEB7BE016F5F7F4F87EC96E00E94631935
:1034A000882321F089818093C60005C08091C100E6
:1034B0008F7D8093C1000F90DF91CF91FF91EF91AD
:1034C000BF91AF919F918F917F916F915F914F913C
:1034D0003F912F910F900FBE0F901F9018951F9244
:1034E0000F920FB60F9211242F933F938F939F93B8
:1034F000AF93BF938091D9069091DA06A091DB0635
:10350000B091DC063091D80623E0230F2D3720F44C
:103510000196A11DB11D05C026E8230F0296A11D2D
:10352000B11D2093D8068093D9069093DA06A09314
:10353000DB06B093DC068091DD069091DE06A0915B
:10354000DF06B091E0060196A11DB11D8093DD0656
:103550009093DE06A093DF06B093E006BF91AF9193
:103560009F918F913F912F910F900FBE0F901F90C1
:1035700018952FB7F8946091D9067091DA0680916A
:10358000DB069091DC062FBF08953FB7F894809139
:10359000DD069091DE06A091DF06B091E00626B52B
:1035A000A89B05C02F3F19F00196A11DB11D3FBF7B
:1035B0006627782F892F9A2F620F711D811D911D0B
:1035C00042E0660F771F881F991F4A95D1F708952B
:1035D000CF92DF92EF92FF92CF93DF936B017C014A
:1035E0000E94C51AEB01C114D104E104F10489F071
:1035F0000E94571C0E94C51A6C1B7D0B683E7340CD
:1036000090F381E0C81AD108E108F108C851DC4FF5
:10361000EACFDF91CF91FF90EF90DF90CF900895A8
:10362000789484B5826084BD84B5816084BD85B59D
:10363000826085BD85B5816085BDEEE6F0E0808164
:1036400081608083E1E8F0E0108280818260808385
:10365000808181608083E0E8F0E080818160808308
:10366000E1EBF0E0808184608083E0EBF0E080813A
:1036700081608083EAE7F0E08081846080838081DC
:103680008260808380818160808380818068808384
:103690001092C1000895833081F028F4813099F0B0
:1036A0008230A1F008958730A9F08830B9F08430D5
:1036B000D1F4809180008F7D03C0809180008F774E
:1036C00080938000089584B58F7702C084B58F7D84
:1036D00084BD08958091B0008F7703C08091B000C1
:1036E0008F7D8093B0000895CF93DF9390E0FC012D
:1036F000E256FE4F2491FC01EE54FE4F8491882344
:1037000049F190E0880F991FFC01E652FE4FA59108
:10371000B49180539E4FFC01C591D4919FB7611124
:1037200008C0F8948C91209582238C938881822301
:103730000AC0623051F4F8948C91322F3095832373
:103740008C938881822B888304C0F8948C91822B7F
:103750008C939FBFDF91CF9108950F931F93CF93C9
:10376000DF931F92CDB7DEB7282F30E0F901E6577F
:10377000FE4F8491F901E256FE4F1491F901EE5487
:10378000FE4F04910023C9F0882321F069830E9431
:103790004B1B6981E02FF0E0EE0FFF1FE053FE4F5F
:1037A000A591B4919FB7F8948C91611103C01095C5
:1037B000812301C0812B8C939FBF0F90DF91CF910C
:1037C0001F910F910895CF93DF93282F30E0F901D7
:1037D000E657FE4F8491F901E256FE4FD491F9016C
:1037E000EE54FE4FC491CC2391F081110E944B1BEB
:1037F000EC2FF0E0EE0FFF1FEA53FE4FA591B491BE
:103800002C912D2381E090E021F480E002C080E043
:1038100090E0DF91CF91089508950E94101B0E94BF
:103820000C1C0E943D08C0E0D0E00E9401042097DB
:10383000E1F30E940000F9CFEF92FF920F931F93E4
:10384000CF93DF938C01FB01C0E0D0E064917F0156
:103850008FEFE81AF80A662361F0D801ED91FC9128
:103860000190F081E02DC8010995C80FD91FF7011B
:10387000EDCFCE01DF91CF911F910F91FF90EF908F
:10388000089566E271E00C94CF150F931F93CF93C8
:10389000DF93EC010E941C1C8C01CE010E94411C94
:1038A000800F911FDF91CF911F910F91089508957F
:1038B000AA1BBB1B51E107C0AA1FBB1FA617B70756
:1038C00010F0A61BB70B881F991F5A95A9F7809572
:1038D0009095BC01CD010895A1E21A2EAA1BBB1B35
:1038E000FD010DC0AA1FBB1FEE1FFF1FA217B307CC
:1038F000E407F50720F0A21BB30BE40BF50B661FE2
:10390000771F881F991F1A9469F7609570958095A5
:1039100090959B01AC01BD01CF0108950E949F1CB1
:10392000A59F900DB49F900DA49F800D911D112413
:103930000895EE0FFF1F0590F491E02D0994A29FCA
:10394000B001B39FC001A39F700D811D1124911D73
:10395000B29F700D811D1124911D0895FC018827CF
:103960009927E89421912032E9F3293010F02E3084
:10397000C8F32B3241F02D3239F4689404C00E9410
:10398000E91C820F911D219120532A30C0F31EF4AF
:10399000909581959F4F0895FB01DC0105900D9254
:1039A0000020E1F70895FB01DC0104C08D91019036
:1039B000801921F441505040C8F7881B990B089595
:1039C000FB01DC0102C001900D9241505040D8F73C
:1039D00008957AE0979F902D879F802D910D112457
:1039E0000895AEE0B0E0E7EFFCE10C94AF1F0D8965
:1039F0001E898EE08C831A8309838FEF9FE79E8355
:103A00008D83AE01475E5F4F6F89788DCE01019641
:103A10000E94131DEF81F885E00FF11F10822E9692
:103A2000E4E00C94CB1FACE0B0E0E9E1FDE10C94E4
:103A3000A11F7C016B018A01FC0117821682838120
:103A400081FFBDC1CE0101964C01F7019381F601C2
:103A500093FD859193FF81916F01882309F4ABC198
:103A6000853239F493FD859193FF81916F01853201
:103A700029F4B70190E00E94111FE7CF512C312C9F
:103A800020E02032A0F48B3269F030F4803259F01B
:103A9000833269F420612CC08D3239F0803339F4DF
:103AA000216026C02260246023C0286021C027FD39
:103AB00027C030ED380F3A3078F426FF06C0FAE020
:103AC0005F9E300D1124532E13C08AE0389E300DB6
:103AD0001124332E20620CC08E3221F426FD6BC1DE
:103AE000206406C08C3611F4206802C0883641F488
:103AF000F60193FD859193FF81916F018111C1CFF3
:103B0000982F9F7D9554933028F40C5F1F4FFFE34F
:103B1000F9830DC0833631F0833771F0833509F0B6
:103B20005BC022C0F801808189830E5F1F4F44244F
:103B30004394512C540115C03801F2E06F0E711CF2
:103B4000F801A080B18026FF03C0652D70E002C09F
:103B50006FEF7FEFC5012C870E94061F2C018301A8
:103B60002C852F77222E17C03801F2E06F0E711CC2
:103B7000F801A080B18026FF03C0652D70E002C06F
:103B80006FEF7FEFC5012C870E94FB1E2C012C8557
:103B90002068222E830123FC1BC0832D90E0481651
:103BA0005906B0F4B70180E290E00E94111F3A94E8
:103BB000F4CFF50127FC859127FE81915F01B701C4
:103BC00090E00E94111F31103A94F1E04F1A510811
:103BD0004114510471F7E5C0843611F0893639F586
:103BE000F80127FF07C060817181828193810C5F9A
:103BF0001F4F08C060817181882777FD8095982FBD
:103C00000E5F1F4F2F76B22E97FF09C090958095BB
:103C1000709561957F4F8F4F9F4F2068B22E2AE09D
:103C200030E0A4010E94431FA82EA81844C0853785
:103C300029F42F7EB22E2AE030E025C0F22FF97F42
:103C4000BF2E8F36C1F018F4883579F0B4C08037B4
:103C500019F0883721F0AFC02F2F2061B22EB4FEAB
:103C60000DC08B2D8460B82E09C024FF0AC09F2F81
:103C70009660B92E06C028E030E005C020E130E0B3
:103C800002C020E132E0F801B7FE07C06081718117
:103C9000828193810C5F1F4F06C06081718180E03B
:103CA00090E00E5F1F4FA4010E94431FA82EA8188A
:103CB000FB2DFF77BF2EB6FE0BC02B2D2E7FA5143C
:103CC00050F4B4FE0AC0B2FC08C02B2D2E7E05C0F5
:103CD0007A2C2B2D03C07A2C01C0752C24FF0DC02B
:103CE000FE01EA0DF11D8081803311F4297E09C0A7
:103CF00022FF06C07394739404C0822F867809F063
:103D0000739423FD13C020FF06C05A2C731418F4BB
:103D1000530C5718732C731468F4B70180E290E0C9
:103D20002C870E94111F73942C85F5CF731410F407
:103D3000371801C0312C24FF12C0B70180E390E096
:103D40002C870E94111F2C8522FF17C021FF03C062
:103D500088E590E002C088E790E0B7010CC0822FB0
:103D6000867859F021FD02C080E201C08BE227FD78
:103D70008DE2B70190E00E94111FA51438F4B7013D
:103D800080E390E00E94111F5A94F7CFAA94F401A7
:103D9000EA0DF11D8081B70190E00E94111FA11072
:103DA000F5CF332009F451CEB70180E290E00E94B4
:103DB000111F3A94F6CFF7018681978102C08FEFE9
:103DC0009FEF2C96E2E10C94BD1FF999FECF92BDB6
:103DD00081BDF89A992780B50895262FF999FECFCD
:103DE0001FBA92BD81BD20BD0FB6F894FA9AF99A18
:103DF0000FBE01960895FC010590615070400110BE
:103E0000D8F7809590958E0F9F1F0895FC01615003
:103E1000704001900110D8F7809590958E0F9F1FEC
:103E200008950F931F93CF93DF93182F092FEB0162
:103E30008B8181FD03C08FEF9FEF20C082FF10C0F8
:103E40004E815F812C813D81421753077CF4E881CC
:103E5000F9819F012F5F3F4F39832883108306C06C
:103E6000E885F985812F0995892B29F72E813F81D6
:103E70002F5F3F4F3F832E83812F902FDF91CF9174
:103E80001F910F910895FA01AA27283051F120318E
:103E900081F1E8946F936E7F6E5F7F4F8F4F9F4FDE
:103EA000AF4FB1E03ED0B4E03CD0670F781F891F20
:103EB0009A1FA11D680F791F8A1F911DA11D6A0FEE
:103EC000711D811D911DA11D20D009F468943F91A1
:103ED0002AE0269F11243019305D3193DEF6CF01A0
:103EE0000895462F4770405D4193B3E00FD0C9F766
:103EF000F6CF462F4F70405D4A3318F0495D31FDD3
:103F00004052419302D0A9F7EACFB4E0A695979525
:103F1000879577956795BA95C9F7009761057105FB
:103F200008959B01AC010A2E069457954795379545
:103F30002795BA95C9F7620F731F841F951FA01D9F
:103F400008952F923F924F925F926F927F928F923D
:103F50009F92AF92BF92CF92DF92EF92FF920F9318
:103F60001F93CF93DF93CDB7DEB7CA1BDB0B0FB622
:103F7000F894DEBF0FBECDBF09942A8839884888DF
:103F80005F846E847D848C849B84AA84B984C88475
:103F9000DF80EE80FD800C811B81AA81B981CE0F6C
:103FA000D11D0FB6F894DEBF0FBECDBFED01089551
:043FB000F894FFCFB3
:103FB4000000E106800000000000E5014C01000063
:103FC40000004F015601000000001D01260174018C
:103FD4005D0178014B010D0A006E616E00696E6629
:083FE400006F7666002E00005C
:00000001FF
