:100000000C942A050C9452050C9452050C9452053C
:100010000C9452050C9452050C9452050C94520504
:100020000C9452050C9452050C9452050C945205F4
:100030000C9452050C9452050C9452050C945205E4
:100040000C9460320C9452050C947C310C94C231A7
:100050000C9452050C9452050C9452050C945205C4
:100060000C9452050C94520552656D6F76652066AE
:1000700061696C65643A200045786974696E67004F
:100080000A0D4E756D626572206F6620657363613F
:1000900070652063686172616374657273206E6558
:1000A000656465643A20000A0D456E746572206EC1
:1000B000756D626572206F6620657363617065207F
:1000C0006368617261637465727320746F206C6F12
:1000D0006F6B20666F7220283120746F2039293AA7
:1000E00020000A0D4E65772065736361706520639B
:1000F00068617261637465723A2000456E7465725E
:100100002061206E65772065736361706520636888
:10011000617261637465723A20004E65772066698A
:100120006C65206E756D62657220726573657420F2
:10013000746F207A65726F00436F6D6D616E64201D
:1001400070726F6D707400417070656E64206669C6
:100150006C65206C6F6767696E67004E6577206617
:10016000696C65206C6F6767696E67007829204548
:10017000786974003629204E756D626572206F664D
:100180002065736361706520636861726163746583
:100190007273003529204E65772065736361706541
:1001A000206368617261637465720034292052654E
:1001B000736574206E65772066696C65206E756D59
:1001C00062657200332920436F6D6D616E6420702B
:1001D000726F6D707400322920417070656E6420FA
:1001E00066696C65206C6F6767696E6700312920EE
:1001F0004E65772066696C65206C6F6767696E670E
:10020000004368616E676520746F3A0020782000B3
:1002100043757272656E74206573636170652063E7
:10022000686172616374657220616E6420616D6FD4
:10023000756E743A2000436F6D6D616E640041709D
:1002400070656E642066696C65004E65772066692E
:100250006C650043757272656E7420626F6F7420F6
:100260006D6F64653A20000D0A53797374656D20D3
:10027000436F6E66696775726174696F6E00457869
:100280006974696E6700476F696E6720746F20310B
:10029000313532303062707300476F696E67207499
:1002A0006F20353736303062707300476F696E6784
:1002B00020746F20333834303062707300476F69B8
:1002C0006E6720746F2031393230306270730047AE
:1002D0006F696E6720746F2039363030627073003A
:1002E000476F696E6720746F2034383030627073E6
:1002F00000476F696E6720746F203234303062704F
:100300007300782920457869740037292031313508
:100310003230302062707300362920353736303065
:1003200020627073003529203338343030206270F9
:100330007300342920313932303020627073003339
:100340002920393630302062707300322920343849
:100350003030206270730031292032343030206216
:100360007073004368616E676520746F3A003030C7
:100370002062707300313135320035373600333842
:100380003400313932003936003234003438004319
:10039000757272656E743A20000A0D4261756420B0
:1003A000436F6E66696775726174696F6E3A006259
:1003B0006175640909093A204D656E7520746F20D6
:1003C000636F6E666967757265206261756420721D
:1003D000617465007365740909093A204D656E758D
:1003E00020746F20636F6E6669677572652073791C
:1003F0007374656D206D6F6465000A0D4D656E75D3
:10040000733A0072657365740909093A204361758E
:1004100073657320756E697420746F2072657365DF
:100420007420616E64207573696E6720616E792037
:100430006E657720706172616D6574657273206995
:100440006E20636F6E6669672066696C650064691B
:10045000736B0909093A2053686F777320636172DF
:1004600064206D616E7566616374757265722C20AF
:100470007374617475732C2066696C657379737419
:10048000656D20636170616369747920616E6420B9
:10049000667265652073746F726167652073706141
:1004A00063650073697A65203C66696C653E09097D
:1004B0003A2057726974652073697A65206F6620E7
:1004C00066696C6520746F207465726D696E616C0D
:1004D0000072656164203C66696C653E203C737403
:1004E0006172743E203C6C656E6774683E203C749B
:1004F0007970653E09093A20577269746573204125
:1005000053434949203C6C656E6774683E207061B6
:10051000727473206F66203C66696C653E20746F50
:1005200020746865207465726D696E616C207374E7
:10053000617274696E67206174203C7374617274B7
:100540003E2E204F6D6974203C73746172743E209E
:10055000616E64203C6C656E6774683E20746F2029
:10056000726561642077686F6C652066696C652EC2
:10057000203C747970653E2031207072696E74730E
:1005800020696E2041534349492C203220696E2056
:100590004845582E006C730909093A2053686F7753
:1005A000732074686520636F6E74656E74206F6667
:1005B000207468652063757272656E742064697258
:1005C0006563746F72792E205573652077696C644A
:1005D0006361726420746F20646F20612077696C9E
:1005E0006463617264206C697374696E67206F66FE
:1005F0002066696C657320696E2063757272656E22
:1006000074206469726563746F7279006D64203C54
:100610006469726563746F72793E093A204372654A
:10062000617465732061206469726563746F7279A7
:100630002063616C6C6564203C6469726563746FEF
:1006400072793E00617070656E64203C66696C650D
:100650003E09093A20417070656E647320746578B4
:100660007420746F20656E64206F66203C66696C30
:10067000653E2E2054686520746578742069732067
:10068000726561642066726F6D20746865205541E3
:10069000525420696E20612073747265616D20610F
:1006A0006E64206973206E6F74206563686F656483
:1006B0002E2046696E6973682062792073656E64C6
:1006C000696E67204374726C2B7A2028415343492A
:1006D0004920323629006E6577203C66696C653E9C
:1006E00009093A2043726561746573203C66696C40
:1006F000653E00426173696320636F6D6D616E6476
:10070000733A004F70656E4C6F672076332E300061
:100710006469726563746F7279206E6F7420666F9E
:10072000756E643A200063616E6E6F74206364209E
:10073000746F20706172656E742064697265637491
:100740006F72793A2000756E6B6E6F776E20636FF3
:100750006D6D616E643A20004572726F7220637233
:10076000656174696E672066696C653A2000204B8C
:100770004200436172642053697A653A20007265D1
:100780006164435344206661696C6564004D616E29
:1007900075666163747572696E6720646174653A29
:1007A000200053657269616C206E756D6265723AE6
:1007B00020000A0D56657273696F6E3A2000507200
:1007C0006F647563743A20004F454D2049443A20C8
:1007D000004D616E7566616374757265722049447F
:1007E0003A200072656164434944206661696C6522
:1007F0006400556E6B6E6F776E0053444843005330
:10080000443200534431000A4361726420747970A9
:10081000653A20002D31006572726F72207772691F
:1008200074696E6720746F2066696C650A0D0045F7
:1008300072726F72207365656B696E6720746F20CA
:10084000004661696C656420746F206F70656E206E
:1008500066696C6520004572726F72207365656B06
:10086000696E6720746F20004661696C656420744E
:100870006F206F70656E2066696C65200020666968
:100880006C652873292064656C657465640057691C
:100890006C6463617264206C73206E6F7420796580
:1008A0007420737570706F72746564006572726F16
:1008B00072206372656174696E6720646972656332
:1008C000746F72793A200057696C642063617264B6
:1008D000206C73206E6F742079657420737570704E
:1008E0006F7274656400566F6C756D652069732056
:1008F0004641540046696C652073797374656D20B8
:10090000696E697469616C697A656400436C6F73C0
:10091000696E6720646F776E2066696C65207379F5
:100920007374656D006572726F7220777269746995
:100930006E6720746F2066696C6500437265617430
:100940006520636F6E666967206661696C65640027
:1009500052656D6F766520636F6E666967206661AC
:10096000696C6564004572726F72206372656174B0
:10097000696E67205345514C4F470A0021546F6FF1
:10098000206D616E79206C6F67733A3221002154BB
:100990006F6F206D616E79206C6F67733A31210043
:1009A0006572726F72206F70656E526F6F74006542
:1009B00072726F7220766F6C756D652E696E6974D8
:1009C000006572726F7220636172642E696E697461
:1009D000005344206572726F723A20006572726F24
:1009E000723A20007C3C3E5E2B3D3F2F5B5D3B2CF2
:1009F0002A225C0000000000240027002A000000DA
:100A00000000250028002B00000000002300260025
:100A10002900040404040404040402020202020281
:100A200003030303030301020408102040800102B2
:100A30000408102001020408102000000007000232
:100A40000100000304060000000000000000660929
:100A5000402C5F0911241FBECFEFD8E0DEBFCDBF11
:100A600012E0A0E0B1E0EEE9FDE602C005900D92D3
:100A7000A432B107D9F717E0A4E2B2E001C01D9299
:100A8000A236B107E1F71AE0C2E5DAE004C0229726
:100A9000FE010E948736CE34D107C9F70E94303458
:100AA0000C94C2360C940000FC0188279927E89426
:100AB00021912032E9F3293010F02E30C8F32B3287
:100AC00041F02D3239F4689404C00E94C705820FAA
:100AD000911D219120532A30C0F31EF490958195E9
:100AE0009F4F0895FB01DC0104C08D910190801996
:100AF00021F441505040C8F7881B990B0895FB0121
:100B0000DC0102C001900D9241505040D8F7089589
:100B1000DC0101C06D9341505040E0F70895FB01A6
:100B2000DC010D900020E9F7119701900D92002053
:100B3000E1F70895FB01DC018D910190801901100E
:100B4000D9F3990B0895FB01DC0101900D9200206F
:100B5000E1F70895FB01DC014150504030F08D91E8
:100B60000190801919F40020B9F7881B990B08959A
:100B7000FB01DC014150504048F001900D920020F3
:100B8000C9F701C01D9241505040E0F708957AE046
:100B9000979F902D879F802D910D11240895AEE091
:100BA000B0E0E5EDF5E00C9499360D891E8986E0FC
:100BB0008C831A8309838FEF9FE79E838D839E0129
:100BC000275E3F4FCE0101966F89788DA9010E9463
:100BD000F3052F813885020F131FF80110822E961E
:100BE000E4E00C94B536ABE0B0E0E9EFF5E00C944E
:100BF0008B363C012B015A01FC011782168283813E
:100C000081FD03C06FEF7FEFC6C19AE0892E1E0100
:100C10000894211C311CF3012381F20123FD8591ED
:100C200023FF81912F01882309F4B2C1853239F461
:100C300023FD859123FF81912F01853229F490E0D6
:100C4000B3010E94E607E7CF982FFF24EE249924F2
:100C5000FFE1FF15D0F09B3269F09C3228F490320E
:100C600059F0933291F40EC09D3249F0903369F4FB
:100C700041E024C052E0F52A84E0F82A28C098E038
:100C8000F92A25C0E0E1FE2A22C0F7FC29C0892FFD
:100C900080538A3070F4F6FE05C0989C902C112485
:100CA000980E15C0E89CE02C1124E80EF0E2FF2A13
:100CB0000EC09E3229F4F6FC6BC140E4F42A07C052
:100CC0009C3619F450E8F52A02C0983649F4F2012E
:100CD00023FD959123FF91912F01992309F0B8CF1E
:100CE000892F8554833018F08052833038F444E0E3
:100CF00050E0A40EB51E5FE359830FC0933631F068
:100D0000933779F0933509F056C020C0F501808102
:100D1000898342E050E0A40EB51E610101E010E0BD
:100D200012C0F501C080D180F6FC03C06FEF7FEFE9
:100D300002C0692D70E042E050E0A40EB51EC6016D
:100D40000E94DB078C015FE7F52214C0F501C0802B
:100D5000D180F6FC03C06FEF7FEF02C0692D70E019
:100D600042E050E0A40EB51EC6010E94D0078C01DF
:100D700050E8F52AF3FE07C01AC080E290E0B30104
:100D80000E94E607EA948E2D90E008171907A8F351
:100D90000EC0F601F7FC8591F7FE81916F0190E09E
:100DA000B3010E94E607E110EA94015010400115DA
:100DB000110579F7EAC0943611F0993669F5F7FE16
:100DC00008C0F501208131814281538184E090E0A7
:100DD0000AC0F501808191819C01442737FD40952F
:100DE000542F82E090E0A80EB91E9FE6F92257FF2B
:100DF00009C050954095309521953F4F4F4F5F4F1B
:100E0000E0E8FE2ACA01B901A1012AE030E00E940F
:100E10001208D82ED21840C0953729F41F2D1F7EF6
:100E20002AE030E01DC01F2D197F9F3661F09037FA
:100E300020F4983509F0ACC00FC0903739F09837DE
:100E400009F0A6C004C028E030E00AC0106114FD1B
:100E5000146020E130E004C014FD166020E132E0AF
:100E600017FF08C0F501608171818281938144E0A0
:100E700050E008C0F50180819181BC0180E090E0E4
:100E800042E050E0A40EB51EA1010E941208D82E27
:100E9000D2188FE7F82EF122F6FE0BC05EEFF52296
:100EA000D91438F4F4FE07C0F2FC05C08FEEF82226
:100EB00002C01D2D01C0192DF4FE0DC0FE01ED0D67
:100EC000F11D8081803319F499EEF92208C01F5F6B
:100ED000F2FE05C003C08F2D867809F01F5F0F2D2D
:100EE000F3FC14C0F0FE0FC01E1510F09D2C0BC0BB
:100EF0009D2C9E0C911A1E2D06C080E290E0B3013D
:100F00000E94E6071F5F1E15C0F304C01E1510F4F3
:100F1000E11A01C0EE2404FF0FC080E390E0B301AA
:100F20000E94E60702FF1DC001FD03C088E790E0B4
:100F30000EC088E590E00BC0802F867891F001FF0D
:100F400002C08BE201C080E2F7FC8DE290E0B301C9
:100F50000E94E60706C080E390E0B3010E94E60726
:100F60009A94D914C0F3DA94F101ED0DF11D80814A
:100F700090E0B3010E94E607DD20A9F706C080E2F9
:100F800090E0B3010E94E607EA94EE20C1F743CE59
:100F9000F30166817781CB012B96E2E10C94A736B1
:100FA000FC010590615070400110D8F78095909534
:100FB0008E0F9F1F0895FC01615070400190011039
:100FC000D8F7809590958E0F9F1F08950F931F93CC
:100FD000CF93DF938C01EB018B8181FF1BC082FFDC
:100FE0000DC02E813F818C819D812817390764F4C3
:100FF000E881F9810193F983E88306C0E885F985E2
:10100000802F0995892B31F48E819F8101969F83D2
:101010008E8302C00FEF1FEFC801DF91CF911F91A8
:101020000F910895FA01AA27283051F1203181F15A
:10103000E8946F936E7F6E5F7F4F8F4F9F4FAF4FE0
:10104000B1E03ED0B4E03CD0670F781F891F9A1FF3
:10105000A11D680F791F8A1F911DA11D6A0F711DA7
:10106000811D911DA11D20D009F468943F912AE0B3
:10107000269F11243019305D3193DEF6CF0108959B
:10108000462F4770405D4193B3E00FD0C9F7F6CFCC
:10109000462F4F70405D4A3318F0495D31FD405294
:1010A000419302D0A9F7EACFB4E0A695979587952A
:1010B00077956795BA95C9F7009761057105089509
:1010C0009B01AC010A2E06945795479537952795B5
:1010D000BA95C9F7620F731F841F951FA01D08954D
:1010E000EF92FF920F931F937A018B011092C10030
:1010F0002E732093C200403081EE580780E06807CD
:1011000080E0780729F41092C00020E130E013C09D
:1011100082E08093C00060E079E08DE390E0A80178
:1011200097010E9463362150304040405040569510
:101130004795379527953093C5002093C40088E9DB
:101140008093C1001F910F91FF90EF9008958091BF
:10115000C00085FFFCCF6093C60081E090E0089559
:10116000CF92DF92EF92FF920F931F93CF93DF9373
:101170007C016B018A01C0E0D0E00DC0D701ED9188
:10118000FC91D601AC0FBD1F0190F081E02DC7018D
:101190006C9109952196C017D10780F3C801DF91A2
:1011A000CF911F910F91FF90EF90DF90CF90089516
:1011B000089588E497E00E9465310895DF93CF9306
:1011C0000F92CDB7DEB788E497E0BE016F5F7F4F27
:1011D0000E942E31882319F42FEF3FEF03C089813D
:1011E000282F30E0C9010F90CF91DF91089588E456
:1011F00097E00E941C310895FC018FE192E09183F9
:1012000080838781882321F0CF0104960E94692082
:1012100008958130910509F044C06F5F7F4F09F058
:101220004DC0109227021092260288EE93E0A0E0B3
:10123000B0E08093280290932902A0932A02B093F1
:101240002B0287E092E0909325028093240288E4A9
:1012500097E060E372E049E552E00E94593189E18C
:101260008093A5041092A8041092C0041092CB049D
:101270001092CE041092CA041092C9048FE192E039
:101280009093C8048093C7041092EA041092ED046E
:101290001092E9041092E8049093E7048093E60426
:1012A0000895892B59F46F5F7F4F41F486EE94E0E7
:1012B0000E94FC0887EC94E00E94FC08089580E0FE
:1012C00090E06FEF7FEF0E940909089581E090E0C0
:1012D0006FEF7FEF0E9409090895CF93DF93EC0130
:1012E0008FE0E7E2F5E0DF011D928A95E9F750E033
:1012F00041E0A62FB0E039C0242F30E0FE01E20F1C
:10130000F31F8081803229F02F5F3F4F2A173B0760
:1013100059F5842F90E001968A179B0709F4462F10
:10132000E7E2F5E020E080819181892B19F082814C
:1013300081112F5F339685E0E633F807A1F725305A
:1013400088F4822F90E0FC01EE0FFF1FE80FF91FD9
:10135000E95DFA4FCE01850F911D91838083842F23
:10136000851B82834F5F542F4F5F461728F2E7E2B9
:10137000F5E020E080819181892B19F08281811133
:101380002F5F3396A5E0E633FA07A1F7822FDF91AE
:10139000CF910895982F8EE1E9E0F5E0DF011D92ED
:1013A0008A95E9F79530E8F4892F90E0FC01EE0F7B
:1013B000FF1FE80FF91FE95DFA4F60817181611528
:1013C000710579F04281442361F04F3118F04EE10C
:1013D00050E001C050E089E095E00E94B8059C0112
:1013E00002C020E030E0C90108950F931F9304E28A
:1013F00012E0C80163E077E00E94B434C80163EFF3
:1014000076E00E94B434C80166ED76E00E94B43400
:10141000C80164E476E00E94B434C8016CE076E070
:101420000E94B434C80165E975E00E94B434C80173
:1014300061ED74E00E94B434C80163EA74E00E9474
:10144000B434C8016EE474E00E94B434C80163E0AF
:1014500074E00E94B434C8016AEF73E00E94B434AF
:10146000C80164ED73E00E94B434C8016FEA73E010
:101470000E94B4341F910F910895CF92DF92EF92A2
:10148000FF920F931F93CF93DF93EC01D62E60E072
:1014900070E04D2D50E00E94880500E0ED2CFF2407
:1014A0000894E108F108B0E2CB2E44C088E497E04C
:1014B0000E941C31892BD1F384E292E00E94DE0865
:1014C000182F8BB18C258BB9183011F01F37B9F458
:1014D000002381F10150FE01E00FF11D108284E232
:1014E00092E068E00E948C3484E292E060E20E9424
:1014F0008C3484E292E068E00E948C341BC08091BE
:10150000000280FF05C084E292E0612F0E948C34CB
:101510001D3049F484E292E00E949434FE01E00F11
:10152000F11D10820DC01A3029F0FE01E00FF11DEF
:1015300010830F5F802F90E08E159F050CF4B6CFBF
:10154000CE016D2D0E946D09802FDF91CF911F91EB
:101550000F91FF90EF90DF90CF90089588E597E08E
:1015600061E070E00E944D32809305058B3050F0B1
:1015700081E08093050588E597E061E070E041E057
:101580000E94543288E597E062E070E00E944D329C
:1015900080930605863048F01092060588E597E0AE
:1015A00062E070E040E00E94543288E597E065E038
:1015B00070E00E944D328093070581508E3F50F0BD
:1015C0008AE18093070588E597E065E070E04AE1ED
:1015D0000E94543288E597E066E070E00E944D3248
:1015E0008093080581508E3F50F083E0809308057A
:1015F00088E597E066E070E043E00E945432089589
:101600000F931F9308E517E0C80161E070E041E027
:101610000E945432C80162E070E040E00E945432FF
:10162000C80165E070E04AE10E945432C80166E0FA
:1016300070E043E00E9454321F910F9108950F9380
:101640001F93CF93DF93C0E0D0E0082F10E015C0C8
:1016500085E061E00E94893368EC70E080E090E012
:101660000E94B63285E060E00E94893368EC70E049
:1016700080E090E00E94B6322196C017D10744F373
:1016800060ED77E080E090E00E94B632C0E0D0E00C
:10169000F4CF0F931F93CF93DF93EC018B0141E0C5
:1016A0000E94DF2C882311F081E005C0CE01B80133
:1016B00040E00E94DF2CDF91CF911F910F910895A0
:1016C000EF92FF920F931F93CF93DF937B018A01D9
:1016D000060F171FEB01C017D107B0F420914A077E
:1016E00030914B0780914C0790914D07281739078F
:1016F00059F0A8014C1B5D0B88E497E0BE010E94E5
:101700000132C80FD91FE7CF9E012E193F09C90129
:10171000DF91CF911F910F91FF90EF9008950F935C
:101720001F938C0184E292E06CED79E00E946934B1
:1017300084E292E0B8010E9431368091A5048823AA
:10174000E9F084E292E061ED79E00E946934609111
:10175000A50484E292E070E040E150E00E94FC3594
:1017600084E292E06CE20E948C346091A70484E2EF
:1017700092E070E040E150E00E940F36FFCFAF9260
:10178000BF92CF92DF92EF92FF920F931F93DF935E
:10179000CF93CDB7DEB76F970FB6F894DEBF0FBE0D
:1017A000CDBF5C011D8218861C821B828FE192E0F6
:1017B0009A838983C50160E071E042E050E00E94B5
:1017C000AA05009709F070C08BEC94E00E94692094
:1017D0008BEC94E069EA74E00E947A23882321F478
:1017E00083E091E00E948F0B80918C04882339F074
:1017F00080919804882311F08FEF01C081E0E82EDA
:10180000EA94E7FE03C0FF24F39440C0FF24F3945E
:1018100000E010E025E0C22ED12CCC0EDD1E27C04A
:10182000A801440F551F400F511F440F551F440F6F
:10183000551F44575B4FC6016BEC74E021E00E94DA
:10184000D829F82E0F5F1F4F882399F0ABECB4E036
:10185000F6018BE101900D928150E1F78B819C8123
:101860009093CA048093C904C6010E9469200E1592
:10187000BCF28CE02E2D2802C001112484579B4F0E
:10188000FC018BE0DF011D928A95E9F7809100024F
:1018900081FF4BC0FF2019F0FF24F39446C084E27F
:1018A00092E066E277E015C08E010B5F1F4FC80122
:1018B0006BEC74E0A50121E00E94D829F82E882362
:1018C00081F48091000281FF30C084E292E060E107
:1018D00077E00E94693484E292E0B5010E943136DB
:1018E00024C0ABECB4E0F8018BE101900D92815083
:1018F000E1F78B819C819093CA048093C904809105
:101900008C04882311F490E005C08091980488230A
:1019100061F491E08CE09802C001112484579B4F40
:10192000B5014BE050E00E94B805CE0101960E943F
:10193000FC088F2D6F960FB6F894DEBF0FBECDBF9B
:10194000CF91DF911F910F91FF90EF90DF90CF909B
:10195000BF90AF9008959F92AF92BF92CF92DF92C7
:10196000EF92FF920F931F93DF93CF93CDB7DEB724
:10197000CF54D0400FB6F894DEBF0FBECDBF1DAA26
:1019800018AE1CAA1BAA8FE192E09AAB89ABCE01DC
:10199000C59669EA74E00E947A23882321F483E0E3
:1019A00091E00E948F0B8E010C5F1F4FC8016CE00D
:1019B00071E00E94A30555E3E52EF12CEC0EFD1E0F
:1019C0008AEE94E0B701A80122E00E94D82988237A
:1019D00091F08AEE94E00E944821882361F484E229
:1019E00092E060E579E00E94B4348AEE94E00E94CF
:1019F0006920C70118C18E010B5C1F4F8AEE94E06D
:101A0000B801AE014C5F5F4F26E40E94D8298823BD
:101A100061F484E292E06BE379E00E94B4348AEEF0
:101A200094E00E946920C801FEC088E597E061E06B
:101A300070E00E944D32082F88E597E062E070E088
:101A40000E944D32982E88E597E065E070E00E9494
:101A50004D32B82E88E597E066E070E00E944D3286
:101A6000A82E002329F4CE01419667E171E029C038
:101A7000043029F4CE0141966CE171E022C00130BE
:101A800029F4CE01419661E271E01BC0053029F4D2
:101A9000CE01419666E271E014C0063029F4CE0111
:101AA00041966CE271E00DC0023029F4CE014196FE
:101AB00062E371E006C0033031F4CE01419668E381
:101AC00071E00E94A3058E010F5E1F4FC8016FE3F6
:101AD00071E00E948F0500D000D000D0EDB7FEB7B6
:101AE00031967E010894E11CF11CADB7BEB7129689
:101AF000FC92EE92119741E4C42E41E0D42ED382A1
:101B0000C2828B2D992787FD9095958384830E94AF
:101B1000CF058DB79EB706960FB6F8949EBF0FBE41
:101B20008DBFC801B7010E948F05C8016FE371E046
:101B30000E948F0500D000D000D0EDB7FEB73196DF
:101B4000ADB7BEB71296FC92EE921197D382C282C5
:101B50008A2D992787FD9095958384830E94CF05D0
:101B60008DB79EB706960FB6F8949EBF0FBE8DBF79
:101B7000C801B7010E948F05C8016FE371E00E94A0
:101B80008F0500D000D000D0EDB7FEB73196ADB7CD
:101B9000BEB71296FC92EE921197D382C282892D23
:101BA000992787FD9095958384830E94CF058DB7F3
:101BB0009EB706960FB6F8949EBF0FBE8DBFC801A4
:101BC000B7010E948F0531E2E32EF12CEC0EFD1ED1
:101BD000C701B8010E94A305F80101900020E9F7B0
:101BE0003197E01BF10B86EE94E0B701AF010E9444
:101BF000642CF80101900020E9F73197E01BF10B0C
:101C00008E179F0731F084E292E065E279E00E944E
:101C1000B4348AEE94E00E941B208AEE94E00E9485
:101C20006920CE01C5960E946920CE01C1960E940E
:101C3000FC08C15BDF4F0FB6F894DEBF0FBECDBF0F
:101C4000CF91DF911F910F91FF90EF90DF90CF9098
:101C5000BF90AF909F9008951F9388E597E062E052
:101C600070E00E944D32182F84E292E067E672E045
:101C70000E94B43484E292E063E572E00E94693429
:101C8000112329F484E292E06AE472E00DC011307D
:101C900029F484E292E06EE372E006C0123031F47F
:101CA00084E292E066E372E00E94693484E292E0AA
:101CB0000E94943484E292E060E172E00E94693410
:101CC00084E292E0609107054AE050E00E948C3582
:101CD00084E292E06CE072E00E94693484E292E077
:101CE000609108054AE050E00E949E3584E292E04F
:101CF00061E072E00E94B43484E292E06DEE71E043
:101D00000E94B43484E292E066ED71E00E94B43443
:101D100084E292E064EC71E00E94B43484E292E0E8
:101D20006BEA71E00E94B43484E292E063E971E00E
:101D30000E94B43484E292E064E771E00E94B4341B
:101D400084E292E06CE671E00E94B43484E292E0B6
:101D50006EE30E948C3488E497E00E941C31892B4A
:101D6000D1F384E292E00E94DE08813361F484E2E0
:101D700092E06BE571E00E94B43488E597E062E0A0
:101D800070E040E00DC0823381F484E292E067E4C9
:101D900071E00E94B43488E597E062E070E041E0D1
:101DA0000E9454320E94AB0C89C0833361F484E2F8
:101DB00092E068E371E00E94B43488E597E062E065
:101DC00070E042E0EDCF8433A9F484E292E06AE16E
:101DD00071E00E94B43488E597E063E070E040E091
:101DE0000E94543288E597E064E070E040E00E9491
:101DF000543264C0853331F584E292E06BEF70E0D9
:101E00000E94693488E497E00E941C31892BD1F349
:101E100084E292E00E94DE08482F8093070588E55F
:101E200097E065E070E00E9454320E94AB0C84E2BF
:101E300092E062EE70E00E94693484E292E0609188
:101E400007052EC0863389F54AE012C084E292E08D
:101E500067EA70E00E94693488E497E00E941C31D0
:101E6000892BD1F384E292E00E94DE08482F405390
:101E7000842F8150893050F74093080588E597E01A
:101E800066E070E00E9454320E94AB0C84E292E063
:101E900060E870E00E94693484E292E06091080595
:101EA0004AE050E00E949E3509C0883709F0DCCE38
:101EB00084E292E068E770E00E94B4341F910895D4
:101EC0001F9388E597E061E070E00E944D32182F83
:101ED00084E292E069E973E00E94B43484E292E023
:101EE0006FE873E00E946934143029F484E292E0D0
:101EF0006CE873E029C0112329F484E292E069E8D8
:101F000073E022C0113029F484E292E066E873E0C5
:101F10001BC0153029F484E292E062E873E014C03B
:101F2000163029F484E292E06EE773E00DC01230BF
:101F300029F484E292E06AE773E006C0133031F4DA
:101F400084E292E065E773E00E94693484E292E003
:101F50006EE673E00E94B43484E292E063E673E0DC
:101F60000E94B43484E292E067E573E00E94B434E6
:101F700084E292E06BE473E00E94B43484E292E085
:101F80006FE373E00E94B43484E292E062E373E0B2
:101F90000E94B43484E292E065E273E00E94B434BB
:101FA00084E292E068E173E00E94B43484E292E05B
:101FB0006AE073E00E94B43484E292E062E073E08D
:101FC0000E94B43484E292E06EE30E948C3488E490
:101FD00097E00E941C31892BD1F384E292E00E94A9
:101FE000DE08813361F484E292E061EF72E00E94E6
:101FF000B43488E597E061E070E040E053C082339C
:1020000061F484E292E060EE72E00E94B43488E50C
:1020100097E061E070E044E045C0833361F484E21E
:1020200092E06FEC72E00E94B43488E597E061E0E2
:1020300070E041E037C0843361F484E292E06DEBFC
:1020400072E00E94B43488E597E061E070E045E01A
:1020500029C0853361F484E292E06BEA72E00E9469
:10206000B43488E597E061E070E046E01BC0863359
:1020700061F484E292E069E972E00E94B43488E598
:1020800097E061E070E042E00DC0873399F484E2AC
:1020900092E066E872E00E94B43488E597E061E07F
:1020A00070E043E00E9454320E94AB0C85E00E9435
:1020B0001F0B09C0883709F00BCF84E292E06EE76E
:1020C00072E00E94B4341F9108954F925F926F9214
:1020D0007F928F929F92AF92BF92CF92DF92EF92B8
:1020E000FF920F931F93DF93CF93CDB7DEB7C75403
:1020F000D0400FB6F894DEBF0FBECDBF1DA618AA04
:102100001CA61BA68FE192E09AA789A7CE018D9607
:1021100069EA74E00E947A23882321F483E091E045
:102120000E948F0B8E01085F1F4FC8016CE071E0A9
:102130000E94A3058DE2E82EF12CEC0EFD1E8AEE26
:1021400094E0B701A80121E00E94D829882341F436
:102150008AEE94E00E946920C7010E9469206BC149
:10216000CC24DD248E010B5E1F4F8AEE94E00E948A
:10217000692287FD0BC0F801EC0DFD1D80830894DA
:10218000C11CD11C84E1C816D10479F78AEE94E011
:102190000E946920CE018D960E94692001E010E026
:1021A000BAE18B2EA3E0AA2E9924BB247E010894C9
:1021B000E11CF11CF5E14F2E512C4C0E5D1EE7E0A9
:1021C0006E2E712C6C0E7D1E82C0ED9393942A2F7F
:1021D0002E19892D90E0F201E80FF91FE081EC3211
:1021E00031F08C159D051CF4A615B70571F7F701A4
:1021F000E20FF11D1082BB20F1F5C70167E171E02C
:102200000E949A05009711F400E05FC0C7016CE1DD
:1022100071E00E949A05009711F404E056C0C701CE
:1022200061E271E00E949A05009709F44DC0C70170
:1022300066E271E00E949A05009711F405E045C03E
:10224000C7016CE271E00E949A05009711F406E064
:102250003CC0C70162E371E00E949A05009711F447
:1022600002E033C0C70168E371E00E949A0500975D
:1022700059F503E02AC081E0B81649F4C7010E946D
:102280005405882E882309F57AE1872E1EC082E046
:10229000B81651F4C7010E945405A82E882389F06E
:1022A0008AE08A1574F011C083E0B816B9F4C7014A
:1022B0000E945405182F882341F0863034F010E036
:1022C00004C063E0A62E01C001E0B3949394892D6D
:1022D00090E08C159D0514F4D70179CF202F33277A
:1022E00027FD30958091050590E02817390711F4F6
:1022F00040E063C088E597E061E070E0402F0E9415
:10230000543200930505002349F484E292E040E64C
:1023100059E060E070E026E00E94700880910505B9
:10232000843049F484E292E040EC52E160E070E0F5
:1023300026E00E94700880910505813049F484E20E
:1023400092E040E855E260E070E026E00E9470080C
:1023500080910505853049F484E292E040E05BE439
:1023600060E070E026E00E947008809105058630EC
:1023700049F484E292E040E056E960E070E026E053
:102380000E94700880910505823049F484E292E051
:1023900040E051EE60E070E026E00E94700880911D
:1023A0000505833049F484E292E040E052EC61E0BC
:1023B00070E026E00E94700841E0212F332727FDBE
:1023C00030958091060590E02817390751F0109359
:1023D000060588E597E062E070E0412F0E945432E4
:1023E00041E0282D332727FD30958091070590E0A7
:1023F0002817390751F08092070588E597E065E0D6
:1024000070E0482D0E94543241E02A2D332727FDE9
:1024100030958091080590E02817390751F0A09277
:10242000080588E597E066E070E04A2D0E94543286
:1024300002C0413011F40E94AB0CCE0189960E947B
:10244000FC08C95BDF4F0FB6F894DEBF0FBECDBFEF
:10245000CF91DF911F910F91FF90EF90DF90CF9080
:10246000BF90AF909F908F907F906F905F904F90B4
:1024700008950F931F9380E060E00E944A3380E04C
:1024800061E00E94893380E00E94DD33019709F406
:1024900071C08DE061E00E944A338DE061E00E94EE
:1024A000893310E000E269E170E080E090E00E9492
:1024B000B6328BB180278BB980E00E94DD33019763
:1024C00009F458C069E170E080E090E00E94B63203
:1024D00085B1802785B980E00E94DD33019709F43A
:1024E00049C01F5F1832F9F60E94000B84EA94E09D
:1024F00060E04AE00E94371E882321F484E491E0E2
:102500000E948F0B89EA94E064EA74E00E94490B10
:10251000882321F48EE491E00E948F0B8BEC94E0F1
:1025200069EA74E00E947A23882321F483E091E031
:102530000E948F0B0E94AB0C85E061E00E944A3341
:102540008DE061E00E944A3385E061E00E948933BA
:102550008DE061E00E94893310E264EF71E080E079
:1025600090E00E94B6328BB181278BB985B181276B
:1025700085B9F3CF1F910F91089585E061E00E9426
:102580004A3383B7817F83BF83B7816083BF8091E4
:102590007A008F7780937A0080E880BF8FE3809302
:1025A0007E0083E080937F00809164008068809348
:1025B000640080916400886080936400809164006E
:1025C00080648093640080916400816080936400E3
:1025D0000E9439120E94AE0A80910505882349F4B1
:1025E00084E292E040E659E060E070E026E00E947C
:1025F000700880910505843049F484E292E040EC53
:1026000052E160E070E026E00E94700880910505CC
:10261000813049F484E292E040E855E260E070E005
:1026200026E00E94700880910505853049F484E217
:1026300092E040E05BE460E070E026E00E94700819
:1026400080910505863049F484E292E040E056E945
:1026500060E070E026E00E947008809105058230FD
:1026600049F484E292E040E051EE60E070E026E060
:102670000E94700880910505833049F484E292E05D
:1026800040E052EC61E070E026E00E94700884E2D5
:1026900092E06AE571E00E942E3684EA94E060E000
:1026A0004AE00E94371E882349F484E292E061ECFC
:1026B00079E00E94693483E00E941F0B89EA94E06C
:1026C00064EA74E00E94490B882349F484E292E0B2
:1026D0006FEA79E00E94693483E00E941F0B8BEC63
:1026E00094E069EA74E00E947A23882349F484E242
:1026F00092E060EA79E00E94693483E00E941F0B57
:1027000084E292E06CE571E00E942E360E94651032
:1027100088E1ECE8F4E0DF011D928A95E9F708957D
:10272000CF92DF92EF92FF920F931F93DF93CF939D
:10273000CDB7DEB7A0970FB6F894DEBF0FBECDBF02
:10274000AC018AEE94E06BEC74E026E40E94D82998
:10275000882321F48EE591E00E948F0B8091FB0489
:102760009091FC04A091FD04B091FE040097A10596
:10277000B10561F48AEE94E040E050E060E070E082
:102780000E94511F8AEE94E00E941B2084E292E096
:102790006CE30E948C3485E061E00E94893300E0A4
:1027A00010E0FF246E010894C11CD11C90E2E92EB8
:1027B00084E292E0B60140E250E00E94600B482FB4
:1027C000882309F44FC02091070590910805F60170
:1027D00080818217A9F5F394F91699F5BE016F5F10
:1027E0007F4F4F1530F050E04F19510986EE94E0BD
:1027F00003C086EE94E050E00E94642C8AEE94E0E0
:102800000E941B208AEE94E00E94692085E060E02F
:102810000E94893384E292E064E671E00E942E36E1
:1028200081E0A0960FB6F894DEBF0FBECDBFCF916A
:10283000DF911F910F91FF90EF90DF90CF9008955F
:10284000FF2431968E2F8C19841710F286EE94E0B7
:10285000B60150E00E94642C8BB18E258BB900E04C
:1028600010E0A6CF81E0053F180718F40F5F1F4F57
:1028700023C08AEE94E00E941B205D988091640042
:10288000806280936400809164008460809364001F
:1028900083B7816083BF889583B78E7F83BF809124
:1028A00064008B7F80936400809164008F7D8093AF
:1028B00064000E94A8328B0161E070E080E090E04B
:1028C0000E94B63275CF0F931F93DF93CF93CDB78E
:1028D000DEB72D970FB6F894DEBF0FBECDBFDE0179
:1028E0001196E6E6F1E08DE001900D928150E1F75E
:1028F0008AEE94E06BEC74E08E010F5F1F4FA8012D
:1029000022E40E94D829882339F484E292E065E623
:1029100079E00E94693407C08AEE94E00E94692041
:10292000C8010E9490132D960FB6F894DEBF0FBE1B
:10293000CDBFCF91DF911F910F910895CF92DF927C
:10294000EF92FF920F931F93DF93CF93CDB7DEB734
:102950002D970FB6F894DEBF0FBECDBF88E597E088
:1029600063E070E00E944D32182F88E597E064E044
:1029700070E00E944D32282F1F3F99F48F3F89F459
:1029800088E597E063E070E040E00E94543288E51B
:1029900097E064E070E040E00E945432EE24FF24AF
:1029A00010C0922F80E0E12EFF24E82AF92A8EEF52
:1029B000E8168FEFF80629F484E292E06EE879E0F9
:1029C0001CC0DE011196EFE7F1E08DE001900D9261
:1029D0008150E1F78E010F5F1F4F23E7C22E21E0E8
:1029E000D22E0894E11CF11C9EEFE9169FEFF90628
:1029F00038F084E292E06CE779E00E94693442C0EA
:102A000000D000D000D0EDB7FEB73196ADB7BEB75D
:102A100012961C930E931197D382C282F582E482A0
:102A20000E94CF058DB79EB706960FB6F8949EBF4D
:102A30000FBE8DBF8AEE94E06BEC74E0A80122EC2F
:102A40000E94D829882369F28AEE94E00E946920C6
:102A500088E597E063E070E04E2D0E94543288E5EF
:102A600097E064E070E00E944D328F1539F088E500
:102A700097E064E070E04F2D0E945432CE01019641
:102A80000E9490132D960FB6F894DEBF0FBECDBFF7
:102A9000CF91DF911F910F91FF90EF90DF90CF903A
:102AA00008952F923F924F925F926F927F928F92F2
:102AB0009F92AF92BF92CF92DF92EF92FF920F93CD
:102AC0001F93DF93CF93CDB7DEB7C156D0400FB67B
:102AD000F894DEBF0FBECDBF11E001E2202E312CF5
:102AE0002C0E3D1ECE010996A2969FAF8EAFA297E7
:102AF000BFE34B2E512C4C0E5D1EF2013496A09676
:102B0000FFAFEEAFA09701C011E08091000283FFFC
:102B100005C084E292E06AE10E948C34112329F41A
:102B200084E292E061E20E948C3484E292E06EE3FF
:102B30000E948C34C1016EE10E943D0A11E088239D
:102B400021F380E00E94CA097C016CE871E00E94D8
:102B50009A05009749F58091000281FF06C084E242
:102B600092E06CE079E00E94B4348BEC94E00E9437
:102B700069208BEC94E069EA74E00E947A23882350
:102B800021F483E091E00E948F0B88E1ECE8F4E00F
:102B900011928A95E9F78091000281FFB5CF84E216
:102BA00092E064EF78E0B8C5F70180818F3339F0A7
:102BB000C70161E971E00E949A05009719F40E942B
:102BC000F509A3CFC70166E971E00E949A05009755
:102BD00019F40E94600F99CFC7016BE971E00E9460
:102BE0009A05009719F40E942C0E8FCFC7016FE948
:102BF00071E042E050E00E94AA050097E1F4809164
:102C0000000281FF0EC084E292E066EE78E00E944E
:102C1000693484E292E06091C0044AE050E00E948E
:102C20009E358BEC94E066E00E949F2684E292E061
:102C300067EC78E071C5C70162EA71E042E050E0FC
:102C40000E94AA050097C1F581E00E94CA098C0183
:102C5000009709F42DC524961FAE249727961FAE22
:102C6000279723961FAE1EAE23978FE192E0F201C5
:102C700091838083A0968EAD9FADA0976BEC74E09E
:102C8000A80120E00E94532B882311F011E010C00E
:102C90008091000281FF0BC084E292E06CEA78E050
:102CA0000E94693484E292E0B8010E94313610E05B
:102CB000C2010E94FC0829CFC70165EA71E042E029
:102CC00050E00E94AA05009709F05FC081E00E94D1
:102CD000CA098C01009709F4EBC4E7E2F5E020E0B3
:102CE00080819181892B19F0828181112F5F339628
:102CF00095E0E633F907A1F7233009F0DBC4C801FA
:102D000068EA71E043E050E00E94AA05009709F0EC
:102D1000D1C482E00E94CA09AC018AEE94E06BEC57
:102D200074E021E00E94D829882309F4C1C48AEE06
:102D300094E00E949A2409C08091ED04823008F446
:102D4000C5C48AEE94E00E94BD22182F4EC28AEEBE
:102D500094E00E944821F9CF84E292E06EE878E0A6
:102D60000E94B4348091000281FFA2C484E292E008
:102D700040E050E060E070E02AE030E00E9458352A
:102D800084E292E06DE778E055C3C7016CEA71E038
:102D900042E050E00E94AA05009749F481E00E94B9
:102DA000CA09009709F484C40E94BF0BA1C3C701DC
:102DB0006FEA71E044E050E00E94AA05009709F034
:102DC00060C181E00E94CA098C01009709F470C4B7
:102DD0008AEE94E06BEC74E0A80121E00E94D8290F
:102DE000882349F48091000281FF62C484E292E06A
:102DF00068E678E066C382E00E94CA097C01009719
:102E000009F44EC0FC0101900020E9F73197E81B5E
:102E100020E030E04E2F50E00CC0F701E20FF31F2E
:102E20008081992787FD9095C0970A97C8F52F5FF5
:102E30003F4F241735078CF3870140E050E060E0F6
:102E400070E019C0CB01BA012AE030E040E050E068
:102E50000E944436AB01BC018D2D992787FD9095CA
:102E6000C097AA2797FDA095BA2F480F591F6A1F30
:102E70007B1F0F5F1F4FF801D0808D2D80538A304C
:102E800008F38AEE94E00E94511F882349F4809150
:102E9000000281FF76C184E292E066E578E06AC1D3
:102EA00083E00E94CA09AC01009709F43FC0FC010D
:102EB00001900020E9F73197E81B20E030E06E2F09
:102EC00070E00CC0FA01E20FF31F8081992787FDA3
:102ED0009095C0970A9750F52F5F3F4F26173707F9
:102EE0008CF38A0166247724430119C0C401B3011D
:102EF0002AE030E040E050E00E9444363B014C01C3
:102F00008F2D992787FD9095C097AA2797FDA095AB
:102F1000BA2F680E791E8A1E9B1E0F5F1F4FF80185
:102F2000F0808F2D80538A3008F304C066246A94A1
:102F3000762C430184E00E94CA09AC01009709F491
:102F400040C0FC0101900020E9F73197E81B20E028
:102F500030E06E2F70E00CC0FA01E20FF31F8081A9
:102F6000992787FD9095C0970A9758F52F5F3F4F97
:102F7000261737078CF36A01EE24FF2487011AC055
:102F8000C801B7012AE030E040E050E00E9444363A
:102F90007B018C018B2D992787FD9095C097AA27DF
:102FA00097FDA095BA2FE80EF91E0A1F1B1F089463
:102FB000C11CD11CF601B0808B2D80538A3000F3E8
:102FC00005C0A1E0EA2EF12C012D112DF1E0AF2E6C
:102FD000B12CC12CD12C3FC06A147B048C049D04FD
:102FE00008F442C0262FF1E0EF16F10401051105A7
:102FF00081F4862F80528F3528F16A3011F06D30C0
:1030000021F484E292E0622F1FC084E292E06EE23B
:103010001BC082E0E816F1040105110569F484E2A1
:1030200092E040E150E00E948C3584E292E064EB53
:1030300071E00E942E360AC093E0E916F104010502
:10304000110521F484E292E00E94A7080894A11CD3
:10305000B11CC11CD11C8AEE94E00E946922BC0103
:10306000181619060CF4B8CF8AEE94E00E94692075
:103070008091000283FD48CD84E292E00E94943466
:1030800043CDC70166EB71E045E050E00E94AA0520
:10309000009709F0AFC081E00E94CA098C01009737
:1030A00009F406C38AEE94E06BEC74E0A80122E018
:1030B0000E94D829882349F48091000281FFF8C238
:1030C00084E292E061E478E0FCC182E00E94CA09F7
:1030D0007C01009709F45AC0FC0101900020E9F737
:1030E0003197E81B20E030E04E2F50E00DC0F70193
:1030F000E20FF31F8081992787FD9095C0970A976B
:1031000008F044C02F5F3F4F2417350784F3870131
:1031100040E050E060E070E019C0CB01BA012AE065
:1031200030E040E050E00E944436AB01BC018D2D00
:10313000992787FD9095C097AA2797FDA095BA2F4C
:10314000480F591F6A1F7B1F0F5F1F4FF801D08068
:103150008D2D80538A3008F38AEE94E00E94511F2F
:103160008823A1F48091000281FF0BC084E292E0E9
:103170006FE278E00E94693484E292E0B7010E9435
:1031800031368AEE94E00E94692092C2809100025A
:1031900083FF05C084E292E06AE10E948C3484E2FD
:1031A00092E06CEB71E00E942E36C1016EE10E944C
:1031B0003D0A182F882311F411E017C086EE94E021
:1031C000B101412F50E00E94642C212F30E0821782
:1031D0009307E1F28091000281FF06C084E292E051
:1031E00067E178E00E94693410E08AEE94E00E9482
:1031F00069208BCCC7016EEB71E044E050E00E9487
:10320000AA050097C1F581E00E94CA09AC010097A8
:1032100009F44EC28AEE94E06BEC74E021E00E9467
:10322000D8298823A1F04091FB045091FC046091BF
:10323000FD047091FE0484E292E02AE030E00E94F6
:1032400058358AEE94E00E94692011E00BC080910D
:10325000000281FF06C084E292E064E178E00E940F
:10326000693410E08091000283FD4FCC84E292E04B
:103270000E9494344ACCC70163EC71E00E949A0525
:10328000009709F0DAC084E292E067E078E00E94FB
:1032900069348091A804823049F0833061F0813034
:1032A00079F484E292E063E078E00EC084E292E098
:1032B0006FEF77E009C084E292E06AEF77E004C044
:1032C00084E292E062EF77E00E94B43484EA94E012
:1032D0006AE0AE014F5F5F4F0E94551D882339F4AD
:1032E00084E292E063EE77E00E946934E1C184E217
:1032F00092E061ED77E00E94693484E292E06981B6
:1033000040E150E00E949E3584E292E068EC77E074
:103310000E94693484E292E06A810E948C3484E2E3
:1033200092E06B810E94C83484E292E06EEB77E019
:103330000E9469348E010C5F1F4F84E292E0F80115
:1033400061918F010E948C34A2968EAD9FADA297A1
:103350000817190791F784E292E062EB77E00E9488
:103360006934698562956F7084E292E04AE050E0CA
:103370000E948C3584E292E06EE20E948C34698572
:103380006F7084E292E04AE050E00E949E3584E251
:1033900092E062EA77E00E9469344A855B856C8539
:1033A0007D8584E292E02AE030E00E94673584E285
:1033B00092E06DE877E00E9469346F856F7084E277
:1033C00092E04AE050E00E948C3584E292E06FE2A5
:1033D0000E948C346F8562956F7070E06053784FF7
:1033E0008E858F7090E0E4E0880F991FEA95E1F7F1
:1033F000680F791F84E292E04AE050E00E940F36A5
:1034000084EA94E00E94751D7B018C0161157105B1
:103410008105910559F084EA94E069E0AE014F5EC0
:103420005F4F0E94551D882309F060C184E292E03D
:103430006EE777E00E94B4343BC1C70168EC71E0ED
:103440000E949A05009749F48AEE94E00E941B209E
:103450008BEC94E00E941B2057CBC7016DEC71E010
:103460000E949A05009731F4E0918A04F0918B0450
:1034700009951EC1C70163ED71E043E050E00E9471
:10348000AA05009721F581E00E94CA098C010097E6
:1034900009F40EC18AEE94E06BEC74E0A80122EC12
:1034A0000E94D829882329F08AEE94E00E9469209E
:1034B0002BCB8091000281FFFBC084E292E068E5A3
:1034C00077E00E94693484E292E0B801EFC0C7015E
:1034D00067ED71E046E050E00E94AA05009751F4C4
:1034E00081E00E94CA09009709F4E2C00E9490138B
:1034F000182F0BCBC7016EED71E00E949A05009763
:1035000009F040C084E292E062EE71E00E942E3643
:1035100080918C04882311F4CC2409C080919804F4
:10352000882319F0CC24CA9402C0CC24C394DD248F
:10353000EC2CFF240894E108F1081BC00D2D10E0CD
:10354000B801660F771F600F711F660F771F660F38
:10355000771F64577B4F84E292E00E942E360E154F
:103560001F0534F484E292E065EE71E00E942E368D
:10357000D394DC1418F384E292E067EE71E00E94C9
:103580003136C2CAC70168EE71E044E050E00E94E3
:10359000AA05009719F581E00E94CA098C010097DD
:1035A00009F486C06DEE71E042E050E00E94AA0589
:1035B000982F882321F480910002816063C0C801A4
:1035C00060EF71E043E050E00E94AA05982F882345
:1035D00009F05AC0809100028E7F54C0C70164EF89
:1035E00071E047E050E00E94AA05009711F581E0E4
:1035F0000E94CA098C01009709F45AC06DEE71E06F
:1036000042E050E00E94AA05982F882321F480917F
:103610000002826037C0C80160EF71E043E050E013
:103620000E94AA05982F882379F5809100028D7F4A
:1036300029C0C7016CEF71E043E050E00E94AA0589
:10364000009739F581E00E94CA098C01009781F149
:103650006DEE71E042E050E00E94AA05982F8823A9
:1036600021F48091000288600DC0C80160EF71E014
:1036700043E050E00E94AA05982F882329F4809106
:103680000002877F8093000210E0992309F03DCA71
:103690003BCA8091000281FF0BC084E292E066E4A5
:1036A00077E00E94693484E292E0B7010E943136EB
:1036B00010E02BCA8AEE94E06BEC74E0A80121E0E4
:1036C0000E94D829882309F037CB46CB8AEE94E0B4
:1036D0000E9469208AEE94E06BEC74E0A80122E07D
:1036E0000E94D829882309F47FCD31CB84E292E06F
:1036F00062E777E00E94693416950795F794E7949E
:1037000084E292E0B801A7012AE030E00E94583537
:1037100084E292E06EE677E00E94B434F5C98091CD
:103720000605882311F40E949E14809106058130BD
:1037300011F40E9463140E945115FFCFFF920F9362
:103740001F93CF93DF938B010E94A832EB01FF24DC
:10375000FA9409C00E94A8326C1B7D0B6017710798
:1037600010F080E008C0FEBC0DB407FEFDCF8EB5A2
:103770008F3F81F781E0DF91CF911F910F91FF90F3
:103780000895FC014281242F30E0C9019595879569
:1037900080658CBD40FF02C080E004C080E0463000
:1037A00009F081E08DBD808160E00E948933089539
:1037B000DF92EF92FF920F931F93CF93DF93EC0171
:1037C000D62E79018A010E94C11BCE016CE271E004
:1037D0000E949E1B8D2D80648EBD0DB407FEFDCF13
:1037E00028E130E0D801C701022E04C0B695A795A4
:1037F000979587950A94D2F78EBD0DB407FEFDCF3D
:10380000285030408FEF283F380761F7DD2011F452
:1038100085E906C088E0D81611F487E801C08FEF6B
:103820008EBD0DB407FEFDCF8CE0D81631F48FEFBE
:103830008EBD0DB407FEFDCF8EB59FEF2FEF2EBDD1
:103840000DB407FEFDCF8EB587FF04C0992311F09C
:103850009150F5CF8B83DF91CF911F910F91FF9006
:10386000EF90DF900895DF92EF92FF920F931F93F6
:10387000CF93DF93EC01D62E79018A0167E320E034
:1038800030E040E050E00E94D81B882331F0CE01A8
:103890006D2DA80197010E94D81BDF91CF911F9138
:1038A0000F91FF90EF90DF900895FC01808161E01F
:1038B0000E9489338FEF8EBD0DB407FEFDCF0895B2
:1038C000DC016EBDFA0120E030E00DB407FEFDCF53
:1038D00080818EBD0DB407FEFDCF81818EBD2E5F30
:1038E0003F4F329682E02030380779F70DB407FE5B
:1038F000FDCF8FEF8EBD0DB407FEFDCF8FEF8EBDD8
:103900000DB407FEFDCF8FEF8EBD0DB407FEFDCFCA
:103910008EB513968C9313978F71853011F481E0D7
:10392000089583E111968C931197CD010E94551C47
:1039300080E00895CF92DF92EF92FF920F931F9352
:10394000CF93DF93EC017A018B0169018C81833085
:1039500039F059E0EE0CFF1C001F111F5A95D1F7EA
:10396000CE0168E1A80197010E94D81B882311F0BD
:1039700086E023C0CE016EEFA6010E94601C882362
:10398000E9F0CE0168E572E00E949E1B882311F4E5
:1039900087E113C0CE016DE020E030E040E050E070
:1039A0000E94D81B882341F48FEF8EBD0DB407FE13
:1039B000FDCF8EB5882379F086E18983CE010E9400
:1039C000551C80E0DF91CF911F910F91FF90EF90F8
:1039D000DF90CF900895CE010E94551C81E0F2CF78
:1039E000BF92CF92DF92EF92FF920F931F93CF93EC
:1039F000DF93EC016B017A010E94A8328B01BB249A
:103A0000BA9409C00E94A832601B710B6D527140BC
:103A100010F081E10BC0BEBC0DB407FEFDCF8EB52A
:103A20008B838F3F79F38E3F39F08FE08983CE010E
:103A30000E94551C80E02FC0D7011197EF28D9F0C4
:103A40008FEF8EBD20E030E09FEF0BC00DB407FE7E
:103A5000FDCF8EB5F601E20FF31F80839EBD2F5F71
:103A60003F4F2A173B0790F30DB407FEFDCF8EB5ED
:103A7000AC0DBD1D8C938FEF8EBD0DB407FEFDCF39
:103A80008EB58FEF8EBD0DB407FEFDCF8EB5CE0186
:103A90000E94551C81E0DF91CF911F910F91FF9003
:103AA000EF90DF90CF90BF9008950F931F93CF9327
:103AB000DF93EC018A0120E030E040E050E00E941A
:103AC000D81B882339F080E18983CE010E94551CE0
:103AD00080E006C0CE01B80140E150E00E94F01C39
:103AE000DF91CF911F910F910895EF92FF920F9365
:103AF0001F93DF93CF93CDB7DEB760970FB6F894DF
:103B0000DEBF0FBECDBF8C0169E0AE014F5F5F4FDE
:103B10000E94551D882309F464C089818295869589
:103B20008695837089F58F818370382F330F330F1B
:103B300020E0888590E0880F991F880F991F282B17
:103B4000392B8985829586958695837090E0282B00
:103B5000392B2F5F3F4F790100E010E08E818F708D
:103B600090E007972A852370220F3B85331F332768
:103B7000331F232B820F911D04C0EE0CFF1C001F6E
:103B8000111F8A95D2F730C0813041F5888586951E
:103B9000869590E0A0E0B0E08C01FF24EE248A85B9
:103BA00090E0A0E0B0E0E82AF92A0A2B1B2B9985C7
:103BB00080E0AA2797FDA095BA2FE82AF92A0A2BB8
:103BC0001B2B0894E11CF11C011D111D7AE0EE0C69
:103BD000FF1C001F111F7A95D1F706C08BE0F8017A
:103BE0008183EE24FF248701B701C80160960FB6D8
:103BF000F894DEBF0FBECDBFCF91DF911F910F9123
:103C0000FF90EF900895CF92DF92EF92FF920F9383
:103C10001F93CF93DF93EC017A018B0169018C81B3
:103C2000833039F0A9E0EE0CFF1C001F111FAA958C
:103C3000D1F7CE0161E1A80197010E94D81B88232A
:103C400039F084E08983CE010E94551C80E006C0D3
:103C5000CE01B60140E052E00E94F01CDF91CF910E
:103C60001F910F91FF90EF90DF90CF900895BF923A
:103C7000CF92DF92EF92FF920F931F93CF93DF9338
:103C8000EC01B62E1C82198248830E94A8326B0177
:103C9000888161E00E944A33888161E00E94893313
:103CA0008CE060E00E944A338BE061E00E944A337E
:103CB0008DE061E00E944A338AE061E00E944A336D
:103CC0008AE061E00E94893385E08A8382E58CBDC9
:103CD0001DBC80E09FEF9EBD0DB407FEFDCF8F5F42
:103CE0008A30C9F709C00E94A8326C197D09615D4C
:103CF000774010F081E056C0CE0160E020E030E077
:103D000040E050E00E94D81B182F8B83813059F778
:103D1000CE0168E02AEA31E040E050E00E94D81B82
:103D200082FF02C01C8311C080E02FEF2EBD0DB4B6
:103D300007FEFDCF9EB58F5F8430C1F79B839A3A13
:103D400011F082E02FC082E08C838C81823021F0E0
:103D5000EE24FF2487010FC0E12CF12C012D00E49B
:103D6000102F09C00E94A8326C197D09615D77404F
:103D700010F08AE017C0CE0169E2A80197010E9405
:103D8000331C8B83882371F78C81823029F5CE0117
:103D90006AE320E030E040E050E00E94D81B882336
:103DA00031F088E08983CE010E94551C21C08FEF3D
:103DB0008EBD0DB407FEFDCF8EB5807C803C11F426
:103DC00083E08C8380E09FEF9EBD0DB407FEFDCFA6
:103DD0002EB58F5F8330C1F7CE010E94551C86E05F
:103DE0008B1518F488E1898303C0BA8281E001C091
:103DF00080E0DF91CF911F910F91FF90EF90DF90C6
:103E0000CF90BF9008950F931F93CF93DF93DC0162
:103E1000EB018A0180E090E020E2FE01E80FF91F4B
:103E2000208301968B309105C1F757E040E024C014
:103E3000622F2E3219F084EE99E007C05A3051F10A
:103E40005AE048E018C0321729F1FC01019634917C
:103E50003323C9F75417F0F02132E0F02F37D0F4B4
:103E6000822F81568A3110F4622F6052FE01E40FD6
:103E7000F11D60834F5F11962C91222311F02F3298
:103E8000B9F6F801B183A08390E08881803219F0FF
:103E900091E001C090E0892FDF91CF911F910F91A8
:103EA00008956F927F928F929F92AF92BF92CF921E
:103EB000DF92EF92FF920F931F93CF93DF93EC016A
:103EC0007A018B012B81222309F480C089899A8988
:103ED000AB89BC8984179507A607B70708F476C095
:103EE00085C0E114F1040105110551F41C821D8205
:103EF0001E821F82188619861A861B8681E067C07B
:103F0000288539854A855B85E98DFA8D858590E020
:103F10000996215030404040504039014A01082E56
:103F200004C096948794779467940A94D2F72F5F8D
:103F30003F4F4F4F5F4F0894E108F1080109110905
:103F40005701680104C0D694C794B794A7948A9582
:103F5000D2F70894E11CF11C011D111DA614B70431
:103F6000C804D90428F0211531054105510549F44B
:103F70008D899E89AF89B88D8C839D83AE83BF83E5
:103F800016C0A618B708C808D90811C04C815D81B1
:103F90006E817F81898D9A8D94010E94CD2E089427
:103FA000A108B108C108D108882331F40FC084E00A
:103FB000882E912C8C0E9D1EA114B104C104D10435
:103FC00029F7E886F9860A871B8798CF80E0DF917A
:103FD000CF911F910F91FF90EF90DF90CF90BF9006
:103FE000AF909F908F907F906F900895223009F04E
:103FF00078CFE7CFCF93DF93EC018C859D85AE859D
:10400000BF8540E0611141E0BC01CD010E94A32CBD
:10401000882319F420E030E00AC08889282F30E096
:1040200095E0220F331F9A95E1F7205C3A4FC901C2
:10403000DF91CF9108950F931F93CF93DF938C015E
:10404000FC0183818823E1F1818187FF36C0C801AB
:1040500061E00E94FA1FEC01009791F18881853E92
:1040600079F1F8018381823040F481899289A389B2
:10407000B4898C8F9D8FAE8FBF8FF801858996890B
:10408000A789B08D9B8F8A8FCD01AA27BB279D8BD7
:104090008C8BE0913605F0913705309751F0BE01D9
:1040A0006A5E7F4FCE0148960995888D998D9B8BCE
:1040B0008A8BF80181818F7781830E94682C04C0EC
:1040C00081E0F801808380E0DF91CF911F910F9113
:1040D00008950F931F938C010E941B20F8011382F7
:1040E0001F910F910895FC018381882319F0CF015E
:1040F0000E94692008956F927F928F929F92AF9253
:10410000BF92CF92DF92EF92FF920F931F93DF93B4
:10411000CF9300D000D0CDB7DEB77C015A016B0140
:10412000DC0113968C911397813009F091C01196A0
:104130008C9181FF8DC0A0C00097A105B10511F43D
:1041400081E087C0F7016084718482849384C70111
:10415000B601A5010E94511F882309F479C0D70137
:1041600059968D919C915A97A114B104C104D10420
:1041700089F455964D915D916D917C9158970E946F
:10418000432F882309F464C0F701158A168A178A19
:10419000108E44C0D70114964D915D916D917C9124
:1041A00017979E012F5F3F4F0E94CD2E882309F461
:1041B0004FC0D7015996ED91FC915A9749815A8188
:1041C0006B817C818789803149F4483FBFEF5B0771
:1041D000B0E06B07B0E07B0748F020C0483F8FEFAE
:1041E00058078FEF68078FE07807C0F4CF010E946F
:1041F000432F882369F1D70114964D915D916D91FC
:104200007C91179759968D919C915A970FEF1FEFBC
:104210002FEF3FE00E94462E8823D1F0F701A18ABC
:10422000B28AC38AD48A818180688183C7010E944F
:104230001B20882369F0B601A5016A147B048C0455
:104240009D0410F4B401A301C7010E94511F01C0D5
:1042500080E00F900F900F900F90CF91DF911F9102
:104260000F91FF90EF90DF90CF90BF90AF909F9015
:104270008F907F906F900895F70181899289A3892B
:10428000B48984179507A607B70708F055CFE0CF84
:10429000CF93DF93EC0140E050E060E070E00E94DB
:1042A0007B20882369F0CE0161E00E94FA1FFC01A7
:1042B000009731F085EE80831B820E94682C01C03C
:1042C00080E0DF91CF9108952F923F924F925F92BD
:1042D0006F927F928F929F92AF92BF92CF92DF9216
:1042E000EF92FF920F931F93CF93DF93EC012A017C
:1042F0008B81882309F4B6C0898180FFB3C0C8C010
:1043000025014E185F083B0174E0272E312C2C0E3E
:104310003D1E4201A1C0288539854A855B856FEF26
:10432000A62E61E0B62EA222B3228B8179018A01EA
:1043300099E016950795F794E7949A95D1F7E98D4A
:10434000FA8D823049F4428D538D648D758D4E0DFA
:104350005F1D601F711F3FC0D480DA94DE20A1145E
:10436000B104D9F4DD20C9F4211531054105510509
:1043700049F48D899E89AF89B88D8C839D83AE83E6
:10438000BF830BC04C815D816E817F81CF01910124
:104390000E94CD2E882309F465C0E98DFA8D4C81E9
:1043A0005D816E817F814250504060407040058445
:1043B00004C0440F551F661F771F0A94D2F78685E5
:1043C0009785A089B189480F591F6A1F7B1F4D0D22
:1043D000511D611D711D80E092E08A199B098401C5
:1043E0008815990508F48C0182E00030180709F05F
:1043F00067C080913C0590913D05A0913E05B0912C
:104400003F05481759076A077B0709F459C080918F
:1044100040079091410793010E94031E882349F4AD
:1044200021C09501205C3A4FC301B901A8010E9447
:104430007F05600E711E980140E050E088859985E7
:10444000AA85BB85820F931FA41FB51F88879987F4
:10445000AA87BB87801A910A8114910409F05BCF67
:10446000A20102C04FEF5FEFCA01DF91CF911F9110
:104470000F91FF90EF90DF90CF90BF90AF909F9003
:104480008F907F906F905F904F903F902F90089506
:10449000A988BA88CB88DC88E884F9840A851B85DA
:1044A0009A0140E050E0D601C5018E199F09A00B8A
:1044B000B10B281739074A075B0708F021CF23CF34
:1044C000CB01BA0140E00E94A32C882309F0A9CFB8
:1044D000C9CFDF93CF930F92CDB7DEB7BE016F5F29
:1044E0007F4F41E050E00E946421019719F02FEFC7
:1044F0003FEF03C08981282F30E0C9010F90CF9191
:10450000DF910895EF92FF920F931F93CF93DF9364
:10451000EC018B81823038F1E884F9840A851B85AF
:10452000CE010E94692297FD1EC088859985AA85C3
:10453000BB854F96A11DB11D88879987AA87BB8728
:10454000F5E016950795F794E794FA95D1F72E2D97
:1045500030E02F703070E5E0220F331FEA95E1F76D
:10456000205C3A4F02C020E030E0C901DF91CF91DA
:104570001F910F91FF90EF900895CF93DF93EC017F
:104580008B81843071F5CE0140E050E060E070E056
:104590000E94511F10C0CE010E948222FC01009790
:1045A00001F180818823A1F0853E29F08E3219F037
:1045B000838583FF16C0288539854A855B8589896F
:1045C0009A89AB89BC89281739074A075B0718F312
:1045D00081E08B83898182608983CE010E9448219A
:1045E00001C080E0DF91CF9108951F93CF93DF93B7
:1045F000EC01162F6A3038F4E881F9810190F081DE
:10460000E02D60E30995CE01612F4AE050E00E9461
:104610008C35DF91CF911F910895EF92FF920F9308
:104620001F938C017B016F2D6695669566950E94A0
:10463000F522D801ED91FC910190F081E02DC801A7
:104640006AE30995B701B5E076956795BA95E1F704
:104650006F73C8010E94F522D801ED91FC91019081
:10466000F081E02DC8016AE30995BFE1EB22FF2448
:10467000EE0CFF1CC8016E2D0E94F5221F910F91B8
:10468000FF90EF900895EF92FF920F931F938C018C
:104690007B01672F772766956454784FC8014AE0FD
:1046A00050E00E947B35D801ED91FC910190F081A2
:1046B000E02DC8016DE20995B70185E07695679513
:1046C0008A95E1F76F70C8010E94F522D801ED913B
:1046D000FC910190F081E02DC8016DE20995BFE1E8
:1046E000EB22C8016E2D0E94F5221F910F91FF90C1
:1046F000EF9008950F931F93CF93DF93EC018B01FD
:104700008B81882309F040C0FB018789803109F043
:1047100041C082E08B831D8A1E8A1F8A188E808D7D
:10472000918DA0E0B0E025E0880F991FAA1FBB1F64
:104730002A95D1F7898B9A8BAB8BBC8B13C083E006
:104740008B83F801428D538D648D758D4D8B5E8BFF
:104750006F8B788F9E012F5E3F4FC8010E94A12F63
:10476000882391F01A8F098F81E089831C821D8232
:104770001E821F82188619861A861B861C861D8635
:104780001E861F86188A01C080E0DF91CF911F919D
:104790000F9108958032C1F7D2CF1F93CF93DF934B
:1047A000EC01142F262F30E0F90155E0EE0FFF1F2A
:1047B0005A95E1F7E05CFA4F8385817121F0842FEF
:1047C000827109F069C080913C0590913D05A091EE
:1047D0003E05B0913F058C879D87AE87BF87688B6C
:1047E000F90145E0EE0FFF1F4A95E1F7E05CFA4F53
:1047F00084899589A0E0B0E0DC01992788278D8B1A
:104800009E8BAF8BB88F228D338DA90160E070E055
:10481000482B592B6A2B7B2B4D8B5E8B6F8B788FA4
:10482000838590E088719070009751F4848D958D08
:10483000A68DB78D898B9A8BAB8BBC8B81E00CC01E
:10484000409751F59E012F5E3F4F898D9A8D0E94B2
:10485000A12F882309F184E08B83812F8F708983B6
:104860001C821D821E821F82188619861A861B864C
:1048700014FF18C0CE0140E050E060E070E00E94FC
:104880007B20882379F40AC049895A896B897C89FD
:10489000CE010E94511F02C01B8280E0DF91CF91A8
:1048A0001F91089515FDF0CF81E0F8CFDF92EF92D0
:1048B000FF920F931F93CF93DF938C01EB017A014B
:1048C000D22E898D9A8DF801928F818F83818823D2
:1048D00029F56115710559F521C0A70175E0440F4F
:1048E000551F7A95E1F760E070E0CE010E94511FFC
:1048F0008823A1F0CE010E948222FC01009771F072
:104900008081882359F0853E49F08E3239F06E2D32
:104910006F70C8014D2D0E94CD2301C080E0DF9152
:10492000CF911F910F91FF90EF90DF90089527FF97
:10493000D4CFF4CFAF92BF92CF92DF92EF92FF929B
:104940000F931F93DF93CF93CDB7DEB76B970FB65F
:10495000F894DEBF0FBECDBF8C0119821C8240E0EF
:1049600050E060E070E00E94511F5E010894A11CBD
:10497000B11C50C0C8010E948222FC01009709F4BA
:1049800064C08081882309F454C0853E09F442C084
:104990008E3209F43FC0838583FD3CC0A701960198
:1049A000F5E05695479537952795FA95D1F7790112
:1049B000C501B801A90121E00E945624882309F409
:1049C00044C08C81843021F4C5010E949A2406C021
:1049D0008A8182608A83C5010E9448218823A9F1C7
:1049E0000894E11CF11CE5E0EE0CFF1CEA95E1F7F0
:1049F000A70160E070E0F80180859185A285B3850C
:104A000084179507A607B70729F0C8010E94511F10
:104A10008823D9F0F801C084D184E284F3848189A9
:104A20009289A389B489C816D906EA06FB0608F458
:104A3000A1CFF80183818250823028F0C8010E9402
:104A4000BD22882311F011E001C010E0CE010196D3
:104A50000E947320812F6B960FB6F894DEBF0FBEB5
:104A6000CDBFCF91DF911F910F91FF90EF90DF901D
:104A7000CF90BF90AF9008957F928F929F92AF9208
:104A8000BF92CF92DF92EF92FF920F931F93DF932B
:104A9000CF93CDB7DEB7A0970FB6F894DEBF0FBEA9
:104AA000CDBF7C018B01742EB22E6E010894C11C07
:104AB000D11CC701B60140E250E00E9464218097FA
:104AC00009F0AAC08981882309F4A6C0853E89F32C
:104AD0008E3279F38C8583FDECCFFF240AC0D80198
:104AE000ED91FC910190F081E02DC80160E2099503
:104AF000F394FB14A0F35E010894A11CB11C750192
:104B0000DD24FCE08F2E912C8C0E9D1EF701808100
:104B10008032C9F08E2D8A19883051F4D801ED9178
:104B2000FC910190F081E02DC8016EE20995D394CB
:104B3000D801ED91FC910190F081E02DC801D701E1
:104B40006C910995D3940894E11CF11CE814F904C4
:104B5000E9F68C858871803151F4D801ED91FC9192
:104B60000190F081E02DC8016FE20995D394E72C04
:104B7000FF24C70183709070892B59F40DC0D801B0
:104B8000ED91FC910190F081E02DC80160E2099562
:104B9000D394BDE0BD1598F7E0FE1CC0D801ED919F
:104BA000FC910190F081E02DC80160E20995698DCA
:104BB0007A8DC8010E944323D801ED91FC910190A8
:104BC000F081E02DC80160E209956F89788DC801F8
:104BD0000E940D238C8588718031A1F0E1FE12C006
:104BE000D801ED91FC910190F081E02DC80160E2C7
:104BF00009954D8D5E8D6F8D78A1C8012AE030E05A
:104C00000E945835C8010E9494348C85887111F037
:104C100082E003C081E001C080E0A0960FB6F89466
:104C2000DEBF0FBECDBFCF91DF911F910F91FF90DF
:104C3000EF90DF90CF90BF90AF909F908F907F903C
:104C400008955F926F927F928F929F92AF92BF92E0
:104C5000CF92DF92EF92FF920F931F93DF93CF9348
:104C6000CDB7DEB76B970FB6F894DEBF0FBECDBFE2
:104C70007C013B01942E822E40E050E060E070E029
:104C80000E94511FC92CDD2484E0C822DD245E016E
:104C90000894A11CB11C02E0502E580C32C0823086
:104CA00084F1C114D10469F1F70180859185A28551
:104CB000B38515E0B695A795979587951A95D1F781
:104CC0008C0119821C82AC0141505040C501B701D2
:104CD00021E00E945624882331F0C501B301492DFB
:104CE000252D0E942126A5E0000F111FAA95E1F7AE
:104CF000A80160E070E0C7010E94511FC5010E9439
:104D00007320C701B301492D282D0E943C2588231B
:104D100031F66B960FB6F894DEBF0FBECDBFCF91C4
:104D2000DF911F910F91FF90EF90DF90CF90BF9098
:104D3000AF909F908F907F906F905F900895462FD7
:104D4000609101027091020220E00E9421260895E4
:104D5000CF93DF93EC019C012C5F3F4F898D9A8D9F
:104D600041E050E060E070E00E940D308823A1F047
:104D70008D899E89AF89B88D0097A105B10559F439
:104D80008C819D81AE81BF818D8B9E8BAF8BB88FC7
:104D900089818068898381E0DF91CF9108952F9286
:104DA0003F924F925F927F928F929F92AF92BF926B
:104DB000CF92DF92EF92FF920F931F93DF93CF93E7
:104DC00000D000D000D0CDB7DEB76C01162F072F72
:104DD0005E834D83DC0113968C911397813009F02B
:104DE0006EC111968C9181FF6AC187C1F60141891C
:104DF00052896389748980859185A285B3858417DA
:104E00009507A607B70731F0C6010E94511F8823F6
:104E100009F455C1812F902F9C0119014D805E80AE
:104E200012C1D6015996ED91FC915A97DA01C90148
:104E300049E0B695A795979587954A95D1F77480DF
:104E40007A9478228FEF882E81E0982E8222932206
:104E5000772009F052C08114910409F04EC0D601A8
:104E600014964D915D916D917C9117974115510567
:104E70006105710571F1CF019E012F5F3F4F0E94C7
:104E8000CD2E882309F41BC129813A814B815C8195
:104E9000D6015996ED91FC915A978789803149F452
:104EA000283FBFEF3B07B0E04B07B0E05B0748F09F
:104EB00019C0283FEFEF3E07EFEF4E07EFE05E0728
:104EC00088F4D60114962D933D934D935C931797D8
:104ED00014C0F60185899689A789B08D0097A10530
:104EE000B10531F4C6010E94A826882331F4E7C039
:104EF000F60184839583A683B78380E092E08819C6
:104F0000990952018415950508F45C01D60159965A
:104F1000ED91FC915A971496ED90FD900D911C9196
:104F200017978EEF9FEFAFEFBFEFE80EF91E0A1F46
:104F30001B1F058404C0EE0CFF1C001F111F0A94E8
:104F4000D2F786859785A089B189E80EF91E0A1FD8
:104F50001B1FE70CF11C011D111D90E0A91692E02A
:104F6000B90639F580913C0590913D05A0913E052B
:104F7000B0913F058E159F05A007B10771F41092FF
:104F800042078FEF9FEFAFEFBFEF80933C05909309
:104F90003D05A0933E05B0933F0580914007909159
:104FA0004107B801A70191010E949A1C8823B9F515
:104FB00086C08114910419F5D60118962D913D9162
:104FC0004D915C911B9751968D919D910D90BC9147
:104FD000A02D281739074A075B0788F00E94682C24
:104FE000882309F46CC081E080934207E0923C057D
:104FF000F0923D0500933E0510933F0508C0C8019F
:10500000B70141E00E94A32C882309F458C0940101
:10501000205C3A4FC901B101A5010E947F059501AD
:1050200040E050E0F60180859185A285B385820F2E
:10503000931FA41FB51F80879187A287B3872A0C6F
:105040003B1C4A185B08D60118962D913D914D9155
:105050005C911B974114510409F0E3CE51968D9158
:105060009D910D90BC91A02D82179307A407B507C1
:1050700048F4F601218B328B438B548B81818068FD
:10508000818311C08091360590913705892B59F0A5
:105090008D819E81892B39F0D60111968C911197C3
:1050A000806811968C93F601818183FF05C0C6014B
:1050B0000E941B20882319F04D815E8105C081E08C
:1050C000D6018C934FEF5FEFCA0126960FB6F89486
:1050D000DEBF0FBECDBFCF91DF911F910F91FF902B
:1050E000EF90DF90CF90BF90AF909F908F907F9088
:1050F0005F904F903F902F90089582FD77CE8ACE9B
:10510000DF92EF92FF920F931F93CF93DF93EC0107
:1051100089899A89AB89BC89805E9F4FAF41B04035
:1051200008F071C0CE010E94A826882309F46BC044
:105130000E94682C882309F466C0E98DFA8DEC8002
:10514000FD800E811F818EEF9FEFAFEFBFEFE80E66
:10515000F91E0A1F1B1F058404C0EE0CFF1C001F54
:10516000111F0A94D2F786859785A089B189E80E28
:10517000F91E0A1F1B1F81E080934207E0923C0545
:10518000F0923D0500933E0510933F0580E092E0CC
:10519000E0E4F5E0DF019C011D9221503040E1F791
:1051A000DD24D39411C0B801A7014D0D511D611D1F
:1051B000711D809140079091410720E435E00E94E5
:1051C0009A1C882301F1D394E98DFA8D8481D81635
:1051D00050F320E032E040E050E0058404C0220FAC
:1051E000331F441F551F0A94D2F789899A89AB89C6
:1051F000BC89820F931FA41FB51F898B9A8BAB8B21
:10520000BC8B81E001C080E0DF91CF911F910F91B5
:10521000FF90EF90DF9008958F929F92AF92BF9290
:10522000CF92DF92EF92FF920F931F93CF93DF9372
:105230006C01EB01942E852EA22E898D9A8DD601BC
:105240005A969C938E935997CB0140E050E060E0D2
:1052500070E00E94511FBB2438C0CE010E94822200
:10526000FC01009709F493C055E016950795F79453
:10527000E7945A95D1F71E2D1F708081882311F075
:10528000853EC9F4BB2099F420913C0530913D0541
:1052900040913E0550913F05D6011C962D933D93BC
:1052A0004D935C931F9750961C93BB24B3948081BD
:1052B000882359F418C0892D982DBF014BE050E088
:1052C0000E947205009709F470C0E884F9840A8589
:1052D0001B8589899A89AB89BC89E816F9060A0772
:1052E0001B0708F4BACFA6FE52C0A1FE50C0BB20D7
:1052F00051F0F6011089C60161E00E94FA1FEC012D
:10530000009769F444C08B81823009F440C0CE011B
:105310000E9480288823D9F110E0C0E4D5E080E223
:10532000DE011D928A95E9F7DE01292D382DC9018C
:10533000FC018BE001900D928150E1F7E091360580
:10534000F0913705309739F0BE01625F7F4FCE0193
:105350004096099508C081E298E2998B888B80E09D
:1053600098E09F878E87888999899B8B8A8B998FF4
:10537000888F8E859F859F8B8E8B0E94682C8823BB
:1053800031F0C601612F4A2D0E94CD2301C080E07B
:10539000DF91CF911F910F91FF90EF90DF90CF9011
:1053A000BF90AF909F908F900895A7FEEACFEFCF68
:1053B0002F923F924F925F926F927F928F929F9225
:1053C000AF92BF92CF92DF92EF92FF920F931F9313
:1053D000DF93CF93CDB7DEB7C654D0400FB6F89465
:1053E000DEBF0FBECDBF3C016B01DE01AE5BBF4F28
:1053F00011965C934E9325962FAF25971C861F869A
:105400001FA21AA66115710509F480C0FC018381F1
:10541000882309F07BC0FA0180818F32F1F0860188
:10542000ECE0EE2EF12CEC0EFD1E72E4A72EB12C5A
:10543000AC0EBD1E4E010894811C911C2796FFAE38
:10544000EEAE279767E2262E312C2C0E3D1E27014B
:1054500024C01196B183A08301C0FD01A081B18158
:105460008C918F32B1F3D60113968C9113978250A1
:105470008230A8F28E01095D1F4F59966D917C9183
:105480005A97C8010E947A23882351F63FC0342DD1
:10549000252D8701832F922F7C01F5018081918139
:1054A000B401A5010E94031F882329F42FC031965F
:1054B000D501ED93FC93D501ED91FC9180818F3264
:1054C000B1F38823C9F0C701B801A40121E00E940B
:1054D0000C298823D9F00C151D0519F0C8010E946C
:1054E00069202796EEADFFAD2797EE16FF0679F6F9
:1054F000C101322D292FCDCFC301B801A4012596BA
:105500002FAD25970E940C29182F01C010E0CE0165
:1055100087960E947320CE010C960E947320812FE3
:10552000CA5BDF4F0FB6F894DEBF0FBECDBFCF9181
:10553000DF911F910F91FF90EF90DF90CF90BF9080
:10554000AF909F908F907F906F905F904F903F9023
:105550002F900895EF92FF920F931F93DF93CF93B5
:10556000CDB7DEB7A0970FB6F894DEBF0FBECDBFA4
:105570008C017B01DB0113968C91823008F485C08D
:10558000C80123EC0E940C29882309F47EC081E025
:10559000F801818384E08383C8010E9480288823E6
:1055A00009F473C0C8010E941B20882309F46DC050
:1055B000C80161E00E94FA1FFC01009709F465C070
:1055C00080E18387DE01119680E201900D92815087
:1055D000E1F78EE28983FE01329620E2CE010C963D
:1055E0002193E817F907E1F7D8015996ED91FC915D
:1055F0005A9755966D917D918D919C9158976250D7
:10560000704080409040058404C0660F771F881F5B
:10561000991F0A94D2F72685378540895189620FF0
:10562000731F841F951F41E00E94A32C882369F1FA
:10563000A0E4B5E0FE01319680E201900D92815028
:10564000E1F78EE28A83F70183818250823028F469
:105650001C8E1B8E1E8A1D8A0CC0F70185899689B7
:10566000A789B08D9C8F8B8FCD01AA27BB279E8BDE
:105670008D8BA0E6B5E0FE01319680E201900D929F
:105680008150E1F70E94682C01C080E0A0960FB61F
:10569000F894DEBF0FBECDBFCF91DF911F910F9168
:1056A000FF90EF9008952F923F924F925F926F92EA
:1056B0007F928F929F92AF92BF92CF92DF92EF92A2
:1056C000FF920F931F93DF93CF93CDB7DEB7C654EE
:1056D000D0400FB6F894DEBF0FBECDBF3C016B01CA
:1056E000DE01AE5BBF4F11965C934E9325962FAFB4
:1056F00025971C861F861FA21AA66115710509F43D
:1057000086C0FC018381882309F081C0A4C0860182
:105710008CE0E82EF12CEC0EFD1EB2E4AB2EB12C89
:10572000AC0EBD1E4E010894811C911C2796FFAE45
:10573000EEAE2797A7E22A2E312C2C0E3D1E270114
:1057400024C01196B183A08301C0FD01A081B18165
:105750008C918F32B1F3D60113968C9113978250AE
:105760008230A8F28E01095D1F4F59966D917C9190
:105770005A97C8010E947A23882351F648C0342DD5
:10578000252D8701832F922F7C01F5018081918146
:10579000B401A5010E94031F882329F438C0319663
:1057A000D501ED93FC93D501ED91FC9180818F3271
:1057B000B1F3882329F1C701B801A40121E00E94B7
:1057C0000C29882361F42596BFAD2597BB23F9F0FA
:1057D000C701B801A4010E94AA2A8823C1F00C15B0
:1057E0001D0519F0C8010E9469202796EEADFFAD96
:1057F0002797EE16FF0619F6C101322D292FC1CFCA
:10580000C301B801A4010E94AA2A182F01C010E008
:10581000CE0187960E947320CE010C960E947320C1
:10582000812FCA5BDF4F0FB6F894DEBF0FBECDBF2E
:10583000CF91DF911F910F91FF90EF90DF90CF906C
:10584000BF90AF909F908F907F906F905F904F90A0
:105850003F902F900895ED91FC91119780818F32A8
:1058600009F055CF72CF8091C10085FDFCCF8091AA
:10587000C00085FFF8CF6093C60081E090E00895F6
:1058800010923B0510923A0587E192E0909339051A
:10589000809338050895DF93CF930F92CDB7DEB78D
:1058A00069830496BE016F5F7F4F41E050E00E9424
:1058B000CF2620E030E0019711F421E030E0C9016B
:1058C0000F90CF91DF91089504960E94CF260895FE
:1058D00080914207882399F140913C0550913D0504
:1058E00060913E0570913F0580914007909141077E
:1058F00020E435E00E949A1C882319F14091430767
:105900005091440760914507709146074115510534
:105910006105710591F0809140079091410720E465
:1059200035E00E949A1C882361F010924307109280
:10593000440710924507109246071092420781E0F3
:10594000089580E00895DF92EF92FF920F931F93E6
:105950007B018C01D42E80913C0590913D05A09156
:105960003E05B0913F058E159F05A007B107C1F018
:105970000E94682C8823E1F08091400790914107B4
:10598000B801A70120E435E00E94031E882381F0BE
:10599000E0923C05F0923D0500933E0510933F05D3
:1059A000DD2011F481E005C081E08093420701C051
:1059B00080E01F910F91FF90EF90DF9008958F92FC
:1059C0009F92AF92BF92CF92DF92EF92FF920F938E
:1059D0001F93CF93DF936C01142F70934107609353
:1059E0004007FC01178A82E090E0A0E0B0E08083ED
:1059F0009183A283B38310924207109243071092BF
:105A0000440710924507109246078FEF9FEFAFEFC4
:105A1000BFEF80933C0590933D05A0933E05B09366
:105A20003F05442321F488249924540140C0453083
:105A300008F01EC160E070E080E090E040E00E946D
:105A4000A32C882309F414C1C12FD0E02197FE01B3
:105A500074E0EE0FFF1F7A95E1F7E05CFA4FE25435
:105A6000FE4F8081EE5BF14090E08F779070892B44
:105A700009F0FEC0E653FE4F80819181A281B3817F
:105A800084369105A105B10508F4F2C064E0CC0F9D
:105A9000DD1F6A95E1F7CA5FD84F88809980AA8098
:105AA000BB8081149104A104B10409F4E1C0C501D3
:105AB000B40140E00E94A32C882309F4D9C080914E
:105AC0004B0590914C058050924009F0D1C0209137
:105AD0005005222309F4CCC080914E0590914F05CA
