:100000000C949D040C94C5040C94C5040C94C50474
:100010000C94C5040C94C5040C94C5040C94C5043C
:100020000C94C5040C94C5040C94C5040C94C5042C
:100030000C94C5040C94C5040C94C5040C94C5041C
:100040000C942F330C94C5040C944B320C949132C5
:100050000C94C5040C94C5040C94C5040C94C504FC
:100060000C94C5040C94C50452656D6F76652066CA
:1000700061696C65643A200045786974696E67004F
:100080000A0D4E756D626572206F6620657363613F
:1000900070652063686172616374657273206E6558
:1000A000656465643A20000A0D456E746572206EC1
:1000B000756D626572206F6620657363617065207F
:1000C0006368617261637465727320746F206C6F12
:1000D0006F6B20666F7220283120746F2039293AA7
:1000E00020000A0D4E65772065736361706520639B
:1000F00068617261637465723A2000456E7465725E
:100100002061206E65772065736361706520636888
:10011000617261637465723A20004E65772066698A
:100120006C65206E756D62657220726573657420F2
:10013000746F207A65726F00436F6D6D616E64201D
:1001400070726F6D707400417070656E64206669C6
:100150006C65206C6F6767696E67004E6577206617
:10016000696C65206C6F6767696E67003E0078296F
:100170002045786974003629204E756D62657220BD
:100180006F66206573636170652063686172616387
:1001900074657273003529204E657720657363613D
:1001A0007065206368617261637465720034292030
:1001B0005265736574206E65772066696C65206E84
:1001C000756D62657200332920436F6D6D616E64D9
:1001D0002070726F6D707400322920417070656EEE
:1001E000642066696C65206C6F6767696E670031B3
:1001F00029204E65772066696C65206C6F6767699A
:100200006E67004368616E676520746F3A002078FE
:10021000200043757272656E74206573636170654A
:100220002063686172616374657220616E6420612D
:100230006D6F756E743A2000436F6D6D616E640072
:10024000417070656E642066696C65004E6577204C
:1002500066696C650043757272656E7420626F6FBB
:1002600074206D6F64653A20000D0A5379737465CC
:100270006D20436F6E66696775726174696F6E0099
:1002800062707300476F696E6720746F20004F754E
:1002900074206F6620626F756E64730045786974B0
:1002A000696E67003E00456E746572206E6577204A
:1002B0006261756420726174652028277827207434
:1002C0006F2065786974293A0020627073000A0D06
:1002D00043757272656E7420726174653A200062B3
:1002E0006175640909093A204D656E7520746F20A7
:1002F000636F6E66696775726520626175642072EE
:10030000617465007365740909093A204D656E755D
:1003100020746F20636F6E666967757265207379EC
:100320007374656D206D6F64650072657365740923
:1003300009093A2043617573657320756E697420ED
:10034000746F2072657365742C20757365732070EB
:100350006172616D657465727320696E20636F6E82
:100360006669672066696C65006469736B090909D1
:100370003A2053686F7773206361726420696E66F8
:100380006F726D6174696F6E0073697A65203C6687
:10039000696C653E09093A20577269746520736972
:1003A0007A65206F66203C66696C653E20746F201C
:1003B0007465726D696E616C0072656164203C6683
:1003C000696C653E203C73746172743E203C6C65C0
:1003D0006E6774683E203C747970653E3A204F75B4
:1003E0007470757473203C6C656E6774683E20622F
:1003F00079746573206F66203C66696C653E207475
:100400006F20746865207465726D696E616C20730D
:1004100074617274696E67206174203C73746172D8
:10042000743E2E204F6D6974203C73746172743E6B
:1004300020616E64203C6C656E6774683E20746F4A
:1004400020726561642077686F6C652066696C65F1
:100450002E203C747970653E2031207072696E7474
:100460007320696E2041534349492C203220696E24
:10047000204845582E006C730909093A2053686FCB
:1004800077732074686520636F6E74656E74206F77
:1004900066207468652063757272656E7420646985
:1004A000726563746F72792E2E006D64203C6469EE
:1004B000726563746F72793E09093A20437265610F
:1004C0007465732061203C6469726563746F72792E
:1004D0003E00617070656E64203C66696C653E0923
:1004E000093A20417070656E6473207465787420D9
:1004F000746F20656E64206F66203C66696C653E93
:10050000006E6577203C66696C653E09093A2043B8
:10051000726561746573203C66696C653E0042617A
:1005200073696320636F6D6D616E64733A004F7021
:10053000656E4C6F672076332E32310064697265C8
:1005400063746F7279206E6F7420666F756E643A93
:10055000200063616E6E6F7420636420746F20707E
:100560006172656E74206469726563746F72793A42
:1005700020002E2E002000756E6B6E6F776E20634C
:100580006F6D6D616E643A20006F6666006F6E007D
:1005900065656D006F6666006F6E00766572626FEE
:1005A0007365006F6666006F6E006563686F005C60
:1005B000002E5C0070776400617070656E640045A9
:1005C00072726F72206372656174696E672066690A
:1005D0006C653A20006E6577007265736574007310
:1005E000796E6300204B4200436172642053697A44
:1005F000653A200072656164435344206661696C0A
:100600006564002F004D616E756661637475726973
:100610006E6720646174653A200053657269616C8D
:10062000206E756D6265723A20002E000A0D5665C7
:100630007273696F6E3A200050726F647563743A1A
:1006400020004F454D2049443A20004D616E7566AB
:10065000616374757265722049443A200072656165
:1006600064434944206661696C656400556E6B6E35
:100670006F776E0053444843005344320053443173
:10068000000A4361726420747970653A20006469DD
:10069000736B002D310073697A65006572726F7239
:1006A0002077726974696E6720746F2066696C6563
:1006B0000A0D003C004572726F72207365656B69AC
:1006C0006E6720746F20004661696C656420746FEA
:1006D000206F70656E2066696C65200077726974A2
:1006E000650020002E004572726F72207365656B85
:1006F000696E6720746F20004661696C65642074C0
:100700006F206F70656E2066696C65200072656190
:1007100064006364002066696C6528732920646541
:100720006C65746564002D726600726D006572728E
:100730006F72206372656174696E672064697265A7
:1007400063746F72793A20006D6400566F6C756D3A
:100750006520697320464154006C73007365740012
:10076000626175640068656C70003F0046696C6585
:100770002073797374656D20696E697469616C6941
:100780007A656400436C6F73696E6720646F776E7F
:100790002066696C652073797374656D00696E6994
:1007A00074003E002100626175642C6573636170A2
:1007B000652C657363232C6D6F64652C766572629E
:1007C0002C6563686F2C69676E6F72655258000004
:1007D0006572726F722077726974696E6720746FC8
:1007E0002066696C6500256C642C25642C25642CBE
:1007F00025642C25642C25642C2564000043726537
:1008000061746520636F6E666967206661696C65F7
:10081000640052656D6F766520636F6E6669672050
:100820006661696C656400636F6E6669672E7478D3
:100830007400636F6E6669672E747874007E003C86
:10084000004572726F72206372656174696E672011
:100850005345514C4F470A005345514C4F47303098
:100860002E5458540021546F6F206D616E79206CA6
:100870006F67733A3221004C4F47253035642E5450
:1008800058540021546F6F206D616E79206C6F6732
:10089000733A3121003200310066696C652E6F7049
:1008A000656E00726F6F742E696E697400766F6C7E
:1008B000756D652E696E697400636172642E696E70
:1008C0006974004572726F7220007C3C3E5E2B3D65
:1008D0003F2F5B5D3B2C2A225C00000000002400BF
:1008E00027002A0000000000250028002B0000003F
:1008F0000000230026002900040404040404040466
:1009000002020202020203030303030301020408BA
:100910001020408001020408102001020408102069
:1009200000000007000201000003040600000000B0
:10093000000000004009032D390911241FBECFEF2C
:10094000D8E0DEBFCDBF11E0A0E0B1E0E4E2FFE619
:1009500002C005900D92A432B107D9F716E0A4E2C7
:10096000B1E001C01D92AE3FB107E1F719E0C8E365
:10097000D9E004C02297FE010E944A37C433D10750
:10098000C9F70E940E350C9485370C940000FC01C9
:1009900088279927E89421912032E9F3293010F033
:1009A0002E30C8F32B3241F02D3239F4689404C054
:1009B0000E943405820F911D219120532A30C0F3EB
:1009C0001EF4909581959F4F0895FB01DC018D9158
:1009D000059080190110D9F3990B0895FB01DC01F2
:1009E00005900D920020E1F70895FC01059000208C
:1009F000E9F7809590958E0F9F1F0895FB01DC010C
:100A000004C08D910190801921F441505040C8F7E5
:100A1000881B990B0895FB01DC0102C001900D9227
:100A200041505040D8F70895DC0101C06D9341500A
:100A30005040E0F70895FB01DC014150504048F080
:100A400001900D920020C9F701C01D924150504005
:100A5000E0F70895DC016C9161566A3108F0605E40
:100A60006F5B6D93C1F708957AE0979F902D879FF4
:100A7000802D910D11240895AEE0B0E0E2E4F5E0A0
:100A80000C945C370D891E898EE08C831A83098350
:100A90008FEF9FE79E838D839E01275E3F4FCE01A0
:100AA00001966F89788DA9010E9460052F81388594
:100AB000020F131FF80110822E96E4E00C94783791
:100AC000ABE0B0E0E6E6F5E00C944E373C012B01DC
:100AD0005A01FC0117821682838181FD03C06FEFEA
:100AE0007FEFC6C19AE0892E1E010894211C311C9B
:100AF000F3012381F20123FD859123FF81912F01D1
:100B0000882309F4B2C1853239F423FD859123FF8E
:100B100081912F01853229F490E0B3010E9453079F
:100B2000E7CF982FFF24EE249924FFE1FF15D0F0A2
:100B30009B3269F09C3228F4903259F0933291F450
:100B40000EC09D3249F0903369F441E024C052E078
:100B5000F52A84E0F82A28C098E0F92A25C0E0E1C7
:100B6000FE2A22C0F7FC29C0892F80538A3070F4F6
:100B7000F6FE05C0989C902C1124980E15C0E89C98
:100B8000E02C1124E80EF0E2FF2A0EC09E3229F478
:100B9000F6FC6BC140E4F42A07C09C3619F450E817
:100BA000F52A02C0983649F4F20123FD959123FFFE
:100BB00091912F01992309F0B8CF892F8554833063
:100BC00018F08052833038F444E050E0A40EB51E93
:100BD0005FE359830FC0933631F0933779F0933543
:100BE00009F056C020C0F5018081898342E050E0C1
:100BF000A40EB51E610101E010E012C0F501C08035
:100C0000D180F6FC03C06FEF7FEF02C0692D70E06A
:100C100042E050E0A40EB51EC6010E9448078C01B8
:100C20005FE7F52214C0F501C080D180F6FC03C057
:100C30006FEF7FEF02C0692D70E042E050E0A40E3C
:100C4000B51EC6010E943D078C0150E8F52AF3FE4F
:100C500007C01AC080E290E0B3010E945307EA94F3
:100C60008E2D90E008171907A8F30EC0F601F7FCC7
:100C70008591F7FE81916F0190E0B3010E945307C7
:100C8000E110EA94015010400115110579F7EAC00E
:100C9000943611F0993669F5F7FE08C0F501208108
:100CA00031814281538184E090E00AC0F501808166
:100CB00091819C01442737FD4095542F82E090E0BC
:100CC000A80EB91E9FE6F92257FF09C0509540951E
:100CD000309521953F4F4F4F5F4FE0E8FE2ACA0104
:100CE000B901A1012AE030E00E947F07D82ED21876
:100CF00040C0953729F41F2D1F7E2AE030E01DC02B
:100D00001F2D197F9F3661F0903720F4983509F038
:100D1000ACC00FC0903739F0983709F0A6C004C0B6
:100D200028E030E00AC0106114FD146020E130E0DA
:100D300004C014FD166020E132E017FF08C0F50181
:100D4000608171818281938144E050E008C0F501A7
:100D500080819181BC0180E090E042E050E0A40EEF
:100D6000B51EA1010E947F07D82ED2188FE7F82E5A
:100D7000F122F6FE0BC05EEFF522D91438F4F4FE32
:100D800007C0F2FC05C08FEEF82202C01D2D01C085
:100D9000192DF4FE0DC0FE01ED0DF11D8081803393
:100DA00019F499EEF92208C01F5FF2FE05C003C0D6
:100DB0008F2D867809F01F5F0F2DF3FC14C0F0FE15
:100DC0000FC01E1510F09D2C0BC09D2C9E0C911A6F
:100DD0001E2D06C080E290E0B3010E9453071F5F02
:100DE0001E15C0F304C01E1510F4E11A01C0EE2454
:100DF00004FF0FC080E390E0B3010E94530702FF9D
:100E00001DC001FD03C088E790E00EC088E590E0BA
:100E10000BC0802F867891F001FF02C08BE201C0E9
:100E200080E2F7FC8DE290E0B3010E94530706C018
:100E300080E390E0B3010E9453079A94D914C0F361
:100E4000DA94F101ED0DF11D808190E0B3010E9473
:100E50005307DD20A9F706C080E290E0B3010E94AD
:100E60005307EA94EE20C1F743CEF3016681778100
:100E7000CB012B96E2E10C946A37FC01059061509E
:100E800070400110D8F7809590958E0F9F1F0895A0
:100E9000FC016150704001900110D8F78095909549
:100EA0008E0F9F1F08950F931F93CF93DF938C0195
:100EB000EB018B8181FF1BC082FF0DC02E813F8122
:100EC0008C819D812817390764F4E881F9810193A9
:100ED000F983E88306C0E885F985802F0995892B79
:100EE00031F48E819F8101969F838E8302C00FEF24
:100EF0001FEFC801DF91CF911F910F910895FA0163
:100F0000AA27283051F1203181F1E8946F936E7F48
:100F10006E5F7F4F8F4F9F4FAF4FB1E03ED0B4E039
:100F20003CD0670F781F891F9A1FA11D680F791F7A
:100F30008A1F911DA11D6A0F711D811D911DA11D8B
:100F400020D009F468943F912AE0269F112430199B
:100F5000305D3193DEF6CF010895462F4770405D36
:100F60004193B3E00FD0C9F7F6CF462F4F70405DE5
:100F70004A3318F0495D31FD4052419302D0A9F740
:100F8000EACFB4E0A6959795879577956795BA953A
:100F9000C9F700976105710508959B01AC010A2E00
:100FA00006945795479537952795BA95C9F7620FD7
:100FB000731F841F951FA01D0895FC01DB0108C04D
:100FC000891721F08F3311F080E008953196119642
:100FD0009C919923F1F080818A3291F71AC0808127
:100FE0008A3259F431968081882311F481E0089582
:100FF0009D012F5F3F4FAF0110C0891711F08F3354
:1010000019F43196119609C0FA01D9012F5F3F4FAB
:1010100004C020E030E040E050E09C919923F9F6D4
:1010200001C0319690819A32E1F380E0992309F46E
:1010300081E00895EF92FF920F931F937A018B0145
:101040001092C1002E732093C200403081EE5807E9
:1010500080E0680780E0780729F41092C00020E162
:1010600030E013C082E08093C00060E079E08DE35F
:1010700090E0A80197010E9426372150304040405F
:10108000504056954795379527953093C500209346
:10109000C40088E98093C1001F910F91FF90EF90E9
:1010A00008958091C00085FFFCCF6093C60081E069
:1010B00090E008950F931F938C01DC01ED91FC915A
:1010C0000190F081E02D6DE00995D801ED91FC9142
:1010D0000190F081E02DC8016AE0099582E090E07E
:1010E0001F910F910895CF92DF92EF92FF920F938D
:1010F0001F93CF93DF937C016B018A01C0E0D0E0A6
:101100000EC0F601EC0FFD1F4491F701A081B181E3
:101110002D913C91C701642FF90109952196C017C3
:10112000D10778F3C801DF91CF911F910F91FF9004
:10113000EF90DF90CF900895CF92DF92EF92FF92E1
:101140000F931F93CF93DF937C016B018A01C0E063
:10115000D0E00DC0D701ED91FC91D601AC0FBD1FC1
:101160000190F081E02DC7016C9109952196C0177F
:10117000D10780F3C801DF91CF911F910F91FF90AC
:10118000EF90DF90CF900895089584EE96E00E944E
:1011900034320895DF93CF930F92CDB7DEB784EE4C
:1011A00096E0BE016F5F7F4F0E94FD31882319F4E6
:1011B0002FEF3FEF03C08981282F30E0C9010F9046
:1011C000CF91DF91089584EE96E00E94EB3108956F
:1011D000FC0180E291E0918380838781882321F064
:1011E000CF0104960E94BC22089581309105B9F583
:1011F0006F5F7F4FE9F5109227011092260188EE6C
:1012000093E0A0E0B0E08093280190932901A0939F
:101210002A01B0932B0188E091E0909325018093FF
:10122000240184EE96E060E371E04DE053E00E941B
:10123000283289E18093590410925C04109274045E
:1012400010927F041092820410927E0410927D040A
:1012500080E291E090937C0480937B040895892B35
:1012600039F46F5F7F4F21F48BE794E00E94E80828
:10127000089580E090E06FEF7FEF0E94F5080895F9
:1012800081E090E06FEF7FEF0E94F50808956F9284
:101290007F928F929F92AF92BF92CF92DF92EF9206
:1012A000FF920F931F93DF93CF93CDB7DEB7AC9729
:1012B0000FB6F894DEBF0FBECDBF7C015B01642E7C
:1012C000722E1A8A1D8A198A188A80E291E09F87F5
:1012D0008E8774E0C72ED12CCE0CDF1C8E010E5EE3
:1012E0001F4F4E010894811C911C17C0C801B40106
:1012F0000E94CE22882371F08D89823008F074C05C
:10130000813041F4C501B4010E94DD07882311F04A
:1013100001E06BC0C8010E94BC22E114F10419F481
:1013200060E070E001C0B601C80141E00E944126C2
:101330008823E1F600E03EC084E291E060E20E9492
:1013400051081F5F1715C0F384E291E0BE016F5F83
:101350007F4F0E94F036182F8D89843031F484E25B
:1013600091E06FE20E945108180F8D898130D1F40D
:1013700061FE18C006C084E291E060E20E9451085C
:101380001F5F1E30C0F384E291E060E20E945108CA
:101390004BA15CA16DA17EA184E291E02AE030E046
:1013A0000E943E3684E291E00E945A08CE014296A5
:1013B0000E94BC22CE010E960E94E808802FAC96B7
:1013C0000FB6F894DEBF0FBECDBFCF91DF911F9156
:1013D0000F91FF90EF90DF90CF90BF90AF909F90D4
:1013E0008F907F906F90089502E010E0ABCF3F9216
:1013F0004F925F926F927F928F929F92AF92BF9225
:10140000CF92DF92EF92FF920F931F93DF93CF93D0
:10141000CDB7DEB76F970FB6F894DEBF0FBECDBF66
:101420008C014B01D42EC22E1D8218861C821B8279
:1014300080E291E09A838983B4E0AB2EB12CA00EB8
:10144000B11EC50140E050E060E070E00E94A421C0
:10145000ED2CFF2484E0E822FF24A5E06A2E712C05
:101460006C0E7D1EF2E03F2E3C0C2E010894411CB8
:10147000511C38C08230B1F5E114F10499F180912A
:10148000C204823078F5F80184859585A685B785F4
:101490000115110511F0B50102C060E070E0E5E052
:1014A000B695A79597958795EA95D1F7AC014150E8
:1014B0005040C30121E00E948526882399F0809145
:1014C000C2048F5F8093C204C201B4014D2D232D4D
:1014D0000E94F7098091C20481508093C204C30125
:1014E0000E94BC22C801B4014D2D2C2D0E94470939
:1014F000882309F0BFCFCE0101960E94E8086F96BD
:101500000FB6F894DEBF0FBECDBFCF91DF911F9114
:101510000F91FF90EF90DF90CF90BF90AF909F9092
:101520008F907F906F905F904F903F900895CF93F2
:10153000DF93EC018FE0E3ECF4E0DF011D928A958C
:10154000E9F750E041E0A62FB0E039C0242F30E0A9
:10155000FE01E20FF31F8081803229F02F5F3F4FA1
:101560002A173B0759F5842F90E001968A179B07AD
:1015700009F4462FE3ECF4E020E080819181892B8F
:1015800019F0828181112F5F339684E0E23DF807E4
:10159000A1F7253088F4822F90E0FC01EE0FFF1FA9
:1015A000E80FF91FED53FB4FCE01850F911D91837D
:1015B0008083842F851B82834F5F542F4F5F461794
:1015C00028F2E3ECF4E020E080819181892B19F08E
:1015D000828181112F5F3396A4E0E23DFA07A1F7E3
:1015E000822FDF91CF910895982F8EE1E4EAF4E005
:1015F000DF011D928A95E9F79530E8F4892F90E094
:10160000FC01EE0FFF1FE80FF91FED53FB4F608148
:1016100071816115710579F04281442361F04F3188
:1016200018F04EE150E001C050E084EA94E00E94DE
:101630001B059C0102C020E030E0C90108958F9293
:101640009F92AF92BF92CF92DF92EF92FF920F9351
:101650001F9364EF862E66E0962EC40169E070E069
:101660000E941C33A82EC4016AE070E00E941C3363
:10167000E82EC4016BE070E00E941C33FF2400E000
:1016800010E0102F0F2DFE2CEE2490E0A0E0B0E033
:10169000E82AF92A0A2B1B2BBB24CC24DD24650164
:1016A000BB24AA24EA28FB280C291D29B701C8015C
:1016B0001F910F91FF90EF90DF90CF90BF90AF9070
:1016C0009F908F9008950F931F9304E211E0C8013B
:1016D0006EE275E00E949235C8016EE175E00E94ED
:1016E0009235C80161E075E00E949235C80162ED53
:1016F00074E00E949235C8016AEA74E00E94923553
:10170000C80166E774E00E949235C80169EB73E096
:101710000E949235C80169E873E00E949235C801C1
:1017200069E673E00E949235C8016AE273E00E94A4
:101730009235C80164E073E00E949235C8016FEDF4
:1017400072E00E9492351F910F910895CF92DF921F
:10175000EF92FF920F931F937B018C01E4EFCE2E4B
:10176000E6E0DE2EC60169E070E0402F0E942333E0
:10177000552717FD5A95412F302F2F2DC6016AE0AE
:1017800070E0422F0E942333C6016BE070E04E2DC3
:101790000E9423331F910F91FF90EF90DF90CF9025
:1017A00008951F930E941F0B60939A0470939B04EB
:1017B00080939C0490939D046C52714080409040B3
:1017C000655171448F40904090F080E895E2A0E030
:1017D000B0E080939A0490939B04A0939C04B093F0
:1017E0009D0460E875E280E090E00E94A60B84EF23
:1017F00096E062E070E00E941C3380939E04863085
:1018000048F010929E0484EF96E062E070E040E0C1
:101810000E94233384EF96E065E070E00E941C3361
:1018200080939F0481508E3F50F08AE180939F0403
:1018300084EF96E065E070E04AE10E94233384EF94
:1018400096E066E070E00E941C338093A004815013
:101850008E3F50F083E08093A00484EF96E066E032
:1018600070E043E00E94233384EF96E067E070E08D
:101870000E941C3311E01093A10484EF96E067E00E
:1018800070E041E00E94233384EF96E068E070E06E
:101890000E941C331093A20484EF96E068E070E08D
:1018A00041E00E9423338091A10490910301813093
:1018B00011F4926001C09D7F909303018091A20476
:1018C00090910301813011F4916001C09E7F90934B
:1018D000030184EF96E06CE070E00E941C3380937B
:1018E000A304823048F01092A30484EF96E06CE0E9
:1018F00070E040E00E9423331F9108950F931F93DF
:1019000060E875E280E090E00E94A60B04EF16E02C
:10191000C80162E070E040E00E942333C80165E046
:1019200070E04AE10E942333C80166E070E043E0C2
:101930000E942333C80167E070E041E00E94233336
:10194000C80168E070E041E00E942333C8016CE008
:1019500070E040E00E9423331F910F910895CF92D1
:10196000DF92EF92FF920F931F93CF93DF93EC01DF
:10197000D62E60E070E04D2D50E00E94140500E08E
:10198000ED2CFF240894E108F108F0E2CF2E45C0C9
:1019900084EE96E00E94EB31892BD1F384E291E052
:1019A0000E94CA08182F8BB18C258BB9183011F002
:1019B0001F37C1F4002389F10150FE01E00FF11D32
:1019C000108284E291E068E00E946A3584E291E04E
:1019D00065E775E00E94473584E291E068E00E9487
:1019E0006A351BC08091030180FF05C084E291E04D
:1019F000612F0E946A351D3049F484E291E00E9413
:101A00007235FE01E00FF11D10820DC01A3029F071
:101A1000FE01E00FF11D10830F5F802F90E08E1507
:101A20009F050CF4B5CFCE016D2D0E94970A802F33
:101A3000DF91CF911F910F91FF90EF90DF90CF90AA
:101A40000895EF92FF920F931F938C01F62EE72ECD
:101A5000862F972F0E94F504AC01C8016F2D7E2DB3
:101A60000E9473081F910F91FF90EF900895AF921D
:101A7000BF92CF92DF92EF92FF920F931F93DF936B
:101A8000CF93CDB7DEB7AC970FB6F894DEBF0FBEDD
:101A9000CDBF1A8A1D8A198A188A80E291E09F8731
:101AA0008E8784EF96E063E070E00E941C33182F6D
:101AB00084EF96E064E070E00E941C33282F1F3F03
:101AC00099F48F3F89F484EF96E063E070E040E0A2
:101AD0000E94233384EF96E064E070E040E00E94CF
:101AE0002333EE24FF2410C0922F80E0E12EFF2448
:101AF000E82AF92A8EEFE8168FEFF80629F484E237
:101B000091E063E878E053C06E010894C11CD11CD9
:101B1000A7E7AA2EA8E0BA2E8E010E5E1F4F00D0B6
:101B200000D000D0EDB7FEB73196ADB7BEB7129674
:101B3000DC92CE921197B382A282F582E4820E9457
:101B40003C058DB79EB706960FB6F8949EBF0FBEA4
:101B50008DBFC8016FE774E0A60122EC0E949B2AAA
:101B6000882351F5C8016FE774E0A60121E00E94C7
:101B70009B2A882379F08BA19CA1ADA1BEA10097DF
:101B8000A105B10521F4C8010E94BC2232C0C801E0
:101B90000E94BC220894E11CF11C9EEFE9169FEF05
:101BA000F90608F4BCCF84E291E065E678E00E9493
:101BB000473500E010E01EC0C8010E94BC2284EF3F
:101BC00096E063E070E04E2D0E94233384EF96E0B0
:101BD00064E070E00E941C336E010894C11CD11CAB
:101BE0008F1539F084EF96E064E070E04F2D0E948D
:101BF00023338601CE010E960E94E808C801AC96F8
:101C00000FB6F894DEBF0FBECDBFCF91DF911F910D
:101C10000F91FF90EF90DF90CF90BF90AF9008951D
:101C20000F931F93CF93DF93C0E0D0E0082F10E015
:101C300015C085E061E00E94673468EC70E080E0E8
:101C400090E00E94C03385E060E00E94673468EC59
:101C500070E080E090E00E94C0332196C017D10769
:101C600044F360ED77E080E090E00E94C033C0E094
:101C7000D0E0F4CF1F93182F84E291E063EC78E07A
:101C80000E944735173079F0183018F41630F1F407
:101C900005C0183069F01930C9F40FC084E291E032
:101CA00069EB78E00EC084E291E06DEA78E009C06B
:101CB00084E291E063EA78E004C084E291E069E9BB
:101CC00078E00E94473583E00E94100E1F9108952E
:101CD000AF92BF92CF92DF92EF92FF920F931F933A
:101CE000DF93CF93CDB7DEB76F970FB6F894DEBF13
:101CF0000FBECDBF5C011D8218861C821B8280E254
:101D000091E09A838983C50162E775E00E94E5044A
:101D1000892B09F06FC08FE794E00E94BC228FE707
:101D200094E06DE574E00E946525882319F488E04D
:101D30000E943A0E80914004882339F080914C042F
:101D4000882311F08FEF01C081E0E82EEA94E7FECE
:101D500003C0FF24F39440C0FF24F39400E010E09C
:101D600095E0C92ED12CCC0EDD1E27C0A801440F52
:101D7000551F400F511F440F551F440F551F405C06
:101D80005B4FC6016FE774E021E00E949B2AF82EAA
:101D90000F5F1F4F882399F0AFE7B4E0F6018BE1A6
:101DA00001900D928150E1F78B819C8190937E048C
:101DB00080937D04C6010E94BC220E15BCF28CE00B
:101DC0002E2D2802C0011124805C9B4FFC018BE06A
:101DD000DF011D928A95E9F78091030181FF4BC0D5
:101DE000FF2019F0FF24F39446C084E291E062E5FD
:101DF00075E015C08E010B5F1F4FC8016FE774E0DF
:101E0000A50121E00E949B2AF82E882381F480916D
:101E1000030181FF30C084E291E06CE375E00E9431
:101E2000473584E291E0B5010E94F33624C0AFE764
:101E3000B4E0F8018BE101900D928150E1F78B81C4
:101E40009C8190937E0480937D048091400488233C
:101E500011F490E005C080914C04882361F491E076
:101E60008CE09802C0011124805C9B4FB5014BE0CF
:101E700050E00E941B05CE0101960E94E8088F2DBC
:101E80006F960FB6F894DEBF0FBECDBFCF91DF9136
:101E90001F910F91FF90EF90DF90CF90BF90AF9088
:101EA00008954F925F927F928F929F92AF92BF92CE
:101EB000CF92DF92EF92FF920F931F93DF93CF9316
:101EC000CDB7DEB7C758D0400FB6F894DEBF0FBE0F
:101ED000CDBF1DA218A61CA21BA280E291E09AA36E
:101EE00089A3FE01EC5BFF4F1082FE01E95BFF4F0F
:101EF0001082FE01EE5BFF4F11821082FE01E05C5A
:101F0000FF4F91838083CE0185966DE574E00E943A
:101F10006525882319F488E00E943A0E8E010F5F30
:101F20001F4FC80167E278E00E94EE0464E4A62E29
:101F3000B12CAC0EBD1E55E2852E912C8C0E9D1E33
:101F4000C501B401A80122E00E949B2A882381F0E8
:101F5000C5010E94B823882359F484E291E062E12C
:101F600078E00E949235C5010E94BC22C40121C0C4
:101F700040E4442E512C4C0E5D1E82010C5F1F4F1D
:101F800035E2A32EB12CAC0EBD1EC801B501AE01C9
:101F90004F5F5F4F26E40E949B2A882381F484E2EE
:101FA00091E06DEF77E00E949235C8010E94BC225B
:101FB000C5010E94BC22CE01805C9F4F9FC00E9441
:101FC0001F0B6B017C0184EF96E065E070E00E94DE
:101FD0001C33782E84EF96E066E070E00E941C339C
:101FE000882E84EF96E062E070E00E941C33982E09
:101FF00084EF96E067E070E00E941C33A82E84EF27
:1020000096E068E070E00E941C33B82E84EF96E002
:102010006CE070E00E941C332DB73EB72451304075
:102020000FB6F8943EBF0FBE2DBFEDB7FEB7319689
:102030008E01055F1F4FADB7BEB712961C930E936E
:10204000119726EE37E033832283C482D582E6825D
:10205000F782708611868286138694861586A686F8
:102060001786B08A118A828B138A0E943C05F80178
:1020700001900020E9F73197E01BF10B2DB73EB737
:102080002C5E3F4F0FB6F8943EBF0FBE2DBFC2016E
:10209000B801AF010E94332DF80101900020E9F74B
:1020A0003197E01BF10B8E179F0731F084E291E02E
:1020B00060ED77E00E94923520E4E22EF12CEC0EE8
:1020C000FD1EC7010E9472358E01015A1F4FC801C3
:1020D00066EA77E00E94EE04C701B8010E940E2D67
:1020E00087010C5F1F4FC8010E946E22C8010E9429
:1020F000BC22CE0185960E94BC22C7010E94E8083E
:10210000CE0181960E94E808C957DF4F0FB6F894B8
:10211000DEBF0FBECDBFCF91DF911F910F91FF901A
:10212000EF90DF90CF90BF90AF909F908F907F9077
:102130005F904F9008951F9384EF96E062E070E007
:102140000E941C33182F84E291E069E672E00E943D
:10215000923584E291E065E572E00E9447351123F3
:1021600029F484E291E06CE472E00DC0113029F4AE
:1021700084E291E060E472E006C0123031F484E25F
:1021800091E068E372E00E94473584E291E00E94AA
:10219000723584E291E062E172E00E94473584E2A8
:1021A00091E060919F044AE050E00E94613684E231
:1021B00091E06EE072E00E94473584E291E0609128
:1021C000A0044AE050E00E94733684E291E063E0AC
:1021D00072E00E94923584E291E06FEE71E00E941D
:1021E000923584E291E068ED71E00E94923584E2DC
:1021F00091E066EC71E00E94923584E291E06DEA34
:1022000071E00E94923584E291E065E971E00E94FC
:10221000923584E291E066E771E00E94923584E2B3
:1022200091E06EE671E00E94923584E291E06CE606
:1022300071E00E94473584EE96E00E94EB31892BD5
:10224000D1F384E291E00E94CA08813361F484E210
:1022500091E06BE571E00E94923584EF96E062E0D8
:1022600070E040E00DC0823381F484E291E067E4E5
:1022700071E00E94923584EF96E062E070E041E008
:102280000E9423330E94510F89C0833361F484E29A
:1022900091E068E371E00E94923584EF96E062E09D
:1022A00070E042E0EDCF8433A9F484E291E06AE18A
:1022B00071E00E94923584EF96E063E070E040E0C8
:1022C0000E94233384EF96E064E070E040E00E94D7
:1022D000233364C0853331F584E291E06BEF70E025
:1022E0000E94473584EE96E00E94EB31892BD1F3B2
:1022F00084E291E00E94CA08482F80939F0484EFF3
:1023000096E065E070E00E9423330E94510F84E262
:1023100091E062EE70E00E94473584E291E06091C6
:102320009F042EC0863389F54AE012C084E291E012
:1023300067EA70E00E94473584EE96E00E94EB3138
:10234000892BD1F384E291E00E94CA08482F4053C0
:10235000842F8150893050F74093A00484EF96E099
:1023600066E070E00E9423330E94510F84E291E006
:1023700060E870E00E94473584E291E06091A0043B
:102380004AE050E00E94733609C0883709F0DBCE7E
:1023900084E291E068E770E00E9492351F91089511
:1023A0002F923F924F925F926F927F928F929F9265
:1023B000AF92BF92CF92DF92EF92FF920F931F9353
:1023C000DF93CF93CDB7DEB7C856D0400FB6F894A1
:1023D000DEBF0FBECDBF1DA618AA1CA61BA680E29D
:1023E00091E09AA789A7FE01E85BFF4F148217824C
:1023F0001382128291838083CE018D966DE574E005
:102400000E946525882319F488E00E943A0E8E0107
:10241000075F1F4FC80162E378E00E94EE0428E4E2
:10242000A22EB12CAC0EBD1E94E0E92EF12CEA0CCC
:10243000FB1C8DE2C82ED12CCC0EDD1EC701B601CF
:10244000A80121E00E949B2A882351F4C7010E9421
:10245000BC22C6010E94BC220E94510FC50173C15B
:10246000AA24BB248E010D5E1F4FC7010E94D924F0
:1024700018165CF4F801EA0DFB1D80830894A11C7A
:10248000B11C26E1A216B10481F7CE01845B9F4FF7
:102490000E94BC22CE018D960E94BC2210E8E12E43
:1024A00015E2F12E012D112D7724BAE16B2EA3E058
:1024B0005A2E44244394332433942224CC24DD2400
:1024C0004E010894811C911CCE010796A9969FAFDE
:1024D0008EAFA9979DC0ED93C3942A2F28198C2DF8
:1024E00090E0E3E1F0E0EC0FFD1FE80FF91FE08161
:1024F000EC3251F08A159B053CF4A9968EAD9FAD48
:10250000A997A817B90739F7F401E20FF11D108256
:10251000C4010E94C704982FDD20D9F540E050E0A7
:1025200060E070E074011AC0CB01BA012AE030E02B
:1025300040E050E00E940737AB01BC01812F992792
:1025400087FD9095C097AA2797FDA095BA2F480FB1
:10255000591F6A1F7B1F0894E11CF11CF7011081B1
:10256000812F80538A3000F3DB01CA018C529140E5
:10257000A040B04085519144AF40B04038F0F0E801
:10258000EF2EF5E2FF2E012D112D40C07A018B01B7
:102590003DC021E0D21639F418161CF0EAE16E2E87
:1025A00035C0682E33C082E0D81649F4892F815097
:1025B0008A3018F073E0572E29C0592E27C0E3E067
:1025C000DE1641F4892F8150823010F077241EC02E
:1025D000792E1CC0F4E0DF1639F4923018F0442450
:1025E000439414C0492E12C025E0D21639F492301B
:1025F00018F0332433940AC0392E08C086E0D81668
:1026000071F4923010F0222401C0292ED394C39487
:102610008C2D90E08A159B0514F4D4015ECF809137
:102620009A0490919B04A0919C04B0919D04E8169B
:10263000F9060A071B0711F490E014C0C801B7019E
:102640000E94A60BE0929A04F0929B0400939C04D3
:1026500010939D0484E291E0B801A70126E00E9456
:102660001A0891E080919E04781651F070929E04B1
:1026700084EF96E062E070E0472D0E94233391E002
:1026800080919F04681651F060929F0484EF96E059
:1026900065E070E0462D0E94233391E08091A00414
:1026A000581651F05092A00484EF96E066E070E076
:1026B000452D0E94233391E08091A104481651F0EA
:1026C0004092A10484EF96E067E070E0442D0E9400
:1026D000233391E08091A204381651F03092A20485
:1026E00084EF96E068E070E0432D0E94233391E090
:1026F0008091A304281651F02092A30484EF96E061
:102700006CE070E0422D0E94233302C0913011F43E
:102710000E94510F8091A10490910301813011F426
:10272000926001C09D7F909303018091A2049091DB
:102730000301813011F4916001C09E7F90930301E9
:10274000CE01885B9F4F0E94E808CE0189960E94C7
:10275000E808C859DF4F0FB6F894DEBF0FBECDBFF3
:10276000CF91DF911F910F91FF90EF90DF90CF906D
:10277000BF90AF909F908F907F906F905F904F90A1
:102780003F902F900895BF92CF92DF92EF92FF92E9
:102790000F931F93DF93CF93CDB7DEB728970FB674
:1027A000F894DEBF0FBECDBF0E941F0B7B018C01D2
:1027B00084E291E06EEC72E00E94473584E291E0A1
:1027C000B801A7012AE030E00E94913684E291E04E
:1027D00069EC72E00E94923584E291E066EA72E070
:1027E0000E94923584E291E064EA72E00E944735EB
:1027F0006E010894C11CD11CC60168E00E94AF0C98
:102800008981883721F0EE24FF2487011FC084E2EC
:1028100091E06CE972E02FC0C801B7012AE030E016
:1028200040E050E00E9407377B018C018B2D9927F7
:1028300087FD9095C097AA2797FDA095BA2FE80E1F
:10284000F91E0A1F1B1F0894C11CD11CF601B08081
:102850008B2D80538A3000F3D801C7018C529140F0
:10286000A040B04085519144AF40B04038F084E280
:1028700091E06EE872E00E9492351DC084E291E022
:1028800064E872E00E94473584E291E0A701B80154
:102890002AE030E00E94913684E291E060E872E044
:1028A0000E949235B701C8010E94A60B0E94510FE9
:1028B00085E00E94100E28960FB6F894DEBF0FBE7A
:1028C000CDBFCF91DF911F910F91FF90EF90DF90DF
:1028D000CF90BF9008950F931F93CF93DF93EC0198
:1028E0008B0141E00E94AE2D882311F081E005C0EC
:1028F000CE01B80140E00E94AE2DDF91CF911F9133
:102900000F9108950F931F9380E060E00E94283498
:1029100080E061E00E94673480E00E94BB34019750
:1029200009F472C08DE061E00E9428348DE061E01E
:102930000E94673410E000E269E170E080E090E01E
:102940000E94C0338BB180278BB980E00E94BB34DA
:10295000019709F459C069E170E080E090E00E94BD
:10296000C03385B1802785B980E00E94BB340197D0
:1029700009F44AC01F5F1832F9F60E947E0C88E500
:1029800094E060E04AE00E946920882319F486E020
:102990000E943A0E8DE594E068E574E00E946B14A5
:1029A000882319F487E00E943A0E8FE794E00E9492
:1029B000BC228FE794E06DE574E00E9465258823D2
:1029C00019F488E00E943A0E0E94510F85E061E000
:1029D0000E9428348DE061E00E94283485E061E0A7
:1029E0000E9467348DE061E00E94673410E264EF7A
:1029F00071E080E090E00E94C0338BB181278BB9F9
:102A000085B1812785B9F3CF1F910F91089585E096
:102A100061E00E94283483B7817F83BF83B78160E0
:102A200083BF80917A008F7780937A0080E880BF9F
:102A30008FE380937E0083E080937F008091640029
:102A40008068809364008091640088608093640053
:102A50008091640080648093640080916400816050
:102A6000809364000E94D10B40919A0450919B0482
:102A700060919C0470919D0484E291E026E00E94A4
:102A80001A0884E291E067E978E00E94473588E51A
:102A900094E060E04AE00E946920882319F486E00F
:102AA0000E943A0E8DE594E068E574E00E946B1494
:102AB000882319F487E00E943A0E8FE794E00E9481
:102AC000BC228FE794E06DE574E00E9465258823C1
:102AD00019F488E00E943A0E84E291E065E978E01A
:102AE0000E9447350E94D0118091A304882311F4DD
:102AF0000E94821488E1E0E4F4E0DF011D928A95EF
:102B0000E9F70895EF92FF920F931F93CF93DF930E
:102B10007B018A01060F171FEB01C017D107B0F424
:102B20002091E6063091E7068091E8069091E9064B
:102B30002817390759F0A8014C1B5D0B84EE96E06D
:102B4000BE010E94D032C80FD91FE7CF9E012E19B7
:102B50003F09C901DF91CF911F910F91FF90EF9035
:102B600008954F925F926F927F928F929F92AF9251
:102B7000BF92CF92DF92EF92FF920F931F93DF935A
:102B8000CF93CDB7DEB7EF970FB6F894DEBF0FBE89
:102B9000CDBFAC011D8218861C821B8280E291E0B1
:102BA0009A838983CE0105966FE774E026E40E943C
:102BB0009B2A882319F489E00E943A0E8E899F8906
:102BC000A88DB98D0097A105B10569F48E010B5F41
:102BD0001F4FC80140E050E060E070E00E94A42177
:102BE000C8010E946E2284E291E06FE378E00E94C7
:102BF000473585E061E00E9467340E9477337B01AE
:102C00008C01DD2460E2862E912C8C0E9D1E55E0F9
:102C1000A52EB12CAC0EBD1E2E010894411C511CDA
:102C200040E2C42E31E2632E712C6C0E7D1E6DC00D
:102C300084E291E0B40140E250E00E948215482F06
:102C40008823A1F128A180919F04281711F0DD2489
:102C500012C0D3943091A004F30191E00AC08081A6
:102C6000821711F0DD2403C0D394D31621F09F5FA7
:102C700031969417A0F3C201B40150E00E94332DA5
:102C80008BB18C258BB90E9477336E197F09800B2D
:102C9000910B6958734180409040B8F1C5010E9482
:102CA0006E220E9477337B018C012FC00E94773304
:102CB0006E197F09800B910B655F714080409040D9
:102CC00020F1C5010E946E225D98809164008062AF
:102CD000809364008091640084608093640083B773
:102CE000816083BF889583B78E7F83BF80916400A6
:102CF0008B7F80936400809164008F7D809364005B
:102D00000E9477337B018C01DD248091A004D816CA
:102D100008F48ECF8E010B5F1F4FC8010E946E22F8
:102D2000C8010E94BC2285E060E00E94673484E212
:102D300091E06DE378E00E944735CE0101960E9454
:102D4000E80881E0EF960FB6F894DEBF0FBECDBF66
:102D5000CF91DF911F910F91FF90EF90DF90CF9077
:102D6000BF90AF909F908F907F906F905F904F90AB
:102D700008952F923F924F925F926F927F928F921F
:102D80009F92AF92BF92CF92DF92EF92FF920F93FA
:102D90001F93DF93CF93CDB7DEB7CF58D0400FB698
:102DA000F894DEBF0FBECDBFFE01E45BFF4F14827F
:102DB00017821382128280E291E09183808311E076
:102DC0002F0124E030E0420E531EFE017696C257DA
:102DD000DF4FF983E883CE58D0400BE6202E312C0C
:102DE0002C0E3D1EC457DF4F8883CC58D040C357AC
:102DF000DF4F9883CD58D04091012C5F3F4FC6578D
:102E0000DF4F39832883CA58D04001C011E0809138
:102E1000030183FF05C084E291E06AE10E946A3504
:102E2000112331F484E291E064EA77E00E944735AF
:102E300084E291E062EA77E00E944735CE018E9607
:102E40006EE10E94AF0C11E0882309F380E00E943C
:102E5000F40A7C016DE977E00E94E504892B41F5D5
:102E60008091030181FF06C084E291E064E877E08D
:102E70000E9492358FE794E00E94BC228FE794E095
:102E80006DE574E00E946525882319F488E00E94AE
:102E90003A0E88E1E0E4F4E011928A95E9F7809136
:102EA000030181FFB3CF84E291E06CE677E012C6C4
:102EB000C7016AE677E00E94E504892B39F0C70173
:102EC00065E677E00E94E504892B19F40E94630B04
:102ED0009ECFC70160E677E00E94E504892B19F4D4
:102EE0000E94C31394CFC7016CE577E00E94E5040C
:102EF000892B19F40E949B108ACFC70169E577E0FE
:102F00000E94E504892BB1F58091030181FF0EC079
:102F100084E291E06BE477E00E94473584E291E03F
:102F2000609174044AE050E00E947336E3ECF4E0F0
:102F300020E080819181892B19F0828181112F5F9E
:102F4000339634E0E23DF307A1F7213029F48AE219
:102F5000F7018083118206C081E00E94F40A7C019F
:102F60000E942A058BE794E0B70146E020E00E942A
:102F7000F7094CCFC70168E477E00E94E504892B8C
:102F8000E1F581E00E94F40A8C01009709F471C513
:102F9000F1011482178213821282C457DF4F2881F5
:102FA000CC58D0402083C357DF4F3881CD58D04014
:102FB0003183C657DF4F88819981CA58D0406FE767
:102FC00074E0A80120E00E94162C882311F011E083
:102FD00010C08091030181FF0BC084E291E06DE29B
:102FE00077E00E94473584E291E0B8010E94F33611
:102FF00010E0C1010E94E8080ACFC7016AE277E049
:103000000E94E504892B09F09FC081E00E94F40A28
:103010006C01009709F42DC5E3ECF4E020E0808119
:103020009181892B19F0828181112F5F339684E081
:10303000E23DF807A1F7233009F01DC5C60166E29D
:1030400077E00E94E504892B09F015C582E00E9413
:10305000F40AAC01C2016FE774E021E00E949B2AF0
:10306000882309F406C5C2010E94C92609C06496D6
:103070008FAD6497823008F409C5C2010E942D25E6
:10308000182F92C2C2010E94B823FACFC6010E9433
:103090002A058FE794E040E050E060E070E00E9495
:1030A000A421EE24FF2487012EC064968FAD64977F
:1030B000823030F5C201BE016F5F7F4F0E94CE2289
:1030C0008823F1F0C601BE016F5F7F4F0E94DD07CC
:1030D0008823B1F0C2010E94BC22C2016FE774E0F4
:1030E000AE014F5F5F4F22E00E949B2AC2010E9407
:1030F000B823882329F00894E11CF11C011D111D3F
:10310000C2010E94BC22C2016FE774E041E00E944C
:103110004126882351F68091030181FF0EC084E28D
:1031200091E0B801A7012AE030E00E943E3684E237
:1031300091E065E177E00E949235E114F104010528
:10314000110509F063CE95C4C70162E177E00E94E2
:10315000E504892B49F481E00E94F40A009709F400
:1031600088C40E94680E99C3C7016DE077E00E9491
:10317000E504892B09F059C181E00E94F40A8C0111
:10318000009709F476C4C2016FE774E0A80121E05A
:103190000E949B2A882349F48091030181FF69C41E
:1031A00084E291E068EF76E063C382E00E94F40A73
:1031B0007C01009709F44DC0FC0101900020E9F763
:1031C0003197E81B20E030E04E2F50E00CC0F701B3
:1031D000E20FF31F8081992787FD9095C0970A978A
:1031E000C0F52F5F3F4F241735078CF3870140E070
:1031F00050E060E070E019C0CB01BA012AE030E095
:1032000040E050E00E940737AB01BC018D2D9927AB
:1032100087FD9095C097AA2797FDA095BA2F480FD4
:10322000591F6A1F7B1F0F5F1F4FF801D0808D2D24
:1032300080538A3008F3C2010E94A421882349F4F4
:103240008091030181FF6DC184E291E066EE76E03A
:1032500061C183E00E94F40AAC01009709F43FC009
:10326000FC0101900020E9F73197E81B20E030E0F5
:103270006E2F70E00CC0FA01E20FF31F80819927D6
:1032800087FD9095C0970A9750F52F5F3F4F2617FF
:1032900037078CF38A0166247724430119C0C401DF
:1032A000B3012AE030E040E050E00E9407373B01E4
:1032B0004C018F2D992787FD9095C097AA2797FDE0
:1032C000A095BA2F680E791E8A1E9B1E0F5F1F4F96
:1032D000F801F0808F2D80538A3008F304C06624F3
:1032E0006A94762C430184E00E94F40AAC010097B2
:1032F00009F440C0FC0101900020E9F73197E81B78
:1033000020E030E06E2F70E00CC0FA01E20FF31FF6
:103310008081992787FD9095C0970A9758F52F5F70
:103320003F4F261737078CF36A01EE24FF248701ED
:103330001AC0C801B7012AE030E040E050E00E9426
:1033400007377B018C018B2D992787FD9095C097BE
:10335000AA2797FDA095BA2FE80EF91E0A1F1B1F7A
:103360000894C11CD11CF601B0808B2D80538A308B
:1033700000F305C011E0E12EF12C012D112DB1E07B
:10338000AB2EB12CC12CD12C42C06A147B048C040E
:103390009D0408F442C0262FF1E0EF16F104010568
:1033A000110599F4862F80528F3540F16A3011F063
:1033B0006D3021F484E291E0622F22C084E291E03A
:1033C00064EE76E00E94210D1DC022E0E216F104B9
:1033D0000105110569F484E291E040E150E00E94AA
:1033E000613684E291E062EE76E00E9447350AC0E1
:1033F00033E0E316F1040105110521F484E291E0C4
:103400000E9451080894A11CB11CC11CD11CC2010E
:103410000E94D924BC0197FFB8CFC2010E94BC22F0
:103420008091030183FDF2CC7AC2C7016CED76E096
:103430000E94E504892B09F0BBC081E00E94F40AD8
:103440008C01009709F415C3C2016FE774E0A8016D
:1034500022E00E949B2A882349F48091030181FF86
:1034600008C384E291E067EC76E002C282E00E9449
:10347000F40A7C01009709F458C0FC010190002077
:10348000E9F73197E81B20E030E04E2F50E00DC007
:10349000F701E20FF31F8081992787FD9095C09770
:1034A0000A9708F042C02F5F3F4F2417350784F377
:1034B000870140E050E060E070E019C0CB01BA0144
:1034C0002AE030E040E050E00E940737AB01BC0149
:1034D0008D2D992787FD9095C097AA2797FDA095D8
:1034E000BA2F480F591F6A1F7B1F0F5F1F4FF8012C
:1034F000D0808D2D80538A3008F3C2010E94A42110
:10350000882399F48091030181FF0BC084E291E04C
:1035100065EB76E00E94473584E291E0B7010E94B6
:10352000F336C2010E94BC22A4C28091030183FF32
:1035300005C084E291E06AE10E946A3584E291E08C
:1035400063EB76E00E944735CE018E966EE10E94D5
:10355000AF0C182F882339F1CE01845B9F4FBE0139
:10356000625D7F4F412F50E00E94332D212F30E0CC
:103570008217930761F08091030181FF06C084E206
:1035800091E06BE976E00E94473510E00DC01D31F7
:1035900060F6CE01845B9F4F60E071E042E050E056
:1035A0000E94332DC2CF11E0C2010E94BC222FCC59
:1035B000C70166E976E00E94E504892BA1F581E068
:1035C0000E94F40AAC01009709F453C2C2016FE7EC
:1035D00074E021E00E949B2A882389F0A5964CADD7
:1035E0005DAD6EAD7FADA59784E291E02AE030E05D
:1035F0000E943E36C2010E94BC2211E00BC08091A5
:10360000030181FF06C084E291E063E976E00E9455
:10361000473510E08091030183FDF9CB84E291E00E
:103620000E947235F4CBC7016EE876E00E94E50493
:10363000892B09F0DEC084E291E061E876E00E9427
:10364000473580915C04823049F0833061F08130ED
:1036500079F484E291E06DE776E00EC084E291E0D7
:1036600069E776E009C084E291E064E776E004C0AF
:1036700084E291E06CE676E00E94923588E594E081
:103680006AE0AE01425F5F4F0E94871F882339F4D2
:1036900084E291E06DE576E00E944735EAC184E27C
:1036A00091E06BE476E00E94473584E291E06E851C
:1036B00040E150E00E94733684E291E062E476E0FB
:1036C0000E94473584E291E06F850E946A3584E26A
:1036D00091E068890E94A63584E291E068E376E093
:1036E0000E9447358E010F5E1F4F84E291E0F80182
:1036F00061918F010E946A35C257DF4F288139815D
:10370000CE58D0400217130781F784E291E06CE2B3
:1037100076E00E9447356E8962956F7084E291E091
:103720004AE050E00E94613684E291E06AE276E08D
:103730000E9447356E896F7084E291E04AE050E064
:103740000E94733684E291E06AE176E00E94473598
:103750004F89588D698D7A8D84E291E02AE030E0BE
:103760000E944D3684E291E065E076E00E944735A4
:103770006C8D6F7084E291E04AE050E00E94613607
:1037800084E291E063E076E00E9447356C8D6295BB
:103790006F7070E06053784F8B8D8F7090E0A4E075
:1037A000880F991FAA95E1F7680F791F84E291E0CD
:1037B0004AE050E00E94D13688E594E00E94A71FBD
:1037C0007B018C01611571058105910559F088E532
:1037D00094E069E0AE01425E5F4F0E94871F88233C
:1037E00009F062C184E291E064EF75E00E949235D5
:1037F00040C1C7016FED75E00E94E504892B41F4DB
:10380000C2010E946E228FE794E00E946E22FECADF
:10381000C70169ED75E00E94E504892B31F4E09160
:103820003E04F0913F04099524C1C70165ED75E0A0
:103830000E94E504892B11F581E00E94F40A8C01B5
:10384000009709F416C1C2016FE774E0A80122ECE9
:103850000E949B2A882321F0C2010E94BC22D6CA62
:103860008091030181FF05C184E291E06FEB75E077
:103870000E94473584E291E0B801F9C0C70168EBC6
:1038800075E00E94E504892B51F481E00E94F40A5E
:10389000009709F4EEC00E94B115182FB8CAC701ED
:1038A00064EB75E00E94E504892BF1F584E291E078
:1038B00061EB75E00E94473580914004882311F444
:1038C000CC2409C080914C04882319F0CC24CA94DC
:1038D00002C0CC24C394DD24EC2CFF240894E1081E
:1038E000F1081BC00D2D10E0B801660F771F600FA7
:1038F000711F660F771F660F771F605C7B4F84E236
:1039000091E00E94F0360E151F0534F484E291E038
:103910006FEA75E00E944735D394DC1418F384E213
:1039200091E00E94723572CAC7016AEA75E00E948E
:10393000E504892B59F581E00E94F40A8C01009777
:1039400009F497C067EA75E00E94E504F82E882321
:1039500039F481E08093A2048091030181600DC05D
:10396000C80163EA75E00E94E504F82E882339F463
:103970001092A204809103018E7F8093030184EF53
:1039800096E068E070E04091A20431C0C7016BE9A5
:1039900075E00E94E504892B99F581E00E94F40A04
:1039A0008C01009709F465C068E975E00E94E504A0
:1039B000F82E882339F481E08093A10480910301DB
:1039C00082600DC0C80164E975E00E94E504F82E2C
:1039D000882339F41092A104809103018D7F809394
:1039E000030184EF96E067E070E04091A1040E943B
:1039F00023330E94510F10E0FF2009F008CA06CAC5
:103A0000C70160E975E00E94E504892B19F581E0A2
:103A10000E94F40A8C01009761F16DE875E00E9444
:103A2000E504982F882321F48091030188600BC05E
:103A3000C80169E875E00E94E504982F882329F4FD
:103A400080910301877F8093030110E0992309F09F
:103A5000DEC9DCC98091030181FF0BC084E291E0E3
:103A600067E775E00E94473584E291E0B7010E9464
:103A7000F33610E0CCC9C2016FE774E0A60121E083
:103A80000E949B2A882309F0F2CA00CBC2010E943F
:103A9000BC22C2016FE774E0A60122E00E949B2ACB
:103AA000882309F472CDEECA84E291E068EE75E0F5
:103AB0000E94473516950795F794E79484E291E0C4
:103AC000B801A7012AE030E00E943E3684E291E08E
:103AD00064EE75E00E94923599C9CF92DF92EF9221
:103AE000FF920F931F93DF93CF93CDB7DEB7AB97C2
:103AF0000FB6F894DEBF0FBECDBF198A1C8A188A94
:103B00001F8680E291E09E878D878E010F5F1F4F99
:103B1000C80168E578E00E94EE049DE0C92ED12C32
:103B2000CC0EDD1E81E1E82EF12CEC0EFD1EC7014E
:103B30006FE774E0A80122E40E949B2A882339F4ED
:103B400084E291E061E478E00E94473506C0C70155
:103B50000E94BC22C8010E94B115C6010E94E8085B
:103B6000AB960FB6F894DEBF0FBECDBFCF91DF91FD
:103B70001F910F91FF90EF90DF90CF90089580916B
:103B80009E04882321F40E94370D0E94B115809174
:103B90009E04813011F40E946D1D0E94B916FFCF62
:103BA000FF920F931F93CF93DF938B010E94773384
:103BB000EB01FF24FA9409C00E9477336C1B7D0B44
:103BC0006017710710F080E008C0FEBC0DB407FE5E
:103BD000FDCF8EB58F3F81F781E0DF91CF911F91AF
:103BE0000F91FF900895FC014281242F30E0C9011C
:103BF0009595879580658CBD40FF02C080E004C02C
:103C000080E0463009F081E08DBD808160E00E9457
:103C100067340895DF92EF92FF920F931F93CF9333
:103C2000DF93EC01D62E79018A010E94F31DCE01AB
:103C30006CE271E00E94D01D8D2D80648EBD0DB4AC
:103C400007FEFDCF28E130E0D801C701022E04C0F5
:103C5000B695A795979587950A94D2F78EBD0DB422
:103C600007FEFDCF285030408FEF283F380761F71F
:103C7000DD2011F485E906C088E0D81611F487E844
:103C800001C08FEF8EBD0DB407FEFDCF8CE0D816BE
:103C900031F48FEF8EBD0DB407FEFDCF8EB59FEFD3
:103CA0002FEF2EBD0DB407FEFDCF8EB587FF04C0EC
:103CB000992311F09150F5CF8B83DF91CF911F9114
:103CC0000F91FF90EF90DF900895DF92EF92FF92B7
:103CD0000F931F93CF93DF93EC01D62E79018A01C6
:103CE00067E320E030E040E050E00E940A1E8823B5
:103CF00031F0CE016D2DA80197010E940A1EDF91BF
:103D0000CF911F910F91FF90EF90DF900895FC01EC
:103D1000808161E00E9467348FEF8EBD0DB407FE95
:103D2000FDCF0895DC016EBDFA0120E030E00DB456
:103D300007FEFDCF80818EBD0DB407FEFDCF8181D2
:103D40008EBD2E5F3F4F329682E02030380779F7E4
:103D50000DB407FEFDCF8FEF8EBD0DB407FEFDCF76
:103D60008FEF8EBD0DB407FEFDCF8FEF8EBD0DB46E
:103D700007FEFDCF8EB513968C9313978F71853008
:103D800011F481E0089583E111968C931197CD0190
:103D90000E94871E80E00895CF92DF92EF92FF92FB
:103DA0000F931F93CF93DF93EC017A018B0169018D
:103DB0008C81833039F059E0EE0CFF1C001F111F7D
:103DC0005A95D1F7CE0168E1A80197010E940A1E19
:103DD000882311F086E023C0CE016EEFA6010E9479
:103DE000921E8823E9F0CE0168E572E00E94D01DA2
:103DF000882311F487E113C0CE016DE020E030E0AC
:103E000040E050E00E940A1E882341F48FEF8EBDEF
:103E10000DB407FEFDCF8EB5882379F086E1898346
:103E2000CE010E94871E80E0DF91CF911F910F91FC
:103E3000FF90EF90DF90CF900895CE010E94871EF3
:103E400081E0F2CFBF92CF92DF92EF92FF920F9379
:103E50001F93CF93DF93EC016B017A010E947733BC
:103E60008B01BB24BA9409C00E947733601B710B8D
:103E70006D52714010F081E10BC0BEBC0DB407FE65
:103E8000FDCF8EB58B838F3F79F38E3F39F08FE076
:103E90008983CE010E94871E80E02FC0D701119731
:103EA000EF28D9F08FEF8EBD20E030E09FEF0BC000
:103EB0000DB407FEFDCF8EB5F601E20FF31F808330
:103EC0009EBD2F5F3F4F2A173B0790F30DB407FEAF
:103ED000FDCF8EB5AC0DBD1D8C938FEF8EBD0DB497
:103EE00007FEFDCF8EB58FEF8EBD0DB407FEFDCF63
:103EF0008EB5CE010E94871E81E0DF91CF911F9188
:103F00000F91FF90EF90DF90CF90BF9008950F93A7
:103F10001F93CF93DF93EC018A0120E030E040E073
:103F200050E00E940A1E882339F080E18983CE0187
:103F30000E94871E80E006C0CE01B80140E150E03B
:103F40000E94221FDF91CF911F910F910895EF9250
:103F5000FF920F931F93DF93CF93CDB7DEB7609798
:103F60000FB6F894DEBF0FBECDBF8C0169E0AE0185
:103F70004F5F5F4F0E94871F882309F464C08981C7
:103F8000829586958695837089F58F818370382F09
:103F9000330F330F20E0888590E0880F991F880F3A
:103FA000991F282B392B8985829586958695837054
:103FB00090E0282B392B2F5F3F4F790100E010E074
:103FC0008E818F7090E007972A852370220F3B85A2
:103FD000331F3327331F232B820F911D04C0EE0C98
:103FE000FF1C001F111F8A95D2F730C0813041F5A8
:103FF00088858695869590E0A0E0B0E08C01FF244E
:10400000EE248A8590E0A0E0B0E0E82AF92A0A2BA5
:104010001B2B998580E0AA2797FDA095BA2FE82A47
:10402000F92A0A2B1B2B0894E11CF11C011D111D00
:104030007AE0EE0CFF1C001F111F7A95D1F706C025
:104040008BE0F8018183EE24FF248701B701C801CA
:1040500060960FB6F894DEBF0FBECDBFCF91DF9153
:104060001F910F91FF90EF900895CF92DF92EF9202
:10407000FF920F931F93CF93DF93EC017A018B0193
:1040800069018C81833039F0A9E0EE0CFF1C001F20
:10409000111FAA95D1F7CE0161E1A80197010E94F5
:1040A0000A1E882339F084E08983CE010E94871E8E
:1040B00080E006C0CE01B60140E052E00E94221F1F
:1040C000DF91CF911F910F91FF90EF90DF90CF90F4
:1040D0000895BF92CF92DF92EF92FF920F931F93BA
:1040E000CF93DF93EC01B62E1C82198248830E9485
:1040F00077336B01888161E00E942834888161E018
:104100000E9467348CE060E00E9428348BE061E01C
:104110000E9428348DE061E00E9428348AE061E04A
:104120000E9428348AE061E00E94673485E08A8337
:1041300082E58CBD1DBC80E09FEF9EBD0DB407FEE7
:10414000FDCF8F5F8A30C9F709C00E9477336C19A1
:104150007D09615D774010F081E056C0CE0160E0DE
:1041600020E030E040E050E00E940A1E182F8B83D0
:10417000813059F7CE0168E02AEA31E040E050E0B2
:104180000E940A1E82FF02C01C8311C080E02FEF34
:104190002EBD0DB407FEFDCF9EB58F5F8430C1F7F5
:1041A0009B839A3A11F082E02FC082E08C838C814D
:1041B000823021F0EE24FF2487010FC0E12CF12C86
:1041C000012D00E4102F09C00E9477336C197D097E
:1041D000615D774010F08AE017C0CE0169E2A80166
:1041E00097010E94651E8B83882371F78C81823032
:1041F00029F5CE016AE320E030E040E050E00E9483
:104200000A1E882331F088E08983CE010E94871E30
:1042100021C08FEF8EBD0DB407FEFDCF8EB5807C23
:10422000803C11F483E08C8380E09FEF9EBD0DB451
:1042300007FEFDCF2EB58F5F8330C1F7CE010E9400
:10424000871E86E08B1518F488E1898303C0BA8243
:1042500081E001C080E0DF91CF911F910F91FF902D
:10426000EF90DF90CF90BF900895CF93DF93EB0155
:10427000DC0190E020E03EE28C91803269F0283051
:1042800029F4FE01E90FF11D30839F5FFE01E90F64
:10429000F11D8C9180839F5F2F5F11962B3061F70A
:1042A000C90FD11D1882DF91CF9108950F931F93ED
:1042B000CF93DF93DC01EB018A0180E090E020E204
:1042C000FE01E80FF91F208301968B309105C1F79D
:1042D00057E040E024C0622F2E3219F08AEC98E0BB
:1042E00007C05A3051F15AE048E018C0321729F19E
:1042F000FC01019634913323C9F75417F0F02132B1
:10430000E0F02F37D0F4822F81568A3110F4622FDB
:104310006052FE01E40FF11D60834F5F11962C91F6
:10432000222311F02F32B9F6F801B183A08390E077
:104330008881803219F091E001C090E0892FDF91EF
:10434000CF911F910F9108956F927F928F929F92BC
:10435000AF92BF92CF92DF92EF92FF920F931F9393
:10436000CF93DF93EC017A018B012B81222309F497
:1043700080C089899A89AB89BC8984179507A6076B
:10438000B70708F476C085C0E114F10401051105F2
:1043900051F41C821D821E821F82188619861A867D
:1043A0001B8681E067C0288539854A855B85E98D54
:1043B000FA8D858590E0099621503040404050406C
:1043C00039014A01082E04C0969487947794679423
:1043D0000A94D2F72F5F3F4F4F4F5F4F0894E10889
:1043E000F108010911095701680104C0D694C79466
:1043F000B794A7948A95D2F70894E11CF11C011D8B
:10440000111DA614B704C804D90428F021153105DC
:104410004105510549F48D899E89AF89B88D8C83FA
:104420009D83AE83BF8316C0A618B708C808D908F5
:1044300011C04C815D816E817F81898D9A8D94013F
:104440000E949C2F0894A108B108C108D1088823B4
:1044500031F40FC084E0882E912C8C0E9D1EA11487
:10446000B104C104D10429F7E886F9860A871B87BD
:1044700098CF80E0DF91CF911F910F91FF90EF9047
:10448000DF90CF90BF90AF909F908F907F906F9074
:104490000895223009F078CFE7CFCF93DF93EC0176
:1044A0008C859D85AE85BF8540E0611141E0BC01F2
:1044B000CD010E94722D882319F420E030E00AC05B
:1044C0008889282F30E095E0220F331F9A95E1F775
:1044D00024523B4FC901DF91CF9108950F931F9351
:1044E000CF93DF938C01FC0183818823E1F18181EB
:1044F00087FF36C0C80161E00E944D22EC010097A1
:1045000091F18881853E79F1F8018381823040F410
:1045100081899289A389B4898C8F9D8FAE8FBF8F3B
:10452000F80185899689A789B08D9B8F8A8FCD01E7
:10453000AA27BB279D8B8C8BE091D204F091D304EA
:10454000309751F0BE016A5E7F4FCE0148960995C3
:10455000888D998D9B8B8A8BF80181818F778183E0
:104560000E94372D04C081E0F801808380E0DF9154
:10457000CF911F910F9108950F931F938C010E946B
:104580006E22F80113821F910F910895FC0183811F
:10459000882319F0CF010E94BC220895CF93DF93A6
:1045A000FC01EB018381882391F08250823020F45A
:1045B0008FE28883198209C0CF0160E00E944D22FA
:1045C000009729F0BE010E94352181E001C080E002
:1045D000DF91CF9108956F927F928F929F92AF92C9
:1045E000BF92CF92DF92EF92FF920F931F93DF93D0
:1045F000CF9300D000D0CDB7DEB77C015A016B015C
:10460000DC0113968C911397813009F091C01196BB
:104610008C9181FF8DC0A0C00097A105B10511F458
:1046200081E087C0F7016084718482849384C7012C
:10463000B601A5010E94A421882309F479C0D701FD
:1046400059968D919C915A97A114B104C104D1043B
:1046500089F455964D915D916D917C9158970E948A
:104660001230882309F464C0F701158A168A178A64
:10467000108E44C0D70114964D915D916D917C913F
:1046800017979E012F5F3F4F0E949C2F882309F4AC
:104690004FC0D7015996ED91FC915A9749815A81A3
:1046A0006B817C818789803149F4483FBFEF5B078C
:1046B000B0E06B07B0E07B0748F020C0483F8FEFC9
:1046C00058078FEF68078FE07807C0F4CF010E948A
:1046D0001230882369F1D70114964D915D916D9147
:1046E0007C91179759968D919C915A970FEF1FEFD8
:1046F0002FEF3FE00E94152F8823D1F0F701A18A08
:10470000B28AC38AD48A818180688183C7010E946A
:104710006E22882369F0B601A5016A147B048C041B
:104720009D0410F4B401A301C7010E94A42101C09B
:1047300080E00F900F900F900F90CF91DF911F911D
:104740000F91FF90EF90DF90CF90BF90AF909F9030
:104750008F907F906F900895F70181899289A38946
:10476000B48984179507A607B70708F055CFE0CF9F
:10477000CF93DF93EC0140E050E060E070E00E94F6
:10478000EB22882369F0CE0161E00E944D22FC01FA
:10479000009731F085EE80831B820E94372D01C087
:1047A00080E0DF91CF9108952F923F924F925F92D8
:1047B0006F927F928F929F92AF92BF92CF92DF9231
:1047C000EF92FF920F931F93CF93DF93EC012A0197
:1047D0008B81882309F4B6C0898180FFB3C0C8C02B
:1047E00025014E185F083B0174E0272E312C2C0E5A
:1047F0003D1E4201A1C0288539854A855B856FEF42
:10480000A62E61E0B62EA222B3228B8179018A0105
:1048100099E016950795F794E7949A95D1F7E98D65
:10482000FA8D823049F4428D538D648D758D4E0D15
:104830005F1D601F711F3FC0D480DA94DE20A11479
:10484000B104D9F4DD20C9F4211531054105510524
:1048500049F48D899E89AF89B88D8C839D83AE8301
:10486000BF830BC04C815D816E817F81CF0191013F
:104870000E949C2F882309F465C0E98DFA8D4C8134
:104880005D816E817F814250504060407040058460
:1048900004C0440F551F661F771F0A94D2F7868500
:1048A0009785A089B189480F591F6A1F7B1F4D0D3D
:1048B000511D611D711D80E092E08A199B098401E0
:1048C0008815990508F48C0182E00030180709F07A
:1048D00067C08091D8049091D904A091DA04B09176
:1048E000DB04481759076A077B0709F459C0809110
:1048F000DC069091DD0693010E943520882349F45F
:1049000021C0950124523B4FC301B901A8010E9467
:104910000B05600E711E980140E050E08885998576
:10492000AA85BB85820F931FA41FB51F888799870F
:10493000AA87BB87801A910A8114910409F05BCF82
:10494000A20102C04FEF5FEFCA01DF91CF911F912B
:104950000F91FF90EF90DF90CF90BF90AF909F901E
:104960008F907F906F905F904F903F902F90089521
:10497000A988BA88CB88DC88E884F9840A851B85F5
:104980009A0140E050E0D601C5018E199F09A00BA5
:10499000B10B281739074A075B0708F021CF23CF4F
:1049A000CB01BA0140E00E94722D882309F0A9CF03
:1049B000C9CFDF93CF930F92CDB7DEB7BE016F5F44
:1049C0007F4F41E050E00E94D423019719F02FEF70
:1049D0003FEF03C08981282F30E0C9010F90CF91AC
:1049E000DF910895EF92FF920F931F93CF93DF9380
:1049F000EC018B81823038F1E884F9840A851B85CB
:104A0000CE010E94D92497FD1EC088859985AA856C
:104A1000BB854F96A11DB11D88879987AA87BB8743
:104A2000F5E016950795F794E794FA95D1F72E2DB2
:104A300030E02F703070E5E0220F331FEA95E1F788
:104A400024523B4F02C020E030E0C901DF91CF91FA
:104A50001F910F91FF90EF900895CF93DF93EC019A
:104A60008B81843071F5CE0140E050E060E070E071
:104A70000E94A42110C0CE010E94F224FC010097E4
:104A800001F180818823A1F0853E29F08E3219F052
:104A9000838583FF16C0288539854A855B8589898A
:104AA0009A89AB89BC89281739074A075B0718F32D
:104AB00081E08B83898182608983CE010E94B82343
:104AC00001C080E0DF91CF9108950F931F93CF93A2
:104AD000DF93EC018B018B81882309F040C0FB013F
:104AE0008789803109F041C082E08B831D8A1E8A4C
:104AF0001F8A188E808D918DA0E0B0E025E0880F90
:104B0000991FAA1FBB1F2A95D1F7898B9A8BAB8B54
:104B1000BC8B13C083E08B83F801428D538D648D71
:104B2000758D4D8B5E8B6F8B788F9E012F5E3F4F07
:104B3000C8010E947030882391F01A8F098F81E09C
:104B400089831C821D821E821F82188619861A86FE
:104B50001B861C861D861E861F86188A01C080E063
:104B6000DF91CF911F910F9108958032C1F7D2CF7D
:104B70001F93CF93DF93EC01142F262F30E0F90120
:104B800055E0EE0FFF1F5A95E1F7E452FB4F838586
:104B9000817121F0842F827109F069C08091D8045D
:104BA0009091D904A091DA04B091DB048C879D87A1
:104BB000AE87BF87688BF90145E0EE0FFF1F4A956E
:104BC000E1F7E452FB4F84899589A0E0B0E0DC0175
:104BD000992788278D8B9E8BAF8BB88F228D338D35
:104BE000A90160E070E0482B592B6A2B7B2B4D8B81
:104BF0005E8B6F8B788F838590E0887190700097C3
:104C000051F4848D958DA68DB78D898B9A8BAB8B46
:104C1000BC8B81E00CC0409751F59E012F5E3F4F49
:104C2000898D9A8D0E947030882309F184E08B83EE
:104C3000812F8F7089831C821D821E821F8218869D
:104C400019861A861B8614FF18C0CE0140E050E07A
:104C500060E070E00E94EB22882379F40AC0498961
:104C60005A896B897C89CE010E94A42102C01B82D3
:104C700080E0DF91CF911F91089515FDF0CF81E085
:104C8000F8CFBF92CF92DF92EF92FF920F931F93D4
:104C9000CF93DF936C01EB01B42E6115710551F1D7
:104CA000FC018381882331F5898D9A8D928F818FC4
:104CB000E884F9840A851B85CE010E94F224FC0158
:104CC0000097C1F080818823A9F0853E89F38E3258
:104CD00079F365E016950795F794E7946A95D1F70F
:104CE0006E2D6F70838583FDE3CFC6014B2D0E942F
:104CF000B82501C080E0DF91CF911F910F91FF9007
:104D0000EF90DF90CF90BF900895DF92EF92FF92E7
:104D10000F931F93CF93DF938C01EB017A01D22E77
:104D2000898D9A8DF801928F818F8381882329F54F
:104D30006115710559F521C0A70175E0440F551F94
:104D40007A95E1F760E070E0CE010E94A42188230B
:104D5000A1F0CE010E94F224FC01009771F0808145
:104D6000882359F0853E49F08E3239F06E2D6F70F0
:104D7000C8014D2D0E94B82501C080E0DF91CF9180
:104D80001F910F91FF90EF90DF90089527FFD4CFF0
:104D9000F4CFAF92BF92CF92DF92EF92FF920F9338
:104DA0001F93DF93CF93CDB7DEB76B970FB6F89411
:104DB000DEBF0FBECDBF8C0119821C8240E050E0E7
:104DC00060E070E00E94A4215E010894A11CB11C67
:104DD00050C0C8010E94F224FC01009709F464C08D
:104DE0008081882309F454C0853E09F442C08E3284
:104DF00009F43FC0838583FD3CC0A7019601F5E01F
:104E00005695479537952795FA95D1F77901C501BC
:104E1000B801A90121E00E948526882309F444C035
:104E20008C81843021F4C5010E94C92606C08A8184
:104E300082608A83C5010E94B8238823A9F108945F
:104E4000E11CF11CE5E0EE0CFF1CEA95E1F7A7017F
:104E500060E070E0F80180859185A285B3858417B4
:104E60009507A607B70729F0C8010E94A421882347
:104E7000D9F0F801C084D184E284F38481899289D5
:104E8000A389B489C816D906EA06FB0608F4A1CF9F
:104E9000F80183818250823028F0C8010E942D25BC
:104EA000882311F011E001C010E0CE0101960E94AC
:104EB000C622812F6B960FB6F894DEBF0FBECDBF12
:104EC000CF91DF911F910F91FF90EF90DF90CF90E6
:104ED000BF90AF900895CF93DF93EC019C012C5FBE
:104EE0003F4F898D9A8D41E050E060E070E00E9474
:104EF000DC308823A1F08D899E89AF89B88D009719
:104F0000A105B10559F48C819D81AE81BF818D8B46
:104F10009E8BAF8BB88F89818068898381E0DF9118
:104F2000CF9108952F923F924F925F927F928F92EE
:104F30009F92AF92BF92CF92DF92EF92FF920F9328
:104F40001F93DF93CF9300D000D000D0CDB7DEB752
:104F50006C01162F072F5E834D83DC0113968C9115
:104F60001397813009F06EC111968C9181FF6AC14F
:104F700087C1F60141895289638974898085918549
:104F8000A285B38584179507A607B70731F0C60138
:104F90000E94A421882309F455C1812F902F9C01E0
:104FA00019014D805E8012C1D6015996ED91FC9198
:104FB0005A97DA01C90149E0B695A7959795879563
:104FC0004A95D1F774807A9478228FEF882E81E009
:104FD000982E82229322772009F052C081149104E6
:104FE00009F04EC0D60114964D915D916D917C9162
:104FF0001797411551056105710571F1CF019E01AA
:105000002F5F3F4F0E949C2F882309F41BC12981E9
:105010003A814B815C81D6015996ED91FC915A976A
:105020008789803149F4283FBFEF3B07B0E04B0749
:10503000B0E05B0748F019C0283FEFEF3E07EFEF05
:105040004E07EFE05E0788F4D60114962D933D934A
:105050004D935C93179714C0F60185899689A789AB
:10506000B08D0097A105B10531F4C6010E946B27F0
:10507000882331F4E7C0F60184839583A683B78340
:1050800080E092E08819990952018415950508F489
:105090005C01D6015996ED91FC915A971496ED90CA
:1050A000FD900D911C9117978EEF9FEFAFEFBFEF23
:1050B000E80EF91E0A1F1B1F058404C0EE0CFF1C1E
:1050C000001F111F0A94D2F786859785A089B189A0
:1050D000E80EF91E0A1F1B1FE70CF11C011D111D14
:1050E00090E0A91692E0B90639F58091D804909124
:1050F000D904A091DA04B091DB048E159F05A007B6
:10510000B10771F41092DE068FEF9FEFAFEFBFEFA4
:105110008093D8049093D904A093DA04B093DB046D
:105120008091DC069091DD06B801A70191010E94F3
:10513000CC1E8823B9F586C08114910419F5D601D7
:1051400018962D913D914D915C911B9751968D91A3
:105150009D910D90BC91A02D281739074A075B0738
:1051600088F00E94372D882309F46CC081E0809379
:10517000DE06E092D804F092D9040093DA0410938A
:10518000DB0408C0C801B70141E00E94722D8823EA
:1051900009F458C0940124523B4FC901B101A50143
:1051A0000E940B05950140E050E0F6018085918555
:1051B000A285B385820F931FA41FB51F8087918797
:1051C000A287B3872A0C3B1C4A185B08D6011896A5
:1051D0002D913D914D915C911B974114510409F023
:1051E000E3CE51968D919D910D90BC91A02D82178B
:1051F0009307A407B50748F4F601218B328B438B44
:10520000548B81818068818311C08091D2049091F8
:10521000D304892B59F08D819E81892B39F0D601D9
:1052200011968C911197806811968C93F60181816B
:1052300083FF05C0C6010E946E22882319F04D81AC
:105240005E8105C081E0D6018C934FEF5FEFCA010C
:1052500026960FB6F894DEBF0FBECDBFCF91DF917B
:105260001F910F91FF90EF90DF90CF90BF90AF9084
:105270009F908F907F905F904F903F902F900895D8
:1052800082FD77CE8ACEDF92EF92FF920F931F932B
:10529000CF93DF93EC0189899A89AB89BC89805EC1
:1052A0009F4FAF41B04008F071C0CE010E946B2704
:1052B000882309F46BC00E94372D882309F466C047
:1052C000E98DFA8DEC80FD800E811F818EEF9FEFBE
:1052D000AFEFBFEFE80EF91E0A1F1B1F058404C0C5
:1052E000EE0CFF1C001F111F0A94D2F786859785CC
:1052F000A089B189E80EF91E0A1F1B1F81E0809367
:10530000DE06E092D804F092D9040093DA041093F8
:10531000DB0480E092E0ECEDF4E0DF019C011D9203
:1053200021503040E1F7DD24D39411C0B801A7012A
:105330004D0D511D611D711D8091DC069091DD06A2
:105340002CED34E00E94CC1E882301F1D394E98D2A
:10535000FA8D8481D81650F320E032E040E050E02E
:10536000058404C0220F331F441F551F0A94D2F72F
:1053700089899A89AB89BC89820F931FA41FB51FA5
:10538000898B9A8BAB8BBC8B81E001C080E0DF9175
:10539000CF911F910F91FF90EF90DF9008958F9222
:1053A0009F92AF92BF92CF92DF92EF92FF920F93B4
:1053B0001F93CF93DF936C01EB01942E852EA22EC9
:1053C000898D9A8DD6015A969C938E935997CB01CD
:1053D00040E050E060E070E00E94A421BB2438C0AF
:1053E000CE010E94F224FC01009709F493C055E01D
:1053F00016950795F794E7945A95D1F71E2D1F70CF
:105400008081882311F0853EC9F4BB2099F4209156
:10541000D8043091D9044091DA045091DB04D601CC
:105420001C962D933D934D935C931F9750961C9320
:10543000BB24B3948081882359F418C0892D982DFA
:10544000BF014BE050E00E94FE04009709F470C0D9
:10545000E884F9840A851B8589899A89AB89BC8986
:10546000E816F9060A071B0708F4BACFA6FE52C0D1
:10547000A1FE50C0BB2051F0F6011089C60161E0C9
:105480000E944D22EC01009769F444C08B81823068
:1054900009F440C0CE010E9443298823D9F110E0CD
:1054A000CCEDD4E080E2DE011D928A95E9F7DE01C1
:1054B000292D382DC901FC018BE001900D928150FE
:1054C000E1F7E091D204F091D304309739F0BE01B6
:1054D000625F7F4FCE014096099508C081E298E255
:1054E000998B888B80E098E09F878E87888999893F
:1054F0009B8B8A8B998F888F8E859F859F8B8E8BB8
:105500000E94372D882331F0C601612F4A2D0E9459
:10551000B82501C080E0DF91CF911F910F91FF90DE
:10552000EF90DF90CF90BF90AF909F908F900895B5
:10553000A7FEEACFEFCF2F923F924F925F926F92EA
:105540007F928F929F92AF92BF92CF92DF92EF9213
:10555000FF920F931F93DF93CF93CDB7DEB7C6545F
:10556000D0400FB6F894DEBF0FBECDBF3C016B013B
:10557000DE01AE5BBF4F11965C934E9325962FAF25
:1055800025971C861F861FA21AA66115710509F4AE
:1055900080C0FC018381882309F07BC0FA018081EF
:1055A0008F32F1F08601ECE0EE2EF12CEC0EFD1EB8
:1055B00072E4A72EB12CAC0EBD1E4E010894811CC6
:1055C000911C2796FFAEEEAE279767E2262E312C70
:1055D0002C0E3D1E270124C01196B183A08301C06B
:1055E000FD01A081B1818C918F32B1F3D601139668
:1055F0008C91139782508230A8F28E01095D1F4F63
:1056000059966D917C915A97C8010E94652588230F
:1056100051F63FC0342D252D8701832F922F7C0119
:10562000F50180819181B401A5010E945621882352
:1056300029F42FC03196D501ED93FC93D501ED915E
:10564000FC9180818F32B1F38823C9F0C701B80182
:10565000A40121E00E94CF298823D9F00C151D0553
:1056600019F0C8010E94BC222796EEADFFAD279726
:10567000EE16FF0679F6C101322D292FCDCFC301D9
:10568000B801A40125962FAD25970E94CF29182F88
:1056900001C010E0CE0187960E94C622CE010C9672
:1056A0000E94C622812FCA5BDF4F0FB6F894DEBF7F
:1056B0000FBECDBFCF91DF911F910F91FF90EF9063
:1056C000DF90CF90BF90AF909F908F907F906F9022
:1056D0005F904F903F902F900895EF92FF920F931D
:1056E0001F93DF93CF93CDB7DEB7A0970FB6F89493
:1056F000DEBF0FBECDBF8C017B01DB0113968C9109
:10570000823008F485C0C80123EC0E94CF29882389
:1057100009F47EC081E0F801818384E08383C801BD
:105720000E944329882309F473C0C8010E946E2295
:10573000882309F46DC0C80161E00E944D22FC017C
:10574000009709F465C080E18387DE01119680E24D
:1057500001900D928150E1F78EE28983FE0132962D
:1057600020E2CE010C962193E817F907E1F7D80162
:105770005996ED91FC915A9755966D917D918D9129
:105780009C9158976250704080409040058404C0BE
:10579000660F771F881F991F0A94D2F726853785D1
:1057A00040895189620F731F841F951F41E00E9439
:1057B000722D882369F1ACEDB4E0FE01319680E2F0
:1057C00001900D928150E1F78EE28A83F701838187
:1057D0008250823028F41C8E1B8E1E8A1D8A0CC0BB
:1057E000F70185899689A789B08D9C8F8B8FCD0114
:1057F000AA27BB279E8B8D8BACEFB4E0FE013196C0
:1058000080E201900D928150E1F70E94372D01C096
:1058100080E0A0960FB6F894DEBF0FBECDBFCF914B
:10582000DF911F910F91FF90EF9008952F923F927B
:105830004F925F926F927F928F929F92AF92BF92A0
:10584000CF92DF92EF92FF920F931F93DF93CF934C
:10585000CDB7DEB7C654D0400FB6F894DEBF0FBE4A
:10586000CDBF3C016B01DE01AE5BBF4F11965C9377
:105870004E9325962FAF25971C861F861FA21AA62A
:105880006115710509F486C0FC018381882309F044
:1058900081C0A4C086018CE0E82EF12CEC0EFD1E28
:1058A000B2E4AB2EB12CAC0EBD1E4E010894811C8F
:1058B000911C2796FFAEEEAE2797A7E22A2E312C39
:1058C0002C0E3D1E270124C01196B183A08301C078
:1058D000FD01A081B1818C918F32B1F3D601139675
:1058E0008C91139782508230A8F28E01095D1F4F70
:1058F00059966D917C915A97C8010E94652588231D
:1059000051F648C0342D252D8701832F922F7C011D
:10591000F50180819181B401A5010E94562188235F
:1059200029F438C03196D501ED93FC93D501ED9162
:10593000FC9180818F32B1F3882329F1C701B8012E
:10594000A40121E00E94CF29882361F42596BFADF0
:105950002597BB23F9F0C701B801A4010E946D2B64
:105960008823C1F00C151D0519F0C8010E94BC2246
:105970002796EEADFFAD2797EE16FF0619F6C1018B
:10598000322D292FC1CFC301B801A4010E946D2B74
:10599000182F01C010E0CE0187960E94C622CE01CA
:1059A0000C960E94C622812FCA5BDF4F0FB6F89477
:1059B000DEBF0FBECDBFCF91DF911F910F91FF9042
:1059C000EF90DF90CF90BF90AF909F908F907F909F
:1059D0006F905F904F903F902F900895ED91FC91C4
:1059E000119780818F3209F055CF72CF8091C1001D
:1059F00085FDFCCF8091C00085FFF8CF6093C60085
:105A000081E090E008951092D7041092D60488E1C6
:105A100091E09093D5048093D4040895DB010D9018
:105A20000020E9F71197A61BB70B0496AD010E9461
:105A300092270895DF93CF930F92CDB7DEB7698396
:105A40000496BE016F5F7F4F41E050E00E949227B5
:105A500020E030E0019711F421E030E0C9010F901F
:105A6000CF91DF91089504960E9492270895809126
:105A7000DE06882399F14091D8045091D9046091B1
:105A8000DA047091DB048091DC069091DD062CED48
:105A900034E00E94CC1E882319F14091DF0650911A
:105AA000E0066091E1067091E2064115510561053D
:105AB000710591F08091DC069091DD062CED34E0CB
:105AC0000E94CC1E882361F01092DF061092E0063F
:105AD0001092E1061092E2061092DE0681E008952F
