:100000000C948C040C94B4040C94B4040C94B404B8
:100010000C94B4040C94B4040C94B4040C94B40480
:100020000C94B4040C94B4040C94B4040C94B40470
:100030000C94B4040C94B4040C94B4040C94B40460
:100040000C940D2E0C94B4040C949C2D0C94D12D76
:100050000C94B4040C94B4040C94B4040C94B40440
:100060000C94B4040C94B40445786974696E670008
:100070000A0D4E756D626572206F6620657363614F
:1000800070652063686172616374657273206E6568
:10009000656465643A20000A0D456E746572206ED1
:1000A000756D626572206F6620657363617065208F
:1000B0006368617261637465727320746F206C6F22
:1000C0006F6B20666F7220283020746F20323534B9
:1000D000293A20000A0D4E657720657363617065CB
:1000E000206368617261637465723A2000456E74C2
:1000F00065722061206E657720657363617065208D
:100100006368617261637465723A20004E6577209E
:1001100066696C65206E756D6265722072657365C7
:100120007420746F207A65726F00436F6D6D616E1D
:10013000642070726F6D707400417070656E642021
:1001400066696C65206C6F6767696E67004E6577DE
:100150002066696C65206C6F6767696E67003E009A
:1001600078292045786974003629204E756D6265BE
:1001700072206F66206573636170652063686172C9
:10018000616374657273003529204E65772065734D
:1001900063617065206368617261637465720034C5
:1001A00029205265736574206E65772066696C65D9
:1001B000206E756D62657200332920436F6D6D612D
:1001C0006E642070726F6D707400322920417070FF
:1001D000656E642066696C65206C6F6767696E6721
:1001E000003129204E65772066696C65206C6F6749
:1001F00067696E67004368616E676520746F3A00D7
:100200002078200043757272656E74206573636197
:1002100070652063686172616374657220616E64E9
:1002200020616D6F756E743A2000436F6D6D616E65
:100230006400417070656E642066696C65004E658F
:10024000772066696C650043757272656E74206212
:100250006F6F74206D6F64653A20000D0A537973D7
:1002600074656D20436F6E66696775726174696F3E
:100270006E0062707300476F696E6720746F2000B4
:100280004F7574206F6620626F756E6473004578D9
:100290006974696E67003E00456E746572206E6514
:1002A0007720626175642072617465202827782741
:1002B00020746F2065786974293A00206270730099
:1002C0000A0D43757272656E7420726174653A200E
:1002D00000626175640909093A204D656E752074E4
:1002E0006F20636F6E666967757265206261756401
:1002F0002072617465007365740909093A204D65BF
:100300006E7520746F20636F6E6669677572652005
:1003100073797374656D206D6F64650072657365C4
:10032000740909093A2043617573657320756E6914
:100330007420746F2072657365742C2075736573F7
:1003400020706172616D657465727320696E2063DF
:100350006F6E6669672066696C65006469736B0916
:1003600009093A2053686F777320636172642069CA
:100370006E666F726D6174696F6E0073697A652065
:100380003C66696C653E09093A20577269746520BC
:1003900073697A65206F66203C66696C653E2074DF
:1003A0006F207465726D696E616C007265616420A6
:1003B0003C66696C653E203C73746172743E203CFF
:1003C0006C656E6774683E203C747970653E3A20B7
:1003D0004F757470757473203C6C656E6774683EFD
:1003E000206279746573206F66203C66696C653E97
:1003F00020746F20746865207465726D696E616C1D
:10040000207374617274696E67206174203C737428
:100410006172743E2E204F6D6974203C737461725A
:10042000743E20616E64203C6C656E6774683E208B
:10043000746F20726561642077686F6C65206669EF
:100440006C652E203C747970653E20312070726995
:100450006E747320696E2041534349492C20322029
:10046000696E204845582E006C730909093A2053DB
:10047000686F77732074686520636F6E74656E743F
:10048000206F66207468652063757272656E7420D3
:100490006469726563746F72792E2E006D64203CFE
:1004A0006469726563746F72793E09093A20437218
:1004B00065617465732061203C6469726563746F63
:1004C00072793E00617070656E64203C66696C658F
:1004D0003E09093A20417070656E64732074657836
:1004E0007420746F20656E64206F66203C66696CB2
:1004F000653E006E6577203C66696C653E09093A89
:100500002043726561746573203C66696C653E00CA
:10051000426173696320636F6D6D616E64733A004D
:100520004F70656E4C6F672076332E3300646972AE
:100530006563746F7279206E6F7420666F756E6478
:100540003A200063616E6E6F7420636420746F20C4
:10055000706172656E74206469726563746F72791C
:100560003A20002E2E002000756E6B6E6F776E2085
:10057000636F6D6D616E643A20006F6666006F6E2A
:100580000065656D006F6666006F6E00766572626D
:100590006F7365006F6666006F6E006563686F005D
:1005A0005C002E5C0070776400617070656E6400A2
:1005B0004572726F72206372656174696E6720663E
:1005C000696C653A20006E6577007265736574002A
:1005D00073796E6300204B4200436172642053695B
:1005E0007A653A200072656164435344206661690C
:1005F0006C6564002F004D616E7566616374757281
:10060000696E6720646174653A20005365726961A0
:100610006C206E756D6265723A20002E000A0D56D0
:10062000657273696F6E3A200050726F64756374FF
:100630003A20004F454D2049443A20004D616E75E7
:1006400066616374757265722049443A2000726570
:100650006164434944206661696C656400556E6B52
:100660006E6F776E00534448430053443200534446
:1006700031000A4361726420747970653A20006425
:1006800069736B002D310073697A65006572726F52
:10069000722077726974696E6720746F2066696C66
:1006A000650A0D003C004572726F72207365656BC0
:1006B000696E6720746F20004661696C6564207400
:1006C0006F206F70656E2066696C652000777269B7
:1006D00074650020002E004572726F72207365658C
:1006E0006B696E6720746F20004661696C656420D9
:1006F000746F206F70656E2066696C65200072658E
:100700006164006364002066696C65287329206455
:10071000656C65746564002D726600726D006572AB
:10072000726F72206372656174696E6720646972AA
:100730006563746F72793A20006D6400566F6C7552
:100740006D6520697320464154006C7300736574B5
:1007500000626175640068656C70003F0046696CFA
:10076000652073797374656D20696E697469616C55
:10077000697A656400436C6F73696E6720646F7794
:100780006E2066696C652073797374656D00696E9F
:100790006974003E002100626175642C65736361B9
:1007A00070652C657363232C6D6F64652C766572A0
:1007B000622C6563686F2C69676E6F7265525800B2
:1007C000006572726F722077726974696E67207447
:1007D0006F2066696C6500256C642C25642C25648B
:1007E0002C25642C25642C25642C25640000437280
:1007F0006561746520636F6E666967206661696C08
:1008000065640052656D6F766520636F6E6669671B
:10081000206661696C656400636F6E6669672E743B
:10082000787400636F6E6669672E747874007E005A
:100830003C004572726F72206372656174696E6705
:10084000205345514C4F470A005345514C4F4730B8
:10085000302E5458540021546F6F206D616E7920F2
:100860006C6F67733A3221004C4F47253035752E37
:100870005458540021546F6F206D616E79206C6F55
:1008800067733A3121003200310066696C652E6F62
:1008900070656E00726F6F742E696E697400766F8A
:1008A0006C756D652E696E697400636172642E6982
:1008B0006E6974004572726F7220000000000800BB
:1008C0000201000003040700000000000000000116
:1008D00002040810204080010204081020010204D4
:1008E00008102004040404040404040202020202A6
:1008F0000203030303030300000000230026002972
:100900000000000000250028002B0000000000244B
:100910000027002A0000A61811241FBECFEFD8E040
:10092000DEBFCDBF11E0A0E0B1E0EEE9F9E602C024
:1009300005900D92AC33B107D9F726E0ACE3B1E0F6
:1009400001C01D92AB3FB207E1F719E0C8E1D9E061
:1009500004C02297FE010E945E31C631D107C9F75B
:100960000E94AB2F0C94CD340C9400008091C000F9
:1009700085FFFCCF6093C60081E090E00895CF92A0
:10098000DF92EF92FF920F931F93CF93DF938C012F
:100990007A01EB016B01C40ED51ECC15DD0551F0BB
:1009A0006991D801ED91FC910190F081E02DC80191
:1009B0000995F3CFC701DF91CF911F910F91FF9060
:1009C000EF90DF90CF900895089504960C94432300
:1009D000895D9D4FFC01808191810C94731A895D22
:1009E0009D4FFC01808191810C947F1B89EE96E0E4
:1009F0000C94EE2CCF93DF931F92CDB7DEB7BE01E0
:100A00006F5F7F4F89EE96E00E94012D882319F0D9
:100A1000898190E002C08FEF9FEF0F90DF91CF911F
:100A2000089589EE96E00C946B2D0C94DA330C94B7
:100A3000E233EF92FF920F931F93CF93DF938C01DA
:100A40007C0180E8E80EF11CE801CE15DF0550F0CE
:100A5000CE01801B910BDF91CF911F910F91FF90E1
:100A6000EF9008952091EB063091EC068091ED0611
:100A70009091EE062817390759F3A7014C1B5D0B1F
:100A8000BE0189EE96E00E94222DC80FD91FDDCF4E
:100A9000CF92DF92EF92FF926B017C011092C10026
:100AA00086E08093C20060E079E08DE390E0A701EA
:100AB00096010E942F31C901213060E2360730F4DF
:100AC000C11461EED606E104F10431F41092C000C5
:100AD000C9019695879503C022E02093C000019735
:100AE000969587959093C5008093C40088E980937C
:100AF000C100FF90EF90DF90CF900895CF93DF93E8
:100B00001F92CDB7DEB7698341E050E0BE016F5F51
:100B10007F4F04960E9443230F90DF91CF91089559
:100B2000CF93DF931F92CDB7DEB741E050E0BE0117
:100B30006F5F7F4F0E94A41C019719F4898190E098
:100B400002C08FEF9FEF0F90DF91CF910895FC01CE
:100B500014821582138212828EE091E09183808349
:100B60000895EF92FF920F931F93CF93DF93EC01C1
:100B70007B018C01095D1D4FF8017183608361E089
:100B80000E94F02B81110DC0F801F182E08260E03B
:100B9000CE01DF91CF911F910F91FF90EF900C94B8
:100BA000F02B81E0DF91CF911F910F91FF90EF909B
:100BB0000895CF92DF92EF92FF920F931F93CF93FE
:100BC000DF93CDB7DEB7E1970FB6F894DEBF0FBE67
:100BD000CDBFCE0101960E94A70583E090E00E9460
:100BE0001505182F84E090E00E941505E12EF12CE8
:100BF000F82A1F3F79F48F3F69F460E083E090E0CA
:100C00000E94170560E084E090E00E941705E12C47
:100C1000F12C08C08EEFE8168FEFF80619F464E7A0
:100C200078E044C048E6C42E48E0D42E8E010B5D27
:100C30001F4FFF92EF92DF92CF921F930F930E946C
:100C4000E63122ECA80168E771E0CE0105960E942A
:100C500074210F900F900F900F900F900F908111B3
:100C60002CC021E0A80168E771E0CE0105960E9442
:100C70007421882389F08D8D9E8DAF8DB8A1892B2D
:100C80008A2B8B2B29F4CE0105960E946B212CC058
:100C9000CE0105960E946B218FEFE81AF80A8EEFBD
:100CA000E8168FEFF80628F266E578E083EE93E029
:100CB0000E94BA2F80E090E018C0CE0105960E94F5
:100CC0006B218FEFE81AF80A6E2D83E090E00E9406
:100CD000170584E090E00E9415058F1529F06F2D0F
:100CE00084E090E00E941705C801E1960FB6F894E1
:100CF000DEBF0FBECDBFDF91CF911F910F91FF904F
:100D0000EF90DF90CF900895C0E0D0E0082F10E082
:100D1000C017D107B4F461E085E00E944B2F68EC66
:100D200070E080E090E00E94862E60E085E00E9406
:100D30004B2F68EC70E080E090E00E94862E2196B8
:100D4000E7CF60ED77E080E090E00E94862EC0E083
:100D5000D0E0DECFCF93C82F64EB78E083EE93E052
:100D60000E94BA2FC73069F028F4C630B1F46AEA9D
:100D700078E009C0C83071F0C93079F46AE878E0E9
:100D800002C06EE978E083EE93E00E94BA2F83E020
:100D90000E94840664E978E0F6CFCF910895CF925F
:100DA000DF92EF92FF926B017C016E2D89E090E063
:100DB0000E9417059927F7FC9A958F2D7E2D6D2D92
:100DC0008AE090E00E9417056C2D8BE090E0FF9088
:100DD000EF90DF90CF900C94170560E875E280E00B
:100DE00090E00E94CF0660E082E090E00E9417054C
:100DF0006AE185E090E00E94170563E086E090E0FC
:100E00000E94170561E087E090E00E94170561E00D
:100E100088E090E00E94170560E08CE090E00C9480
:100E20001705CF93DF9389E090E00E941505C82F46
:100E30008AE090E00E941505D82F8BE090E00E9498
:100E400015054D2F50E060E070E0762F652F542F90
:100E50004427482B6C2BCB01BA01DF91CF91089529
:100E60000F931F930E9411078B019C010C5211409C
:100E700021093109053111442F40310548F46093AF
:100E8000700170937101809372019093730112C08D
:100E900080E895E2A0E0B0E080937001909371014A
:100EA000A0937201B093730160E875E280E090E076
:100EB0000E94CF0682E090E00E941505863018F46B
:100EC00080936F0107C010926F0160E082E090E0B4
:100ED0000E94170585E090E00E9415059FEF980F8E
:100EE0009E3F18F480936E0108C08AE180936E01E2
:100EF0006AE185E090E00E94170586E090E00E949C
:100F0000150580936D018F3F41F483E080936D015F
:100F100063E086E090E00E94170511E010936C01F9
:100F200061E087E090E00E94170510936B0161E09B
:100F300088E090E00E94170590916C018091060175
:100F4000913011F4826001C08D7F809306019091F1
:100F50006B0180910601913011F4816001C08E7F98
:100F6000809306018CE090E00E941505823028F401
:100F700080936A011F910F91089510926A0160E0B9
:100F80008CE090E01F910F910C941705BF92CF92C7
:100F9000DF92EF92FF920F931F93CF93DF93CDB722
:100FA000DEB7C459D1090FB6F894DEBF0FBECDBF6E
:100FB000CE01825B9F4F0E94A705CE018A960E94B8
:100FC000A70568E971E08EE490E08C0F9D1F049600
:100FD0000E948A1C811103C088E00E94AA0668E171
:100FE00078E0CE0187579F4F0E9498310EE410E0C1
:100FF0000C0F1D1F0C5F1F4F22E0AE0147575F4FC4
:10100000B801CE018E960E947421882349F0CE014A
:101010008E960E94E325811103C063E078E013C03F
:101020000EE410E00C0F1D1F0C5F1F4F26E4AE01F5
:1010300047575F4FB801CE018E960E9474218111EF
:101040000CC06EEE77E083EE93E00E94EC2FCE01B1
:101050008E960E946B21C8019AC00E941107182F1A
:10106000092F85E090E0CD56DF4F6883C359D0400B
:10107000CC56DF4F7883C459D0400E941505F82E16
:1010800086E090E00E941505E82E82E090E00E9444
:101090001505D82E87E090E00E941505C82E88E03F
:1010A00090E00E941505B82E8CE090E00E94150596
:1010B0001F928F931F92BF921F92CF921F92DF9227
:1010C0001F92EF921F92FF920F931F93CC56DF4F08
:1010D0007881C459D0407F93CD56DF4F6881C35982
:1010E000D0406F9387ED97E09F938F938E010E58BA
:1010F0001F4F1F930F930E94E631F80101900020CB
:10110000E9F7AF0141505109401B510BB801CE0125
:101110008E960E944323F80101900020E9F7319751
:10112000E01BF10B0FB6F894DEBF0FBECDBF8E17DC
:101130009F0731F061EC77E083EE93E00E94EC2FA3
:10114000CE018A960E94E82F67E977E08E010F5F53
:101150001F4FC8010E949831F80101900020E9F763
:10116000AF0141505109401B510BB801CE018E9681
:101170000E944323CE018E960E941921CE018E96A5
:101180000E946B218EE490E08C0F9D1F04960E94BC
:101190006B21CC56DF4F0FB6F894DEBF0FBECDBF2C
:1011A000DF91CF911F910F91FF90EF90DF90CF9043
:1011B000BF9008958091C903882331F08091D503B1
:1011C000811104C081E0089580E008958FEF0895B3
:1011D000DF92EF92FF920F931F93CF93DF93CDB7E0
:1011E000DEB7A5970FB6F894DEBF0FBECDBF8C015A
:1011F000CE0101960E94A70563E675E0C8010E9432
:101200008F31892B09F066C088E791E00E946B213D
:1012100068E971E088E791E00E948A1C811103C0AF
:1012200088E00E94AA060E94DA08EE24EA94E80EFA
:10123000E7FC3BC0F12C41E0F0E2DF2EFE1444F568
:101240002CE03F2D3203A001112447535C4F21E0D5
:1012500068E771E0CE0105960E947421482F88232B
:10126000B9F0FE013596A8E7B1E08D2D01900D9201
:101270008A95E1F72B813C813093770120937601A9
:10128000CE0105964DA30E946B21F3944DA1D6CFBC
:101290008E2D9CE08902F0011124E753FC4F8BE076
:1012A000DF011D928A95E9F701C041E080910601B6
:1012B00081FF4BC0411146C063E475E083EE93E0CB
:1012C0004DA30E94BA2FB80183EE93E00E94FE2F37
:1012D0004DA13BC021E0A80168E771E0CE01059671
:1012E0000E947421811110C08091060181FF2CC0E1
:1012F0006DE275E083EE93E00E94BA2FB80183EEB1
:1013000093E00E94FE2F20C080E2FE013596A8E700
:10131000B1E001900D928A95E1F78B819C819093C9
:101320007701809376010E94DA0887FD0BC0BCE04C
:101330008B02C00111244BE050E0B80187539C4F51
:101340000E94C53141E001C040E0842FA5960FB650
:10135000F894DEBF0FBECDBFDF91CF911F910F91EB
:10136000FF90EF90DF90089560E275E083EE93E0E8
:101370000E94EC2F60E175E083EE93E00E94EC2F79
:1013800063EF74E083EE93E00E94EC2F64EC74E072
:1013900083EE93E00E94EC2F6CE974E083EE93E01F
:1013A0000E94EC2F68E674E083EE93E00E94EC2F3D
:1013B0006BEA73E083EE93E00E94EC2F6BE773E03F
:1013C00083EE93E00E94EC2F6BE573E083EE93E0F5
:1013D0000E94EC2F6CE173E083EE93E00E94EC2F0F
:1013E00066EF72E083EE93E00E94EC2F61ED72E015
:1013F00083EE93E00C94EC2FCF9382E090E00E9478
:101400001505C82F6BE572E083EE93E00E94EC2F88
:1014100067E472E083EE93E00E94BA2FC11103C02B
:101420006EE372E009C0C13019F462E372E004C0F7
:10143000C23031F46AE272E083EE93E00E94BA2F88
:1014400083EE93E00E94E82F64E072E083EE93E085
:101450000E94BA2F4AE050E060916E0183EE93E063
:101460000E94EA3060E072E083EE93E00E94BA2FBF
:101470004AE050E060916D0183EE93E00E94F1300C
:1014800065EF71E083EE93E00E94EC2F61EE71E076
:1014900083EE93E00E94EC2F6AEC71E083EE93E020
:1014A0000E94EC2F68EB71E083EE93E00E94EC2F3A
:1014B0006FE971E083EE93E00E94EC2F67E871E042
:1014C00083EE93E00E94EC2F68E671E083EE93E0F8
:1014D0000E94EC2F60E671E083EE93E00E94EC2F17
:1014E0006EE571E083EE93E00E94BA2F89EE96E0FC
:1014F0000E94EE2C892BD1F383EE93E00E94FA0434
:10150000813341F46DE471E083EE93E00E94EC2FAF
:1015100060E009C0823371F469E371E083EE93E027
:101520000E94EC2F61E082E090E00E941705CF91CD
:101530000C94C607833341F46AE271E083EE93E0D2
:101540000E94EC2F62E0EFCF843389F46CE071E00D
:1015500083EE93E00E94EC2F60E083E090E00E9435
:10156000170560E084E090E0CF910C941705853377
:1015700021F56DEE70E083EE93E00E94BA2F89EEC4
:1015800096E00E94EE2C892BD1F383EE93E00E942B
:10159000FA0480936E01682F85E090E00E941705A1
:1015A0000E94C60764ED70E083EE93E00E94BA2FBC
:1015B0004AE050E060916E0128C0863359F567E932
:1015C00070E083EE93E00E94BA2F89EE96E00E94CD
:1015D000EE2C892BD1F383EE93E00E94FA0460EDA8
:1015E000680F6F3F61F360936D0186E090E00E94A9
:1015F00017050E94C60760E770E083EE93E00E9443
:10160000BA2F4AE050E060916D0183EE93E0CF91F4
:101610000C94F130883709F0F5CE68E670E083EE7F
:1016200093E0CF910C94EC2FCF93FC0120E030E0BD
:10163000A901C19180ED8C0F8A3098F4AAE0B0E046
:101640000E9451312C2F332727FD3095205331092B
:10165000442737FD4095542F260F371F481F591F29
:10166000E8CFCA01B901CF9108953F924F925F929E
:101670006F927F928F929F92AF92BF92CF92DF92A2
:10168000EF92FF920F931F93CF93DF93CDB7DEB707
:10169000C257D1090FB6F894DEBF0FBECDBFCE0141
:1016A00085960E94A705CE0101960E94A70568E9CC
:1016B00071E0CE0189960E948A1C811103C088E0E6
:1016C0000E94AA0663E278E0CE01805A9F4F0E94F2
:1016D000983121E0AE01405A5F4FBE01675D7F4FF8
:1016E000CE0105960E947421882341F07E0139E4E1
:1016F000E30EF11C00E010E0570113C0CE01059687
:101700000E946B21CE0189960E946B210E94C60720
:1017100033C1F70181937F010F5F1F4F073111051F
:1017200031F0CE0105960E949005181694F3CE0173
:1017300005960E946B21CE0189960E946B2120E0C4
:1017400040E0712C992493948824839493E0692E2B
:101750003AE1532E312C50E8C52E55E2D52EE12C1E
:10176000F12C842F90E08017910784F08091700114
:1017700090917101A0917201B0917301C816D906C0
:10178000EA06FB0609F086C080E095C0FE01E65936
:10179000FF4F30E0432E440E842D90E0D501A80F7A
:1017A000B91F5C915C3241F0801791072CF4363000
:1017B00019F051933F5FEECFEAE6F0E0EC0FFD1F2A
:1017C000E30FF11D1082CE0186599F4FE3962FAF94
:1017D000E3970E947131E3962FADE39721111BC06F
:1017E000CE0186599F4F0E94140B6B017C01FCE2D5
:1017F000CF1AF1E0DF0AE108F108E3962FADE39795
:1018000035E1C31631E4D3063FE0E306F10470F599
:101810006B017C013BC0213021F4181674F5582E61
:1018200035C0223021F48F3F59F1682E2FC023306C
:1018300031F49FEF980F923030F5382E27C02430C6
:1018400031F4882E882311F1882483941FC0253019
:1018500031F4982E8823D1F09924939417C0263020
:1018600009F084CF823088F4782E10C080E8C82E2A
:1018700085E2D82EE12CF12C09C0BAE15B2E06C01E
:10188000A3E06A2E03C0312C01C0712C2F5F41E010
:10189000440D67CFC701B6010E94CF06C092700108
:1018A000D0927101E0927201F0927301C701B6010A
:1018B0000E94480581E090916F01391641F0309205
:1018C0006F01632D82E090E00E94170581E0909106
:1018D0006E01591641F050926E01652D85E090E041
:1018E0000E94170581E090916D01691641F06092A8
:1018F0006D01662D86E090E00E94170581E09091D1
:101900006C01891641F080926C01682D87E090E0AF
:101910000E94170581E090916B01991641F0909219
:101920006B01692D88E090E00E94170581E090919D
:101930006A01791641F070926A01672D8CE090E09F
:101940000E94170501C081110E94C60790916C0189
:1019500080910601913011F4826001C08D7F8093E7
:10196000060190916B0180910601913011F4816024
:1019700001C08E7F80930601CE58DF4F0FB6F894DA
:10198000DEBF0FBECDBFDF91CF911F910F91FF90B2
:10199000EF90DF90CF90BF90AF909F908F907F900F
:1019A0006F905F904F903F900895EDE5F1E080E0FB
:1019B000DF0112972D913C91232B19F09081911109
:1019C0008F5F339691E0EC36F90791F708959EE129
:1019D000EDE3F1E0DF011D929A95E9F78530D0F44F
:1019E00090E0FC01EE0FFF1FE80FF91FE55AFE4FD4
:1019F000608171816115710569F04281442351F064
:101A00004F3110F450E002C04EE150E08DE391E020
:101A10000C94C53180E090E008950F931F93CF930D
:101A2000DF931F92CDB7DEB78C0169830E94D50C7E
:101A30006981853060F4282F30E0F901EE0FFF1F37
:101A4000E20FF31FE55AFE4F1183008362830F906C
:101A5000DF91CF911F910F910895EF92FF920F9315
:101A60001F93CF93DF93EC01E62E8FE0EBE5F1E0DF
:101A7000DF011D928A95E9F7FF24F39440E0062FD9
:101A800010E0FE14F8F42F2D30E0FE01E20FF31FFA
:101A90008081803229F0C90101968017910781F475
:101AA0002F5F3F4F2017310709F4FE2C6F2D641B69
:101AB000CE01840F911D0E940D0D41E04F0DF42EBB
:101AC000F394DFCFDF91CF911F910F91FF90EF90B3
:101AD0000C94D50CFC0170E09F01281B390B2617D4
:101AE000370764F42191332727FD309520533109BE
:101AF0002A30310588F380E090E008950895CF936F
:101B0000DF93DB01FC01EB013991BE01311105C00E
:101B100040E050E020E030E017C0EC012991CE0118
:101B20002A32B1F3231769F32F3359F324C080818C
:101B30008A3271F4CF01019621812223F1F09D01B7
:101B40002F5F3F4FAC01FC019C919111F0CF0DC074
:101B5000891711F08F3321F4CF0101961196F3CF3D
:101B6000D9012F5F3F4FCA01EECF91919A32E9F32D
:101B700081E0992319F080E001C081E0DF91CF91ED
:101B80000895CF93C82F0E94812F892B11F060E018
:101B900001C061E08C2FCF910C944B2FCF9360E06C
:101BA00080E00E94122F61E080E00E944B2F80E0D5
:101BB0000E94812F019709F471C061E08DE00E94BD
:101BC000122F61E08DE00E944B2FC8E269E170E0C6
:101BD00080E090E00E94862E85E00E94C10D80E0AA
:101BE0000E94812F019709F459C069E170E080E0FB
:101BF00090E00E94862E8DE00E94C10D80E00E9440
:101C0000812F019709F44AC0C15001F70E94ED06E7
:101C100022E04AE068EC73E081EC93E00E94C41992
:101C2000811103C086E00E94AA0661EC73E088E996
:101C300091E00E94B105811103C087E00E94AA06CD
:101C400088E791E00E946B2168E971E088E791E004
:101C50000E948A1C811103C088E00E94AA060E948B
:101C6000C60761E085E00E94122F61E08DE00E94CE
:101C7000122F61E085E00E944B2F61E08DE00E9411
:101C80004B2F64EF71E080E090E00E94862E85E0AB
:101C90000E94C10D8DE00E94C10DF3CFCF91089538
:101CA00061E085E00E94122F83B7817F83BF83B7F5
:101CB000816083BF80917A008F7780937A0080E87B
:101CC00080BF8FE380937E0083E080937F008091CC
:101CD00064008068809364008091640088608093D1
:101CE000640080916400806480936400809164004B
:101CF0008160809364000E94300760917001709150
:101D0000710180917201909173010E944805809148
:101D1000700190917101A0917201B0917301843FA3
:101D200021E09207A105B105D4F49C01AD01E4E0E6
:101D3000220F331F441F551FEA95D1F760E074E26C
:101D400084EF90E00E942F31215031093093C5007B
:101D50002093C4008091C0008D7F8093C00068E80C
:101D600078E083EE93E00E94BA2F22E04AE068EC2C
:101D700073E081EC93E00E94C419811103C086E0F6
:101D80000E94AA0661EC73E088E991E00E94B10527
:101D9000811103C087E00E94AA0688E791E00E94B3
:101DA0006B2168E971E088E791E00E948A1C81114B
:101DB00003C088E00E94AA0666E878E083EE93E01C
:101DC0000E94BA2F0E94350B80916A01811102C0D6
:101DD0000E94CE0D88E1E9ECF3E0DF011D928A95C7
:101DE000E9F70895AF92BF92CF92DF92EF92FF9200
:101DF0000F931F93CF93DF931F92CDB7DEB75C0194
:101E0000C62E062F10E0A80160E070E00E94BE31EF
:101E1000D12C780181E0E81AF1080D2D10E00E15A3
:101E20001F050CF04BC089EE96E00E94EE2C892B2A
:101E3000D1F383EE93E00E94FA04282F85E02983F2
:101E40000E94C10D2981283011F02F37C1F4DD2007
:101E500021F3DA94F501ED0DF11D108268E083EEB7
:101E600093E00E94E12F66E675E083EE93E00E9426
:101E7000BA2F68E083EE93E00E94E12FCECF8091ED
:101E8000060180FF07C0622F83EE93E029830E9442
:101E9000E12F29812D3049F483EE93E00E94E82F51
:101EA000F501E00FF11F108209C02A3009F4B5CF07
:101EB000F501E00FF11F2083D394AFCF6C2DC50146
:101EC0000E942D0D8D2D0F90DF91CF911F910F91BD
:101ED000FF90EF90DF90CF90BF90AF900895CF929A
:101EE000DF92EF92FF92CF93DF93CDB7DEB72897C3
:101EF0000FB6F894DEBF0FBECDBF0E9411076B0175
:101F00007C0160EC72E083EE93E00E94BA2F2AE03D
:101F100030E0B701A60183EE93E00E947B306BEBCB
:101F200072E083EE93E00E94EC2F68E972E083EEAA
:101F300093E00E94EC2F66E972E083EE93E00E944A
:101F4000BA2F68E0CE0101960E94F20E898188378F
:101F500019F46EE872E013C0CE0101960E94140BD2
:101F60006B017C01DC01CB018C529140A109B109CC
:101F700085319144AF40B10598F060E872E083EE9E
:101F800093E00E94EC2F28960FB6F894DEBF0FBEA8
:101F9000CDBFDF91CF91FF90EF90DF90CF9008956C
:101FA00066E772E083EE93E00E94BA2F2AE030E009
:101FB000B701A60183EE93E00E947B3062E772E0F6
:101FC00083EE93E00E94EC2FC701B6010E94CF067A
:101FD0000E94C60785E00E948406BF92CF92DF92DE
:101FE000EF92FF920F931F93CF93DF93CDB7DEB79E
:101FF000C45AD1090FB6F894DEBF0FBECDBF8C0115
:10200000CE018F579F4F0E94A70526E4A80168E7DD
:1020100071E081E890E08C0F9D1F04960E9474216E
:10202000811103C089E00E94AA06C356DF4F888150
:102030009981AA81BB81CD59D040892B8A2B8B2BCA
:1020400079F440E050E0BA0101E810E00C0F1D1FE8
:102050000C5F1F4FC8010E94361EC8010E94192143
:1020600060E378E083EE93E00E94BA2F61E085E0C0
:102070000E944B2F0E94572E6B017C0180916D01B5
:10208000882341F0B12C01E810E00C0F1D1F0C5FFC
:102090001F4FA1C001E810E00C0F1D1F0C5F1F4F68
:1020A000CE0101960E941905882321F1CF57DF4FF9
:1020B000E881F981C158D040AC0155270280F381F5
:1020C000E02DBE016F5F7F4FCE018F579F4F099567
:1020D00085E00E94C10D0E94572E6C197D098E0962
:1020E0009F096938734181059105D0F2C8010E94AA
:1020F00019212AC00E94572E6C197D098E099F094B
:10210000653F71408105910558F2C8010E9419216F
:102110005D98809164008062809364008091640087
:1021200084608093640083B7816083BF889583B7A0
:102130008E7F83BF809164008B7F80936400809149
:1021400064008F7D809364000E94572E6B017C0198
:10215000A7CFCE0101960E941905382F882309F4D4
:1021600045C0498120916E0142133EC0B394509105
:102170006D01FE01329621E0231730F46191641362
:1021800030C0B394B5122EC0CF57DF4FE881F9812C
:10219000C158D040AC0155270280F381E02DBE012B
:1021A0006F5F7F4FCE018F579F4F099585E00E944B
:1021B000C10D0E94572E6C197D098E099F0969383F
:1021C00073418105910538F0C8010E9419210E94D0
:1021D000572E6B017C0180916D01B81608F4B9CFC0
:1021E00035C0B12C2F5FC8CFB12CCECF0E94572E57
:1021F0006C197D098E099F09653F71408105910524
:1022000050F3C8010E9419215D988091640080629A
:10221000809364008091640084608093640083B73D
:10222000816083BF889583B78E7F83BF8091640070
:102230008B7F80936400809164008F7D8093640025
:102240000E94572E6B017C01B12CC5CF01E810E034
:102250000C0F1D1F0C5F1F4FC8010E941921C801E0
:102260000E946B2160E085E00E944B2F6EE278E0D7
:1022700083EE93E00E94BA2F81E0CC55DF4F0FB67A
:10228000F894DEBF0FBECDBFDF91CF911F910F91AC
:10229000FF90EF90DF90CF90BF9008951F93CF9362
:1022A000DF93CDB7DEB7E0970FB6F894DEBF0FBE71
:1022B000CDBFCE0101960E94A70569E478E0CE016A
:1022C00085960E94983122E4AE014B5D5F4F68E72E
:1022D00071E0CE0105960E947421811107C062E36E
:1022E00078E083EE93E00E94BA2F1FC0CE010596DE
:1022F0000E946B2183E090E00E941505182F84E076
:1023000090E00E941505811102C0112351F060E098
:1023100083E090E00E94170560E084E090E00E9476
:102320001705CE0185960E94ED0FE0960FB6F89442
:10233000DEBF0FBECDBFDF91CF911F910895CF9328
:10234000DF93EC01E881F9810190F081E02D6DE0EF
:102350000995E881F9810190F081E02D6AE0CE01D4
:10236000099582E090E0DF91CF910895CF92DF92BE
:10237000EF92FF920F931F93CF93DF93CDB7DEB70A
:10238000E1970FB6F894DEBF0FBECDBF8C017B0185
:10239000D42EC22ECE0101960E94A705F8013496D4
:1023A000012B19F01E2F0F2F10C010E000E00DC000
:1023B000BE016B5D7F4FCE0105960E946829811199
:1023C0000EC0CE0105960E946B2141E0612F702F57
:1023D000CE0105960E94811F8111EACF52C08D81E6
:1023E000982F907719F4982F987159F383FF0AC0AA
:1023F000BE016B5D7F4FC7010E947F0D882309F3EB
:1024000001E001C002E010E01C1539F060E283EE4B
:1024100093E00E94B6041F5FF7CFBE016B5D7F4F54
:1024200083EE93E00E94DF2F182F8D8184FF06C07A
:102430006FE283EE93E00E94B604180F8D8183FF54
:1024400017C0D2FE15C060E283EE93E01E3020F488
:102450000E94B6041F5FF7CF0E94B6044D8D5E8DBB
:102460006F8D78A12AE030E083EE93E00E94DD30AA
:1024700083EE93E00E949F11CE0105960E946B218E
:10248000802FE1960FB6F894DEBF0FBECDBFDF916F
:10249000CF911F910F91FF90EF90DF90CF90089513
:1024A0006F927F928F929F92AF92BF92CF92DF9264
:1024B000EF92FF920F931F93CF93DF93CDB7DEB7C9
:1024C000A4970FB6F894DEBF0FBECDBF7C015B01B1
:1024D000942E822ECE0101960E94A705670184E00A
:1024E000C80ED11C40E050E0BA01C6010E94361E61
:1024F000E92DE8707E2EA2E06A2E680C282D492D69
:10250000B501C7010E94B6118823D9F18230B1F715
:102510007720A1F380913C01823080F7F701048994
:10252000158926893789F5E03695279517950795FA
:10253000FA95D1F7A80141505109E114F10419F4B9
:1025400060E070E001C0B60121E0CE0105960E9476
:10255000E71F882399F280913C018F5F80933C01B3
:10256000262D492DB501CE0101960E945012809171
:102570003C01815080933C01CE0105960E946B2165
:10258000BDCFA4960FB6F894DEBF0FBECDBFDF91CE
:10259000CF911F910F91FF90EF90DF90CF90BF9060
:1025A000AF909F908F907F906F900895CF92DF9221
:1025B000EF92FF920F931F93CF93DF938C017A01D9
:1025C000EB016B01C40ED51ECC15DD0561F0FE01DB
:1025D0006491D801ED91FC910190F081E02DC8014A
:1025E00009952196F1CFC701DF91CF911F910F91EE
:1025F000FF90EF90DF90CF9008950F931F93CF93AC
:10260000DF9300D0CDB7DEB78C01CB0169837A832D
:102610000E949F31AC0169817A81C8010F900F90AF
:10262000DF91CF911F910F910C94D612CF93DF932E
:10263000CDB7DEB7C857D1090FB6F894DEBF0FBECD
:10264000CDBFCE0185960E94A70511E001E037E6D7
:10265000232E312C2C0E3D1E83E0280E311CE7E684
:10266000F0E0EC0FFD1F3896E996FFAFEEAFE9976B
:102670008091060183FF05C06AE183EE93E00E942A
:10268000E12F111106C065E977E083EE93E00E9427
:10269000BA2F63E977E083EE93E00E94BA2F6EE1F0
:1026A000CE01875B9F4F0E94F20E811102C011E0A4
:1026B000DFCF80E00E94E70C7C016EE877E00E94AB
:1026C0008F31892B31F58091060181FF06C065E7C6
:1026D00077E083EE93E00E94EC2F88E791E00E9480
:1026E0006B2168E971E088E791E00E948A1C811102
:1026F00003C088E00E94AA0688E1E9ECF3E01192A9
:102700008A95E9F78091060181FFD1CF6DE577E0E9
:1027100008C56BE577E0C7010E948F31892B19F45A
:102720000E94B409C4CF66E577E0C7010E948F31EB
:10273000892BB1F361E577E0C7010E948F31892BC6
:1027400019F40E946F0FB3CF6DE477E0C7010E94C8
:102750008F31892B19F40E94FC09A9CF6AE477E034
:10276000C7010E948F31892B49F58091060181FFB5
:102770000EC06CE377E083EE93E00E94BA2F4AE04C
:1027800050E060919D0183EE93E00E94F1300E9441
:10279000D50C813029F48AE2F7018083118206C0CA
:1027A00081E00E94E70C7C010E94D43120E04CE0E3
:1027B000B70184E791E00E94501279CF69E377E096
:1027C000C7010E948F31892BE1F481E00E94E70C60
:1027D0007C01009709F4EDC3CE0101960E94A70584
:1027E00021E0A70168E771E0CE0105960E94B622BC
:1027F00081115DCF8091060181FFDBC36EE177E03F
:10280000CFC36BE177E0C7010E948F31892BA9F418
:1028100081E00E94E70C7C01009709F4CAC30E9482
:10282000D50C833009F0EEC367E177E0C7010E9461
:102830008F31892B09F4BFC3E5C363E077E0C7019B
:102840000E948F31892B49F481E00E94E70C0097A8
:1028500009F4AFC30E94E808DAC26EEF76E0C70160
:102860000E948F31892B09F0D4C081E00E94E70CCF
:102870007C01009709F49DC321E0AC0168E771E099
:10288000CE0189960E947421811107C080910601B2
:1028900081FF8FC369EE76E083C382E00E94E70C7C
:1028A000009761F1FC0101900020E9F7BF01615040
:1028B0007109681B790B0E946A0D7C010097F1F089
:1028C0000E94140BAB01BC01CE0189960E94361EFA
:1028D000811114C08091060181FF0BC067ED76E085
:1028E00083EE93E00E94BA2FB70183EE93E00E943B
:1028F000FE2FCE0189960E946B215BC383E00E946C
:10290000E70C009791F0FC0101900020E9F7BF016E
:1029100061507109681B790B0E946A0D009729F0BC
:102920000E94140B2B013C0104C044244A94542CF3
:10293000320184E00E94E70C009791F0FC010190C5
:102940000020E9F7BF0161507109681B790B0E94F3
:102950006A0D009729F00E94140B6B017C0104C0E2
:10296000C12CD12C7601C394812C912C54018394D9
:10297000CE0189960E949005BC0197FD3DC0481488
:1029800059046A047B04C0F1F1E0CF16D104E104DC
:10299000F10479F490EE960F9F3520F16A3011F131
:1029A0006D3001F165ED76E083EE93E00E94FD125B
:1029B0001DC082E0C816D104E104F10469F440E1CD
:1029C00050E083EE93E00E94EA3063ED76E083EE20
:1029D00093E00E94BA2F0AC093E0C916D104E10423
:1029E000F10421F483EE93E00E94B604EFEF8E1A17
:1029F0009E0AAE0ABE0ABCCFCE0189960E946B2108
:102A00008091060183FD53CE83EE93E00E94E82F70
:102A10004ECE6DEC76E0C7010E948F31892B09F014
:102A200084C081E00E94E70C7C01009709F4C1C2D8
:102A300022E0AC0168E771E0CE0189960E94742122
:102A4000811107C08091060181FFB3C268EB76E077
:102A5000A7C282E00E94E70C009709F449C0FC017C
:102A600001900020E9F7BF0161507109681B790BE3
:102A70000E946A0D7C010097D9F10E94140BAB01F2
:102A8000BC01CE0189960E94361E811131C0809111
:102A9000060181FF2ECF66EA76E022CF64EA76E077
:102AA00083EE93E00E94BA2F6EE1CE01875B9F4FC9
:102AB0000E94F20E182F882381F1E82EF12CEDA14F
:102AC000FEA10280F381E02DA701BE01675B7F4F6D
:102AD000CE01859609958E159F05A1F41D3140F410
:102AE00042E050E067E071E0CE0189960E94432306
:102AF0008091060183FFD2CF6AE183EE93E00E94CA
:102B0000E12FCCCF8091060181FF09C06CE876E00F
:102B100083EE93E00E94BA2F02C011E001C010E0E2
:102B2000CE0189960E946B21A3CD67E876E0C701AC
:102B30000E948F31892BB1F581E00E94E70C00974C
:102B400009F437C221E0AC0168E771E0CE01899653
:102B50000E947421882391F025964CAD5DAD6EAD39
:102B60007FAD25972AE030E083EE93E00E94DD30D0
:102B7000CE0189960E946B2111E00BC08091060165
:102B800081FF06C064E876E083EE93E00E94BA2FEE
:102B900010E08091060183FD6BCD83EE93E00E94EF
:102BA000E82F66CD6FE776E0C7010E948F31892B51
:102BB00009F0DDC062E776E083EE93E00E94BA2F71
:102BC0008091C703823039F0833041F0813049F47D
:102BD0006EE676E008C06AE676E005C065E676E077
:102BE00002C06DE576E083EE93E00E94EC2FAE012B
:102BF00049595F4F6AE081EC93E00E94A01A81116D
:102C000007C06EE476E083EE93E00E94BA2FD1C154
:102C10006CE376E083EE93E00E94BA2F40E150E04F
:102C2000A8966FADA89783EE93E00E94F13063E31E
:102C300076E083EE93E00E94BA2FA9966FADA99734
:102C400083EE93E00E94E12FAA966FADAA9783EEE0
:102C500093E00E94103069E276E083EE93E00E94F8
:102C6000BA2F7101F70161917F0183EE93E00E9419
:102C7000E12FE9968EAD9FADE997E816F90691F739
:102C80006DE176E083EE93E00E94BA2FE0966FAD9F
:102C9000E09762956F704AE050E083EE93E00E9407
:102CA000EA306BE176E083EE93E00E94BA2FE09683
:102CB0006FADE0976F704AE050E083EE93E00E94C2
:102CC000F1306BE076E083EE93E00E94BA2FE49659
:102CD0004CAD5DAD6EAD7FADE4972AE030E083EEA4
:102CE00093E00E94083166EF75E083EE93E00E9466
:102CF000BA2FE6966FADE6976F704AE050E083EE2C
:102D000093E00E94EA3064EF75E083EE93E00E9466
:102D1000BA2FE6966FADE69762956F7070E06053DC
:102D2000784FE5968FADE5978F7090E1899F600DA4
:102D3000711D11244AE050E083EE93E00E94C530FB
:102D400081EC93E00E94C21A6B017C016115710550
:102D50008105910509F4CAC1AE014F5F5F4F69E07B
:102D600081EC93E00E94A01A8111C7C1BFC160ED40
:102D700075E0C7010E948F31892B49F4CE018996F5
:102D80000E94192188E791E00E94192190CC6AECF9
:102D900075E0C7010E948F31892B31F4E091E10386
:102DA000F091E203099505C166EC75E0C7010E9448
:102DB0008F31892BE9F481E00E94E70C7C010097B8
:102DC00009F4F7C022ECAC0168E771E0CE01899606
:102DD0000E947421882329F0CE0189960E946B21DC
:102DE00066CC8091060181FFE4C060EB75E0D8C03D
:102DF00069EA75E0C7010E948F31892B51F481E0A7
:102E00000E94E70C009709F4D4C00E94ED0F182F20
:102E10002FCC65EA75E0C7010E948F31892B61F5DF
:102E200062EA75E083EE93E00E94BA2F0E94DA080E
:102E3000582E19ECC12E13E0D12EE12CF12C682E66
:102E4000712CE1E06E1A7108E51408F0DDCDB601D1
:102E500083EE93E00E94DF2FE614F70434F460EA77
:102E600075E083EE93E00E94BA2FFFEFEF1AFF0A9E
:102E70008CE0C80ED11CE8CF6BE975E0C7010E9459
:102E80008F31892B41F581E00E94E70C7C0100978E
:102E900009F48FC068E975E00E948F31D82E811146
:102EA00006C000936B018091060181600DC064E94A
:102EB00075E0C7010E948F31D82E811107C0109292
:102EC0006B01809106018E7F8093060160916B01FA
:102ED00088E090E02EC06CE875E0C7010E948F3159
:102EE000892B81F581E00E94E70C7C01009709F4B1
:102EF00060C069E875E00E948F31D82E811106C04C
:102F000000936C018091060182600DC065E875E058
:102F1000C7010E948F31D82E811107C010926C0119
:102F2000809106018D7F8093060160916C0187E09E
:102F300090E00E9417050E94C60711E0DD2009F409
:102F400097CB37C061E875E0C7010E948F31892BAC
:102F500009F581E00E94E70C7C01009751F16EE7D2
:102F600075E00E948F3110910601811103C0212F5D
:102F7000286009C06AE775E0C7010E948F3181119E
:102F800004C0212F277F2093060111E0882309F434
:102F90006FCB0FC08091060181FF0BC068E675E022
:102FA00083EE93E00E94BA2FB70183EE93E00E9474
:102FB000FE2F10E05DCB82E00E94E70C21E0AC0127
:102FC00068E771E0CE0189960E947421882389F315
:102FD000CE0189960E94852013C0CE0189960E9459
:102FE0006B2122E0A70168E771E0CE0189960E947B
:102FF0007421882309F493CDCE0189960E94E3259C
:10300000182F8ECD21E0A70168E771E0CE018996E7
:103010000E947421882341F089A58077F1F2CE01C6
:1030200089960E945520ECCFC7010E94D43140E020
:1030300050E0BA0188E791E00E94361E412C512CE5
:10304000320141E068E771E0CE0189960E94811F5C
:103050008823C9F089A5807789F4BE016F5F7F4F0F
:10306000CE0189960E946829882341F0BE016F5FD6
:103070007F4FC7010E947F0D81111EC0CE0189962E
:103080000E946B21DECF8091060181FF0EC02AE0F5
:1030900030E0B301A20183EE93E00E94DD3066E0F0
:1030A00077E083EE93E00E94EC2F11E0452846285C
:1030B000472809F0DDCA7DCFCE0189960E946B2199
:1030C00022E0AE014F5F5F4F68E771E0CE01899665
:1030D0000E947421CE0189960E94E325882371F213
:1030E000FFEF4F1A5F0A6F0A7F0AC8CF65EE75E0DF
:1030F00083EE93E00E94EC2F5CCF69ED75E083EEE8
:1031000093E00E94BA2FB701A6017695679557956F
:1031100047952AE030E083EE93E00E94DD3065EDD4
:1031200075E083EE93E00E94EC2FC1CA80916F019D
:10313000811104C00E94D9050E94ED0F80916F019A
:10314000813011F40E944E110E9416131092E60372
:103150001092E50388EE93E0A0E0B0E08093E703EF
:103160009093E803A093E903B093EA038EE191E022
:103170009093E4038093E3034FEE52E06FEE73E02D
:1031800089EE96E00E94612D89E18093C40310923C
:10319000C70310929D0186E191E09093990180937D
:1031A000980184E791E00C94A70590E022E02817AD
:1031B00040F0892F806A86958CBD909591709DBD59
:1031C00008959730B0F7220F953010F431E001C028
:1031D00032E0930FECCF8FEF8EBD0DB407FEFDCF25
:1031E0008EB508958EBD0DB407FEFDCF089561E044
:1031F000FC0182810E944B2F8FEF0C94F218CF9329
:10320000DF93EC018C810E94D51860E08A81DF9108
:10321000CF910C944B2FCF92DF92EF92FF920F93AE
:103220001F93CF93DF93EC018B017A010E94572EFD
:103230006B010E94EB188D838F3F49F40E94572E3B
:103240006C197D096D327140A0F381E103C08E3F9E
:1032500039F08FE08B83CE010E94F71880E028C000
:10326000E114F104E1F081E0E81AF1088FEF8EBD7E
:10327000F8012FEFCF01801B910B8E159F0538F4BD
:103280000DB407FEFDCF8EB52EBD8193F3CF0DB4E7
:1032900007FEFDCF8EB5F801EE0DFF1D80831D8268
:1032A0000E94EB180E94EB18CE010E94F71881E0F3
:1032B000DF91CF911F910F91FF90EF90DF90CF9012
:1032C00008950F931F93CF93DF93EB010E94572E26
:1032D0008B010E94EB188F3F49F00E94572E601B14
:1032E000710B6C177D07A8F380E001C081E0DF91CE
:1032F000CF911F910F910895FF920F931F93CF933A
:10330000DF9300D000D0CDB7DEB78C01F62E298335
:103310003A834B835C830E94FF1868E572E0C80122
:103320000E9461198F2D80640E94F2188C810E9486
:10333000F2188B810E94F2188A810E94F21889810A
:103340000E94F218F11002C085E901C087E80E94CE
:10335000F2188CE0F81202C00E94EB18F12C0E94C7
:10336000EB18F801858387FF05C0FFEFFF1611F00A
:10337000F394F5CF0F900F900F900F90DF91CF91B6
:103380001F910F91FF900895BF92CF92DF92EF921D
:10339000FF920F931F93CF93DF93EC01B22E1E8207
:1033A0001B82798368834A830E94572E8B0161E0D8
:1033B0008A810E94122F61E08A810E944B2F2A9AF3
:1033C000229A239A259A80E48C830E94D5182AE0B9
:1033D000F22E8FEF0E94F218FA94D9F720E030E035
:1033E000A90160E0CE010E947C19813049F00E9461
:1033F000572E601B710B613D774080F381E051C017
:103400002AEA31E040E050E068E0CE010E947C19F9
:10341000853011F481E00AC094E0F92E0E94EB1887
:103420008D83FA94D9F78A3A59F482E08E838E819B
:10343000823079F4C12CD12CE12C80E4F82E0CC020
:103440000E94572E601B710B613D7740C8F282E0ED
:1034500028C0C12CD12C760120E030E0A90167E31F
:10346000CE010E947C19A701960169E2CE010E945B
:103470007C19882349F00E94572E601B710B613D17
:10348000774050F38AE00DC08E818230E9F420E06D
:1034900030E0A9016AE3CE010E947C19882339F04B
:1034A00088E08B83CE010E94F71880E012C00E9452
:1034B000EB18807C803C11F483E08E830E94EB1833
:1034C0000E94EB180E94EB18CE010E94F718BC82F4
:1034D00081E0DF91CF911F910F91FF90EF90DF90EE
:1034E000CF90BF9008950F931F93CF93DF93EC017C
:1034F00089018E81833039F039E0440F551F661FF2
:10350000771F3A95D1F79A01AB0161E1CE010E9494
:103510007C1981110AC040E052E0B801CE01DF9170
:10352000CF911F910F910C940B1984E08B83CE01E6
:103530000E94F71880E0DF91CF911F910F910895BD
:103540000F931F93CF93DF93EC018A0120E030E0CB
:10355000A9010E947C1981110AC040E150E0B80124
:10356000CE01DF91CF911F910F910C940B1980E147
:103570008B83CE010E94F71880E0DF91CF911F91DD
:103580000F9108950F931F93CF93DF93CDB7DEB7BD
:1035900060970FB6F894DEBF0FBECDBF8C01AE01B1
:1035A0004F5F5F4F69E00E94A01A882309F45FC053
:1035B0008981807C79F56F81637070E0762F662752
:1035C000770F770F888524E0829FC0011124682B34
:1035D000792B89858295869586958370682B6F5F98
:1035E0007F4F80E090E04A854370440F2B8527FB96
:1035F000222720F9422B2E812F7030E0240F311D1D
:103600002750310904C0660F771F881F991F2A951C
:10361000D2F730C0803441F56A8570E080E090E0F8
:103620006F5F7F4F8F4F9F4F098510E020E030E0A4
:10363000322F212F102F0027600F711F821F931F21
:1036400008850F7310E020E030E098011127002773
:10365000600F711F821F931FFAE0660F771F881F8C
:10366000991FFA95D1F706C08BE0F801838360E0DB
:1036700070E0CB0160960FB6F894DEBF0FBECDBFF1
:10368000DF91CF911F910F9108950F931F93CF93C7
:10369000DF93EC01862F8A010E94F218F8018081E5
:1036A0008EBD818122E030E00DB407FEFDCF8EBDDE
:1036B0002115F2E03F0739F0F801E20FF31F808196
:1036C0002F5F3F4FF1CF0DB407FEFDCF8FEF0E946C
:1036D000F2188FEF0E94F2180E94EB188D838F7101
:1036E000853039F083E18B83CE010E94F71880E0AA
:1036F00001C081E0DF91CF911F910F9108950F9349
:103700001F93CF93DF93EC0189018E81833039F0D1
:1037100089E0440F551F661F771F8A95D1F79A01DC
:10372000AB0168E1CE010E947C19882319F086E084
:103730008B830CC0A8016EEFCE010E94451B182F91
:10374000882321F0CE010E94F71804C0CE010E9408
:10375000F71810E0812FDF91CF911F910F910895FD
:10376000FC018281806882839F01245F3F4F4485F2
:10377000558566857785868197810C94012B9F926C
:10378000AF92BF92CF92DF92EF92FF920F931F936F
:10379000CF93DF93EC01888185FF02C0912C5EC03E
:1037A00088899989AA89BB8981159E4FAF41B10546
:1037B000A8F7CE010E94B01B982E882379F34C8580
:1037C0005D856E857F858E819F810E94182A6B01A1
:1037D0007C018E819F8125E0B701A60180960E9421
:1037E000D6295C010097D1F280E092E0F5019C01BE
:1037F000119221503040E1F711E0AE81BF81129665
:103800000C9112971017A0F4ED91FC911197028082
:10381000F381E02D9501B701A601410F511D611DF6
:10382000711DCD010995882309F4B8CF1F5FE5CF3D
:1038300010E020E030E089E0000F111F221F331F4D
:103840008A95D1F7488959896A897B89400F511F28
:10385000621F731F488B598B6A8B7B8B892DDF917D
:10386000CF911F910F91FF90EF90DF90CF90BF907D
:10387000AF909F900895CF93DF93EC01262F4C8952
:103880005D896E897F898E819F8180960E94D6296D
:103890009C01009761F08C819D818F70992745E094
:1038A000880F991F4A95E1F7820F931F02C080E0AD
:1038B00090E0DF91CF910895CF93DF93DC01FC017D
:1038C00090E048E080E05EE220812032C1F0983054
:1038D00031F4EB01C80FD11D58838F5F40E1208187
:1038E0003FEB320F3A3130F41C963C911C97342355
:1038F00009F0205EEB01C80FD11D28838F5F9F5F09
:1039000031969B3009F7FB01E80FF11D1082DF9122
:10391000CF910895FC018081811114C080E2DF0104
:10392000982F1D929A95E9F777836683DB011596A8
:103930009C91903119F0903229F480E4808381E0E9
:103940008283089580E008952F923F924F925F9274
:103950006F927F928F929F92AF92BF92CF92DF929F
:10396000EF92FF920F931F93CF93DF9300D000D07D
:10397000CDB7DEB79C838B834B017A01DC018C9140
:10398000882309F112969C9190FF1DC027C0D38017
:10399000D822A114B10409F09CC0D1109AC0452BC3
:1039A000462B472B09F47EC0AB81BC811C964D9100
:1039B0005D916D917C911F9729813A81CF010E9481
:1039C000302A87FF7EC0AB81BC8111968C91119704
:1039D000826011968C938FEF9FEFE3C083FF17C037
:1039E000EB81FC81808D918DA28DB38D40895189B1
:1039F00062897389841B950BA60BB70BA70160E046
:103A000070E0481759076A077B07D0F018C085FF98
:103A100017C0AB81BC811696ED91FC9117978681FA
:103A2000978155E0880F991F5A95E1F750962D918F
:103A30003C915197821B930B8E159F0508F47C01D6
:103A40008701EB81FC813C96FA83E983612C42E09B
:103A5000742E0115110509F468C0AB81BC81509624
:103A60004D915D916D917C9153975A01B1E0BB22CC
:103A7000EB81FC8120810680F781E02DDB01CA010A
:103A800039E0B695A795979587953A95D1F725FF93
:103A90007ECF448D558D668D778D480F591F6A1FD7
:103AA0007B1F2BC026FD02C0EB81FC81848D958D90
:103AB000A68DB78DEB81FC8184879587A687B78714
:103AC00008C0811106C0EB81FC818081807769F597
:103AD0007ACFAB81BC811C964D915D916D917C91AB
:103AE0001F9716968D919C9117970E94182AAB01EB
:103AF000BC014D0D511D611D711DEB81FC81868145
:103B00009781A114B104B1F50115F2E01F0790F1FE
:103B1000DC0193962D903D904D905C9096974215C8
:103B200053056405750529F425C0C701801B910B59
:103B300038C0DC01ED91FC910190F081E02D940101
:103B40000995882309F43FCFC12CF2E0DF2E8C0CBD
:103B50009D1CEB81FC8180899189A289B3898C0DA0
:103B60009D1DA11DB11D808B918BA28BB38B0C1958
:103B70001D096FCF93012A193B09680120173107EE
:103B800008F4690120E080960E94D629009709F484
:103B90001ACFBC016A0D7B1DA601C4010E94B5317C
:103BA000D6CF0F900F900F900F90DF91CF911F9174
:103BB0000F91FF90EF90DF90CF90BF90AF909F90CC
:103BC0008F907F906F905F904F903F902F900895CF
:103BD000FF920F931F93CF93DF931F92CDB7DEB762
:103BE0008C01262FFC014089518962897389DB0190
:103BF000CA01E5E0B695A79597958795EA95D1F71F
:103C0000F82FFF70FF2E11F0211117C041E050E096
:103C1000BE016F5F7F4FC8010E94A41C813019F064
:103C200080E090E01CC0F801408951896289738965
:103C3000415E5F4F6F4F7F4F05C0405E5F4F6F4FDC
:103C40007F4FF801408B518B628B738BF80186811B
:103C500097818796F0E2FF9E800D911D11240F90B1
:103C6000DF91CF911F910F91FF9008954F925F9236
:103C70006F927F928F929F92AF92BF92CF92DF927C
:103C8000EF92FF920F931F93CF93DF93EC016A01A2
:103C90007B014C845D846E847F84A881AA2309F40F
:103CA0008CC0411551056105710529F41C861D86DE
:103CB0001E861F867CC0A3FF0BC0488D598D6A8D60
:103CC0007B8D4C155D056E057F0508F476C014C02C
:103CD000A5FF12C0EE81FF8186819781F5E0880FF4
:103CE000991FFA95E1F7A0E0B0E084179507A607C1
:103CF000B70708F462C05BC0088919892A893B8923
:103D0000EE81FF81848190E00996B901A8014150BC
:103D1000510961097109082E04C076956795579578
:103D200047950A94D2F746015701B1E08B1A9108E2
:103D3000A108B10804C0B694A794979487948A9573
:103D4000D2F784169506A606B70620F0012B022BA3
:103D5000032B81F4A6FF05C0848D958DA68DB78DAC
:103D600004C08C8D9D8DAE8DBF8D8C879D87AE8759
:103D7000BF8704C0841A950AA60AB70A8E01045F99
:103D80001F4F81149104A104B10489F04C855D8515
:103D90006E857F8598018E819F810E94302A91E0F7
:103DA000891A9108A108B10818165CF306C0C88AE0
:103DB000D98AEA8AFB8A81E005C04C865D866E86D8
:103DC0007F8680E0DF91CF911F910F91FF90EF9060
:103DD000DF90CF90BF90AF909F908F907F906F902B
:103DE0005F904F9008958F929F92AF92BF92FF92F3
:103DF0000F931F93CF93DF93EC01F22E80E2DE014D
:103E00001D928A95E9F7FB01868197819F838E83B6
:103E10005D834C83848C958CA68CB78C8886998620
:103E2000AA86BB86FC01B7964F705527B5E0440FB4
:103E3000551FBA95E1F7E40FF51F338533FF03C033
:103E4000188280E054C0377138832385287111F4BB
:103E5000386038830B832F2D227319F0288121714C
:103E600079F72F2D2F702A83DC0193964D915D9168
:103E70006D917C9196974C8B5D8B6E8B7F8B44897B
:103E8000558960E070E0BA0155274427028D138DF3
:103E900020E030E0402B512B622B732BF4FE0AC044
:103EA0004115510561057105E9F00E94A32B8111AF
:103EB00019C0C6CF4C8F5D8F6E8F7F8F448D558D0F
:103EC000668D778D488F598F6A8F7B8FF5FE0EC078
:103ED000488D598D6A8D7B8DCE010E94361E8111D1
:103EE00005C0AECF8A8180688A83F0CF81E0DF9100
:103EF000CF911F910F91FF90BF90AF909F908F90A7
:103F000008958F929F92AF92BF92DF92EF92FF92AD
:103F10000F931F93CF93DF937C01EB01D42EFC0111
:103F20008081811138C088818077A9F10889198939
:103F30002A893B890F71112722273327012B022B56
:103F4000032B49F500E010E088889988AA88BB888F
:103F500060E0CE010E94E81D0097E9F0FC0120819D
:103F60002223C9F02E3211F400E0EECF253EE1F31A
:103F7000338533FD07C0002381F00E94A924181364
:103F80000AC00BC03F3081F726FFDECF022F0F7132
:103F9000FC011585D9CF80E00EC0B501A40115E064
:103FA00076956795579547951A95D1F72D2DBE01B2
:103FB000C7010E94F31EDF91CF911F910F91FF90D7
:103FC000EF90DF90BF90AF909F908F900895BF9239
:103FD000CF92DF92EF92FF920F931F93CF93DF93D5
:103FE0006C01EB017A01122FFC018081811119C053
:103FF00088818077B1F027FD14C0E114F10449F104
:10400000A7014150510960E070E005E0440F551FE1
:10401000661F771F0A95D1F7CE010E94361E8111C7
:1040200002C080E038C060E0CE010E94E81DFC01C3
:104030000097B9F383858F3091F480818F7181303F
:1040400071F4B5840E2DF5E1EF16F10450F004E1A2
:1040500008C040E050E0BA01CE010E94361E00E0E8
:10406000B12C60E0CE010E94E81D0097D1F2FC0166
:104070002081253EB1F22223A1F22E3291F20023BB
:1040800021F00E94A924B812CCCF212FA701BE0194
:10409000C6010E94F31EDF91CF911F910F91FF90F7
:1040A000EF90DF90CF90BF900895CF93DF93EC0116
:1040B000888184FF26C040E050E0BA01CE010E9412
:1040C000361E61E0CE010E94E81D009721F489812F
:1040D000882369F016C0FC012081222341F0253E8F
:1040E00081F32E3271F3838583FDEBCF0AC088E024
:1040F00088838A8182608A83CE01DF91CF910C947C
:10410000E32580E0DF91CF910895CF92DF92EF9287
:10411000FF920F931F93CF93DF93CDB7DEB7A09796
:104120000FB6F894DEBF0FBECDBF8C0119821A8284
:10413000FC018081807711F480E06CC040E050E0A9
:10414000BA01C8010E94361EF801C088D188E288F1
:10415000F38860E0C8010E94E81D009731F4F8017F
:104160008181882309F44DC0E7CFFC0120812223FF
:1041700009F447C0253E41F32E3231F3838583FD98
:10418000E3CF45E0F694E794D794C7944A95D1F7E6
:1041900021E0A601B801CE0101960E94E71F882305
:1041A00059F2898184FF05C0CE0101960E948520C5
:1041B00007C08B8182608B83CE0101960E94E3252C
:1041C000882309F4B9CFFFEFCF1ADF0AA60160E018
:1041D00070E035E0440F551F661F771F3A95D1F701
:1041E000F80180899189A289B38984179507A60768
:1041F000B70709F4A9CFC8010E94361E8111A4CFC8
:104200009BCFF8018081807621F4C8010E9455205F
:1042100001C081E0A0960FB6F894DEBF0FBECDBFFF
:10422000DF91CF911F910F91FF90EF90DF90CF9092
:1042300008950F931F93CF93DF93EC018881882318
:1042400009F443C08A8187FF38C061E0CE010E9433
:104250003B1C8C01009729F489818160898380E06F
:1042600035C0FC018081853EB9F3888183FF08C099
:10427000488D598D6A8D7B8D448F558F668F778FD2
:104280004C8D5D8D6E8D7F8DF801538F428F758BB8
:10429000648BE091DF06F091E006309759F0B801A9
:1042A0006A5E7F4FC80148960995F801808D918D0F
:1042B000938B828B8A818F778A838E819F81809670
:1042C0000E948329882341F201C081E0DF91CF91D0
:1042D0001F910F910895CF93DF93EC010E94192154
:1042E0001882DF91CF910895CF92DF92EF92FF92E3
:1042F0000F931F93CF93DF93CDB7DEB7E3970FB63E
:10430000F894DEBF0FBECDBF8C017B015BAB4AAB27
:10431000D22E19821A82FC018081882311F080E05C
:1043200059C0FB0180818077D1F3EAA9FBA9808184
:104330008F32D9F4EAA9FBA980818F3221F431961A
:10434000FBABEAABF7CFF70166817781811104C03F
:10435000C8010E948A1C3EC0CE0101960E948A1CA0
:104360008823E9F2CE0101967C0150E2C52EAE0110
:104370004E5C5F4FBE016F5D7F4F8AA99BA90E9473
:10438000E824882361F2EAA9FBA980818823D1F07F
:1043900021E0AE014F5D5F4FB701C8010E941C27AD
:1043A000882309F4BCCFF801DE0111968C2D019011
:1043B0000D928A95E1F7C8010E946B21FE013196AA
:1043C0007F01D5CF2D2DAE014F5D5F4FB701C801E5
:1043D0000E941C27E3960FB6F894DEBF0FBECDBF38
:1043E000DF91CF911F910F91FF90EF90DF90CF90D1
:1043F0000895AF92BF92CF92DF92EF92FF920F9308
:104400001F93CF93DF93CDB7DEB7A0970FB6F89485
:10441000DEBF0FBECDBF8C017B01FB0180818077A9
:1044200009F492C023ECC8010E941C27882309F4D8
:104430008BC081E0F801828360E1D62ED082C80172
:104440000E94BF1B882309F47FC0F80184859585ED
:10445000A685B785848F958FA68FB78F40E050E0F3
:10446000BA01C8010E94361EC8010E941921882382
:1044700009F46AC061E0C8010E943B1C009709F47E
:1044800063C0FC01D38620E2DE01119601900D92FB
:104490002A95E1F7FC01A488B588C28CD38C8EE202
:1044A0008983FE013296CE010C9620E22193E81713
:1044B000F907E1F7F801448D558D668D778D86817A
:1044C00097810E94182AAB01BC01F801868197816F
:1044D00021E080960E94D6290097B1F1BE8AAD8A6C
:1044E000DC8ECB8E20E2FE013196DC0101900D9234
:1044F0002A95E1F72EE22A83F701448D558D668DCA
:10450000778D7E8B6D8B5C8F4B8F20E2FE01319619
:10451000DC01909601900D922A95E1F7F8018681D1
:1045200097818096A0960FB6F894DEBF0FBECDBFE0
:10453000DF91CF911F910F91FF90EF90DF90CF907F
:10454000BF90AF900C94832980E0A0960FB6F894AA
:10455000DEBF0FBECDBFDF91CF911F910F91FF90B6
:10456000EF90DF90CF90BF90AF900895BF92CF9221
:10457000DF92EF92FF920F931F93CF93DF93CDB70C
:10458000DEB7E3970FB6F894DEBF0FBECDBF7C0158
:104590008B015BAB4AABC22E19821A82FC0180816F
:1045A000882311F0D12C5EC0FB0180818077D1F38C
:1045B000EAA9FBA980818F32A9F4EAA9FBA980812D
:1045C0008F3221F43196FBABEAABF7CFF80166816D
:1045D0007781CE0101960E948A1C882319F38E01EF
:1045E0000F5F1F4F70E2B72EAE014E5C5F4FBE01F2
:1045F0006F5D7F4F8AA99BA90E94E824882391F2CE
:10460000EAA9FBA98081882329F121E0AE014F5D51
:104610005F4FB801C7010E941C27D82E81110BC023
:10462000CC2001F1AE014F5D5F4FB801C7010E9480
:10463000F9218823B9F0F701DE0111968B2D019045
:104640000D928A95E1F7C7010E946B218E010F5FE1
:104650001F4FCACFAE014F5D5F4FB801C7010E9427
:10466000F921D82E8D2DE3960FB6F894DEBF0FBE3C
:10467000CDBFDF91CF911F910F91FF90EF90DF9011
:10468000CF90BF9008952F923F924F925F926F927A
:104690007F928F929F92AF92BF92CF92DF92EF92D2
:1046A000FF920F931F93CF93DF93EC015B014A01BD
:1046B000888183FF0EC08A8181FF0BC082FF0FC0FB
:1046C000488D598D6A8D7B8DCE010E94361E8111D9
:1046D00006C08981816089838FEF9FEF06C1A401A5
:1046E00060E070E088899989AA89BB898095909556
:1046F000A095B09584179507A607B70750F36401F6
:104700001E012CE0220E311C488959896A897B8957
:10471000C114D10409F4C7C08E819F812A013B01D5
:1047200029E076946794579447942A95D1F7DC0151
:1047300013961C9114217A01B1E0FB22111134C0AF
:10474000E114F10489F54C855D856E857F85411501
:1047500051056105710569F091010E94302A87FDBC
:10476000B8CF811121C0CE010E94B01B81111CC0A5
:10477000B0CF8C8D9D8DAE8DBF8D0097A105B105FD
:1047800079F4CE010E94B01B882309F4A2CF8C8556
:104790009D85AE85BF858C8F9D8FAE8FBF8F04C0EA
:1047A0008C879D87AE87BF874C855D856E857F85AD
:1047B0008E819F810E94182AAB01BC01410F511DBF
:1047C000611D711DEE81FF81E114F10421F4C1141A
:1047D00022E0D206B8F580E092E08E199F098601AA
:1047E0008C159D0508F48C01E114F10479F44888D6
:1047F00059886A887B88888D998DAA8DBB8D4816CB
:1048000059066A067B0610F025E001C021E0CF01C1
:1048100080960E94D629009709F45BCFA801B501C4
:104820008E0D9F1D0E94B531E00EF11EE11482E055
:10483000F80641F58E819F8180960E94832981111F
:1048400021C047CF83A194A1A5A1B6A18417950744
:10485000A607B70741F410A28FEF9FEFDC0183A3F7
:1048600094A3A5A3B6A38E819F81DC01ED91FC9159
:104870000280F381E02D95010995882309F429CF61
:1048800000E012E088899989AA89BB89800F911F6D
:10489000A11DB11D888B998BAA8BBB8BA00EB11E5D
:1048A000C01AD10A31CF888D998DAA8DBB8D2A81EE
:1048B00084179507A607B70728F4488F598F6A8F82
:1048C0007B8F06C08091DF069091E006892B11F066
:1048D00020682A838A8183FD02C0C40106C0CE01FC
:1048E0000E9419218111F9CFF4CEDF91CF911F9150
:1048F0000F91FF90EF90DF90CF90BF90AF909F907F
:104900008F907F906F905F904F903F902F90089581
:10491000653040F4FC01E60FF11DE60FF11D8181C9
:10492000928108956B3040F4FC01E60FF11DE60F13
:10493000F11D848195810895613140F4FC01E60FF9
:10494000F11DE60FF11D86819781089580E090E0CA
:104950000895FC0190E080E080FB879587F9219124
:10496000820F9F5F9B30C1F70895CF93DF93FC01C7
:10497000DB0118964D915D916D917C911B97452BB4
:10498000462B472B41F416966D917C911797DF913A
:10499000CF910C948A1C80E2EF0119928A95E9F775
:1049A00080E1808381E0828316968D919C91179798
:1049B0009783868318964D915D916D917C911B979D
:1049C000448F558F668F778F81E0DF91CF91089567
:1049D000CF92DF92EF92FF920F931F93CF93DF93CB
:1049E000FB01DC0101962C912032D9F3B483A3831F
:1049F000ED01BE016A1B7B0B8991811105C0CD01C0
:104A0000860F971FEC0118C08F32C9F38C3511F453
:104A100080E0D0C0982F977F9232D1F38A33C1F3D0
:104A2000982F9F7B9C33A1F392EC980F923080F3E8
:104A300080528F35F0F2ECCF1C2F3D2F2991203280
:104A4000D9F32F32C9F3EA0118833983EC016115D8
:104A5000710561F08A918E3211F0803219F4615043
:104A60007109F5CF6F3F710509F094F67283618388
:104A700080E090E020E2EF01C80FD91F2E8301965D
:104A80008B309105C1F7ED01CE018A1B9B0B29915B
:104A90002E32D1F32032C1F351E0009709F050E0FB
:104AA0009B012150310938F407E010E0C12CF12CB2
:104AB000C8E0EC2E0FC0ED01C20FD31F48814E326B
:104AC00081F7F2CFED01C80FD91F4881403231F490
:104AD00050E0019686179707ACF343C04E3221F49D
:104AE00028173907A9F704C04232A1F04C3791F0DA
:104AF000C6EDC40FC63010F44D3261F4C6ECC40FDD
:104B0000C63040F0C5EAC40FC33020F0CFEDC40F6B
:104B1000CE3530F08217930709F150E04FE503C01E
:104B200082179307D9F00117D0F1CFE9C40FCA312A
:104B300018F44052FE2805C0CFEBC40FCA3108F468
:104B4000CE28DD24D394D10EEF01C10FD11D4E83A9
:104B500046E04D1508F0D5821D2DBBCF0A30C9F4B3
:104B600050E08681803209F453CF552339F0CF20AD
:104B700011F082E001C08F2D808309C081E0808325
:104B80008581E80FF11D8EE7868381E3878381E0CD
:104B900011C0C9010AE018E040E1E42E9ACF0A30C2
:104BA000F9F228173907E4F2C9010AE018E050E1E8
:104BB000E52E8ECFDF91CF911F910F91FF90EF9057
:104BC000DF90CF900895BF92CF92DF92EF92FF9245
:104BD0000F931F93CF93DF93CDB7DEB7A0970FB698
:104BE000F894DEBF0FBECDBF8C0119821A82DC01A2
:104BF0008C9183FD02C080E089C0F801828181FF31
:104C0000FACF448D558D668D778D4115510561051F
:104C1000710549F0D80116968D919C9117970E94C5
:104C2000A32B882341F361E0C8010E943B1C7C0157
:104C3000009709F30E94A924D82E85EEF7018083FE
:104C4000D8011C9216968D919C91179780960E9480
:104C50008329882381F2F8019381992309F456C0AE
:104C6000B801CE0101960E94B524882321F2BB240D
:104C7000B39425EEC22EF80183818B1508F4BBCFC7
:104C8000EB2CF12CD80114964D915C9115974E198F
:104C90005F0960E070E095E0440F551F661F771FC5
:104CA0009A95D1F7CE0101960E94361E882309F409
:104CB000A2CF60E0CE0101960E94E81DFC010097A2
:104CC00009F499CF83858F3009F095CF2081822F09
:104CD0008F7190E0E816F90609F08DCF8585D8121E
:104CE0008ACFC082D8011696ED91FC91179780A1CA
:104CF000816080A326FF08C016968D919C9117971E
:104D000080960E94832902C0B394B5CFA0960FB6B7
:104D1000F894DEBF0FBECDBFDF91CF911F910F91F1
:104D2000FF90EF90DF90CF90BF900895AF92BF9229
:104D3000CF92DF92EF92FF920F931F93CF93DF9367
:104D40007C01EB01AD8002E010E07EE7B72E6E0142
:104D500086E0C80ED11C89819A819801280F391FDD
:104D6000EB81FC81AF01480F591FE417F50779F07B
:104D7000C90165E0880F991F6A95E1F7820F931FBB
:104D80002191332727FD309528273927EECFE3E0FF
:104D9000EA1510F453E0A52E84E08A0D922F9F703F
:104DA000E82FF0E09A3010F4905D01C0995CEC0FB0
:104DB000FD1F968344E0369527954A95E1F781508B
:104DC000A81660F3FE01EA0DF11DB68240E050E046
:104DD000BA01C7010E94361E61E0C7010E94E81DAA
:104DE000BC01009731F481E0F70191819923C9F06A
:104DF00017C0FC018081882359F0838583FDECCFA7
:104E00004BE050E0C6010E94A831892B29F702C06F
:104E100081E007C00F5F1F4F0436110509F09BCFDB
:104E200080E0DF91CF911F910F91FF90EF90DF9085
:104E3000CF90BF90AF9008952F923F924F925F9284
:104E40006F927F928F929F92AF92BF92CF92DF929A
:104E5000EF92FF920F931F93CF93DF93CDB7DEB7FF
:104E60002B970FB6F894DEBF0FBECDBF3C017B87FA
:104E70006A877A012A83DA0111968D909C901297A5
:104E8000FB018081807711F480E0F3C1D3018C9124
:104E90008111FACFFA018081837009F4E1C1C40164
:104EA0000C966DE070E00E941B3155245394560E11
:104EB00040E050E0BA018A859B850E94361E1C8224
:104EC0001D821982412C10E000E01B821701B6E020
:104ED0002B0E311CAA85BB8550962D913D914D918D
:104EE0005C91539765E056954795379527956A9558
:104EF000D1F7590161E0CD0128873E8349875F835F
:104F00000E94E81D6C0128853E81009739F4EA85EE
:104F1000FB858181882309F488C0B6CFDC018C91A0
:104F2000853E11F081110AC0111102C02C833D830E
:104F3000151508F41F5F811104C077C0151528F0FE
:104F400005C0853E19F400E0C5CF10E08E32D9F3DC
:104F5000F60193859F3009F046C0011108C086FF15
:104F6000B9CF082F0F7125852983402E07C04A9499
:104F70008411E9CF858529812813E5CF842D90E020
:104F80000197ADE0A89F5001A99FB00C1124A8146F
:104F9000B904C8F620E0622FC60128870E94882441
:104FA0002885A814B90419F4892B69F693CF8F3F8B
:104FB000910509F040F63FEB380F3A3108F4805E76
:104FC000A5014F5F5F4FD7011396ED91FC911497A8
:104FD000EA0DFB1D90813FEB390F3A3108F4905EEA
:104FE0008913B1CF40C193FDAECF002351F0B1E0A2
:104FF0004B124ACFC6010E94A9242981821344CFB3
:1050000010C04BE050E0B101C6010E94A831892BCD
:1050100009F060CFD7018C9180FF03C021E02B8382
:1050200059CF2A8127FF14C12FCF8A8182748234FD
:1050300009F02ACF112359F0AC80BD8008C060E090
:105040008A859B850E94E81D892B21F01F5F15151D
:10505000B0F318C0AA85BB8511968C91882391F076
:1050600013CF8A859B850E94BF1B882309F40CCF30
:10507000AA85BB851696ED91FC91179782818230A7
:1050800018F4105F151568F32B81222341F0B70146
:105090008A859B850E949626882309F4F5CEA50172
:1050A00060E070E025E0440F551F661F771F2A95CA
:1050B000D1F78A859B850E94361E882309F4E4CEA9
:1050C0000FEF050D102F8FE0482E670186E0C80E08
:1050D000D11C9DE0592E49C060E08A859B850E94C5
:1050E000E81D5C01009709F4CFCEAA85BB85169612
:1050F000ED91FC91179780A1816080A3412F10133F
:1051000001C04064F501408343861486C601498787
:105110000E94A924D5011D968C931D975B961C9225
:105120001E925A97F7012381348149854F7150E0CF
:1051300041505109549EC001559E900D1124F50116
:1051400060E088159905A0F4D901A80FB91F4C910A
:10515000552747FD50956530B0F4528341836F5F0A
:10516000019632966D3069F711501111B5CF13C009
:1051700041E050E08815990511F440E050E0519568
:1051800041955109E8CF6B3018F455834483E7CF3C
:1051900057834683E4CFEA85FB8580899189A2897C
:1051A000B38915E0B695A795979587951A95D1F788
:1051B0005C0160E0CF010E94E81D6C01009709F4DA
:1051C00063CE80E2D6011D928A95E9F7F701369603
:1051D0008BE0D60101900D928A95E1F7F70180816D
:1051E0008871D6011C968C93E091DF06F091E00661
:1051F000309739F0B601625F7F4FC601409609953E
:1052000009C081E298E2F601918B808B80E098E002
:1052100097878687D60150968D919C91519753968A
:105220009C938E93529759969C938E9358971E9663
:105230008D919C911F9757969C938E935697AA8514
:10524000BB851696ED91FC91179780A1816080A394
:105250002A81A5016A857B85C3010E94F31E09C0CE
:105260005524539425CE2F5F2D3009F433CE5A01A7
:1052700092CE2B960FB6F894DEBF0FBECDBFDF9156
:10528000CF911F910F91FF90EF90DF90CF90BF9043
:10529000AF909F908F907F906F905F904F903F90D6
:1052A0002F9008956115710581F0DB010D900020AC
:1052B000E9F7AD0141505109461B570BDC01ED9157
:1052C000FC910280F381E02D099480E090E0089544
:1052D000CF93DF93EB01FC012081211102C080E01C
:1052E0000FC0207621F08FE28883198208C060E029
:1052F0000E943B1C009799F3BE010E945C1C81E058
:10530000DF91CF910895BF92CF92DF92EF92FF92FB
:105310000F931F93CF93DF93EC01888180FF39C0F7
:1053200089819A818E01095F1F4FDC01ED91FC910B
:105330004B815C816D817E810280F381E02D98013B
:105340000995B82E811102C0B12C25C0888181FD3C
:1053500004C088818E7F88831EC0A981BA81ED91A7
:10536000FC9111971C964D915D916D917C911F97C9
:10537000CB80DC80ED80FE804C0D5D1D6E1D7F1DA1
:105380000280F381E02D9801CD0109958111E1CFD3
:10539000DBCFBB24B3948B2DDF91CF911F910F9165
:1053A000FF90EF90DF90CF90BF900895CF92DF9263
:1053B000EF92FF921F93CF93DF93EC016A017B0181
:1053C000122F4B815C816D817E814C155D056E05D0
:1053D0007F0501F10E948329811103C080E090E0E4
:1053E0001FC012FF06C01882CB82DC82ED82FE82D3
:1053F00011C089819A81DC01ED91FC910190F081CD
:10540000E02D9E01295F3F4FB701A601099581114B
:10541000EACFE4CF13708881812B8883CE01079671
:10542000DF91CF911F91FF90EF90DF90CF90089583
:105430004250510961097109FC01048004C0440F04
:10544000551F661F771F0A94D2F780899189A28918
:10545000B389480F591F6A1F7B1FCB01BA010895FA
:10546000CF92DF92EF92FF920F931F93CF93DF9330
:10547000EC016A017B0189018D81803251F5E7E001
:105480007695679557954795EA95D1F78C899D89CB
:10549000AE89BF89480F591F6A1F7B1F22E0CE01CA
:1054A00080960E94D629009711F48FEF40C0E894AF
:1054B000C7F8DD24EE24FF24F601EE0FFF1FEE0FE8
:1054C000FF1FE80FF91F40815181628173817F7056
:1054D0001DC0803151F74C895D896E897F894D0DE2
:1054E000511D611D711D22E0CE0180960E94D629BA
:1054F0000097D9F2DD24EE24FF24F601EE0FFF1F02
:10550000E80FF91F4081518160E070E0888D998D2E
:10551000AA8DBB8D84179507A607B70738F0F80149
:10552000408351836283738381E001C080E0DF9117
:10553000CF911F910F91FF90EF90DF90CF90089542
:105540008F929F92AF92BF92CF92DF92EF92FF9293
:105550000F931F936A017B0148015901FC012581CA
:10556000203231F517E076956795579547951A954E
:10557000D1F70489158926893789400F511F621F89
:10558000731F23E080960E94D629009799F0E89433
:10559000C7F8DD24EE24FF24F601EE0FFF1FEE0F07
:1055A000FF1FE80FF91F80829182A282B3821DC083
:1055B000203111F080E01AC0FC01448955896689C8
:1055C00077894D0D511D611D711D23E080960E944C
:1055D000D629009779F3DD24EE24FF24F601EE0F9F
:1055E000FF1FE80FF91F9182808281E01F910F91C8
:1055F000FF90EF90DF90CF90BF90AF909F908F90F3
:1056000008953F924F925F926F927F928F929F92F6
:10561000AF92BF92CF92DF92EF92FF920F931F93C0
:10562000CF93DF93CDB7DEB728970FB6F894DEBFE0
:105630000FBECDBF9E838D832A013B0138872F8308
:10564000411551056105710531F4FC018084918497
:10565000A284B38402C04A015B0175016401FFEFBB
:10566000CF1ADF0AEF0AFF0AED81FE81808D918D4E
:10567000A28DB38D8C159D05AE05BF0528F402E003
:10568000C02ED12CE12CF12C9E012F5F3F4FB70192
:10569000A6018D819E810E94302A87FD1DC088232E
:1056A00041F089819A81AB81BC81892B8A2B8B2B1C
:1056B00031F0C814D904EA04FB0489F60DC00FEFD9
:1056C0001FEF2FEF3FE0B701A6018D819E810E9461
:1056D000A02A382E811102C0312C1CC04114510463
:1056E0006104710459F097018601B301A2018D8113
:1056F0009E810E94A02A811107C0EECFED81FE811C
:10570000C086D186E286F386EF81F885C082D18299
:10571000E282F382832D28960FB6F894DEBF0FBE87
:10572000CDBFDF91CF911F910F91FF90EF90DF9050
:10573000CF90BF90AF909F908F907F906F905F9031
:105740004F903F9008959F92AF92BF92CF92DF9279
:10575000EF92FF920F931F93CF93DF9300D000D06F
:10576000CDB7DEB75C016A017B019E012F5F3F4F21
:10577000B701A601C5010E94302A982E87FF02C0FA
:1057800080E01EC000E010E09801B701A601C5014D
:105790000E94A02A8823A1F3F501408551856285E6
:1057A0007385C416D506E606F70620F4C086D186B2
:1057B000E286F386C980DA80EB80FC809110D5CF39
:1057C0000F900F900F900F90DF91CF911F910F913D
:1057D000FF90EF90DF90CF90BF90AF909F90089593
:1057E000CF92DF92EF92FF920F931F93CF93DF93AD
:1057F000EC01162F1D8281E090E0A0E0B0E08887E8
:105800009987AA87BB87DAA3C9A318A28FEF9FEF56
:10581000DC018BA39CA3ADA3BEA3662321F165305D
:1058200008F0BFC020E040E050E0BA01CE01809611
:105830000E94D629009709F4B4C0FC0100E1109F32
:10584000E00DF11D1124E255FE4F80818F7709F0A4
:10585000A8C0C084D184E284F384C114D104E104DB
:10586000F10421F49EC0C12CD12C760120E0B701B7
:10587000A601CE0180960E94D629FC01009709F46A
:1058800090C0838594858115924009F08AC08089F3
:10589000823009F086C086859785892B09F481C0FE
:1058A00035853A838FEF830F8B831C8289E090E0EC
:1058B00021E0321741F0019709F473C0220F4C81A7
:1058C0004F5F4C83F6CF468957894115510519F032
:1058D00060E070E004C044A155A166A177A14C87A7
:1058E0005D876E877F878685978597018601080F7C
:1058F000191F211D311D0C8B1D8B2E8B3F8B818918
:1059000092899F838E83440F551F661F771F400F18
:10591000511F621F731F4C8F5D8F6E8F7F8FB5E09D
:10592000880F991FBA95E1F781509E4F892F9927CB
:105930008695480F591F611D711D488B598B6A8BC5
:105940007B8B83899489009719F0A0E0B0E004C0B4
:1059500080A191A1A2A1B3A197018601041B150BFF
:10596000260B370BB901A801480F591F6A1F7B1F6F
:105970000C8004C076956795579547950A94D2F7A1
:10598000DB01CA010196A11DB11D888F998FAA8FD5
:10599000BB8F453F1FE051076105710520F48CE086
:1059A0008D8380E012C0453F5F4F6105710510F4A3
:1059B00080E109C084A595A5A6A5B7A58C8F9D8F6C
:1059C000AE8FBF8F80E28D8381E0DF91CF911F91F9
:1059D0000F91FF90EF90DF90CF900895FC014FB7AB
:1059E000F8942281338184819581281B390B4FBF24
:1059F00037FF05C086819781820F931F0895C901E3
:105A00000895FC018481958122813381281739070B
:105A1000B9F09C012F5F3F4FA081B181A80FB91F42
:105A20008C91DB018C93868197812817390718F0B8
:105A300080E090E001C0C9019583848381E00895EE
:105A400080E00895EF92FF920F931F93CF93DF931F
:105A50008C01CB01F894F801C281D3817894F801CC
:105A6000E480F580CE15DF0518F4C681D78103C028
:105A7000EC16FD06E8F4CE19DF094C175D0708F4B3
:105A8000EA01F801608171816E0D7F1DAE010E94F7
:105A9000B531EC0EFD1EF80186819781E816F906F6
:105AA00010F0E81AF90AF801F582E482CE0102C08A
:105AB00080E090E0DF91CF911F910F91FF90EF90E8
:105AC0000895FC0171836083578346831582148295
:105AD000138212820895FC01228133818481958191
