:100000000C944E050C9476050C9476050C947605AC
:100010000C9476050C9476050C9476050C94760574
:100020000C9476050C9476050C9476050C94760564
:100030000C9476050C9476050C9476050C94760554
:100040000C94E1340C9476050C94FD330C944334F9
:100050000C9476050C9476050C9476050C94760534
:100060000C9476050C94760552656D6F7665206666
:1000700061696C65643A200045786974696E67004F
:100080000A0D4E756D626572206F6620657363613F
:1000900070652063686172616374657273206E6558
:1000A000656465643A20000A0D456E746572206EC1
:1000B000756D626572206F6620657363617065207F
:1000C0006368617261637465727320746F206C6F12
:1000D0006F6B20666F7220283120746F2039293AA7
:1000E00020000A0D4E65772065736361706520639B
:1000F00068617261637465723A2000456E7465725E
:100100002061206E65772065736361706520636888
:10011000617261637465723A20004E65772066698A
:100120006C65206E756D62657220726573657420F2
:10013000746F207A65726F00436F6D6D616E64201D
:1001400070726F6D707400417070656E64206669C6
:100150006C65206C6F6767696E67004E6577206617
:10016000696C65206C6F6767696E67003E0078296F
:100170002045786974003629204E756D62657220BD
:100180006F66206573636170652063686172616387
:1001900074657273003529204E657720657363613D
:1001A0007065206368617261637465720034292030
:1001B0005265736574206E65772066696C65206E84
:1001C000756D62657200332920436F6D6D616E64D9
:1001D0002070726F6D707400322920417070656EEE
:1001E000642066696C65206C6F6767696E670031B3
:1001F00029204E65772066696C65206C6F6767699A
:100200006E67004368616E676520746F3A002078FE
:10021000200043757272656E74206573636170654A
:100220002063686172616374657220616E6420612D
:100230006D6F756E743A2000436F6D6D616E640072
:10024000417070656E642066696C65004E6577204C
:1002500066696C650043757272656E7420626F6FBB
:1002600074206D6F64653A20000D0A5379737465CC
:100270006D20436F6E66696775726174696F6E0099
:1002800045786974696E6700476F696E6720746F9F
:100290002031313532303062707300476F696E67DC
:1002A00020746F20353736303062707300476F69C5
:1002B0006E6720746F2033383430306270730047BB
:1002C0006F696E6720746F2031393230306270731D
:1002D00000476F696E6720746F2039363030627066
:1002E0007300476F696E6720746F20343830306256
:1002F000707300476F696E6720746F20323430303E
:1003000062707300476F696E6720746F20313230FE
:1003100030627073003E0078292045786974003897
:100320002920313135323030206270730037292076
:100330003537363030206270730036292033383438
:10034000303020627073003529203139323030204E
:1003500062707300342920393630302062707300A7
:100360003329203438303020627073003229203233
:100370003430302062707300312920313230302027
:10038000627073004368616E676520746F3A003075
:10039000302062707300313135320035373600332A
:1003A0003834003139320039360034380032340004
:1003B00031320043757272656E743A20000A0D4244
:1003C00061756420436F6E66696775726174696FE9
:1003D0006E3A00626175640909093A204D656E75CF
:1003E00020746F20636F6E66696775726520626145
:1003F00075642072617465007365740909093A2097
:100400004D656E7520746F20636F6E6669677572D7
:10041000652073797374656D206D6F646500726516
:100420007365740909093A20436175736573207512
:100430006E697420746F2072657365742C207573F7
:10044000657320706172616D657465727320696E89
:1004500020636F6E6669672066696C650064697306
:100460006B0909093A2053686F77732063617264DE
:1004700020696E666F726D6174696F6E0073697A60
:1004800065203C66696C653E09093A2057726974BB
:10049000652073697A65206F66203C66696C653EED
:1004A00020746F207465726D696E616C0072656195
:1004B00064203C66696C653E203C73746172743ED6
:1004C000203C6C656E6774683E203C747970653EB4
:1004D0003A204F757470757473203C6C656E677448
:1004E000683E206279746573206F66203C66696C93
:1004F000653E20746F20746865207465726D696E46
:10050000616C207374617274696E67206174203C41
:1005100073746172743E2E204F6D6974203C737445
:100520006172743E20616E64203C6C656E67746815
:100530003E20746F20726561642077686F6C65205F
:1005400066696C652E203C747970653E20312070A0
:1005500072696E747320696E2041534349492C209F
:100560003220696E204845582E006C730909093AFB
:100570002053686F77732074686520636F6E7465AD
:100580006E74206F66207468652063757272656E84
:1005900074206469726563746F72792E2E006D64C5
:1005A000203C6469726563746F72793E09093A2070
:1005B000437265617465732061203C646972656390
:1005C000746F72793E00617070656E64203C66697C
:1005D0006C653E09093A20417070656E6473207441
:1005E00065787420746F20656E64206F66203C66A9
:1005F000696C653E006E6577203C66696C653E09F6
:10060000093A2043726561746573203C66696C65C4
:100610003E00426173696320636F6D6D616E647348
:100620003A004F70656E4C6F672076332E31340080
:100630006469726563746F7279206E6F7420666F7F
:10064000756E643A200063616E6E6F74206364207F
:10065000746F20706172656E742064697265637472
:100660006F72793A20002E2E002000756E6B6E6F2F
:10067000776E20636F6D6D616E643A20006F666601
:10068000006F6E0065656D006F6666006F6E0076C8
:100690006572626F7365006F6666006F6E006563FA
:1006A000686F005C002E5C0070776400617070659C
:1006B0006E64004572726F72206372656174696E58
:1006C000672066696C653A20006E65770072657315
:1006D00065740073796E6300204B4200436172645D
:1006E0002053697A653A200072656164435344205F
:1006F0006661696C6564002F004D616E75666163AB
:10070000747572696E6720646174653A2000536580
:100710007269616C206E756D6265723A20002E0000
:100720000A0D56657273696F6E3A200050726F64DD
:100730007563743A20004F454D2049443A20004DDE
:10074000616E7566616374757265722049443A2002
:100750000072656164434944206661696C656400A8
:10076000556E6B6E6F776E005344484300534432AE
:1007700000534431000A4361726420747970653A11
:1007800020006469736B002D310073697A65006520
:1007900072726F722077726974696E6720746F204D
:1007A00066696C650A0D003C004572726F722073B9
:1007B00065656B696E6720746F20004661696C65C2
:1007C0006420746F206F70656E2066696C65200010
:1007D00077726974650020002E004572726F722076
:1007E0007365656B696E6720746F20004661696C84
:1007F000656420746F206F70656E2066696C65207B
:100800000072656164006364002066696C6528732A
:10081000292064656C65746564002D726600726DD4
:10082000006572726F72206372656174696E672011
:100830006469726563746F72793A20006D64005761
:10084000696C642063617264206C73206E6F742025
:1008500079657420737570706F7274656400566F7B
:100860006C756D6520697320464154006C7300738C
:10087000657400626175640068656C70003F0046D5
:10088000696C652073797374656D20696E6974692C
:10089000616C697A656400436C6F73696E6720648C
:1008A0006F776E2066696C652073797374656D006F
:1008B000696E6974003E0021000A0D626175642C46
:1008C0006573636170652C657363232C6D6F64655C
:1008D0002C766572622C6563686F00006572726FBA
:1008E000722077726974696E6720746F2066696C14
:1008F000650025732C25642C25642C25642C256427
:100900002C25640000313135323030003537363037
:10091000300033383430300031393230300039363D
:100920003030003438303000323430300031323042
:10093000300043726561746520636F6E666967207D
:100940006661696C65640052656D6F766520636FE2
:100950006E666967206661696C656400636F6E66C8
:1009600069672E7478740031313532303000353794
:1009700036303000333834303000313932303000E6
:1009800039363030003438303000323430300031D5
:1009900032303000636F6E6669672E747874007E43
:1009A000003C004572726F72206372656174696EFB
:1009B00067205345514C4F470A005345514C4F4710
:1009C00030302E545854004C4F47253035642E5447
:1009D00058540021546F6F206D616E79206C6F67E1
:1009E000733A32210021546F6F206D616E79206C53
:1009F0006F67733A3121003200310066696C652EF1
:100A00006F70656E00726F6F742E696E6974007618
:100A10006F6C756D652E696E697400636172642E0A
:100A2000696E6974004572726F7220007C3C3E5E94
:100A30002B3D3F2F5B5D3B2C2A225C000000000019
:100A4000240027002A0000000000250028002B00B9
:100A5000000000002300260029000404040404040C
:100A6000040402020202020203030303030301025D
:100A7000040810204080010204081020010204082C
:100A8000102000000007000201000003040600001F
:100A9000000000000000D809B52ED10911241FBEA6
:100AA000CFEFD8E0DEBFCDBF11E0A0E0B1E0EAE7D4
:100AB000F2E702C005900D92A432B107D9F716E013
:100AC000A4E2B1E001C01D92A93FB107E1F71AE02D
:100AD000CAE9DAE004C02297FE010E94F538C6395F
:100AE000D107C9F70E94B1360C9430390C9400003C
:100AF000FC0188279927E89421912032E9F32930D5
:100B000010F02E30C8F32B3241F02D3239F46894B6
:100B100004C00E94E505820F911D219120532A30C7
:100B2000C0F31EF4909581959F4F0895FB01DC0161
:100B30008D91059080190110D9F3990B0895FB014F
:100B4000DC0105900D920020E1F70895FC0105906D
:100B50000020E9F7809590958E0F9F1F0895FB0167
:100B6000DC0104C08D910190801921F44150504066
:100B7000C8F7881B990B0895FB01DC0102C00190A6
:100B80000D9241505040D8F70895DC0101C06D939B
:100B900041505040E0F70895FB01DC0141505040C6
:100BA00048F001900D920020C9F701C01D924150FC
:100BB0005040E0F70895DC016C9161566A3108F00D
:100BC000605E6F5B6D93C1F708957AE0979F902DFB
:100BD000879F802D910D11240895AEE0B0E0E3EFE2
:100BE000F5E00C9407390D891E898EE08C831A83F9
:100BF00009838FEF9FE79E838D839E01275E3F4F82
:100C0000CE0101966F89788DA9010E9411062F816E
:100C10003885020F131FF80110822E96E4E00C9421
:100C20002339ABE0B0E0E7E1F6E00C94F9383C01A1
:100C30002B015A01FC0117821682838181FD03C0BA
:100C40006FEF7FEFC6C19AE0892E1E010894211C28
:100C5000311CF3012381F20123FD859123FF819152
:100C60002F01882309F4B2C1853239F423FD85911F
:100C700023FF81912F01853229F490E0B3010E9476
:100C80000408E7CF982FFF24EE249924FFE1FF15F5
:100C9000D0F09B3269F09C3228F4903259F09332B4
:100CA00091F40EC09D3249F0903369F441E024C0C4
:100CB00052E0F52A84E0F82A28C098E0F92A25C0F5
:100CC000E0E1FE2A22C0F7FC29C0892F80538A3038
:100CD00070F4F6FE05C0989C902C1124980E15C057
:100CE000E89CE02C1124E80EF0E2FF2A0EC09E32B0
:100CF00029F4F6FC6BC140E4F42A07C09C3619F4D1
:100D000050E8F52A02C0983649F4F20123FD959186
:100D100023FF91912F01992309F0B8CF892F855492
:100D2000833018F08052833038F444E050E0A40E51
:100D3000B51E5FE359830FC0933631F0933779F0D6
:100D4000933509F056C020C0F5018081898342E0C7
:100D500050E0A40EB51E610101E010E012C0F501E3
:100D6000C080D180F6FC03C06FEF7FEF02C0692D19
:100D700070E042E050E0A40EB51EC6010E94F907E3
:100D80008C015FE7F52214C0F501C080D180F6FC2C
:100D900003C06FEF7FEF02C0692D70E042E050E0CA
:100DA000A40EB51EC6010E94EE078C0150E8F52A7C
:100DB000F3FE07C01AC080E290E0B3010E9404086D
:100DC000EA948E2D90E008171907A8F30EC0F601DB
:100DD000F7FC8591F7FE81916F0190E0B3010E94CD
:100DE0000408E110EA94015010400115110579F74B
:100DF000EAC0943611F0993669F5F7FE08C0F5019E
:100E0000208131814281538184E090E00AC0F50164
:100E1000808191819C01442737FD4095542F82E0C9
:100E200090E0A80EB91E9FE6F92257FF09C0509521
:100E30004095309521953F4F4F4F5F4FE0E8FE2A98
:100E4000CA01B901A1012AE030E00E943008D82E81
:100E5000D21840C0953729F41F2D1F7E2AE030E0BC
:100E60001DC01F2D197F9F3661F0903720F49835F3
:100E700009F0ACC00FC0903739F0983709F0A6C020
:100E800004C028E030E00AC0106114FD146020E1C5
:100E900030E004C014FD166020E132E017FF08C006
:100EA000F501608171818281938144E050E008C046
:100EB000F50180819181BC0180E090E042E050E04A
:100EC000A40EB51EA1010E943008D82ED2188FE7BB
:100ED000F82EF122F6FE0BC05EEFF522D91438F49D
:100EE000F4FE07C0F2FC05C08FEEF82202C01D2DF3
:100EF00001C0192DF4FE0DC0FE01ED0DF11D808124
:100F0000803319F499EEF92208C01F5FF2FE05C084
:100F100003C08F2D867809F01F5F0F2DF3FC14C0DE
:100F2000F0FE0FC01E1510F09D2C0BC09D2C9E0CCA
:100F3000911A1E2D06C080E290E0B3010E940408C1
:100F40001F5F1E15C0F304C01E1510F4E11A01C086
:100F5000EE2404FF0FC080E390E0B3010E94040878
:100F600002FF1DC001FD03C088E790E00EC088E5C8
:100F700090E00BC0802F867891F001FF02C08BE2D9
:100F800001C080E2F7FC8DE290E0B3010E9404080A
:100F900006C080E390E0B3010E9404089A94D9143B
:100FA000C0F3DA94F101ED0DF11D808190E0B30101
:100FB0000E940408DD20A9F706C080E290E0B3019A
:100FC0000E940408EA94EE20C1F743CEF301668143
:100FD0007781CB012B96E2E10C941539FC01059049
:100FE000615070400110D8F7809590958E0F9F1F2B
:100FF0000895FC016150704001900110D8F7809570
:1010000090958E0F9F1F08950F931F93CF93DF939B
:101010008C01EB018B8181FF1BC082FF0DC02E81F3
:101020003F818C819D812817390764F4E881F9811B
:101030000193F983E88306C0E885F985802F099537
:10104000892B31F48E819F8101969F838E8302C00C
:101050000FEF1FEFC801DF91CF911F910F910895FE
:10106000FA01AA27283051F1203181F1E8946F93D9
:101070006E7F6E5F7F4F8F4F9F4FAF4FB1E03ED07F
:10108000B4E03CD0670F781F891F9A1FA11D680F1D
:10109000791F8A1F911DA11D6A0F711D811D911D50
:1010A000A11D20D009F468943F912AE0269F1124C5
:1010B0003019305D3193DEF6CF010895462F477029
:1010C000405D4193B3E00FD0C9F7F6CF462F4F7084
:1010D000405D4A3318F0495D31FD4052419302D0E2
:1010E000A9F7EACFB4E0A695979587957795679588
:1010F000BA95C9F700976105710508959B01AC0188
:101100000A2E06945795479537952795BA95C9F7AE
:10111000620F731F841F951FA01D0895FC01DB0142
:1011200008C0891721F08F3311F080E008953196BF
:1011300011969C919923F1F080818A3291F71AC01F
:1011400080818A3259F431968081882311F481E0BC
:1011500008959D012F5F3F4FAF0110C0891711F017
:101160008F3319F43196119609C0FA01D9012F5F16
:101170003F4F04C020E030E040E050E09C919923D4
:10118000F9F601C0319690819A32E1F380E099231B
:1011900009F481E00895EF92FF920F931F937A0173
:1011A0008B011092C1002E732093C200403081EE5B
:1011B000580780E0680780E0780729F41092C000A3
:1011C00020E130E013C082E08093C00060E079E06D
:1011D0008DE390E0A80197010E94D1382150304062
:1011E0004040504056954795379527953093C50018
:1011F0002093C40088E98093C1001F910F91FF9054
:10120000EF9008958091C00085FFFCCF6093C600E9
:1012100081E090E00895CF92DF92EF92FF920F93DA
:101220001F93CF93DF937C016B018A01C0E0D0E074
:101230000EC0F601EC0FFD1F4491F701A081B181B2
:101240002D913C91C701642FF90109952196C01792
:10125000D10778F3C801DF91CF911F910F91FF90D3
:10126000EF90DF90CF900895CF92DF92EF92FF92B0
:101270000F931F93CF93DF937C016B018A01C0E032
:10128000D0E00DC0D701ED91FC91D601AC0FBD1F90
:101290000190F081E02DC7016C9109952196C0174E
:1012A000D10780F3C801DF91CF911F910F91FF907B
:1012B000EF90DF90CF90089508958FED96E00E9413
:1012C000E6330895DF93CF930F92CDB7DEB78FED5E
:1012D00096E0BE016F5F7F4F0E94AF33882319F401
:1012E0002FEF3FEF03C08981282F30E0C9010F9015
:1012F000CF91DF9108958FED96E00E949D33089580
:10130000FC018FE191E0918380838781882321F024
:10131000CF0104960E947D22089581309105B9F590
:101320006F5F7F4FE9F5109227011092260188EE3A
:1013300093E0A0E0B0E08093280190932901A0936E
:101340002A01B0932B0187E091E0909325018093CF
:1013500024018FED96E060E371E04DE053E00E94E0
:10136000DA3389E18093590410925C04109274047A
:1013700010927F041092820410927E0410927D04D9
:101380008FE191E090937C0480937B040895892BF6
:1013900039F46F5F7F4F21F48BE794E00E9480095E
:1013A000089580E090E06FEF7FEF0E948D0908952F
:1013B00081E090E06FEF7FEF0E948D090895CF9359
:1013C000DF93EC018FE0EEEBF4E0DF011D928A95F4
:1013D000E9F750E041E0A62FB0E039C0242F30E01B
:1013E000FE01E20FF31F8081803229F02F5F3F4F13
:1013F0002A173B0759F5842F90E001968A179B071F
:1014000009F4462FEEEBF4E020E080819181892BF6
:1014100019F0828181112F5F339684E0ED3CF8074B
:10142000A1F7253088F4822F90E0FC01EE0FFF1F1A
:10143000E80FF91FE254FB4FCE01850F911D9183F8
:101440008083842F851B82834F5F542F4F5F461705
:1014500028F2EEEBF4E020E080819181892B19F0F5
:10146000828181112F5F3396A4E0ED3CFA07A1F74A
:10147000822FDF91CF910895982F8EE1E0EAF4E07A
:10148000DF011D928A95E9F79530E8F4892F90E005
:10149000FC01EE0FFF1FE80FF91FE254FB4F6081C4
:1014A00071816115710579F04281442361F04F31FA
:1014B00018F04EE150E001C050E080EA94E00E9454
:1014C000CC059C0102C020E030E0C90108950F93D3
:1014D0001F9304E211E0C80162E276E00E94353712
:1014E000C80162E176E00E943537C80165EF75E01A
:1014F0000E943537C80166EC75E00E943537C80197
:101500006EE975E00E943537C8016AE675E00E9411
:101510003537C8016DEA74E00E943537C8016DE7C0
:1015200074E00E943537C8016DE574E00E943537DC
:10153000C8016EE174E00E943537C80168EF73E0BE
:101540000E943537C80163ED73E00E9435371F9163
:101550000F9108951F938FEE96E061E070E00E9476
:10156000CE3480939A048B3050F081E080939A04BB
:101570008FEE96E061E070E041E00E94D5348FEE9E
:1015800096E062E070E00E94CE3480939B04863047
:1015900048F010929B048FEE96E062E070E040E02D
:1015A0000E94D5348FEE96E065E070E00E94CE3464
:1015B00080939C0481508E3F50F08AE180939C047C
:1015C0008FEE96E065E070E04AE10E94D5348FEE40
:1015D00096E066E070E00E94CE3480939D048150D6
:1015E0008E3F50F083E080939D048FEE96E066E09E
:1015F00070E043E00E94D5348FEE96E067E070E043
:101600000E94CE3411E010939E048FEE96E067E0C6
:1016100070E041E00E94D5348FEE96E068E070E023
:101620000E94CE3410939F048FEE96E068E070E045
:1016300041E00E94D53480919E0490910001813058
:1016400011F4926001C09D7F9093000180919F04EE
:1016500090910001813011F4916001C09E7F9093C0
:1016600000011F9108950F931F930FEE16E0C8011C
:1016700061E070E041E00E94D534C80162E070E0B2
:1016800040E00E94D534C80165E070E04AE10E9464
:10169000D534C80166E070E043E00E94D534C8014B
:1016A00067E070E041E00E94D534C80168E070E076
:1016B00041E00E94D5341F910F910895CF92DF929F
:1016C000EF92FF920F931F93CF93DF93EC01D62EEF
:1016D00060E070E04D2D50E00E94C50500E0ED2C6B
:1016E000FF240894E108F108B0E2CB2E45C08FED4D
:1016F00096E00E949D33892BD1F384E291E00E9411
:101700006209182F8BB18C258BB9183011F01F3757
:10171000C1F4002389F10150FE01E00FF11D108298
:1017200084E291E068E00E940D3784E291E069E68E
:1017300076E00E94EA3684E291E068E00E940D378C
:101740001BC08091000180FF05C084E291E0612F01
:101750000E940D371D3049F484E291E00E94153754
:10176000FE01E00FF11D10820DC01A3029F0FE01BC
:10177000E00FF11D10830F5F802F90E08E159F0505
:101780000CF4B5CFCE016D2D0E94DF09802FDF91C3
:10179000CF911F910F91FF90EF90DF90CF90089520
:1017A000EF92FF920F931F938C01F62EE72E862F58
:1017B000972F0E94A605AC01C8016F2D7E2D0E94B7
:1017C0000B091F910F91FF90EF900895AF92BF9278
:1017D000CF92DF92EF92FF920F931F93DF93CF93FD
:1017E000CDB7DEB7AC970FB6F894DEBF0FBECDBF56
:1017F0001A8A1D8A198A188A8FE191E09F878E873D
:101800008FEE96E063E070E00E94CE34182F8FEEEA
:1018100096E064E070E00E94CE34282F1F3F99F4D8
:101820008F3F89F48FEE96E063E070E040E00E9425
:10183000D5348FEE96E064E070E040E00E94D5344D
:10184000EE24FF2410C0922F80E0E12EFF24E82A2E
:10185000F92A8EEFE8168FEFF80629F484E291E07A
:1018600065EE79E017C06E010894C11CD11C17EC1D
:10187000A12E19E0B12E8E010E5E1F4F0894E11CBF
:10188000F11C9EEFE9169FEFF90648F084E291E023
:1018900063ED79E00E94EA3600E010E041C000D03C
:1018A00000D000D0EDB7FEB73196ADB7BEB71296F7
:1018B000DC92CE921197B382A282F582E4820E94DA
:1018C000ED058DB79EB706960FB6F8949EBF0FBE76
:1018D0008DBFC8016FE774E0A60122EC0E944D2C79
:1018E000882361F2C8010E947D228FEE96E063E0BA
:1018F00070E04E2D0E94D5348FEE96E064E070E0EB
:101900000E94CE346E010894C11CD11C8F1539F091
:101910008FEE96E064E070E04F2D0E94D534860192
:10192000CE010E960E948009C801AC960FB6F894BD
:10193000DEBF0FBECDBFCF91DF911F910F91FF9002
:10194000EF90DF90CF90BF90AF9008950F931F93CB
:10195000CF93DF93C0E0D0E0082F10E015C085E002
:1019600061E00E940A3668EC70E080E090E00E943E
:10197000373585E060E00E940A3668EC70E080E070
:1019800090E00E9437352196C017D10744F360EDEF
:1019900077E080E090E00E943735C0E0D0E0F4CFFF
:1019A0001F93182F84E291E065E27AE00E94EA3604
:1019B000173079F0183018F41630F1F405C01830EB
:1019C00069F01930C9F40FC084E291E06BE17AE06C
:1019D0000EC084E291E06FE07AE009C084E291E019
:1019E00065E07AE004C084E291E06BEF79E00E9468
:1019F000EA3683E00E94A60C1F910895AF92BF9231
:101A0000CF92DF92EF92FF920F931F93DF93CF93CA
:101A1000CDB7DEB76F970FB6F894DEBF0FBECDBF60
:101A20005C011D8218861C821B828FE191E09A83E3
:101A30008983C50166E676E00E949605892B09F048
:101A40006FC08FE794E00E947D228FE794E06DE500
:101A500074E00E94AB25882319F488E00E94D00C22
:101A600080914004882339F080914C04882311F040
:101A70008FEF01C081E0E82EEA94E7FE03C0FF2467
:101A8000F39440C0FF24F39400E010E025E0C22E60
:101A9000D12CCC0EDD1E27C0A801440F551F400FCE
:101AA000511F440F551F440F551F405C5B4FC6012B
:101AB0006FE774E021E00E944D2CF82E0F5F1F4F5E
:101AC000882399F0AFE7B4E0F6018BE101900D9225
:101AD0008150E1F78B819C8190937E0480937D04FB
:101AE000C6010E947D220E15BCF28CE02E2D28022C
:101AF000C0011124805C9B4FFC018BE0DF011D9233
:101B00008A95E9F78091000181FF4BC0FF2019F011
:101B1000FF24F39446C084E291E066E476E015C0C9
:101B20008E010B5F1F4FC8016FE774E0A50121E034
:101B30000E944D2CF82E882381F48091000181FFB2
:101B400030C084E291E060E376E00E94EA3684E20D
:101B500091E0B5010E949F3824C0AFE7B4E0F801DE
:101B60008BE101900D928150E1F78B819C819093E4
:101B70007E0480937D0480914004882311F490E0DA
:101B800005C080914C04882361F491E08CE09802B8
:101B9000C0011124805C9B4FB5014BE050E00E94D6
:101BA000CC05CE0101960E9480098F2D6F960FB64D
:101BB000F894DEBF0FBECDBFCF91DF911F910F9183
:101BC000FF90EF90DF90CF90BF90AF900895BF92BD
:101BD000CF92DF92EF92FF920F931F93DF93CF93F9
:101BE000CDB7DEB7C159D0400FB6F894DEBF0FBEF7
:101BF000CDBF19A61CA618A61FA28FE191E09EA337
:101C00008DA3FE01EC5BFF4F1482178213821282B8
:101C100091838083CE0189966DE574E00E94AB25A7
:101C2000882319F488E00E94D00C8E01095F1F4FB1
:101C3000C8016CE579E00E949F0568E4E62EF12C6E
:101C4000EC0EFD1E59E2C52ED12CCC0EDD1EC701B7
:101C5000B601A80122E00E944D2C882381F0C70123
:101C60000E947923882359F484E291E067E479E0C3
:101C70000E943537C7010E947D22C6011CC08E011B
:101C8000085B1F4F49E2E42EF12CEC0EFD1EC8014B
:101C9000B701AE01495F5F4F26E40E944D2C8823B7
:101CA00081F484E291E062E379E00E943537C80173
:101CB0000E947D22C7010E947D22CE018C5B9F4F36
:101CC000E4C08FEE96E061E070E00E94CE34082F11
:101CD0008FEE96E065E070E00E94CE34B82E8FEE75
:101CE00096E066E070E00E94CE34C82E8FEE96E05B
:101CF00062E070E00E94CE34D82E8FEE96E067E06E
:101D000070E00E94CE34E82E8FEE96E068E070E03E
:101D10000E94CE34F82E073029F4CE0101966DE2F0
:101D200079E030C0002329F4CE01019668E279E021
:101D300029C0043029F4CE01019663E279E022C083
:101D4000013029F4CE0101966EE179E01BC0053027
:101D500029F4CE01019668E179E014C0063029F437
:101D6000CE01019662E179E00DC0023029F4CE0186
:101D700001966CE079E006C0033031F4CE010196A3
:101D800065E079E00E949F058DB79EB740970FB63A
:101D9000F8949EBF0FBE8DBFEDB7FEB731968E0192
:101DA0000F5E1F4FADB7BEB712961C930E931197DF
:101DB00082EF98E093838283CE010196958384839A
:101DC0008B2D992787FD9095978386838C2D992756
:101DD00087FD9095918780878D2D992787FD909518
:101DE000938782878E2D992787FD90959587848785
:101DF0008F2D992787FD9095978786870E94ED05FF
:101E0000F80101900020E9F73197E01BF10B8DB745
:101E10009EB740960FB6F8949EBF0FBE8DBFCE0101
:101E20008C5B9F4FB801AF010E94E52EF801019035
:101E30000020E9F73197E01BF10B8E179F0731F077
:101E400084E291E06CED78E00E9435378E010D5907
:101E50001F4FC80169EB78E00E949F0534E4E32E30
:101E6000F12CEC0EFD1EC701B8010E94C02E8701A7
:101E70000C5F1F4FC8010E942D22C8010E947D22C5
:101E8000CE0189960E947D22C7010E948009CE0161
:101E900085960E948009CF56DF4F0FB6F894DEBFBB
:101EA0000FBECDBFCF91DF911F910F91FF90EF90AB
:101EB000DF90CF90BF9008951F938FEE96E062E081
:101EC00070E00E94CE34182F84E291E069E672E05F
:101ED0000E94353784E291E065E572E00E94EA36BF
:101EE000112329F484E291E06CE472E00DC011301A
:101EF00029F484E291E060E472E006C0123031F42B
:101F000084E291E068E372E00E94EA3684E291E0C4
:101F10000E94153784E291E062E172E00E94EA36A5
:101F200084E291E060919C044AE050E00E940D3808
:101F300084E291E06EE072E00E94EA3684E291E091
:101F400060919D044AE050E00E941F3884E291E0D5
:101F500063E072E00E94353784E291E06FEE71E059
:101F60000E94353784E291E068ED71E00E943537D8
:101F700084E291E066EC71E00E94353784E291E002
:101F80006DEA71E00E94353784E291E065E971E025
:101F90000E94353784E291E066E771E00E943537B0
:101FA00084E291E06EE671E00E94353784E291E0D0
:101FB0006CE671E00E94EA368FED96E00E949D3358
:101FC000892BD1F384E291E00E946209813361F4AC
:101FD00084E291E06BE571E00E9435378FEE96E088
:101FE00062E070E040E00DC0823381F484E291E071
:101FF00067E471E00E9435378FEE96E062E070E0B2
:1020000041E00E94D5340E94E70D89C0833361F41A
:1020100084E291E068E371E00E9435378FEE96E04C
:1020200062E070E042E0EDCF8433A9F484E291E015
:102030006AE171E00E9435378FEE96E063E070E070
:1020400040E00E94D5348FEE96E064E070E040E01E
:102050000E94D53464C0853331F584E291E06BEFA2
:1020600070E00E94EA368FED96E00E949D33892B46
:10207000D1F384E291E00E946209482F80939C048E
:102080008FEE96E065E070E00E94D5340E94E70D87
:1020900084E291E062EE70E00E94EA3684E291E030
:1020A00060919C042EC0863389F54AE012C084E218
:1020B00091E067EA70E00E94EA368FED96E00E94B8
:1020C0009D33892BD1F384E291E00E946209482F6D
:1020D0004053842F8150893050F740939D048FEEF8
:1020E00096E066E070E00E94D5340E94E70D84E23D
:1020F00091E060E870E00E94EA3684E291E060914D
:102100009D044AE050E00E941F3809C0883709F05A
:10211000DBCE84E291E068E770E00E9435371F91E2
:1021200008952F923F924F925F926F927F928F927B
:102130009F92AF92BF92CF92DF92EF92FF920F9356
:102140001F93DF93CF93CDB7DEB7C356D0400FB602
:10215000F894DEBF0FBECDBF1AA61DA619A618A6FD
:102160008FE191E09FA38EA3FE01EB5BFF4F1482F2
:1021700017821382128291838083CE018A966DE545
:1021800074E00E94AB25882319F488E00E94D00CEB
:102190008E01085F1F4FC80164E979E00E949F0526
:1021A00025E4A22EB12CAC0EBD1E94E0E92EF12C3C
:1021B000EA0CFB1C8AE2C82ED12CCC0EDD1EC70116
:1021C000B601A80121E00E944D2C882351F4C701DB
:1021D0000E947D22C6010E947D220E94E70DC5015A
:1021E000D3C1CC24DD248E010E5E1F4FC7010E9497
:1021F0009A2418165CF4F801EC0DFD1D80830894F8
:10220000C11CD11C84E1C816D10481F7CE01875BC3
:102210009F4F0E947D22CE018A960E947D2201E07E
:10222000BB241AE1812EB3E09B2E7724739466249D
:102230006394AA2410E07E010894E11CF11CA2E141
:102240002A2E312C2C0E3D1EF7E04F2E512C4C0E19
:102250005D1E96C0ED93A3942A2F2E198A2D90E02F
:10226000F101E80FF91FE081EC3231F08C159D058A
:102270001CF4A415B50571F7F701E20FF11D1082EA
:10228000C7010E947805112309F047C0C7016FE814
:1022900079E00E949605892B11F407E06FC0C70111
:1022A0006AE879E00E949605892B11F400E066C087
:1022B000C70165E879E00E949605892B11F404E0D6
:1022C0005DC0C70160E879E00E949605892B09F49A
:1022D00054C0C7016AE779E00E949605892B11F482
:1022E00005E04CC0C70164E779E00E949605892BA0
:1022F00011F406E043C0C7016EE679E00E9496053E
:10230000892B11F402E03AC0C70167E679E00E9428
:102310009605892B91F503E031C0113031F4882EF8
:10232000882361F5EAE18E2E29C0123039F4982E07
:10233000882301F18AE08915ECF020C0133041F4C4
:10234000B82E8823D9F082E08B15C4F4BB2416C0C4
:10235000143039F4782E81E0871580F47724739453
:102360000DC01530A1F4682E81E0861538F466247E
:10237000639404C073E0972E01C001E01F5FA39433
:102380008A2D90E08C159D0514F4D70165CF202F80
:10239000332727FD309580919A0490E0281739075C
:1023A00011F440E070C08FEE96E061E070E0402FE5
:1023B0000E94D53400939A04073049F484E291E0F6
:1023C00040EB54E060E070E026E00E94CB08809192
:1023D0009A04882349F484E291E040E659E060E001
:1023E00070E026E00E94CB0880919A04843049F482
:1023F00084E291E040EC52E160E070E026E00E946F
:10240000CB0880919A04813049F484E291E040E85D
:1024100055E260E070E026E00E94CB0880919A04CB
:10242000853049F484E291E040E05BE460E070E0F4
:1024300026E00E94CB0880919A04863049F484E219
:1024400091E040E056E960E070E026E00E94CB08B1
:1024500080919A04823049F484E291E040E051EEA8
:1024600060E070E026E00E94CB0880919A048330FF
:1024700049F484E291E040E052EC61E070E026E053
:102480000E94CB0841E02B2D332727FD309580910A
:102490009B0490E02817390751F0B0929B048FEE0F
:1024A00096E062E070E04B2D0E94D53441E0282D8B
:1024B000332727FD309580919C0490E02817390739
:1024C00051F080929C048FEE96E065E070E0482D1C
:1024D0000E94D53441E0292D332727FD3095809186
:1024E0009D0490E02817390751F090929D048FEEDB
:1024F00096E066E070E0492D0E94D53441E0272D3A
:10250000332727FD309580919E0490E028173907E6
:1025100051F070929E048FEE96E067E070E0472DD8
:102520000E94D53441E0262D332727FD3095809138
:102530009F0490E02817390751F060929F048FEEB6
:1025400096E068E070E0462D0E94D53402C041302C
:1025500011F40E94E70D80919E049091000181305A
:1025600011F4926001C09D7F9093000180919F04BF
:1025700090910001813011F4916001C09E7F909391
:102580000001CE018B5B9F4F0E948009CE01869691
:102590000E948009CD59DF4F0FB6F894DEBF0FBE01
:1025A000CDBFCF91DF911F910F91FF90EF90DF9002
:1025B000CF90BF90AF909F908F907F906F905F90E3
:1025C0004F903F902F9008951F938FEE96E061E01B
:1025D00070E00E94CE34182F84E291E06DEB73E03E
:1025E0000E94353784E291E063EB73E00E94EA36A3
:1025F000173029F484E291E060EB73E030C01123DE
:1026000029F484E291E06DEA73E029C0143029F4E2
:1026100084E291E06AEA73E022C0113029F484E296
:1026200091E067EA73E01BC0153029F484E291E081
:1026300063EA73E014C0163029F484E291E06FE994
:1026400073E00DC0123029F484E291E06BE973E08D
:1026500006C0133031F484E291E066E973E00E9431
:10266000EA3684E291E06FE873E00E94353784E255
:1026700091E064E873E00E94353784E291E068E716
:1026800073E00E94353784E291E06CE673E00E94CB
:10269000353784E291E060E673E00E94353784E2EA
:1026A00091E064E573E00E94353784E291E067E4ED
:1026B00073E00E94353784E291E06AE373E00E94A0
:1026C000353784E291E06DE273E00E94353784E2B1
:1026D00091E06FE173E00E94353784E291E067E1B9
:1026E00073E00E94353784E291E065E173E00E9477
:1026F000EA368FED96E00E949D33892BD1F384E278
:1027000091E00E946209813361F484E291E064E027
:1027100073E00E9435378FEE96E061E070E047E0AD
:1027200061C0823361F484E291E063EF72E00E9461
:1027300035378FEE96E061E070E040E053C08333C0
:1027400061F484E291E062EE72E00E9435378FEE30
:1027500096E061E070E044E045C0843361F484E2D7
:1027600091E061ED72E00E9435378FEE96E061E016
:1027700070E041E037C0853361F484E291E06FEBB3
:1027800072E00E9435378FEE96E061E070E045E040
:1027900029C0863361F484E291E06DEA72E00E9420
:1027A00035378FEE96E061E070E046E01BC087337E
:1027B00061F484E291E06BE972E00E9435378FEEBC
:1027C00096E061E070E042E00DC0883399F484E265
:1027D00091E068E872E00E9435378FEE96E061E0A4
:1027E00070E043E00E94D5340E94E70D85E00E942E
:1027F000A60C09C0883709F0EFCE84E291E060E8CA
:1028000072E00E9435371F9108950F931F93CF9365
:10281000DF93EC018B0141E00E94602F882311F0CF
:1028200081E005C0CE01B80140E00E94602FDF9139
:10283000CF911F910F9108950F931F9380E060E057
:102840000E94CB3580E061E00E940A3680E00E9461
:102850005E36019709F472C08DE061E00E94CB35CD
:102860008DE061E00E940A3610E000E269E170E06C
:1028700080E090E00E9437358BB180278BB980E0F3
:102880000E945E36019709F459C069E170E080E06A
:1028900090E00E94373585B1802785B980E00E949D
:1028A0005E36019709F44AC01F5F1832F9F60E949C
:1028B000330B88E594E060E04AE00E9428208823FA
:1028C00019F486E00E94D00C8DE594E068E574E090
:1028D0000E940514882319F487E00E94D00C8FE72A
:1028E00094E00E947D228FE794E06DE574E00E9401
:1028F000AB25882319F488E00E94D00C0E94E70DD4
:1029000085E061E00E94CB358DE061E00E94CB352F
:1029100085E061E00E940A368DE061E00E940A369F
:1029200010E264EF71E080E090E00E9437358BB1F7
:1029300081278BB985B1812785B9F3CF1F910F917D
:10294000089585E061E00E94CB3583B7817F83BF26
:1029500083B7816083BF80917A008F7780937A00FC
:1029600080E880BF8FE380937E0083E080937F00C8
:102970008091640080688093640080916400886026
:1029800080936400809164008064809364008091EF
:1029900064008160809364000E941C140E94AA0A53
:1029A00080919A04873049F484E291E040EB54E04E
:1029B00060E070E026E00E94CB0880919A048823B2
:1029C00049F484E291E040E659E060E070E026E0FE
:1029D0000E94CB0880919A04843049F484E291E00B
:1029E00040EC52E160E070E026E00E94CB0880916C
:1029F0009A04813049F484E291E040E855E260E0D5
:102A000070E026E00E94CB0880919A04853049F45A
:102A100084E291E040E05BE460E070E026E00E9448
:102A2000CB0880919A04863049F484E291E040E03A
:102A300056E960E070E026E00E94CB0880919A049D
:102A4000823049F484E291E040E051EE60E070E0D1
:102A500026E00E94CB0880919A04833049F484E2F6
:102A600091E040E052EC61E070E026E00E94CB088B
:102A700084E291E069EF79E00E94EA3688E594E02B
:102A800060E04AE00E942820882319F486E00E9432
:102A9000D00C8DE594E068E574E00E94051488236D
:102AA00019F487E00E94D00C8FE794E00E947D2209
:102AB0008FE794E06DE574E00E94AB25882319F45C
:102AC00088E00E94D00C84E291E067EF79E00E94F8
:102AD000EA360E94911088E1E0E4F4E0DF011D9203
:102AE0008A95E9F70895EF92FF920F931F93CF9382
:102AF000DF937B018A01060F171FEB01C017D10777
:102B0000B0F42091E1063091E2068091E3069091C5
:102B1000E4062817390759F0A8014C1B5D0B8FED0F
:102B200096E0BE010E948234C80FD91FE7CF9E01F4
:102B30002E193F09C901DF91CF911F910F91FF908D
:102B4000EF9008954F925F926F927F928F929F9233
:102B5000AF92BF92CF92DF92EF92FF920F931F93AB
:102B6000DF93CF93CDB7DEB7EF970FB6F894DEBF04
:102B70000FBECDBFAC011D8218861C821B828FE167
:102B800091E09A838983CE0105966FE774E026E48D
:102B90000E944D2C882319F489E00E94D00C8E8964
:102BA0009F89A88DB98D0097A105B10569F48E01A3
:102BB0000B5F1F4FC80140E050E060E070E00E94F2
:102BC0006321C8010E942D2284E291E061EA79E04C
:102BD0000E94EA3685E061E00E940A360E942935AB
:102BE0007B018C01DD2460E2862E912C8C0E9D1ED3
:102BF00055E0A52EB12CAC0EBD1E2E010894411C33
:102C0000511C40E2C42E31E2632E712C6C0E7D1EED
:102C10006DC084E291E0B40140E250E00E9473157F
:102C2000482F8823A1F128A180919C04281711F036
:102C3000DD2412C0D39430919D04F30191E00AC0C9
:102C40008081821711F0DD2403C0D394D31621F0C4
:102C50009F5F31969417A0F3C201B40150E00E9427
:102C6000E52E8BB18C258BB90E9429356E197F0911
:102C7000800B910B6958734180409040B8F1C501B9
:102C80000E942D220E9429357B018C012FC00E94B9
:102C900029356E197F09800B910B655F714080406B
:102CA000904020F1C5010E942D225D988091640022
:102CB00080628093640080916400846080936400EB
:102CC00083B7816083BF889583B78E7F83BF8091F0
:102CD00064008B7F80936400809164008F7D80937B
:102CE00064000E9429357B018C01DD2480919D04C4
:102CF000D81608F48ECF8E010B5F1F4FC8010E94BB
:102D00002D22C8010E947D2285E060E00E940A36E3
:102D100084E291E06FE979E00E94EA36CE01019603
:102D20000E94800981E0EF960FB6F894DEBF0FBED7
:102D3000CDBFCF91DF911F910F91FF90EF90DF906A
:102D4000CF90BF90AF909F908F907F906F905F904B
:102D50004F9008952F923F924F925F926F927F9281
:102D60008F929F92AF92BF92CF92DF92EF92FF929B
:102D70000F931F93DF93CF93CDB7DEB7CF58D040DB
:102D80000FB6F894DEBF0FBECDBFFE01E45BFF4F70
:102D900014821782138212828FE191E091838083E3
:102DA00011E02F0124E030E0420E531EFE01769622
:102DB000C257DF4FF983E883CE58D0400BE6202E70
:102DC000312C2C0E3D1EC457DF4F8883CC58D04089
:102DD000C357DF4F9883CD58D04091012C5F3F4FB0
:102DE000C657DF4F39832883CA58D04001C011E04D
:102DF0008091000183FF05C084E291E06AE10E94B6
:102E00000D37112331F484E291E067EB78E00E9402
:102E1000EA3684E291E065EB78E00E94EA36CE0182
:102E20008E966EE10E945E0B11E0882309F380E02C
:102E30000E943C0A7C0160EB78E00E949605892B99
:102E400041F58091000181FF06C084E291E067E9CD
:102E500078E00E9435378FE794E00E947D228FE76B
:102E600094E06DE574E00E94AB25882319F488E0B6
:102E70000E94D00C88E1E0E4F4E011928A95E9F731
:102E80008091000181FFB3CF84E291E06FE778E0A9
:102E9000E0C5C7016DE778E00E949605892B39F0FF
:102EA000C70168E778E00E949605892B19F40E9413
:102EB000670A9ECFC70163E778E00E949605892BD9
:102EC00019F40E94E41294CFC7016FE678E00E94E3
:102ED0009605892B19F40E945C0F8ACFC7016CE616
:102EE00078E00E949605892BE1F48091000181FF32
:102EF0000EC084E291E06EE578E00E94EA3684E25A
:102F000091E0609174044AE050E00E941F388FE71E
:102F100094E066E00E94142984E291E06FE378E097
:102F200098C5C7016CE378E00E949605892BE1F50E
:102F300081E00E943C0A8C01009709F459C5F10117
:102F40001482178213821282C457DF4F2881CC5813
:102F5000D0402083C357DF4F3881CD58D0403183D4
:102F6000C657DF4F88819981CA58D0406FE774E017
:102F7000A80120E00E94C82D882311F011E010C0A4
:102F80008091000181FF0BC084E291E061E278E072
:102F90000E94EA3684E291E0B8010E949F3810E076
:102FA000C1010E94800924CFC7016EE178E00E9430
:102FB0009605892B09F093C081E00E943C0A6C01C0
:102FC000009709F415C5EEEBF4E020E080819181D3
:102FD000892B19F0828181112F5F339684E0ED3CBB
:102FE000F807A1F7233009F005C5C6016AE178E0CA
:102FF0000E949605892B09F0FDC482E00E943C0ADC
:10300000AC01C2016FE774E021E00E944D2C8823DF
:1030100009F4EEC4C2010E940F2709C064968FAD67
:103020006497823008F4F1C4C2010E94EE24182F84
:103030007AC2C2010E947923FACFC6010E94DB0541
:103040008FE794E040E050E060E070E00E94632190
:10305000EE24FF24870122C064968FAD64978230EE
:10306000D0F4C201BE016F5F7F4F0E948F22882380
:1030700091F0C601BE016F5F7F4F0E948E088823CA
:1030800051F0C2010E947923882329F00894E11CA1
:10309000F11C011D111DC2010E947D22C2016FE7BA
:1030A00074E042E00E9487268823B1F680910001F7
:1030B00081FF0EC084E291E0B801A7012AE030E070
:1030C0000E94D93784E291E069E078E00E943537C8
:1030D000E114F1040105110509F089CE89C4C70185
:1030E00066E078E00E949605892B49F481E00E9411
:1030F0003C0A009709F47CC40E94FE0C8DC3C701F2
:1031000061E078E00E949605892B09F059C181E0C1
:103110000E943C0A8C01009709F46AC4C2016FE75F
:1031200074E0A80121E00E944D2C882349F480918D
:10313000000181FF5DC484E291E06CEE77E057C34B
:1031400082E00E943C0A7C01009709F44DC0FC011A
:1031500001900020E9F73197E81B20E030E04E2F86
:1031600050E00CC0F701E20FF31F8081992787FD23
:103170009095C0970A97C0F52F5F3F4F24173507EA
:103180008CF3870140E050E060E070E019C0CB01B3
:10319000BA012AE030E040E050E00E94B238AB01D2
:1031A000BC018D2D992787FD9095C097AA2797FD83
:1031B000A095BA2F480F591F6A1F7B1F0F5F1F4F23
:1031C000F801D0808D2D80538A3008F3C2010E940F
:1031D0006321882349F48091000181FF6DC184E25D
:1031E00091E06AED77E061C183E00E943C0AAC01A6
:1031F000009709F43FC0FC0101900020E9F73197E6
:10320000E81B20E030E06E2F70E00CC0FA01E20F06
:10321000F31F8081992787FD9095C0970A9750F5F5
:103220002F5F3F4F261737078CF38A0166247724D8
:10323000430119C0C401B3012AE030E040E050E08E
:103240000E94B2383B014C018F2D992787FD909544
:10325000C097AA2797FDA095BA2F680E791E8A1EDF
:103260009B1E0F5F1F4FF801F0808F2D80538A3017
:1032700008F304C066246A94762C430184E00E941B
:103280003C0AAC01009709F440C0FC010190002009
:10329000E9F73197E81B20E030E06E2F70E00CC0BA
:1032A000FA01E20FF31F8081992787FD9095C0975F
:1032B0000A9758F52F5F3F4F261737078CF36A019F
:1032C000EE24FF2487011AC0C801B7012AE030E0CC
:1032D00040E050E00E94B2387B018C018B2D992791
:1032E00087FD9095C097AA2797FDA095BA2FE80E65
:1032F000F91E0A1F1B1F0894C11CD11CF601B080C7
:103300008B2D80538A3000F305C011E0E12EF12CA3
:10331000012D112DB1E0AB2EB12CC12CD12C42C00E
:103320006A147B048C049D0408F442C0262FF1E04B
:10333000EF16F1040105110599F4862F80528F359F
:1033400040F16A3011F06D3021F484E291E0622F97
:1033500022C084E291E068ED77E00E94D00B1DC0AE
:1033600022E0E216F1040105110569F484E291E01E
:1033700040E150E00E940D3884E291E066ED77E094
:103380000E94EA360AC033E0E316F1040105110594
:1033900021F484E291E00E9402090894A11CB11C6E
:1033A000C11CD11CC2010E949A24BC0197FFB8CF56
:1033B000C2010E947D228091000183FD18CD6EC262
:1033C000C70160ED77E00E949605892B09F0AFC038
:1033D00081E00E943C0A8C01009709F409C3C201F4
:1033E0006FE774E0A80122E00E944D2C882349F485
:1033F0008091000181FFFCC284E291E06BEB77E0F9
:10340000F6C182E00E943C0A7C01009709F458C092
:10341000FC0101900020E9F73197E81B20E030E043
:103420004E2F50E00DC0F701E20FF31F8081992766
:1034300087FD9095C0970A9708F042C02F5F3F4FD5
:103440002417350784F3870140E050E060E070E026
:1034500019C0CB01BA012AE030E040E050E00E9400
:10346000B238AB01BC018D2D992787FD9095C0978F
:10347000AA2797FDA095BA2F480F591F6A1F7B1FD7
:103480000F5F1F4FF801D0808D2D80538A3008F3D5
:10349000C2010E946321882399F48091000181FF79
:1034A0000BC084E291E069EA77E00E94EA3684E2A8
:1034B00091E0B7010E949F38C2010E947D2298C20C
:1034C0008091000183FF05C084E291E06AE10E94DF
:1034D0000D3784E291E067EA77E00E94EA36CE0198
:1034E0008E966EE10E945E0B182F882311F411E076
:1034F0001AC0CE01845B9F4FBE01625D7F4F412F9A
:1035000050E00E94E52E212F30E082179307C1F290
:103510008091000181FF06C084E291E06FE877E0CE
:103520000E94EA3610E0C2010E947D2261CCC701F0
:103530006AE877E00E949605892BA1F581E00E9458
:103540003C0AAC01009709F453C2C2016FE774E072
:1035500021E00E944D2C882389F0A5964CAD5DADED
:103560006EAD7FADA59784E291E02AE030E00E9445
:10357000D937C2010E947D2211E00BC08091000169
:1035800081FF06C084E291E067E877E00E94EA36B6
:1035900010E08091000183FD2BCC84E291E00E9439
:1035A000153726CCC70162E877E00E949605892B83
:1035B00009F0DEC084E291E065E777E00E94EA3638
:1035C00080915C04823049F0833061F0813079F47D
:1035D00084E291E061E777E00EC084E291E06DE67D
:1035E00077E009C084E291E068E677E004C084E215
:1035F00091E060E677E00E94353788E594E06AE084
:10360000AE01425F5F4F0E94461F882339F484E277
:1036100091E061E577E00E94EA36EAC184E291E058
:103620006FE377E00E94EA3684E291E06E8540E144
:1036300050E00E941F3884E291E066E377E00E9448
:10364000EA3684E291E06F850E940D3784E291E0D2
:1036500068890E94493784E291E06CE277E00E9439
:10366000EA368E010F5E1F4F84E291E0F80161910E
:103670008F010E940D37C257DF4F28813981CE5804
:10368000D0400217130781F784E291E060E277E00F
:103690000E94EA366E8962956F7084E291E04AE09A
:1036A00050E00E940D3884E291E06EE177E00E94E4
:1036B000EA366E896F7084E291E04AE050E00E9441
:1036C0001F3884E291E06EE077E00E94EA364F898D
:1036D000588D698D7A8D84E291E02AE030E00E9475
:1036E000E83784E291E069EF76E00E94EA366C8D7B
:1036F0006F7084E291E04AE050E00E940D3884E26D
:1037000091E067EF76E00E94EA366C8D62956F700B
:1037100070E06053784F8B8D8F7090E0A4E0880F3D
:10372000991FAA95E1F7680F791F84E291E04AE0BA
:1037300050E00E947D3888E594E00E94661F7B017E
:103740008C01611571058105910559F088E594E0BA
:1037500069E0AE01425E5F4F0E94461F882309F078
:1037600062C184E291E068EE76E00E94353740C1A4
:10377000C70163ED76E00E949605892B41F4C201F2
:103780000E942D228FE794E00E942D2230CBC701AA
:103790006DEC76E00E949605892B31F4E0913E04B1
:1037A000F0913F04099524C1C70169EC76E00E94BD
:1037B0009605892B11F581E00E943C0A8C01009747
:1037C00009F416C1C2016FE774E0A80122EC0E945F
:1037D0004D2C882321F0C2010E947D2208CB8091CC
:1037E000000181FF05C184E291E063EB76E00E9475
:1037F000EA3684E291E0B801F9C0C7016CEA76E0EC
:103800000E949605892B51F481E00E943C0A0097A2
:1038100009F4EEC00E94A215182FEACAC70168EA8F
:1038200076E00E949605892BF1F584E291E065EA45
:1038300076E00E94EA3680914004882311F4CC247B
:1038400009C080914C04882319F0CC24CA9402C08A
:10385000CC24C394DD24EC2CFF240894E108F10867
:103860001BC00D2D10E0B801660F771F600F711F90
:10387000660F771F660F771F605C7B4F84E291E0D5
:103880000E949C380E151F0534F484E291E063EA2F
:1038900076E00E94EA36D394DC1418F384E291E0D7
:1038A0000E941537A4CAC7016EE976E00E9496050A
:1038B000892B59F581E00E943C0A8C01009709F49C
:1038C00097C06BE976E00E949605F82E882339F4BC
:1038D00081E080939F048091000181600DC0C80148
:1038E00067E976E00E949605F82E882339F4109255
:1038F0009F04809100018E7F809300018FEE96E0FF
:1039000068E070E040919F0431C0C7016FE876E045
:103910000E949605892B99F581E00E943C0A8C0152
:10392000009709F465C06CE876E00E949605F82ED1
:10393000882339F481E080939E04809100018260A5
:103940000DC0C80168E876E00E949605F82E88232D
:1039500039F410929E04809100018D7F80930001C4
:103960008FEE96E067E070E040919E040E94D534AF
:103970000E94E70D10E0FF2009F03ACA38CAC701DB
:1039800064E876E00E949605892B19F581E00E9493
:103990003C0A8C01009761F161E876E00E9496058F
:1039A000982F882321F48091000188600BC0C80102
:1039B0006DE776E00E949605982F882329F4809180
:1039C0000001877F8093000110E0992309F010CA5D
:1039D0000ECA8091000181FF0BC084E291E06BE68A
:1039E00076E00E94EA3684E291E0B7010E949F38B7
:1039F00010E0FEC9C2016FE774E0A60121E00E9459
:103A00004D2C882309F00ACB18CBC2010E947D22DD
:103A1000C2016FE774E0A60122E00E944D2C8823CA
:103A200009F480CD06CB84E291E06CED76E00E9453
:103A3000EA3616950795F794E79484E291E0B80189
:103A4000A7012AE030E00E94D93784E291E068EDD6
:103A500076E00E943537CBC9CF92DF92EF92FF928A
:103A60000F931F93DF93CF93CDB7DEB7AB970FB60E
:103A7000F894DEBF0FBECDBF198A1C8A188A1F8634
:103A80008FE191E09E878D878E010F5F1F4FC801E8
:103A90006AEB79E00E949F059DE0C92ED12CCC0EE7
:103AA000DD1E81E1E82EF12CEC0EFD1EC7016FE753
:103AB00074E0A80122E40E944D2C882339F484E2AA
:103AC00091E063EA79E00E94EA3606C0C7010E94ED
:103AD0007D22C8010E94A215C6010E948009AB96F2
:103AE0000FB6F894DEBF0FBECDBFCF91DF911F910F
:103AF0000F91FF90EF90DF90CF90089580919B04FD
:103B0000882321F40E94E60B0E94A21580919B0459
:103B1000813011F40E942C1D0E94AA16FFCFFF9243
:103B20000F931F93CF93DF938B010E942935EB01F5
:103B3000FF24FA9409C00E9429356C1B7D0B601785
:103B4000710710F080E008C0FEBC0DB407FEFDCF89
:103B50008EB58F3F81F781E0DF91CF911F910F915B
:103B6000FF900895FC014281242F30E0C901959512
:103B7000879580658CBD40FF02C080E004C080E076
:103B8000463009F081E08DBD808160E00E940A36F8
:103B90000895DF92EF92FF920F931F93CF93DF93DD
:103BA000EC01D62E79018A010E94B21DCE016CE291
:103BB00071E00E948F1D8D2D80648EBD0DB407FEB7
:103BC000FDCF28E130E0D801C701022E04C0B69530
:103BD000A795979587950A94D2F78EBD0DB407FEE9
:103BE000FDCF285030408FEF283F380761F7DD20A8
:103BF00011F485E906C088E0D81611F487E801C001
:103C00008FEF8EBD0DB407FEFDCF8CE0D81631F4DA
:103C10008FEF8EBD0DB407FEFDCF8EB59FEF2FEF5A
:103C20002EBD0DB407FEFDCF8EB587FF04C09923CE
:103C300011F09150F5CF8B83DF91CF911F910F91B0
:103C4000FF90EF90DF900895DF92EF92FF920F9335
:103C50001F93CF93DF93EC01D62E79018A0167E39E
:103C600020E030E040E050E00E94C91D882331F0A0
:103C7000CE016D2DA80197010E94C91DDF91CF9142
:103C80001F910F91FF90EF90DF900895FC018081CC
:103C900061E00E940A368FEF8EBD0DB407FEFDCFA6
:103CA0000895DC016EBDFA0120E030E00DB407FE9E
:103CB000FDCF80818EBD0DB407FEFDCF81818EBD0D
:103CC0002E5F3F4F329682E02030380779F70DB4EF
:103CD00007FEFDCF8FEF8EBD0DB407FEFDCF8FEF3A
:103CE0008EBD0DB407FEFDCF8FEF8EBD0DB407FE68
:103CF000FDCF8EB513968C9313978F71853011F489
:103D000081E0089583E111968C931197CD010E9473
:103D1000461E80E00895CF92DF92EF92FF920F93BC
:103D20001F93CF93DF93EC017A018B0169018C81A2
:103D3000833039F059E0EE0CFF1C001F111F5A951B
:103D4000D1F7CE0168E1A80197010E94C91D88231F
:103D500011F086E023C0CE016EEFA6010E94511E35
:103D60008823E9F0CE0168E572E00E948F1D882368
:103D700011F487E113C0CE016DE020E030E040E0B7
:103D800050E00E94C91D882341F48FEF8EBD0DB411
:103D900007FEFDCF8EB5882379F086E18983CE01B9
:103DA0000E94461E80E0DF91CF911F910F91FF90FE
:103DB000EF90DF90CF900895CE010E94461E81E0E3
:103DC000F2CFBF92CF92DF92EF92FF920F931F93A9
:103DD000CF93DF93EC016B017A010E9429358B01AF
:103DE000BB24BA9409C00E942935601B710B6D5227
:103DF000714010F081E10BC0BEBC0DB407FEFDCFD9
:103E00008EB58B838F3F79F38E3F39F08FE08983B6
:103E1000CE010E94461E80E02FC0D7011197EF28E7
:103E2000D9F08FEF8EBD20E030E09FEF0BC00DB4D6
:103E300007FEFDCF8EB5F601E20FF31F80839EBD16
:103E40002F5F3F4F2A173B0790F30DB407FEFDCFBE
:103E50008EB5AC0DBD1D8C938FEF8EBD0DB407FEDE
:103E6000FDCF8EB58FEF8EBD0DB407FEFDCF8EB5A5
:103E7000CE010E94461E81E0DF91CF911F910F91EC
:103E8000FF90EF90DF90CF90BF9008950F931F9316
:103E9000CF93DF93EC018A0120E030E040E050E076
:103EA0000E94C91D882339F080E18983CE010E94D8
:103EB000461E80E006C0CE01B80140E150E00E94FD
:103EC000E11EDF91CF911F910F910895EF92FF9224
:103ED0000F931F93DF93CF93CDB7DEB760970FB6E5
:103EE000F894DEBF0FBECDBF8C0169E0AE014F5F1D
:103EF0005F4F0E94461F882309F464C08981829520
:103F000086958695837089F58F818370382F330F5E
:103F1000330F20E0888590E0880F991F880F991F44
:103F2000282B392B8985829586958695837090E01C
:103F3000282B392B2F5F3F4F790100E010E08E8155
:103F40008F7090E007972A852370220F3B85331FDF
:103F50003327331F232B820F911D04C0EE0CFF1C4F
:103F6000001F111F8A95D2F730C0813041F5888536
:103F70008695869590E0A0E0B0E08C01FF24EE24C9
:103F80008A8590E0A0E0B0E0E82AF92A0A2B1B2BF2
:103F9000998580E0AA2797FDA095BA2FE82AF92AEB
:103FA0000A2B1B2B0894E11CF11C011D111D7AE04A
:103FB000EE0CFF1C001F111F7A95D1F706C08BE095
:103FC000F8018183EE24FF248701B701C8016096C0
:103FD0000FB6F894DEBF0FBECDBFCF91DF911F911A
:103FE0000F91FF90EF900895CF92DF92EF92FF92A2
:103FF0000F931F93CF93DF93EC017A018B0169013B
:104000008C81833039F0A9E0EE0CFF1C001F111FDA
:10401000AA95D1F7CE0161E1A80197010E94C91DBF
:10402000882339F084E08983CE010E94461E80E017
:1040300006C0CE01B60140E052E00E94E11EDF91D1
:10404000CF911F910F91FF90EF90DF90CF90089547
:10405000BF92CF92DF92EF92FF920F931F93CF9375
:10406000DF93EC01B62E1C82198248830E94293509
:104070006B01888161E00E94CB35888161E00E94FC
:104080000A368CE060E00E94CB358BE061E00E9454
:10409000CB358DE061E00E94CB358AE061E00E9483
:1040A000CB358AE061E00E940A3685E08A8382E5AA
:1040B0008CBD1DBC80E09FEF9EBD0DB407FEFDCF03
:1040C0008F5F8A30C9F709C00E9429356C197D09B4
:1040D000615D774010F081E056C0CE0160E020E0E5
:1040E00030E040E050E00E94C91D182F8B838130E2
:1040F00059F7CE0168E02AEA31E040E050E00E9442
:10410000C91D82FF02C01C8311C080E02FEF2EBDAD
:104110000DB407FEFDCF9EB58F5F8430C1F79B8342
:104120009A3A11F082E02FC082E08C838C81823039
:1041300021F0EE24FF2487010FC0E12CF12C012D8A
:1041400000E4102F09C00E9429356C197D09615DBA
:10415000774010F08AE017C0CE0169E2A80197010C
:104160000E94241E8B83882371F78C81823029F56D
:10417000CE016AE320E030E040E050E00E94C91D3B
:10418000882331F088E08983CE010E94461E21C039
:104190008FEF8EBD0DB407FEFDCF8EB5807C803CC9
:1041A00011F483E08C8380E09FEF9EBD0DB407FE89
:1041B000FDCF2EB58F5F8330C1F7CE010E94461E22
:1041C00086E08B1518F488E1898303C0BA8281E008
:1041D00001C080E0DF91CF911F910F91FF90EF9090
:1041E000DF90CF90BF900895CF93DF93EB01DC0178
:1041F00090E020E03EE28C91803269F0283029F492
:10420000FE01E90FF11D30839F5FFE01E90FF11DF3
:104210008C9180839F5F2F5F11962B3061F7C90FC0
:10422000D11D1882DF91CF9108950F931F93CF93E3
:10423000DF93DC01EB018A0180E090E020E2FE01E7
:10424000E80FF91F208301968B309105C1F757E0E5
:1042500040E024C0622F2E3219F08CE29AE007C0B1
:104260005A3051F15AE048E018C0321729F1FC01E8
:10427000019634913323C9F75417F0F02132E0F05E
:104280002F37D0F4822F81568A3110F4622F60527A
:10429000FE01E40FF11D60834F5F11962C912223E4
:1042A00011F02F32B9F6F801B183A08390E0888134
:1042B000803219F091E001C090E0892FDF91CF9119
:1042C0001F910F9108956F927F928F929F92AF925C
:1042D000BF92CF92DF92EF92FF920F931F93CF93F3
:1042E000DF93EC017A018B012B81222309F480C03A
:1042F00089899A89AB89BC8984179507A607B7076E
:1043000008F476C085C0E114F1040105110551F4EB
:104310001C821D821E821F82188619861A861B86A1
:1043200081E067C0288539854A855B85E98DFA8DEE
:10433000858590E009962150304040405040390139
:104340004A01082E04C096948794779467940A943F
:10435000D2F72F5F3F4F4F4F5F4F0894E108F108AE
:10436000010911095701680104C0D694C794B79494
:10437000A7948A95D2F70894E11CF11C011D111D28
:10438000A614B704C804D90428F021153105410545
:10439000510549F48D899E89AF89B88D8C839D83A1
:1043A000AE83BF8316C0A618B708C808D90811C0C5
:1043B0004C815D816E817F81898D9A8D94010E94EF
:1043C0004E310894A108B108C108D108882331F4FE
:1043D0000FC084E0882E912C8C0E9D1EA114B10478
:1043E000C104D10429F7E886F9860A871B8798CF8C
:1043F00080E0DF91CF911F910F91FF90EF90DF90C0
:10440000CF90BF90AF909F908F907F906F900895C6
:10441000223009F078CFE7CFCF93DF93EC018C8582
:104420009D85AE85BF8540E0611141E0BC01CD01B5
:104430000E94242F882319F420E030E00AC08889E4
:10444000282F30E095E0220F331F9A95E1F729528B
:104450003B4FC901DF91CF9108950F931F93CF93E5
:10446000DF938C01FC0183818823F1F1818187FF37
:1044700038C0C80161E00E940C22EC010097A1F154
:104480008881853E89F1F8018381823040F48189F9
:104490009289A389B4898C8F9D8FAE8FBF8FF801CD
:1044A000858996899B8F8A8F85899689A789B08D02
:1044B000CD01AA27BB279D8B8C8BE091CD04F09179
:1044C000CE04309751F0BE016A5E7F4FCE01489610
:1044D0000995888D998D9B8B8A8BF80181818F77C7
:1044E00081830E94E92E04C081E0F801808380E08E
:1044F000DF91CF911F910F9108950F931F938C011E
:104500000E942D22F80113821F910F910895FC0142
:104510008381882319F0CF010E947D220895CF93D3
:10452000DF93FC01EB018381882391F0825082307C
:1045300020F48FE28883198209C0CF0160E00E94D5
:104540000C22009729F0BE010E94F42081E001C0F6
:1045500080E0DF91CF9108956F927F928F929F922A
:10456000AF92BF92CF92DF92EF92FF920F931F9381
:10457000DF93CF9300D000D0CDB7DEB77C015A01D6
:104580006B01DC0113968C911397813009F091C077
:1045900011968C9181FF8DC0A0C00097A105B10537
:1045A00011F481E087C0F701608471848284938470
:1045B000C701B601A5010E946321882309F479C0CF
:1045C000D70159968D919C915A97A114B104C104B9
:1045D000D10489F455964D915D916D917C915897D8
:1045E0000E94C431882309F464C0F701158A168A31
:1045F000178A108E44C0D70114964D915D916D912C
:104600007C9117979E012F5F3F4F0E944E31882368
:1046100009F44FC0D7015996ED91FC915A97498101
:104620005A816B817C818789803149F4483FBFEF93
:104630005B07B0E06B07B0E07B0748F020C0483F65
:104640008FEF58078FEF68078FE07807C0F4CF012E
:104650000E94C431882369F1D70114964D915D9170
:104660006D917C91179759968D919C915A970FEF68
:104670001FEF2FEF3FE00E94C7308823D1F0F701F2
:10468000A18AB28AC38AD48A818180688183C70162
:104690000E942D22882369F0B601A5016A147B04CB
:1046A0008C049D0410F4B401A301C7010E9463218E
:1046B00001C080E00F900F900F900F90CF91DF918D
:1046C0001F910F91FF90EF90DF90CF90BF90AF9030
:1046D0009F908F907F906F900895F70181899289C4
:1046E000A389B48984179507A607B70708F055CFA3
:1046F000E0CFCF93DF93EC0140E050E060E070E06A
:104700000E94AC22882369F0CE0161E00E940C2255
:10471000FC01009731F085EE80831B820E94E92E18
:1047200001C080E0DF91CF9108952F923F924F9288
:104730005F926F927F928F929F92AF92BF92CF9231
:10474000DF92EF92FF920F931F93CF93DF93EC01D1
:104750002A018B81882309F4B6C0898180FFB3C008
:10476000C8C025014E185F083B0174E0272E312C8C
:104770002C0E3D1E4201A1C0288539854A855B85E6
:104780006FEFA62E61E0B62EA222B3228B817901B3
:104790008A0199E016950795F794E7949A95D1F7D1
:1047A000E98DFA8D823049F4428D538D648D758D7B
:1047B0004E0D5F1D601F711F3FC0D480DA94DE2054
:1047C000A114B104D9F4DD20C9F421153105410546
:1047D000510549F48D899E89AF89B88D8C839D835D
:1047E000AE83BF830BC04C815D816E817F81CF0121
:1047F00091010E944E31882309F465C0E98DFA8D3C
:104800004C815D816E817F8142505040604070409C
:10481000058404C0440F551F661F771F0A94D2F702
:1048200086859785A089B189480F591F6A1F7B1F0C
:104830004D0D511D611D711D80E092E08A199B098B
:1048400084018815990508F48C0182E0003018076E
:1048500009F067C08091D3049091D404A091D5044D
:10486000B091D604481759076A077B0709F459C065
:104870008091D7069091D80693010E94F41F882357
:1048800049F421C0950129523B4FC301B901A80148
:104890000E94BC05600E711E980140E050E08885C2
:1048A0009985AA85BB85820F931FA41FB51F888792
:1048B0009987AA87BB87801A910A8114910409F00D
:1048C0005BCFA20102C04FEF5FEFCA01DF91CF9132
:1048D0001F910F91FF90EF90DF90CF90BF90AF901E
:1048E0009F908F907F906F905F904F903F902F9010
:1048F0000895A988BA88CB88DC88E884F9840A8579
:104900001B859A0140E050E0D601C5018E199F0930
:10491000A00BB10B281739074A075B0708F021CF16
:1049200023CFCB01BA0140E00E94242F882309F055
:10493000A9CFC9CFDF93CF930F92CDB7DEB7BE011A
:104940006F5F7F4F41E050E00E949523019719F07F
:104950002FEF3FEF03C08981282F30E0C9010F906E
:10496000CF91DF910895EF92FF920F931F93CF9312
:10497000DF93EC018B81823038F1E884F9840A8579
:104980001B85CE010E949A2497FD1EC088859985BB
:10499000AA85BB854F96A11DB11D88879987AA87D7
:1049A000BB87F5E016950795F794E794FA95D1F74C
:1049B0002E2D30E02F703070E5E0220F331FEA9586
:1049C000E1F729523B4F02C020E030E0C901DF91FE
:1049D000CF911F910F91FF90EF900895CF93DF93A8
:1049E000EC018B81843071F5CE0140E050E060E055
:1049F00070E00E94632110C0CE010E94B324FC012C
:104A0000009701F180818823A1F0853E29F08E3244
:104A100019F0838583FF16C0288539854A855B8513
:104A200089899A89AB89BC89281739074A075B07A6
:104A300018F381E08B83898182608983CE010E9493
:104A4000792301C080E0DF91CF9108951F93CF9328
:104A5000DF93EC01162F6A3038F4E881F981019078
:104A6000F081E02D60E30995CE01612F4AE050E02E
:104A70000E940D38DF91CF911F910895EF92FF9220
:104A80000F931F938C017B016F2D6695669566953C
:104A90000E942625D801ED91FC910190F081E02D36
:104AA000C8016AE30995B701B5E076956795BA95AF
:104AB000E1F76F73C8010E942625D801ED91FC91A2
:104AC0000190F081E02DC8016AE30995BFE1EB2276
:104AD000FF24EE0CFF1CC8016E2D0E9426251F919D
:104AE0000F91FF90EF900895EF92FF920F931F9315
:104AF0008C017B01672F772766956454784FC80136
:104B00004AE050E00E94FC37D801ED91FC91019001
:104B1000F081E02DC8016DE20995B70185E0769539
:104B200067958A95E1F76F70C8010E942625D80124
:104B3000ED91FC910190F081E02DC8016DE20995A5
:104B4000BFE1EB22C8016E2D0E9426251F910F9117
:104B5000FF90EF9008950F931F93CF93DF93EC0195
:104B60008B018B81882309F040C0FB01878980314C
:104B700009F041C082E08B831D8A1E8A1F8A188E2D
:104B8000808D918DA0E0B0E025E0880F991FAA1FCD
:104B9000BB1F2A95D1F7898B9A8BAB8BBC8B13C02B
:104BA00083E08B83F801428D538D648D758D4D8B21
:104BB0005E8B6F8B788F9E012F5E3F4FC8010E94E6
:104BC0002232882391F01A8F098F81E089831C8219
:104BD0001D821E821F82188619861A861B861C86D5
:104BE0001D861E861F86188A01C080E0DF91CF9146
:104BF0001F910F9108958032C1F7D2CF1F93CF93A9
:104C0000DF93EC01142F262F30E0F90155E0EE0F71
:104C1000FF1F5A95E1F7E952FB4F8385817121F01F
:104C2000842F827109F069C08091D3049091D404DB
:104C3000A091D504B091D6048C879D87AE87BF879D
:104C4000688BF90145E0EE0FFF1F4A95E1F7E95245
:104C5000FB4F84899589A0E0B0E0DC019927882783
:104C60008D8B9E8BAF8BB88F228D338DA90160E029
:104C700070E0482B592B6A2B7B2B4D8B5E8B6F8BF7
:104C8000788F838590E088719070009751F4848DBF
:104C9000958DA68DB78D898B9A8BAB8BBC8B81E064
:104CA0000CC0409751F59E012F5E3F4F898D9A8D24
:104CB0000E942232882309F184E08B83812F8F7038
:104CC00089831C821D821E821F82188619861A867D
:104CD0001B8614FF18C0CE0140E050E060E070E099
:104CE0000E94AC22882379F40AC049895A896B89C9
:104CF0007C89CE010E94632102C01B8280E0DF918B
:104D0000CF911F91089515FDF0CF81E0F8CFBF92AC
:104D1000CF92DF92EF92FF920F931F93CF93DF9387
:104D20006C01EB01B42E6115710551F1FC01838119
:104D3000882331F5898D9A8D928F818FE884F9844B
:104D40000A851B85CE010E94B324FC010097C1F0A7
:104D500080818823A9F0853E89F38E3279F365E05E
:104D600016950795F794E7946A95D1F76E2D6F70B5
:104D7000838583FDE3CFC6014B2D0E94FE2501C034
:104D800080E0DF91CF911F910F91FF90EF90DF9026
:104D9000CF90BF900895DF92EF92FF920F931F93F1
:104DA000CF93DF938C01EB017A01D22E898D9A8DFE
:104DB000F801928F818F8381882329F56115710510
:104DC00059F521C0A70175E0440F551F7A95E1F709
:104DD00060E070E0CE010E9463218823A1F0CE0143
:104DE0000E94B324FC01009771F08081882359F060
:104DF000853E49F08E3239F06E2D6F70C8014D2D11
:104E00000E94FE2501C080E0DF91CF911F910F919C
:104E1000FF90EF90DF90089527FFD4CFF4CFAF92AB
:104E2000BF92CF92DF92EF92FF920F931F93DF9387
:104E3000CF93CDB7DEB76B970FB6F894DEBF0FBE3A
:104E4000CDBF8C0119821C8240E050E060E070E030
:104E50000E9463215E010894A11CB11C50C0C801CE
:104E60000E94B324FC01009709F464C08081882368
:104E700009F454C0853E09F442C08E3209F43FC0A3
:104E8000838583FD3CC0A7019601F5E056954795C3
:104E900037952795FA95D1F77901C501B801A90190
:104EA00021E00E94CB26882309F444C08C81843001
:104EB00021F4C5010E940F2706C08A8182608A837F
:104EC000C5010E9479238823A9F10894E11CF11CF3
:104ED000E5E0EE0CFF1CEA95E1F7A70160E070E069
:104EE000F80180859185A285B38584179507A6076B
:104EF000B70729F0C8010E9463218823D9F0F8017F
:104F0000C084D184E284F38481899289A389B4899D
:104F1000C816D906EA06FB0608F4A1CFF80183817A
:104F20008250823028F0C8010E94EE24882311F0BC
:104F300011E001C010E0CE0101960E948722812F6E
:104F40006B960FB6F894DEBF0FBECDBFCF91DF9149
:104F50001F910F91FF90EF90DF90CF90BF90AF9097
:104F600008957F928F929F92AF92BF92CF92DF92DD
:104F7000EF92FF920F931F93DF93CF93CDB7DEB7DE
:104F8000A0970FB6F894DEBF0FBECDBF7C018B019A
:104F9000742EB22E6E010894C11CD11CC701B6013B
:104FA00040E250E00E949523809709F0AAC08981D1
:104FB000882309F4A6C0853E89F38E3279F38C8567
:104FC00083FDECCFFF240AC0D801ED91FC91019044
:104FD000F081E02DC80160E20995F394FB14A0F381
:104FE0005E010894A11CB11C7501DD24FCE08F2E2C
:104FF000912C8C0E9D1EF70180818032C9F08E2D80
:105000008A19883051F4D801ED91FC910190F0811A
:10501000E02DC8016EE20995D394D801ED91FC9181
:105020000190F081E02DC801D7016C910995D394CE
:105030000894E11CF11CE814F904E9F68C858871E8
:10504000803151F4D801ED91FC910190F081E02D77
:10505000C8016FE20995D394E72CFF24C701837040
:105060009070892B59F40DC0D801ED91FC910190FD
:10507000F081E02DC80160E20995D394BDE0BD1533
:1050800098F7E0FE1CC0D801ED91FC910190F081F1
:10509000E02DC80160E20995698D7A8DC8010E94F2
:1050A0007425D801ED91FC910190F081E02DC801AB
:1050B00060E209956F89788DC8010E943E258C8534
:1050C00088718031A1F0E1FE12C0D801ED91FC9110
:1050D0000190F081E02DC80160E209954D8D5E8D53
:1050E0006F8D78A1C8012AE030E00E94D937C8014D
:1050F0000E9415378C85887111F082E003C081E031
:1051000001C080E0A0960FB6F894DEBF0FBECDBF01
:10511000CF91DF911F910F91FF90EF90DF90CF9093
:10512000BF90AF909F908F907F9008955F926F9205
:105130007F928F929F92AF92BF92CF92DF92EF9227
:10514000FF920F931F93DF93CF93CDB7DEB76B978B
:105150000FB6F894DEBF0FBECDBF7C013B01942E8D
:10516000822E40E050E060E070E00E946321C92C94
:10517000DD2484E0C822DD245E010894A11CB11C5A
:1051800002E0502E580C32C0823084F1C114D10498
:1051900069F1F70180859185A285B38515E0B69503
:1051A000A795979587951A95D1F78C0119821C823E
:1051B000AC0141505040C501B70121E00E94CB260F
:1051C000882331F0C501B301492D252D0E94962871
:1051D000A5E0000F111FAA95E1F7A80160E070E0BB
:1051E000C7010E946321C5010E948722C701B30144
:1051F000492D282D0E94B127882331F66B960FB6D2
:10520000F894DEBF0FBECDBFCF91DF911F910F91FC
:10521000FF90EF90DF90CF90BF90AF909F908F90D6
:105220007F906F905F900895462F6091010170917B
:10523000020120E00E9496280895CF93DF93EC01AD
:105240009C012C5F3F4F898D9A8D41E050E060E0DA
:1052500070E00E948E328823A1F08D899E89AF89EB
:10526000B88D0097A105B10559F48C819D81AE815F
:10527000BF818D8B9E8BAF8BB88F8981806889832E
:1052800081E0DF91CF9108952F923F924F925F92EC
:105290007F928F929F92AF92BF92CF92DF92EF92C6
:1052A000FF920F931F93DF93CF9300D000D000D0D5
:1052B000CDB7DEB76C01162F072F5E834D83DC015F
:1052C00013968C911397813009F06EC111968C91D1
:1052D00081FF6AC187C1F601418952896389748956
:1052E00080859185A285B38584179507A607B707A2
:1052F00031F0C6010E946321882309F455C1812F32
:10530000902F9C0119014D805E8012C1D6015996E3
:10531000ED91FC915A97DA01C90149E0B695A7953C
:10532000979587954A95D1F774807A9478228FEF74
:10533000882E81E0982E82229322772009F052C095
:105340008114910409F04EC0D60114964D915D91DF
:105350006D917C911797411551056105710571F1AA
:10536000CF019E012F5F3F4F0E944E31882309F4E9
:105370001BC129813A814B815C81D6015996ED91FF
:10538000FC915A978789803149F4283FBFEF3B074A
:10539000B0E04B07B0E05B0748F019C0283FEFEFE3
:1053A0003E07EFEF4E07EFE05E0788F4D601149654
:1053B0002D933D934D935C93179714C0F601858907
:1053C0009689A789B08D0097A105B10531F4C60172
:1053D0000E941D29882331F4E7C0F6018483958358
:1053E000A683B78380E092E0881999095201841559
:1053F000950508F45C01D6015996ED91FC915A97F8
:105400001496ED90FD900D911C9117978EEF9FEFE4
:10541000AFEFBFEFE80EF91E0A1F1B1F058404C083
:10542000EE0CFF1C001F111F0A94D2F7868597858A
:10543000A089B189E80EF91E0A1F1B1FE70CF11C99
:10544000011D111D90E0A91692E0B90639F5809171
:10545000D3049091D404A091D504B091D6048E15B4
:105460009F05A007B10771F41092D9068FEF9FEF47
:10547000AFEFBFEF8093D3049093D404A093D504EF
:10548000B093D6048091D7069091D806B801A701B1
:1054900091010E948B1E8823B9F586C08114910466
:1054A00019F5D60118962D913D914D915C911B9760
:1054B00051968D919D910D90BC91A02D2817390783
:1054C0004A075B0788F00E94E92E882309F46CC024
:1054D00081E08093D906E092D304F092D404009343
:1054E000D5041093D60408C0C801B70141E00E945A
:1054F000242F882309F458C0940129523B4FC90135
:10550000B101A5010E94BC05950140E050E0F60103
:1055100080859185A285B385820F931FA41FB51F37
:1055200080879187A287B3872A0C3B1C4A185B08A7
:10553000D60118962D913D914D915C911B97411488
:10554000510409F0E3CE51968D919D910D90BC913F
:10555000A02D82179307A407B50748F4F601218B05
:10556000328B438B548B81818068818311C0809101
:10557000CD049091CE04892B59F08D819E81892B89
:1055800039F0D60111968C911197806811968C9301
:10559000F601818183FF05C0C6010E942D22882368
:1055A00019F04D815E8105C081E0D6018C934FEFEB
:1055B0005FEFCA0126960FB6F894DEBF0FBECDBFCF
:1055C000CF91DF911F910F91FF90EF90DF90CF90DF
:1055D000BF90AF909F908F907F905F904F903F9043
:1055E0002F90089582FD77CE8ACEDF92EF92FF92C0
:1055F0000F931F93CF93DF93EC0189899A89AB892D
:10560000BC89805E9F4FAF41B04008F071C0CE01B1
:105610000E941D29882309F46BC00E94E92E88236B
:1056200009F466C0E98DFA8DEC80FD800E811F8142
:105630008EEF9FEFAFEFBFEFE80EF91E0A1F1B1FA3
:10564000058404C0EE0CFF1C001F111F0A94D2F742
:1056500086859785A089B189E80EF91E0A1F1B1F50
:1056600081E08093D906E092D304F092D4040093B1
:10567000D5041093D60480E092E0E7EDF4E0DF017A
:105680009C011D9221503040E1F7DD24D39411C0DC
:10569000B801A7014D0D511D611D711D8091D706E7
:1056A0009091D80627ED34E00E948B1E882301F1EB
:1056B000D394E98DFA8D8481D81650F320E032E03E
:1056C00040E050E0058404C0220F331F441F551FE3
:1056D0000A94D2F789899A89AB89BC89820F931F72
:1056E000A41FB51F898B9A8BAB8BBC8B81E001C04B
:1056F00080E0DF91CF911F910F91FF90EF90DF90AD
:1057000008958F929F92AF92BF92CF92DF92EF92C5
:10571000FF920F931F93CF93DF936C01EB01942EB5
:10572000852EA22E898D9A8DD6015A969C938E93A2
:105730005997CB0140E050E060E070E00E946321A7
:10574000BB2438C0CE010E94B324FC01009709F4A9
:1057500093C055E016950795F794E7945A95D1F7BD
:105760001E2D1F708081882311F0853EC9F4BB2057
:1057700099F42091D3043091D4044091D5045091F0
:10578000D604D6011C962D933D934D935C931F97A1
:1057900050961C93BB24B3948081882359F418C07D
:1057A000892D982DBF014BE050E00E94AF05009776
:1057B00009F470C0E884F9840A851B8589899A896F
:1057C000AB89BC89E816F9060A071B0708F4BACFAB
:1057D000A6FE52C0A1FE50C0BB2051F0F6011089B8
:1057E000C60161E00E940C22EC01009769F444C0FC
:1057F0008B81823009F440C0CE010E94F52A8823B3
:10580000D9F110E0C7EDD4E080E2DE011D928A9567
:10581000E9F7DE01292D382DC901FC018BE001904B
:105820000D928150E1F7E091CD04F091CE043097D4
:1058300039F0BE01625F7F4FCE014096099508C0E6
:1058400081E298E2998B888B80E098E09F878E8731
:10585000888999899B8B8A8B998F888F8E859F8564
:105860009F8B8E8B0E94E92E882331F0C601612F19
:105870004A2D0E94FE2501C080E0DF91CF911F914B
:105880000F91FF90EF90DF90CF90BF90AF909F90DF
:105890008F900895A7FEEACFEFCF2F923F924F92BD
:1058A0005F926F927F928F929F92AF92BF92CF92B0
:1058B000DF92EF92FF920F931F93DF93CF93CDB7B9
:1058C000DEB7C654D0400FB6F894DEBF0FBECDBFD2
:1058D0003C016B01DE01AE5BBF4F11965C934E93B2
:1058E00025962FAF25971C861F861FA21AA6611525
:1058F000710509F480C0FC018381882309F07BC015
:10590000FA0180818F32F1F08601ECE0EE2EF12C6D
:10591000EC0EFD1E72E4A72EB12CAC0EBD1E4E0186
:105920000894811C911C2796FFAEEEAE279767E284
:10593000262E312C2C0E3D1E270124C01196B1833A
:10594000A08301C0FD01A081B1818C918F32B1F3A0
:10595000D60113968C91139782508230A8F28E0153
:10596000095D1F4F59966D917C915A97C8010E940D
:10597000AB25882351F63FC0342D252D8701832F79
:10598000922F7C01F50180819181B401A5010E94D3
:105990001521882329F42FC03196D501ED93FC936E
:1059A000D501ED91FC9180818F32B1F38823C9F04C
:1059B000C701B801A40121E00E94812B8823D9F0FE
:1059C0000C151D0519F0C8010E947D222796EEAD29
:1059D000FFAD2797EE16FF0679F6C101322D292F6C
:1059E000CDCFC301B801A40125962FAD25970E9404
:1059F000812B182F01C010E0CE0187960E948722CC
:105A0000CE010C960E948722812FCA5BDF4F0FB612
:105A1000F894DEBF0FBECDBFCF91DF911F910F91E4
:105A2000FF90EF90DF90CF90BF90AF909F908F90BE
:105A30007F906F905F904F903F902F900895EF92DE
:105A4000FF920F931F93DF93CF93CDB7DEB7A0974D
:105A50000FB6F894DEBF0FBECDBF8C017B01DB011A
:105A600013968C91823008F485C0C80123EC0E9403
:105A7000812B882309F47EC081E0F801818384E0D2
:105A80008383C8010E94F52A882309F473C0C801E2
:105A90000E942D22882309F46DC0C80161E00E9494
:105AA0000C22FC01009709F465C080E18387DE01C8
:105AB000119680E201900D928150E1F78EE2898388
:105AC000FE01329620E2CE010C962193E817F907E9
:105AD000E1F7D8015996ED91FC915A9755966D9141
