:100000000C949C040C94C4040C94C4040C94C40478
:100010000C94C4040C94C4040C94C4040C94C40440
:100020000C94C4040C94C4040C94C4040C94C40430
:100030000C94C4040C94C4040C94C4040C94C40420
:100040000C944D320C94C4040C9469310C94AF316F
:100050000C94C4040C94C4040C94C4040C94C40400
:100060000C94C4040C94C40452656D6F76652066CC
:1000700061696C65643A200045786974696E67004F
:100080000A0D4E756D626572206F6620657363613F
:1000900070652063686172616374657273206E6558
:1000A000656465643A20000A0D456E746572206EC1
:1000B000756D626572206F6620657363617065207F
:1000C0006368617261637465727320746F206C6F12
:1000D0006F6B20666F7220283120746F2039293AA7
:1000E00020000A0D4E65772065736361706520639B
:1000F00068617261637465723A2000456E7465725E
:100100002061206E65772065736361706520636888
:10011000617261637465723A20004E65772066698A
:100120006C65206E756D62657220726573657420F2
:10013000746F207A65726F00436F6D6D616E64201D
:1001400070726F6D707400417070656E64206669C6
:100150006C65206C6F6767696E67004E6577206617
:10016000696C65206C6F6767696E67003E0078296F
:100170002045786974003629204E756D62657220BD
:100180006F66206573636170652063686172616387
:1001900074657273003529204E657720657363613D
:1001A0007065206368617261637465720034292030
:1001B0005265736574206E65772066696C65206E84
:1001C000756D62657200332920436F6D6D616E64D9
:1001D0002070726F6D707400322920417070656EEE
:1001E000642066696C65206C6F6767696E670031B3
:1001F00029204E65772066696C65206C6F6767699A
:100200006E67004368616E676520746F3A002078FE
:10021000200043757272656E74206573636170654A
:100220002063686172616374657220616E6420612D
:100230006D6F756E743A2000436F6D6D616E640072
:10024000417070656E642066696C65004E6577204C
:1002500066696C650043757272656E7420626F6FBB
:1002600074206D6F64653A20000D0A5379737465CC
:100270006D20436F6E66696775726174696F6E0099
:1002800062707300476F696E6720746F20004F754E
:1002900074206F6620626F756E64730045786974B0
:1002A000696E67003E00456E746572206E6577204A
:1002B0006261756420726174652028277827207434
:1002C0006F2065786974293A0020627073000A0D06
:1002D00043757272656E7420726174653A200062B3
:1002E0006175640909093A204D656E7520746F20A7
:1002F000636F6E66696775726520626175642072EE
:10030000617465007365740909093A204D656E755D
:1003100020746F20636F6E666967757265207379EC
:100320007374656D206D6F64650072657365740923
:1003300009093A2043617573657320756E697420ED
:10034000746F2072657365742C20757365732070EB
:100350006172616D657465727320696E20636F6E82
:100360006669672066696C65006469736B090909D1
:100370003A2053686F7773206361726420696E66F8
:100380006F726D6174696F6E0073697A65203C6687
:10039000696C653E09093A20577269746520736972
:1003A0007A65206F66203C66696C653E20746F201C
:1003B0007465726D696E616C0072656164203C6683
:1003C000696C653E203C73746172743E203C6C65C0
:1003D0006E6774683E203C747970653E3A204F75B4
:1003E0007470757473203C6C656E6774683E20622F
:1003F00079746573206F66203C66696C653E207475
:100400006F20746865207465726D696E616C20730D
:1004100074617274696E67206174203C73746172D8
:10042000743E2E204F6D6974203C73746172743E6B
:1004300020616E64203C6C656E6774683E20746F4A
:1004400020726561642077686F6C652066696C65F1
:100450002E203C747970653E2031207072696E7474
:100460007320696E2041534349492C203220696E24
:10047000204845582E006C730909093A2053686FCB
:1004800077732074686520636F6E74656E74206F77
:1004900066207468652063757272656E7420646985
:1004A000726563746F72792E2E006D64203C6469EE
:1004B000726563746F72793E09093A20437265610F
:1004C0007465732061203C6469726563746F72792E
:1004D0003E00617070656E64203C66696C653E0923
:1004E000093A20417070656E6473207465787420D9
:1004F000746F20656E64206F66203C66696C653E93
:10050000006E6577203C66696C653E09093A2043B8
:10051000726561746573203C66696C653E0042617A
:1005200073696320636F6D6D616E64733A004F7021
:10053000656E4C6F672076332E32300064697265C9
:1005400063746F7279206E6F7420666F756E643A93
:10055000200063616E6E6F7420636420746F20707E
:100560006172656E74206469726563746F72793A42
:1005700020002E2E002000756E6B6E6F776E20634C
:100580006F6D6D616E643A20006F6666006F6E007D
:1005900065656D006F6666006F6E00766572626FEE
:1005A0007365006F6666006F6E006563686F005C60
:1005B000002E5C0070776400617070656E640045A9
:1005C00072726F72206372656174696E672066690A
:1005D0006C653A20006E6577007265736574007310
:1005E000796E6300204B4200436172642053697A44
:1005F000653A200072656164435344206661696C0A
:100600006564002F004D616E756661637475726973
:100610006E6720646174653A200053657269616C8D
:10062000206E756D6265723A20002E000A0D5665C7
:100630007273696F6E3A200050726F647563743A1A
:1006400020004F454D2049443A20004D616E7566AB
:10065000616374757265722049443A200072656165
:1006600064434944206661696C656400556E6B6E35
:100670006F776E0053444843005344320053443173
:10068000000A4361726420747970653A20006469DD
:10069000736B002D310073697A65006572726F7239
:1006A0002077726974696E6720746F2066696C6563
:1006B0000A0D003C004572726F72207365656B69AC
:1006C0006E6720746F20004661696C656420746FEA
:1006D000206F70656E2066696C65200077726974A2
:1006E000650020002E004572726F72207365656B85
:1006F000696E6720746F20004661696C65642074C0
:100700006F206F70656E2066696C65200072656190
:1007100064006364002066696C6528732920646541
:100720006C65746564002D726600726D006572728E
:100730006F72206372656174696E672064697265A7
:1007400063746F72793A20006D6400566F6C756D3A
:100750006520697320464154006C73007365740012
:10076000626175640068656C70003F0046696C6585
:100770002073797374656D20696E697469616C6941
:100780007A656400436C6F73696E6720646F776E7F
:100790002066696C652073797374656D00696E6994
:1007A00074003E002100626175642C6573636170A2
:1007B000652C657363232C6D6F64652C766572629E
:1007C0002C6563686F2C69676E6F72655258000004
:1007D0006572726F722077726974696E6720746FC8
:1007E0002066696C6500256C642C25642C25642CBE
:1007F00025642C25642C25642C2564000043726537
:1008000061746520636F6E666967206661696C65F7
:10081000640052656D6F766520636F6E6669672050
:100820006661696C656400636F6E6669672E7478D3
:100830007400636F6E6669672E747874007E003C86
:10084000004572726F72206372656174696E672011
:100850005345514C4F470A005345514C4F47303098
:100860002E545854004C4F47253035642E5458545C
:100870000021546F6F206D616E79206C6F67733A41
:1008800032210021546F6F206D616E79206C6F678B
:10089000733A3121003200310066696C652E6F7049
:1008A000656E00726F6F742E696E697400766F6C7E
:1008B000756D652E696E697400636172642E696E70
:1008C0006974004572726F7220007C3C3E5E2B3D65
:1008D0003F2F5B5D3B2C2A225C00000000002400BF
:1008E00027002A0000000000250028002B0000003F
:1008F0000000230026002900040404040404040466
:1009000002020202020203030303030301020408BA
:100910001020408001020408102001020408102069
:1009200000000007000201000003040600000000B0
:1009300000000000C408501D11241FBECFEFD8E0F6
:10094000DEBFCDBF11E0A0E0B1E0EAE2FDE602C00B
:1009500005900D92A432B107D9F716E0A4E2B1E0F8
:1009600001C01D92AE3FB107E1F719E0C8E3D9E03D
:1009700004C02297FE010E945836C433D107C9F73C
:100980000E941D340C9493360C940000FC018827BF
:100990009927E89421912032E9F3293010F02E3084
:1009A000C8F32B3241F02D3239F4689404C00E9410
:1009B0003305820F911D219120532A30C0F31EF47C
:1009C000909581959F4F0895FB01DC018D910590D5
:1009D00080190110D9F3990B0895FB01DC010590F2
:1009E0000D920020E1F70895FC0105900020E9F741
:1009F000809590958E0F9F1F0895FB01DC0104C028
:100A00008D910190801921F441505040C8F7881B06
:100A1000990B0895FB01DC0102C001900D92415039
:100A20005040D8F70895DC0101C06D93415050400B
:100A3000E0F70895FB01DC014150504048F001907F
:100A40000D920020C9F701C01D9241505040E0F7BF
:100A50000895DC016C9161566A3108F0605E6F5B4D
:100A60006D93C1F708957AE0979F902D879F802D11
:100A7000910D11240895AEE0B0E0E1E4F5E00C94AE
:100A80006A360D891E898EE08C831A8309838FEF65
:100A90009FE79E838D839E01275E3F4FCE01019687
:100AA0006F89788DA9010E945F052F813885020F1B
:100AB000131FF80110822E96E4E00C948636ABE00A
:100AC000B0E0E5E6F5E00C945C363C012B015A0100
:100AD000FC0117821682838181FD03C06FEF7FEFD7
:100AE000C6C19AE0892E1E010894211C311CF30115
:100AF0002381F20123FD859123FF81912F0188231A
:100B000009F4B2C1853239F423FD859123FF819127
:100B10002F01853229F490E0B3010E945207E7CFFC
:100B2000982FFF24EE249924FFE1FF15D0F09B328B
:100B300069F09C3228F4903259F0933291F40EC04F
:100B40009D3249F0903369F441E024C052E0F52A27
:100B500084E0F82A28C098E0F92A25C0E0E1FE2ABE
:100B600022C0F7FC29C0892F80538A3070F4F6FE2A
:100B700005C0989C902C1124980E15C0E89CE02C80
:100B80001124E80EF0E2FF2A0EC09E3229F4F6FC92
:100B90006BC140E4F42A07C09C3619F450E8F52AEA
:100BA00002C0983649F4F20123FD959123FF9191FB
:100BB0002F01992309F0B8CF892F8554833018F07D
:100BC0008052833038F444E050E0A40EB51E5FE359
:100BD00059830FC0933631F0933779F0933509F08C
:100BE00056C020C0F5018081898342E050E0A40E08
:100BF000B51E610101E010E012C0F501C080D18096
:100C0000F6FC03C06FEF7FEF02C0692D70E042E099
:100C100050E0A40EB51EC6010E9447078C015FE795
:100C2000F52214C0F501C080D180F6FC03C06FEF3F
:100C30007FEF02C0692D70E042E050E0A40EB51EC7
:100C4000C6010E943C078C0150E8F52AF3FE07C05C
:100C50001AC080E290E0B3010E945207EA948E2D00
:100C600090E008171907A8F30EC0F601F7FC85916C
:100C7000F7FE81916F0190E0B3010E945207E110ED
:100C8000EA94015010400115110579F7EAC0943635
:100C900011F0993669F5F7FE08C0F5012081318120
:100CA0004281538184E090E00AC0F5018081918106
:100CB0009C01442737FD4095542F82E090E0A80E18
:100CC000B91E9FE6F92257FF09C05095409530950F
:100CD00021953F4F4F4F5F4FE0E8FE2ACA01B9010F
:100CE000A1012AE030E00E947E07D82ED21840C031
:100CF000953729F41F2D1F7E2AE030E01DC01F2DDF
:100D0000197F9F3661F0903720F4983509F0ACC018
:100D10000FC0903739F0983709F0A6C004C028E01A
:100D200030E00AC0106114FD146020E130E004C01E
:100D300014FD166020E132E017FF08C0F501608164
:100D400071818281938144E050E008C0F501808187
:100D50009181BC0180E090E042E050E0A40EB51E1D
:100D6000A1010E947E07D82ED2188FE7F82EF1221B
:100D7000F6FE0BC05EEFF522D91438F4F4FE07C07E
:100D8000F2FC05C08FEEF82202C01D2D01C0192D06
:100D9000F4FE0DC0FE01ED0DF11D8081803319F4CC
:100DA00099EEF92208C01F5FF2FE05C003C08F2D27
:100DB000867809F01F5F0F2DF3FC14C0F0FE0FC002
:100DC0001E1510F09D2C0BC09D2C9E0C911A1E2DF3
:100DD00006C080E290E0B3010E9452071F5F1E151B
:100DE000C0F304C01E1510F4E11A01C0EE2404FF84
:100DF0000FC080E390E0B3010E94520702FF1DC0C4
:100E000001FD03C088E790E00EC088E590E00BC0CC
:100E1000802F867891F001FF02C08BE201C080E252
:100E2000F7FC8DE290E0B3010E94520706C080E318
:100E300090E0B3010E9452079A94D914C0F3DA9457
:100E4000F101ED0DF11D808190E0B3010E94520788
:100E5000DD20A9F706C080E290E0B3010E945207AE
:100E6000EA94EE20C1F743CEF30166817781CB018E
:100E70002B96E2E10C947836FC01059061507040AD
:100E80000110D8F7809590958E0F9F1F0895FC0153
:100E90006150704001900110D8F7809590958E0FA9
:100EA0009F1F08950F931F93CF93DF938C01EB0146
:100EB0008B8181FF1BC082FF0DC02E813F818C8101
:100EC0009D812817390764F4E881F9810193F9833A
:100ED000E88306C0E885F985802F0995892B31F4D0
:100EE0008E819F8101969F838E8302C00FEF1FEF3B
:100EF000C801DF91CF911F910F910895FA01AA27A0
:100F0000283051F1203181F1E8946F936E7F6E5F4C
:100F10007F4F8F4F9F4FAF4FB1E03ED0B4E03CD0FA
:100F2000670F781F891F9A1FA11D680F791F8A1FDD
:100F3000911DA11D6A0F711D811D911DA11D20D044
:100F400009F468943F912AE0269F11243019305DFE
:100F50003193DEF6CF010895462F4770405D4193EF
:100F6000B3E00FD0C9F7F6CF462F4F70405D4A333C
:100F700018F0495D31FD4052419302D0A9F7EACF04
:100F8000B4E0A6959795879577956795BA95C9F733
:100F900000976105710508959B01AC010A2E069426
:100FA0005795479537952795BA95C9F7620F731FDF
:100FB000841F951FA01D0895FC01DB0108C089173F
:100FC00021F08F3311F080E00895319611969C91B5
:100FD0009923F1F080818A3291F71AC080818A3298
:100FE00059F431968081882311F481E008959D01A0
:100FF0002F5F3F4FAF0110C0891711F08F3319F4E5
:101000003196119609C0FA01D9012F5F3F4F04C0F4
:1010100020E030E040E050E09C919923F9F601C0D7
:10102000319690819A32E1F380E0992309F481E0CE
:101030000895EF92FF920F931F937A018B01109204
:10104000C1002E732093C200403081EE580780E02B
:10105000680780E0780729F41092C00020E130E0B2
:1010600013C082E08093C00060E079E08DE390E0FF
:10107000A80197010E943436215030404040504032
:1010800056954795379527953093C5002093C40012
:1010900088E98093C1001F910F91FF90EF90089510
:1010A0008091C00085FFFCCF6093C60081E090E096
:1010B00008950F931F938C01DC01ED91FC91019039
:1010C000F081E02D6DE00995D801ED91FC91019042
:1010D000F081E02DC8016AE0099582E090E01F915F
:1010E0000F910895CF92DF92EF92FF920F931F938B
:1010F000CF93DF937C016B018A01C0E0D0E00EC08A
:10110000F601EC0FFD1F4491F701A081B1812D91F3
:101110003C91C701642FF90109952196C017D107A9
:1011200078F3C801DF91CF911F910F91FF90EF905D
:10113000DF90CF900895CF92DF92EF92FF920F93BE
:101140001F93CF93DF937C016B018A01C0E0D0E055
:101150000DC0D701ED91FC91D601AC0FBD1F0190E0
:10116000F081E02DC7016C9109952196C017D10738
:1011700080F3C801DF91CF911F910F91FF90EF9005
:10118000DF90CF90089508951092270110922601C4
:1011900088EE93E0A0E0B0E08093280190932901CD
:1011A000A0932A01B0932B0188E091E09093250150
:1011B0008093240184EE96E060E371E04DE053E01B
:1011C0000E94463189E18093590410925C04109288
:1011D000740410927F041092820410927E04109284
:1011E0007D0480E291E090937C0480937B040895D9
:1011F00084EE96E00E9452310895DF93CF930F92D0
:10120000CDB7DEB784EE96E0BE016F5F7F4F0E94E0
:101210001B31882319F42FEF3FEF03C08981282F5A
:1012200030E0C9010F90CF91DF91089584EE96E0F0
:101230000E94093108956F927F928F929F92AF9290
:10124000BF92CF92DF92EF92FF920F931F93DF93A3
:10125000CF93CDB7DEB7AC970FB6F894DEBF0FBE15
:10126000CDBF7C015B01642E722E1A8A1D8A198AF9
:10127000188A80E291E09F878E8774E0C72ED12C78
:10128000CE0CDF1C8E010E5E1F4F4E010894811C98
:10129000911C17C0C801B4010E949422882371F0E8
:1012A0008D89823008F070C0813041F4C501B401ED
:1012B0000E94DC07882311F001E067C0C8010E948A
:1012C0005224E114F10419F460E070E001C0B601A9
:1012D000C80141E00E9417268823E1F600E03EC0E5
:1012E00084E291E060E20E9450081F5F1715C0F38E
:1012F00084E291E0BE016F5F7F4F0E94FF35182F9F
:101300008D89843031F484E291E06FE20E945008CC
:10131000180F8D898130D1F461FE18C006C084E2B7
:1013200091E060E20E9450081F5F1E30C0F384E22B
:1013300091E060E20E9450084DA15EA16FA178A5E6
:1013400084E291E02AE030E00E944D3584E291E0B1
:101350000E945908CE0142960E945224802FAC96DA
:101360000FB6F894DEBF0FBECDBFCF91DF911F91B6
:101370000F91FF90EF90DF90CF90BF90AF909F9034
:101380008F907F906F90089502E010E0AFCF3F9272
:101390004F925F926F927F928F929F92AF92BF9285
:1013A000CF92DF92EF92FF920F931F93DF93CF9331
:1013B000CDB7DEB76F970FB6F894DEBF0FBECDBFC7
:1013C0008C014B01D42EC22E1D8218861C821B82DA
:1013D00080E291E09A838983B4E0AB2EB12CA00E19
:1013E000B11EC50140E050E060E070E00E94CD21F8
:1013F000ED2CFF2484E0E822FF24A5E06A2E712C66
:101400006C0E7D1EF2E03F2E3C0C2E010894411C18
:10141000511C38C08230B1F5E114F10499F180918A
:10142000C204823078F5F80187859089A189B28954
:101430000115110511F0B50102C060E070E0E5E0B2
:10144000B695A79597958795EA95D1F7AC01415048
:101450005040C30121E00E945B26882399F08091CF
:10146000C2048F5F8093C204C201B4014D2D232DAD
:101470000E94C7098091C20481508093C204C301B5
:101480000E945224C801B4014D2D2C2D0E941B092D
:10149000882309F0BFCF6F960FB6F894DEBF0FBE5A
:1014A000CDBFCF91DF911F910F91FF90EF90DF9013
:1014B000CF90BF90AF909F908F907F906F905F90F4
:1014C0004F903F900895CF93DF93EC018FE0E3ECD2
:1014D000F4E0DF011D928A95E9F750E041E0A62F84
:1014E000B0E039C0242F30E0FE01E20FF31F80810D
:1014F000803229F02F5F3F4F2A173B0759F5842F81
:1015000090E001968A179B0709F4462FE3ECF4E07C
:1015100020E080819181892B19F0828181112F5FD8
:10152000339684E0E23DF807A1F7253088F4822F56
:1015300090E0FC01EE0FFF1FE80FF91FED53FB4F8A
:10154000CE01850F911D91838083842F851B82831B
:101550004F5F542F4F5F461728F2E3ECF4E020E092
:1015600080819181892B19F0828181112F5F3396BF
:10157000A4E0E23DFA07A1F7822FDF91CF91089511
:10158000982F8EE1E4EAF4E0DF011D928A95E9F7F5
:101590009530E8F4892F90E0FC01EE0FFF1FE80F73
:1015A000F91FED53FB4F608171816115710579F071
:1015B0004281442361F04F3118F04EE150E001C008
:1015C00050E084EA94E00E941A059C0102C020E0E9
:1015D00030E0C90108958F929F92AF92BF92CF924F
:1015E000DF92EF92FF920F931F9364EF862E66E0D7
:1015F000962EC40169E070E00E943A32A82EC40120
:101600006AE070E00E943A32E82EC4016BE070E0BC
:101610000E943A32FF2400E010E0102F0F2DFE2C24
:10162000EE2490E0A0E0B0E0E82AF92A0A2B1B2B78
:10163000BB24CC24DD246501BB24AA24EA28FB2892
:101640000C291D29B701C8011F910F91FF90EF9040
:10165000DF90CF90BF90AF909F908F9008950F93A1
:101660001F9304E211E0C8016EE275E00E94A1340C
:10167000C8016EE175E00E94A134C80161E075E027
:101680000E94A134C80162ED74E00E94A134C80137
:101690006AEA74E00E94A134C80166E774E00E941F
:1016A000A134C80169EB73E00E94A134C80169E864
:1016B00073E00E94A134C80169E673E00E94A1347E
:1016C000C8016AE273E00E94A134C80164E073E0DB
:1016D0000E94A134C8016FED72E00E94A1341F91F5
:1016E0000F910895CF92DF92EF92FF920F931F9385
:1016F0007B018C01E4EFCE2EE6E0DE2EC60169E030
:1017000070E0402F0E944132552717FD5A95412F16
:10171000302F2F2DC6016AE070E0422F0E94413227
:10172000C6016BE070E04E2D0E9441321F910F9177
:10173000FF90EF90DF90CF9008951F930E94EB0AE7
:1017400060939A0470939B0480939C0490939D04EF
:101750006C52714080409040655171448F40904080
:1017600090F080E895E2A0E0B0E080939A04909336
:101770009B04A0939C04B0939D0460E875E280E014
:1017800090E00E94720B84EF96E062E070E00E94AD
:101790003A3280939E04863048F010929E0484EF83
:1017A00096E062E070E040E00E94413284EF96E013
:1017B00065E070E00E943A3280939F0481508E3F32
:1017C00050F08AE180939F0484EF96E065E070E03A
:1017D0004AE10E94413284EF96E066E070E00E94A8
:1017E0003A328093A00481508E3F50F083E0809382
:1017F000A00484EF96E066E070E043E00E9441328E
:1018000084EF96E067E070E00E943A3211E01093B6
:10181000A10484EF96E067E070E041E00E9441326D
:1018200084EF96E068E070E00E943A321093A204E0
:1018300084EF96E068E070E041E00E9441328091E0
:10184000A10490910301813011F4926001C09D7F49
:10185000909303018091A20490910301813011F4CF
:10186000916001C09E7F9093030184EF96E06CE04D
:1018700070E00E943A328093A304823048F01092C4
:10188000A30484EF96E06CE070E040E00E944132F7
:101890001F9108950F931F9360E875E280E090E038
:1018A0000E94720B04EF16E0C80162E070E040E0B5
:1018B0000E944132C80165E070E04AE10E94413275
:1018C000C80166E070E043E00E944132C80167E071
:1018D00070E041E00E944132C80168E070E041E000
:1018E0000E944132C8016CE070E040E00E94413249
:1018F0001F910F910895CF92DF92EF92FF920F9375
:101900001F93CF93DF93EC01D62E60E070E04D2D56
:1019100050E00E94130500E0ED2CFF240894E1083C
:10192000F108F0E2CF2E45C084EE96E00E94093126
:10193000892BD1F384E291E00E94FD08182F8BB12E
:101940008C258BB9183011F01F37C1F4002389F1B1
:101950000150FE01E00FF11D108284E291E068E089
:101960000E94793484E291E065E775E00E94563484
:1019700084E291E068E00E9479341BC08091030109
:1019800080FF05C084E291E0612F0E9479341D3010
:1019900049F484E291E00E948134FE01E00FF11DE0
:1019A00010820DC01A3029F0FE01E00FF11D1083E6
:1019B0000F5F802F90E08E159F050CF4B5CFCE0100
:1019C0006D2D0E94630A802FDF91CF911F910F919F
:1019D000FF90EF90DF90CF900895EF92FF920F93DA
:1019E0001F938C01F62EE72E862F972F0E94F4046A
:1019F000AC01C8016F2D7E2D0E9472081F910F91BE
:101A0000FF90EF900895AF92BF92CF92DF92EF9246
:101A1000FF920F931F93DF93CF93CDB7DEB7AC97B1
:101A20000FB6F894DEBF0FBECDBF1A8A1D8A198A81
:101A3000188A80E291E09F878E8784EF96E063E0CA
:101A400070E00E943A32182F84EF96E064E070E074
:101A50000E943A32282F1F3F99F48F3F89F484EF78
:101A600096E063E070E040E00E94413284EF96E04F
:101A700064E070E040E00E944132EE24FF2410C098
:101A8000922F80E0E12EFF24E82AF92A8EEFE81653
:101A90008FEFF80629F484E291E063E878E017C05C
:101AA0006E010894C11CD11CA5E6AA2EA8E0BA2E8E
:101AB0008E010E5E1F4F0894E11CF11C9EEFE9168B
:101AC0009FEFF90648F084E291E061E778E00E9438
:101AD000563420E030E041C000D000D000D0EDB757
:101AE000FEB73196ADB7BEB71296DC92CE92119783
:101AF000B382A282F582E4820E943B058DB79EB735
:101B000006960FB6F8949EBF0FBE8DBFC8016FE753
:101B100074E0A60122EC0E94312A882361F2C801F8
:101B20000E94522484EF96E063E070E04E2D0E9404
:101B3000413284EF96E064E070E00E943A326E0138
:101B40000894C11CD11C8F1539F084EF96E064E035
:101B500070E04F2D0E9441329601C901AC960FB63C
:101B6000F894DEBF0FBECDBFCF91DF911F910F91D3
:101B7000FF90EF90DF90CF90BF90AF9008950F93BC
:101B80001F93CF93DF93C0E0D0E0082F10E015C083
:101B900085E061E00E94763368EC70E080E090E0E0
:101BA0000E94A33285E060E00E94763368EC70E02A
:101BB00080E090E00E94A3322196C017D10744F341
:101BC00060ED77E080E090E00E94A332C0E0D0E0DA
:101BD000F4CF1F93182F84E291E063EC78E00E9429
:101BE0005634173079F0183018F41630F1F405C077
:101BF000183069F01930C9F40FC084E291E069EB44
:101C000078E00EC084E291E06DEA78E009C084E2F9
:101C100091E063EA78E004C084E291E069E978E069
:101C20000E94563483E00E94BF0D1F910895AF9229
:101C3000BF92CF92DF92EF92FF920F931F93DF93A9
:101C4000CF93CDB7DEB76F970FB6F894DEBF0FBE58
:101C5000CDBF5C011D8218861C821B8280E291E050
:101C60009A838983C50162E775E00E94E404892BA9
:101C700009F06FC08FE794E00E9452248FE794E050
:101C80006DE574E00E948521882319F488E00E94A4
:101C9000E90D80914004882339F080914C04882319
:101CA00011F08FEF01C081E0E82EEA94E7FE03C057
:101CB000FF24F39440C0FF24F39400E010E095E08B
:101CC000C92ED12CCC0EDD1E27C0A801440F551FF4
:101CD000400F511F440F551F440F551F405C5B4F71
:101CE000C6016FE774E021E00E94312AF82E0F5FF1
:101CF0001F4F882399F0AFE7B4E0F6018BE1019024
:101D00000D928150E1F78B819C8190937E048093AA
:101D10007D04C6010E9452240E15BCF28CE02E2DCB
:101D20002802C0011124805C9B4FFC018BE0DF0185
:101D30001D928A95E9F78091030181FF4BC0FF2036
:101D400019F0FF24F39446C084E291E062E575E067
:101D500015C08E010B5F1F4FC8016FE774E0A5012E
:101D600021E00E94312AF82E882381F4809103011A
:101D700081FF30C084E291E06CE375E00E9456344C
:101D800084E291E0B5010E94023624C0AFE7B4E0DE
:101D9000F8018BE101900D928150E1F78B819C81DC
:101DA00090937E0480937D0480914004882311F4F5
:101DB00090E005C080914C04882361F491E08CE0B0
:101DC0009802C0011124805C9B4FB5014BE050E0AC
:101DD0000E941A058F2D6F960FB6F894DEBF0FBEC6
:101DE000CDBFCF91DF911F910F91FF90EF90DF90CA
:101DF000CF90BF90AF9008954F925F927F928F9255
:101E00009F92AF92BF92CF92DF92EF92FF920F9389
:101E10001F93DF93CF93CDB7DEB7C158D0400FB635
:101E2000F894DEBF0FBECDBF1DA218A61CA21BA238
:101E300080E291E09AA389A3FE01EC5BFF4F108240
:101E4000FE01E95BFF4F1082FE01EE5BFF4F118246
:101E50001082FE01E05CFF4F91838083CE01859666
:101E60006DE574E00E948521882319F488E00E94C2
:101E7000E90D8E010F5F1F4FC80167E278E00E94F5
:101E8000ED0464E4A62EB12CAC0EBD1E55E2852EE9
:101E9000912C8C0E9D1EC501B401A80122E00E9468
:101EA000312A882381F0C5010E945C24882359F4DB
:101EB00084E291E062E178E00E94A134C5010E94D1
:101EC0005224C401BDC040E4442E512C4C0E5D1E72
:101ED00082010C5F1F4F35E2A32EB12CAC0EBD1E4C
:101EE000C801B501AE014F5F5F4F26E40E94312A61
:101EF000882359F484E291E06DEF77E00E94A134E9
:101F0000C8010E945224C5019BC00E94EB0A6B01CC
:101F10007C0184EF96E065E070E00E943A32782E12
:101F200084EF96E066E070E00E943A32882E84EFFB
:101F300096E062E070E00E943A32982E84EF96E0DC
:101F400067E070E00E943A32A82E84EF96E068E0E5
:101F500070E00E943A32B82E84EF96E06CE070E0B8
:101F60000E943A322DB73EB7245130400FB6F89454
:101F70003EBF0FBE2DBFEDB7FEB731968E01055F98
:101F80001F4FADB7BEB712961C930E93119726EE56
:101F900037E033832283C482D582E682F78270865B
:101FA00011868286138694861586A6861786B08A41
:101FB000118A828B138A0E943B05F8010190002050
:101FC000E9F73197E01BF10B2DB73EB72C5E3F4F81
:101FD0000FB6F8943EBF0FBE2DBFC201B801AF01CE
:101FE0000E94882CF80101900020E9F73197E01B4E
:101FF000F10B8E179F0731F084E291E060ED77E0FE
:102000000E94A1348E01005C1F4FC8010E948134E0
:102010002FE5E22EF12CEC0EFD1EC70166EA77E0FB
:102020000E94ED04C801B7010E94632C0C5F1F4F92
:10203000C8010E94B122C8010E945224CE01859697
:102040000E945224CF57DF4F0FB6F894DEBF0FBE69
:10205000CDBFCF91DF911F910F91FF90EF90DF9057
:10206000CF90BF90AF909F908F907F905F904F9058
:1020700008951F9384EF96E062E070E00E943A3288
:10208000182F84E291E069E672E00E94A13484E2B4
:1020900091E065E572E00E945634112329F484E250
:1020A00091E06CE472E00DC0113029F484E291E01B
:1020B00060E472E006C0123031F484E291E068E33B
:1020C00072E00E94563484E291E00E94813484E2FE
:1020D00091E062E172E00E94563484E291E0609106
:1020E0009F044AE050E00E94703584E291E06EE087
:1020F00072E00E94563484E291E06091A0044AE0CC
:1021000050E00E94823584E291E063E072E00E9438
:10211000A13484E291E06FEE71E00E94A13484E288
:1021200091E068ED71E00E94A13484E291E066ECF8
:1021300071E00E94A13484E291E06DEA71E00E94B6
:10214000A13484E291E065E971E00E94A13484E267
:1021500091E066E771E00E94A13484E291E06EE6CE
:1021600071E00E94A13484E291E06CE671E00E948B
:10217000563484EE96E00E940931892BD1F384E233
:1021800091E00E94FD08813361F484E291E06BE507
:1021900071E00E94A13484EF96E062E070E040E0DC
:1021A0000DC0823381F484E291E067E471E00E9423
:1021B000A13484EF96E062E070E041E00E94413299
:1021C0000E94FC0E89C0833361F484E291E068E3ED
:1021D00071E00E94A13484EF96E062E070E042E09A
:1021E000EDCF8433A9F484E291E06AE171E00E94CA
:1021F000A13484EF96E063E070E040E00E94413259
:1022000084EF96E064E070E040E00E94413264C0F8
:10221000853331F584E291E06BEF70E00E94563433
:1022200084EE96E00E940931892BD1F384E291E09B
:102230000E94FD08482F80939F0484EF96E065E09C
:1022400070E00E9441320E94FC0E84E291E062EE56
:1022500070E00E94563484E291E060919F042EC0A9
:10226000863389F54AE012C084E291E067EA70E0C3
:102270000E94563484EE96E00E940931892BD1F3F6
:1022800084E291E00E94FD08482F4053842F815042
:10229000893050F74093A00484EF96E066E070E048
:1022A0000E9441320E94FC0E84E291E060E870E0FE
:1022B0000E94563484E291E06091A0044AE050E02C
:1022C0000E94823509C0883709F0DBCE84E291E0B4
:1022D00068E770E00E94A1341F9108952F923F9209
:1022E0004F925F926F927F928F929F92AF92BF9226
:1022F000CF92DF92EF92FF920F931F93DF93CF93D2
:10230000CDB7DEB7C856D0400FB6F894DEBF0FBECB
:10231000CDBF1DA618AA1CA61BA680E291E09AA715
:1023200089A7FE01E85BFF4F148217821382128295
:1023300091838083CE018D966DE574E00E948521A6
:10234000882319F488E00E94E90D8E01075F1F4F72
:10235000C80162E378E00E94ED049CE4E92EF12CD0
:10236000EC0EFD1E8DE2C82ED12CCC0EDD1EC70159
:10237000B601A80121E00E94312A882349F4C7014F
:102380000E945224C6010E9452240E94FC0E6FC17A
:10239000AA24BB248E010D5E1F4FC7010E948B250E
:1023A00018165CF4F801EA0DFB1D80830894A11C4B
:1023B000B11C26E1A216B10481F7CE01845B9F4FC8
:1023C0000E945224CE018D960E94522410E8E12EE4
:1023D00015E2F12E012D112D7724BAE16B2EA3E029
:1023E0005A2E44244394332433942224CC24DD24D1
:1023F0004E010894811C911CCE010796A9969FAFAF
:102400008EAFA9979CC0ED93C3942A2F28198C2DC9
:1024100090E0E3E1F0E0EC0FFD1FE80FF91FE08131
:10242000EC3251F08A159B053CF4A9968EAD9FAD18
:10243000A997A817B90739F7F401E20FF11D108227
:10244000C4010E94C604982FDD20D1F540E050E081
:1024500060E070E0840119C0CB01BA012AE030E0ED
:1024600040E050E00E941536AB01BC018F2D99274A
:1024700087FD9095C097AA2797FDA095BA2F480F82
:10248000591F6A1F7B1F0F5F1F4FF801F0808F2DB0
:1024900080538A3008F3DB01CA018C529140A0407E
:1024A000B04085519144AF40B04038F0F0E8EF2E95
:1024B000F5E2FF2E012D112D40C07A018B013DC0A8
:1024C00021E0D21639F418161CF0EAE16E2E35C060
:1024D000682E33C082E0D81649F4892F81508A30A3
:1024E00018F073E0572E29C0592E27C0E3E0DE16FE
:1024F00041F4892F8150823010F077241EC0792E4C
:102500001CC0F4E0DF1639F4923018F044244394F0
:1025100014C0492E12C025E0D21639F4923018F0BA
:10252000332433940AC0392E08C086E0D81671F4DB
:10253000923010F0222401C0292ED394C3948C2D04
:1025400090E08A159B0514F4D4015FCF80919A0422
:1025500090919B04A0919C04B0919D04E816F9060B
:102560000A071B0711F490E014C0C801B7010E94CC
:10257000720BE0929A04F0929B0400939C041093D7
:102580009D0484E291E0B801A70126E00E941908A9
:1025900091E080919E04781651F070929E0484EF31
:1025A00096E062E070E0472D0E94413291E0809118
:1025B0009F04681651F060929F0484EF96E065E0F6
:1025C00070E0462D0E94413291E08091A00458169F
:1025D00051F05092A00484EF96E066E070E0452D43
:1025E0000E94413291E08091A104481651F040923E
:1025F000A10484EF96E067E070E0442D0E94413230
:1026000091E08091A204381651F03092A20484EF38
:1026100096E068E070E0432D0E94413291E08091A5
:10262000A304281651F02092A30484EF96E06CE0F6
:1026300070E0422D0E94413202C0913011F40E949C
:10264000FC0E8091A10490910301813011F49260FD
:1026500001C09D7F909303018091A204909103019A
:10266000813011F4916001C09E7F90930301C8599D
:10267000DF4F0FB6F894DEBF0FBECDBFCF91DF9115
:102680001F910F91FF90EF90DF90CF90BF90AF9090
:102690009F908F907F906F905F904F903F902F9082
:1026A0000895BF92CF92DF92EF92FF920F931F9304
:1026B000DF93CF93CDB7DEB728970FB6F894DEBF80
:1026C0000FBECDBF0E94EB0A7B018C0184E291E03A
:1026D0006EEC72E00E94563484E291E0B801A701EA
:1026E0002AE030E00E94A03584E291E069EC72E0DB
:1026F0000E94A13484E291E066EA72E00E94A13473
:1027000084E291E064EA72E00E9456346E0108941B
:10271000C11CD11CC60168E00E947B0C89818837EE
:1027200021F0EE24FF2487011FC084E291E06CE9D0
:1027300072E02FC0C801B7012AE030E040E050E06D
:102740000E9415367B018C018B2D992787FD909572
:10275000C097AA2797FDA095BA2FE80EF91E0A1F69
:102760001B1F0894C11CD11CF601B0808B2D805317
:102770008A3000F3D801C7018C529140A040B0408C
:1027800085519144AF40B04038F084E291E06EE86A
:1027900072E00E94A1341DC084E291E064E872E01E
:1027A0000E94563484E291E0A701B8012AE030E0AB
:1027B0000E94A03584E291E060E872E00E94A134BA
:1027C000B701C8010E94720B0E94FC0E85E00E94B6
:1027D000BF0D28960FB6F894DEBF0FBECDBFCF91C8
:1027E000DF911F910F91FF90EF90DF90CF90BF90FE
:1027F00008950F931F93CF93DF93EC018B0141E07A
:102800000E94482D882311F081E005C0CE01B80157
:1028100040E00E94482DDF91CF911F910F910895C4
:102820000F931F9380E060E00E94373380E061E007
:102830000E94763380E00E94CA33019709F472C087
:102840008DE061E00E9437338DE061E00E947633D5
:1028500010E000E269E170E080E090E00E94A332C5
:102860008BB180278BB980E00E94CA33019709F4AD
:1028700059C069E170E080E090E00E94A33285B128
:10288000802785B980E00E94CA33019709F44AC0C5
:102890001F5F1832F9F60E944A0C88E594E060E068
:1028A0004AE00E94D61F882319F486E00E94E90DB1
:1028B0008DE594E068E574E00E94F913882319F42B
:1028C00087E00E94E90D8FE794E00E9452248FE791
:1028D00094E06DE574E00E948521882319F488E076
:1028E0000E94E90D0E94FC0E85E061E00E943733F2
:1028F0008DE061E00E94373385E061E00E9476332D
:102900008DE061E00E94763310E264EF71E080E0D8
:1029100090E00E94A3328BB181278BB985B18127CA
:1029200085B9F3CF1F910F91089585E061E00E9472
:10293000373383B7817F83BF83B7816083BF809143
:102940007A008F7780937A0080E880BF8FE380934E
:102950007E0083E080937F00809164008068809394
:1029600064008091640088608093640080916400BA
:10297000806480936400809164008160809364002F
:102980000E949D0B40919A0450919B0460919C047D
:1029900070919D0484E291E026E00E94190884E28F
:1029A00091E067E978E00E94563488E594E060E0C1
:1029B0004AE00E94D61F882319F486E00E94E90DA0
:1029C0008DE594E068E574E00E94F913882319F41A
:1029D00087E00E94E90D8FE794E00E9452248FE780
:1029E00094E06DE574E00E948521882319F488E065
:1029F0000E94E90D84E291E065E978E00E94563496
:102A00000E946E118091A304882311F40E94101477
:102A100088E1E0E4F4E0DF011D928A95E9F708958A
:102A2000EF92FF920F931F93CF93DF937B018A0165
:102A3000060F171FEB01C017D107B0F42091E6066F
:102A40003091E7068091E8069091E906281739074A
:102A500059F0A8014C1B5D0B84EE96E0BE010E946C
:102A6000EE31C80FD91FE7CF9E012E193F09C901CA
:102A7000DF91CF911F910F91FF90EF9008954F92AA
:102A80005F926F927F928F929F92AF92BF92CF92FE
:102A9000DF92EF92FF920F931F93DF93CF93CDB707
:102AA000DEB7EF970FB6F894DEBF0FBECDBFAC0117
:102AB0001D8218861C821B8280E291E09A838983A2
:102AC000CE0105966FE774E026E40E94312A882340
:102AD00019F489E00E94E90D888D998DAA8DBB8D2E
:102AE0000097A105B10569F48E010B5F1F4FC80166
:102AF00040E050E060E070E00E94CD21C8010E94FB
:102B0000B12284E291E06FE378E00E94563485E0E0
:102B100061E00E9476330E9495327B018C01DD24B6
:102B200050E2852E912C8C0E9D1E45E0A42EB12CDA
:102B3000AC0EBD1E2E010894411C511C30E2C32E68
:102B400021E2622E712C6C0E7D1E6DC084E291E03C
:102B5000B40140E250E00E941015482F8823A1F1F3
:102B600028A180919F04281711F0DD2412C0D3946E
:102B70003091A004F30191E00AC08081821711F026
:102B8000DD2403C0D394D31621F09F5F31969417B0
:102B9000A0F3C201B40150E00E94882C8BB18C25B7
:102BA0008BB90E9495326E197F09800B910B695881
:102BB000734180409040B8F1C5010E94B1220E944B
:102BC00095327B018C012FC00E9495326E197F09CE
:102BD000800B910B655F71408040904020F1C501F2
:102BE0000E94B1225D9880916400806280936400AD
:102BF0008091640084608093640083B7816083BFA8
:102C0000889583B78E7F83BF809164008B7F80938C
:102C10006400809164008F7D809364000E949532EF
:102C20007B018C01DD248091A004D81608F48ECF9E
:102C30008E010B5F1F4FC8010E94B122C8010E9484
:102C4000522485E060E00E94763384E291E06DE3F7
:102C500078E00E94563481E0EF960FB6F894DEBF1C
:102C60000FBECDBFCF91DF911F910F91FF90EF90DD
:102C7000DF90CF90BF90AF909F908F907F906F909C
:102C80005F904F9008952F923F924F925F926F9274
:102C90007F928F929F92AF92BF92CF92DF92EF92EC
:102CA000FF920F931F93DF93CF93CDB7DEB7CF582B
:102CB000D0400FB6F894DEBF0FBECDBFFE01E45B7F
:102CC000FF4F148217821382128280E291E0918377
:102CD000808311E01F0104E0402E512C4E0E5F1E38
:102CE0009E012A5E3F4FC257DF4F39832883CE585B
:102CF000D040C457DF4F8883CC58D040C357DF4FF4
:102D00009883CD58D0408BE690E08C0F9D1F0496A1
:102D1000C657DF4F99838883CA58D04001C011E05D
:102D20008091030183FF05C084E291E06AE10E9483
:102D30007934112331F484E291E064EA77E00E946F
:102D4000563484E291E062EA77E00E945634CE0184
:102D50008E966EE10E947B0C11E0882309F380E0DF
:102D60000E94C00A7C016DE977E00E94E404892B8F
:102D700041F58091030181FF06C084E291E064E89F
:102D800077E00E94A1348FE794E00E9452248FE7FD
:102D900094E06DE574E00E948521882319F488E0B1
:102DA0000E94E90D88E1E0E4F4E011928A95E9F7E8
:102DB0008091030181FFB3CF84E291E06CE677E07C
:102DC00008C6C7016AE677E00E94E404892B39F05F
:102DD000C70165E677E00E94E404892B19F40E949C
:102DE0002F0B9ECFC70160E677E00E94E404892B99
:102DF00019F40E94511394CFC7016CE577E00E944B
:102E0000E404892B19F40E9439108ACFC70169E5BF
:102E100077E00E94E404892BB1F58091030181FFE2
:102E20000EC084E291E06BE477E00E94563484E2C5
:102E300091E0609174044AE050E00E948235E3EC36
:102E4000F4E020E080819181892B19F08281811149
:102E50002F5F339634E0E23DF307A1F7213029F4E8
:102E60008AE2F7018083118206C081E00E94C00AD5
:102E70007C010E9429058BE794E0B70146E020E041
:102E80000E94C7094CCFC70168E477E00E94E404C0
:102E9000892BC9F581E00E94C00A8C01009709F4D2
:102EA00067C5E0961FAEE097E3961FAEE397AF9637
:102EB0001FAE1EAEAF97C457DF4FF881CC58D0403D
:102EC000AC96FFAFAC97C357DF4F2881CD58D040A9
:102ED000AD962FAFAD97C657DF4F88819981CA58FD
:102EE000D0406FE774E0A80120E00E948D2B88237A
:102EF00009F015CF8091030181FF3AC584E291E08A
:102F00006DE277E034C4C7016AE277E00E94E4042E
:102F1000892B09F09DC081E00E94C00A6C010097D6
:102F200009F426C5E3ECF4E020E080819181892B4F
:102F300019F0828181112F5F339634E0E23DF3076F
:102F4000A1F7233009F016C5C60166E277E00E94BA
:102F5000E404892B09F00EC582E00E94C00AAC018E
:102F6000C2016FE774E021E00E94312A882309F44E
:102F7000FFC4C2010E949F2608C0F10187818230F0
:102F800008F403C5C2010E94DF25182F8DC2C201BB
:102F90000E945C24FACFC6010E9429058FE794E0C5
:102FA00040E050E060E070E00E94CD21EE24FF247C
:102FB00087012DC0F1018781823030F5C201BE0149
:102FC0006F5F7F4F0E9494228823F1F0C601BE01FB
:102FD0006F5F7F4F0E94DC078823B1F0C2010E941F
:102FE0005224C2016FE774E0AE014F5F5F4F22E0F1
:102FF0000E94312AC2010E945C24882329F008948F
:10300000E11CF11C011D111DC2010E945224C201CC
:103010006FE774E041E00E941726882359F68091FB
:10302000030181FF0EC084E291E0B801A7012AE00C
:1030300030E00E944D3584E291E065E177E00E9446
:10304000A134E114F1040105110509F068CE90C422
:10305000C70162E177E00E94E404892B49F481E032
:103060000E94C00A009709F483C40E94170E94C3FB
:10307000C7016DE077E00E94E404892B09F059C193
:1030800081E00E94C00A8C01009709F471C4C2015A
:103090006FE774E0A80121E00E94312A882349F4F7
:1030A0008091030181FF64C484E291E068EF76E0DF
:1030B0005EC382E00E94C00A7C01009709F44DC003
:1030C000FC0101900020E9F73197E81B20E030E097
:1030D0004E2F50E00CC0F701E20FF31F80819927BB
:1030E00087FD9095C0970A97C0F52F5F3F4F241733
:1030F00035078CF3870140E050E060E070E019C0D4
:10310000CB01BA012AE030E040E050E00E941536E1
:10311000AB01BC018D2D992787FD9095C097AA27FB
:1031200097FDA095BA2F480F591F6A1F7B1F0F5F8D
:103130001F4FF801D0808D2D80538A3008F3C201D3
:103140000E94CD21882349F48091030181FF6DC144
:1031500084E291E066EE76E061C183E00E94C00AFD
:10316000AC01009709F43FC0FC0101900020E9F791
:103170003197E81B20E030E06E2F70E00CC0FA01C0
:10318000E20FF31F8081992787FD9095C0970A97DA
:1031900050F52F5F3F4F261737078CF38A016624BF
:1031A0007724430119C0C401B3012AE030E040E0B4
:1031B00050E00E9415363B014C018F2D992787FD69
:1031C0009095C097AA2797FDA095BA2F680E791EF3
:1031D0008A1E9B1E0F5F1F4FF801F0808F2D8053BA
:1031E0008A3008F304C066246A94762C430184E094
:1031F0000E94C00AAC01009709F440C0FC01019094
:103200000020E9F73197E81B20E030E06E2F70E0F6
:103210000CC0FA01E20FF31F8081992787FD90957A
:10322000C0970A9758F52F5F3F4F261737078CF343
:103230006A01EE24FF2487011AC0C801B7012AE001
:1032400030E040E050E00E9415367B018C018B2D70
:10325000992787FD9095C097AA2797FDA095BA2F2B
:10326000E80EF91E0A1F1B1F0894C11CD11CF60191
:10327000B0808B2D80538A3000F305C011E0E12E21
:10328000F12C012D112DB1E0AB2EB12CC12CD12C84
:1032900042C06A147B048C049D0408F442C0262FAB
:1032A000F1E0EF16F1040105110599F4862F805223
:1032B0008F3540F16A3011F06D3021F484E291E0F5
:1032C000622F22C084E291E064EE76E00E94ED0C71
:1032D0001DC022E0E216F1040105110569F484E243
:1032E00091E040E150E00E94703584E291E062EEAE
:1032F00076E00E9456340AC033E0E316F10401057B
:10330000110521F484E291E00E9450080894A11C68
:10331000B11CC11CD11CC2010E948B25BC0197FFAE
:10332000B8CFC2010E9452248091030183FDF7CCE3
:1033300075C2C7016CED76E00E94E404892B09F0A8
:10334000B7C081E00E94C00A8C01009709F410C345
:10335000C2016FE774E0A80122E00E94312A8823AD
:1033600049F48091030181FF03C384E291E067EC9B
:1033700076E0FDC182E00E94C00A7C01009709F45A
:1033800058C0FC0101900020E9F73197E81B20E0CC
:1033900030E04E2F50E00DC0F701E20FF31F8081A7
:1033A000992787FD9095C0970A9708F042C02F5F34
:1033B0003F4F2417350784F3870140E050E060E079
:1033C00070E019C0CB01BA012AE030E040E050E0E3
:1033D0000E941536AB01BC018D2D992787FD909574
:1033E000C097AA2797FDA095BA2F480F591F6A1FAB
:1033F0007B1F0F5F1F4FF801D0808D2D80538A30C7
:1034000008F3C2010E94CD21882399F48091030121
:1034100081FF0BC084E291E065EB76E00E945634B8
:1034200084E291E0B7010E940236C2010E94522458
:103430009FC28091030183FF05C084E291E06AE1AD
:103440000E94793484E291E063EB76E00E94563486
:10345000CE018E966EE10E947B0C182F882319F105
:10346000C101BE01625D7F4F412F50E00E94882C58
:10347000212F30E08217930761F08091030181FFD3
:1034800006C084E291E06BE976E00E94563410E0D9
:103490000BC01D3170F6C10160E071E042E050E008
:1034A0000E94882CC6CF11E0C2010E94522438CC61
:1034B000C70166E976E00E94E404892B99F581E072
:1034C0000E94C00AAC01009709F452C2C2016FE722
:1034D00074E021E00E94312A882381F0F1014789BC
:1034E000508D618D728D84E291E02AE030E00E947F
:1034F0004D35C2010E94522411E00BC0809103019E
:1035000081FF06C084E291E063E976E00E945634D0
:1035100010E08091030183FD03CC84E291E00E94DE
:103520008134FECBC7016EE876E00E94E404892B6B
:1035300009F0DEC084E291E061E876E00E94563452
:1035400080915C04823049F0833061F0813079F4FD
:1035500084E291E06DE776E00EC084E291E069E7F5
:1035600076E009C084E291E064E776E004C084E29A
:1035700091E06CE676E00E94A13488E594E06AE090
:10358000AE01425F5F4F0E94F41E882339F484E24B
:1035900091E06DE576E00E945634EAC184E291E064
:1035A0006BE476E00E94563484E291E06E8540E15F
:1035B00050E00E94823584E291E062E476E00E946D
:1035C000563484E291E06F850E94793484E291E080
:1035D00068890E94B53484E291E068E376E00E9455
:1035E00056348E010F5E1F4F84E291E0F801619125
:1035F0008F010E947934C257DF4F28813981CE581C
:10360000D0400217130781F784E291E06CE276E084
:103610000E9456346E8962956F7084E291E04AE0B0
:1036200050E00E94703584E291E06AE276E00E9408
:1036300056346E896F7084E291E04AE050E00E9457
:10364000823584E291E06AE176E00E9456344F8947
:10365000588D698D7A8D84E291E02AE030E00E94F5
:103660005C3584E291E065E076E00E9456346C8D32
:103670006F7084E291E04AE050E00E94703584E28D
:1036800091E063E076E00E9456346C8D62956F7035
:1036900070E06053784F8B8D8F7090E0A4E0880FBE
:1036A000991FAA95E1F7680F791F84E291E04AE03B
:1036B00050E00E94E03588E594E00E94141F7B01F1
:1036C0008C01611571058105910559F088E594E03B
:1036D00069E0AE01425E5F4F0E94F41E882309F04C
:1036E00062C184E291E064EF75E00E94A13440C1C0
:1036F000C7016FED75E00E94E404892B41F4C2011B
:103700000E94B1228FE794E00E94B12208CBC7014A
:1037100069ED75E00E94E404892B31F4E0913E04E8
:10372000F0913F04099524C1C70165ED75E00E9441
:10373000E404892B11F581E00E94C00A8C010097F6
:1037400009F416C1C2016FE774E0A80122EC0E94DF
:10375000312A882321F0C2010E945224E0CA8091BC
:10376000030181FF05C184E291E06FEB75E00E94E7
:10377000563484E291E0B801F9C0C70168EB75E006
:103780000E94E404892B51F481E00E94C00A009752
:1037900009F4EEC00E943F15182FC2CAC70164EB9E
:1037A00075E00E94E404892BF1F584E291E061EB7D
:1037B00075E00E94563480914004882311F4CC2493
:1037C00009C080914C04882319F0CC24CA9402C00B
:1037D000CC24C394DD24EC2CFF240894E108F108E8
:1037E0001BC00D2D10E0B801660F771F600F711F11
:1037F000660F771F660F771F605C7B4F84E291E056
:103800000E94FF350E151F0534F484E291E06FEA43
:1038100075E00E945634D394DC1418F384E291E0EE
:103820000E9481347CCAC7016AEA75E00E94E40400
:10383000892B59F581E00E94C00A8C01009709F498
:1038400097C067EA75E00E94E404F82E882339F4F3
:1038500081E08093A2048091030181600DC0C801C2
:1038600063EA75E00E94E404F82E882339F410928C
:10387000A204809103018E7F8093030184EF96E080
:1038800068E070E04091A20431C0C7016BE975E0C7
:103890000E94E404892B99F581E00E94C00A8C0102
:1038A000009709F465C068E975E00E94E404F82E09
:1038B000882339F481E08093A10480910301826020
:1038C0000DC0C80164E975E00E94E404F82E882365
:1038D00039F41092A104809103018D7F809303013C
:1038E00084EF96E067E070E04091A1040E944132CD
:1038F0000E94FC0E10E0FF2009F012CA10CAC70196
:1039000060E975E00E94E404892B19F581E00E94CA
:10391000C00A8C01009761F16DE875E00E94E40433
:10392000982F882321F48091030188600BC0C8017F
:1039300069E875E00E94E404982F882329F48091B7
:103940000301877F8093030110E0992309F0E8C900
:10395000E6C98091030181FF0BC084E291E067E733
:1039600075E00E94563484E291E0B7010E9402366D
:1039700010E0D6C9C2016FE774E0A60121E00E9401
:10398000312A882309F0F9CA06CBC2010E945224C9
:10399000C2016FE774E0A60122E00E94312A882369
:1039A00009F475CDF4CA84E291E068EE75E00E94F6
:1039B000563416950795F794E79484E291E0B801A0
:1039C000A7012AE030E00E944D3584E291E064EEE8
:1039D00075E00E94A134A3C9EF92FF920F931F9349
:1039E000DF93CF93CDB7DEB7AB970FB6F894DEBFBA
:1039F0000FBECDBF198A1C8A188A1F8680E291E00B
:103A00009E878D878E010F5F1F4FC80168E578E0A4
:103A10000E94ED0481E1E82EF12CEC0EFD1EC701A1
:103A20006FE774E0A80122E40E94312A882339F468
:103A300084E291E061E478E00E94563406C0C70158
:103A40000E945224C8010E943F15AB960FB6F8940D
:103A5000DEBF0FBECDBFCF91DF911F910F91FF90C1
:103A6000EF90089580919E04882321F40E94030D15
:103A70000E943F1580919E04813011F40E94EC1C3D
:103A80000E944316FFCF8091C10085FDFCCF80913D
:103A9000C00085FFF8CF6093C60081E090E00895F4
:103AA0001092D5041092D40488E191E09093D3044D
:103AB0008093D2040895FF920F931F93CF93DF93C7
:103AC0008B010E949532EB01FF24FA9409C00E94F9
:103AD00095326C1B7D0B6017710710F080E008C0F9
:103AE000FEBC0DB407FEFDCF8EB58F3F81F781E0A0
:103AF000DF91CF911F910F91FF900895FC012281DA
:103B00002D3010F046E002C0422F4695242F30E0C1
:103B1000C9019595879580658CBD40FF02C080E006
:103B200004C080E0463009F081E08DBD808160E016
:103B30000E9476330895FF920F931F93DF93CF93E4
:103B400000D000D0CDB7DEB78C01F62E29833A83A2
:103B50004B835C830E947E1DC8016CE271E00E9471
:103B60005B1D8F2D80648EBD0DB407FEFDCFFE0161
:103B700031969E012350304083818EBD0DB407FEE7
:103B8000FDCF3197E217F307B9F7FF2011F087E86F
:103B900001C085E98EBD0DB407FEFDCF8CE0F8169F
:103BA00031F48FEF8EBD0DB407FEFDCF8EB590E0E2
:103BB0002FEF2EBD0DB407FEFDCF8EB587FF02C0DF
:103BC0009150B9F7F80183830F900F900F900F90E9
:103BD000CF91DF911F910F91FF900895FC0180819B
:103BE00061E00E9476338FEF8EBD0DB407FEFDCFEE
:103BF0000895CF93DF93EC01DA016EBD0DB407FE9B
:103C0000FDCF8C918EBD1196EC91119782E090E0E2
:103C10000DB407FEFDCFEEBD22E08030920731F0FB
:103C2000FD01E80FF91FE0810196F2CF0DB407FE08
:103C3000FDCF8FEF8EBD0DB407FEFDCF8FEF8EBD94
:103C40000DB407FEFDCF8FEF8EBD0DB407FEFDCF87
:103C50008EB58B838F71853011F481E006C083E1CE
:103C60008983CE010E94EE1D80E0DF91CF910895FF
:103C7000CF92DF92EF92FF920F931F93CF93DF9338
:103C8000EC017A018B0169018C81833039F059E0B4
:103C9000EE0CFF1C001F111F5A95D1F7CE0168E1F1
:103CA000A80197010E949B1D882311F086E023C084
:103CB000CE016EEFA6010E94F91D8823E9F0CE0126
:103CC00068E572E00E945B1D882311F487E113C050
:103CD000CE016DE020E030E040E050E00E949B1D0E
:103CE000882341F48FEF8EBD0DB407FEFDCF8EB556
:103CF000882379F086E18983CE010E94EE1D80E061
:103D0000DF91CF911F910F91FF90EF90DF90CF90B7
:103D10000895CE010E94EE1D81E0F2CFBF92CF92B6
:103D2000DF92EF92FF920F931F93CF93DF93EC01FB
:103D30006B017A010E9495328B01BB24BA9409C0B1
:103D40000E949532601B710B6D52714010F081E141
:103D50000BC0BEBC0DB407FEFDCF8EB58B838F3F6D
:103D600079F38E3F39F08FE08983CE010E94EE1DFA
:103D700080E030C0D7011197EF28D9F08FEF8EBDCA
:103D800020E030E09FEF0BC00DB407FEFDCF8EB5F5
:103D90009EBDF601E20FF31F80832F5F3F4F2A176E
:103DA0003B0790F30DB407FEFDCF8EB5AC0DBD1DE6
:103DB0008C931B828FEF8EBD0DB407FEFDCF8EB5A9
:103DC0008FEF8EBD0DB407FEFDCF8EB5CE010E94E4
:103DD000EE1D81E0DF91CF911F910F91FF90EF9049
:103DE000DF90CF90BF9008950F931F93CF93DF93F1
:103DF000EC018A0120E030E040E050E00E949B1D91
:103E0000882339F080E18983CE010E94EE1D80E095
:103E100006C0CE01B80140E150E00E948E1EDF9145
:103E2000CF911F910F910895EF92FF920F931F93DF
:103E3000DF93CF93CDB7DEB760970FB6F894DEBFB0
:103E40000FBECDBF8C0169E0AE014F5F5F4F0E9496
:103E5000F41E882309F464C089818295869586952D
:103E6000837089F58F818370382F330F330F20E0F3
:103E7000888590E0880F991F880F991F282B392B70
:103E80008985829586958695837090E0282B392BBD
:103E90002F5F3F4F790100E010E08E818F7090E03E
:103EA00007972A852370220F3B85331F3327331F43
:103EB000232B820F911D04C0EE0CFF1C001F111F4D
:103EC0008A95D2F730C0813041F58A85E82EFF24EB
:103ED00000E010E00894E11CF11C011D111D888513
:103EE0008F7390E0A0E0B0E0BA2FA92F982F882719
:103EF0002985820F911DA11DB11DBA2FA92F982FC1
:103F00008827E80EF91E0A1F1B1F7AE0EE0CFF1C23
:103F1000001F111F7A95D1F706C08BE0F80181834D
:103F2000EE24FF248701B701C80160960FB6F8940C
:103F3000DEBF0FBECDBFCF91DF911F910F91FF90DC
:103F4000EF900895CF92DF92EF92FF920F931F931D
:103F5000CF93DF93EC017A018B0169018C8183306F
:103F600039F0B9E0EE0CFF1C001F111FBA95D1F714
:103F7000CE0161E1A80197010E949B1D882339F0C1
:103F800084E08983CE010E94EE1D80E006C0CE0150
:103F9000B60140E052E00E948E1EDF91CF911F914A
:103FA0000F91FF90EF90DF90CF900895BF92CF9246
:103FB000DF92EF92FF920F931F93CF93DF93EC0169
:103FC000B62E1C82198248830E9495326B0188812B
:103FD00061E00E943733888161E00E9476338AE095
:103FE00061E00E9476338AE061E00E9437338CE022
:103FF00060E00E9437338BE061E00E9437338DE050
:1040000061E00E9437338BE08A8382E58CBD1DBC62
:1040100080E09FEF9EBD0DB407FEFDCF8F5F8A301D
:10402000C9F709C00E9495326C197D09615D77401E
:1040300010F081E063C0CE0160E020E030E040E0BD
:1040400050E00E949B1D813069F71FEFCE0168E0B0
:104050002AEA31E040E050E00E949B1D853011F4D7
:1040600081E00DC080E01EBD0DB407FEFDCF9EB502
:104070008F5F8430C1F79B839A3A31F482E08C835E
:104080008C81823051F40DC00E9495326C197D09EB
:10409000615D7740D8F282E031C0EE24FF248701D1
:1040A0000FC0E12CF12C012D80E4182F09C00E94D3
:1040B00095326C197D09615D774010F08AE01EC071
:1040C000CE0167E320E030E040E050E00E949B1D1D
:1040D000CE0169E2A80197010E949B1D882339F750
:1040E0008C81823029F5CE016AE320E030E040E0A7
:1040F00050E00E949B1D882331F088E08983CE0127
:104100000E94EE1D21C08FEF8EBD0DB407FEFDCFC6
:104110008EB5807C803C11F483E08C8380E09FEF3F
:104120009EBD0DB407FEFDCF2EB58F5F8330C1F766
:10413000CE010E94EE1D8EE08B1518F488E1898374
:1041400003C0BA8281E001C080E0DF91CF911F916E
:104150000F91FF90EF90DF90CF90BF900895CF9395
:10416000DF93EB01DC0190E020E03EE28C918032B5
:1041700069F0283029F4FE01E90FF11D30839F5FBB
:10418000FE01E90FF11D8C9180839F5F2F5F1196D7
:104190002B3061F7C90FD11D1882DF91CF9108959F
:1041A0000F931F93CF93DF93DC01EB018A0180E033
:1041B00090E020E2FE01E80FF91F208301968B308A
:1041C0009105C1F757E040E024C0622F2E3219F06C
:1041D0008AEC98E007C05A3051F15AE048E018C024
:1041E000321729F1FC01019634913323C9F7541792
:1041F000F0F02132E0F02F37D0F4822F81568A314F
:1042000010F4622F6052FE01E40FF11D60834F5FD6
:1042100011962C91222311F02F32B9F6F801B183B7
:10422000A08390E08881803219F091E001C090E095
:10423000892FDF91CF911F910F910895CF92DF9237
:10424000EF92FF920F931F93DF93CF9300D000D094
:10425000CDB7DEB77C01FC018789908DA18DB28D31
:1042600089839A83AB83BC8300E010E06E010894DD
:10427000C11CD11C49815A816B817C81D701159663
:104280008D919C91169796010E942D2F882379F18C
:10429000D7011596ED91FC9116978481080F111D99
:1042A000B0E100301B0718F529813A814B815C8110
:1042B0008789803131F4285F3F4F40405040D0F231
:1042C00005C0285F3F4F4F4F5F40A0F2C801A0E0FC
:1042D000B0E029E0880F991FAA1FBB1F2A95D1F7CC
:1042E000F701838B948BA58BB68B81E001C080E0B6
:1042F0000F900F900F900F90CF91DF911F910F9122
:10430000FF90EF90DF90CF900895CF93DF93EC0173
:10431000FB018B818823D1F57E836D838789803172
:10432000C9F582E08B831F8A188E198E1A8E808DB4
:10433000918DA0E0B0E035E0880F991FAA1FBB1F48
:104340003A95D1F78B8B9C8BAD8BBE8B0FC083E0E6
:104350008B83828D938DA48DB58D8F8B988FA98F34
:10436000BA8FCE010E941E21882381F081E08983CB
:104370001F82188619861A861B861C861D861E8635
:104380001F86188A198A1A8A1C8201C080E0DF9170
:10439000CF9108958032D1F7DACF6F927F928F92CA
:1043A0009F92AF92BF92CF92DF92EF92FF920F93C4
:1043B0001F93CF93DF93EC017A018B012B81222392
:1043C00009F480C08B899C89AD89BE8984179507C3
:1043D000A607B70708F476C085C0E114F10401050B
:1043E000110551F41F82188619861A861B861C86B1
:1043F0001D861E8681E067C02B853C854D855E85C8
:10440000ED81FE81858590E0099621503040404045
:10441000504039014A01082E04C09694879477943D
:1044200067940A94D2F72F5F3F4F4F4F5F4F089426
:10443000E108F108010911095701680104C0D69487
:10444000C794B794A7948A95D2F70894E11CF11CFD
:10445000011D111DA614B704C804D90428F02115A4
:1044600031054105510549F48F89988DA98DBA8D83
:104470008F839887A987BA8716C0A618B708C80877
:10448000D90811C04F81588569857A858D819E81B3
:1044900094010E942D2F0894A108B108C108D108E9
:1044A000882331F40FC047E0842E912C8C0E9D1E82
:1044B000A114B104C104D10429F7EB86FC860D8751
:1044C0001E8798CF80E0DF91CF911F910F91FF90D1
:1044D000EF90DF90CF90BF90AF909F908F907F90A4
:1044E0006F900895223009F078CFE7CFCF93DF9314
:1044F000EC01462F6F85788989899A890E94042D5D
:10450000AC01009719F420E030E00AC08C81282F1C
:1045100030E065E0220F331F6A95E1F7240F351F65
:10452000C901DF91CF910895CF93DF93FC01EB0197
:104530008381882391F08250823020F48FE2888337
:10454000198209C0CF0160E00E947622009729F00D
:10455000BE010E94AF2081E001C080E0DF91CF91D9
:1045600008950F931F93CF93DF938C01FC018381F8
:104570008823F1F1818187FF38C0C80161E00E9482
:104580007622EC010097A1F18881853E89F1F8013E
:104590008381823040F483899489A589B6898C8F80
:1045A0009D8FAE8FBF8FF8018789908D9B8F8A8FEB
:1045B0008789908DA18DB28DCD01AA27BB279D8BB8
:1045C0008C8BE091D604F091D704309751F0BE0166
:1045D0006A5E7F4FCE0148960995888D998D9B8B99
:1045E0008A8BF80181818F7781830E94BB2C04C064
:1045F00081E0F801808380E0DF91CF911F910F91DE
:1046000008956F927F928F929F92AF92BF92CF92B6
:10461000DF92EF92FF920F931F93DF93CF9300D01F
:1046200000D0CDB7DEB77C015A016B01DC011396D7
:104630008C911397813009F091C011968C9181FF74
:104640008DC0A0C00097A105B10511F481E087C01D
:10465000F7016384748485849684C701B601A5013B
:104660000E94CD21882309F479C0D70115968D9138
:104670009C911697A114B104C104D10489F45796F2
:104680004D915D916D917C915A970E949C2F88234A
:1046900009F464C0F701178A108E118E128E44C07F
:1046A000D70117964D915D916D917C911A979E015E
:1046B0002F5F3F4F0E942D2F882309F44FC0D70151
:1046C0001596ED91FC91169749815A816B817C81F9
:1046D0008789803149F4483FBFEF5B07B0E06B0743
:1046E000B0E07B0748F020C0483F8FEF58078FEFBE
:1046F00068078FE07807C0F4CF010E949C2F8823C1
:1047000069F1D70117964D915D916D917C911A9742
:1047100015968D919C9116970FEF1FEF2FEF3FE0AD
:104720000E94BD2E8823D1F0F701A38AB48AC58ADE
:10473000D68A818180688183C7010E94B122882343
:1047400069F0B601A5016A147B048C049D0410F481
:10475000B401A301C7010E94CD2101C080E00F90E8
:104760000F900F900F90CF91DF911F910F91FF90BD
:10477000EF90DF90CF90BF90AF909F908F907F9001
:104780006F900895F70183899489A589B689841764
:104790009507A607B70708F055CFE0CF1F93CF9333
:1047A000DF93EC01142F262F30E0F90185E0EE0FA6
:1047B000FF1F8A95E1F7E852FB4F8385817121F055
:1047C000842F827109F064C08091D8069091D90637
:1047D000A091DA06B091DB068F87988BA98BBA8BF4
:1047E0006C83F901B5E0EE0FFF1FBA95E1F7E852CF
:1047F000FB4F2489358940E050E0A9013327222767
:104800002F8B388F498F5A8F828D938DA0E0B0E027
:10481000282B392B4A2B5B2B2F8B388F498F5A8FA4
:10482000838590E088719070009751F4848D958D08
:10483000A68DB78D8B8B9C8BAD8BBE8B81E008C01A
:10484000409731F5CE010E941E21882309F184E0B2
:104850008B83812F8F7089831F82188619861A8611
:104860001B861C861D861E8614FF18C0CE0140E0E4
:1048700050E060E070E00E940123882379F408C0D2
:104880004B895C896D897E89CE010E94CD2102C051
:104890001B8280E0DF91CF911F91089515FDF0CF2D
:1048A00081E0F8CF0F931F938C010E94B122F80191
:1048B00013821F910F910895CF93DF93EC0140E095
:1048C00050E060E070E00E940123882369F0CE018F
:1048D00061E00E947622FC01009731F085EE808332
:1048E0001B820E94BB2C01C080E0DF91CF91089514
:1048F0002F923F924F925F926F927F928F929F92F0
:10490000AF92BF92CF92DF92EF92FF920F931F93DD
:10491000DF93CF9300D0CDB7DEB74C011A01DC0195
:1049200013968C911397882309F4B4C011968C9137
:1049300080FFB0C0C7C015012E183F082B01F4013D
:104940003796FA83E98331019FC0D4011B962D91DC
:104950003D914D915C911E979FEFA92E91E0B92E4C
:10496000A222B3221596ED91FC91169779018A0146
:1049700089E016950795F794E7948A95D1F7948185
:1049800013968C91823049F4428D538D648D758DD0
:104990004E0D5F1D601F711F35C0D92EDA94DE20C9
:1049A000A114B10401F5DD20F1F421153105410513
:1049B000510551F4F4018789908DA18DB28D8783C3
:1049C0009087A187B2870FC0D40117964D915D9152
:1049D0006D917C911A97CF0129813A810E942D2FE8
:1049E000882309F457C0F401478150856185728599
:1049F000858196810E949B2CAB01BC014D0D511D00
:104A0000611D711DA114B10499F4F0E06F16F2E07C
:104A10007F0670F08091D8069091D906A091DA06B1
:104A2000B091DB06481759076A077B0709F067C092
:104A3000CB01BA0140E00E94042D009759F140E0FB
:104A400052E04A195B0983014615570508F48A01AB
:104A50009C012A0D3B1DC201B901A8010E940A0553
:104A6000400E511E980140E050E0F401838594858A
:104A7000A585B685820F931FA41FB51F83879487D2
:104A8000A587B687601A710A6114710409F05DCFB9
:104A9000A10102C04FEF5FEFCA010F900F90CF91BD
:104AA000DF911F910F91FF90EF90DF90CF90BF901B
:104AB000AF909F908F907F906F905F904F903F90BE
:104AC0002F900895D4015396AD90BD90CD90DC9079
:104AD00056971B96ED90FD900D911C911E979A0193
:104AE00040E050E0D601C5018E199F09A00BB10B23
:104AF000281739074A075B0708F01DCF1FCF8091A1
:104B0000E1069091E20692010E94A21F882311F211
:104B100000E012E0A5CFDF93CF930F92CDB7DEB7C1
:104B2000BE016F5F7F4F41E050E00E947824019703
:104B300019F02FEF3FEF03C08981282F30E0C90122
:104B40000F90CF91DF910895EF92FF920F931F93F3
:104B5000CF93DF93EC018B81823038F1EB84FC84BE
:104B60000D851E85CE010E948B2597FD1EC08B856D
:104B70009C85AD85BE854F96A11DB11D8B879C87F9
:104B8000AD87BE8755E016950795F794E7945A953B
:104B9000D1F72E2D30E02F70307045E0220F331FFB
:104BA0004A95E1F728523B4F02C020E030E0C901AE
:104BB000DF91CF911F910F91FF90EF900895CF93C8
:104BC000DF93EC018B81843071F5CE0140E050E041
:104BD00060E070E00E94CD2110C0CE010E94A425AB
:104BE000FC01009701F180818823A1F0853E29F026
:104BF0008E3219F0838583FF16C02B853C854D8549
:104C00005E858B899C89AD89BE89281739074A073B
:104C10005B0718F381E08B83898182608983CE01F1
:104C20000E945C2401C080E0DF91CF910895BF9283
:104C3000CF92DF92EF92FF920F931F93CF93DF9368
:104C40006C01EB01B42E6115710551F1FC018381FA
:104C5000882331F58D819E8196838583EB84FC8446
:104C60000D851E85CE010E94A425FC010097C1F090
:104C700080818823A9F0853E89F38E3279F365E03F
:104C800016950795F794E7946A95D1F76E2D6F7096
:104C9000838583FDE3CFC6014B2D0E94CE2301C047
:104CA00080E0DF91CF911F910F91FF90EF90DF9007
:104CB000CF90BF900895DF92EF92FF920F931F93D2
:104CC000CF93DF938C01EB017A01D22E8D819E81EF
:104CD000F801968385838381882329F56115710501
:104CE00059F521C0A70175E0440F551F7A95E1F7EA
:104CF00060E070E0CE010E94CD218823A1F0CE01BA
:104D00000E94A425FC01009771F08081882359F04E
:104D1000853E49F08E3239F06E2D6F70C8014D2DF1
:104D20000E94CE2301C080E0DF91CF911F910F91AF
:104D3000FF90EF90DF90089527FFD4CFF4CFAF928C
:104D4000BF92CF92DF92EF92FF920F931F93DF9368
:104D5000CF93CDB7DEB76B970FB6F894DEBF0FBE1B
:104D6000CDBF8C0119821C8240E050E060E070E011
:104D70000E94CD215E010894A11CB11C52C0C80143
:104D80000E94A425FC01009709F466C08081882355
:104D900009F456C0853E09F444C08E3209F441C07E
:104DA000838583FD3EC0A7019601F5E056954795A2
:104DB00037952795FA95D1F77901C501B801A90171
:104DC00021E00E945B26882309F446C08C81843050
:104DD00021F4C5010E949F2606C08A8182608A83D1
:104DE000C5010E945C248823B9F10894E11CF11CE0
:104DF000A70160E070E0E5E0440F551F661F771FD4
:104E0000EA95D1F7F80183859485A585B685841741
:104E10009507A607B70729F0C8010E94CD2188236E
:104E2000D9F0F801C384D484E584F6848389948915
:104E3000A589B689C816D906EA06FB0608F49FCFED
:104E4000F80183818250823028F0C8010E94DF255A
:104E5000882319F081E001C080E06B960FB6F894CA
:104E6000DEBF0FBECDBFCF91DF911F910F91FF909D
:104E7000EF90DF90CF90BF90AF900895CF93DF93E6
:104E8000EC019C01295F3F4F8D819E8141E050E004
:104E900060E070E00E94FA2F8823A1F08F89988D3E
:104EA000A98DBA8D0097A105B10559F48F81988518
:104EB000A985BA858F8B988FA98FBA8F89818068D1
:104EC000898381E0DF91CF9108952F923F924F9295
:104ED0005F926F927F929F92AF92BF92CF92DF923A
:104EE000EF92FF920F931F93DF93CF9300D000D0E8
:104EF000CDB7DEB76C01162F072F1A01DC01139610
:104F00008C911397813009F046C111968C9181FFE5
:104F100042C15DC1F60143895489658976898385DB
:104F20009485A585B68584179507A607B70731F040
:104F3000C6010E94CD21882309F42DC1812F902F15
:104F40009C0129013101EDC0D6011596ED91FC912E
:104F50001697DA01C90169E0B695A79597958795E7
:104F60006A95D1F794809A9498225FEFA52E51E02C
:104F7000B52EA222B322992009F052C0A114B10487
:104F800009F04EC0D60117964D915D916D917C91BF
:104F90001A97411551056105710571F1CF019E0107
:104FA0002F5F3F4F0E942D2F882309F4F4C02981E1
:104FB0003A814B815C81D6011596ED91FC91169753
:104FC0008789803149F4283FBFEF3B07B0E04B07AA
:104FD000B0E05B0748F019C0283FEFEF3E07EFEF66
:104FE0004E07EFE05E0788F4D60117962D933D93A8
:104FF0004D935C931A9714C0F6018789908DA18D0B
:10500000B28D0097A105B10531F4C6010E943E277B
:10501000882331F4C0C0F60187839087A187B287C7
:10502000D60117964D915D916D917C911A971596C9
:105030008D919C9116970E949B2C7B018C01E90C11
:10504000F11C011D111DA114B104A9F4B0E06B16EF
:10505000B2E07B06A8F5F6012385348545855685A3
:1050600083899489A589B689281739074A075B0778
:1050700010F045E001C041E0C801B7010E94042DD5
:10508000009709F488C040E052E04A195B098301A7
:105090004615570508F48A019C012A0D3B1DC901DC
:1050A000B201A8010E940A05A00EB11EF0E0AF16E1
:1050B000F2E0BF0611F50E94012D8823F1F46BC0C8
:1050C0008091D8069091D906A091DA06B091DB06BE
:1050D0008E159F05A007B10711F40E948C2C8091BA
:1050E000E1069091E206B801A70192010E94381EE4
:1050F000882309F450C000E012E0980140E050E03D
:10510000F60183859485A585B685820F931FA41F1C
:10511000B51F83879487A587B687400E511E601AF6
:10512000710AD6011B962D913D914D915C911E9770
:105130006114710409F008CF53968D919D910D90E3
:10514000BC91A02D82179307A407B50748F4F60178
:10515000238B348B458B568B81818068818310C073
:105160008091D6049091D704892B51F021143104F9
:1051700039F0D60111968C911197806811968C9315
:10518000F601818183FF05C0C6010E94B1228823F8
:1051900011F0A10105C081E0D6018C934FEF5FEFC4
:1051A000CA010F900F900F900F90CF91DF911F9138
:1051B0000F91FF90EF90DF90CF90BF90AF909F90B6
:1051C0007F906F905F904F903F902F90089582FD59
:1051D000A1CEB4CE9F92AF92BF92CF92DF92EF92C8
:1051E000FF920F931F93CF93DF938C01FC01838970
:1051F0009489A589B689805E9F4FAF41B04008F081
:105200005CC0C8010E943E27882309F456C0D8011B
:1052100017964D915D916D917C911A9715968D9190
:105220009C9116970E949B2C5B016C0145E00E94AB
:10523000042DEC01009709F442C080E092E0FE01E9
:105240009C01119221503040E1F79C2EED2EFF245D
:10525000F39411C0B601A5014F0D511D611D711DC3
:105260008091E1069091E206292D3E2D0E94381E84
:10527000882319F1F394D8011596ED91FC911697B6
:105280002481F21638F330E040E050E079E0220F5C
:10529000331F441F551F7A95D1F753968D919D91D9
:1052A0000D90BC91A02D820F931FA41FB51FF80174
:1052B000838B948BA58BB68B02C0C0E0D0E0CE016F
:1052C000DF91CF911F910F91FF90EF90DF90CF90E2
:1052D000BF90AF909F9008958F929F92AF92BF9290
:1052E000CF92DF92EF92FF920F931F93CF93DF93B2
:1052F0006C01EB01942E852EA22E8D819E81F601EC
:1053000096838583CB0140E050E060E070E00E942E
:10531000CD21BB2434C0CE010E94A425FC010097FE
:1053200009F48EC0A5E016950795F794E794AA9521
:10533000D1F71E2D1F702081222311F0253EA9F4E4
:10534000BB2081F48091D8069091D906A091DA060D
:10535000B091DB06F6018787908BA18BB28B14830B
:10536000BB24B394222359F418C0892D982DBF0172
:105370004BE050E00E94FD04009709F46FC0EB84FD
:10538000FC840D851E858B899C89AD89BE89E816B4
:10539000F9060A071B0708F4BECFA6FE51C0A1FEFE
:1053A0004FC0BB2051F0F6011481C60161E00E949C
:1053B0007622EC01009761F443C08B81823009F4BE
:1053C0003FC0CE010E94EA280097D1F1EC0110E025
:1053D00080E2FE0111928A95E9F7DE01292D382D30
:1053E000C901FC018BE001900D928150E1F7E09141
:1053F000D604F091D704309739F0BE01625F7F4F39
:10540000CE014096099508C081E298E2998B888B7D
:1054100080E098E09F878E87888999899B8B8A8B0B
:10542000998F888F8E859F859F8B8E8B0E94BB2C3A
:10543000882331F0C601612F4A2D0E94CE2301C07E
:1054400080E0DF91CF911F910F91FF90EF90DF905F
:10545000CF90BF90AF909F908F900895A7FEEACF16
:10546000EFCF2F923F924F925F926F927F928F92E7
:105470009F92AF92BF92CF92DF92EF92FF920F93E3
:105480001F93DF93CF93CDB7DEB7C654D0400FB68E
:10549000F894DEBF0FBECDBF3C016B01DE01AE5BF9
:1054A000BF4F11965C934E9325962FAF25976115AC
:1054B000710509F483C01F861AA6FC018381882325
:1054C00009F07CC01C861FA2FA0180818F32F1F0A6
:1054D00086019CE0E92EF12CEC0EFD1E82E4A82E44
:1054E000B12CAC0EBD1E4E010894811C911C279658
:1054F000FFAEEEAE2797B7E22B2E312C2C0E3D1EC1
:10550000270124C01196B183A08301C0FD01A081B1
:10551000B1818C918F32B1F3D60113968C91139790
:1055200082508230A8F28E01095D1F4F15966D9151
:105530007C911697C8010E948521882351F63EC0B0
:10554000342D252D8701832F922F7C01F501808139
:105550009181B401A5010E94D020882329F42EC096
:105560003196D501ED93FC93D501ED91FC918081AD
:105570008F32B1F38823C9F0C701B801A40121E03B
:105580000E946C298823D1F00C151D0519F0C80163
:105590000E9452242796EEADFFAD2797EE16FF0628
:1055A00079F6C101322D292FCDCFC301B801A40155
:1055B00025962FAD25970E946C2901C080E0CA5B1B
:1055C000DF4F0FB6F894DEBF0FBECDBFCF91DF9196
:1055D0001F910F91FF90EF90DF90CF90BF90AF9011
:1055E0009F908F907F906F905F904F903F902F9003
:1055F0000895EF92FF920F931F93DF93CF93CDB750
:10560000DEB7A0970FB6F894DEBF0FBECDBF8C01FA
:105610007B01FB018381823008F471C0C80123EC57
:105620000E946C29882309F46AC081E0F801818313
:1056300084E08383C8010E94EA28892B09F45FC0B3
:10564000C8010E94B122882309F459C0C80161E051
:105650000E947622FC01009709F451C080E1838703
:10566000DE01119680E201900D928150E1F78EE209
:105670008983FE01329620E2CE010C962193E81731
:10568000F907E1F7F8014789508D618D728D8581A9
:1056900096810E949B2C41E00E94042D9C01009762
:1056A00071F1DC01FE01319680E201900D92815092
:1056B000E1F78EE28A83F70183818250823028F4F9
:1056C0001C8E1B8E1E8A1D8A0EC0F7018789908D45
:1056D0009C8F8B8F8789908DA18DB28DCD01AA274C
:1056E000BB279E8B8D8BD9019096FE01319680E26F
:1056F00001900D928150E1F70E94BB2C01C080E027
:10570000A0960FB6F894DEBF0FBECDBFCF91DF914C
:105710001F910F91FF90EF9008952F923F924F921B
:105720005F926F927F928F929F92AF92BF92CF9231
:10573000DF92EF92FF920F931F93DF93CF93CDB73A
:10574000DEB7C654D0400FB6F894DEBF0FBECDBF53
:105750003C016B01DE01AE5BBF4F11965C934E9333
:1057600025962FAF25976115710509F487C01F860F
:105770001AA6FC018381882309F080C09AC08601A3
:105780007CE0E72EF12CEC0EFD1E62E4A62EB12C7F
:10579000AC0EBD1E4E010894811C911C2796FFAED5
:1057A000EEAE279757E2252E312C2C0E3D1E2701F9
:1057B00024C01196B183A08301C0FD01A081B181F5
:1057C0008C918F32B1F3D60113968C91139782503E
:1057D0008230A8F28E01095D1F4F15966D917C9164
:1057E0001697C8010E948521882351F647C0342DA1
:1057F000252D8701832F922F7C01F50180819181D6
:10580000B401A5010E94D020882329F437C0319625
:10581000D501ED93FC93D501ED91FC9180818F3200
:10582000B1F3882329F1C701B801A40121E00E9446
:105830006C29882361F42596BFAD2597BB23F1F031
:10584000C701B801A4010E94F92A8823B9F00C15F8
:105850001D0519F0C8010E9452242796EEADFFAD38
:105860002797EE16FF0619F6C101322D292FC1CF59
:10587000C301B801A4010E94F92A01C080E0CA5BFB
:10588000DF4F0FB6F894DEBF0FBECDBFCF91DF91D3
:105890001F910F91FF90EF90DF90CF90BF90AF904E
:1058A0009F908F907F906F905F904F903F902F9040
:1058B00008951C861FA2ED91FC91119780818F3273
:1058C00009F05DCF7ACFDB010D900020E9F7119749
:1058D000A61BB70B0496AD010E9465270895DF93C0
:1058E000CF930F92CDB7DEB769830496BE016F5F89
:1058F0007F4F41E050E00E94652720E030E00197B3
:1059000011F421E030E0C9010F90CF91DF910895AB
:1059100004960E94652708958FEF9FEFAFEFBFEFCA
:105920008093D8069093D906A093DA06B093DB064D
:105930001092DC0608950F931F938C01CB01BA01DE
:105940006250704080409040F801248130E040E097
:1059500050E00E9415369B01AC01F80186859785C1
:10596000A089B189280F391F4A1F5B1FB901CA01DD
:105970001F910F9108958091DC0680FF3EC04091F9
:10598000D8065091D9066091DA067091DB068091B5
:10599000E1069091E20628ED34E00E94381E88234B
:1059A00071F18091DC0681FF23C04091DD065091AA
:1059B000DE066091DF067091E00641155105610534
:1059C0007105B1F08091D8069091D906A091DA06C0
:1059D000B091DB06480F591F6A1F7B1F8091E106BB
:1059E0009091E20628ED34E00E94381E882339F0B9
:1059F0008091DC068E7F8093DC0681E0089580E054
:105A000008950E94BB2C0895DF92EF92FF920F93AE
:105A10001F937B018C01D42E8091D8069091D906DA
:105A2000A091DA06B091DB068E159F05A007B1079D
:105A3000E1F00E94BB2C882311F1D2FC0CC08091B4
:105A4000E1069091E206B801A70128ED34E00E943A
:105A5000A21F8823A1F01092DC06E092D806F092F3
:105A6000D9060093DA061093DB0683E0D8228091F2
:105A7000DC068D298093DC0628ED34E002C020E0AE
:105A800030E0C9011F910F91FF90EF90DF900895D2
:105A90006F927F928F929F92AF92BF92CF92DF923E
:105AA000EF92FF920F931F93CF93DF935C01142F1C
:105AB0007093E2066093E106DC0157961C9282E047
:105AC00090E0A0E0B0E0F50180839183A283B383EE
:105AD0001092DC068FEF9FEFAFEFBFEF8093D806F9
