:100000000C949E040C94C6040C94C6040C94C60470
:100010000C94C6040C94C6040C94C6040C94C60438
:100020000C94C6040C94C6040C94C6040C94C60428
:100030000C94C6040C94C6040C94C6040C94C60418
:100040000C94BA330C94C6040C94D6320C941C3322
:100050000C94C6040C94C6040C94C6040C94C604F8
:100060000C94C6040C94C60452656D6F76652066C8
:1000700061696C65643A200045786974696E67004F
:100080000A0D4E756D626572206F6620657363613F
:1000900070652063686172616374657273206E6558
:1000A000656465643A20000A0D456E746572206EC1
:1000B000756D626572206F6620657363617065207F
:1000C0006368617261637465727320746F206C6F12
:1000D0006F6B20666F7220283020746F20323534A9
:1000E000293A20000A0D4E657720657363617065BB
:1000F000206368617261637465723A2000456E74B2
:1001000065722061206E657720657363617065207C
:100110006368617261637465723A20004E6577208E
:1001200066696C65206E756D6265722072657365B7
:100130007420746F207A65726F00436F6D6D616E0D
:10014000642070726F6D707400417070656E642011
:1001500066696C65206C6F6767696E67004E6577CE
:100160002066696C65206C6F6767696E67003E008A
:1001700078292045786974003629204E756D6265AE
:1001800072206F66206573636170652063686172B9
:10019000616374657273003529204E65772065733D
:1001A00063617065206368617261637465720034B5
:1001B00029205265736574206E65772066696C65C9
:1001C000206E756D62657200332920436F6D6D611D
:1001D0006E642070726F6D707400322920417070EF
:1001E000656E642066696C65206C6F6767696E6711
:1001F000003129204E65772066696C65206C6F6739
:1002000067696E67004368616E676520746F3A00C6
:100210002078200043757272656E74206573636187
:1002200070652063686172616374657220616E64D9
:1002300020616D6F756E743A2000436F6D6D616E55
:100240006400417070656E642066696C65004E657F
:10025000772066696C650043757272656E74206202
:100260006F6F74206D6F64653A20000D0A537973C7
:1002700074656D20436F6E66696775726174696F2E
:100280006E0062707300476F696E6720746F2000A4
:100290004F7574206F6620626F756E6473004578C9
:1002A0006974696E67003E00456E746572206E6504
:1002B0007720626175642072617465202827782731
:1002C00020746F2065786974293A00206270730089
:1002D0000A0D43757272656E7420726174653A20FE
:1002E00000626175640909093A204D656E752074D4
:1002F0006F20636F6E6669677572652062617564F1
:100300002072617465007365740909093A204D65AE
:100310006E7520746F20636F6E66696775726520F5
:1003200073797374656D206D6F64650072657365B4
:10033000740909093A2043617573657320756E6904
:100340007420746F2072657365742C2075736573E7
:1003500020706172616D657465727320696E2063CF
:100360006F6E6669672066696C65006469736B0906
:1003700009093A2053686F777320636172642069BA
:100380006E666F726D6174696F6E0073697A652055
:100390003C66696C653E09093A20577269746520AC
:1003A00073697A65206F66203C66696C653E2074CF
:1003B0006F207465726D696E616C00726561642096
:1003C0003C66696C653E203C73746172743E203CEF
:1003D0006C656E6774683E203C747970653E3A20A7
:1003E0004F757470757473203C6C656E6774683EED
:1003F000206279746573206F66203C66696C653E87
:1004000020746F20746865207465726D696E616C0C
:10041000207374617274696E67206174203C737418
:100420006172743E2E204F6D6974203C737461724A
:10043000743E20616E64203C6C656E6774683E207B
:10044000746F20726561642077686F6C65206669DF
:100450006C652E203C747970653E20312070726985
:100460006E747320696E2041534349492C20322019
:10047000696E204845582E006C730909093A2053CB
:10048000686F77732074686520636F6E74656E742F
:10049000206F66207468652063757272656E7420C3
:1004A0006469726563746F72792E2E006D64203CEE
:1004B0006469726563746F72793E09093A20437208
:1004C00065617465732061203C6469726563746F53
:1004D00072793E00617070656E64203C66696C657F
:1004E0003E09093A20417070656E64732074657826
:1004F0007420746F20656E64206F66203C66696CA2
:10050000653E006E6577203C66696C653E09093A78
:100510002043726561746573203C66696C653E00BA
:10052000426173696320636F6D6D616E64733A003D
:100530004F70656E4C6F672076332E33006469729E
:100540006563746F7279206E6F7420666F756E6468
:100550003A200063616E6E6F7420636420746F20B4
:10056000706172656E74206469726563746F72790C
:100570003A20002E2E002000756E6B6E6F776E2075
:10058000636F6D6D616E643A20006F6666006F6E1A
:100590000065656D006F6666006F6E00766572625D
:1005A0006F7365006F6666006F6E006563686F004D
:1005B0005C002E5C0070776400617070656E640092
:1005C0004572726F72206372656174696E6720662E
:1005D000696C653A20006E6577007265736574001A
:1005E00073796E6300204B4200436172642053694B
:1005F0007A653A20007265616443534420666169FC
:100600006C6564002F004D616E7566616374757270
:10061000696E6720646174653A2000536572696190
:100620006C206E756D6265723A20002E000A0D56C0
:10063000657273696F6E3A200050726F64756374EF
:100640003A20004F454D2049443A20004D616E75D7
:1006500066616374757265722049443A2000726560
:100660006164434944206661696C656400556E6B42
:100670006E6F776E00534448430053443200534436
:1006800031000A4361726420747970653A20006415
:1006900069736B002D310073697A65006572726F42
:1006A000722077726974696E6720746F2066696C56
:1006B000650A0D003C004572726F72207365656BB0
:1006C000696E6720746F20004661696C65642074F0
:1006D0006F206F70656E2066696C652000777269A7
:1006E00074650020002E004572726F72207365657C
:1006F0006B696E6720746F20004661696C656420C9
:10070000746F206F70656E2066696C65200072657D
:100710006164006364002066696C65287329206445
:10072000656C65746564002D726600726D0065729B
:10073000726F72206372656174696E67206469729A
:100740006563746F72793A20006D6400566F6C7542
:100750006D6520697320464154006C7300736574A5
:1007600000626175640068656C70003F0046696CEA
:10077000652073797374656D20696E697469616C45
:10078000697A656400436C6F73696E6720646F7784
:100790006E2066696C652073797374656D00696E8F
:1007A0006974003E002100626175642C65736361A9
:1007B00070652C657363232C6D6F64652C76657290
:1007C000622C6563686F2C69676E6F7265525800A2
:1007D000006572726F722077726974696E67207437
:1007E0006F2066696C6500256C642C25642C25647B
:1007F0002C25642C25642C25642C25640000437270
:100800006561746520636F6E666967206661696CF7
:1008100065640052656D6F766520636F6E6669670B
:10082000206661696C656400636F6E6669672E742B
:10083000787400636F6E6669672E747874007E004A
:100840003C004572726F72206372656174696E67F5
:10085000205345514C4F470A005345514C4F4730A8
:10086000302E5458540021546F6F206D616E7920E2
:100870006C6F67733A3221004C4F47253035642E38
:100880005458540021546F6F206D616E79206C6F45
:1008900067733A3121003200310066696C652E6F52
:1008A00070656E00726F6F742E696E697400766F7A
:1008B0006C756D652E696E697400636172642E6972
:1008C0006E6974004572726F7220007C3C3E5E2B34
:1008D0003D3F2F5B5D3B2C2A225C00000000002482
:1008E0000027002A0000000000250028002B00003F
:1008F000000000230026002900040404040404046A
:1009000004020202020202030303030303010204BE
:100910000810204080010204081020010204081081
:100920002000000007000201000003040600000090
:1009300000000000000041098E2D3A0911241FBE5D
:10094000CFEFD8E0DEBFCDBF11E0A0E0B1E0EAE13B
:10095000F0E702C005900D92A432B107D9F716E076
:10096000A4E2B1E001C01D92A03EB107E1F719E099
:10097000CAE3D9E004C02297FE010E94C537C633FE
:10098000D107C9F70E948A350C9400380C940000F6
:10099000FC0188279927E89421912032E9F3293036
:1009A00010F02E30C8F32B3241F02D3239F4689418
:1009B00004C00E943505820F911D219120532A30D9
:1009C000C0F31EF4909581959F4F0895FB01DC01C3
:1009D0008D91059080190110D9F3990B0895FB01B1
:1009E000DC0105900D920020E1F70895FC010590CF
:1009F0000020E9F7809590958E0F9F1F0895FB01C9
:100A0000DC0104C08D910190801921F441505040C7
:100A1000C8F7881B990B0895FB01DC0102C0019007
:100A20000D9241505040D8F70895DC0101C06D93FC
:100A300041505040E0F70895FB01DC014150504027
:100A400048F001900D920020C9F701C01D9241505D
:100A50005040E0F70895DC016C9161566A3108F06E
:100A6000605E6F5B6D93C1F708957AE0979F902D5C
:100A7000879F802D910D11240895AEE0B0E0E3E44E
:100A8000F5E00C94D7370D891E898EE08C831A838C
:100A900009838FEF9FE79E838D839E01275E3F4FE3
:100AA000CE0101966F89788DA9010E9461052F8181
:100AB0003885020F131FF80110822E96E4E00C9483
:100AC000F337ABE0B0E0E7E6F5E00C94C9373C0162
:100AD0002B015A01FC0117821682838181FD03C01C
:100AE0006FEF7FEFC6C19AE0892E1E010894211C8A
:100AF000311CF3012381F20123FD859123FF8191B4
:100B00002F01882309F4B2C1853239F423FD859180
:100B100023FF81912F01853229F490E0B3010E94D7
:100B20005407E7CF982FFF24EE249924FFE1FF1507
:100B3000D0F09B3269F09C3228F4903259F0933215
:100B400091F40EC09D3249F0903369F441E024C025
:100B500052E0F52A84E0F82A28C098E0F92A25C056
:100B6000E0E1FE2A22C0F7FC29C0892F80538A3099
:100B700070F4F6FE05C0989C902C1124980E15C0B8
:100B8000E89CE02C1124E80EF0E2FF2A0EC09E3211
:100B900029F4F6FC6BC140E4F42A07C09C3619F432
:100BA00050E8F52A02C0983649F4F20123FD9591E8
:100BB00023FF91912F01992309F0B8CF892F8554F4
:100BC000833018F08052833038F444E050E0A40EB3
:100BD000B51E5FE359830FC0933631F0933779F038
:100BE000933509F056C020C0F5018081898342E029
:100BF00050E0A40EB51E610101E010E012C0F50145
:100C0000C080D180F6FC03C06FEF7FEF02C0692D7A
:100C100070E042E050E0A40EB51EC6010E944907F4
:100C20008C015FE7F52214C0F501C080D180F6FC8D
:100C300003C06FEF7FEF02C0692D70E042E050E02B
:100C4000A40EB51EC6010E943E078C0150E8F52A8D
:100C5000F3FE07C01AC080E290E0B3010E9454077F
:100C6000EA948E2D90E008171907A8F30EC0F6013C
:100C7000F7FC8591F7FE81916F0190E0B3010E942E
:100C80005407E110EA94015010400115110579F75D
:100C9000EAC0943611F0993669F5F7FE08C0F501FF
:100CA000208131814281538184E090E00AC0F501C6
:100CB000808191819C01442737FD4095542F82E02B
:100CC00090E0A80EB91E9FE6F92257FF09C0509583
:100CD0004095309521953F4F4F4F5F4FE0E8FE2AFA
:100CE000CA01B901A1012AE030E00E948007D82E94
:100CF000D21840C0953729F41F2D1F7E2AE030E01E
:100D00001DC01F2D197F9F3661F0903720F4983554
:100D100009F0ACC00FC0903739F0983709F0A6C081
:100D200004C028E030E00AC0106114FD146020E126
:100D300030E004C014FD166020E132E017FF08C067
:100D4000F501608171818281938144E050E008C0A7
:100D5000F50180819181BC0180E090E042E050E0AB
:100D6000A40EB51EA1010E948007D82ED2188FE7CD
:100D7000F82EF122F6FE0BC05EEFF522D91438F4FE
:100D8000F4FE07C0F2FC05C08FEEF82202C01D2D54
:100D900001C0192DF4FE0DC0FE01ED0DF11D808185
:100DA000803319F499EEF92208C01F5FF2FE05C0E6
:100DB00003C08F2D867809F01F5F0F2DF3FC14C040
:100DC000F0FE0FC01E1510F09D2C0BC09D2C9E0C2C
:100DD000911A1E2D06C080E290E0B3010E945407D4
:100DE0001F5F1E15C0F304C01E1510F4E11A01C0E8
:100DF000EE2404FF0FC080E390E0B3010E9454078B
:100E000002FF1DC001FD03C088E790E00EC088E529
:100E100090E00BC0802F867891F001FF02C08BE23A
:100E200001C080E2F7FC8DE290E0B3010E9454071C
:100E300006C080E390E0B3010E9454079A94D9144D
:100E4000C0F3DA94F101ED0DF11D808190E0B30162
:100E50000E945407DD20A9F706C080E290E0B301AC
:100E60000E945407EA94EE20C1F743CEF301668155
:100E70007781CB012B96E2E10C94E537FC010590DC
:100E8000615070400110D8F7809590958E0F9F1F8C
:100E90000895FC016150704001900110D8F78095D1
:100EA00090958E0F9F1F08950F931F93CF93DF93FD
:100EB0008C01EB018B8181FF1BC082FF0DC02E8155
:100EC0003F818C819D812817390764F4E881F9817D
:100ED0000193F983E88306C0E885F985802F099599
:100EE000892B31F48E819F8101969F838E8302C06E
:100EF0000FEF1FEFC801DF91CF911F910F91089560
:100F0000FA01AA27283051F1203181F1E8946F933A
:100F10006E7F6E5F7F4F8F4F9F4FAF4FB1E03ED0E0
:100F2000B4E03CD0670F781F891F9A1FA11D680F7E
:100F3000791F8A1F911DA11D6A0F711D811D911DB1
:100F4000A11D20D009F468943F912AE0269F112426
:100F50003019305D3193DEF6CF010895462F47708A
:100F6000405D4193B3E00FD0C9F7F6CF462F4F70E5
:100F7000405D4A3318F0495D31FD4052419302D043
:100F8000A9F7EACFB4E0A6959795879577956795E9
:100F9000BA95C9F700976105710508959B01AC01E9
:100FA0000A2E06945795479537952795BA95C9F710
:100FB000620F731F841F951FA01D0895FC01DB01A4
:100FC00008C0891721F08F3311F080E00895319621
:100FD00011969C919923F1F080818A3291F71AC081
:100FE00080818A3259F431968081882311F481E01E
:100FF00008959D012F5F3F4FAF0110C0891711F079
:101000008F3319F43196119609C0FA01D9012F5F77
:101010003F4F04C020E030E040E050E09C91992335
:10102000F9F601C0319690819A32E1F380E099237C
:1010300009F481E00895EF92FF920F931F937A01D4
:101040008B011092C1002E732093C200403081EEBC
:10105000580780E0680780E0780729F41092C00004
:1010600020E130E013C082E08093C00060E079E0CE
:101070008DE390E0A80197010E94A13721503040F4
:101080004040504056954795379527953093C50079
:101090002093C40088E98093C1001F910F91FF90B5
:1010A000EF9008958091C00085FFFCCF6093C6004B
:1010B00081E090E008950F931F938C01DC01ED9186
:1010C000FC910190F081E02D6DE00995D801ED9142
:1010D000FC910190F081E02DC8016AE0099582E061
:1010E00090E01F910F910895CF92DF92EF92FF92BF
:1010F0000F931F93CF93DF937C016B018A01C0E0B4
:10110000D0E00EC0F601EC0FFD1F4491F701A08165
:10111000B1812D913C91C701642FF9010995219668
:10112000C017D10778F3C801DF91CF911F910F91BC
:10113000FF90EF90DF90CF900895CF92DF92EF92E3
:10114000FF920F931F93CF93DF937C016B018A0172
:10115000C0E0D0E00DC0D701ED91FC91D601AC0FFD
:10116000BD1F0190F081E02DC7016C91099521967A
:10117000C017D10780F3C801DF91CF911F910F9164
:10118000FF90EF90DF90CF900895089586EC96E061
:101190000E94BF320895DF93CF930F92CDB7DEB791
:1011A00086EC96E0BE016F5F7F4F0E9488328823F5
:1011B00019F42FEF3FEF03C08981282F30E0C901D8
:1011C0000F90CF91DF91089586EC96E00E947632E1
:1011D0000895FC0180E291E09183808387818823D8
:1011E00021F0CF0104960E94472308958130910594
:1011F000B9F56F5F7F4FE9F5109227011092260134
:1012000088EE93E0A0E0B0E080932801909329015C
:10121000A0932A01B0932B0188E091E090932501DF
:101220008093240186EC96E060E371E04FEE52E09B
:101230000E94B33289E180933B0410923E041092E5
:10124000560410926104109264041092600410928B
:101250005F0480E291E090935E0480935D040895C2
:10126000892B39F46F5F7F4F21F48DE594E00E9464
:10127000E908089580E090E06FEF7FEF0E94F608A4
:10128000089581E090E06FEF7FEF0E94F6080895E7
:101290006F927F928F929F92AF92BF92CF92DF9286
:1012A000EF92FF920F931F93DF93CF93CDB7DEB7EB
:1012B000AC970FB6F894DEBF0FBECDBF7C015B01CB
:1012C000642E722E1A8A1D8A198A188A80E291E089
:1012D0009F878E8774E0C72ED12CCE0CDF1C8E0129
:1012E0000E5E1F4F4E010894811C911C17C0C8014F
:1012F000B4010E945923882371F08D89823008F04F
:1013000074C0813041F4C501B4010E94DE07882316
:1013100011F001E06BC0C8010E944723E114F10401
:1013200019F460E070E001C0B601C80141E00E941C
:10133000CC268823E1F600E03EC084E291E060E242
:101340000E9452081F5F1715C0F384E291E0BE01AE
:101350006F5F7F4F0E946C37182F8D89843031F476
:1013600084E291E06FE20E945208180F8D8981306B
:10137000D1F461FE18C006C084E291E060E20E94F0
:1013800052081F5F1E30C0F384E291E060E20E94C9
:1013900052084BA15CA16DA17EA184E291E02AE0FC
:1013A00030E00E94BA3684E291E00E945B08CE01F0
:1013B00042960E944723CE010E960E94E908802F94
:1013C000AC960FB6F894DEBF0FBECDBFCF91DF91C4
:1013D0001F910F91FF90EF90DF90CF90BF90AF9053
:1013E0009F908F907F906F90089502E010E0ABCFB8
:1013F0003F924F925F926F927F928F929F92AF92A5
:10140000BF92CF92DF92EF92FF920F931F93DF93E1
:10141000CF93CDB7DEB76F970FB6F894DEBF0FBE90
:10142000CDBF8C014B01D42EC22E1D8218861C828A
:101430001B8280E291E09A838983B4E0AB2EB12CC9
:10144000A00EB11EC50140E050E060E070E00E94D7
:101450002F22ED2CFF2484E0E822FF24A5E06A2E51
:10146000712C6C0E7D1EF2E03F2E3C0C2E01089478
:10147000411C511C38C08230B1F5E114F10499F1DE
:101480008091A404823078F5F80184859585A6853D
:10149000B7850115110511F0B50102C060E070E0DB
:1014A000E5E0B695A79597958795EA95D1F7AC01B4
:1014B00041505040C30121E00E941027882399F039
:1014C0008091A4048F5F8093A404C201B4014D2DC8
:1014D000232D0E94F8098091A40481508093A404D4
:1014E000C3010E944723C801B4014D2D2C2D0E9439
:1014F0004809882309F0BFCFCE0101960E94E90870
:101500006F960FB6F894DEBF0FBECDBFCF91DF91BF
:101510001F910F91FF90EF90DF90CF90BF90AF9011
:101520009F908F907F906F905F904F903F90089525
:10153000CF93DF93EC018FE0E5EAF4E0DF011D9249
:101540008A95E9F750E041E0A62FB0E039C0242F9A
:1015500030E0FE01E20FF31F8081803229F02F5F1F
:101560003F4F2A173B0759F5842F90E001968A17C1
:101570009B0709F4462FE5EAF4E020E080819181A1
:10158000892B19F0828181112F5F339684E0E43B2F
:10159000F807A1F7253088F4822F90E0FC01EE0FC8
:1015A000FF1FE80FF91FEB55FB4FCE01850F911D73
:1015B00091838083842F851B82834F5F542F4F5FDD
:1015C000461728F2E5EAF4E020E080819181892B3A
:1015D00019F0828181112F5F3396A4E0E43BFA0772
:1015E000A1F7822FDF91CF910895982F8EE1E6E841
:1015F000F4E0DF011D928A95E9F79530E8F4892F30
:1016000090E0FC01EE0FFF1FE80FF91FEB55FB4FB9
:10161000608171816115710579F04281442361F027
:101620004F3118F04EE150E001C050E086E894E000
:101630000E941C059C0102C020E030E0C901089511
:101640008F929F92AF92BF92CF92DF92EF92FF92D2
:101650000F931F9366ED862E66E0962EC40169E017
:1016600070E00E94A733A82EC4016AE070E00E94D7
:10167000A733E82EC4016BE070E00E94A733FF247B
:1016800000E010E0102F0F2DFE2CEE2490E0A0E0E3
:10169000B0E0E82AF92A0A2B1B2BBB24CC24DD243A
:1016A0006501BB24AA24EA28FB280C291D29B701BF
:1016B000C8011F910F91FF90EF90DF90CF90BF90E6
:1016C000AF909F908F9008950F931F9304E211E0C5
:1016D000C80160E375E00E940E36C80160E275E063
:1016E0000E940E36C80163E075E00E940E36C80104
:1016F00064ED74E00E940E36C8016CEA74E00E944A
:101700000E36C80168E774E00E940E36C8016BEB24
:1017100073E00E940E36C8016BE873E00E940E363B
:10172000C8016BE673E00E940E36C8016CE273E0FC
:101730000E940E36C80166E073E00E940E36C801B2
:1017400061EE72E00E940E361F910F910895CF92C4
:10175000DF92EF92FF920F931F937B018C01E6EDD6
:10176000CE2EE6E0DE2EC60169E070E0402F0E943A
:10177000AE33552717FD5A95412F302F2F2DC60117
:101780006AE070E0422F0E94AE33C6016BE070E069
:101790004E2D0E94AE331F910F91FF90EF90DF907E
:1017A000CF9008951F930E94200B60937C04709348
:1017B0007D0480937E0490937F046C52714080403E
:1017C0009040655171448F40904090F080E895E2E0
:1017D000A0E0B0E080937C0490937D04A0937E040D
:1017E000B0937F0460E875E280E090E00E94A70B70
:1017F00086ED96E062E070E00E94A733809380045B
:10180000863048F01092800486ED96E062E070E049
:1018100040E00E94AE3386ED96E065E070E00E9405
:10182000A7338093810481508E3F50F08AE18093EA
:10183000810486ED96E065E070E04AE10E94AE33F7
:1018400086ED96E066E070E00E94A7338093820404
:101850008F3F51F483E08093820486ED96E066E04A
:1018600070E043E00E94AE3386ED96E067E070E002
:101870000E94A73311E01093830486ED96E067E0A1
:1018800070E041E00E94AE3386ED96E068E070E0E3
:101890000E94A7331093840486ED96E068E070E020
:1018A00041E00E94AE338091830490910301813026
:1018B00011F4926001C09D7F909303018091840494
:1018C00090910301813011F4916001C09E7F90934B
:1018D000030186ED96E06CE070E00E94A7338093F0
:1018E0008504823048F01092850486ED96E06CE025
:1018F00070E040E00E94AE331F9108950F931F9354
:1019000060E875E280E090E00E94A70B06ED16E02B
:10191000C80162E070E040E00E94AE33C80165E0BB
:1019200070E04AE10E94AE33C80166E070E043E037
:101930000E94AE33C80167E070E041E00E94AE3320
:10194000C80168E070E041E00E94AE33C8016CE07D
:1019500070E040E00E94AE331F910F910895CF9246
:10196000DF92EF92FF920F931F93CF93DF93EC01DF
:10197000D62E60E070E04D2D50E00E94150500E08D
:10198000ED2CFF240894E108F108F0E2CF2E45C0C9
:1019900086EC96E00E947632892BD1F384E291E0C6
:1019A0000E94CB08182F8BB18C258BB9183011F001
:1019B0001F37C1F4002389F10150FE01E00FF11D32
:1019C000108284E291E068E00E94E63584E291E0D2
:1019D00066E775E00E94C33584E291E068E00E940A
:1019E000E6351BC08091030180FF05C084E291E0D1
:1019F000612F0E94E6351D3049F484E291E00E9497
:101A0000EE35FE01E00FF11D10820DC01A3029F0F5
:101A1000FE01E00FF11D10830F5F802F90E08E1507
:101A20009F050CF4B5CFCE016D2D0E94980A802F32
:101A3000DF91CF911F910F91FF90EF90DF90CF90AA
:101A40000895EF92FF920F931F938C01F62EE72ECD
:101A5000862F972F0E94F604AC01C8016F2D7E2DB2
:101A60000E9474081F910F91FF90EF900895AF921C
:101A7000BF92CF92DF92EF92FF920F931F93DF936B
:101A8000CF93CDB7DEB7AC970FB6F894DEBF0FBEDD
:101A9000CDBF1A8A1D8A198A188A80E291E09F8731
:101AA0008E8786ED96E063E070E00E94A733182FE2
:101AB00086ED96E064E070E00E94A733282F1F3F78
:101AC00099F48F3F89F486ED96E063E070E040E0A2
:101AD0000E94AE3386ED96E064E070E040E00E9444
:101AE000AE3300E010E00FC0922F80E0012F10E035
:101AF000082B192B8FEF0E3F180729F484E291E091
:101B000064E878E053C06E010894C11CD11CB8E7AA
:101B1000AB2EB8E0BB2EA2E1EA2EF12CEC0EFD1E9E
:101B200000D000D000D0EDB7FEB73196ADB7BEB74C
:101B30001296DC92CE921197B382A282158304830F
:101B40000E943D058DB79EB706960FB6F8949EBFCE
:101B50000FBE8DBFC70161E674E0A60122EC0E94B2
:101B6000262B882341F5C70161E674E0A60121E038
:101B70000E94262B882379F08BA19CA1ADA1BEA148
:101B80000097A105B10521F4C7010E94472334C085
:101B9000C7010E9447230F5F1F4F9FEF0E3F19079A
:101BA00008F4BECF84E291E066E678E00E94C33597
:101BB00000E010E022C0C7010E944723780108948A
:101BC000E11CF11C86ED96E063E070E04E2D0E9472
:101BD000AE3386ED96E064E070E00E94A7336E01BC
:101BE0000894C11CD11C8F1539F086ED96E064E095
:101BF00070E04F2D0E94AE338601CE010E960E94FA
:101C0000E908C801AC960FB6F894DEBF0FBECDBF91
:101C1000CF91DF911F910F91FF90EF90DF90CF90C8
:101C2000BF90AF9008950F931F93CF93DF93C0E0C1
:101C3000D0E0082F10E015C085E061E00E94E33499
:101C400068EC70E080E090E00E94103485E060E095
:101C50000E94E33468EC70E080E090E00E94103471
:101C60002196C017D10744F360ED77E080E090E063
:101C70000E941034C0E0D0E0F4CF1F93182F84E20C
:101C800091E064EC78E00E94C335173079F01830A9
:101C900018F41630F1F405C0183069F01930C9F4A1
:101CA0000FC084E291E06AEB78E00EC084E291E03C
:101CB0006EEA78E009C084E291E064EA78E004C06A
:101CC00084E291E06AE978E00E94C33583E00E94F3
:101CD000130E1F910895AF92BF92CF92DF92EF92B1
:101CE000FF920F931F93DF93CF93CDB7DEB76F971C
:101CF0000FB6F894DEBF0FBECDBF5C011D82188603
:101D00001C821B8280E291E09A838983C50163E78C
:101D100075E00E94E604892B09F06FC081E694E02B
:101D20000E94472381E694E06FE374E00E94F0256F
:101D3000882319F488E00E943D0E809122048823B4
:101D400039F080912E04882311F08FEF01C081E0DB
:101D5000E82EEA94E7FE03C0FF24F39440C0FF247A
:101D6000F39400E010E025E0C22ED12CCC0EDD1E55
:101D700027C0A801440F551F400F511F440F551F86
:101D8000440F551F4E5D5B4FC60161E674E021E0D4
:101D90000E94262BF82E0F5F1F4F882399F0A1E693
:101DA000B4E0F6018BE101900D928150E1F78B8157
:101DB0009C819093600480935F04C6010E94472336
:101DC0000E15BCF28CE02E2D2802C00111248E5D70
:101DD0009B4FFC018BE0DF011D928A95E9F7809112
:101DE000030181FF4BC0FF2019F0FF24F39446C08C
:101DF00084E291E063E575E015C08E010B5F1F4F33
:101E0000C80161E674E0A50121E00E94262BF82EAE
:101E1000882381F48091030181FF30C084E291E046
:101E20006DE375E00E94C33584E291E0B5010E9444
:101E30006F3724C0A1E6B4E0F8018BE101900D9268
:101E40008150E1F78B819C819093600480935F04C3
:101E500080912204882311F490E005C080912E0423
:101E6000882361F491E08CE09802C00111248E5D1A
:101E70009B4FB5014BE050E00E941C05CE0101963E
:101E80000E94E9088F2D6F960FB6F894DEBF0FBE43
:101E9000CDBFCF91DF911F910F91FF90EF90DF9019
:101EA000CF90BF90AF9008954F925F927F928F92A4
:101EB0009F92AF92BF92CF92DF92EF92FF920F93D9
:101EC0001F93DF93CF93CDB7DEB7C858D0400FB67E
:101ED000F894DEBF0FBECDBF1EA219A61DA21CA284
:101EE00080E291E09BA38AA3FE01EB5BFF4F10828F
:101EF000FE01E85BFF4F1082FE01ED5BFF4F118298
:101F00001082FE01EF5BFF4F91838083CE018696A6
:101F10006FE374E00E94F025882319F488E00E94A2
:101F20003D0E8E010F5F1F4FC80168E278E00E94EE
:101F3000EF0475E4A72EB12CAC0EBD1E66E2862E12
:101F4000912C8C0E9D1EC501B401A80122E00E94B7
:101F5000262B882381F0C5010E944324882359F44D
:101F600084E291E063E178E00E940E36C5010E94B0
:101F70004723C40121C051E4452E512C4C0E5D1E57
:101F800082010C5F1F4F46E2A42EB12CAC0EBD1E89
:101F9000C801B501AE014F5F5F4F26E40E94262BBA
:101FA000882381F484E291E06EEF77E00E940E36A0
:101FB000C8010E944723C5010E944723CE018F5BC1
:101FC0009F4F9FC00E94200B6B017C0186ED96E025
:101FD00065E070E00E94A733782E86ED96E066E01B
:101FE00070E00E94A733882E86ED96E062E070E0F4
:101FF0000E94A733982E86ED96E067E070E00E947D
:10200000A733A82E86ED96E068E070E00E94A73323
:10201000B82E86ED96E06CE070E00E94A7332DB7F5
:102020003EB7245130400FB6F8943EBF0FBE2DBFCF
:10203000EDB7FEB731968E01055F1F4FADB7BEB746
:1020400012961C930E93119727EE37E03383228369
:10205000C482D582E682F7827086118682861386D4
:1020600094861586A6861786B08A118A828B138A73
:102070000E943D05F80101900020E9F73197E01B2F
:10208000F10B2DB73EB72C5E3F4F0FB6F8943EBF15
:102090000FBE2DBFC201B801AF010E94BE2DF801D5
:1020A00001900020E9F73197E01BF10B8E179F0795
:1020B00031F084E291E061ED77E00E940E3631E488
:1020C000E32EF12CEC0EFD1EC7010E94EE358E01B1
:1020D000005A1F4FC80167EA77E00E94EF04C7016A
:1020E000B8010E94992D87010C5F1F4FC8010E9403
:1020F000F922C8010E944723CE0186960E944723F9
:10210000C7010E94E908CE0182960E94E908C857DB
:10211000DF4F0FB6F894DEBF0FBECDBFCF91DF917A
:102120001F910F91FF90EF90DF90CF90BF90AF90F5
:102130009F908F907F905F904F9008951F9386EDB2
:1021400096E062E070E00E94A733182F84E291E0ED
:102150006BE672E00E940E3684E291E067E572E081
:102160000E94C335112329F484E291E06EE472E009
:102170000DC0113029F484E291E062E472E006C0FF
:10218000123031F484E291E06AE372E00E94C335D8
:1021900084E291E00E94EE3584E291E064E172E035
:1021A0000E94C33584E291E0609181044AE050E0EE
:1021B0000E94DD3684E291E060E172E00E94C33566
:1021C00084E291E0609182044AE050E00E94EF36A0
:1021D00084E291E065E072E00E940E3684E291E0D4
:1021E00061EF71E00E940E3684E291E06AED71E0E9
:1021F0000E940E3684E291E068EC71E00E940E3697
:1022000084E291E06FEA71E00E940E3684E291E090
:1022100067E971E00E940E3684E291E068E771E0C0
:102220000E940E3684E291E060E771E00E940E3673
:1022300084E291E06EE671E00E94C33586EC96E0A0
:102240000E947632892BD1F384E291E00E94CB0880
:10225000813361F484E291E06DE571E00E940E3615
:1022600086ED96E062E070E040E00DC0823381F4DC
:1022700084E291E069E471E00E940E3686ED96E01A
:1022800062E070E041E00E94AE330E94540F85C0CE
:10229000833361F484E291E06AE371E00E940E36D8
:1022A00086ED96E062E070E042E0EDCF8433A9F481
:1022B00084E291E06CE171E00E940E3686ED96E0DA
:1022C00063E070E040E00E94AE3386ED96E064E0AB
:1022D00070E040E00E94AE3360C0853331F584E2A7
:1022E00091E06DEF70E00E94C33586EC96E00E94AD
:1022F0007632892BD1F384E291E00E94CB08482FFB
:102300008093810486ED96E065E070E00E94AE3334
:102310000E94540F84E291E064EE70E00E94C335A5
:1023200084E291E0609181042AC0863369F584E2F9
:1023300091E067EA70E00E94C33586EC96E00E9467
:102340007632892BD1F384E291E00E94CB08482FAA
:1023500040534F3F61F34093820486ED96E066E080
:1023600070E00E94AE330E94540F84E291E060E876
:1023700070E00E94C33584E291E0609182044AE0FB
:1023800050E00E94EF3609C0883709F0DFCE84E2C2
:1023900091E068E770E00E940E361F9108952F9239
:1023A0003F924F925F926F927F928F929F92AF92E5
:1023B000BF92CF92DF92EF92FF920F931F93DF9322
:1023C000CF93CDB7DEB7C956D0400FB6F894DEBF75
:1023D0000FBECDBF1EA619AA1DA61CA680E291E0C5
:1023E0009BA78AA7FE01E75BFF4F14821782138227
:1023F000128291838083CE018E966FE374E00E94F7
:10240000F025882319F488E00E943D0E8E01075FB5
:102410001F4FC80163E378E00E94EF0449E4A42E53
:10242000B12CAC0EBD1E34E0E32EF12CEA0CFB1CEB
:102430002EE2C22ED12CCC0EDD1EC701B601A801A2
:1024400021E00E94262B882351F4C7010E944723D4
:10245000C6010E9447230E94540FC50171C1AA24DE
:10246000BB248E010D5E1F4FC7010E946425181604
:102470005CF4F801EA0DFB1D80830894A11CB11CDB
:1024800027E1A216B10481F7CE01835B9F4F0E9422
:102490004723CE018E960E94472390E8E92E95E2CD
:1024A000F92E012D112D77248AE1682EB3E05B2EE1
:1024B000442443942224CC24DD24332433944E0139
:1024C0000894811C911CCE010796AA969FAF8EAFEF
:1024D000AA979BC0ED93C3942A2F28198C2D90E0C6
:1024E000E3E1F0E0EC0FFD1FE80FF91FE081EC32B3
:1024F00051F08A159B053CF4AA968EAD9FADAA9724
:10250000A817B90739F7F401E20FF11D1082C401D1
:102510000E94C804982FDD20D9F540E050E060E02B
:1025200070E074011AC0CB01BA012AE030E040E04B
:1025300050E00E948237AB01BC01812F992787FDB3
:102540009095C097AA2797FDA095BA2F480F591FBD
:102550006A1F7B1F0894E11CF11CF7011081812F79
:1025600080538A3000F3DB01CA018C529140A040B5
:10257000B04085519144AF40B04038F0A0E8EA2E19
:10258000A5E2FA2E012D112D3EC07A018B013BC030
:1025900021E0D21639F418161CF0FAE16F2E33C080
:1025A000682E31C082E0D81639F49F3F19F4E3E079
:1025B0005E2E29C0592E27C0E3E0DE1641F4892F94
:1025C0008150823010F077241EC0792E1CC0F4E0B8
:1025D000DF1639F4923018F04424439414C0492E85
:1025E00012C025E0D21639F4923018F03324339417
:1025F0000AC0392E08C086E0D81671F4923010F067
:10260000222401C0292ED394C3948C2D90E08A15E6
:102610009B0514F4D40160CF80917C0490917D04DB
:10262000A0917E04B0917F04E816F9060A071B0703
:1026300011F490E014C0C801B7010E94A70BE0920A
:102640007C04F0927D0400937E0410937F0484E266
:1026500091E0B801A70126E00E941B0891E080915B
:102660008004781651F07092800486ED96E062E066
:1026700070E0472D0E94AE3391E08091810468168E
:1026800051F06092810486ED96E065E070E0462DA1
:102690000E94AE3391E080918204581651F050921E
:1026A000820486ED96E066E070E0452D0E94AE3330
:1026B00091E080918304481651F04092830486EDA6
:1026C00096E067E070E0442D0E94AE3391E0809187
:1026D0008404381651F03092840486ED96E068E068
:1026E00070E0432D0E94AE3391E08091850428165E
:1026F00051F02092850486ED96E06CE070E0422D6A
:102700000E94AE3302C0913011F40E94540F8091A8
:10271000830490910301813011F4926001C09D7F88
:10272000909303018091840490910301813011F40E
:10273000916001C09E7F90930301CE01875B9F4F04
:102740000E94E908CE018A960E94E908C759DF4F26
:102750000FB6F894DEBF0FBECDBFCF91DF911F91B2
:102760000F91FF90EF90DF90CF90BF90AF909F9030
:102770008F907F906F905F904F903F902F90089533
:10278000BF92CF92DF92EF92FF920F931F93DF934E
:10279000CF93CDB7DEB728970FB6F894DEBF0FBE44
:1027A000CDBF0E94200B7B018C0184E291E060EDA3
:1027B00072E00E94C33584E291E0B801A7012AE0EB
:1027C00030E00E940D3784E291E06BEC72E00E94F1
:1027D0000E3684E291E068EA72E00E940E3684E2EE
:1027E00091E066EA72E00E94C3356E010894C11C54
:1027F000D11CC60168E00E94AF0C8981883721F0A6
:10280000EE24FF2487011FC084E291E06EE972E0AC
:102810002FC0C801B7012AE030E040E050E00E943C
:1028200082377B018C018B2D992787FD9095C0976E
:10283000AA2797FDA095BA2FE80EF91E0A1F1B1FA5
:102840000894C11CD11CF601B0808B2D80538A30B6
:1028500000F3D801C7018C529140A040B04085518F
:102860009144AF40B04038F084E291E060E972E01A
:102870000E940E361DC084E291E066E872E00E947C
:10288000C33584E291E0A701B8012AE030E00E945C
:102890000D3784E291E062E872E00E940E36B701E3
:1028A000C8010E94A70B0E94540F85E00E94130EDE
:1028B00028960FB6F894DEBF0FBECDBFCF91DF9143
:1028C0001F910F91FF90EF90DF90CF90BF900895F0
:1028D0000F931F93CF93DF93EC018B0141E00E9494
:1028E000392E882311F081E005C0CE01B80140E007
:1028F0000E94392EDF91CF911F910F9108950F9370
:102900001F9380E060E00E94A43480E061E00E94B8
:10291000E33480E00E943735019709F472C08DE0FE
:1029200061E00E94A4348DE061E00E94E33410E095
:1029300000E269E170E080E090E00E9410348BB129
:1029400080278BB980E00E943735019709F459C080
:1029500069E170E080E090E00E94103485B180274A
:1029600085B980E00E943735019709F44AC01F5F9E
:102970001832F9F60E947E0C8AE394E060E04AE0A7
:102980000E94F420882319F486E00E943D0E8FE314
:1029900094E06AE374E00E946814882319F487E0E5
:1029A0000E943D0E81E694E00E94472381E694E078
:1029B0006FE374E00E94F025882319F488E00E94F8
:1029C0003D0E0E94540F85E061E00E94A4348DE02A
:1029D00061E00E94A43485E061E00E94E3348DE070
:1029E00061E00E94E33410E264EF71E080E090E087
:1029F0000E9410348BB181278BB985B1812785B9AD
:102A0000F3CF1F910F91089585E061E00E94A434F7
:102A100083B7817F83BF83B7816083BF80917A0052
:102A20008F7780937A0080E880BF8FE380937E0069
:102A300083E080937F0080916400806880936400CD
:102A40008091640088608093640080916400806459
:102A500080936400809164008160809364000E9490
:102A6000D20B40917C0450917D0460917E04709162
:102A70007F0484E291E026E00E941B0820917C0400
:102A800030917D0440917E0450917F04243F81E089
:102A9000380780E0480780E05807C4F464E0220F5C
:102AA000331F441F551F6A95D1F760E074E284EF2D
:102AB00090E00E94A137215030403093C500209310
:102AC000C4008091C0008D7F8093C00084E291E0BB
:102AD00068E978E00E94C3358AE394E060E04AE068
:102AE0000E94F420882319F486E00E943D0E8FE3B3
:102AF00094E06AE374E00E946814882319F487E084
:102B00000E943D0E81E694E00E94472381E694E016
:102B10006FE374E00E94F025882319F488E00E9496
:102B20003D0E84E291E066E978E00E94C3350E94A0
:102B3000CF1180918504882311F40E947F1488E1CD
:102B4000E2E2F4E0DF011D928A95E9F70895EF9241
:102B5000FF920F931F93CF93DF937B018A01060FA0
:102B6000171FEB01C017D107B0F42091C8063091B0
:102B7000C9068091CA069091CB062817390759F0EB
:102B8000A8014C1B5D0B86EC96E0BE010E945B33F6
:102B9000C80FD91FE7CF9E012E193F09C901DF9148
:102BA000CF911F910F91FF90EF9008954F925F92F8
:102BB0006F927F928F929F92AF92BF92CF92DF924D
:102BC000EF92FF920F931F93DF93CF93CDB7DEB7B2
:102BD000CF59D0400FB6F894DEBF0FBECDBFAC01C9
:102BE0001D8218861C821B8280E291E09A83898371
:102BF000CE01059661E674E026E40E94262B882328
:102C000019F489E00E943D0E8E899F89A88DB98DA7
:102C10000097A105B10569F48E010B5F1F4FC80134
:102C200040E050E060E070E00E942F22C8010E9466
:102C3000F92284E291E060E478E00E94C33585E007
:102C400061E00E94E3340E9402347B018C01809198
:102C500082048823B9F0DD2490E2892E912C8C0E19
:102C60009D1E85E0A82EB12CAC0EBD1E2E01089431
:102C7000411C511CB0E2CB2EA1E26A2E712C6C0ECD
:102C80007D1ECDC0F0E2AF2EB12CAC0EBD1EE5E036
:102C9000CE2ED12CCC0EDD1E4E010894811C911C31
:102CA00070E2772E84E291E0B50140E850E00E94A6
:102CB000A715482F8823B9F0C401B50150E00E9440
:102CC000BE2D8BB187258BB90E9402346E197F0906
:102CD000800B910B695873418040904018F3C601F6
:102CE0000E94F9222AC00E9402346E197F09800BCB
:102CF000910B655F714080409040A0F2C6010E9438
:102D0000F9225D98809164008062809364008091D4
:102D1000640084608093640083B7816083BF88957A
:102D200083B78E7F83BF809164008B7F8093640024
:102D3000809164008F7D809364000E9402347B0147
:102D40008C01B0CF84E291E0B40140E850E00E94F1
:102D5000A715482F8823A1F128A180918104281765
:102D600011F0DD2412C0D39430918204F30191E07C
:102D70000AC08081821711F0DD2403C0D394D316DA
:102D800021F09F5F31969417A0F3C201B40150E087
:102D90000E94BE2D8BB18C258BB90E9402346E1916
:102DA0007F09800B910B6958734180409040B8F1C6
:102DB000C5010E94F9220E9402347B018C012FC0C0
:102DC0000E9402346E197F09800B910B655F714080
:102DD0008040904020F1C5010E94F9225D988091C9
:102DE00064008062809364008091640084608093BA
:102DF000640083B7816083BF889583B78E7F83BF6C
:102E0000809164008B7F80936400809164008F7D4B
:102E1000809364000E9402347B018C01DD24809148
:102E20008204D81608F48ECF8E010B5F1F4FC801A5
:102E30000E94F922C8010E94472385E060E00E94B9
:102E4000E33484E291E06EE378E00E94C335CE0182
:102E500001960E94E90881E0C156DF4F0FB6F89451
:102E6000DEBF0FBECDBFCF91DF911F910F91FF90BD
:102E7000EF90DF90CF90BF90AF909F908F907F901A
:102E80006F905F904F9008952F923F924F925F9274
:102E90006F927F928F929F92AF92BF92CF92DF926A
:102EA000EF92FF920F931F93DF93CF93CDB7DEB7CF
:102EB000CF58D0400FB6F894DEBF0FBECDBFFE0195
:102EC000E45BFF4F148217821382128280E291E04A
:102ED0009183808311E02F0124E030E0420E531EE5
:102EE000FE017696C257DF4FF983E883CE58D04073
:102EF000EBE62E2E312C2C0E3D1EC457DF4F88835F
:102F0000CC58D040C357DF4F9883CD58D040910163
:102F10002C5F3F4FC657DF4F39832883CA58D040B4
:102F200001C011E08091030183FF05C084E291E0BC
:102F30006AE10E94E635112331F484E291E065EA0A
:102F400077E00E94C33584E291E063EA77E00E9473
:102F5000C335CE018E966EE10E94AF0C11E088233E
:102F600009F380E00E94F50A7C016EE977E00E9497
:102F7000E604892B41F58091030181FF06C084E2BC
:102F800091E065E877E00E940E3681E694E00E94C9
:102F9000472381E694E06FE374E00E94F0258823E4
:102FA00019F488E00E943D0E88E1E2E2F4E011921B
:102FB0008A95E9F78091030181FFB3CF84E291E024
:102FC0006DE677E012C6C7016BE677E00E94E60483
:102FD000892B39F0C70166E677E00E94E604892B69
:102FE00019F40E94640B9ECFC70161E677E00E944E
:102FF000E604892B19F40E94C01394CFC7016DE534
:1030000077E00E94E604892B19F40E949E108ACF73
:10301000C7016AE577E00E94E604892BB1F580914B
:10302000030181FF0EC084E291E06CE477E00E942E
:10303000C33584E291E0609156044AE050E00E947A
:10304000EF36E5EAF4E020E080819181892B19F0E8
:10305000828181112F5F339634E0E43BF307A1F7BF
:10306000213029F48AE2F7018083118206C081E0D1
:103070000E94F50A7C010E942B058DE594E0B701C2
:1030800046E020E00E94F8094CCFC70169E477E0F0
:103090000E94E604892BE1F581E00E94F50A8C018B
:1030A000009709F471C5F10114821782138212820C
:1030B000C457DF4F2881CC58D0402083C357DF4FFF
:1030C0003881CD58D0403183C657DF4F88819981F0
:1030D000CA58D04061E674E0A80120E00E94A12C0B
:1030E000882311F011E010C08091030181FF0BC013
:1030F00084E291E06EE277E00E94C33584E291E0E1
:10310000B8010E946F3710E0C1010E94E9080ACFA0
:10311000C7016BE277E00E94E604892B09F09FC0AB
:1031200081E00E94F50A6C01009709F42DC5E5EADB
:10313000F4E020E080819181892B19F08281811156
:103140002F5F339684E0E43BF807A1F7233009F0C2
:103150001DC5C60167E277E00E94E604892B09F0ED
:1031600015C582E00E94F50AAC01C20161E674E077
:1031700021E00E94262B882309F406C5C2010E9483
:10318000542709C064968FAD6497823008F409C54E
:10319000C2010E94B825182F92C2C2010E94432486
:1031A000FACFC6010E942B0581E694E040E050E092
:1031B00060E070E00E942F22EE24FF2487012EC0E1
:1031C00064968FAD6497823030F5C201BE016F5FA7
:1031D0007F4F0E9459238823F1F0C601BE016F5F23
:1031E0007F4F0E94DE078823B1F0C2010E9447236F
:1031F000C20161E674E0AE014F5F5F4F22E00E94C2
:10320000262BC2010E944324882329F00894E11C44
:10321000F11C011D111DC2010E944723C20161E67C
:1032200074E041E00E94CC26882351F6809103018E
:1032300081FF0EC084E291E0B801A7012AE030E0EE
:103240000E94BA3684E291E066E177E00E940E3691
:10325000E114F1040105110509F063CE95C4C7011D
:1032600063E177E00E94E604892B49F481E00E9443
:10327000F50A009709F488C40E946B0E99C3C70130
:103280006EE077E00E94E604892B09F059C181E0E5
:103290000E94F50A8C01009709F476C4C20161E628
:1032A00074E0A80121E00E94262B882349F4809134
:1032B000030181FF69C484E291E069EF76E063C3B2
:1032C00082E00E94F50A7C01009709F44DC0FC01E0
:1032D00001900020E9F73197E81B20E030E04E2F05
:1032E00050E00CC0F701E20FF31F8081992787FDA2
:1032F0009095C0970A97C0F52F5F3F4F2417350769
:103300008CF3870140E050E060E070E019C0CB0131
:10331000BA012AE030E040E050E00E948237AB0181
:10332000BC018D2D992787FD9095C097AA2797FD01
:10333000A095BA2F480F591F6A1F7B1F0F5F1F4FA1
:10334000F801D0808D2D80538A3008F3C2010E948D
:103350002F22882349F48091030181FF6DC184E20B
:1033600091E067EE76E061C183E00E94F50AAC016E
:10337000009709F43FC0FC0101900020E9F7319764
:10338000E81B20E030E06E2F70E00CC0FA01E20F85
:10339000F31F8081992787FD9095C0970A9750F574
:1033A0002F5F3F4F261737078CF38A016624772457
:1033B000430119C0C401B3012AE030E040E050E00D
:1033C0000E9482373B014C018F2D992787FD9095F4
:1033D000C097AA2797FDA095BA2F680E791E8A1E5E
:1033E0009B1E0F5F1F4FF801F0808F2D80538A3096
:1033F00008F304C066246A94762C430184E00E949A
:10340000F50AAC01009709F440C0FC0101900020CE
:10341000E9F73197E81B20E030E06E2F70E00CC038
:10342000FA01E20FF31F8081992787FD9095C097DD
:103430000A9758F52F5F3F4F261737078CF36A011D
:10344000EE24FF2487011AC0C801B7012AE030E04A
:1034500040E050E00E9482377B018C018B2D992740
:1034600087FD9095C097AA2797FDA095BA2FE80EE3
:10347000F91E0A1F1B1F0894C11CD11CF601B08045
:103480008B2D80538A3000F305C071E0E72EF12CBC
:10349000012D112D61E0A62EB12CC12CD12C42C0E2
:1034A0006A147B048C049D0408F442C0262FF1E0CA
:1034B000EF16F1040105110599F4862F80528F351E
:1034C00040F16A3011F06D3021F484E291E0622F16
:1034D00022C084E291E065EE76E00E94210D1DC0DD
:1034E00022E0E216F1040105110569F484E291E09D
:1034F00040E150E00E94DD3684E291E063EE76E048
:103500000E94C3350AC033E0E316F104010511053A
:1035100021F484E291E00E9452080894A11CB11C9D
:10352000C11CD11CC2010E946425BC0197FFB8CF09
:10353000C2010E9447238091030183FDF2CC7AC22D
:10354000C7016DED76E00E94E604892B09F0BBC04F
:1035500081E00E94F50A8C01009709F415C3C201AD
:1035600061E674E0A80122E00E94262B882349F43A
:103570008091030181FF08C384E291E068EC76E06A
:1035800002C282E00E94F50A7C01009709F458C04B
:10359000FC0101900020E9F73197E81B20E030E0C2
:1035A0004E2F50E00DC0F701E20FF31F80819927E5
:1035B00087FD9095C0970A9708F042C02F5F3F4F54
:1035C0002417350784F3870140E050E060E070E0A5
:1035D00019C0CB01BA012AE030E040E050E00E947F
:1035E0008237AB01BC018D2D992787FD9095C0973F
:1035F000AA2797FDA095BA2F480F591F6A1F7B1F56
:103600000F5F1F4FF801D0808D2D80538A3008F353
:10361000C2010E942F22882399F48091030181FF27
:103620000BC084E291E066EB76E00E94C33584E251
:1036300091E0B7010E946F37C2010E944723A4C2E4
:103640008091030183FF05C084E291E06AE10E945A
:10365000E63584E291E064EB76E00E94C335CE016A
:103660008E966EE10E94AF0C182F882339F1CE019F
:10367000845B9F4FBE01625D7F4F412F50E00E94EF
:10368000BE2D212F30E08217930761F08091030156
:1036900081FF06C084E291E06CE976E00E94C335C8
:1036A00010E00DC01D3160F6CE01845B9F4F60E0DD
:1036B00071E042E050E00E94BE2DC2CF11E0C20195
:1036C0000E9447232FCCC70167E976E00E94E604F9
:1036D000892BA1F581E00E94F50AAC01009709F45D
:1036E00053C2C20161E674E021E00E94262B8823C8
:1036F00089F0A5964CAD5DAD6EAD7FADA59784E22A
:1037000091E02AE030E00E94BA36C2010E944723CD
:1037100011E00BC08091030181FF06C084E291E0BB
:1037200064E976E00E94C33510E08091030183FDD7
:10373000F9CB84E291E00E94EE35F4CBC7016FE84B
:1037400076E00E94E604892B09F0DEC084E291E075
:1037500062E876E00E94C33580913E04823049F0F1
:10376000833061F0813079F484E291E06EE776E0B5
:103770000EC084E291E06AE776E009C084E291E05D
:1037800065E776E004C084E291E06DE676E00E94B1
:103790000E368AE394E06AE0AE01425F5F4F0E941A
:1037A0001220882339F484E291E06EE576E00E94ED
:1037B000C335EAC184E291E06CE476E00E94C3354F
:1037C00084E291E06E8540E150E00E94EF3684E2B1
:1037D00091E063E476E00E94C33584E291E06F8576
:1037E0000E94E63584E291E068890E94223684E2F4
:1037F00091E069E376E00E94C3358E010F5E1F4FB2
:1038000084E291E0F80161918F010E94E635C25790
:10381000DF4F28813981CE58D0400217130781F736
:1038200084E291E06DE276E00E94C3356E89629594
:103830006F7084E291E04AE050E00E94DD3684E25D
:1038400091E06BE276E00E94C3356E896F7084E28E
:1038500091E04AE050E00E94EF3684E291E06BE1B3
:1038600076E00E94C3354F89588D698D7A8D84E248
:1038700091E02AE030E00E94C93684E291E066E0FF
:1038800076E00E94C3356C8D6F7084E291E04AE06F
:1038900050E00E94DD3684E291E064E076E00E9430
:1038A000C3356C8D62956F7070E06053784F8B8D6F
:1038B0008F7090E054E0880F991F5A95E1F7680FD8
:1038C000791F84E291E04AE050E00E944D378AE39C
:1038D00094E00E9432207B018C0161157105810505
:1038E000910559F08AE394E069E0AE01425E5F4FD2
:1038F0000E941220882309F062C184E291E065EF02
:1039000075E00E940E3640C1C70160EE75E00E946E
:10391000E604892B41F4C2010E94F92281E694E079
:103920000E94F922FECAC7016AED75E00E94E60412
:10393000892B31F4E0912004F0912104099524C1F0
:10394000C70166ED75E00E94E604892B11F581E060
:103950000E94F50A8C01009709F416C1C20161E6C4
:1039600074E0A80122EC0E94262B882321F0C201DA
:103970000E944723D6CA8091030181FF05C184E2DA
:1039800091E060EC75E00E94C33584E291E0B801FB
:10399000F9C0C70169EB75E00E94E604892B51F478
:1039A00081E00E94F50A009709F4EEC00E94D61546
:1039B000182FB8CAC70165EB75E00E94E604892B91
:1039C000F1F584E291E062EB75E00E94C3358091ED
:1039D0002204882311F4CC2409C080912E0488236A
:1039E00019F0CC24CA9402C0CC24C394DD24EC2C5E
:1039F000FF240894E108F1081BC00D2D10E0B80168
:103A0000660F771F600F711F660F771F660F771F96
:103A10006E5D7B4F84E291E00E946C370E151F05AE
:103A200034F484E291E060EB75E00E94C335D394F6
:103A3000DC1418F384E291E00E94EE3572CAC701EB
:103A40006BEA75E00E94E604892B59F581E00E943B
:103A5000F50A8C01009709F497C068EA75E00E94A6
:103A6000E604F82E882339F481E080938404809161
:103A7000030181600DC0C80164EA75E00E94E6049C
:103A8000F82E882339F410928404809103018E7FEC
:103A90008093030186ED96E068E070E04091840435
:103AA00031C0C7016CE975E00E94E604892B99F5E5
:103AB00081E00E94F50A8C01009709F465C069E96C
:103AC00075E00E94E604F82E882339F481E08093A3
:103AD00083048091030182600DC0C80165E975E02F
:103AE0000E94E604F82E882339F410928304809112
:103AF00003018D7F8093030186ED96E067E070E01F
:103B0000409183040E94AE330E94540F10E0FF20C6
:103B100009F008CA06CAC70161E975E00E94E60417
:103B2000892B19F581E00E94F50A8C01009761F15B
:103B30006EE875E00E94E604982F882321F48091B6
:103B4000030188600BC0C8016AE875E00E94E604C2
:103B5000982F882329F480910301877F80930301A4
:103B600010E0992309F0DEC9DCC98091030181FFCF
:103B70000BC084E291E068E775E00E94C33584E2FF
:103B800091E0B7010E946F3710E0CCC9C20161E635
:103B900074E0A60121E00E94262B882309F0F2CAD6
:103BA00000CBC2010E944723C20161E674E0A60176
:103BB00022E00E94262B882309F472CDEECA84E20B
:103BC00091E069EE75E00E94C33516950795F7946C
:103BD000E79484E291E0B801A7012AE030E00E9476
:103BE000BA3684E291E065EE75E00E940E3699C91E
:103BF000CF92DF92EF92FF920F931F93DF93CF93B9
:103C0000CDB7DEB7AB970FB6F894DEBF0FBECDBF12
:103C1000198A1C8A188A1F8680E291E09E878D8708
:103C20008E010F5F1F4FC80169E578E00E94EF0425
:103C3000ADE0CA2ED12CCC0EDD1EF1E1EF2EF12C21
:103C4000EC0EFD1EC70161E674E0A80122E40E94AB
:103C5000262B882339F484E291E062E478E00E9424
:103C6000C33506C0C7010E944723C8010E94D6156C
:103C7000C6010E94E908AB960FB6F894DEBF0FBEEE
:103C8000CDBFCF91DF911F910F91FF90EF90DF900B
:103C9000CF90089580918004882321F40E94370DED
:103CA0000E94D61580918004813011F40E94F81D85
:103CB0000E944417FFCFFF920F931F93CF93DF9380
:103CC0008B010E940234EB01FF24FA9409C00E9488
:103CD00002346C1B7D0B6017710710F080E008C088
:103CE000FEBC0DB407FEFDCF8EB58F3F81F781E09E
:103CF000DF91CF911F910F91FF900895FC014281B8
:103D0000242F30E0C9019595879580658CBD40FFD3
:103D100002C080E004C080E0463009F081E08DBD43
:103D2000808160E00E94E3340895DF92EF92FF9279
:103D30000F931F93CF93DF93EC01D62E79018A0165
:103D40000E947E1ECE016CE271E00E945B1E8D2DF2
:103D500080648EBD0DB407FEFDCF28E130E0D801B0
:103D6000C701022E04C0B695A795979587950A942A
:103D7000D2F78EBD0DB407FEFDCF285030408FEF37
:103D8000283F380761F7DD2011F485E906C088E097
:103D9000D81611F487E801C08FEF8EBD0DB407FE71
:103DA000FDCF8CE0D81631F48FEF8EBD0DB407FE39
:103DB000FDCF8EB59FEF2FEF2EBD0DB407FEFDCFCB
:103DC0008EB587FF04C0992311F09150F5CF8B83F6
:103DD000DF91CF911F910F91FF90EF90DF900895A9
:103DE000DF92EF92FF920F931F93CF93DF93EC013B
:103DF000D62E79018A0167E320E030E040E050E010
:103E00000E94951E882331F0CE016D2DA8019701E7
:103E10000E94951EDF91CF911F910F91FF90EF901F
:103E2000DF900895FC01808161E00E94E3348FEF10
:103E30008EBD0DB407FEFDCF0895DC016EBDFA0105
:103E400020E030E00DB407FEFDCF80818EBD0DB4C3
:103E500007FEFDCF81818EBD2E5F3F4F329682E0FF
:103E60002030380779F70DB407FEFDCF8FEF8EBDF8
:103E70000DB407FEFDCF8FEF8EBD0DB407FEFDCF55
:103E80008FEF8EBD0DB407FEFDCF8EB513968C93CC
:103E900013978F71853011F481E0089583E11196B5
:103EA0008C931197CD010E94121F80E00895CF924C
:103EB000DF92EF92FF920F931F93CF93DF93EC016A
:103EC0007A018B0169018C81833039F059E0EE0C65
:103ED000FF1C001F111F5A95D1F7CE0168E1A80100
:103EE00097010E94951E882311F086E023C0CE0121
:103EF0006EEFA6010E941D1F8823E9F0CE0168E540
:103F000072E00E945B1E882311F487E113C0CE018A
:103F10006DE020E030E040E050E00E94951E8823F4
:103F200041F48FEF8EBD0DB407FEFDCF8EB5882313
:103F300079F086E18983CE010E94121F80E0DF9133
:103F4000CF911F910F91FF90EF90DF90CF90089548
:103F5000CE010E94121F81E0F2CFBF92CF92DF927A
:103F6000EF92FF920F931F93CF93DF93EC016B01BE
:103F70007A010E9402348B01BB24BA9409C00E94CA
:103F80000234601B710B6D52714010F081E10BC067
:103F9000BEBC0DB407FEFDCF8EB58B838F3F79F38A
:103FA0008E3F39F08FE08983CE010E94121F80E09E
:103FB0002FC0D7011197EF28D9F08FEF8EBD20E0E9
:103FC00030E09FEF0BC00DB407FEFDCF8EB5F601BC
:103FD000E20FF31F80839EBD2F5F3F4F2A173B07E1
:103FE00090F30DB407FEFDCF8EB5AC0DBD1D8C93C7
:103FF0008FEF8EBD0DB407FEFDCF8EB58FEF8EBD5A
:104000000DB407FEFDCF8EB5CE010E94121F81E0D8
:10401000DF91CF911F910F91FF90EF90DF90CF90A4
:10402000BF9008950F931F93CF93DF93EC018A0104
:1040300020E030E040E050E00E94951E882339F0F7
:1040400080E18983CE010E94121F80E006C0CE016C
:10405000B80140E150E00E94AD1FDF91CF911F9168
:104060000F910895EF92FF920F931F93DF93CF93D9
:10407000CDB7DEB760970FB6F894DEBF0FBECDBFE9
:104080008C0169E0AE014F5F5F4F0E9412208823D0
:1040900009F464C08981829586958695837089F537
:1040A0008F818370382F330F330F20E0888590E0A5
:1040B000880F991F880F991F282B392B8985829586
:1040C00086958695837090E0282B392B2F5F3F4F84
:1040D000790100E010E08E818F7090E007972A85CB
:1040E0002370220F3B85331F3327331F232B820F6F
:1040F000911D04C0EE0CFF1C001F111F8A95D2F702
:1041000030C0813041F588858695869590E0A0E0A5
:10411000B0E08C01FF24EE248A8590E0A0E0B0E0BE
:10412000E82AF92A0A2B1B2B998580E0AA2797FDFC
:10413000A095BA2FE82AF92A0A2B1B2B0894E11C18
:10414000F11C011D111D7AE0EE0CFF1C001F111F58
:104150007A95D1F706C08BE0F8018183EE24FF2425
:104160008701B701C80160960FB6F894DEBF0FBE95
:10417000CDBFCF91DF911F910F91FF90EF900895E8
:10418000CF92DF92EF92FF920F931F93CF93DF9323
:10419000EC017A018B0169018C81833039F0A9E04F
:1041A000EE0CFF1C001F111FAA95D1F7CE0161E193
:1041B000A80197010E94951E882339F084E0898325
:1041C000CE010E94121F80E006C0CE01B60140E081
:1041D00052E00E94AD1FDF91CF911F910F91FF9090
:1041E000EF90DF90CF900895BF92CF92DF92EF9241
:1041F000FF920F931F93CF93DF93EC01B62E1C8297
:10420000198248830E9402346B01888161E00E9418
:10421000A434888161E00E94E3348CE060E00E9475
:10422000A4348BE061E00E94A4348DE061E00E9440
:10423000A4348AE061E00E94A4348AE061E00E9434
:10424000E33485E08A8382E58CBD1DBC80E09FEF6E
:104250009EBD0DB407FEFDCF8F5F8A30C9F709C040
:104260000E9402346C197D09615D774010F081E095
:1042700056C0CE0160E020E030E040E050E00E9417
:10428000951E182F8B83813059F7CE0168E02AEAFA
:1042900031E040E050E00E94951E82FF02C01C8386
:1042A00011C080E02FEF2EBD0DB407FEFDCF9EB5EF
:1042B0008F5F8430C1F79B839A3A11F082E02FC060
:1042C00082E08C838C81823021F0EE24FF248701F0
:1042D0000FC0E12CF12C012D00E4102F09C00E9429
:1042E00002346C197D09615D774010F08AE017C0D7
:1042F000CE0169E2A80197010E94F01E8B838823FA
:1043000071F78C81823029F5CE016AE320E030E03C
:1043100040E050E00E94951E882331F088E08983B8
:10432000CE010E94121F21C08FEF8EBD0DB407FE7B
:10433000FDCF8EB5807C803C11F483E08C8380E0DF
:104340009FEF9EBD0DB407FEFDCF2EB58F5F83306E
:10435000C1F7CE010E94121F86E08B1518F488E188
:10436000898303C0BA8281E001C080E0DF91CF91F0
:104370001F910F91FF90EF90DF90CF90BF90089525
:10438000CF93DF93EB01DC0190E020E03EE28C91E3
:10439000803269F0283029F4FE01E90FF11D3083E5
:1043A0009F5FFE01E90FF11D8C9180839F5F2F5F5E
:1043B00011962B3061F7C90FD11D1882DF91CF9173
:1043C00008950F931F93CF93DF93DC01EB018A01D4
:1043D00080E090E020E2FE01E80FF91F20830196C3
:1043E0008B309105C1F757E040E024C0622F2E3298
:1043F00019F08BEC98E007C05A3051F15AE048E0D0
:1044000018C0321729F1FC01019634913323C9F702
:104410005417F0F02132E0F02F37D0F4822F81567C
:104420008A3110F4622F6052FE01E40FF11D6083A7
:104430004F5F11962C91222311F02F32B9F6F8011B
:10444000B183A08390E08881803219F091E001C0AF
:1044500090E0892FDF91CF911F910F9108956F9276
:104460007F928F929F92AF92BF92CF92DF92EF9204
:10447000FF920F931F93CF93DF93EC017A018B018F
:104480002B81222309F480C089899A89AB89BC8950
:1044900084179507A607B70708F476C085C0E1140E
:1044A000F1040105110551F41C821D821E821F8238
:1044B000188619861A861B8681E067C0288539858B
:1044C0004A855B85E98DFA8D858590E009962150B6
:1044D00030404040504039014A01082E04C09694B3
:1044E0008794779467940A94D2F72F5F3F4F4F4F8A
:1044F0005F4F0894E108F1080109110957016801AB
:1045000004C0D694C794B794A7948A95D2F7089418
:10451000E11CF11C011D111DA614B704C804D90427
:1045200028F0211531054105510549F48D899E89F1
:10453000AF89B88D8C839D83AE83BF8316C0A618C8
:10454000B708C808D90811C04C815D816E817F8190
:10455000898D9A8D94010E9427300894A108B10892
:10456000C108D108882331F40FC084E0882E912C33
:104570008C0E9D1EA114B104C104D10429F7E88654
:10458000F9860A871B8798CF80E0DF91CF911F9132
:104590000F91FF90EF90DF90CF90BF90AF909F90E2
:1045A0008F907F906F900895223009F078CFE7CFF9
:1045B000CF93DF93EC018C859D85AE85BF8540E070
:1045C000611141E0BC01CD010E94FD2D882319F449
:1045D00020E030E00AC08889282F30E095E0220FE3
:1045E000331F9A95E1F722543B4FC901DF91CF91D8
:1045F00008950F931F93CF93DF938C01FC01838168
:104600008823E1F1818187FF36C0C80161E00E9403
:10461000D822EC01009791F18881853E79F1F8016B
:104620008381823040F481899289A389B4898C8FF7
:104630009D8FAE8FBF8FF80185899689A789B08D30
:104640009B8F8A8FCD01AA27BB279D8B8C8BE091F6
:10465000B404F091B504309751F0BE016A5E7F4F0B
:10466000CE0148960995888D998D9B8B8A8BF80190
:1046700081818F7781830E94C22D04C081E0F8017F
:10468000808380E0DF91CF911F910F9108950F9368
:104690001F938C010E94F922F80113821F910F9140
:1046A0000895FC018381882319F0CF010E944723DC
:1046B0000895CF93DF93FC01EB018381882391F070
:1046C0008250823020F48FE28883198209C0CF01A2
:1046D00060E00E94D822009729F0BE010E94C0210C
:1046E00081E001C080E0DF91CF9108956F927F92C9
:1046F0008F929F92AF92BF92CF92DF92EF92FF92F2
:104700000F931F93DF93CF9300D000D0CDB7DEB7C8
:104710007C015A016B01DC0113968C911397813057
:1047200009F091C011968C9181FF8DC0A0C00097B7
:10473000A105B10511F481E087C0F701608471849F
:1047400082849384C701B601A5010E942F22882389
:1047500009F479C0D70159968D919C915A97A1146B
:10476000B104C104D10489F455964D915D916D91C8
:104770007C9158970E949D30882309F464C0F7010A
:10478000158A168A178A108E44C0D70114964D9147
:104790005D916D917C9117979E012F5F3F4F0E9415
:1047A0002730882309F44FC0D7015996ED91FC9129
:1047B0005A9749815A816B817C818789803149F47C
:1047C000483FBFEF5B07B0E06B07B0E07B0748F006
:1047D00020C0483F8FEF58078FEF68078FE07807BA
:1047E000C0F4CF010E949D30882369F1D70114964F
:1047F0004D915D916D917C91179759968D919C91FA
:104800005A970FEF1FEF2FEF3FE00E94A02F882352
:10481000D1F0F701A18AB28AC38AD48A81818068E3
:104820008183C7010E94F922882369F0B601A5019E
:104830006A147B048C049D0410F4B401A301C70125
:104840000E942F2201C080E00F900F900F900F90D8
:10485000CF91DF911F910F91FF90EF90DF90CF905C
:10486000BF90AF909F908F907F906F900895F701C9
:1048700081899289A389B48984179507A607B70708
:1048800008F055CFE0CFCF93DF93EC0140E050E04C
:1048900060E070E00E947623882369F0CE0161E039
:1048A0000E94D822FC01009731F085EE80831B82A4
:1048B0000E94C22D01C080E0DF91CF9108952F9218
:1048C0003F924F925F926F927F928F929F92AF92A0
:1048D000BF92CF92DF92EF92FF920F931F93CF93ED
:1048E000DF93EC012A018B81882309F4B6C089810A
:1048F00080FFB3C0C8C025014E185F083B0174E0BB
:10490000272E312C2C0E3D1E4201A1C02885398551
:104910004A855B856FEFA62E61E0B62EA222B322F8
:104920008B8179018A0199E016950795F794E794B0
:104930009A95D1F7E98DFA8D823049F4428D538DE5
:10494000648D758D4E0D5F1D601F711F3FC0D4803B
:10495000DA94DE20A114B104D9F4DD20C9F42115C4
:1049600031054105510549F48D899E89AF89B88D7E
:104970008C839D83AE83BF830BC04C815D816E8130
:104980007F81CF0191010E942730882309F465C0FF
:10499000E98DFA8D4C815D816E817F81425050405E
:1049A00060407040058404C0440F551F661F771F88
:1049B0000A94D2F786859785A089B189480F591F37
:1049C0006A1F7B1F4D0D511D611D711D80E092E01E
:1049D0008A199B0984018815990508F48C0182E0E5
:1049E0000030180709F067C08091BA049091BB04A9
:1049F000A091BC04B091BD04481759076A077B0712
:104A000009F459C08091BE069091BF0693010E949F
:104A1000C020882349F421C0950122543B4FC30193
:104A2000B901A8010E940C05600E711E980140E0BA
:104A300050E088859985AA85BB85820F931FA41FA6
:104A4000B51F88879987AA87BB87801A910A811426
:104A5000910409F05BCFA20102C04FEF5FEFCA01E2
:104A6000DF91CF911F910F91FF90EF90DF90CF904A
:104A7000BF90AF909F908F907F906F905F904F907E
:104A80003F902F900895A988BA88CB88DC88E88465
:104A9000F9840A851B859A0140E050E0D601C501E2
:104AA0008E199F09A00BB10B281739074A075B071E
:104AB00008F021CF23CFCB01BA0140E00E94FD2DA9
:104AC000882309F0A9CFC9CFDF93CF930F92CDB739
:104AD000DEB7BE016F5F7F4F41E050E00E945F2470
:104AE000019719F02FEF3FEF03C08981282F30E0A5
:104AF000C9010F90CF91DF910895EF92FF920F932C
:104B00001F93CF93DF93EC018B81823038F1E884DF
:104B1000F9840A851B85CE010E94642597FD1EC07D
:104B200088859985AA85BB854F96A11DB11D88876B
:104B30009987AA87BB87F5E016950795F794E794C0
:104B4000FA95D1F72E2D30E02F703070E5E0220F6E
:104B5000331FEA95E1F722543B4F02C020E030E0DA
:104B6000C901DF91CF911F910F91FF90EF900895B0
:104B7000CF93DF93EC018B81843071F5CE0140E05F
:104B800050E060E070E00E942F2210C0CE010E9431
:104B90007D25FC01009701F180818823A1F0853EED
:104BA00029F08E3219F0838583FF16C02885398558
:104BB0004A855B8589899A89AB89BC892817390719
:104BC0004A075B0718F381E08B83898182608983C0
:104BD000CE010E94432401C080E0DF91CF9108956F
:104BE0000F931F93CF93DF93EC018B018B8188236D
:104BF00009F040C0FB018789803109F041C082E0A3
:104C00008B831D8A1E8A1F8A188E808D918DA0E04D
:104C1000B0E025E0880F991FAA1FBB1F2A95D1F786
:104C2000898B9A8BAB8BBC8B13C083E08B83F80191
:104C3000428D538D648D758D4D8B5E8B6F8B788F10
:104C40009E012F5E3F4FC8010E94FB30882391F0E8
:104C50001A8F098F81E089831C821D821E821F8228
:104C6000188619861A861B861C861D861E861F8638
:104C7000188A01C080E0DF91CF911F910F910895B4
:104C80008032C1F7D2CF1F93CF93DF93EC01142F63
:104C9000262F30E0F90155E0EE0FFF1F5A95E1F79E
:104CA000E254FB4F8385817121F0842F827109F0DA
:104CB00069C08091BA049091BB04A091BC04B091EA
:104CC000BD048C879D87AE87BF87688BF90145E05F
:104CD000EE0FFF1F4A95E1F7E254FB4F8489958957
:104CE000A0E0B0E0DC01992788278D8B9E8BAF8BED
:104CF000B88F228D338DA90160E070E0482B592BCD
:104D00006A2B7B2B4D8B5E8B6F8B788F838590E02E
:104D100088719070009751F4848D958DA68DB78D14
:104D2000898B9A8BAB8BBC8B81E00CC0409751F583
:104D30009E012F5E3F4F898D9A8D0E94FB30882304
:104D400009F184E08B83812F8F7089831C821D82FF
:104D50001E821F82188619861A861B8614FF18C0A9
:104D6000CE0140E050E060E070E00E9476238823AE
:104D700079F40AC049895A896B897C89CE010E94DD
:104D80002F2202C01B8280E0DF91CF911F910895F6
:104D900015FDF0CF81E0F8CFBF92CF92DF92EF9276
:104DA000FF920F931F93CF93DF936C01EB01B42E0F
:104DB0006115710551F1FC018381882331F5898DDD
:104DC0009A8D928F818FE884F9840A851B85CE01A4
:104DD0000E947D25FC010097C1F080818823A9F005
:104DE000853E89F38E3279F365E016950795F79441
:104DF000E7946A95D1F76E2D6F70838583FDE3CFBD
:104E0000C6014B2D0E94432601C080E0DF91CF9167
:104E10001F910F91FF90EF90DF90CF90BF9008957A
:104E2000DF92EF92FF920F931F93CF93DF938C014A
:104E3000EB017A01D22E898D9A8DF801928F818FA4
:104E40008381882329F56115710559F521C0A701D2
:104E500075E0440F551F7A95E1F760E070E0CE01F0
:104E60000E942F228823A1F0CE010E947D25FC0103
:104E7000009771F08081882359F0853E49F08E3289
:104E800039F06E2D6F70C8014D2D0E94432601C070
:104E900080E0DF91CF911F910F91FF90EF90DF9015
:104EA000089527FFD4CFF4CFAF92BF92CF92DF9275
:104EB000EF92FF920F931F93DF93CF93CDB7DEB79F
:104EC0006B970FB6F894DEBF0FBECDBF8C01198271
:104ED0001C8240E050E060E070E00E942F225E0102
:104EE0000894A11CB11C50C0C8010E947D25FC0182
:104EF000009709F464C08081882309F454C0853E7A
:104F000009F442C08E3209F43FC0838583FD3CC062
:104F1000A7019601F5E05695479537952795FA959F
:104F2000D1F77901C501B801A90121E00E9410273C
:104F3000882309F444C08C81843021F4C5010E9487
:104F4000542706C08A8182608A83C5010E94432457
:104F50008823A9F10894E11CF11CE5E0EE0CFF1C8C
:104F6000EA95E1F7A70160E070E0F801808591859E
:104F7000A285B38584179507A607B70729F0C8014E
:104F80000E942F228823D9F0F801C084D184E284C2
:104F9000F38481899289A389B489C816D906EA065F
:104FA000FB0608F4A1CFF80183818250823028F0FB
:104FB000C8010E94B825882311F011E001C010E05B
:104FC000CE0101960E945123812F6B960FB6F89463
:104FD000DEBF0FBECDBFCF91DF911F910F91FF902C
:104FE000EF90DF90CF90BF90AF900895CF93DF9375
:104FF000EC019C012C5F3F4F898D9A8D41E050E080
:1050000060E070E00E9467318823A1F08D899E895D
:10501000AF89B88D0097A105B10559F48C819D81A8
:10502000AE81BF818D8B9E8BAF8BB88F898180685D
:10503000898381E0DF91CF9108952F923F924F9223
:105040005F927F928F929F92AF92BF92CF92DF92A8
:10505000EF92FF920F931F93DF93CF9300D000D076
:1050600000D0CDB7DEB76C01162F072F5E834D83BE
:10507000DC0113968C911397813009F06EC1119663
:105080008C9181FF6AC187C1F60141895289638988
:10509000748980859185A285B38584179507A607B5
:1050A000B70731F0C6010E942F22882309F455C1A9
:1050B000812F902F9C0119014D805E8012C1D60175
:1050C0005996ED91FC915A97DA01C90149E0B695DC
:1050D000A795979587954A95D1F774807A94782209
:1050E0008FEF882E81E0982E82229322772009F07C
:1050F00052C08114910409F04EC0D60114964D910E
:105100005D916D917C911797411551056105710570
:1051100071F1CF019E012F5F3F4F0E9427308823FE
:1051200009F41BC129813A814B815C81D6015996D2
:10513000ED91FC915A978789803149F4283FBFEF60
:105140003B07B0E04B07B0E05B0748F019C0283FD1
:10515000EFEF3E07EFEF4E07EFE05E0788F4D60172
:1051600014962D933D934D935C93179714C0F601BD
:1051700085899689A789B08D0097A105B10531F47D
:10518000C6010E94F627882331F4E7C0F601848324
:105190009583A683B78380E092E08819990952012C
:1051A0008415950508F45C01D6015996ED91FC91A2
:1051B0005A971496ED90FD900D911C9117978EEFD4
:1051C0009FEFAFEFBFEFE80EF91E0A1F1B1F05840C
:1051D00004C0EE0CFF1C001F111F0A94D2F7868535
:1051E0009785A089B189E80EF91E0A1F1B1FE70CDD
:1051F000F11C011D111D90E0A91692E0B90639F5C8
:105200008091BA049091BB04A091BC04B091BD04FC
:105210008E159F05A007B10771F41092C0068FEF9D
:105220009FEFAFEFBFEF8093BA049093BB04A093BE
:10523000BC04B093BD048091BE069091BF06B80136
:10524000A70191010E94571F8823B9F586C08114D8
:10525000910419F5D60118962D913D914D915C91CF
:105260001B9751968D919D910D90BC91A02D281763
:1052700039074A075B0788F00E94C22D882309F48A
:105280006CC081E08093C006E092BA04F092BB0447
:105290000093BC041093BD0408C0C801B70141E0ED
:1052A0000E94FD2D882309F458C0940122543B4FDD
:1052B000C901B101A5010E940C05950140E050E033
:1052C000F60180859185A285B385820F931FA41F67
:1052D000B51F80879187A287B3872A0C3B1C4A1889
:1052E0005B08D60118962D913D914D915C911B97CD
:1052F0004114510409F0E3CE51968D919D910D908A
:10530000BC91A02D82179307A407B50748F4F601B6
:10531000218B328B438B548B81818068818311C0B8
:105320008091B4049091B504892B59F08D819E81B0
:10533000892B39F0D60111968C91119780681196BE
:105340008C93F601818183FF05C0C6010E94F9227A
:10535000882319F04D815E8105C081E0D6018C93D0
:105360004FEF5FEFCA0126960FB6F894DEBF0FBE6F
:10537000CDBFCF91DF911F910F91FF90EF90DF9004
:10538000CF90BF90AF909F908F907F905F904F9005
:105390003F902F90089582FD77CE8ACEDF92EF92D4
:1053A000FF920F931F93CF93DF93EC0189899A8922
:1053B000AB89BC89805E9F4FAF41B04008F071C09F
:1053C000CE010E94F627882309F46BC00E94C22DEB
:1053D000882309F466C0E98DFA8DEC80FD800E818A
:1053E0001F818EEF9FEFAFEFBFEFE80EF91E0A1F90
:1053F0001B1F058404C0EE0CFF1C001F111F0A9424
:10540000D2F786859785A089B189E80EF91E0A1F13
:105410001B1F81E08093C006E092BA04F092BB04A7
:105420000093BC041093BD0480E092E0EEEBF4E046
:10543000DF019C011D9221503040E1F7DD24D3941F
:1054400011C0B801A7014D0D511D611D711D809145
:10545000BE069091BF062EEB34E00E94571F8823B2
:1054600001F1D394E98DFA8D8481D81650F320E0B0
:1054700032E040E050E0058404C0220F331F441F97
:10548000551F0A94D2F789899A89AB89BC89820F02
:10549000931FA41FB51F898B9A8BAB8BBC8B81E0AC
:1054A00001C080E0DF91CF911F910F91FF90EF90AD
:1054B000DF9008958F929F92AF92BF92CF92DF922A
:1054C000EF92FF920F931F93CF93DF936C01EB0149
:1054D000942E852EA22E898D9A8DD6015A969C9354
:1054E0008E935997CB0140E050E060E070E00E945D
:1054F0002F22BB2438C0CE010E947D25FC010097DD
:1055000009F493C055E016950795F794E7945A95DA
:10551000D1F71E2D1F708081882311F0853EC9F4BC
:10552000BB2099F42091BA043091BB044091BC0493
:105530005091BD04D6011C962D933D934D935C93E1
:105540001F9750961C93BB24B3948081882359F4F1
:1055500018C0892D982DBF014BE050E00E94FF0438
:10556000009709F470C0E884F9840A851B8589894D
:105570009A89AB89BC89E816F9060A071B0708F463
:10558000BACFA6FE52C0A1FE50C0BB2051F0F6011A
:105590001089C60161E00E94D822EC01009769F4ED
:1055A00044C08B81823009F440C0CE010E94CE29D4
:1055B0008823D9F110E0CEEBD4E080E2DE011D9229
:1055C0008A95E9F7DE01292D382DC901FC018BE010
:1055D00001900D928150E1F7E091B404F091B5048F
:1055E000309739F0BE01625F7F4FCE01409609953A
:1055F00008C081E298E2998B888B80E098E09F87D1
:105600008E87888999899B8B8A8B998F888F8E85C5
:105610009F859F8B8E8B0E94C22D882331F0C601FF
:10562000612F4A2D0E94432601C080E0DF91CF9177
:105630001F910F91FF90EF90DF90CF90BF90AF90B0
:105640009F908F900895A7FEEACFEFCF2F923F92C1
:105650004F925F926F927F928F929F92AF92BF9282
:10566000CF92DF92EF92FF920F931F93DF93CF932E
:10567000CDB7DEB7C654D0400FB6F894DEBF0FBE2C
:10568000CDBF3C016B01DE01AE5BBF4F11965C9359
:105690004E9325962FAF25971C861F861FA21AA60C
:1056A0006115710509F480C0FC018381882309F02C
:1056B0007BC0FA0180818F32F1F08601ECE0EE2EA2
:1056C000F12CEC0EFD1E72E4A72EB12CAC0EBD1E0B
:1056D0004E010894811C911C2796FFAEEEAE2797D1
:1056E00067E2262E312C2C0E3D1E270124C0119678
:1056F000B183A08301C0FD01A081B1818C918F3263
:10570000B1F3D60113968C91139782508230A8F290
:105710008E01095D1F4F59966D917C915A97C80172
:105720000E94F025882351F63FC0342D252D870196
:10573000832F922F7C01F50180819181B401A50115
:105740000E94E121882329F42FC03196D501ED93E1
:10575000FC93D501ED91FC9180818F32B1F38823C8
:10576000C9F0C701B801A40121E00E945A2A882388
:10577000D9F00C151D0519F0C8010E944723279682
:10578000EEADFFAD2797EE16FF0679F6C101322D7B
:10579000292FCDCFC301B801A40125962FAD2597A0
:1057A0000E945A2A182F01C010E0CE0187960E944D
:1057B0005123CE010C960E945123812FCA5BDF4FEB
:1057C0000FB6F894DEBF0FBECDBFCF91DF911F9112
:1057D0000F91FF90EF90DF90CF90BF90AF909F9090
:1057E0008F907F906F905F904F903F902F90089593
:1057F000EF92FF920F931F93DF93CF93CDB7DEB756
:10580000A0970FB6F894DEBF0FBECDBF8C017B0111
:10581000DB0113968C91823008F485C0C80123EC1B
:105820000E945A2A882309F47EC081E0F80181830E
:1058300084E08383C8010E94CE29882309F473C0C1
:10584000C8010E94F922882309F46DC0C80161E0F3
:105850000E94D822FC01009709F465C080E183878B
:10586000DE01119680E201900D928150E1F78EE207
:105870008983FE01329620E2CE010C962193E8172F
:10588000F907E1F7D8015996ED91FC915A97559691
:105890006D917D918D919C915897625070408040A0
:1058A0009040058404C0660F771F881F991F0A94D3
:1058B000D2F72685378540895189620F731F841F6F
:1058C000951F41E00E94FD2D882369F1AEEBB4E005
:1058D000FE01319680E201900D928150E1F78EE257
:1058E0008A83F70183818250823028F41C8E1B8EBC
:1058F0001E8A1D8A0CC0F70185899689A789B08DFB
:105900009C8F8B8FCD01AA27BB279E8B8D8BAEEDF5
:10591000B4E0FE01319680E201900D928150E1F7F2
:105920000E94C22D01C080E0A0960FB6F894DEBFA1
:105930000FBECDBFCF91DF911F910F91FF90EF90E0
:1059400008952F923F924F925F926F927F928F9223
:105950009F92AF92BF92CF92DF92EF92FF920F93FE
:105960001F93DF93CF93CDB7DEB7C654D0400FB6A9
:10597000F894DEBF0FBECDBF3C016B01DE01AE5B14
:10598000BF4F11965C934E9325962FAF25971C869B
:105990001F861FA21AA66115710509F486C0FC01B5
:1059A0008381882309F081C0A4C086018CE0E82EA1
:1059B000F12CEC0EFD1EB2E4AB2EB12CAC0EBD1ED4
:1059C0004E010894811C911C2796FFAEEEAE2797DE
:1059D000A7E22A2E312C2C0E3D1E270124C0119641
:1059E000B183A08301C0FD01A081B1818C918F3270
:1059F000B1F3D60113968C91139782508230A8F29E
:105A00008E01095D1F4F59966D917C915A97C8017F
:105A10000E94F025882351F648C0342D252D87019A
:105A2000832F922F7C01F50180819181B401A50122
:105A30000E94E121882329F438C03196D501ED93E5
:105A4000FC93D501ED91FC9180818F32B1F38823D5
:105A500029F1C701B801A40121E00E945A2A882334
:105A600061F42596BFAD2597BB23F9F0C701B801B6
:105A7000A4010E94F82B8823C1F00C151D0519F014
:105A8000C8010E9447232796EEADFFAD2797EE167B
:105A9000FF0619F6C101322D292FC1CFC301B8016C
:105AA000A4010E94F82B182F01C010E0CE018796A8
:105AB0000E945123CE010C960E945123812FCA5B74
:105AC000DF4F0FB6F894DEBF0FBECDBFCF91DF9191
:105AD0001F910F91FF90EF90DF90CF90BF90AF900C
